:020000040800F2
:10000000B805002089010008E150010801510108EC
:10001000DF500108DD500108DB500108000000003E
:10002000000000000000000000000000D95001089E
:10003000D750010800000000D5500108E350010826
:10004000E5010008E5010008E5010008E5010008F8
:10005000E5010008E5010008E5010008E5010008E8
:10006000E5010008E5010008E5010008E5010008D8
:10007000E5010008E94D0108E5010008E501000877
:10008000E5010008AD4C0108E5010008E5010008A4
:10009000E5010008E5010008E5010008E5010008A8
:1000A000AD4B0108DD4B0108E5010008ED4B0108EF
:1000B000CD4B0108E5010008BD4B01084F4E01087A
:1000C0003D4E0108494E0108374E0108E501000880
:1000D000E5010008454D0108A14C0108E5010008B3
:1000E000F1500108E50100081D510108E501000873
:1000F000E5010008E5010008E5010008E501000848
:10010000E5010008E5010008E5010008E501000837
:10011000E5010008E5010008E5010008E501000827
:10012000E5010008E5010008E5010008E501000817
:10013000E5010008E5010008E5010008E501000807
:10014000E5010008E5010008E5010008BD3F0108E0
:10015000E5010008094C0108514D0108FD4B01085B
:10016000434E0108314E0108E5010008E501000891
:10017000E5010008E5010008E5010008E5010008C7
:10018000E5010008E5010008002100F004B80F4B6C
:100190005B58435004310E480E4B42189A42FFF40C
:1001A000F6AF0D4A00F003B8002342F8043B0B4BB6
:1001B0009A42FFF4F9AF0A48016841F47001016006
:1001C00014F0CCFC00F010F87047000010C60108D5
:1001D00000000020B8010020B80500209C5100203C
:1001E00088ED00E0FFF7FEBF2DE9804897B002F0F0
:1001F00011FAC14CC14DDFF8189301222A706278C0
:10020000D9F800800023237026462AB16268C2EB29
:1002100008029A42A8BF6370A768380740F17D8141
:10022000B54BDB681B7A062B00F25281DFE813F036
:10023000070007003200E9001A0147014701237C4B
:10024000AD4A002B00F0458100231374536992F8E6
:1002500011E092F818A093F800C00223F01803F1FF
:10026000010B427EA44942FA0EF202F00F026245EF
:100270000CD20B2A0AD88B44407E9BF819B001EBB4
:10028000820200EA0A000BEB0020D0620233102B3E
:10029000E4D11BE194F85C20974B002A00F0AF807A
:1002A00093F8AA10002283F85C2093F8A92001F0AB
:1002B000070042EA00221A6693F8AB2002F03F00E2
:1002C000400140EAD101596693F8AC10890041EA37
:1002D000921193F8AD2002F0010041EA8021996665
:1002E00093F8AE1001F00F00C00140EA5202DA6646
:1002F00093F8AF2002F07F00000140EA1111196766
:1003000093F8B010490041EAD21293F8B11001F00D
:10031000030042EA40225A6793F8B22002F01F001D
:10032000800140EA9101996793F8B310C90041EA4E
:10033000521293F8B510DA6793F8B42001F0070071
:1003400042EA0022C3F8802093F8B62002F03F0072
:10035000400140EAD101C3F8841093F8B710890036
:1003600041EA921193F8B82002F0010041EA80219D
:10037000C3F8881093F8B91001F00F00C00140EAEB
:100380005202C3F88C2093F8BA2002F07F000001DB
:1003900040EA1111C3F8901093F8BB10490041EAEC
:1003A000D21293F8BC1001F0030042EA4022C3F8D5
:1003B000942093F8BD2002F01F00800140EA9101D3
:1003C000C3F8981093F8BE10C90041EA5212C3F85E
:1003D0009C2093F8BF20D1074CBF40F21471AD218F
:1003E000C3F8A01093074CBF40F21473AD2312F072
:1003F000080FC4F8A4300CBF0123032369E013469F
:1004000067E094F8C1303C4A0021002B61D082F8AB
:10041000C11092F8C320012A03D0812A20D10323DE
:1004200000E0134694F8E720102A03D9324A10213D
:1004300082F8E71094F8E700314900225FFA82FE63
:10044000864501F1020144D211F801EC11F802CC09
:100450004EEA0C2CDFF8BCE04EF822C00132EDE78A
:100460000B4636E094F82821234B8AB3002283F808
:10047000282193F82921A82A2AD193F83C313BBBA3
:1004800006EB43029FED1F7A92F82C1192F82D2172
:1004900002EB012207EE902AF8EEE77A1A4AC7EE3D
:1004A000877A9FED1A7A77EEC77AFCEEE77A17EE35
:1004B000901A42F823100133082BE1D106E094F89A
:1004C000603133B10C4B002283F86021012300E03E
:1004D000002313F001021FD083F002030122C3F3B3
:1004E000400322706370C3B1F80516D500232B704A
:1004F00009F0D8F811E000BFB80500200000002086
:100500007D060020CDCCCC40F80600200080BB4307
:100510008C190020A00600202A7079040DD594F8CB
:10052000613123B1AB4B002283F861210123237099
:100530001BB1FA0501D509F0B5F844F208033B40B8
:100540000BB123780BB9BB0403D508F5C333A03333
:100550006360FF0710D594F8621194F863219D4BF6
:100560008A4207D001225A7008F5C332A0325A607D
:1005700083F8631163782B7023783BB9954BD3F8DC
:100580006401C0EB0800C043C00F00E0012098B335
:1005900004F012FE012384F8683194F869318D4F1C
:1005A000002B00F0C384D7F86C31580740F1BE84AB
:1005B000D7F87031190704D4082008F061FC00F066
:1005C000B5BCB7F8748108F008081FFA88F8B8F1CC
:1005D000000F40F0AB84082008F042FCD7F87C31D3
:1005E000C7F87831B7F88831A7F88031C7F8A88103
:1005F000C7F8AC8100F09ABCD4F8B0A1754F0AF1ED
:100600000103BAF1010FC4F8B03100F0A580BAF1CE
:10061000020F00F03E81BAF1000F40F0FC82D7F8E3
:100620006C311A0740F1F782D7F8B431C3EB0803F5
:10063000002BC0F2F08208F5C333A033C7F8B43101
:1006400007F5E070D7F8BC319847634B07F5E070C9
:1006500001461A780AF0CFFB97F8C62112F0040F72
:1006600007F5E0701DD0D7F8B431C7F8C831594B41
:1006700003F5E67151440027A1F8707103F6941751
:1006800030F80A102AF8071003F69A172AF807100C
:100690000AF1020ABAF1060FE9D122F0040283F846
:1006A000C62194F8A0294B4BA2B1B3F8C011B3F8FE
:1006B0003C238A1AA3F8C021B3F8C211B3F83E2331
:1006C0008A1AA3F8C221B3F8C411B3F840238A1AD6
:1006D000A3F8C421D4F8C8313E4A002B00F09B8215
:1006E000D2F8B4113D4FCB1ABB4202F69A1102F672
:1006F00094171CD83A4B5A6982F480425A610023FD
:10070000C25A37F903C00FFA82FEF445C4BFDFF8BE
:10071000D8C023F80C2031F903C0F445BCBFDFF882
:10072000CCE023F80E200233062BE9D173E200233C
:10073000C2F8C83137F903E0C85E2A4A70444FF066
:10074000020E1A44734490FBFEF0062BA2F87001CF
:10075000F0D10CF0C1FE5EE2D7F86C315B0740F1DE
:100760005A82D7F8A439C3EB0803002BC0F2538296
:1007700097F8A839C7F8A409012B13D002D3022B8C
:1007800036D07EE0D7F8B4399847D7F8B8399847CB
:10079000D7F8A439B7F8AE2987F8A8A91344C7F841
:1007A000A4396EE0D7F8BC399847D7F8B0399847E4
:1007B000D7F8A439B7F8AC291344C7F8A43907F619
:1007C000C410D7F8C03907F6C8119847022387F834
:1007D000A83956E0B8050020A51900207FC3C9013B
:1007E000000C0240840700204C0F0020520F002014
:1007F000D7F8D419D7F8D0E991F80080D4F8DC19EB
:1008000087F8A8090EF10103434508BF87F8D8A966
:10081000D7F8CCC9D7F8C42901F1010708BF0346AE
:10082000032F04D1CE48012780F8E079002706EB9A
:100830008101CB48C1F8E42994F8E019C4F8DC79C7
:1008400081B1D0F8E429D0F8E819D0F8EC098A424F
:1008500002DD17460A4639468142A8BF0146914249
:10086000A8BF0A4606EB8E01C4F8D039C1F8F029BA
:1008700006EB8301D1F8F019C1EB0C0C6244C4F80B
:10088000CC29D4F8A47908F0A9F93844C4F8A4090B
:10089000C1E1D7F86C31580740F1BD8197F8D839DC
:1008A000002B00F0B881D7F8B03AC3EB080309EE8B
:1008B000903A19EE902A46F2A7139A4240F2AB8181
:1008C000C7F8B08ADFF8BC829FEDA69AB8F800108E
:1008D0009FEDA58AF7EE008A07F6BC2A07F52C6B78
:1008E00089B3D7F8D429D7F8CC391278D7F8B40A15
:1008F000DFED9E0A013AB3FBF2F3082290FBF2FE11
:10090000CEEB00000344C7F8B43A93FBF2F305EED4
:10091000903AB8EEE50A049180EE090A15F05CFE03
:10092000049900230139A8F80010CAF80030CBF868
:10093000003038EEC00A20EE080ABDEEC00A10EE04
:10094000100AC7F8B80AD4F8D479D4F8CC393A7870
:10095000DFED860A013AB3FBF2F305EE903AB8EE0A
:10096000650A80EE090A15F037FE38EEC00A20EE5F
:10097000080A15F02FFDD4F8B83AD7ED017AD4F86B
:10098000C41AC01A06EE900A05EE901AB8EEE60AEE
:1009900078EEE76AB8EEE57A20EE260AA7EE270A97
:1009A00015F018FD72499FED736A91ED007AD4F845
:1009B000C83AC4F8C40AF8EE477A27EE866A6BB1E3
:1009C000674AD2F8D42A05EE903A08EE102AB8EE1B
:1009D000E57AB8EEC88A88EE078A01E09FED668A5C
:1009E0005F4F9AED007AD4F8DC2A07F6D82393ED0E
:1009F000009AD2ED036A28EE099AF6EE005A29EE23
:100A0000279A67EE067A69EE255A78EEE68AE5EED1
:100A1000867A0023C4F8CC3A9BED006AC4F8D03A39
:100A200005EE900A77EE867AB8EEE56A37EE099A17
:100A300066EE288A8AED009AE7EEA68AC4F8D43AD0
:100A4000C4F8C83A0B60CBED008AB8F800B0BBF12F
:100A5000000F40F0E080D7F8E01A9FED487AC7F821
:100A6000E00A411A07EE901AF8EEE77AF8EE699A72
:100A700067EE877A40F2DC53C7EEA99A0A2107F69F
:100A8000E828FDEEE88AFDEEE99AC7ED5F8A19EEE7
:100A9000900A9842A8BF1846A3F6B8339842B8BF48
:100AA0001846039212F0C5F8039A06EE900AD2EDAA
:100AB000027AB7EE000AB8EEE67A30EE670A07F679
:100AC000BC2027EE000AA9EE270A80ED000A15F0E7
:100AD00081FC0521824612F0ACF8B7F8EC3AC7F871
:100AE000E40A03F21F339BB240F23E62934298ED58
:100AF000009A09D8B7F8EE1A01F21F3189B2914273
:100B00008CBF0021012100E0594611F001017ED087
:100B100094F8F23A124F002B36D118EE901AD7F80B
:100B2000783117485B1AB3F5FA7FA8BF4FF4FA7310
:100B30008342A8BF18460A2112F07BF8D7F8F43A8E
:100B40001B798022584390FBF2F3B3F5967FA8BF40
:100B50004FF49673A2F5D6729342B8BF134615E0D0
:100B6000B805002080E6C547D048874AB1DC423E40
:100B700098190020BD378635000000000024744914
:100B80000CFEFFFF96190020BB4B1B68D4F8F42A1B
:100B9000D4F8A871917ACAEB03035943202091FB42
:100BA000F0F1107D927F07EE902A38EE099AF8EE68
:100BB000E77A03FB007027EE899ADFEDB07AB04B3D
:100BC000B0F5C81FA8BF4FF4C81029EE279A984265
:100BD000B8BF18464FF40053C4F8A801BDEEC99A37
:100BE00090FBF3F0A74BB1F5967FA8BF4FF4967139
:100BF0009942ACBF4118C11819EE103A6FF0950236
:100C0000962BA8BF96239342B8BF1346C91AC4F8BF
:100C1000AC1188ED008AD4F8B031032B03DD9A4B78
:100C20000022C3F8B021A368190640F17F81964BDA
:100C3000D3F8F83ABBB994F8FC3A013B052B00F223
:100C40007581DFE813F01700170017001700600127
:100C50003B018D4BD3F8F80A08F0ACF906F0FEF929
:100C600008B10DF043FAD6F8F80A08F0A8F9002800
:100C7000EFD1E0E7D4F81C2B834F1278012A05D07E
:100C8000C0F00A81022A00F007814FE1D7F8F80A84
:100C900008F07BF9002800F0498197F8FC3A013B05
:100CA000032B00F24381DFE803F00247578B774BB9
:100CB000D4F8142B1968744B8A1AC72A40F236816B
:100CC000D3F8100B042835D8714AC3F8141B0C272D
:100CD00007FB0020D3F8F87A90F821E0D7F80880D5
:100CE0000023104650F8231041455FFA83FC04D0DE
:100CF0000133082BF6D1002300E06346734505D08D
:100D0000384652F82E1008F050F90FE194F8FD3AE9
:100D10000C2202FB0300D0F8248018F8011B19B143
:100D2000384608F05FF9F8E7D4F8103B0133C4F80F
:100D3000103BFBE00220F7E0554B94F8FD2AD4F875
:100D4000F80A0C2101FB023292F8212053F82210FC
:100D500008F02BF90320E7E094F8183B1BB94A4B45
:100D6000012283F8182B94F8183B474F012B17D119
:100D7000D7F8103B072B0DD8454AD7F8F80A13448B
:100D800093F85C1008F02EF9D7F8103B0133C7F840
:100D9000103B05E00023C7F8103B032387F8183BFE
:100DA00094F8182B384B022A40F2C080D3F8202B3D
:100DB000002A00F0BB80002283F8182B0420B3E047
:100DC000D4F81C2B304B9278002A75D093F8182B4E
:100DD00012B9012283F8182B94F8183B2A4F012BE3
:100DE00025D1D7F8203B2B4A9342D7F8103B0FD898
:100DF000E22B06D8264AD7F8F80A134493F8641071
:100E00000EE00023C4F8103B022384F8183B0EE0E8
:100E1000DB2BF6D81E4AD7F8F80A134493F847118B
:100E200008F0E0F8D7F8103B0133C7F8103B94F80E
:100E3000183B154F022B1AD1D7F8103B0F2B13D8A4
:100E4000D7F81C2B12495278D7F8F80A02EB021295
:100E50000A44134493F8241208F0C4F8D7F8103B5E
:100E60000133C7F8103B02E0032387F8183B94F8DE
:100E7000183B022B5AD91FE0A01900200000003BAC
:100E80000000E7FFD4FEFFFFB805002080510020DE
:100E9000B48401086F110100012B47D8CB4B97F8A0
:100EA000FD2AD7F8F80A0C2101FB023292F8212022
:100EB00053F8221008F079F8052035E0D4F8042B17
:100EC000C34B0132C4F8042BD4F81C2BD2785AB18E
:100ED00093F8FD2A0132D2B20521B2FBF1F101EB08
:100EE0008101521A83F8FD2ABA4B1B68C4F8083BEB
:100EF000002384F8243B94F8C63123F0020384F8DD
:100F0000C631012010E0B34BD4F8082B1968B04B60
:100F10008A1A40F6C4118A4208D9D3F86C2122F00B
:100F20002002C3F86C2106200CF0F6FE07F056FEF6
:100F3000D4F8343BC9F800000FA898479DF83C301E
:100F400043B9A54B1A68A24BD3F83C3BD31A002BEC
:100F5000C1F21183D9F80020D4F8403B9C4FD4F85B
:100F6000448B134403F5FA73C4F83C3B07F648304E
:100F7000D4F82C3B984707F6483094F84E2B01469E
:100F800009F039FF954A1388002B00F09680D7F8B6
:100F9000503B1B78002008EE103A07F65437824683
:100FA0008E4BDFF848C2B3F800B0BBF57A7F03D1AF
:100FB00000234CF800303B6189495CF8003031F97E
:100FC0000AE073444CF800303B6905EE90EA0133C7
:100FD000012BF8EEE57A3B6106D10023C7ED017ADB
:100FE000C7ED007ABB6019E097ED006A05EE903A14
:100FF00077EEC66AB8EEE57A86EE877A36EE077A3D
:1010000037EEC76AD7ED027A87ED017AE6EE867A87
:1010100087ED007AC7ED037AC7ED027A714B4FF086
:10102000000CBBF1010F21F80AC02AF803C02ED131
:101030003969012909DD013900EE101AD7ED037A6B
:10104000B8EEC00A87EE800A01E09FED670A0490BF
:101050000392029315F064FC18EE101A0498039A98
:10106000029B51B1F8EEC87AB4EEE70AF1EE10FA3D
:1010700003DD4FF47A7313801FE05C4941584FF44D
:101080007A7E01F5FA7C9CFBFEFE23F80AE00AF169
:10109000020ABAF1060F00F1040007F114077FF409
:1010A0007FAFBBF1010F04D15846039207F09EFEBB
:1010B000039A0BF1FF3BA2F800B00023444F07F660
:1010C000483A07F69C3233F80A109A5A8A1A23F8DB
:1010D0000A200233062BF1D1D7F86C3113F002034A
:1010E00000F0EA82D7F8A83B07F53B609847404BF1
:1010F00007F53B601A78014609F07DFEB7F8B63B6C
:10110000002B45D00022D7F8B87B1346B6F8B61BA3
:10111000DFF8E0E0B1F5C87F04BF00214EF803100E
:101120002B495EF8030001F53B6C32F90CB05844D2
:101130004EF80300043300200C2B22F80C00B852A8
:1011400002F10202E2D1B1F8B63B012B1BD1D1F87A
:10115000BC3B4FF4C872C83393FBF2F33B80D1F829
:10116000C03BC83393FBF2F37B80D1F8C43BC83358
:1011700093FBF2F26B88D21ABA80A8F85800A8F84C
:101180005A000CF0A9F9B4F8B63B013BA4F8B63B01
:10119000A2680F4B520740F19280B3F8C82B322A55
:1011A0002AD1D3F8B82B1188A3F8CA1B518892888A
:1011B000A3F8CE2BB8F85820A3F8D02BB8F85A20B3
:1011C000A3F8CC1BA3F8D22B18E000BFB48401080D
:1011D000B8050020805100208C1900209C190020A7
:1011E00000110020541100200000000048110020D0
:1011F0008819002074110020002A3FD00023D4F861
:10120000B8BB1846B6F8C82BB849B94F322A04BF44
:1012100000220A5007F53B6E0A5833F90EC06244AB
:101220000A50043000220C2823F80E202BF803204B
:1012300003F10203E6D1B7F8C83B012B19D187F8B7
:10124000E13B87F8E02B07F0D1FDB7F8CA3BABF8DC
:101250000030B7F8CC3BABF80230B7F8CE3BABF878
:101260000430B7F8D03BA8F85830B7F8D23BA8F80C
:101270005A30B4F8C83B013BA4F8C83B94F8E22BC1
:101280009B4BE2B1D3F8D40BD3F8B81B3227002222
:1012900090FBF7F083F8E22B0880D3F8D80B90FB93
:1012A000F7F04880D3F8DC3B93FBF7F76B88FF1A25
:1012B0008F80A8F85820A8F85A200CF00DF9D4F81F
:1012C000B83BB4F8B01B1A888A1AA4F8B02B5A8815
:1012D000B4F8B21B8A1AA4F8B22B9B88B4F8B42BCA
:1012E000D31AA4F8B43B07F079FCD4F8E43B814A64
:1012F000D4F8EC7BC4F8E40BC31A0AEE103A134698
:1013000093ED006A97F800C0B8EE4A9A002329EEE0
:10131000066A083219460DF1240E0EEB43003AF925
:1013200003E007EE90EAF8EEE77A67EE867AC0ED22
:10133000007ABCF1000F1DD005EE90CAB8EEE57A38
:10134000F7EE006A86EE877A6B48C05E07EE900A79
:10135000F8EEE77A694867EE877A36EEC77AD2ED1B
:10136000006AE6EE877AC2ED007AFDEEE77A17EEC4
:1013700090EA04E06148A0F14C0E33F80EE023F847
:1013800000E05E4833F800E00233062B1EFB0E112E
:1013900002F104028346BED16B884FF064085B43C0
:1013A00008FB01F191FBF3F8A8F14908083009A9FD
:1013B0001FFA88F811F014FDB8F13B0F97ED017A90
:1013C0000BF1080312D9B4F9101CD3ED020A484AF4
:1013D00007EE901AF8EEE77A94F8C611F4EEE70AF1
:1013E000F1EE10FA1CDD41F008011BE0F7EE007A87
:1013F00037EE276A194687EE866A00223BF902C05B
:101400000232062A07EE90CAD1ED006AF8EEE77ABA
:10141000E6EE877A67EE866AE1EC016AEED1D2E702
:1014200021F0080193ED010A82F8C611029315F02C
:10143000D1F8029BDFF8CC8093ED027AD3ED017AEC
:1014400088ED000AF0EE408A27EE070A9BED028A3B
:10145000DFED2B9AA7EEA70A15F062FAB1EE488AE3
:10146000F0EE400AB0EE480A15F0B4F8B0EE408A4B
:1014700088ED010A28EEA90A14F0ACFF28EE290A2B
:10148000A4F8EC0A14F0A6FFD4F86C31A4F8EE0A24
:101490001B0739D508F1080009A911F0A1FC97ED47
:1014A000027AF7EE007A37EE276A08F1080287EE33
:1014B000866A0023DFF838B00BF5E071595E02331D
:1014C000062B07EE901AD2ED006AF8EEE77AE6EE08
:1014D000877A67EE866AE2EC016AEBD10BF61C4074
:1014E00008F040F8ABF8280C3FE000BF8C1100205A
:1014F000B8050020A011002068110020B4110020C0
:101500004C3D0F44CC110020A34B0293181D09A998
:1015100011F066FC95ED020A95ED017AD5ED037A9E
:1015200020EE000AA7EE070AA7EEA70A15F0F8F9C1
:10153000B5EE400AF1EE10FA029B11D093ED017A5C
:1015400087EE007A83ED017A93ED027A87EE007AD6
:1015500083ED027A93ED037AC7EE007AC3ED037A46
:101560008E4807F0FFFFA4F8280CDFED8D7AB4F960
:1015700028EC9FED8C7AB4F9FC0BB4F9FE1BB4F99E
:10158000002CDFF8348229EE279A07EE90EAF8EE75
:10159000E77AF1EE688A67EEC77AB1EE488ACDED58
:1015A0000E7A07EE900AF8EEE77A0FA8CDED0F7AE3
:1015B00007EE901AF8EEE77A0CA9CDED107A07EE57
:1015C000902AF8EEE77ACDED0C8ACDED117A8DED0B
:1015D0000D8A11F005FC7B78DDED117A012B1FD10E
:1015E000714B1B78580711D4D8F82C3C402293FB40
:1015F000F2F29A1A07EE102AB8EEC77A37EE277A77
:10160000BDEEC77A17EE103AC8F82C3CD4F82C3C43
:10161000402293FBF2F305EE903AB8EEE57A04E04F
:10162000688807EE100AB8EEC77A604B9DED0F0A86
:1016300093ED008AD4F8CC8A77EEC77ACDED117A93
:10164000D3ED017A79EE277A89EE279ADDED117ACA
:1016500077EEC87AA9EE278A83ED008A14F0BAFEE5
:10166000D4F8387C397811F0E4FA9DED100A404442
:10167000C4F8CC0AD4F8D08A14F0ACFE397811F052
:10168000D8FAB0EE480A4044C4F8D00AD4F8D48A54
:1016900014F0A0FE797811F0CCFA454B1AEE101A2E
:1016A0001A680A441A60D4F8C83A40440133C4F8AE
:1016B000D40AC4F8C83A05E0A7F8B03BA7F8B23B93
:1016C000A7F8B43B07F08AFAD4F83C3CDFED347A53
:1016D000C9F80000C31A1FFA83F805EE908AB8EE25
:1016E000658A344BD4F8449BA4F8408C28EE278AB2
:1016F000C4F83C0C83ED008A99F852302BB9D4F829
:10170000480C2D4B002862D11AE000273AF9070057
:101710002A4B99F8521000EE100A062000FB073001
:10172000B8EEC00AF0EE480A07F089FDBDEEC00A27
:1017300010EE103A2AF807300237062FE6D1DEE71E
:10174000996842F201020A40C2B144F62062C3F82D
:10175000482C09F17909034619F8031009EB030233
:1017600041B99078D178884204D25378043384F810
:10177000703C29E00433502BEED125E093F8582338
:10178000012A06D002D3022A03D019E045F2F05212
:1017900018E042F6F82215E00000002004000020C6
:1017A000BD37863535FA8E3CA6190020E811002099
:1017B00098190020FC110020B80500200412002018
:1017C00042F21072C3F8482C0123A4F8723CD4F8FA
:1017D000742CC64B06EB42060132042AA6F8788C1C
:1017E000C4F8742C27DDB3F9781CB3F97A2C0A44B9
:1017F000B3F97C1C0A44B3F97E1C0A44B3F9801C7B
:10180000B3F9823C0A44052192FBF1F291B203F54F
:10181000C870814203DCA3F5C873994208DAD4F892
:10182000483CA4F8822CB3FBF2F30133A4F8723CD9
:101830000023C4F8743C94F86821AC4BE2B3B3F8CD
:10184000721CB3F8846C08B20022A84B03F5C17770
:1018500003F6864C32F807E032F80C8003F68E4728
:1018600018FB06F832F8079022F807E0C9EB0E09DA
:1018700098FBF0F8C84422F80C800232082AE4D120
:1018800093F8702C8AB103EB4202B3F896ECB2F8ED
:101890008221B3F8987CA3F8982C1EFB06F6D71B80
:1018A00096FBF0F03844A3F8960C0023013984F835
:1018B0006831A4F8841C04E0B3F8842C013AA3F83E
:1018C000842CB4F8846C894B30B200284FF00002AD
:1018D00027DDB3F9721C854B03F6864703F68E4C61
:1018E00032F807E032F80CC01EFB06FE03F5C177A4
:1018F0009EFBF1FECEEB0C0E22F807E00232082A26
:10190000E9D193F8702C72B1B3F9966C704390FBE7
:10191000F1F1B3F8980C03EB4202411AA2F88211DC
:1019200001E0A3F8842C02F007FAD4F870316F4E6E
:10193000012713F4801384F8697100F09980B6F8D8
:101940007431190600F1F580694B1B7803F004032C
:1019500003F0FF09002B79D096F89A3C13B196F862
:101960009B3C3BB1634B00221A6001232B74002384
:1019700084F89B3C2B7C5D4FD4F8446B84F89A3CF4
:10198000032B06D1304607F54A61542214F009FBB7
:1019900055E0012B07D107F54A603146542214F077
:1019A00000FB002302E0022B02D1012387F8F43C64
:1019B000012384F8F53C84F8F63C4F4BC4F8006DE5
:1019C00000221A605A6032784C4984F8042D94F849
:1019D000F42C0A44B2EE047A92F87812484A43F89A
:1019E0005C2C0E4484F8051D717896F815C007EE3E
:1019F000901AF8EEE77A03F11002C7EE877A9FEDAE
:101A0000417AC3ED047AF37A07EE903AF8EEE77A7A
:101A1000C7EE877A9FED3C7AC2ED017A07EE90CA55
:101A2000F8EEE77A67EE877AC2ED027AFCEEE77AA3
:101A300017EE903A73750023F3720AF043FB80208F
:101A400007F00EFA012384F8143D72E006F69C4874
:101A5000D8ED007AF5EE407AF1EE10FA69D00BF08D
:101A60003BFD0023C8F8003086F89A9C2F7460E094
:101A7000B6F87421120651D596F89A2C511E0129F8
:101A80002ED8D6F8003D96F8052DDFED1E7A93F896
:101A900001E006F6085696ED017A67EE277A1A44B9
:101AA000FCEEE77A17EE901AD17296ED027ADFED2E
:101AB000177A67EE277AFCEEE77A17EE901A07EEB0
:101AC00090EAF8EEE77A517577EEA77AFCEEE77ABE
:101AD00017EE902ADA70DA7A5A735A7DDA7517E0BF
:101AE000032A15D186F89A3C2F7414E0B80500201B
:101AF000A619002054120020B0120020B48401085E
:101B00000000A04100007A445555553F9A99993FED
:101B10002B7C01332B74802007F0B2F9B74B1B7874
:101B2000580706D494F8143D1BB1B54B012283F835
:101B30009B2CD4F86C61B24A310739D5B2F81A1D22
:101B400001F145039BB28A2B2ED8B2F874315B07A2
:101B50002AD5B2F8280CB2F81E3D94F8C671C21A04
:101B600092B293B218B2B330BCBF02F5B4739BB259
:101B70001AB2B32AC4BFA3F5B4739BB23F07A04AFD
:101B800094F82A0314D540B240424343D2F8440BA0
:101B9000407A9BB213FB00F36FF01D0093FBF0F350
:101BA0001944A2F81A1D03E0B4F8283CA4F81E3D1D
:101BB00016F0140F7DD0B4F87421914B02F4027228
:101BC000002A76D093F8C62102F0100202F0FF003E
:101BD00052B1B3F8181D93F9A803D3F8AC2100FB58
:101BE0000212A3F8182D64E0D3F8202DD178927852
:101BF00079B3B3F98011B3F98871C1EB070EBEF167
:101C0000000FB8BFCEF1000E964510DDC3F8A80155
:101C10008F424FF00100C8BF524283F8240DB3F841
:101C20001C3DC8BF92B21A44A4F81C2D41E093F8A1
:101C3000242D2AB1D3F87C21C3F8782183F8240D10
:101C4000D4F8AC31D4F8282D19441388528899421D
:101C500028E0B3F98001B3F988713F1A87EAE77E7B
:101C6000AEEBE77E96450ADD022297FBF2F7654A66
:101C70001760012283F8F22A83F8242D0AE093F8F2
:101C8000242D3AB1D3F87C21C3F8782183F8F21AD5
:101C900083F8241DD4F8281DD4F8AC210B8849887A
:101CA00002449A4203DB8A42B4BF13460B46A4F8AF
:101CB0001C3D6B7CB3B1B4F98821B4F860339A420F
:101CC00010DC4F4B93F8D131012B01D0192B02D1ED
:101CD00094F8A22332B90E2B04D0082B1CBF00238A
:101CE000A4F81A3DD4F8448B454D98F81871002F8C
:101CF00045D0B5F874319B0741D005F6044393ED08
:101D0000010AD3ED007A93ED028AB5F81C9D20EE0E
:101D1000000AA7EEA70AA8EE080A14F001FE88EE52
:101D2000000ADFED397AB4EEE70AF1EE10FA22D9B3
:101D300014F0F2FB05F62C55D5ED007A20EE270ABB
:101D400014F048FBB0F5617FA8BF4FF4617005EE59
:101D5000900ADFED2E7AB8EEE50A80EE270A10F041
:101D600077FF06EE907AF8EEE67A27EE800A14F016
:101D700031FB80B200E000204844A4F81C0DB706F7
:101D800040F19080B4F874311D4D03F03003002B06
:101D900000F0888095F8C631DE0740F18380B5F900
:101DA000280CDFED1B7A1B4E08EE100AB8EEC88A2D
:101DB00028EE278AB0EE480A10F04AFFF0EE408A7B
:101DC000B0EE480A10F0A6FFD5F8303DB5F93A0D4F
:101DD000DF78B0EE409AB2EE048A002F42D0B5F818
:101DE000363D1FFA83F91BB2C01A11F0C3FA7D42C7
:101DF000A84211DBB842A8BF38460EE0A619002061
:101E0000B8050020A01900208FC2753CEFB6B04481
:101E100035FA8E3C901900202846B4F8343D8144B0
:101E2000B4F9380D1FFA83FA1BB21FFA89F9C01AE8
:101E3000A4F8369D11F09EFAA84203DBB842B4BF65
:101E400005463D465544ADB2A4F8345D0FFA89F914
:101E50002DB205EE909A07EE905AB8EEE57AF8EEBC
:101E6000E76A09E0B5F9385D05EE900A06EE905A8A
:101E7000B8EEE57AF8EEE66A68EEE67AE7EE097A19
:101E800026EE899AC7EE887AA7EE289AFDEEE77AC1
:101E900089EE089A17EE903ABDEEC99A338019EE92
:101EA000103A7380864DB4F8342305F554730093CB
:101EB000844BD4F83C1D1E68404608F15803B047D7
:101EC00094F8401D032916D9D5F8443D5A88B2F537
:101ED000FA7F10D2B5F94C0DB5F91A5D5342002DB9
:101EE000B8BF6D425B1B984203DB53198342A8BF06
:101EF0000346A4F84C3DB4F81C0DB4F84A5DB4F8A0
:101F0000486DD4F8447DB4F94CED6F4B00228A4201
:101F100003F1100335D297F901C0CCF1000C0EFB90
:101F20000CFC07EE10CA0FFA86FC06EE10CA0FFA78
:101F300080FC05EE90CA0FFA85FC07EE90CAF8EE19
:101F4000C76AF8EEE77A13ED027ADFF884C167EE2C
:101F5000877AF8EEE55A13ED047AE5EE877AB8EE63
:101F6000C66A13ED037AE6EE077A13ED017AE6EE20
:101F7000877AFDEEE77A17EE908A2CF8128001320C
:101F8000C5E7524B1A7802F0040202F0FF03002A60
:101F900072D094F82D9EB4F8105E01238B424C4809
:101FA0002EB207D230F91350B542B8BF3546ADB2A4
:101FB0000133F3E7D4F8302ED4F8347E5388D4F8C4
:101FC00038EE9E42C8BFC3EB0505A368B4F988612B
:101FD00003F4805A03F0100BD4F8443D05933C4BB6
:101FE000CCBFADB2002500EB410843453BD019887A
:101FF000491B89B223F8021B09B2BAF1000F0AD0BB
:10200000F8898642C7BFBEF80200B2F802C09088C5
:10201000BEF800C005E0B2F802C0B9F1000F09D067
:102020009088814203DB6145B4BF0846604623F8CF
:10203000020CDAE71088814203DB6145B4BF084631
:10204000604623F8020C398A8E42CEDABBF1000FCB
:1020500001D0918804E0059801780029C5D1118844
:1020600023F8021CC1E794F83C2E154B013AD2B27A
:10207000182A00F254810AE08B42F4D2144A02F189
:102080002E0030F8130022F813000133F4E7012189
:102090009140104A0A40002A00F04181B3F87421AF
:1020A000D00519D5B3F8162DADF83C20B3F8182D8E
:1020B000B3F81A3DADF83E20ADF8403025E000BF42
:1020C000B80500201400002008130020A6190020E5
:1020D000C813002099209801B3F8482D9968ADF8ED
:1020E0003C20B3F84A2DADF83E20C904B3F84C2D7E
:1020F000ADF8402009D5B3F98811D3F8343EDB8917
:102100009942BCBF5242ADF84020B4F9EE1A4FF4E8
:102110007A7201F5E16151434FF4616391FBF3F190
:10212000A1F5FA71ADF85410B4F9EC1A01F5E161BA
:102130004A4392FBF3F3A3F5FA73ADF85630B4F8C3
:10214000103EB4F88221A3F2DC53ADF84230D4F84B
:10215000343EDB89D21AADF84420B4F88421D21A77
:10216000ADF84620B4F88621D21AADF84820B4F86C
:102170008821D21AADF84A20B4F88A21D21AADF8D3
:102180004C20B4F88C21D21AADF84E20B4F88E2130
:10219000D21AADF85020B4F89021D31AADF85230CD
:1021A0000022BC4B03F65660002111520232102A65
:1021B000F7D1D3F87021D3F8684E93F8663E0592B4
:1021C0005B00079306940B46079EB248B34200F0AB
:1021D0008B8000F66C646218957935B1012615354F
:1021E00006FA05F5059E354078D0675C069892F9A9
:1021F00004B092F8019092F803C092F805A0C7EBE2
:10220000C70600EB46064FEA490EB6F90000B6F9DC
:1022100002502D1AADB2642005FB0BFB9BFBF0FBBB
:102220004FEA5508C8EB0B0B1FFA8BFB9A4816AC0C
:10223000BCF1000F03D1744434F81C4C0CE0A644EC
:10224000C45E3EF91CEC744508DAA444A44503DBE3
:10225000E645B4BF74466446C4520AE009DDCCEBDF
:10226000040CF44503DBA445B4BFE646A64620F8BB
:1022700003E04FF0010ED6F80A60864892F902207A
:102280000EFA09F919EA060F0CBF76464FF0FF3631
:1022900000F6DC6E7F0033F80EE012FB0EF24FF01A
:1022A000640EC41992FBFEF20FFA8BFB5A45B4F888
:1022B000564EB6B20CDB4FFA8AFB05FB0BFB9BFBC1
:1022C000FEFBC8EB0B0B0FFA8BFB9345A8BF9346A5
:1022D00007440BFB064BA7F856BE02E000F6DC6095
:1022E0001D52023307316FE70024D0F8688E25466F
:1022F0000E2202FB0582694E92F90670A35B17FB62
:1023000003F7642397FBF3F7A753E8B207F010F93C
:1023100001353844082DA05304F10204E8D15D4C86
:10232000A66816F0200734D0002007F001F9A4F8C1
:10233000560E0546012007F0FBF8D4F87031A4F8DA
:10234000580E1B0625D5D4F8FC3EB4F8EC2A1B78B1
:10235000012B22D1D4F8683EB4F9EEEA93F91410B7
:1023600093F9063011FB02F25B4232210EFB03F3BC
:1023700092FBF1F26FF0310E92B293FBFEFE9644A7
:1023800093FBF1F175440A44A4F8565E1044A4F896
:10239000580ED4F868AE002319E0D4F8681EB4F8DB
:1023A000EE3A91F906E091F914101EFB03FE322378
:1023B0009EFBF3FE11FB02F2754492FBF3F3A4F8CB
:1023C000565E1844E3E7D1520233102B10D0C3EB12
:1023D000C305324A5544985EB5F90010B5F902506C
:1023E00088429046EFDB29B28842B8BF0146EAE74F
:1023F000284BD3F8449D99F90830A3B994F83CAE22
:102400000AF1FF33182B7AD8DFE803F02F797957D8
:102410007979794E7979797979637979797979578F
:102420006E7979632F0000251D4BB9F9062038F924
:102430000510442000FB053006F02CFFC5EBC5025B
:1024400080B228F80500524400B2B2F90030B2F967
:102450000220984203DB13B29842B8BF034628F823
:1024600005300235102DDFD1C8E799F804301BB1D3
:102470000020B4F8601E08E00A4B1B7803F0040348
:1024800003F0FF00002BF3D1014611F019F80125EC
:1024900036E000BFB8050020941400200E14002080
:1024A000B8140020A61900200020B4F85C1E11F01A
:1024B00007F80120B4F85E1E07E00020B4F85E1EA5
:1024C00010F0FEFFB4F8601E012010F0F9FF0225A5
:1024D0008BE0002508EB4503E8B29988013510F040
:1024E000EFFF062DF6D10BE0002508EB4503E8B21F
:1024F000D988013510F0E4FF042DF6D175E00025F0
:1025000017B9BAF1050F0CD12846B4F8561E10F0D1
:10251000D7FF681CC0B2B4F8581E10F0D1FF0235C6
:10252000EDB2F00204D4324D95F848326BB91AE09E
:102530000026304B03EB4603A819C0B2198910F0EE
:10254000BFFF0D2EEFD00136F3E72B4ED5F84C32FE
:102550003268D31A002B06DB0EF074FF336803F5E4
:102560008273C5F84C32254B1B7823B9A368190335
:1025700001D503F0DFFD214B214C1B7833B9A36853
:102580005A0503D5B4F81A0307F084F9A368DB03EE
:102590007DF52FAE164B93F85032002B3DF429AE4B
:1025A000184B1A7802F0FF03002A7DF422AE144A79
:1025B000154CD2F8702112F4804F0CD0A27C62B17D
:1025C000124A1168124A99500433802BF8D104F052
:1025D000D9FB002300E00123A374A37C002B3DF46E
:1025E00008AE0EF079F8FDF704BE002F99D08BE706
:1025F000B01600203A0700208C190020A4190020F2
:10260000B80500209E19002000000020F493010866
:10261000021900202DE9F04F2DED028BC24CC34B67
:102620002360A1B0002363600FF0E2FA18B90FF045
:10263000D7FD0FF001FBBE4FBE4EBF4DDFF858B3C4
:10264000DFF84C830AF0DEFB3B7843F001033B707C
:1026500010F052FCB94BF3606B6FA360B84BB360E2
:102660006B6BB84823F080036B636B6F43F0807330
:102670006B672B6B43F03F030DF180092B63032342
:102680008DF8463041F6FF7329F83C3D494608F085
:1026900087FB4FF6FF73AC48ADF84430494608F06D
:1026A0007FFBAA48494608F07BFB5846494608F09C
:1026B00077FBA748494608F073FB4946A54808F050
:1026C0006FFB484608F0D4FA119BA34ADFF8B8C262
:1026D000B3FBF2F3E360A14BA14A4FF0000AC3F849
:1026E00000A0A04B5A60F02286F823200722C3F8EE
:1026F00008A09D4E1A60D8F80830CCF8003096E853
:102700000F0089E80F002B6B119843F008032B632F
:102710002B6B43F008032B634FF48043ABF8183066
:102720004FF40043ABF8183012A9CDF80CC008F0F4
:1027300037FB14A9139808F033FB642006F0BBFBA9
:102740008A485146A02213F035FC2B6C43F013034A
:102750002B646B6C43F001136B64854B474603F1AC
:10276000C000B0469A7ADE7A53F8105B02F0070197
:10277000D20805EB82028900156A4FF00F0E8E40D9
:102780000EFA01F125EA01011162156A834246EA57
:1027900005011162E6D10023634E06F1100200210B
:1027A000995401330C2BF7D1FF2333777377B37729
:1027B000F377704BDFF8E4B16F4DC3F800B06F4BA7
:1027C00004221A702846302213F0F4FB052285F803
:1027D00024206B4A97F805A082F800A0ABF5E972B7
:1027E0003262ABF589727262664A674914232B70B4
:1027F00002EBCA0201232B760D685278B262AA0658
:1028000048BFB3620023614A40F2DC51995202335F
:10281000102BF8D10AA800211C2213F0CBFBBAF12F
:102820000E0F04D00AF0EF0ABAF1080F02D101230B
:102830008DF83A30012006F00FF918B140880030C9
:1028400018BF012000F001008DF82D00052006F0D2
:1028500003F918B14088003018BF0120C5F34003C8
:102860008DF82F30C5F380138DF83130C5F3403328
:102870008DF82830C5F3C03300F001008DF82B30FF
:1028800015F400638DF82E0004D097F880315E1E99
:10289000734273418DF82C30C5F300438DF832300C
:1028A000A36AB7F84401ADF83E00003318BF012316
:1028B0008DF83330C5F300538DF83430B7F8463116
:1028C000ADF83830B7F85231ADF83630C5F3804343
:1028D00005F00101C5F3C0028DF83030E804B7F807
:1028E00050318DF829108DF82A20ADF83C3004D5F0
:1028F0002748B0F84C01ADF83E00B3F5FA7F84BF2D
:102900000023ADF83E30234897F8C83184F82C30C6
:10291000002384F82D3043709DF83A30002B14BF0B
:10292000022300233CE000BFA8190020A990000862
:102930008851002000ED00E0003802400005FA0553
:1029400000000008000002400004024000080240AD
:10295000001002400014024040420F008451002049
:102960003F90020010E000E0649D0108CC4F002081
:1029700054A40108342A0020D8300020D63000208A
:10298000F413002010A50108C00500200E1400203B
:1029900084070020D5190020000C024066090020A1
:1029A00001B902B1013308EB830300271B690493CB
:1029B000B846049AD35B4FF6FF72934200F0F4805E
:1029C000D8B2BD4A9DF832104FEA001B1B0A02EB39
:1029D0000B0529B152F80B10B84EB14200F0E0805F
:1029E000022B02D19DF8281003E0012B04D19DF8A1
:1029F0002910002900F0D4809DF8341031B19DF8E1
:102A00003A1019B90438032840F2B380012B39D1A8
:102A1000FF230026298984F8743084F875306B7B95
:102A2000686884F87860C4F88450ADF844108DF874
:102A30004630494602238DF8473084F8306066639B
:102A4000A663E663266784F8766084F8776003926D
:102A500008F0A6F9039AA97A52F80B00324607F05B
:102A60002DFF28460EF0B0FA954B9649C4F88830F1
:102A7000954BC4F88C30C4F8906028460A1D0BF0C2
:102A8000F7F88DE0022B3AD190488DF847305FFA85
:102A900088F11C26714346184FF0000A4FF0010ED2
:102AA00086F8018086F802A086F80AA000F801E006
:102AB000697BB5F808E06868F5608DF8461049460E
:102AC000ADF844E0039208F06BF9039AA97A52F842
:102AD0000B00524607F0F2FE28460EF075FA7C4BCA
:102AE00033617C4B7361C6F818A0284606F11001CB
:102AF00006F114020BF0BCF808F1010850E0032BBA
:102B000035D19DF830303BB194F82E60284608212D
:102B10004FF6FF7200231CE0BDF83C2094F82E60B5
:102B2000BDF83E30B2F5FA7F0DD96B49B1FBF2F238
:102B30002846082192B20EF064FA04EB8606674B31
:102B4000C6F858010CE06649B1FBF2F228460121B3
:102B500092B20EF056FA04EB8606624BC6F85801A4
:102B6000C36094F82E30013384F82E3018E0042B23
:102B700016D1BDF836305A4A94F82D6092FBF3F224
:102B80002846BDF83830012192B20EF03AFA94F896
:102B90002D3004EB86060133C6F8880184F82D3009
:102BA0000237182F7FF405AF94F82D3084F8A83140
:102BB0004D4B4E4F1D78A5F117030026022B3E709A
:102BC00018D8236A3344D3ED007AF5EE407AF1EE5B
:102BD00010FA02D1A36A53BB24E0454A06EB020E69
:102BE0000FCB8EE80F003B7810360133C02E3B70C0
:102BF000E7D1EFE73F4B13F835C087F800C003EB90
:102C0000C503D3F80480B8F1000FE3D06645E1DADC
:102C1000374A330103EB020E43440FCB01368EE8F3
:102C20000F00F3E734490B68DA0426D41FE0334B76
:102C3000334A03EBC5035E6A93F820001070002E40
:102C4000F0D000238342EDDAC3EBC3017218DFF842
:102C5000BCC0D2F8008041F80C8001EB0C0E9188CA
:102C6000AEF8041092798EF806200133EAE705F0F9
:102C7000EF03082B234B4BD14CE039780129F6D9CF
:102C8000214B00228A4203F11003F0DA13ED047A9B
:102C9000F6EE007A27EE277A013203ED047A13ED7F
:102CA000057A27EE277A03ED057A13ED037A67EEAE
:102CB000277A43ED037AE5E750A40108000C0040B1
:102CC000DD280108301A0020E1290108201A00201F
:102CD000D9A90008B929010800127A00012A0108BF
:102CE00040420F00F1290108F4130020F8120020DF
:102CF0000813002010A50108C0050020649D0108EC
:102D00001E1400207E070020101300202414002031
:102D10000E2D08D11A7842F010021A70182D08D121
:102D200006F0E0FB05E01A7822F010021A70192D67
:102D3000F5E70EF06BFB924A13685B0302D4914BEC
:102D400001221A709049914E0B7843F004030B70E6
:102D50008F4B93E803008F4B89E803001A6B11989F
:102D600042F004021A6312A908F01AF809F0E0FF11
:102D70000CF074FC11F05CFEB6F858214AB9B6F9B3
:102D80005A3143B9B6F95C31D3F1010338BF00239E
:102D900002E0002300E0134613F0010324D112B235
:102DA00007EE102ADFED7C7AB6F95A217B49B8EE9E
:102DB000C77A0B7027EE277AB6F95C318DED117A60
:102DC00007EE102AB8EEC77A484627EE277A7449EC
:102DD0008DED127A07EE103AB8EEC77A67EE277AD1
:102DE000CDED137A0FF09EFF6E4B96F867111B68BE
:102DF0000491B3F856306C48059300210C22B6F8C4
:102E0000607196F85FB1B6F80C80684D13F0D2F897
:102E100014226748002113F0CDF8664A94F8D0A137
:102E200000231370BAF1000F08D00022A4F8D221B9
:102E3000BAF1000F08D10CF0A0F905E00FF08DF900
:102E4000002800F01087F0E7B7F5807F10D0BB2F87
:102E500011D8612F12D8292F13D8132F14D8092F66
:102E600015D8002F0CBF4FF0000A4FF0060A10E0F3
:102E70004FF0000A0DE04FF0010A0AE04FF0020A9D
:102E800007E04FF0030A04E04FF0040A01E04FF0BE
:102E9000050A494A118821F040010904090C1180F2
:102EA000118821F038010904090C41F0300111802A
:102EB000118889B241F04001118094F8D411192091
:102EC0000EF06BF8012005F0EBFF51461A200EF0D2
:102ED00064F8012005F0E4FF48460EF0E5FB9DF99B
:102EE0004630013303D19DF94430013303D0B4F8A7
:102EF000D2319BB223B10023A4F8D23100F0B3BE8B
:102F00002B4B2E4A1A602E4A5A602E4ADA606420F1
:102F10002D4A1A6105F0CFFF264A2C4C042313706A
:102F20002B4A06231370236843F001032360DA461B
:102F30009146284A0021BAF1090F1170934600F218
:102F40009B86012101FA0AF140F202320A40002A6E
:102F500040F08E8611F0FD0F00F08A8695F8D021A2
:102F600032B10023A5F8D231B2BB0CF006F933E040
:102F700003920FF0F2F8039A002800F07986F0E748
:102F8000C0050020F8180020885100208407002088
:102F9000549E01080038024035FA8E3C180000208B
:102FA000541B0020FC1000205C110020A8190020F8
:102FB000E01000200611002000380040DD2B010841
:102FC000A91601085DF1000890C1793D2407002091
:102FD00019000020881900207E4B7F4A1A60642067
:102FE0007E4A5A6005F067FF04238BF80030072300
:102FF00089F80130236843F0020323601E21012277
:10300000772011F0C9FF4FF42F6005F049FF14201D
:1030100005F051FF7720A021012208AB0DF034FA12
:10302000002851D00024A4F160014FF0000AC9B279
:10303000022211AB77208DF844A08DF845A00DF049
:1030400023FA9DF845309DF8441043EA0121644B72
:1030500003F5EB72A1520234102CE4D1B3F8E4E191
:103060000EF00F040EF47F4EA3F8E4E10121534665
:103070005246DFF86CC122F001006044B0F8D6017E
:10308000002818BF002112F0010F03D0C0B2434046
:10309000082002E083EA1023FAE713F4004F18BF78
:1030A00083F4C05301384FEA4303F6D10132102AAA
:1030B000DFD14B4A44EA0E0EA2F8E4E121B9C3F392
:1030C00003339C4200F0DC85464C236823F08002E9
:1030D00022609A0702D53F4B1B689847FFB2002F2A
:1030E00014BF4FF47A737D23984505DBB8F57A6FEA
:1030F000A8BF4FF47A6800E098465A1E9044B8FB87
:10310000F3F2013AD2B2384985F8D42102FB0333F5
:103110000B60364B1B689847DDF81090344F002346
:10312000B9F1040F3B7000F2C885012202FA09F3DD
:1031300013F01A0140F0BD8513F0050F00F0B985BA
:1031400020ABC5F8E81103F83C1D1E200A210DF044
:103150009BF9002800F0AD859DF84430482B40F0E5
:10316000A885244B244A1A60244A5A60244A022320
:103170003B70D370236843F00803236096F8543102
:103180000BB1204A137096F855310BB11E4A1370DB
:1031900096F8563103B13B7023681B0738D5059B61
:1031A0001AB2642392FBF3F103FB11231BB207EE67
:1031B000103AF8EEC76A07EE101AF8EEC77A9FEDDC
:1031C000137AE6EE877AB2EE047A67EE877AC5ED77
:1031D0007B7A21E05C110020CD2B0108411601080B
:1031E000A819002024070020F8100020E01000207B
:1031F000A519002070070020193901082D050108C4
:103200001900002006110020881900208988883CB8
:10321000BA4B0022C3F8EC21B9490B7843F0020302
:103220000B70B84B4FF400425A834FF480421A831C
:103230000A27B44C636983F400436361636983F4D0
:1032400080436361192005F036FE013F192005F027
:1032500032FE17F0FF07ECD14FF480432383AA4BD3
:103260001A684FF4004712F0080F2783984607D0DA
:10327000A64B67831B689847A54B278301221A70CA
:10328000A44B9FEDA58A1B68A44C1B7B00EE103A53
:10329000B8EEC00A20EE080A0FF03CFD228807EEC7
:1032A000902AF8EEE77A27EE800A13F093F8248844
:1032B0009FED9B7A9B4B07EE904AF8EEE77A1880D9
:1032C000C7EE277A984B994CFF211A2220469FED92
:1032D000987AC7EE877AC3ED007A964BD3ED047ADD
:1032E000954B27EE888ADFED957A28EE278A83EDC5
:1032F000008A12F05FFE00222270D8F80020904B66
:10330000012112F0020F1970204604D061700321D0
:1033100019700221A170570704D519784C1C1C7034
:103320000324445412F00A0F0CD01A78042181545B
:10333000511CC9B205244454D11C0232D2B21970B6
:10334000062181547F4F3A68940604D519784C1CA5
:103350001C7007244454110608D5197809244454D4
:103360008C1C0131C9B21C700A244454717908299B
:1033700001D00E2908D11C7804F1010E83F800E079
:103380004FF00B0E00F804E01C7804F1010E5FFA18
:103390008EFE4FF00C0C12F4803F83F800E000F832
:1033A00004C009D004F1020C654C84F800C05F4CE5
:1033B0004FF00E0C04F80EC0540708D51C7804F129
:1033C000010E83F800E04FF0100E00F804E01C78C6
:1033D00004F1010E5FFA8EFE4FF0120C12F4806FB2
:1033E00083F800E000F804C00ED096F804C2BCF1E7
:1033F000000F09D004F1020C514C84F800C04B4C72
:103400004FF0130C04F80EC01C7804F1010E5FFAA3
:103410008EFE4FF0140C920583F800E000F804C013
:1034200006D5474A02341470404A152402F80E406B
:1034300018290DD11A7816248454541CE4B24FF084
:10344000170E00F804E0D41C0232D2B21C70815472
:10345000002198223C4812F0ADFD10F0FDFF3B49E1
:103460003B4AC5F8F02100234B800B7139490A60B3
:10347000B6F8922190B2384958520233242BFAD12F
:103480003B681B0740F1188196F88C31062B00F23F
:103490000C81DFE803F00404739DB4CFCF002F4903
:1034A0002F4A0A60012B15492E4C2F4809D14FF0A5
:1034B000030E84F800E0072481F8F43104700C2333
:1034C00007E00223237003230370002381F8F43103
:1034D000072313704020254BC5F8F83105F0F6FAA4
:1034E000002800F0E28001234FF0000890F900006E
:1034F0001F4A8DE8080140217EE000BFA819002086
:1035000088510020000C0240240700207007002092
:10351000580F0020A411002035FA8E3C0200002034
:103520000AE81C41C8110020901000206B300020D8
:1035300000401C46E0100020A0110020BD37863559
:103540006A300020C005002098290020E0130020E8
:1035500008090020C40500203A070020CC050020FF
:1035600085300020C9050020D00500208188000892
:10357000118C00080000B0C4CDCCCC3F07EE102A5F
:103580005FED047AF8EEC76A1FED057AE6EE877AFA
:103590000023FCEEE77A6D4A17EE901A9950043337
:1035A000482BF8D16A4BC5F8F8316A4B12224020FB
:1035B0001A7005F08BFA002877D001234FF0070C22
:1035C00090F90000644A8DE808104021634B66E0E2
:1035D000634BC5F8F8315F4B102240201A7005F09C
:1035E00075FA002861D001234FF0000E90F9000019
:1035F0005C4A8DE8084040214FF4E1334FE05A4BDC
:10360000C5F8F831534B082240201A7005F05EFAD5
:1036100000284AD00123002490F90000534A8DE885
:10362000180040214FF4E13310F048FA504BC3F832
:10363000FC0136E047494F480C22062B0A7010D097
:103640000023037085F8003285F801321B2385F8CA
:103650000232052385F8032285F804324FF4E13461
:103660000DE00021017085F8001285F80112424C2E
:1036700085F80322212185F8021285F804323F4B98
:10368000C5F8F831402005F021FA70B1012100237E
:103690003B4A90F900008DE80A004021234610F0D3
:1036A0000DFA003018BF012030B908200FF01CFCC3
:1036B0002F4B0022C3F8F8213B68DFF8B480254A7D
:1036C00013F4804F04D0082111702E49C8F8F81166
:1036D00042F20101194003F0010003F4005441B12A
:1036E0002949C8F8F8110CB10821117008B10C2152
:1036F00011701178043951701A0640F187804FF02B
:103700000009224CDFF890A0DFF890B02048C5F8FF
:1037100008A24946152284F80190C4F80490C4F820
:10372000089012F047FCAAF105034846CBF8003098
:103730000AF0F2FA174B02201B68E36005F0C6F9A5
:10374000594668BB80200FF0CFFB57E018060020D9
:10375000CD880008853000201D8D0008A08601005E
:10376000BD880008A98C0008A98800085D8C0008A5
:10377000A81900201807002090D003006D880008C9
:103780004DA50008FD88000809890008B410002034
:10379000B41B00208051002066090020D4100020B6
:1037A00090F805E06378CB4A4FF00C0C0CFB032C2F
:1037B0009CF801C0F44504D00133DBB2042BF2D9EC
:1037C000002363700B6890F900001B7813F0FD0F65
:1037D00063784FF00C0404FB03220CBF012103218A
:1037E0005378009100220192022110F067F9BA4B40
:1037F00018600028A6D001200AF08EFAB74B18688E
:10380000B74B00F5C5721A600FF052FDB54BC5F805
:1038100024328033C5F828323B68DFF8FCB200243C
:1038200013F4803F8BF800400DF1440900F0C5808F
:103830000FF07EFC40F22A3C4FF0010A624621461E
:10384000A9488BF800A0CDF80CC012F0B3FBA74B31
:10385000DFF8C8B21A6B42EA0A021A631A6C42F025
:1038600008021A641A6B42F400121A6302235846C3
:103870008DF8243008A903238DF82530CDF820A039
:103880008DF827A08DF8264007F04AFADBF82020B3
:10389000974B22F00F02CBF82020DBF8202042F0DB
:1038A0000202CBF820201A8822F001021204120C26
:1038B0001A801A8822F45C721204120C1A80682290
:1038C000DA621C85A3F814A01A8C22F001021204FB
:1038D000120C1A841A8C9888198B22F0020221F09B
:1038E000730109041204090C120C41F0600180B24A
:1038F00042EA0A02988019835C631A841A8B22F0C8
:1039000008021204120C42F008021A831A880BF5FE
:10391000C04B92B20BF1400B42EA0A021A80DBF86C
:10392000002022F00102CBF80020584607F01AF9D7
:103930004FF0406211926F4A12926B4A13924022EA
:1039400014924FF4806217924FF4805218924FF401
:10395000804219924FF44032DDF80CC01B92584659
:10396000042249461C9216941A941D941E941F9486
:10397000CDF854C007F0CCF8DBF800205E4B42F0E5
:103980001002CBF800204FF400129A6007A80D2314
:103990008DF81C308DF81DA08DF81E408DF81FA0ED
:1039A00003F0DAFA554B1A68554BE2500434802C78
:1039B000F8D103F0E7F903F0E5F93B685B0554D56E
:1039C000504BD5F8D4AEC3F800A0042005F07EF823
:1039D0000421C5F8D80E05F053F84B4B85F8DC0EE2
:1039E0000820C3F800A005F071F80821C5F8E00E22
:1039F00005F046F8454C85F8E40E002120462C22BF
:103A000012F0D8FA8E227C2362704FF07D0BE022F8
:103A10002370E27084F82BB03D4C03932C220021DC
:103A2000204612F0C7FA039B23708A23637010208C
:103A3000A023E37084F82BB0C5F8E8AE05F046F893
:103A40001021C5F8EC0E05F01BF885F8F00E2020CB
:103A5000C5F8F4AE05F03AF82021C5F8F80E05F0E7
:103A60000FF885F8FC0E10F0E1FE2A4C238823F0B5
:103A700040031B041B0C2380238823F038031B0402
:103A80001B0C43F00803238023889BB243F04003C0
:103A9000238000259F2332208DF820308DF821507F
:103AA0008DF822508DF8235005F005FA8DF8455019
:103AB00005F1804505F504354FF4004A08AA0423B2
:103AC000A5F81AA0204649460BF09EFAA5F818A0C2
:103AD00026E000BFD4840108B0100020FC100020B4
:103AE000E812002098090020D41B00200038024072
:103AF000000C0040340C0040006002405E8701086A
:103B00000219002060310020B431002084310020EF
:103B1000BA310020003C00400019002000000240A3
:103B20009DF846209DF84530120242EA03429DF876
:103B300047301A43654B9A42654B1BD008D86549FC
:103B40008A4210D001F51A4102318A420DD01FE09D
:103B500061498A4209D001318A420BD05F498A42C9
:103B600016D1402202E0202200E080221A804FF489
:103B7000807202E04FF480721A805A809A88198805
:103B800012029A604A43DA60012288F8FD2E04E0AE
:103B900000221A805A809A60DA60DD68F5B12D0C37
:103BA000AA464FF0000BAB4512DA0BEB050464108C
:103BB0002004494610220BF08BFA002359F8032009
:103BC00001327ED10433102BF8D1A2462546EAE714
:103BD00008F022F94FEA0A43C8F8003F3B6813F4A3
:103BE000002318BF012388F8043F04F0F7FF3C4B83
:103BF00018607379052B03D13A4B4FF4C8721A80C1
:103C0000394B4FF47A721A80384BC8221A80384BDD
:103C10001A7842F008021A70364B1A7822F0020223
:103C20001A703A6840F6020313406BB1324B334AC4
:103C30001A60334B03221A70324B01221A70324A37
:103C400000231380314A1380B3683B60304B01225C
:103C50001A70304B1A7862F07F021A7021B0BDECF6
:103C6000028BBDE8F08F032005F02FF9FFF7D4BADF
:103C7000BAF1010F7FF6C2A94FF0000AFFF759B958
:103C8000254B42F210725A801A80244A5A60244A04
:103C90009A60244ADA60244A1A61244A5A61244B01
:103CA00003229A70234B1A6842F004021A60FFF74D
:103CB0000BBAB9F1010F7FF661AA4FF00009FFF7C7
:103CC0002DBA04F1010B2C4680E700BF18BA200082
:103CD00020000020152020001740EF001620C20011
:103CE000F41100206E1100209C190020961900206C
:103CF0007E070020A619002058310020FA08002075
:103D00001029002031000020B831002014290020A3
:103D1000F818002088510020640F002035BD0008ED
:103D2000F93801086550010809390108212A0108FC
:103D300019000020240700202DE9F04FC74AC84B86
:103D40001768B3F906007B892DED028B984285B088
:103D50000EDBB0F5FA6FFC7907DAC21A5443A3F50B
:103D6000FA6394FBF3F4643403E0C4F1640400E008
:103D70006424BC4AB2F892310293BB4B92F95E21A3
:103D8000D3F800E092B200210392F2460A46B44B07
:103D9000029D31F903B0C5EB0B0303F2F31640F2B9
:103DA000E635AE4203D8002BB8BF5B4201E04FF4CA
:103DB000FA73022A4FF06406AC4D2DD09EF811C163
:103DC000BCF1000F04D06345CCBFCCEB0303002350
:103DD00093FBF6FC6FF0630935F81C8009FB0C3986
:103DE0000CF1010C35F91CC00FFA88F5C5EB0C0578
:103DF00005FB09F595FBF6F5A8449D4D21F80580D6
:103E0000BD182D796B439B4D93FBF5F364339BB247
:103E1000634393FBF6F62FE09EF812C1BCF1000F4E
:103E200004D06345CCBFCCEB0303002393FBF6F631
:103E30006FF0630805EB460C08FB063905EB4606F8
:103E4000BCF90EC0B6F91050894ECCEB050505FB48
:103E500009F999FBF8F9039DCCEB090C0CFB05FC67
:103E6000A6F804C0BD7983EAE376A6EBE3766E4359
:103E7000804D96FBF5F664360EEB020C7B4B9CF8FE
:103E8000018003F11C054FF0640C06FB08F898FB59
:103E9000FCF802F805809AF80B8003F11F0506FB79
:103EA00008F898FBFCF802F805809AF8158003F1F1
:103EB000220506FB08F6022A96FBFCF656551D461F
:103EC00016BF253383F827C0D454029B684E9B4508
:103ED00002DA735A5B4273520231062902F101027F
:103EE0000AF1010A7FF453AF5E4CB4F89431984262
:103EF00005DBB0F5FA6FA8BF4FF4FA6000E0184692
:103F0000C01A4FF47A725043C3F5FA63B0FBF3F36F
:103F10004FF0640E93FBFEF205EB42016FF063007D
:103F200000FB023305EB4202098DB2F92A00504F23
:103F30000AB2821A534393FBFEFE4F4B1B88714417
:103F4000F180590636D54D4BDFED4D7A1A88474B37
:103F5000B3F84030D31A1BB208EE903AF8EEE88A74
:103F600068EEA78AB0EE680A0EF0D4FEB0EE408A82
:103F7000B0EE680A0EF06CFEB7F90220B7F9003017
:103F800006EE902A07EE903AF8EEE66AF8EEE77A47
:103F900020EE667AA7EE887A67EE807ABDEEC77A61
:103FA000E6EE887A17EE103AFDEEE77A3B8017EEE0
:103FB000903A7B80334B1A6812F0020F994600F05A
:103FC0009680314B6A6C1B68284F9A1A45F207217C
:103FD0008A4240F38C807B6402F0AAFF97F8483055
:103FE000DFF8B480032BB8F8003022D10A2B2CD98B
:103FF0000023282087F8483004F05DFF02F098FF86
:10400000B7F84A0006F096FF204B21491B68DA7882
:1040100090FBF2F0421C082A28BF082258791B792D
:104020000A7092B21B4950435A430880A7F84C20AB
:104030000BE00A2B09D80323154A87F848300023E0
:104040001370144AA7F84C30138095F84820074B9A
:10405000012A2DD022D3022A3FD048E0F4120020BA
:104060003A07002084070020FC100020C828002008
:10407000CE1200200CFEFFFF2C070020E0110020D4
:1040800035FA8E3CC00500208C19002058310020E4
:1040900031000020B83100205C310020A94B1A8883
:1040A000B8F800309A4222DD012385F8483012E04A
:1040B000B8F80020B3F84C10914203DD022283F8D7
:1040C000482011E09F49098801318A4203DD00221E
:1040D00083F848200BE0082007E0B3F84C30B8F82C
:1040E000002001339A42DFDC072004F07FFED9F87C
:1040F00000703A0573D5944B296D1A68934BC1EB48
:10410000020B45F207218B4569DD9149B6F906900E
:10411000D1F800801A6598F80A10B4F84E018D4E57
:104120004FF47A7201299BFBF2FBA9F57A7903D04F
:104130003ED302291CD03DE0586D082190FBF1FED2
:10414000CEEB000090FBF1F14FF0000E5865A3F8A4
:1041500058E089B2B8F8083040F6E4404143C3EB78
:104160001131B8F906304A4392FBF3F2326021E094
:10417000794BB8F808A01B78C6F800A05B0719D5E2
:104180000DF0DAF920B917F0100F18BF4FF0000941
:1041900009FB09F2322392FBF3F39944B8F9063094
:1041A0004FF47A7203FB09F393FBF2F3534400E0FC
:1041B000002333603368694AD5E9180103FB0BFB20
:1041C0004FF47A739BFBF3FB10EB0B0041EBEB71AD
:1041D0000023C5E9180110F0D5FF614B1860614B51
:1041E0001A6812F4805F984626D0390621D55E4BB6
:1041F0001B789A071DD55D4B1978042919D900231E
:104200005B4E05229A551E44981C0A27122BC2B2F7
:10421000777004D0B1EB520F0346F1D800E01422BE
:104220002A44322382F86730FF2382F868300F2057
:1042300000E00A2004F0DAFDD5F88070434E002F2C
:1042400046D04C4BD6F8842019688A4299463FD80C
:1042500096F88830B6F88AA07A68ABB9012386F858
:10426000883012F80A20CAB186F88C3004F07EFD3E
:10427000BAF1000F12D13B78053B012B0ED804F0A8
:10428000ADFCC6F8900009E0002386F8883012F8EB
:104290000A201AB186F88C3004F068FDB5F88A104F
:1042A0007A682A4B525CFE2A03D10022A3F88A20A6
:1042B0000EE0FF2A02D104F07FFD09E0D9F80000EA
:1042C0000A2616FB02020131C3F88420A3F88A10E3
:1042D000214E3278530704D5274B4FF480425A833E
:1042E00063E0D8F80030DF075CBF42F001023270B3
:1042F0001D4A1278100703D4327822F0010232707E
:10430000D90203D5337823F0010333701B4B1B68AC
:104310005A0702D51A4A128862B91A4A12880AB193
:104320009B0705D4184B1B88003318BF012300E0FE
:1043300001235BB3022385F88C30337823F001032B
:10434000337029E0B83100208C190020C8280020E3
:104350005831002064310020A6190020407E05005D
:1043600068310020280700207E070020DC10002094
:104370003029002080510020000C0240240700203A
:10438000961900206E1100209C1900203278D70762
:1043900058BF022385F88C3004F020FCD5F8943007
:1043A000C01A002801DB04F0E1FC10F03FFABE4B1C
:1043B0001A78002A78D0D5F89830002B00F01986AA
:1043C000D5F89800B94C04F0FAFD002800F01186E9
:1043D000D4F8980004F0EEFD092801D03F2855D10B
:1043E0004FF00008D5F89C60B14F44462EB1B1485B
:1043F0003968324611F026FE10B9B84604B93C4679
:10440000AD4B10379F42F1D304B3D4F800E0D8F895
:1044100000C0D5F89C30A5481EF803701CF80310A6
:10442000B94213D15A1C59B92D2B09D8C0F89C2078
:1044300003440244202783F8A07082F8A01005E00E
:104440002B44C5F89C2083F8A070E2E7D5F89C3097
:104450000BB1444510D0994804F014FE444507D8E8
:1044600054F8100B04F00EFE092004F004FEF5E7EA
:10447000934804F007FE0026D5F89C309E429FD258
:104480008C4B985D04F0F7FD0136F5E7D4F89C30CD
:10449000002B40F0D485042840F0428604F1A000AF
:1044A0000AF0A4FB00F0A5BD864F97F84A30012B17
:1044B00040F09A85DFF82882834B3A68C8F800708C
:1044C0001A60C246DFF800924A46106804F077FD91
:1044D000002800F07785D9F8000004F06BFDDAF8C9
:1044E000003093F84810834619B924283FD101229F
:1044F0003AE0012904D14D280CBF0222002233E00A
:10450000022904D13C280CBF032200222CE00329FD
:104510000CD140284FF0000102D983F8481046E042
:1045200058711971D971987104221DE0042907D1BD
:10453000997983F8490080EA01029A71052213E013
:10454000052934D1587919798842987908D98BEAA4
:1045500000009871481C18710B4483F808B026E0DD
:1045600058450CBF0622002283F848201FE033780C
:104570005B071CD4BBF1230FD9F800300CD14A4A99
:104580005248C5F8983001211170C5F8683104F01F
:1045900079FD4B4804F076FDD5F86C311B785B450E
:1045A00005D14B4B4B4A1A604B4B4C4ADA60DAF858
:1045B0000030DFF82C9193F84820062A82D193F836
:1045C000490003F051FA002840F0F284D9F80020A5
:1045D00092F84930482B00F050834FD8332B00F02D
:1045E0001A8421D8292B00F0D58309D8252B00F077
:1045F000AC83272B00F0B083232B40F01D85C6E051
:104600002D2B00F0D88307D82B2B40F0158504F014
:10461000D5F9607100F0C9BC2F2B00F07E84312BDE
:1046200000F0908400F008BD3C2B00F0E98009D830
:10463000372B00F03A84392B00F09B83352B40F068
:10464000FB849EE1412B00F0EB830CD83E2B40F025
:10465000F38404F0B3F984F8D00104F0AFF984F8DE
:10466000CF0100F0A2BC432B00F0FC83442B40F0B0
:10467000E384012385F88D3100F097BCCF2B00F047
:10468000158240D8C92B00F0FB822BD84C2B00F0B0
:10469000B583C82B71D04A2B40F0CE8404F098F932
:1046A000A08100F082BC00BFA4190020C82800200F
:1046B000E0A5010868290020B0A7010810AA010898
:1046C00015AA0108982900201032002045AA0108E7
:1046D000FCFF0120EFBEADDE00ED00E00400FA05B6
:1046E0000C320020CC2B00F0768104D8CA2B00F0CD
:1046F000958000F0A1BCCD2B00F0A882CE2B00F05D
:10470000AE8200F099BCD42B00F014820FD8D12BCC
:1047100000F0DE82C0F08F82D22B1BD0D32B40F072
:104720008B8404F055F9D64B188000F03EBCEF2B7B
:1047300057D007D8D62B08BF4FF0000900F0EF8103
:1047400000F07ABCF22B00F04B82FA2B00F0918241
:1047500000F072BC337803F0040303F0FF09002B70
:1047600040F0238404F02AF9022884F89C0740F2E0
:104770006882C44B83F89C9763E292F805A04FEAE5
:104780005A0ABAF1120F1CD84FF000091CE004F0CD
:1047900015F9132815D8DFF8FCA2DAF8003000F17B
:1047A0001E0B03EB8B0B04F009F9B74B0BF101095E
:1047B00003F5A272197A814200F0C5800C3393424E
:1047C000F8D107F083F9F0E3D14507D204F000F9FE
:1047D000AE4B23F8190009F10109F5E70122AC4BB2
:1047E00045E2DFF8B092D9F800A004F0F1F8AAF899
:1047F0005A00D9F8009004F0EBF8A9F85800D4E377
:10480000DFF89092D9F800A004F0D8F88AF80000F8
:10481000D9F80030187804F001FFC6E39D4B1A6800
:104820001278022A4FF0000A994671D1DFF864929B
:10483000D9F800B004F0C2F807EE100AF8EE477A93
:10484000B2EE048AC7EE887A0BEB8A03D9F800B07F
:10485000C3ED087A04F0B2F807EE900AB8EE677A72
:10486000DFED8D7AC7EE277A0BEB8A03D9F800B01B
:10487000C3ED0B7A04F0A2F807EE900AB8EE677A5F
:10488000DFED867AC7EE277A0BEB8A030AF1010A7D
:10489000BAF1030FC3ED0E7AC8D1BAF1070FD9F8F8
:1048A00000B01CD104F08AF807EE100AF8EE477A3F
:1048B000C7EE887ACBED117AD9F800B004F07EF813
:1048C00007EE100AF8EE477AC7EE887ACBED127A37
:1048D000D9F800B004F072F88BF84C0012E004F044
:1048E0006DF80BEB0A035870D9F800B004F066F8C5
:1048F0000BEB0A03D9F800B0D87204F05FF80BEBA9
:104900000A0358750AF1010ABAF10A0FC5D14CE33E
:10491000D9F800B004F052F80BEB0A035870D9F83C
:1049200000B004F04BF80BEB0A03D9F800B0D872D2
:1049300004F044F80BEB0A030AF1010ABAF10A0F7A
:104940005875E5D131E31B788BF8013004F036F867
:1049500089F8010004F032F889F8020004F02EF81A
:1049600089F80300DAF800004D4BC5F8740179307E
:10497000C5F8703106F0A8FE4A4B80F001001870AF
:1049800013E304F01BF80B283FF61BAF414B4FF02D
:10499000060A0AFB00F01B68C83003EB000A04F0AB
:1049A0000DF803283FF60DAF8AF8060004F006F86C
:1049B0008AF8010004F002F88AF8020003F0FEFF12
:1049C0008AF8030003F0FAFF8AF8040003F0F6FF08
:1049D0008AF80500E9E25379092B7FF6F2AE324AF4
:1049E000D2F8009003F0EAFF2F4B89F80000D3F8CB
:1049F000009003F0E3FF89F8010003F0DFFF2A4A8B
:104A000013686428A8BF6420187103F0D7FF264AF2
:104A100013686428A8BF6420587103F0CFFF224AAE
:104A20001368FF28A8BFFF20987103F0C7FF1E4B33
:104A3000D3F80090642828BF642089F8070003F0A9
:104A4000BDFF194A89F80200D2F8009003F0B6FFC2
:104A5000154B89F80300D3F8009003F0B9FFD8F89C
:104A60000030A9F80A005B790A2B40F29E820E4BB7
:104A7000D3F8009003F0A2FF89F8080095E200BF88
:104A8000D612002084070020B0A701083A070020B2
:104A900019070020FC1000200000C84200007A44E2
:104AA000C408002011000020F412002003F090FF41
:104AB0006FF4AF6143189BB2C62B98BFA4F8920164
:104AC00003F086FFA4F8400103F082FFA4F842013E
:104AD00003F07EFFA4F8440103F07AFFA4F8CC01B0
:104AE00003F06CFF84F8DD0103F068FF03F066FF5C
:104AF00084F8DE0103F062FF84F8810103F05EFFB9
:104B000084F88E0103F05AFFCC4BD3F8009003F0E9
:104B10005FFF00EB80004000A9F8560029E103F098
:104B200057FFC74B23F8090009F10209B9F1100F2B
:104B3000F5D13AE253790F2B7FF443AE03F03EFFF9
:104B4000072881463FF63DAEBC4AD2F800A003F0EC
:104B50003FFF0E2303FB09F90AEB0903A3F8190130
:104B6000B64BD3F800A003F033FF0AEB0903B34AB6
:104B7000A3F81B01D2F800A003F02AFF0AEB0903F7
:104B8000A3F81D01AD4BD3F800A003F017FF0AEB0B
:104B90000903AA4A83F81F01D2F800A003F00EFF10
:104BA0000AEB090383F82001A44BD3F800A003F01B
:104BB00005FF0AEB0903A14A83F82101D2F800A0FE
:104BC00003F0FCFE0AEB090383F822019B4BD3F8A8
:104BD00000A003F007FF0AEB0903C3F82301E4E197
:104BE00003F0ECFE0F2881463FF6EBADC9EBC90997
:104BF00003F0E4FE04EB090303F1D00983F8D000CD
:104C000003F0DCFE89F8010003F0D8FE89F8020009
:104C100003F0D4FE89F8030003F0D0FE89F8040005
:104C200003F0CCFE89F8050003F0C8FE89F8060001
:104C300004F058FCB9E133785A0700F1B6810DF061
:104C4000CFFA0CF0F9FF08F0DDF8AEE133785B073E
:104C500000F1AB817B4B4FF4C8721A80A5E1337829
:104C6000580700F1A281784B1A7842F004021A70BA
:104C70009BE133785907E4D5DEE109F001FE94E1C8
:104C800003F09CFE704B1A7810B142F0020201E072
:104C900022F002021A7003F091FE6C4BDFF8C09113
:104CA000187003F09FFEC9F8000003F09BFEC9F8DE
:104CB000040003F08DFE664B188003F089FE654BFF
:104CC000188095F8783143F0020385F878316CE16B
:104CD00003F074FE019003F085FE834603F082FE2C
:104CE000824603F07FFE814603F072FE03F070FE01
:104CF00003F064FE019B9BB91020C5F87CB1C5F898
:104D000080A104F0BDF8504B1A7842F001021A70ED
:104D1000B9F1000F00F049814F4BC3F8009044E116
:104D2000102B40F04281C5F884B1C5F888A1B9F1D3
:104D3000000F02D0484BC3F8009048480223011DE1
:104D400085F88C310CF0D4FE2FE1A06003F04AFE10
:104D5000A3681843A06028E103F03AFEA4F85801C4
:104D600003F036FEA4F85A0103F032FEA4F85C0109
:104D70001BE103F023FE84F8760103F01FFE84F8A4
:104D80007A0103F01BFE84F8790103F017FE84F822
:104D90007B010AE103F01CFEA4F87C0103F018FE7D
:104DA000A4F87E0103F00AFE84F8800103F010FEEF
:104DB000A4F88201F9E003F001FE84F88C0103F00D
:104DC00007FEA4F8960103F003FEA4F8920103F095
:104DD000FFFDA4F8940103F0F1FDD9F8003084F848
:104DE0008D015B79082B40F2E08003F0F1FDA4F81F
:104DF000980103F0EDFDA4F89A01D6E003F0DEFD82
:104E000084F8CA0103F0DAFD84F8CB0103F0E0FD79
:104E1000A4F8CC01C9E003F0D1FD84F88E01C4E010
:104E2000814603F0CBFD04EB090309F10109B9F157
:104E3000080F83F88401F4D1B7E000BFFC10002014
:104E4000F61300206E1100207E070020DC100020E9
:104E50006E3100206C310020300700204C2A0020E9
:104E60007431002003F0AAFD0023A360607103F0F9
:104E7000B9FDA3681843A06003F0A0FD84F88C017D
:104E800003F0A6FDA4F8580103F0A2FDA4F85A010E
:104E900003F09EFDA4F85C0103F09AFDA4F87C01E8
:104EA00003F096FDA4F87E017FE053794FF0070AE6
:104EB000B3FBFAF2C2EBC2029A1A12F0FF0F7FF4B0
:104EC00080ACB3FBFAFABAF1000F6ED003F076FDB6
:104ED0005FFA80FB4FFA8BF003F0BEFD0AF1FF3A58
:104EE0005FFA8AFA814600283FF46BAC80F800B084
:104EF00003F06EFDA9F8020003F060FD89F80400DC
:104F000003F05CFD89F8050003F058FD89F80700FF
:104F100003F054FD89F80600D5E7DFF8989209F10F
:104F2000400A03F055FDA9F8940203F047FD89F803
:104F3000960203F043FD09F1040989F89302D14573
:104F4000EFD132E003F03AFD1F283FF63AACD8F833
:104F500000305B79082B7FF434AC00F1840A03F055
:104F600037FD04EB8A0A00F03F00AAF8060003F0C0
:104F70002FFDBAF80620800100F4FE531343AAF86F
:104F8000063003F01BFD00018AF8040003F016FD53
:104F90009AF8043000F00F0018438AF8040003F078
:104FA0000DFD8AF805000EF0C3F8002004F04EF85D
:104FB000D8F80030987904F01AF8D8F800300022B8
:104FC00083F8482095F88D3173B1386803F0DDFF20
:104FD00018B9322003F06FFFF7E70CF087FA03F0FF
:104FE000A7FF604B604ADA60604B4C379F427FF40A
:104FF0005CAA5F4B1B689A0616D55E4BD5F89021CC
:105000001B689A1A002A0FDB5B4A1278042A0BD914
:105010005A4A03F5123303F5F873C2F89031584B2E
:105020005A6982F400425A61564B9B68002B00F08B
:1050300094805548984790E006F048FDB8E70C2862
:1050400003D1524804F01EF85AE00A2801D00D2876
:1050500058D14A4C4E4804F1A00604F013F83046EB
:10506000232110F0DAFF10B1801BC4F89C00D5F8A2
:105070009C30002B38D0591E404A705C202801D14A
:105080000B46F6E7C2F89C301344002283F8A020B8
:10509000404B414CD3F800A0D4F80090DFF8DC80FE
:1050A000484610F0C7FF08F1A007064649463846B3
:1050B000324610F0C7FF394B38B908EB060292F8B8
:1050C000A02052445278500703D010349C42E3D3BE
:1050D00006E09C4204D2701CE3683844984702E022
:1050E0002F4803F0CFFF002330222E48C5F89C3014
:1050F000002110F05FFF2C4A1378002B3FF479AFAA
:105100002A4809E07F2811D1013BC4F89C30234490
:105110000022274883F8A02003F0B4FFFFF750B91E
:105120000C288ED07F2804D1FFF74AB92F2B3FF6E9
:1051300047A9A0F12002D2B25E2A3FF641A913B9D5
:1051400020283FF43DA95A1C2B44C5F89C2083F825
:10515000A00003F090FFFFF733B905B0BDEC028B60
:10516000BDE8F08F00ED00E00400FA05302A0020D1
:10517000240700208C190020DC100020C828002003
:10518000000C0240E01000205C2A00201AAA01084E
:1051900059BF01084C010020E0A50108B0A7010893
:1051A00025AA010868290020A419002015AA0108D1
:1051B00041AA0108840700202DE9F04FAA4EAB4A0E
:1051C0003368AB4C03F59C43203313602388A94A12
:1051D00001331168238042F201030B4087B09346EC
:1051E0001BB1A54B1A7801321A700CF043F8DBF8AA
:1051F0000030DD0405D5A14B1B68D80701D40FF0A2
:1052000035FF9F4B9F4D1A68937A23B3013B127B66
:1052100035F813301AB1C3F53B6308339BB21BB2A8
:10522000A3F57A73B3F57A7FA8BF4FF47A7323EAB4
:10523000E37307EE903AB8EEE77ADFED937A934B9B
:10524000C7EE277A9FED927A67EE877AFCEEE77ACF
:1052500017EE902A1A80DBF80030D90540F18580DE
:1052600032688C4B9A4204D9237913B9804B0122BE
:105270001A71B4F900E088497D4B0E78BEF1140F25
:10528000CCBF4FF0000E4FF0010EC6F38006BEF10A
:10529000000F03D000279F715F7100E00327764B5A
:1052A000B4F900C058687D4B94F80680D3F800A08C
:1052B000617963882A88B8F1030F4DD8DFE808F0D8
:1052C000020E223BBEF1000F02D02A80002230E005
:1052D000002E40F0AB862A80A67140E090F8009046
:1052E00009EB8909CC45CCBFB1464FF000094FF01E
:1052F0000108B9F1000F2FD0013341469BB24FF0A6
:105300000208D8E736B1BAF80E206A80AA8047882A
:10531000EF80022790F8009090F80180C84408EBD5
:105320008808C44500F38686002E00F083862A8014
:105330000222A27113E02A800322A27161716380AC
:105340007EB155490B7843F002030B70484B0022A5
:105350005A710FF08BFE04E02A8084F80680617198
:10536000638017B1384603F041FD4D4FB7F84E0149
:105370000CF0E2F8814660B904F086F93E4B002259
:10538000C3F80890C3F80C90C3F810905A619A6162
:10539000DA61414A13785A0742D5DBF80030DB0660
:1053A0003ED5404B1B78DE063AD43F4B324E93F845
:1053B0000080B8F1000F10D097F8D031B9F1000F8C
:1053C00015D16BB1394B1A68336A9B1A002B07DA77
:1053D0000FF04CFE86F8249022E0B9F1000F18D1AE
:1053E000102003F003FD012386F8243018E033B1C8
:1053F0002E4A12684FF47A7101FB0323336296F848
:1054000024306BB103F0D8FC1B4B002283F824201E
:1054100006E096F824301BB103F0CEFC86F8248019
:10542000002297F8CEA197F8CF11B7F89461B7F89A
:1054300096E11346A85E9B08B042C4BF63F07F03A9
:10544000DBB202327045B8BF43F04003082AF1D105
:10545000094E96F825209A422AD196F82620F92A54
:1054600029D8013225E000BF8C1900201C0700203C
:10547000E0130020C0050020602A0020280700203B
:10548000C40500203A07002000007A44883000203C
:1054900000C07F44404B4C00A6190020981B002000
:1054A000840700207E07002011000020805100208A
:1054B000002286F8262086F82530974BDFF8908268
:1054C0001A78EAB9D8F80030D80709D5B9F1000F31
:1054D00016D192490B78D90712D50FF011F80FE0C9
:1054E0008E4A13785A070BD58D4B1B7843B16379DD
:1054F00033B911B10FF0BAFD02E0B9F1000FF9D0E4
:1055000096F82620874BDFF85092142A40F09A80B4
:1055100081490A781AF1000A18BF4FF0010A7AB3DC
:1055200093F825205F2A12D17C490A7802F0040200
:1055300002F0FF0112B10FF099FD08E00B2001917C
:10554000009303F053FC009B019983F82610BAF1F5
:10555000000F15D096F825307D2B11D16F4A1378A6
:1055600003F0040303F0FF0213B10FF07FFD07E027
:105570000B20019203F03AFC6A4B019A83F8262033
:1055800066490B7803F0040303F0FF00002B59D1A8
:1055900096F82530634A572B16D1634B4FF47A7235
:1055A0001A80DBF800301B0601D50DF077FC5F4B4D
:1055B0001B68580702D55E4A0A21118013F00803C0
:1055C00040D15C4A13803DE0DBF80010490715D557
:1055D0005A2B13D1584B197819B118700122574B17
:1055E0001EE092F8273083F0010382F827300BB1D8
:1055F0000C2000E00D2003F0F9FB23E05D2B00F010
:105600001D855B2B00F01C855E2B0BD1032000F069
:1056100018BDA72B40F03385494B1A7842F004029D
:105620001A700FE0562B03D1009307F055FF009B33
:1056300039490A78002A00F019856F2B40F010854F
:105640000EF05EFFDBF800305B0734D596F82730AC
:10565000A3B1324A1378580710D5B5F90620B7F828
:1056600094319A420ADDD8F8003013F0010305D1D5
:10567000344A322111802B4A82F82730D8F8003082
:10568000D9030AD5304B1A782AB92B4A127812B9A5
:105690002C4A3221118001220CE0274B1A7852B19A
:1056A0001E490A7802F0040202F0FF011AB91970CB
:1056B000224B01221A70D9F80090002709F1790ACB
:1056C000C8F8007009F17B060AF10203D919DA5D06
:1056D0004B7816F8010C9A420CD2314608F095F836
:1056E00040B116F8023C01229A40D8F8003013432A
:1056F000C8F800300437502F06F10406E4D1134BEC
:105700001F785FB3124E094F3368124D13F0020F2A
:1057100040F0508348E300BF11000020A61900208C
:10572000B9050020602A00209C19002024070020D1
:1057300096190020E0110020991100209A110020F4
:105740007E0700208011002098110020A41900205D
:10575000280700202C070020FC10002009F1C90AAE
:1057600009F1CA060AF10103D919DA5D4B7816F876
:10577000010C9A4229D2314608F047F828B396F82E
:1057800002E0BF4B307996F803900EF1FF3E0EEB2E
:105790004E0E9E44BB4B4FF00C0C03F128080CFB43
:1057A00000FC08EB0C014A6872450ED0002208F894
:1057B0000C908A60012202FA00F093F85820C1F898
:1057C00004E022EA000083F858000637482F06F16B
:1057D0000606C7D1AC4BDFF8D0921E68AB4B1B68F6
:1057E0000293AB4B1B7803934FF00008D9F80030BD
:1057F000002B00F0D0821F78002F00F0CC82D9F867
:10580000042002998A1A002A0DDB01F5FA72C9F800
:1058100004209C4A012192F8580001FA08F120EA7C
:10582000010182F85810039A002A00F0B48219F896
:10583000041C5878934A0431C9B2002840F06A82A7
:10584000944835F91110B0F8920100F1C80E714575
:1058500002DD93F802A015E0C838814203DA9B7894
:10586000C3F1000A0EE092F85810012303FA08F37E
:1058700021EA030382F85830029A02F5FA73C9F854
:10588000043088E292F8583043FA08F3DA0700F15E
:105890008282BAF1000FCCBF0220012003F0C8FAC7
:1058A0007B1E132B00F26E82DFE813F01400210040
:1058B0002E003E0056005D00C3003C01A201D20153
:1058C00002026C023E004C005D00C3003C019300EC
:1058D0000E01720137785744FA2FA8BFFA2727EA3A
:1058E000E7773046377003F03DF901201AE077780A
:1058F0005744642FA8BF642727EAE77730467770BC
:1059000003F030F902200DE0F778634B5744642F21
:10591000A8BF642727EAE777F7703046196803F0D5
:10592000DBF803203946C0E1717951446429A8BFEE
:10593000642121EAE17171710D2006F099FB0D2FB0
:1059400000F02082317951446429A8BF642121EA02
:10595000E17131710E20A8E1B179514481F3080160
:10596000B1710520A1E14D4B1B681A78022A22D1A2
:1059700007EE90AAB8EEE70AF2EE047A80EE270A64
:10598000D3ED097A30EE270AB5EEC00AF1EE10FA2F
:1059900009D4DFED437AB4EE670AF1EE10FAC8BF1E
:1059A000B0EE670A01E09FED3F0A83ED090A0F2080
:1059B00006F072FB0AE099785144C829A8BFC821B3
:1059C00021EAE17199700F2006F052FB0F2F00F0D1
:1059D000D981324B1B681A78022A20D107EE90AA8F
:1059E000B8EEE70AF2EE047A80EE270AD3ED087AE1
:1059F00030EE270AB5EEC00AF1EE10FA09D4DFED59
:105A0000287AB4EE670AF1EE10FAC8BFB0EE670A62
:105A100001E09FED240A83ED080A12206DE1597818
:105A20005144C829A8BFC82121EAE1715970122048
:105A30003BE11A4B1B681A78022A37D107EE90AA6D
:105A4000B8EEE70ADFED167A93ED0C7A80EE270ABE
:105A500030EE070AB5EEC00AF1EE10FA07D4B4EE44
:105A6000670AF1EE10FAC8BFB0EE670A01E09FEDD9
:105A70000D0A83ED0C0A102006F00EFB21E000BF9A
:105A800055AF0108602A0020F41200208051002048
:105A9000B905002084070020382A00203C2A002075
:105AA0000000C842000000008C2A0020197B5144ED
:105AB000C829A8BFC82121EAE1711973102006F096
:105AC000D7FA102F00F05E81C34B1B681A78022AA8
:105AD0001ED107EE90AAB8EEE70ADFEDC07A93ED8B
