:020000040800F2
:10000000A0050020890100087D3C01081D3D010874
:100010007B3C0108793C0108773C010800000000A6
:10002000000000000000000000000000753C010816
:10003000733C010800000000713C0108FD3C010810
:10004000E5010008E5010008E5010008E5010008F8
:10005000E5010008E5010008E5010008E5010008E8
:10006000E5010008E5010008E5010008E5010008D8
:10007000E5010008E5010008113B0108E501000861
:10008000E5010008E5010008E5010008E5010008B8
:10009000E5010008E5010008E5010008E5010008A8
:1000A000113A0108413A0108E5010008513A0108F6
:1000B000313A0108E5010008213A01086B3C0108CA
:1000C000593C0108653C0108533C0108E501000862
:1000D000E5010008A93B0108E5010008053B01080E
:1000E0000D3D0108E5010008393D0108E501000862
:1000F000E5010008E5010008E5010008E501000848
:10010000E50100087F3C0108E5010008E501000861
:10011000E5010008E5010008E5010008E501000827
:10012000E5010008E5010008E5010008E501000817
:10013000E5010008E5010008E5010008E501000807
:10014000E5010008E5010008E5010008A532010805
:10015000E50100086D3A0108B53B0108613A010864
:100160005F3C01084D3C0108E5010008E50100087D
:10017000E5010008E5010008E5010008E5010008C7
:10018000E5010008E5010008002100F004B80F4B6C
:100190005B58435004310E480E4B42189A42FFF40C
:1001A000F6AF0D4A00F003B8002342F8043B0B4BB6
:1001B0009A42FFF4F9AF0A48016841F47001016006
:1001C00013F0FEFB00F010F870470000FCA40108DB
:1001D00000000020A0010020A0050020DC4300203A
:1001E00088ED00E0FFF7FEBF2DE9804899B001F0EF
:1001F00087FEB74CDFF8F0B22378DBF80050A14659
:100200002BB16368EB1A002BA4BF0023237012F0FC
:1002100075FD08B100232372E268170740F1708171
:10022000AB4B1B691B7A062B00F26081DFE813F0F1
:10023000070007003200EA00190147014701237D4A
:10024000A349002B00F0538100230B758B694F7D70
:1002500091F81CC093F800E0022309EB030603F1B8
:10026000010A717F9A48394101F00F0171450DD2A1
:100270000B290BD896F81D8000EB0A0600EB8101D4
:10028000767F08EA0C0006EB002008630233102B8F
:10029000E3D11BE194F860108D4B002900F0B08091
:1002A00093F8AE00002183F8601093F8AD1000F0D1
:1002B000070641EA0621596693F8AF1001F03F06A0
:1002C000760146EAD000986693F8B000800040EAD4
:1002D000911093F8B11001F0010640EA8620D8662B
:1002E00093F8B20000F00F06F60146EA51011967D3
:1002F00093F8B31001F07F06360146EA10105867F4
:1003000093F8B400400040EAD11193F8B50000F032
:10031000030641EA4621996793F8B61001F01F06DB
:10032000B60146EA9000D86793F8B700C00040EAEB
:10033000511193F8B900C3F8801093F8B81000F089
:10034000070641EA0621C3F8841093F8BA1001F0B9
:100350003F06760146EAD000C3F8880093F8BB0058
:10036000800040EA911093F8BC1001F0010640EAC9
:100370008620C3F88C0093F8BD0000F00F06F6014C
:1003800046EA5101C3F8901093F8BE1001F07F06C1
:10039000360146EA1010C3F8940093F8BF004000FD
:1003A00040EAD11193F8C00000F0030641EA46216B
:1003B000C3F8981093F8C11001F01F06B60146EA81
:1003C0009000C3F89C0093F8C200C00040EA5111AD
:1003D000C3F8A01093F8C310CE074CBF40F21470BE
:1003E000AD20C3F8A40088074CBF40F21473AD23BE
:1003F00011F0080FC4F8A8300CBF0123032376E0E6
:100400000B4674E094F8C53031490020002B6ED0C3
:1004100081F8C50091F8C710012903D081291ED1A8
:10042000032300E00B4694F8EB10102903D9284968
:10043000102081F8EB0094F8EB6026480021CFB241
:10044000B74200F1020052D210F8017C10F802EC21
:1004500047EA0E2E204F47F821E00131EFE703462F
:1004600045E094F82C111A4B00293FD0002183F865
:100470002C1193F82D11A82938D193F84031ABBB3A
:1004800009EB43019FED157A91F8300191F8311194
:1004900001EB002107EE901AF8EEE77A1049C7EE5B
:1004A000877A9FED107A77EEC77AFCEEE77A17EE3F
:1004B000906A41F823600133082BE1D106E094F8FB
:1004C0006431A3B1024B002183F8641101230EE0D3
:1004D000A0050020690600208C060020CDCCCC4071
:1004E000E40600200080BB43F41600200023D90757
:1004F00006D583F002030121C3F340032172237068
:10050000570408D594F8653123B1AD4B002183F829
:1005100065110123237244F20803134033B1237A97
:1005200023B105F5C333A649A0334B60D6070ED5DA
:1005300094F8660194F86711A14B814207D001211C
:10054000197005F5C331A031596083F86701900433
:100550000AD500239A4901F5B470185A002841F0D1
:10056000A6840233182BF5D1237A33B9944BD3F8F0
:100570008031ED1AED43ED0F00E001252DB102F0C1
:10058000A7FD012384F8843133E1D4F888318C4904
:10059000013303EAE373C1F88831110640F1298180
:1005A000D4F88C31B3B994F89031013B042B00F2AC
:1005B0002081DFE813F01600160016000B01DF00A3
:1005C0007F4BD3F88C0107F084FF0BF07DFE08B160
:1005D00011F0D6FDD9F88C0107F080FF0028EFD18B
:1005E000E1E7D4F8B021764D167816B1012E12D07D
:1005F000FFE0012B00F2FD80724B95F89121D5F8B8
:100600008C010C2101FB023292F8212053F82210B8
:1006100007F05AFF65E0D5F88C0107F045FF002888
:1006200000F0E78095F89031022B46D0032B54D090
:10063000012B40F0DE80644BD5F8A8211B689A1A84
:10064000C72A40F2D680D5F8A411042933D85D4AD0
:10065000C5F8A8310C2000FB0121D5F88C5191F888
:100660002110D5F808E00023164656F823007045FF
:10067000DFB204D00133082BF7D1002300E03B4662
:100680008B4205D0284652F8211007F01DFFB0E03C
:1006900094F891310C2202FB0366766A16F8011B6E
:1006A00019B1284607F02CFFF8E7D4F8A43101333C
:1006B000C4F8A4319DE0022099E0424B95F89121C5
:1006C000D5F88C010C2101FB023292F8212053F85D
:1006D000221007F0F9FE032089E0D5F8B0319B78AD
:1006E0000BB9042083E095F8AC310BB985F8AC6107
:1006F00094F8AC31324D012B17D1D5F8A431B22B7F
:100700000DD8304AD5F88C01134493F85C1007F0EB
:10071000F7FED5F8A4310133C5F8A43105E0002374
:10072000C5F8A431022385F8AC3194F8AC31244DDE
:10073000022B1AD1D5F8A4310F2B13D8D5F8B0213C
:1007400020495278D5F88C0102EB02120A44134476
:1007500093F8101107F0D4FED5F8A4310133C5F891
:10076000A43102E0032385F8AC3194F8AC31022BBC
:100770003FD9B6E7D4F89821114B0132C4F898213B
:10078000D4F8B021D2785AB193F891210132D2B283
:100790000521B2FBF1F101EB8101521A83F891219D
:1007A000094B1B68C4F89C31002384F8B43194F8D9
:1007B000B53123F0020384F8B531012017E000BF02
:1007C000A005002004660108BC430020B24BD4F809
:1007D0009C211968B14B8A1A40F6C4118A4208D983
:1007E000D3F8B82122F02002C3F8B82105200FF079
:1007F000FDF807F020FC94F8CF31CBF80000D4F8D6
:10080000BC51002B35D0A54B11A8D3F8E838984738
:100810009DF8443033B3D4F8F028DBF800309F4D16
:10082000D4F8F4681344C4F8BC3105F6F800D4F8E1
:10083000E038984705F6F80094F8FE28014607F0DE
:1008400078F9974A138805F6F807002B00F09E8088
:10085000D5F800391B78002008EE103A05F604158B
:10086000804631E08F4B1B685D1B962DD3D501F080
:100870000EBB451B002DCEDA01F009BB37F908C0CD
:100880000B5863440B502B6905EE90CA0133012BC2
:10089000F8EEE57A2B6122D10023C5ED017AC5ED92
:1008A000007AAB6080490023BAF1010F27F80830C5
:1008B00021F808302ED008F10208B8F1060F00F137
:1008C000040005F1140555D07549B1F800A0774929
:1008D000BAF57A7FD2D100230B502B61CEE795ED8C
:1008E000006A05EE903A77EEC66AB8EEE57A86EED3
:1008F000877A36EE077A37EEC76AD5ED027A85ED4C
:10090000017AE6EE867A85ED007AC5ED037AC5EDCB
:10091000027AC7E72B69012B09DD013B00EE103A93
:10092000D5ED037AB8EEC00A87EE800A01E09FEDAC
:10093000600A0690059214F0A7FC18EE103A06988B
:10094000059A53B1F8EEC87AB4EEE70AF1EE10FA60
:1009500003DD4FF47A73138018E0544BDFF848C17D
:10096000C35803F5FA7E4FF47A739EFBF3F32CF829
:100970000830A0E7BAF1010F04D15046059207F004
:10098000C9FC059A0AF1FF3AA2F800A00023434DE2
:10099000F85A05F64C1E3EF80320821AFA5202332A
:1009A000062BF4D1D5F8B83113F0020300F0D2824F
:1009B000D5F8583905F5166098473E4B05F5166091
:1009C0001A78014607F0B5F8B5F8663905F51668E6
:1009D000002B44D00022D5F868091346B9F86619EF
:1009E000DFF8D8E038F902C02C4DB1F5C87F04BF5C
:1009F00000214EF803105EF8031061444EF8031016
:100A0000043300210C2B28F80210815202F102025B
:100A1000E4D1B5F86639012B1CD1D5F86C394FF407
:100A2000C872C83393FBF2F30380D5F87039C8332A
:100A300093FBF2F34380D5F87439C83393FBF2F299
:100A40001D4B1B88D21A8280A6F85810A6F85A109F
:100A50000CF0B0FBB4F86639013BA4F86639E268E3
:100A60000E4B520740F18F80B3F87829322A27D1F4
:100A7000D3F868291188A3F87A1951889288A3F8C5
:100A80007E29B6F85820A3F88029B6F85A20A3F892
:100A90007C19A3F8822915E0BC430020A0050020A2
:100AA00000170020F4160020EC0E0020E00E0020BD
:100AB00000000000F0160020000000200C0F0020B5
:100AC000002A3ED00022D4F868A91046B9F8783937
:100AD000AC4938F902E0AC4D322B04BF00230B5077
:100AE0000B5873440B50043000230C2828F80230B4
:100AF00019462AF8023002F10202E7D1B5F8783936
:100B0000012B19D185F8913985F8901907F002FC6D
:100B1000B5F87A39AAF80030B5F87C39AAF802306D
:100B2000B5F87E39AAF80430B5F88039A6F85830FF
:100B3000B5F88239A6F85A30B4F87839013BA4F8F0
:100B4000783994F89229904BEAB1D3F88419D3F804
:100B500068093225002291FBF5F183F89229018082
:100B6000D3F8881991FBF5F14180D3F88C3993FBC8
:100B7000F5F5864B1B88ED1A8580A6F85820A6F857
:100B80005A200CF017FBD4F86839B4F860191A88A9
:100B90008A1AA4F860295A88B4F862198A1AA4F843
:100BA00062299B88B4F86429D31AA4F8643907F041
:100BB00042FAD4F89439764AD4F89C69C4F8940976
:100BC000C3EB000A05EE90AA114691ED006A357854
:100BD000B8EE659A002329EE066A0832194637F9FD
:100BE00003E0DFF8C09107EE90EAF8EEE77A0DF146
:100BF0002C0C67EE867A0CEB4300C0ED007AE5B171
:100C000005EE905AB8EEE57AF7EE006A86EE877A3E
:100C100038F9030007EE900AF8EEE77A67EE877A74
:100C200036EEC77AD2ED006AE6EE877AC2ED007A38
:100C3000FDEEE77A17EE900A01E038F8030029F894
:100C4000030039F803000233062B10FB001102F1F8
:100C50000402C4D1DFF834814E48B8F8003064256E
:100C600069435B4391FBF3F5493DADB20BA90FF02E
:100C7000ABFC3B2D96ED017A464D12D9B4F9C01963
:100C8000D5ED020A404B94F8B52107EE901AF8EE24
:100C9000E77AF4EEE70AF1EE10FA1CDD42F0080202
:100CA0001BE0F7EE007A37EE276A2A4687EE866A5F
:100CB000002339F903C00233062B07EE90CAD2EDA8
:100CC000006AF8EEE77AE6EE877A67EE866AE2EC8B
:100CD000016AEED1D2E722F0080295ED010A83F80D
:100CE000B52114F0CFFADFF8C09095ED027AD5ED7A
:100CF000017A89ED000AF0EE408A27EE070A95EDA9
:100D0000008ADFED259AA7EEA70A14F0BDFAB1EE2E
:100D1000488AF0EE400AB0EE480A14F0B3FAB0EE9A
:100D2000408A89ED010A28EEA90A14F0ABF928EEF1
:100D3000290AA4F8CC0914F0A5F9D4F8B831A4F81C
:100D4000CE091B0732D509F10C000BA90FF03CFCB2
:100D500096ED027AF7EE007A37EE276A09F10C0376
:100D600087EE866A09F11809D3ED006ADFED0B7A88
:100D7000E6EE877A67EE866AE3EC016A4B45F3D1CB
:100D800007483EE0240F0020A005002000000020BE
:100D9000380F0020540F00204C3D0F44000000008D
:100DA000700F00204C0F0020640F0020C34D0BA9D2
:100DB000281D0FF009FC98ED020A98ED017AD8ED94
:100DC000037A20EE000AA7EE070AA7EEA70A14F09E
:100DD0005BFAB5EE400AF1EE10FA11D095ED017A0A
:100DE00087EE007A85ED017A95ED027A87EE007A3A
:100DF00085ED027A95ED037AC7EE007AC5ED037AA8
:100E0000AF4807F011FEA4F8DC09DFEDAE7AB4F9C3
:100E1000DCE99FEDAD7AB4F9AC09B4F9AE19B4F9D7
:100E2000B029AA4D29EE279A07EE90EAF8EEE77A64
:100E3000F1EE688A67EEC77AB1EE488ACDED107A96
:100E400007EE900AF8EEE77A11A8CDED117A07EED9
:100E5000901AF8EEE77A0EA9CDED127A07EE902AF5
:100E6000F8EEE77ACDED0E8ACDED137A8DED0F8A8F
:100E70000FF0AAFB7378DDED137A012B1FD1944B91
:100E80001B785E0711D4D5F8E039402293FBF2F2CB
:100E90009A1A07EE102AB8EEC77A37EE277ABDEE17
:100EA000C77A17EE103AC5F8E039D4F8E039402295
:100EB00093FBF2F305EE903AB8EEE57A05E0B8F868
:100EC000008007EE108AB8EEC77A824B9DED110ABA
:100ED00093ED008AD4F8EC6977EEC77ACDED137AFA
:100EE000D3ED017A79EE277A89EE279ADDED137A30
:100EF00077EEC87AA9EE278A83ED008A14F0C2F84B
:100F0000D4F8F85929780FF087FA9DED120A304489
:100F1000C4F8EC09D4F8F06914F0B4F829780FF0AB
:100F20007BFAB0EE480A3044C4F8F009D4F8F4690A
:100F300014F0A8F869780FF06FFA674B1A685244FA
:100F40001A60D4F8FC3930440133C4F8F409C4F809
:100F5000FC3905E0A5F86039A5F86239A5F86439CF
:100F600007F069F8D4F8003ADFED567A574AD4F81A
:100F7000F468CBF80000C31A9BB206EE903AF8EE84
:100F8000668AA4F8043A28EEA78A02F6082383EDBD
:100F9000008A96F85230C4F8000A33B994F8D03178
:100FA0004A4D002B00F0A0802BE002F60C2393EDBD
:100FB000007AB5EE407AF1EE10FA984609D1D2F8EF
:100FC000F02807EE102AB8EE477A67EE277AC3EDCD
:100FD000007A0025785F96F85210D8ED000A00EEEE
:100FE000100A3E48B8EEC00A00EB850007F0BCFDD1
:100FF000BDEEC00A10EE103A7B530235062DE9D142
:10100000CCE70121B0EE680A05F62C20F0EE480A84
:10101000B5F8286A07F0A8FDBCEEC00A95F884313F
:1010200010EE101A89B2B6FBF1F14F1CBFB2A5F851
:10103000347A1BB3B5F8369A0023244A02F63820D6
:1010400002F65C261D5A33F806E002F664201EFB09
:1010500009FE33F800C01D520FFA87F8CCEB050CDF
:101060009EFBF8FEE64423F806E00233082BE4D1A9
:10107000002382F88431A2F8361A04E0B5F8363A33
:10108000013BA5F8363AB4F8361A104A0BB2002BD9
:101090004FF0000326DDB2F9346A114A9D5AA2F1DD
:1010A0002400083215FB01F59A5A95FBF6F5521B00
:1010B0001A520233082BF0D116E000BF00000020C6
:1010C00004000020BD37863535FA8E3CA00500208F
:1010D00003170020840F0020FC160020B00F002012
:1010E000FC0F0020A2F8363A03F0EAF8D4F86C3A84
:1010F000CA4DCB4E13F4801300F09980B5F8703AC6
:10110000180600F1E380C74B1B7803F0040303F0DB
:10111000FF08002B79D095F8723A13B195F8733A1D
:101120003BB1C14B00221A6001233374002384F8C1
:10113000733A337CB94FD4F8F45884F8723A032BDD
:1011400006D1284607F67821542213F082FD55E097
:10115000012B07D107F678202946542213F079FD98
:10116000002302E0022B02D1012387F8CC3A0123AD
:1011700084F8CD3A84F8CE3AAC4BC4F8D85A002261
:101180001A605A602A78AA4984F8DC2A94F8CC2A92
:101190000A44B2EE047A92F86411A64A43F85C2C31
:1011A0000D4484F8DD1A697895F815C007EE901A99
:1011B000F8EEE77A03F11002C7EE877A9FED9E7A88
:1011C000C3ED047AEB7A07EE903AF8EEE77AC7EED1
:1011D000877A9FED9A7AC2ED017A07EE90CAF8EE0F
:1011E000E77A67EE877AC2ED027AFCEEE77A17EECD
:1011F000903A6B750023EB7208F0AEF9802007F08F
:10120000C3F8012384F8EC3A60E005F67427D7EDC3
:10121000007AF5EE407AF1EE10FA57D00BF0CAFFE3
:1012200000233B60012385F8728A33744EE0B5F8E1
:10123000702A11063FD595F8722A511E01292ED821
:10124000D5F8D83A95F8DD2ADFED7B7A93F801E0FE
:1012500005F52E6595ED017A67EE277A1A44FCEEC6
:10126000E77A17EE901AD17295ED027ADFED747A73
:1012700067EE277AFCEEE77A17EE901A07EE90EA0F
:10128000F8EEE77A517577EEA77AFCEEE77A17EE7B
:10129000902ADA70DA7A5A735A7DDA7505E0032AF1
:1012A00003D185F8723A012301E0337C01338020B9
:1012B000337407F079F85B4B1B785A0706D494F81F
:1012C000EC3A1BB1554B012283F8732A737CB3B1FE
:1012D000B4F93E2AB4F85A339A4210DC4F4B93F8D3
:1012E000C531012B01D0192B02D194F8A82332B9B2
:1012F0000E2B04D0082B1CBF0023A4F8F23AD4F81C
:10130000F488464D98F81861002E45D0B5F8703A2B
:101310009B0741D005F6B41393ED010AD3ED007A93
:1013200093ED028AB5F8F47A20EE000AA7EEA70A38
:10133000A8EE080A13F0A8FF88EE000ADFED417A54
:10134000B4EEE70AF1EE10FA22D913F03DFF05F6EC
:10135000F825D5ED007A20EE270A13F093FEB0F5BC
:10136000617FA8BF4FF4617005EE900ADFED367A19
:10137000B8EEE50A80EE270A0FF05DF806EE906AF7
:10138000F8EEE67A27EE800A13F07CFE80B200E0E9
:1013900000203844A4F8F40AD4F8B8311F4D9F0651
:1013A00040F19E80B5F8703A03F03003002B00F056
:1013B000978095F8B531DE0740F19280B5F9DC09E8
:1013C000DFED227A224E08EE100AB8EEC88A28EE27
:1013D000278AB0EE480A0FF02EF8F0EE408AB0EE01
:1013E000480A0FF08BF8D5F8FC3AB5F9060BDF7810
:1013F000B0EE409AB2EE048A002F51D0B5F8023B0D
:101400001FFA83F91BB2C01A0FF038FB7D42A842C5
:1014100020DBB842A8BF38461DE000BFA005002071
:10142000000000200317002014100020701000207E
:10143000046601080000A04100007A445555553F5C
:101440009A99993F8FC2753CEFB6B04435FA8E3CFD
:10145000F81600202846B4F8003B8144B4F9040B88
:101460001FFA83FA1BB21FFA89F9C01AA4F8029B6B
:101470000FF004FBA84203DBB842B4BF05463D466B
:101480005544ADB2A4F8005B0FFA89F92DB205EE10
:10149000909A07EE905AB8EEE57AF8EEE76A09E01E
:1014A000B5F9045B05EE900A06EE905AB8EEE57ABF
:1014B000F8EEE66A68EEE67AE7EE097A26EE899AB1
:1014C000C7EE887AA7EE289AFDEEE77A89EE089AA9
:1014D00017EE903ABDEEC99A338019EE103A738038
:1014E000864DB4F82E2305F24A330093844BD4F88A
:1014F000081B1E68404608F15803B04794F80C1BBF
:10150000032916D9D5F8103B5A88B2F5FA7F10D2C4
:10151000B5F9180BB5F9F25A5342002DB8BF6D4218
:101520005B1B984203DB53198342A8BF0346A4F810
:10153000183BB4F8F40AB4F8165BB4F8146BD4F89A
:10154000107BB4F918EB6F4B00228A4203F11003B1
:1015500035D297F901C0CCF1000C0EFB0CFC07EE64
:1015600010CA0FFA86FC06EE10CA0FFA80FC05EED0
:1015700090CA0FFA85FC07EE90CAF8EEC76AF8EE3B
:10158000E77A13ED027ADFF884C167EE877AF8EE26
:10159000E55A13ED047AE5EE877AB8EEC66A13EDE4
:1015A000037AE6EE077A13ED017AE6EE877AFDEE2E
:1015B000E77A17EE908A2CF812800132C5E7524B79
:1015C0001A7802F0040202F0FF03002A72D094F8A5
:1015D000F79BB4F8DC5B01238B424C482EB207D258
:1015E00030F91350B542B8BF3546ADB20133F3E719
:1015F000D4F8182CD4F81C7C5388D4F820EC9E42E4
:10160000C8BFC3EB0505E368B4F93E6A03F4805A2A
:1016100003F0100BD4F8103B07933C4BCCBFADB29A
:10162000002500EB410843453BD01988491B89B28E
:1016300023F8021B09B2BAF1000F0AD0F8898642DA
:10164000C7BFBEF80200B2F802C09088BEF800C062
:1016500005E0B2F802C0B9F1000F09D090888142CC
:1016600003DB6145B4BF0846604623F8020CDAE7A5
:101670001088814203DB6145B4BF0846604623F809
:10168000020C398A8E42CEDABBF1000F01D091886C
:1016900004E0079801780029C5D1118823F8021CBD
:1016A000C1E794F8242C154B013AD2B2182A00F263
:1016B00054810AE08B42F4D2144A02F14A0030F815
:1016C000130022F813000133F4E701219140104A7E
:1016D0000A40002A00F04181B3F8702AD00519D5DC
:1016E000B3F8EE2AADF84420B3F8F02AB3F8F23A92
:1016F000ADF84620ADF8483025E000BFA005002039
:1017000018000020BC100020031700207C110020CE
:1017100099209801B3F8142BD968ADF84420B3F898
:10172000162BADF84620C904B3F8182BADF84820A5
:1017300009D5B3F93E1AD3F81C3CDB899942BCBFEA
:101740005242ADF84820B4F9CE194FF47A7201F53F
:10175000E16151434FF4616391FBF3F1A1F5FA713B
:10176000ADF85C10B4F9CC1901F5E1614A4392FB84
:10177000F3F3A3F5FA73ADF85E30B4F8DC3BB4F8DC
:10178000382AA3F2DC53ADF84A30D4F81C3CDB898C
:10179000D21AADF84C20B4F83A2AD21AADF84E203D
:1017A000B4F83C2AD21AADF85020B4F83E2AD21A26
:1017B000ADF85220B4F8402AD21AADF85420B4F84B
:1017C000422AD21AADF85620B4F8442AD21AADF8FB
:1017D0005820B4F8462AD31AADF85A300022B64B36
:1017E00003F63E40002111520232102AF7D1D3F8FD
:1017F0006C2AD3F8504C93F84E3C07925B00099347
:1018000008940B46099EAC48B34200F08B8000F66A
:1018100054446218957935B10126153506FA05F557
:10182000079E354078D0675C089892F904B092F82A
:10183000019092F803C092F805A0C7EBC70600EB31
:1018400046064FEA490EB6F90000B6F902502D1AC5
:10185000ADB2642005FB0BFB9BFBF0FB4FEA550888
:10186000C8EB0B0B1FFA8BFB944818ACBCF1000FB4
:1018700003D1744434F81C4C0CE0A644C45E3EF919
:101880001CEC744508DAA444A44503DBE645B4BF68
:1018900074466446C4520AE009DDCCEB040CF445FE
:1018A00003DBA445B4BFE646A64620F803E04FF0AC
:1018B000010ED6F80A60804892F902200EFA09F962
:1018C00019EA060F0CBF76464FF0FF3600F6C44EFD
:1018D0007F0033F80EE012FB0EF24FF0640EC419D5
:1018E00092FBFEF20FFA8BFB5A45B4F83E4CB6B2AF
:1018F0000CDB4FFA8AFB05FB0BFB9BFBFEFBC8EBEB
:101900000B0B0FFA8BFB9345A8BF934607440BFBC9
:10191000064BA7F83EBC02E000F6C4401D5202335D
:1019200007316FE70024D0F8508C25460E2202FBC9
:101930000582634E92F90670A35B17FB03F76423DD
:1019400097FBF3F7A753E8B207F054F80135384492
:10195000082DA05304F10204E8D1574DEE6816F0AB
:1019600020082F4634D0002007F044F8A5F83E0C9C
:101970000446012007F03EF8D5F86C3AA5F8400C73
:101980001B0625D5D5F8E43CB5F8CC291B78012BEE
:1019900022D1D5F8503CB5F9CEE993F9141093F95A
:1019A000063011FB02F25B4232210EFB03F392FB85
:1019B000F1F26FF0310E92B293FBFEFE964493FB70
:1019C000F1F174440A44A5F83E4C1044A5F8400CCB
:1019D000D5F850AC002319E0D5F8501CB5F8CE3935
:1019E00091F906E091F914101EFB03FE32239EFBD1
:1019F000F3FE11FB02F2744492FBF3F3A5F83E4CA4
:101A00001844E3E7D1520233102B10D0C3EBC304C8
:101A10002B4A5444985EB4F90010B4F9024088424D
:101A20009146EFDB21B28842B8BF0146EAE7224B7C
:101A3000D3F810BB9BF90830A3B995F824AC0AF190
:101A4000FF33182B78D8DFE803F02F7777557777B7
:101A5000774C7777777777617777777777556C7784
:101A600077612F000024174BBBF9062039F90410C9
:101A7000442000FB043006F070FEC4EBC40280B2C8
:101A800029F80400524400B2B2F90030B2F9022041
:101A9000984203DB13B29842B8BF034629F80430DA
:101AA0000234102CDFD1C8E79BF8043063B100206A
:101AB000B5F8481C11E000BFA0050020641200200A
:101AC000DE11002088120020A54B1B7803F00403D0
:101AD00003F0FF00002BEAD101460FF03FF801248C
:101AE0002BE00020B5F8441C0FF038F80120B5F8C1
:101AF000461C07E00020B5F8461C0FF02FF8B5F89B
:101B0000481C01200FF02AF80224E0E1002409EB30
:101B10004403E0B2998801340FF020F8062CF6D186
:101B20000BE0002409EB4403E0B2D98801340FF044
:101B300015F8042CF6D1CAE10024B8F1000F02D147
:101B4000BAF1050F0CD12046B5F83E1C0FF006F88F
:101B5000601CC0B2B5F8401C0FF000F80234E4B2CB
:101B6000F10208D47F4C804E226B33689A1A002A07
:101B7000A0460DDA14E000267C4B03EB4603A019C7
:101B8000C0B219890EF0EAFF0D2EEBD00136F3E753
:101B900003F5C873236394F834300BB111F004F8E3
:101BA000734B1B78002B40F07281EB681A0340F1F5
:101BB0006E8194F83520023A082A00F26881DFE845
:101BC00012F0090031004E00620079008A003101F4
:101BD0004D015A01674B1A68E36B64339A4240F235
:101BE00056810025644B654A1B789D420CDAD8F873
:101BF0003860931993F8660130B10AF00AFA594B2C
:101C0000013601359E63EDE7A16B564B0A4492F80D
:101C10006621002A40F03B819A634FF0FF32DA637D
:101C2000032232E121230093554B019303F10C026F
:101C300002924920A3F10A02502102330DF0FCFA6E
:101C4000002840F02481EB6813F080024FF0FF334E
:101C500003D0E363A063042336E1A26327E0494A8B
:101C600002230021009301910291482002F1080310
:101C70000DF0E2FA002840F00A814FF0FF33E363F1
:101C8000A063052320E1072300933F4B019303F159
:101C90000C0202924720A3F10802002104330DF048
:101CA000CBFA002840F0F380A0634FF0FF33E363EA
:101CB000062309E1354A0323002100930191029193
:101CC000532002F108030DF0B7FA002840F0DF803E
:101CD000A0630723F8E0A16B224A11B9D163012167
:101CE0009163254A1678E26B1644402EA8BF402621
:101CF000132EE66340F3CB801A4A926B0D2A00F252
:101D0000DE80DFE802F08B070B0E12182125295D1B
:101D100061707A801E480AF070F97DE01D481E4906
:101D20006EE01E481E491F4A74E01F4895F8D618F9
:101D300095F8D7286EE095F8B0381C480C2202FBC5
:101D4000037797F8B2185BE01948B5F8041357E029
:101D50001848B5F8061353E0174B184819694FE0B7
:101D60000317002098160020F4160020D80F00203A
:101D700002170020BC430020140000200466010864
:101D8000D66701085869010870690108BC69010833
:101D90009C760108B9760108288F0108D1760108E0
:101DA000E8760108F4760108FD760108117701084C
:101DB0001E770108307701087C0E00204277010869
:101DC000454B464819881BE0236C454FDB0407D57B
:101DD000444895F83C1309F0A3F9301AF8631DE064
:101DE0000C23BB631AE095F8401395F8412395F84E
:101DF0003F333D4809F094F90EE03C48B4F84410F4
:101E000009F08EF908E01F0508D53948B5F84413E4
:101E1000B5F9422309F084F9301AE063A36B01336A
:101E2000A36334E0D5F86C3A980114D5B4F8463081
:101E30002B4D83B9AB6C11930E203368129311A90B
:101E40000AF04AF94FF48053A5F84C30092385F87D
:101E500035300EF08FFE0EF09DFC18E094F84E30F9
:101E6000002BF6D0D5F86C3A9901F2D41C4B08221D
:101E700083F83520EFE71F4B1A68E36BC8339A42AB
:101E800005D90DF0E5FF164B012283F835201A4BDA
:101E90001B78002B7EF4ADA9184BDA6852057EF54D
:101EA000A8A9B3F8120304F0ADFBFEF7A2B9012311
:101EB0000B7005F5C333A0334B60FEF755BB4FF4F1
:101EC0008053A4F84C30092384F83530DFE7B8F1AB
:101ED000000F3FF445AE36E60000002055770108BC
:101EE0009816002062770108727701088E77010842
:101EF0009C770108BC43002002170020A0050020A9
:101F00002DE9F04F2DED028BC04CC14B236091B0F9
:101F10000023636009F02EFC18B90BF09DFC09F05A
:101F20004DFCDFF85493BB4FBB4DDFF84483DFF823
:101F30004CA30CF0B3FA99F8003043F0010389F890
:101F400000300EF0CDFBB54BFB606B6FA360B44B64
:101F5000BB606B6BB34823F080036B636B6F43F024
:101F600080736B672B6B43F03F0310AE2B6303232F
:101F70008DF8263041F6FF7326F81C3D314605F0FA
:101F8000ADFD4FF6FF73A848ADF82430314605F09B
:101F9000A5FDA648314605F0A1FDDFF8E4C2CDF865
:101FA0000CC06046314605F099FDA148314605F068
:101FB00095FD31469F4805F091FD304605F0F6FC51
:101FC000099B9D4AB3FBF2F3E3609C4B9C4A4FF0A4
:101FD000000BC3F800B09B4B5A60F02287F8232017
:101FE0000722C3F808B0984F1A60D8F80830CAF82A
:101FF000003097E80F0086E80F002B6BDDF80CC06F
:10200000099843F008032B632B6B43F008032B6301
:102010004FF48043ACF818304FF40043ACF818305C
:102020000AA905F05BFD0CA90B9805F057FD64208B
:1020300006F0D5F985485946A02212F013FE2B6C04
:1020400043F013032B646B6C43F001136B64804B00
:10205000B94603F1C0009A7ADF7A53F8105B02F0B8
:102060000701D20805EB82028900156A4FF00F0EB6
:102070008F400EFA01F125EA01011162156A8342CF
:1020800047EA05011162E6D10023604F07F1100213
:102090000021995401330C2BF7D1FF236D4A3B7774
:1020A0007B77BB77FB776C4B13606C4D6C4A0420DD
:1020B000107028463022049312F0D4FD14222A70A6
:1020C00002222A760522049B85F82420654A98F886
:1020D00005B082F800B0A3F5F072A3F590737B62AF
:1020E000614BDAF800503A6203EBCB035B78BB62DA
:1020F000AB0644BF0123BB6200235C4A40F2DC51C3
:1021000099520233102BF8D1304600211C2212F0D4
:10211000A9FDBBF10E0F04D00BF0EF0BBBF1080FC4
:1021200002D101238DF83630052005F0ABFE18B141
:102130004088003018BF0120C5F340038DF82B30D4
:10214000C5F380138DF82D30C5F340338DF824305E
:10215000C5F3C03300F001008DF8273015F400639B
:102160008DF82A0004D098F886315E1E73427341C0
:102170008DF82830C5F300438DF82E30A36AB8F8E7
:102180004801ADF83A00003318BF01238DF82F3015
:10219000C5F300538DF83030B8F84A31ADF834301B
:1021A000B8F85631ADF83230C5F3804305F001017F
:1021B000C5F3C0028DF82C30E804B8F854318DF81E
:1021C00025108DF82620ADF8383004D52848B0F811
:1021D0005001ADF83A00B3F5FA7F84BF0023ADF8A3
:1021E0003A30244898F8D63184F82C30002384F80B
:1021F0002D3043709DF83630002B14BF022300238E
:1022000000293FD1002A3ED03CE000BF0417002047
:10221000C585000800ED00E0003802400005FA0521
:1022200000000008000002400004024000080240D4
:10223000001002400014024040420F00C043002042
:102240003F90020010E000E04882010800420020B8
:1022500030890108141C002054090020AC1C002007
:10226000AB1C0020C4110020EC890108DE11002005
:102270006007002031170020C4430020AC05002077
:10228000000C0240013309EB830300271B6905930F
:10229000B9460599CB5B4FF6FF72934200F0F3808D
:1022A0001A0A022A02D19DF8241003E0012A04D15F
:1022B0009DF82510002900F0E280D9B29DF8300089
:1022C000BD4B4FEA011C03EB0C0530B19DF8360005
:1022D00018B90439032940F2BB80012A3DD1FF22FD
:1022E0000026298984F8742084F875206A7B686840
:1022F00084F87860C4F88450ADF818108DF81A206E
:1023000006A9022284F830606663A663E663266746
:1023100084F8766084F877608DF81B200493CDF8FC
:102320000CC005F0DBFB049BDDF80CC0A97A53F868
:102330000C00324605F062F9284610F015FD9F4B5F
:102340009F49C4F888309F4BC4F88C30C4F8906023
:1023500028460A1D0DF058FB91E0022A3ED19A480A
:102360008DF81B205FFA89F11C26714346184FF047
:10237000000B4FF0010E86F8019086F802B086F847
:102380000AB000F801E0697BB5F808E06868F5601C
:102390008DF81A1006A9ADF818E00493CDF80CC01A
:1023A00005F09CFB049BDDF80CC0A97A53F80C00E7
:1023B0005A4605F023F9284610F0D6FC834B3361CA
:1023C000834B7361C6F818B0284606F1100106F178
:1023D00014020DF019FB09F1010950E0032A35D16F
:1023E0009DF82C303BB194F82E60284608214FF61A
:1023F000FF7200231CE0BDF8382094F82E60BDF871
:102400003A30B2F5FA7F0DD97249B1FBF2F22846A3
:10241000082192B208F0CEFC04EB86066E4BC6F89B
:1024200058010CE06D49B1FBF2F22846012192B24D
:1024300008F0C0FC04EB8606694BC6F85801C3607F
:1024400094F82E30013384F82E3018E0042A16D187
:10245000BDF83230614A94F82D6092FBF3F22846C1
:10246000BDF83430012192B208F0A4FC94F82D306C
:1024700004EB86060133C6F8880184F82D30023754
:10248000182F7FF406AF94F82D3084F8A831554BFF
:10249000554F1D78A5F117030026022B3E7018D862
:1024A000236A3344D3ED007AF5EE407AF1EE10FA68
:1024B00002D1A36A53BB24E04C4A06EB020E0FCBB9
:1024C0008EE80F003B7810360133C02E3B70E7D109
:1024D000EFE7474B13F835C087F800C003EBC5039F
:1024E000D3F80490B9F1000FE3D06645E1DA3F4A32
:1024F000330103EB020E4B440FCB01368EE80F0085
:10250000F3E7DAF80030D90426D41FE0394B3A4A11
:1025100003EBC5035E6A93F820001070002EF0D024
:1025200000238342EDDAC3EBC3017218DFF8D4C095
:10253000D2F8009041F80C9001EB0C0E9188AEF8A7
:10254000041092798EF806200133EAE705F0EF03D4
:10255000082B2A4B1FD120E039780129F6D9284BC6
:1025600000228A4203F11003F0DA13ED047AF6EE4A
:10257000007A27EE277A013203ED047A13ED057A0B
:1025800027EE277A03ED057A13ED037A67EE277AB3
:1025900043ED037AE5E70E2D08D11A7842F01002D8
:1025A0001A70182D30D106F0FFF92DE01A7822F0BC
:1025B00010021A70192DF5E72C8901089B000108FB
:1025C0008C1700209D0101087C1700201977000856
:1025D0007501010800127A00BD01010840420F0098
:1025E000AD010108C4110020AC100020BC10002077
:1025F000EC89010848820108EE11002055070020EF
:10260000C4100020F411002010F0B2FADAF8003003
:102610005A0302D4B64B01221A70B64A137843F01B
:10262000040313700FF098FA08F0BCFFB8F85C21AF
:10263000B14B4AB9B3F95E1141B9B3F96031D3F185
:10264000010338BF002302E0002300E0134613F02B
:10265000010324D112B207EE102ADFEDA87AA849AF
:10266000B8EEC77A0B7027EE277AB8F95E318DED98
:10267000067A07EE103AB8EEC77AB8F9601127EE7D
:10268000277A06A88DED077A07EE101AB8EEC77AFA
:102690009C4967EE277ACDED087A0DF037FF9A4D09
:1026A0009A482B68B8F86461B3F856300593002156
:1026B0000C2298F863B1B8F80C7098F80F8012F0FB
:1026C000D1FA14229248002112F0CCFA914B94F8DE
:1026D000D0A100221A709946BAF1000F03D10492DA
:1026E00006F0F4FE049AA4F8D221BAF1000F01D149
:1026F00009F040FBB6F5807F0ED0BB2E0ED8612EC0
:102700000ED8292E0ED8132E0ED8092E0ED8002E34
:102710000CBF002106210AE0002108E0012106E0AB
:10272000022104E0032102E0042100E005217A4BAC
:102730007A4D1A8822F040021204120C1A801A886C
:1027400022F038021204120C42F030021A801A8869
:1027500092B242F040021A801A2010F005F90120CE
:1027600005F032FE06A806F0A1FC9DF91A300133EF
:1027700003D19DF91830013303D0B4F8D2319BB2A4
:1027800033B100230320A4F8D23105F032FEE2E099
:10279000DFF87CA1624BCAF80030624BCAF8043003
:1027A000614BCAF80C306420604BCAF8103005F059
:1027B00016FE042389F800305D4B06221A705D4A2C
:1027C0001168BBF1090F41F0010111609A4600F256
:1027D0004B84012202FA0BF240F202331340002B29
:1027E00040F03A8412F0FD0F00F03684524A137024
:1027F00095F8D03193461BB9049306F067FE049B0D
:102800000022A5F8D2210BB909F0B4FA3F4B4B4A8C
:102810001A6064204A4A5A6005F0E1FD04238BF8EF
:10282000003007238AF80130424B1A6842F0020256
:102830001A60404B1A6812F0020F9A4602D0334BCE
:102840001B6898473F4AB8F1000F1AD0F6B2002E25
:1028500014BF4FF47A737D239F4205DBB7F57A6F7F
:10286000A8BF4FF47A6700E01F46591E0F44B7FB1C
:10287000F3F10139C9B201FB033385F8D4111360B8
:1028800002E085F8D4811760214A136898472E49E1
:1028900000230B70184B93F858210AB189F80020D7
:1028A00093F859210AB12448027093F85A3103B1C0
:1028B0000B70DAF800301B074AD5059B1AB2642367
:1028C00092FBF3F103FB11231BB207EE103AF8EE73
:1028D000C76A07EE101AF8EEC77A9FED1C7AE6EE8B
:1028E000877AB2EE047A67EE877AC5ED767A32E0BF
:1028F000CC160020C44300206007002035FA8E3C2F
:102900001C000020B0180020940E0020F40E0020BF
:102910007C0E00209E0E002000380040041700208E
:10292000ED010108AD90000851BD000890C1793D4E
:102930002400002058070020F0160020DD010108C7
:1029400045900008900E00203C1900208988883CA2
:102950000023C5F8D831C0490B7843F002030B704F
:10296000BE4B4FF400425A834FF480421A830A2729
:10297000BA4E736983F400437361736983F48043CF
:102980007361192005F02BFD013F192005F027FD8B
:1029900017F0FF07ECD14FF4804333834FF400432B
:1029A0003383AF4B9FEDAF8A1B68AF4E1B7B00EEAE
:1029B000103AB8EEC00A20EE080A0DF09FFD3288EA
:1029C00007EE902AF8EEE77A27EE800A12F05AFB1B
:1029D00036889FEDA67AA64B07EE906AF8EEE77A66
:1029E0001880C7EE277AA34BFF211B229FEDA27A06
:1029F000C7EE877AC4ED777AD3ED047A9F4CA04B6B
:102A000027EE888ADFED9F7A28EE278A204683ED1D
:102A1000008A12F027F99C4A9C4B1268277001210A
:102A200012F0020F1970204604D061700321197052
:102A30000221A170570704D519784C1C1C7003247F
:102A4000445412F00A0F0CD01A7804218154511CFE
:102A5000C9B205244454D11C0232D2B219700621E5
:102A600081548B4C2268960604D519784E1C1E7032
:102A700007264654110608D51978092646548E1C97
:102A80000131C9B21E700A264654824E7179082956
:102A900001D00E2908D11F7807F1010E83F800E05C
:102AA0004FF00B0E00F807E01F7807F1010E5FFAF8
:102AB0008EFE4FF00C0C12F0040F83F800E000F8CB
:102AC00007C009D007F1020C704F87F800C06B4FA8
:102AD0004FF0100C07F80EC01F7807F1010E5FFAD7
:102AE0008EFE4FF0120C12F4806F83F800E000F8B5
:102AF00007C00ED096F818C2BCF1000F09D007F13C
:102B0000020C624F87F800C05C4F4FF0130C07F8BF
:102B10000EC01F7807F1010E5FFA8EFE4FF0140C05
:102B200012F4007F83F800E000F807C009D007F135
:102B3000020C564F87F800C0504F4FF0150C07F8A5
:102B40000EC0182913D11F784FF0160E00F807E0B9
:102B500007F1010E5FFA8EFE4FF0170C00F80EC061
:102B600007F1030E0237FFB283F800E0C1551103ED
:102B700004D519784F1C1F7019274754D70504D561
:102B80001A78511C19701A23835400219822424844
:102B900012F068F810F0D4FD4049414AC5F8E02130
:102BA00000230B808B703F49A5F8E4310A60B6F82A
:102BB000982190B23C4958520233242BFAD1236811
:102BC000D8045CBFB6F89E0108801B0740F1FE8068
:102BD00096F89231062B00F2F380DFE803F0040749
:102BE0000E7994B2B20045F2F05201E042F6F822BA
:102BF0002E4B1A8011F0C6F8E1E007EE102ADFED47
:102C00002C7A2A4BF8EEC76A9FED2A7AE6EE877A8D
:102C100042F6F82119800023FCEEE77A264A17EEE7
:102C2000901A99500433482BF8D1244B244A5A6007
:102C3000244B122240201A7005F062F9002800F09F
:102C4000BF8001234FF0070C90F900001E4A8DE869
:102C5000081040211D4BADE0C4430020000C024091
:102C60003C0F002035FA8E3C000000200AE81C4191
:102C7000600F00207C0E002000401C46491C0020F4
:102C8000380F0020BD37863558070020481C00202B
:102C9000AC05002060070020781B00209411002064
:102CA000EA080020B0050020D80F0020C80F00203F
:102CB0000000B0C4CDCCCC3F040600201C00002096
:102CC0009D7D0008641C002045820008A08601004C
:102CD000664B42F6F8221A80654B664A5A60664B8C
:102CE000102240201A7005F00BF9002868D001234B
:102CF0004FF0000E90F90000604A8DE80840402136
:102D00004FF4E13356E0594B42F6F8221A80584B03
:102D10005B4A5A60584B082240201A7005F0F0F8C0
:102D200000284DD00123002790F90000554A8DE876
:102D3000880040214FF4E13310F034F8C5F8E80181
:102D40003AE04A4A504842F6F82111804A490C229A
:102D5000062B0A7010D00023037085F8EC3185F83B
:102D6000ED311B2385F8EE31052385F8EF2185F839
:102D7000F0314FF4E1370DE00021017085F8EC11DE
:102D800085F8ED11414F85F8EF21212185F8EE11ED
:102D900085F8F031364B3E4A5A60402005F0B0F8D5
:102DA00070B1012100233B4A90F900008DE80A0030
:102DB00040213B460FF0F6FF003018BF012028B934
:102DC00008200DF085FC2A4B334A5A6023682A4AB2
:102DD00013F4804F04D00821117025492F48486012
:102DE00042F20101194003F0010003F4005779B1E8
:102DF0001E4944F6206EA1F800E01D49DFF8ACE062
:102E0000C1F804E00FB10821117008B10C21117054
:102E10001178043951701A0640F183804FF0000890
:102E20001F4FDFF88C90DFF88CA01E48C5F8F49196
:102E30004146152287F80180C7F80480C7F808804A
:102E400011F010FFA9F105034046CAF800300CF05C
:102E5000CDFD154B02201B68FB6005F051F8514673
:102E600050BB80200DF034FC53E000BFC80F0020A1
:102E70001C0000208D7D0008641C0020D18100080A
:102E8000797D0008858100080407002090D00300A8
:102E9000397D00086D800008E57D0008CD7D0008C3
:102EA00030070020FC180020BC430020D97D00081A
:102EB000540900205007002090F805E07B786C4A08
:102EC0004FF00C0C0CFB032C9CF801C0F44504D013
:102ED0000133DBB2042BF2D900237B700B6890F92D
:102EE00000001B78002B7B784FF00C0707FB0322B8
:102EF0000CBF01210321537800910022019202218D
:102F00000FF050FF5B4B18600028AAD001200CF096
:102F10006DFD594A594B106800F5C5721A600DF0E5
:102F20004BFD23685B0555D5554BD5F81082C3F88A
:102F30000080042004F0E4FF0421C5F8140204F02A
:102F4000B5FF504B85F818020820C3F8008004F044
:102F5000D7FF4D4B4D4F1860082104F0A7FF00210B
:102F600085F819022C22384611F07CFE8E237B70E6
:102F70004FF07C0AE0234FF07D09FB7087F800A03A
:102F800087F82B90424F2C220021384611F06AFE20
:102F90008A237B701020A023FB7087F800A087F89D
:102FA0002B90C5F81C8204F0ABFF1021C5F820025D
:102FB00004F07CFF85F824022020C5F8288204F064
:102FC0009FFF2021C5F82C0204F070FF85F8300225
:102FD00010F0F4FB23682F4A13F4002318BF0123D9
:102FE000137005F028F82C4B18607379052B03D16A
:102FF0002A4B4FF4C8721A80294B4FF47A721A8008
:10300000284B1A7842F008021A70274B1A7822F0DF
:1030100002021A70226840F6020313406BB1234B80
:10302000234A1A60234B03221A70234B01221A7081
:10303000224A00231380224A1380B3682360214B65
:1030400001221A70204B1A7862F07F021A7011B0B8
:10305000BDEC028BBDE8F08FBBF1010F04D81B4B18
:1030600000221A70FFF7E5BB4FF0000BFFF7B1BB72
:10307000246601082C070020940E00209C100020DC
:10308000F01C0020441D0020901D0020141D002075
:10309000491D0020CD160020A00F0020060F0020A3
:1030A000001700205507002003170020E81C00200F
:1030B000DC080020481D002029000020F21A002012
:1030C000F41A0020CC160020C4430020F016002083
:1030D000824A83492DE9F04F1468824E04F59C43DF
:1030E00020330B60804B196811F4804F89B005D1F3
:1030F0000FF004FE10B93378013333707778794BD1
:10310000BFB15A68944240F20981013F5F7005E106
:10311000D8F800307548072C98BF195D744B88BFEC
:1031200021461B689847032C0BD906EB4404013752
:1031300020816E4BDFF8E0811D78FCB2A542E7D814
:103140001FE0D8F8003004F10E0203EB82029388EE
:10315000D2880028E9D0C01A4FF47A71D31A4843B4
:1031600090FBF3F0084440F6C903984205DC40F2B6
:10317000EE239842B8BF184601E040F6CA0080B27C
:10318000D3E70F2386F82C3036785A4BD8F80080D6
:103190001B7803934FF0030AB6FBFAFA564B574FCE
:1031A0001B7804930AEB4A0ACAEB060A69005FFA25
:1031B0008AFA4FF0000B05914FEA4A0AD946059961
:1031C0008B4556D04E49039A3BF8014042B90FF067
:1031D00095FD20B1049B002B08BF002400E0039C58
:1031E000B8F81410A14206D8B8F81610A14234BF9E
:1031F0000021012100E0002131B95FFA89F002913C
:103200000FF088FD029904465FFA89F003280BD875
:1032100051B934494FF0010E91F82C000EFA09FE15
:1032200020EA0E0081F82C000FF068FDC0B92D498E
:1032300027F80A4091F8760020B9022E10D9012013
:1032400081F8760079883C880C44B9880C442D4973
:10325000A4B22BF8014024B2032194FBF1F4A4B2F0
:10326000294909F101092BF8014006370BF1020B3E
:10327000A5E71C4B254993F82C20B2F10F077A42A1
:103280007A4183F89020224B6AB1224A1268560193
:1032900009D40A68D9689A60521AC82A3ED901220C
:1032A00083F821203AE013480968D96000220270AF
:1032B00098685B68091A994288BF154B4FF0000463
:1032C00088BF83F82120AC4228DAE0B20FF022FD5B
:1032D0000D4B23F814000134F5E700BFF41600206D
:1032E0002007002040190020AC050020641C0020AD
:1032F00020000020A0050020A80500206E19002055
:1033000048190020B8190020D80F0020BC43002025
:10331000941100200C100020B0050020884A13688A
:10332000DC0405D5874B1B68D80701D40CF048FE98
:10333000854B1A68937A2BB3013B8449127B31F891
:1033400013301AB1C3F53B6308339BB21BB2A3F52C
:103350007A73B3F57A7FA8BF4FF47A7323EAE373E5
:1033600007EE903AB8EEE77ADFED797A794BC7EE5F
:10337000277A9FED797A67EE877AFCEEE77A17EE87
:10338000902A1A806E48754D036813F4807F00F010
:1033900000817349734B0A68734C9A4203D9A3782E
:1033A0000BB90123A370A378002B00F0F2806E4BC1
:1033B0002F7893F82160634B711E4E424E411A687C
:1033C000002EC7F38007C2F3806899460CBF4FF008
:1033D000030A4FF0000A94F82030052B00F2D38046
:1033E000DFE803F0034D5274819A002F3AD05F4B0F
:1033F00018685F4B19880FF09DFB012809D15D4BC0
:103400001A685D4BD3F89430DB88642101FB0323F9
:103410002361B8F1000F0DD0574BD3F894301B79CE
:1034200043B10CF0ADFA032384F820304FF47A73E3
:10343000E361D0E7002E40F0A6804E4BDFF828B1C4
:103440001A6823699A4209D90CF09AFA03238BF877
:10345000203040F6B833CBF81C30BCE701238BF8A2
:103460002030B8E74FF48060B8F1000F02D004F0CC
:103470008BFF01E004F098FF0023236183E0002E1E
:1034800042D10CF07DFAA6E726B1052384F820305E
:10349000012100E031466FB1344B1B68DA892B4BB8
:1034A0001A805A809A80344AD2F894205288DA805E
:1034B0004FF0020A2F4B1A6863699A4201D8002F15
:1034C0005ED147F23053E36103231EE02B7843F0D3
:1034D00002032B700CF074FD264B1A68E369134449
:1034E000A361042311E0234B1A688EB1A3699A42A9
:1034F00049D9224B1B781BB9D9F80030DA0742D4DE
:103500002B7823F002032B70052384F8203062E728
:10351000E3691344A36136E0164B1A68164BD3F8DF
:103520009430DB88642101FB032323614FF4806026
:10353000002384F82030E37004F036FF4BE700BF2F
:10354000AC0500200C100020B0050020D80F002092
:1035500000007A44661C002000C07F44031700204E
:10356000F4160020404B4C0094110020E418002079
:10357000E8180020BC430020401900201100002062
:1035800000297FF428AFBAF1000F02D0504604F0B2
:10359000C1FE8E4E06F5C570B6F852110FF0CAFA8C
:1035A000804678B905F0D2FA894B0022C3F898809A
:1035B000C3F89C80C3F8A080C3F8A420C3F8A82057
:1035C000C3F8AC202B785B0741D582480368DF063F
:1035D0003DD5814B1B78DC0639D4804B7C4C1F7861
:1035E0008FB196F8E231B8F1000F16D173B17C4B70
:1035F0001A68D4F8B0309B1A002B07DA0CF0E0FC04
:1036000084F8B48023E0B8F1000F19D1102004F041
:1036100081FE012384F8B43019E03BB1704A12688E
:103620004FF47A7101FB0323C4F8B03094F8B4303E
:103630006BB104F055FE664B002283F8B42006E01F
:1036400094F8B4301BB104F04BFE84F8B47000223F
:1036500096F8E09196F8E111B6F89A71B6F89CE107
:103660001346604C105F9B08B842C4BF63F07F03F1
:10367000DBB202327045B8BF43F04003082AF0D1F4
:10368000534C94F8B5209A4205D194F8B620F92A03
:1036900004D8013200E0002284F8B62084F8B53066
:1036A0004E4B514F1A789B46DAB93B68D80708D57C
:1036B000B8F1000F15D12B78DA0712D50EF0B6FA53
:1036C0000FE02B785B070CD5484B1B784BB1484B70
:1036D000DB7833B911B10CF073FC02E0B8F1000FE4
:1036E000F9D094F8B620DFF8E8A0DFF81C81142A9E
:1036F00040F09C809BF8002019F1000918BF4FF0A2
:103700000109C2B19AF8B5205F2A04D0B9F1000FBF
:1037100011D07D2A0FD12A7802F0040202F0FF01B5
:1037200012B10CF04DFC06E00B20029104F0F2FD0A
:1037300002998AF8B6102B7803F0040303F0FF0017
:10374000002B73D194F8B530214A572B11D1294B56
:1037500020494FF47A721A800B68180601D50CF0D4
:1037600091FF254B1B6813F008035FD1234A138098
:103770005CE018490968490715D55A2B13D1204B2D
:10378000197819B1187001221E4B1DE092F8B7305C
:1037900083F0010382F8B7300BB10C2000E00D205C
:1037A00004F0B8FD42E05D2B00F050855B2B00F08B
:1037B0004F855E2B2AD100F04DBDA72B40F02D8503
:1037C000054B1A7842F004021A702FE060070020BF
:1037D00040190020AC0500205507002011000020F2
:1037E000BC430020D80F00200C100020A0050020B2
:1037F0009411002000170020580700207C0F0020A3
:10380000310F0020320F0020940E0020562B03D1E0
:10381000029309F0CFFC029B9BF80020002A00F0E5
:10382000F3846F2B40F0EA840EF000FAA74A136885
:103830005B0731D594F8B7309BB12B785C0710D576
:10384000A34BB3F90620B6F89A319A4209DD3B68DA
:1038500013F0010305D19F4A322111809E4A82F85C
:10386000B7303B68D8030AD59C4B1A782AB99C4AD2
:10387000127812B9974A3221118001220BE0984B3D
:103880001A784AB12A7802F0040202F0FF011AB94C
:103890001970944B01221A70D8F80090002309F196
:1038A000790B3B6009F17B0498460BF1020303EBB3
:1038B000080113F808204B7814F8010C9A420AD238
:1038C00021460CF038F830B114F8023C01229A403D
:1038D0003B6813433B6008F10408B8F1500F04F152
:1038E0000404E2D1804B1F7857B1804FDFF8149267
:1038F0003B68DFF8148213F0020F40F043833AE391
:1039000009F1C90B09F1CA040BF10103D919DA5DF8
:103910004B7814F8010C9A4229D221460CF00BF88E
:1039200028B394F802E0724B207994F803900EF1DA
:10393000FF3E0EEB4E0E9E44674B4FF00C0C03F116
:10394000B8080CFB00FC08EB0C014A6872450ED06D
:10395000002208F80C908A60012202FA00F093F825
:10396000E820C1F804E022EA000083F8E800063706
:10397000482F04F10604C7D15E4BDFF890911C6814
:103980005D4BD3F800B05D4B1B7803934FF00008FC
:10399000D9F80030002B00F0E5821F78002F00F0EE
:1039A000E182D9F80420C2EB0B02002A0DDB0BF5F3
:1039B000FA72C9F80420484A012192F8E80001FA95
:1039C00008F120EA010182F8E810039A002A00F0C9
:1039D000C98219F8041C58783F4A0431C9B200283A
:1039E00040F07E823A4830F91110B6F8980100F1A3
:1039F000C80E714502DD93F802A014E0C838814278
:103A000003DA9B78C3F1000A0DE092F8E810012375
:103A100003FA08F321EA030382F8E8300BF5FA739E
:103A2000C9F804309EE292F8E83043FA08F3D90767
:103A300000F19882BAF1000FCCBF0220012004F0FF
:103A40008BFC7B1E132B00F28482DFE813F0140042
:103A500021002E00610079008000E6004801AE01DF
:103A6000DE011702820261006F008000E60048015B
:103A7000B6001A017E0127785744FA2FA8BFFA270B
:103A800027EAE7772046277004F088FA01201AE039
:103A900067785744642FA8BF642727EAE777204652
:103AA000677004F07BFA02200DE0E778144B57446E
:103AB000642FA8BF642727EAE777E77020461968D4
:103AC00004F026FA03203946CCE100BFAC05002003
:103AD000D80F0020180F002040190020300F0020C0
:103AE000310F0020320F0020021700200C100020A0
:103AF000BC8A0108A8100020BC430020A0050020BB
:103B00001C1C00205807002010100020FC19002069
:103B1000617951446429A8BF642121EAE17161718E
:103B20000D2005F0EFFC0D2F00F013822179514498
:103B30006429A8BF642121EAE17121710E2091E17D
:103B4000A179514481F30801A17105208AE1C74B95
:103B50001B681A78022A22D107EE90AAB8EEE70A6B
:103B6000F2EE047A80EE270AD3ED097A30EE270AC6
:103B7000B5EEC00AF1EE10FA09D4DFEDBD7AB4EE6D
:103B8000670AF1EE10FAC8BFB0EE670A01E09FEDD8
:103B9000B90A83ED090A0F2005F0C8FC0AE09978FC
:103BA0005144C829A8BFC82121EAE17199700F20AA
:103BB00005F0A8FC0F2F00F0CC81AC4B1B681A78E5
:103BC000022A20D107EE90AAB8EEE70AF2EE047AB4
:103BD00080EE270AD3ED087A30EE270AB5EEC00A48
:103BE000F1EE10FA09D4DFEDA27AB4EE670AF1EE35
:103BF00010FAC8BFB0EE670A01E09FED9E0A83EDA0
:103C0000080A12205FE159785144C829A8BFC82189
:103C100021EAE1715970122024E1944B1B681A7853
:103C2000022A20D107EE90AAB8EEE70ADFED907ADB
:103C300093ED0C7A80EE270A30EE070AB5EEC00A43
:103C4000F1EE10FA07D4B4EE670AF1EE10FAC8BF2D
:103C5000B0EE670A01E09FED870A83ED0C0A1020A1
:103C600005F064FC0AE0197B5144C829A8BFC821AB
:103C700021EAE1711973102005F044FC102F00F0C7
:103C800068817A4B1B681A78022A1ED107EE90AA27
:103C9000B8EEE70ADFED767A93ED0B7A80EE270A2D
:103CA00030EE070AB5EEC00AF1EE10FA07D4B4EE12
:103CB000670AF1EE10FAC8BFB0EE670A01E09FEDA7
:103CC0006D0A83ED0B0A1320FDE0D97A5144C8290F
:103CD000A8BFC82121EAE171D9721320C2E0634B69
:103CE0001B681A78022A22D107EE90AAB8EEE70ADA
:103CF000DFED617A80EE270AD3ED0F7A30EE270AE6
:103D0000B5EEC00AF1EE10FA09D4DFED597AB4EE3F
:103D1000670AF1EE10FAC8BFB0EE670A01E09FED46
:103D2000550A83ED0F0A112005F000FC0AE0997D89
:103D30005144C829A8BFC82121EAE1719975112011
:103D400005F0E0FB112F00F00481484B1B681A7846
:103D5000022A20D107EE90AAB8EEE70ADFED467AF4
:103D600080EE270AD3ED0E7A30EE270AB5EEC00AB0
:103D7000F1EE10FA09D4DFED3E7AB4EE670AF1EE07
:103D800010FAC8BFB0EE670A01E09FED3A0A83ED72
:103D90000E0A142097E0597D5144C829A8BFC821B4
:103DA00021EAE171597514205CE0304B1B681A78E8
:103DB000022A20D107EE90AAB8EEE70AF2EE047AC2
:103DC00080EE270AD3ED0A7A30EE270AB5EEC00A54
:103DD000F1EE10FA09D4DFED267AB4EE670AF1EEBF
:103DE00010FAC8BFB0EE670A01E09FED220A83ED2A
:103DF0000A0A092067E0D9785144C829A8BFC82118
:103E000021EAE171D97009202CE0184B1B681A785F
:103E1000022A1ED107EE90AAB8EEE70ADFED147A67
:103E200093ED0D7A80EE270A30EE070AB5EEC00A50
:103E3000F1EE10FA07D4B4EE670AF1EE10FAC8BF3B
:103E4000B0EE670A01E09FED0B0A83ED0D0A0A2030
:103E500039E0597B5144C829A8BFC82121EAE17142
:103E600059730A2005F04EFB73E000BF201C0020B0
:103E70000000C8420000000000007A44B34B1B68F9
:103E80001A78022A22D107EE90AAB8EEE70ADFEDEF
:103E9000B07A80EE270AD3ED107A30EE270AB5EE1D
:103EA000C00AF1EE10FA09D4DFEDAA7AB4EE670A7F
:103EB000F1EE10FAC8BFB0EE670A01E09FEDA60A66
:103EC00083ED100A0B2005F031FB42E0D97D51440F
:103ED000C829A8BFC82121EAE171D9750B20C1E723
:103EE000012836D198789D4B33F91110B1F5617FD7
:103EF00005DB40F633039942B8BF0B4601E04FF4AF
:103F000061730C2F25D14FF4966191FBF0F1A3F56D
:103F1000617393FBF1F392F8E9105FFA83FA51456C
:103F200017D0BAF1030F94BF5146022182F8E9106D
:103F30008B4A07FB016101F2F261116004F048F85D
:103F40003846514605F0DEFA0AF10100C0B204F02D
:103F500003FA844B012293F8E81002FA08F20A43AC
:103F600083F8E82008F10108B8F1040F09F10C0901
:103F70007FF40EADB9E47C480368DA0511D57B4BBC
:103F8000DB7873B1D9F800309B070AD5B8F8003058
:103F900013F001040AD104F0D9FD012004F0F4F972
:103FA00004E0012004F000FA012300E000233A6855
:103FB00054070DD563B1012004F0F6F9B8F80030CC
:103FC000980708D404F0C2FD022004F0DDF902E0F5
:103FD000022004F0E9F9B8F80040654B14F0030F33
:103FE0004FF4004214BF5A831A83D9F8003099065F
:103FF00008D43B681A0540F1D5804FF4807004F076
:10400000C3F9D3E05B4B1B789B0767D55A4B1B78F2
:10401000042B63D93B6813F4007904F010040DD02D
:10402000002C4ED1102004F0AFF9202004F0BCF990
:104030005248011D05F000FA02223EE0A4B234B15C
:10404000102004F0B1F94E4B012483F800903B6836
:1040500058052AD54B4B1B685A894B4BB3F90010B6
:104060000029B8BF4942914209DAB3F90230002B66
:10407000B8BF5B429342ACBF0023012300E00023A2
:104080009BB1B8F8003099061CD4202004F07CF9CC
:104090003E483F4B011D1A685B684360026005F0B3
:1040A000CBF9374B01241C700CE0B8F800309A06AD
:1040B00008D5202004F078F90022314B01241A7031
:1040C00000E00024DFF89C8098F8EA309BB90E20CD
:1040D00004F020F9012388F8EA300CE014F0300FE6
:1040E00087D0102004F060F9202004F05DF9244B03
:1040F00000221A7002E0002C3FF47BAF002213462E
:104100002448254C0021195224481952244804EB14
:10411000020E19520020CEF80000CEF80410CEF89E
:10412000080004F1280E5034964414440233042B42
:10413000CEF80000CEF80410CEF8080020606160D0
:10414000A06002F11402DBD153E700BF201C002065
:1041500000007A440000C84200000000D80F002090
:10416000A810002040190020AC0500209411002068
:10417000000C02405507002054070020281C002096
:104180003C1C00209C1000208E100020341C0020BD
:10419000041D0020F81600202C1A0020A01000207A
:1041A000A41000204FF4807004F0FEF87379082BFF
:1041B00001D00E2B02D1402004F0F6F83D490B68E7
:1041C0005B0573D596F818321BB92B7813F0040FE2
:1041D00002E03B6813F4002F0BD0374B002283F82A
:1041E00064213C200DF0C8FB00285FD003F02AFEBC
:1041F000F7E70FF0E3FA0FF0A3FA57E0B9F1000F79
:1042000002D07E2B3FF410AB972B7FF4D6AA2B4B1A
:104210004FF4C8721A80FFF709BB0022BB2B07922C
:1042200001D1022303E0B72B04D14FF6FE73ADF8A2
:104230001E301FE0BE2B01D1022304E0BD2B7FF412
:10424000F5AA4FF6FE73ADF81C3013E0012002E032
:10425000022000E003205FFA80F909F1FF3386F8BD
:10426000F03607F0ABFA0AF019F9484604F074F892
:10427000FFF7DCBAD8F80030BDF81C10B3F85820AE
:104280000A44A3F85820BDF81E10B3F85A200A4477
:10429000A3F85A2007F092FA0AF000F9012004F07E
:1042A0005BF8002384F8B630FFF7C0BA09B0BDE868
:1042B000F08F00BFAC05002040190020060F002041
:1042C0002DE9F04FCA4ACB4BD2F800E0B3F9060013
:1042D000BEF80A302DED028B984285B00FDBB0F5A9
:1042E000FA6F9EF8077007DAC21A5743A3F5FA630C
:1042F00097FBF3F7643703E0C7F1640700E0642736
:10430000BD4BB3F898210292BC4A93F96231D2F8BE
:1043100000C09BB20021039364460A46B54B029D40
:1043200031F903B0C5EB0B0303F2F31640F2E635A7
:10433000AE4203D8002BB8BF5B4201E04FF4FA73E2
:10434000022A4FF06406AE4D2ED09CF81181B8F1D0
:10435000000F04D04345CCBFC8EB0303002393FBFD
:10436000F6F86FF0630A35F818900AFB083A08F17E
:10437000010835F918800FFA89F5C5EB080505FB2A
:104380000AF595FBF6F5A9449E4D21F805900EEB34
:1043900002052D796B439C4D93FBF5F364339BB27F
:1043A0007B4393FBF6F630E09CF81281B8F1000FE6
:1043B00004D04345CCBFC8EB0303002393FBF6F6C0
:1043C0006FF0630905EB460809FB063A05EB460664
:1043D000B8F90E80B6F910508A4EC8EB050505FBFA
:1043E0000AFA9AFBF9FA039DC8EB0A0808FB05F8DC
:1043F000A6F804809EF8065083EAE376A6EBE376FF
:104400006E43814D96FBF5F664360CEB02087C4B4F
:1044100098F8019003F11C054FF0640806FB09F9B8
:1044200099FBF8F902F8059094F80B9003F11F0539
:1044300006FB09F999FBF8F902F8059094F8159034
:1044400003F1220506FB09F6022A96FBF8F65655FB
:104450001D4616BF253383F82780D754029B694E2B
:104460009B4502DA735A5B4273520231062902F10C
:10447000010204F101047FF451AF5F4CB4F89A31AA
:10448000984205DBB0F5FA6FA8BF4FF4FA6000E080
:104490001846C01A4FF47A725043C3F5FA63B0FB62
:1044A000F3F34FF0640E93FBFEF205EB42016FF065
:1044B000630000FB023305EB4202098DB2F92A00CA
:1044C000504F0AB2821A534393FBFEFE4F4B1B8898
:1044D0007144F180590636D54D4BDFED4E7A1A887E
:1044E000474BB3F84030D31A1BB208EE903AF8EEBF
:1044F000E88A68EEA78AB0EE680A0BF0FFFFB0EE1C
:10450000408AB0EE680A0BF096FFB7F90220B7F9BF
:10451000003006EE902A07EE903AF8EEE66AF8EEE2
:10452000E77A20EE667AA7EE887A67EE807ABDEEAB
:10453000C77AE6EE887A17EE103AFDEEE77A3B800E
:1045400017EE903A7B80344B1A6812F0020F9A46AD
:1045500000F09680314B6A6C1B68294F9A1A45F21D
:1045600007218A4240F38C807B6406F08DFB2C4B44
:10457000DFF8B8801A78032A9946B8F8003022D1BB
:104580000A2B2CD90023282089F8003003F027FFBC
:1045900006F07AFBB7F8480003F06AFB214B22498A
:1045A0001B68DA7890FBF2F0421C082A28BF082228
:1045B0000A7059791B7992B251435A43A7F84A10AD
:1045C000A7F84C200BE00A2B09D80323164A89F8D8
:1045D000003000231370A7F84A30A7F84C3099F840
:1045E00000200F4B012A2DD022D3022A3ED047E0D3
:1045F000A8100020D80F002060070020940E002093
:10460000A81A00208E1000200CFEFFFF10100020C2
:104610007C0F002035FA8E3CAC050020F4160020FB
:10462000481D0020E81C002029000020EC1C002070
:10463000B5F84A20B8F800309A4221DD012389F804
:10464000003011E0B8F80020B5F84C10914202DDBE
:1046500002221A7011E09E49B1F84A1001318A42D3
:1046600002DD00221A700BE0082007E0B5F84C309C
:10467000B8F8002001339A42E0DC072003F04AFE3C
:10468000DAF800703A0574D5924B296D1A68904B90
:10469000C1EB020B45F207218B456ADD8E48B6F966
:1046A0000690D0F800801A6598F80A00B4F8521104
:1046B0008A4E4FF47A7201289BFBF2FBA9F57A79B6
:1046C00003D03FD302281CD03EE0586D082190FB58
:1046D000F1FECEEB000090FBF1F14FF0000E5865BB
:1046E000A3F858E089B2B8F8083040F6E4404143F6
:1046F000C3EB1131B8F906304A4392FBF3F2326052
:1047000022E0774BB8F808A01B78C6F800A05B073A
:104710001AD574480EF00EFA20B917F0100F18BF12
:104720004FF0000909FB09F2322392FBF3F399449D
:10473000B8F906304FF47A7203FB09F393FBF2F3F6
:10474000534400E0002333603368674AD5E9180119
:1047500003FB0BFB4FF47A739BFBF3FB10EB0B009B
:1047600041EBEB710023C5E918010FF063FB5F4BD0
:1047700018605F4B1A6812F4805F984626D03F0697
:1047800021D55C4B1B789E071DD55B4B19780429FE
:1047900019D90023594E05229A551E44981C0A2700
:1047A000122BC2B2777004D0B1EB520F0346F1D88E
:1047B00000E014222A44322382F86730FF2382F873
:1047C00068300F2000E00A2003F0A4FDD5F88070C7
:1047D0003F4E002F46D04A4BD6F8842019688A42B3
:1047E0009A463FD896F88830B6F88A907A68ABB97E
:1047F000012386F8883012F80920CAB186F88C3077
:1048000003F048FDB9F1000F12D13B78053B012BB5
:104810000ED803F010FCC6F8900009E0002386F8DB
:10482000883012F809201AB186F88C3003F032FD76
:10483000B5F88A107A68264B525CFE2A03D1002212
:10484000A3F88A200EE0FF2A02D103F049FD09E017
:10485000DAF800000A2616FB02020131C3F88420B0
:10486000A3F88A101E4E3278500704D5254B4FF41A
:1048700080425A835DE0D8F80030D9075CBF42F02F
:10488000010232701B4A1278120703D4327822F0E8
:1048900001023270DF0203D5337823F00103337055
:1048A000194B1B881BB1194B1B68980705D4184B73
:1048B0001B88003318BF012300E0012353B30223F8
:1048C00085F88C30337823F00103337028E000BF83
:1048D000A81A0020F4160020E81C0020F41C002078
:1048E00003170020EA080020407E0500F81C002085
:1048F0000C1000205507002054070020101B00203A
:10490000BC430020000C0240060F00205807002086
:10491000001700203278D10758BF022385F88C3069
:1049200003F089FBD5F89430C01A002801DB03F0AE
:10493000B1FC0EF043FFC04B1A78002A78D0D5F8AE
:104940009830002B00F06386D5F89800BB4C03F03C
:10495000C5FD002800F05B86D4F8980003F0B9FD8F
:10496000092801D03F2855D14FF00008D5F89C60A8
:10497000B34F44462EB1B3483968324610F0BAF905
:1049800010B9B84604B93C46AF4B10379F42F1D33B
:1049900004B3D4F800E0D8F800C0D5F89C30A7489C
:1049A0001EF803701CF80310B94213D15A1C59B9F0
:1049B0002D2B09D8C0F89C2003440244202783F8FB
:1049C000A07082F8A01005E02B44C5F89C2083F865
:1049D000A070E2E7D5F89C300BB1444510D09B485D
:1049E00003F0DEFD444507D854F8100B03F0D8FD62
:1049F000092003F0CEFDF5E7954803F0D1FD002630
:104A0000D5F89C309E429FD28E4B985D03F0C1FD3D
:104A10000136F5E7D4F89C30002B40F024860428BA
:104A200040F01B8604F1A0000EF04CF900F0EFBD41
:104A3000884F97F84A30012B40F0E485DFF8348244
:104A4000854B3A68C8F800701A60C246DFF80892D1
:104A50004A46106803F042FD002800F0C185D9F8ED
:104A6000000003F036FDDAF8003093F84810834672
:104A700019B924283FD101223AE0012904D14D2857
:104A80000CBF0222002233E0022904D13C280CBFD3
:104A9000032200222CE003290CD140284FF0000112
:104AA00002D983F848104DE058711971D971987185
:104AB00004221DE0042907D1997983F8490080EA8E
:104AC00001029A71052213E005293BD15879197921
:104AD0008842987908D98BEA00009871481C1871AF
:104AE0000B4483F808B02DE058450CBF0622002285
:104AF00083F8482026E03178584B4A0722D4BBF18E
:104B0000230FD9F8001012D14B4AC5F89810012094
:104B100010705348C5F86811019303F041FD4C48EB
:104B200003F03EFD019B197841F002011970D5F8A0
:104B30006C311B785B4505D14A4B4B4A1A604B4B95
:104B40004B4ADA60DAF80030DFF8289193F8482011
:104B5000062A7FF47BAF93F8490000F03BFE002863
:104B600040F03485D9F8002092F849304E2B00F0FF
:104B7000B18400F29580372B00F0EA8421D8292BEC
:104B800000F0748409D8252B00F03584272B00F021
:104B90004F84232B40F05E85E3E02D2B00F07784DB
:104BA00007D82B2B40F0568503F01EF9607100F0FA
:104BB0000ABD332B00F0BA84352B00F0478200F099
:104BC00049BD412B00F0B7840AD83C2B00F010817E
:104BD0003E2B00F00081392B40F03C8500F035BCC5
:104BE000442B00F0ED8447D8432B40F0338503F08D
:104BF000FBF80023A360607103F00AF9A36818436F
:104C0000A06003F0F1F884F8920103F0F7F8A4F83B
:104C10005C0103F0F3F8A4F85E0103F0EFF8A4F8E8
:104C2000600103F0EBF8A4F8820103F0E7F8A4F8C0
:104C3000840100F0C8BC00BF02170020A81A0020A1
:104C4000F88A0108481B0020888C0108F48E0108AE
:104C5000F98E0108781B0020A41D002003170020F6
:104C6000298F0108FCFF0120EFBEADDE00ED00E062
:104C70000400FA05A01D00204A2B00F0B5804C2B43
:104C800040F0E88403F0B0F884F8D80103F0ACF801
:104C900084F8D90103F0B2F8A4F8DA0100F093BC6B
:104CA000D12B00F06B831AD8CC2B00F00B8209D8E3
:104CB000C92B00F03B83CA2B00F0A880C82B40F022
:104CC000C98444E0CE2B00F02383C0F01883CF2B9F
:104CD00000F04C82D02B00F0078300F0BBBCD62B39
:104CE00000F07E8207D8D32B2BD017D3D42B00F023
:104CF000838200F0AFBCEF2B5ED007D8D82B08BF63
:104D00004FF0000A00F0158100F0A4BCF22B00F077
:104D1000C382FA2B00F0068300F09CBC337803F0CA
:104D2000040303F0FF09002B40F04D8403F05CF80E
:104D3000022884F8F00640F2DD82D94B83F8F09621
:104D4000D8E203F05BF8A5F8700100F03CBC92F8E3
:104D500005A04FEA5A0ABAF1120F1CD84FF0000909
:104D60001DE003F041F8132815D8DFF844A3DAF862
:104D7000003000F11E0B03EB8B0B03F035F8C94B31
:104D80000BF1010903F5A872197A814200F03F8105
:104D90000C339342F8D10CF0EBFD00F014BCD1457C
:104DA00007D203F02BF8C04B23F8190009F10109D1
:104DB000F5E70122BD4BB3E2DFF8F492D9F800A089
:104DC00003F01CF8AAF85A00D9F8009003F016F87E
:104DD000A9F85800F7E303F007F884F8E20103F0BC
:104DE00003F884F8E101EEE303F008F8A081EAE3B8
:104DF000DFF8BC92D9F800A002F0F6FF8AF80000B4
:104E0000D9F80030187803F06BFEDCE3A84B1A6881
:104E10001278022A4FF0000A99466FD1D9F800B0F3
:104E200002F0E2FF07EE100AF8EE477AB2EE048ACB
:104E3000C7EE887A0BEB8A03D9F800B0C3ED087A85
:104E400002F0D2FF07EE900AB8EE677ADFED997AAA
:104E5000C7EE277A0BEB8A03D9F800B0C3ED0B7AC3
:104E600002F0C2FF07EE900AB8EE677ADFED927AA1
:104E7000C7EE277A0BEB8A030AF1010ABAF1030F96
:104E8000C3ED0E7ACAD1BAF1070FD9F800B01CD120
:104E900002F0AAFF07EE100AF8EE477AC7EE887A0A
:104EA000CBED117AD9F800B002F09EFF07EE100AA0
:104EB000F8EE477AC7EE887ACBED127AD9F800B0CF
:104EC00002F092FF8BF84C0012E002F08DFF0BEB2A
:104ED0000A035870D9F800B002F086FF0BEB0A0302
:104EE000D9F800B0D87202F07FFF0BEB0A035875B7
:104EF0000AF1010ABAF10A0FC5D164E3D9F800B08A
:104F000002F072FF0BEB0A035870D9F800B002F000
:104F10006BFF0BEB0A03D9F800B0D87202F064FF04
:104F20000BEB0A030AF1010ABAF10A0F5875E5D131
:104F300049E3DFF87C919FED608AD9F800B002F078
:104F40005DFF07EE100AF8EE477A0BEB8A03C7EE17
:104F5000887AD9F800B0C3ED087A02F04FFF07EE67
:104F6000100AF8EE477A0BEB8A03C7EE887AD9F875
:104F700000B0C3ED0B7A02F041FF07EE100AF8EE25
:104F8000477A0BEB8A03C7EE887A0AF1010ABAF175
:104F9000030FC3ED0E7ACCD1BAF1070FD9F800B0E8
:104FA0001CD102F02BFF07EE100AF8EE477AC7EE8D
:104FB000887ACBED117AD9F800B002F01FFF07EE26
:104FC000100AF8EE477AC7EE887ACBED127AD9F854
:104FD00000B002F013FF8BF84C0012E002F00EFF5D
:104FE0000BEB0A035870D9F800B002F007FF0BEB87
:104FF0000A03D9F800B0D87202F000FF0BEB0A03E5
:1050000058750AF1010ABAF10A0FC5D1DBE21B7823
:105010008BF8013002F0E8FE89F8010002F0E4FEAE
:1050200089F8020002F0E0FE89F80300DAF80000D7
:10503000224BC5F8780100217930C5F8743102F0AF
:10504000E9FF1F4B80F001001870BCE202F0CCFEBB
:105050000B283FF6A0AE164B4FF0060A0AFB00F0F5
:105060001B68C83003EB000A02F0BEFE03283FF6BF
:1050700092AE8AF8060002F0B7FE8AF8010002F04C
:10508000B3FE8AF8020002F0AFFE8AF8030002F0D5
:10509000ABFE8AF8040002F0A7FE8AF8050092E24F
:1050A00060070020888C0108D80F00200507002029
:1050B000940E00200000C84200007A44A40800209A
:1050C000110000205379092B7FF665AECD4AD2F846
:1050D00000A002F089FECB4B8AF80000D3F800A0B4
:1050E00002F082FE8AF8010002F07EFEC54A1368D3
:1050F0006428A8BF6420187102F076FEC14A1368C4
:105100006428A8BF6420587102F06EFEBD4A13687F
:10511000FF28A8BFFF20987102F066FEB94BD3F8B4
:1051200000A0642828BF64208AF8070002F05CFE13
:10513000B44A8AF80200D2F800A002F055FEB14B42
:105140008AF80300D3F800A002F058FED9F8003026
:10515000AAF80A005B790A2B40F23582A94BD3F8F2
:10516000009002F041FE89F808002CE202F046FEB1
:105170006FF4AF6E00EB0E039BB2C62B98BFA4F882
:10518000980102F03BFEA4F8440102F037FEA4F8B7
:10519000460102F033FEA4F8480102F02FFEA4F805
:1051A000DA0102F021FE84F8EF0102F01DFE02F0A8
:1051B0001BFE84F8F00102F017FE84F8870102F06C
:1051C00013FE84F8940102F00FFE8F4BD3F8009089
:1051D00002F014FE00EB80004000A9F8560034E114
:1051E000814602F00BFE894B23F8090009F1020900
:1051F000B9F1100FF5D1E6E153790F2B7FF4CBAD68
:1052000002F0F2FD072881463FF6C5ADDFF8F8A1B0
:10521000DAF800B002F0F2FD0E2303FB09F90BEB04
:105220000903DAF800B0A3F8190102F0E7FD0BEB6F
:105230000903DAF800B0A3F81B0102F0DFFD0BEB65
:105240000903DAF800B0A3F81D0102F0CDFD0BEB65
:105250000903DAF800B083F81F0102F0C5FD0BEB7B
:105260000903DAF800B083F8200102F0BDFD0BEB72
:105270000903DAF800B083F8210102F0B5FD0BEB69
:105280000903DAF800A083F8220102F0C1FD0AEB5D
:105290000903C3F8230196E102F0A6FD0F28814619
:1052A0003FF679AD02F0A0FDC9EBC909A14489F828
:1052B000D40002F099FD89F8D50002F095FD89F837
:1052C000D60002F091FD89F8D70002F08DFD89F833
:1052D000D80002F089FD89F8D90002F085FD89F82F
:1052E000DA0003F061FB6EE13378590700F16B815E
:1052F00008F0B2FA06F062FA09F0D0F863E1337808
:105300005A0700F16081424B4FF4C8721A805AE18B
:1053100033785B0700F157813E4B1A7842F0040264
:105320001A7050E133785807E4D593E102F05CFD40
:10533000384B1A7810B142F0020201E022F002026A
:105340001A7002F051FD344BDFF8E090187002F053
:105350005FFDC9F8000002F05BFDC9F8040002F02F
:105360004DFD2E4B188002F049FD2D4B188095F80D
:105370007C3143F0020385F87C3124E102F034FDF6
:10538000019002F045FD834602F042FD824602F0A4
:105390003FFD814602F032FD02F030FD02F024FDB7
:1053A000019B9BB91020C5F880B1C5F884A102F01B
:1053B000FBFF184B1A7842F001021A70B9F1000F86
:1053C00000F00181174BC3F88891FCE0102B40F0EE
:1053D000FA80C5F88CB1C5F890A1B9F1000F02D0E0
:1053E000104BC3F8889110480223011D85F89431B1
:1053F00004F022F8E7E0A06002F00AFDA368184379
:10540000A060E0E0A8100020940E0020C61100204B
:10541000060F00205507002054070020FE1C002026
:10542000FC1C0020A81A0020341C0020041D0020B1
:1054300002F0E4FCA4F85C0102F0E0FCA4F85E01D8
:1054400002F0DCFCA4F86001BDE002F0CDFC84F8C1
:105450007C0102F0C9FC84F8800102F0C5FC84F8EC
:105460007F0102F0C1FC84F88101ACE002F0C6FCCF
:10547000A4F8820102F0C2FCA4F8840102F0B4FC9A
:1054800084F8860102F0BAFCA4F888019BE002F0DF
:10549000ABFC84F8920102F0B1FCA4F89C0102F08C
:1054A000ADFCA4F8980102F0A9FCA4F89A0102F05E
:1054B0009BFCD9F8003084F893015B79082B40F20B
:1054C000828002F09BFCA4F89E0102F097FCA4F8F5
:1054D000A00178E092F805B00323BBFBF3FBBBF11E
:1054E000120F3FF658ACDFF8E8928246DA456AD2EE
:1054F00002F07AFC89F8A20102F080FC40F2ED2370
:10550000984205DD40F6CA039842A8BF184601E05C
:1055100040F2EE20A0F2EE20192390FBF3F089F880
:10552000A3010AF1010A09F10209DFE702F05CFCBC
:1055300084F8940147E0814602F056FC04EB09032D
:1055400009F10109B9F1080F83F88A01F4D13AE0B1
:1055500053794FF0070AB3FBFAFACAEBCA029B1A57
:1055600013F0FF0F7FF417AC5FFA8AFABAF1000F5D
:1055700029D002F039FC5FFA80FB4FFA8BF002F081
:1055800081FC0AF1FF3A5FFA8AFA814600283FF46B
:1055900002AC80F800B002F031FCA9F8020002F081
:1055A00023FC89F8040002F01FFC89F8050002F0D2
:1055B0001BFC89F8070002F017FC89F80600D5E704
:1055C000012385F89531002002F0CEFFD8F8003095
:1055D000987902F09AFFD8F80030002283F848202A
:1055E00095F8953173B1386802F05EFF18B9322032
:1055F00002F0F5FEF7E70DF027FB02F02DFF604B00
:10560000604ADA60604B4C379F427FF412AA5F4BCE
:105610001B68990616D55E4BD5F898211B689A1A17
:10562000002A0FDB5B4A1278042A0BD95A4A03F589
:10563000123303F5F873C2F89831584B5A6982F463
:1056400000425A61564B9B68002B00F093805548EE
:1056500098478FE00CF08CF9B8E70C2825D1524818
:1056600002F09EFF1FE00C28F9D00A2821D14A4CF5
:105670004E4804F1A00602F093FF304623210FF0BC
:1056800024FB10B1801BC4F89C00D5F89C30BBBB38
:1056900030224748C5F89C3000210FF0E3FA454A14
:1056A0001378002BB3D044480FE07F2814D1FFF7C4
:1056B0004BB90D28DBD07F280BD1013BC4F89C30BF
:1056C000234400223D4883F8A02002F069FFFFF741
:1056D0003BB92F2B3FF638A9A0F12002D2B25E2AA7
:1056E0003FF632A913B920283FF42EA95A1C2B44A7
:1056F000C5F89C2083F8A00002F04BFFFFF724B907
:10570000591E254A705C202801D10B46BFE7C2F81C
:105710009C301344002283F8A020294B294CD3F855
:1057200000A0D4F80090DFF8708048460FF0DAFA55
:1057300008F1A00706464946384632460FF0DAFA25
:10574000214B38B908EB060292F8A0205244527857
:10575000520703D010349C42E3D306E09C4204D2AB
:10576000701CE3683844984702E0184802F018FFBC
:1057700000238DE705B0BDEC028BBDE8F08F00BFC4
:1057800000ED00E00400FA05101C0020580700207E
:10579000F416002054070020A81A0020000C024034
:1057A0007C0E0020E61C0020FE8E01086B9B010889
:1057B000481B002002170020F98E0108258F0108E0
:1057C00034010020F88A0108888C0108098F01083B
:1057D000600700202DE9F04F2DED028B642889B081
:1057E000044600F07A8100F29C80342800F0AC84FA
:1057F00051D8222800F0728423D8032800F0398180
:1058000014D8012800F02981022840F0D386042012
:1058100002F0AAFE432002F078FE4C2002F075FE52
:10582000462002F072FE4C2000F05EBE042800F01C
:105830002A81052840F0BE861A2002F095FE002439
:1058400032E1282800F0C88515D8242800F0AF855B
:10585000262840F0AF86A94C062002F085FEB4F859
:105860005C0102F084FEB4F85E0102F080FEB4F840
:10587000600100F06ABE2C2800F0C185322800F0DB
:105880002D862A2840F09686012002F06DFE9B4B63
:10589000587900F029BE402800F0298621D83A28FE
:1058A00000F0AC820BD8362800F05286382840F041
:1058B0008186042002F058FE904C00F07EBD3B280B
:1058C00000F005843D2840F075868C4C022002F0E3
:1058D0004BFE94F8E20102F018FE94F8E10100F0AA
:1058E00003BE462800F04D860BD8422800F00D86F6
:1058F000452840F05F86132002F036FE002400F0B9
:105900004ABE4B2800F09A854D2800F0C9854928E9
:1059100040F05086022002F027FE784B988900F074
:1059200014BE722800F075844AD86A2800F0B58445
:1059300024D8672800F0D58111D8652800F0F680BA
:10594000662840F03786122002F00EFE6C4B1B8852
:10595000B3F5806F94BF012508250024A3E16828D2
:1059600000F02E82692840F02586664D287F400091
:1059700000F0FE0002F0F8FD00242DE26D2800F09A
:10598000368213D86B2800F0A7846C2840F012866A
:105990005D4C062002F0E8FD208802F0E8FD6088FA
:1059A00002F0E5FD594B188800F0CFBD6F2800F0DC
:1059B0007582C0F04582702800F09A8200F0FABD2E
:1059C000782800F09B8118D8752800F0748308D8D7
:1059D000732800F05784742840F0EC8500270124D8
:1059E000D9E3762800F08884772840F0E385454D98
:1059F000287802F0B9FD0024FFE3A42800F0A28477
:105A000014D87B2800F0FD82A02840F0D3850C201C
:105A100002F0AAFD3E4B186802F0B2FD3D4B18683B
:105A200002F0AEFD3C4B186800F0C0BDF12800F05C
:105A3000A181FE2800F0AD84F02840F0BB85374CF2
:105A4000042002F091FD2368B3F85A0002F08FFDA4
:105A50002368B3F8580000F078BD032002F084FDFD
:105A6000002002F052FD204602F04FFD0D2000F014
:105A70003BBD02F079FD012002F047FD0A2002F053
:105A800044FD00F05DBC062002F06EFD562002F0E1
:105A90003CFD522002F039FD422002F036FD52203A
:105AA00002F033FD00F081BC1D4B185D013402F0A3
:105AB0002CFD0B2CF8D100241A4B185D013402F098
:105AC00024FD082CF8D10024174B185D013402F096
:105AD0001CFD072CF8D100F06BBD072002F044FD3F
