:020000040800F2
:10000000A405002089010008913D0108313E010846
:100010008F3D01088D3D01088B3D01080000000067
:10002000000000000000000000000000893D010801
:10003000873D010800000000853D0108113E0108D0
:10004000E5010008E5010008E5010008E5010008F8
:10005000E5010008E5010008E5010008E5010008E8
:10006000E5010008E5010008E5010008E5010008D8
:10007000E5010008E5010008253C0108E50100084C
:10008000E5010008E5010008E5010008E5010008B8
:10009000E5010008E5010008E5010008E5010008A8
:1000A000253B0108553B0108E5010008653B0108B7
:1000B000453B0108E5010008353B01087F3D01088B
:1000C0006D3D0108793D0108673D0108E501000823
:1000D000E5010008BD3C0108E5010008193C0108E4
:1000E000213E0108E50100084D3E0108E501000838
:1000F000E5010008E5010008E5010008E501000848
:10010000E5010008933D0108E5010008E50100084C
:10011000E5010008E5010008E5010008E501000827
:10012000E5010008E5010008E5010008E501000817
:10013000E5010008E5010008E5010008E501000807
:10014000E5010008E5010008E50100089530010817
:10015000E5010008813B0108C93C0108753B010825
:10016000733D0108613D0108E5010008E501000853
:10017000E5010008E5010008E5010008E5010008C7
:10018000E5010008E5010008002100F004B80F4B6C
:100190005B58435004310E480E4B42189A42FFF40C
:1001A000F6AF0D4A00F003B8002342F8043B0B4BB6
:1001B0009A42FFF4F9AF0A48016841F47001016006
:1001C00013F088FC00F010F8704700007CA50108CF
:1001D00000000020A4010020A8050020E443002026
:1001E00088ED00E0FFF7FEBF2DE9804899B001F0EF
:1001F0008BFEB74CDFF8F0B22378DBF80050A14655
:100200002BB16368EB1A002BA4BF0023237011F0FD
:10021000A7F808B100232372E268170740F1708144
:10022000AB4B1B691B7A062B00F26081DFE813F0F1
:10023000070007003200EA00190147014701237D4A
:10024000A349002B00F0538100230B758B694F7D70
:1002500091F81CC093F800E0022309EB030603F1B8
:10026000010A717F9A48394101F00F0171450DD2A1
:100270000B290BD896F81D8000EB0A0600EB8101D4
:10028000767F08EA0C0006EB002008630233102B8F
:10029000E3D11BE194F860108D4B002900F0B08091
:1002A00093F8AE00002183F8601093F8AD1000F0D1
:1002B000070641EA0621596693F8AF1001F03F06A0
:1002C000760146EAD000986693F8B000800040EAD4
:1002D000911093F8B11001F0010640EA8620D8662B
:1002E00093F8B20000F00F06F60146EA51011967D3
:1002F00093F8B31001F07F06360146EA10105867F4
:1003000093F8B400400040EAD11193F8B50000F032
:10031000030641EA4621996793F8B61001F01F06DB
:10032000B60146EA9000D86793F8B700C00040EAEB
:10033000511193F8B900C3F8801093F8B81000F089
:10034000070641EA0621C3F8841093F8BA1001F0B9
:100350003F06760146EAD000C3F8880093F8BB0058
:10036000800040EA911093F8BC1001F0010640EAC9
:100370008620C3F88C0093F8BD0000F00F06F6014C
:1003800046EA5101C3F8901093F8BE1001F07F06C1
:10039000360146EA1010C3F8940093F8BF004000FD
:1003A00040EAD11193F8C00000F0030641EA46216B
:1003B000C3F8981093F8C11001F01F06B60146EA81
:1003C0009000C3F89C0093F8C200C00040EA5111AD
:1003D000C3F8A01093F8C310CE074CBF40F21470BE
:1003E000AD20C3F8A40088074CBF40F21473AD23BE
:1003F00011F0080FC4F8A8300CBF0123032376E0E6
:100400000B4674E094F8C53031490020002B6ED0C3
:1004100081F8C50091F8C710012903D081291ED1A8
:10042000032300E00B4694F8EB10102903D9284968
:10043000102081F8EB0094F8EB6026480021CFB241
:10044000B74200F1020052D210F8017C10F802EC21
:1004500047EA0E2E204F47F821E00131EFE703462F
:1004600045E094F82C111A4B00293FD0002183F865
:100470002C1193F82D11A82938D193F84031ABBB3A
:1004800009EB43019FED157A91F8300191F8311194
:1004900001EB002107EE901AF8EEE77A1049C7EE5B
:1004A000877A9FED107A77EEC77AFCEEE77A17EE3F
:1004B000906A41F823600133082BE1D106E094F8FB
:1004C0006431A3B1024B002183F8641101230EE0D3
:1004D000A80500207106002094060020CDCCCC4059
:1004E000EC0600200080BB43FC1600200023D90747
:1004F00006D583F002030121C3F340032172237068
:10050000530408D594F8653123B1AD4B002183F82D
:1005100065110123237244F20803134033B1237A97
:1005200023B105F5C333A649A0334B60D7070ED5D9
:1005300094F8660194F86711A14B814207D001211C
:10054000197005F5C331A031596083F8670196042D
:100550000AD500239A4901F5B470185A002841F0D1
:10056000AC840233182BF5D1237A33B9944BD3F8EA
:100570008031ED1AED43ED0F00E001252DB102F0C1
:10058000C7FD012384F8843133E1D4F888318C49E4
:10059000013303EAE3731006C1F8883140F1298181
:1005A000D4F88C31B3B994F89031013B042B00F2AC
:1005B0002081DFE813F01600160016000B01DF00A3
:1005C0007F4BD3F88C0107F0C0FF0CF0AFF908B1F6
:1005D00011F022FFD9F88C0107F0BCFF0028EFD101
:1005E000E1E7D4F8B021764D167816B1012E12D07D
:1005F000FFE0012B00F2FD80724B95F89121D5F8B8
:100600008C010C2101FB023292F8212053F82210B8
:1006100007F096FF65E0D5F88C0107F081FF002810
:1006200000F0E78095F89031022B46D0032B54D090
:10063000012B40F0DE80644BD5F8A8211B689A1A84
:10064000C72A40F2D680D5F8A411042933D85D4AD0
:10065000C5F8A8310C2000FB0121D5F88C5191F888
:100660002110D5F808E00023164656F823007045FF
:10067000DFB204D00133082BF7D1002300E03B4662
:100680008B4205D0284652F8211007F059FFB0E000
:1006900094F891310C2202FB0366766A16F8011B6E
:1006A00019B1284607F068FFF8E7D4F8A431013300
:1006B000C4F8A4319DE0022099E0424B95F89121C5
:1006C000D5F88C010C2101FB023292F8212053F85D
:1006D000221007F035FF032089E0D5F8B0319B7870
:1006E0000BB9042083E095F8AC310BB985F8AC6107
:1006F00094F8AC31324D012B17D1D5F8A431B22B7F
:100700000DD8304AD5F88C01134493F85C1007F0EB
:1007100033FFD5F8A4310133C5F8A43105E0002337
:10072000C5F8A431022385F8AC3194F8AC31244DDE
:10073000022B1AD1D5F8A4310F2B13D8D5F8B0213C
:1007400020495278D5F88C0102EB02120A44134476
:1007500093F8101107F010FFD5F8A4310133C5F854
:10076000A43102E0032385F8AC3194F8AC31022BBC
:100770003FD9B6E7D4F89821114B0132C4F898213B
:10078000D4F8B021D2785AB193F891210132D2B283
:100790000521B2FBF1F101EB8101521A83F891219D
:1007A000094B1B68C4F89C31002384F8B43194F8D9
:1007B000B53123F0020384F8B531012017E000BF02
:1007C000A805002084660108C8430020B34BD4F874
:1007D0009C211968B24B8A1A40F6C4118A4208D982
:1007E000D3F8B82122F02002C3F8B821052008F080
:1007F000C9FC07F040FC94F8CF31CBF80000D4F8E6
:10080000BC511BB3A74B1B7859071FD5A44B11A88C
:10081000D3F8E83898479DF844309BB1D4F8F028D5
:10082000DBF800309E4DD4F8F4781344C4F8BC31A2
:1008300005F6F800D4F8E038984705F6F8060028E1
:100840006DD008E0984B1B685D1B00E0451B002D38
:10085000E4DA01F022BB95F8FE283046314607F075
:1008600088F9924A1388002B4ED0D5F800391B78AE
:10087000002008EE103A05F6041580468B49B1F8C1
:1008800000A08B49BAF57A7F02D100230B502B616F
:1008900036F908C00B5863440B502B6905EE90CA1B
:1008A0000133012BF8EEE57A2B6140D10023C5ED31
:1008B000017AC5ED007AAB607E490023BAF1010FE1
:1008C00026F8083021F808305BD12B69012B49DD6F
:1008D000013B00EE103AD5ED037AB8EEC00A87EE80
:1008E000800A0690059214F00FFD0698059A18EEFE
:1008F000103AD3B3F8EEC87AB4EEE70AF1EE10FA84
:1009000033DD4FF47A7313800023DFF8A8E1F05A47
:100910003EF80320821AF2520233062BF5D1D4F8A6
:10092000B8315F4D13F0020300F0188340E095EDFD
:10093000006A05EE903A77EEC66AB8EEE57A86EE82
:10094000877A36EE077A37EEC76AD5ED027A85EDFB
:10095000017AE6EE867A85ED007AC5ED037AC5ED7B
:10096000027AA9E79FED540ABBE7514BDFF844C177
:10097000C35803F5FA7E4FF47A739EFBF3F32CF819
:10098000083008F10208B8F1060F00F1040005F183
:1009900014057FF473AFBAF1010F04D150460592EC
:1009A00007F0D8FC059A0AF1FF3AA2F800A0ABE7DD
:1009B000D5F8583905F51660984705F516680028EA
:1009C00000F0F9803D4B40461A78414607F0D1F8D7
:1009D000B5F86639002B44D00022D5F868091346D3
:1009E000B9F86619DFF8DCE038F902C02C4DB1F532
:1009F000C87F04BF00214EF803105EF80310614465
:100A00004EF80310043300210C2B28F802108152F9
:100A100002F10202E4D1B5F86639012B1CD1D5F8F8
:100A20006C394FF4C872C83393FBF2F30380D5F8E6
:100A30007039C83393FBF2F34380D5F87439C83367
:100A400093FBF2F21E4B1B88D21A8280A7F8581033
:100A5000A7F85A100FF03EF9B4F86639013BA4F834
:100A60006639E2680E4B520740F19180B3F878295D
:100A7000322A29D1D3F868291188A3F87A19518824
:100A80009288A3F87E29B7F85820A3F88029B7F8F0
:100A90005A20A3F87C19A3F8822917E0C843002044
:100AA000A80500200B170020FC16002008170020C6
:100AB000E80E0020F40E002000000000F8160020D0
:100AC00000000020140F0020002A3ED00022D4F89D
:100AD00068A91046B9F87839AC4938F902E0AC4D4C
:100AE000322B04BF00230B500B5873440B500430BF
:100AF00000230C2828F8023019462AF8023002F1A7
:100B00000202E7D1B5F87839012B19D185F891396E
:100B100085F8901907F01EFCB5F87A39AAF800306C
:100B2000B5F87C39AAF80230B5F87E39AAF8043055
:100B3000B5F88039A7F85830B5F88239A7F85A3097
:100B4000B4F87839013BA4F8783994F89229904B9D
:100B5000EAB1D3F88419D3F868093225002291FB51
:100B6000F5F183F892290180D3F8881991FBF5F10A
:100B70004180D3F88C3993FBF5F5864B1B88ED1A31
:100B80008580A7F85820A7F85A200FF0A3F8D4F8CA
:100B90006839B4F860191A888A1AA4F860295A8842
:100BA000B4F862198A1AA4F862299B88B4F86429F7
:100BB000D31AA4F8643907F05EFAD4F89439764A67
:100BC000D4F89C79C4F89409C3EB000A05EE90AA06
:100BD000114691ED006A3D78B8EE659A002329EE42
:100BE000066A0832194636F903E0DFF8C09107EECD
:100BF00090EAF8EEE77A0DF12C0C67EE867A0CEBB2
:100C00004300C0ED007AE5B105EE905AB8EEE57A02
:100C1000F7EE006A86EE877A38F9030007EE900A4D
:100C2000F8EEE77A67EE877A36EEC77AD2ED006A99
:100C3000E6EE877AC2ED007AFDEEE77A17EE900ACB
:100C400001E038F8030029F8030039F80300023303
:100C5000062B10FB001102F10402C4D1DFF834812D
:100C60004E48B8F80030642569435B4391FBF3F5C7
:100C7000493DADB20BA90FF093FE3B2D97ED017AE4
:100C8000464D12D9B4F9C019D5ED020A404B94F87B
:100C9000B52107EE901AF8EEE77AF4EEE70AF1EEE6
:100CA00010FA1CDD42F008021BE0F7EE007A37EE86
:100CB000276A2A4687EE866A002339F903C0023381
:100CC000062B07EE90CAD2ED006AF8EEE77AE6EE60
:100CD000877A67EE866AE2EC016AEED1D2E722F00B
:100CE000080295ED010A83F8B52114F00BFBDFF83B
:100CF000C09095ED027AD5ED017A89ED000AF0EE0B
:100D0000408A27EE070A95ED008ADFED259AA7EEC7
:100D1000A70A14F0F9FAB1EE488AF0EE400AB0EEF4
:100D2000480A14F0EFFAB0EE408A89ED010A28EE85
:100D3000A90A14F0E7F928EE290AA4F8CC0914F05E
:100D4000E1F9D4F8B831A4F8CE091B0732D509F17E
:100D50000C000BA90FF024FE97ED027AF7EE007A53
:100D600037EE276A09F10C0387EE866A09F1180944
:100D7000D3ED006ADFED0B7AE6EE877A67EE866ADE
:100D8000E3EC016A4B45F3D107483EE02C0F00200D
:100D9000A805002000000020400F00205C0F00206C
:100DA0004C3D0F4400000000780F0020540F00203D
:100DB0006C0F0020C34D0BA9281D0FF0F1FD98ED1D
:100DC000020A98ED017AD8ED037A20EE000AA7EE28
:100DD000070AA7EEA70A14F097FAB5EE400AF1EE5B
:100DE00010FA11D095ED017A87EE007A85ED017A3F
:100DF00095ED027A87EE007A85ED027A95ED037A19
:100E0000C7EE007AC5ED037AAF4807F049FEA4F8B3
:100E1000DC09DFEDAE7AB4F9DCE99FEDAD7AB4F927
:100E2000AC09B4F9AE19B4F9B029AA4D29EE279A44
:100E300007EE90EAF8EEE77AF1EE688A67EEC77A95
:100E4000B1EE488ACDED107A07EE900AF8EEE77A17
:100E500011A8CDED117A07EE901AF8EEE77A0EA9F7
:100E6000CDED127A07EE902AF8EEE77ACDED0E8AF4
:100E7000CDED137A8DED0F8A0FF092FD7B78DDEDCD
:100E8000137A012B1FD1944B1B785F0711D4D5F82F
:100E9000E039402293FBF2F29A1A07EE102AB8EEDC
:100EA000C77A37EE277ABDEEC77A17EE103AC5F843
:100EB000E039D4F8E039402293FBF2F305EE903AA2
:100EC000B8EEE57A05E0B8F8008007EE108AB8EED3
:100ED000C77A824B9DED110A93ED008AD4F8EC7924
:100EE00077EEC77ACDED137AD3ED017A79EE277AD2
:100EF00089EE279ADDED137A77EEC87AA9EE278A74
:100F000083ED008A14F0FEF8D4F8F85929780FF030
:100F10006FFC9DED120A3844C4F8EC09D4F8F0795E
:100F200014F0F0F829780FF063FCB0EE480A38446A
:100F3000C4F8F009D4F8F47914F0E4F869780FF003
:100F400057FC674B1A6852441A60D4F8FC3938448D
:100F50000133C4F8F409C4F8FC3905E0A5F8603998
:100F6000A5F86239A5F8643907F085F8D4F8003A95
:100F7000DFED567A574AD4F8F478CBF80000C31A5C
:100F80009BB206EE903AF8EE668AA4F8043A28EE90
:100F9000A78A02F6082383ED008A97F85230C4F836
:100FA000000A33B994F8D0314A4D002B00F0A080EC
:100FB0002BE002F60C2393ED007AB5EE407AF1EEC9
:100FC00010FA984609D1D2F8F02807EE102AB8EEA8
:100FD000477A67EE277AC3ED007A0025705F97F8AD
:100FE0005210D8ED000A00EE100A3E48B8EEC00AD2
:100FF00000EB850007F0F4FDBDEEC00A10EE103ADC
:1010000073530235062DE9D1CCE70121B0EE680A11
:1010100005F62C20F0EE480AB5F8286A07F0E0FD46
:10102000BCEEC00A95F8843110EE101A89B2B6FBF6
:10103000F1F14F1CBFB2A5F8347A1BB3B5F8369A5C
:101040000023244A02F6382002F65C261D5A33F8A3
:1010500006E002F664201EFB09FE33F800C01D52B4
:101060000FFA87F8CCEB050C9EFBF8FEE64423F85C
:1010700006E00233082BE4D1002382F88431A2F881
:10108000361A04E0B5F8363A013BA5F8363AB4F81A
:10109000361A104A0BB2002B4FF0000326DDB2F9CE
:1010A000346A114A9D5AA2F12400083215FB01F559
:1010B0009A5A95FBF6F5521B1A520233082BF0D1BF
:1010C00016E000BF0000002004000020BD37863578
:1010D00035FA8E3CA80500200B1700208C0F00204D
:1010E00004170020B80F002004100020A2F8363AA0
:1010F00003F006F9D4F86C3ACA4DCB4E13F48013C2
:1011000000F09980B5F8703A180600F1E380C74BFB
:101110001B7803F0040303F0FF08002B79D095F847
:10112000723A13B195F8733A3BB1C14B00221A6081
:1011300001233374002384F8733A337CB94FD4F815
:10114000F45884F8723A032B06D1284607F6782122
:10115000542213F0BEFD55E0012B07D107F678208D
:101160002946542213F0B5FD002302E0022B02D1E0
:10117000012387F8CC3A012384F8CD3A84F8CE3A9B
:10118000AC4BC4F8D85A00221A605A602A78AA498F
:1011900084F8DC2A94F8CC2A0A44B2EE047A92F855
:1011A0006411A64A43F85C2C0D4484F8DD1A697872
:1011B00095F815C007EE901AF8EEE77A03F11002E1
:1011C000C7EE877A9FED9E7AC3ED047AEB7A07EE3D
:1011D000903AF8EEE77AC7EE877A9FED9A7AC2EDF9
:1011E000017A07EE90CAF8EEE77A67EE877AC2EDE9
:1011F000027AFCEEE77A17EE903A6B750023EB72F9
:1012000009F0A2FA802007F0DFF8012384F8EC3A15
:1012100060E005F67427D7ED007AF5EE407AF1EE3E
:1012200010FA57D00EF056FD00233B60012385F8DD
:10123000728A33744EE0B5F8702A11063FD595F8DE
:10124000722A511E01292ED8D5F8D83A95F8DD2AF0
:10125000DFED7B7A93F801E005F52E6595ED017AD7
:1012600067EE277A1A44FCEEE77A17EE901AD172ED
:1012700095ED027ADFED747A67EE277AFCEEE77A75
:1012800017EE901A07EE90EAF8EEE77A517577EECE
:10129000A77AFCEEE77A17EE902ADA70DA7A5A73B8
:1012A0005A7DDA7505E0032A03D185F8723A0123E5
:1012B00001E0337C01338020337407F095F85B4BF9
:1012C0001B785A0706D494F8EC3A1BB1554B01220F
:1012D00083F8732A737CB3B1B4F93E2AB4F85A3355
:1012E0009A4210DC4F4B93F8C531012B01D0192BDA
:1012F00002D194F8A82332B90E2B04D0082B1CBFBE
:101300000023A4F8F23AD4F8F488464D98F818610E
:10131000002E45D0B5F8703A9B0741D005F6B413BE
:1013200093ED010AD3ED007A93ED028AB5F8F47AD1
:1013300020EE000AA7EEA70AA8EE080A13F0E4FFC1
:1013400088EE000ADFED417AB4EEE70AF1EE10FA1A
:1013500022D913F079FF05F6F825D5ED007A20EEB5
:10136000270A13F0CFFEB0F5617FA8BF4FF461707C
:1013700005EE900ADFED367AB8EEE50A80EE270A30
:101380000FF045FA06EE906AF8EEE67A27EE800A4C
:1013900013F0B8FE80B200E000203844A4F8F40A4C
:1013A000D4F8B8311F4D9F0640F19E80B5F8703AD1
:1013B00003F03003002B00F0978095F8B531DE077D
:1013C00040F19280B5F9DC09DFED227A224E08EE79
:1013D000100AB8EEC88A28EE278AB0EE480A0FF045
:1013E00016FAF0EE408AB0EE480A0FF073FAD5F81C
:1013F000FC3AB5F9060BDF78B0EE409AB2EE048AFB
:10140000002F51D0B5F8023B1FFA83F91BB2C01A66
:101410000FF020FD7D42A84220DBB842A8BF38462D
:101420001DE000BFA8050020000000200B170020D1
:101430001C10002078100020846601080000A041E4
:1014400000007A445555553F9A99993F8FC2753C93
:10145000EFB6B04435FA8E3C001700202846B4F8A9
:10146000003B8144B4F9040B1FFA83FA1BB21FFA44
:1014700089F9C01AA4F8029B0FF0ECFCA84203DB28
:10148000B842B4BF05463D465544ADB2A4F8005B32
:101490000FFA89F92DB205EE909A07EE905AB8EE40
:1014A000E57AF8EEE76A09E0B5F9045B05EE900A23
:1014B00006EE905AB8EEE57AF8EEE66A68EEE67A5D
:1014C000E7EE097A26EE899AC7EE887AA7EE289A7F
:1014D000FDEEE77A89EE089A17EE903ABDEEC99ACA
:1014E000338019EE103A7380864DB4F82E2305F23E
:1014F0004A330093844BD4F8081B1E68404608F119
:101500005803B04794F80C1B032916D9D5F8103BA3
:101510005A88B2F5FA7F10D2B5F9180BB5F9F25A1C
:101520005342002DB8BF6D425B1B984203DB531939
:101530008342A8BF0346A4F8183BB4F8F40AB4F8F1
:10154000165BB4F8146BD4F8107BB4F918EB6F4B3E
:1015500000228A4203F1100335D297F901C0CCF181
:10156000000C0EFB0CFC07EE10CA0FFA86FC06EE10
:1015700010CA0FFA80FC05EE90CA0FFA85FC07EE40
:1015800090CAF8EEC76AF8EEE77A13ED027ADFF850
:1015900084C167EE877AF8EEE55A13ED047AE5EE3A
:1015A000877AB8EEC66A13ED037AE6EE077A13ED92
:1015B000017AE6EE877AFDEEE77A17EE908A2CF84C
:1015C00012800132C5E7524B1A7802F0040202F091
:1015D000FF03002A72D094F8F79BB4F8DC5B012378
:1015E0008B424C482EB207D230F91350B542B8BFE7
:1015F0003546ADB20133F3E7D4F8182CD4F81C7C8F
:101600005388D4F820EC9E42C8BFC3EB0505E368BD
:10161000B4F93E6A03F4805A03F0100BD4F8103B7F
:1016200007933C4BCCBFADB2002500EB41084345CE
:101630003BD01988491B89B223F8021B09B2BAF1C1
:10164000000F0AD0F8898642C7BFBEF80200B2F880
:1016500002C09088BEF800C005E0B2F802C0B9F13F
:10166000000F09D09088814203DB6145B4BF084672
:10167000604623F8020CDAE71088814203DB6145FB
:10168000B4BF0846604623F8020C398A8E42CEDA8F
:10169000BBF1000F01D0918804E007980178002980
:1016A000C5D1118823F8021CC1E794F8242C154BEE
:1016B000013AD2B2182A00F254810AE08B42F4D2E5
:1016C000144A02F14A0030F8130022F813000133E3
:1016D000F4E701219140104A0A40002A00F04181BC
:1016E000B3F8702AD00519D5B3F8EE2AADF8442026
:1016F000B3F8F02AB3F8F23AADF84620ADF8483026
:1017000025E000BFA805002018000020C41000201C
:101710000B1700208411002099209801B3F8142B96
:10172000D968ADF84420B3F8162BADF84620C904AB
:10173000B3F8182BADF8482009D5B3F93E1AD3F801
:101740001C3CDB899942BCBF5242ADF84820B4F939
:10175000CE194FF47A7201F5E16151434FF46163A0
:1017600091FBF3F1A1F5FA71ADF85C10B4F9CC1965
:1017700001F5E1614A4392FBF3F3A3F5FA73ADF887
:101780005E30B4F8DC3BB4F8382AA3F2DC53ADF891
:101790004A30D4F81C3CDB89D21AADF84C20B4F89E
:1017A0003A2AD21AADF84E20B4F83C2AD21AADF833
:1017B0005020B4F83E2AD21AADF85220B4F8402A8C
:1017C000D21AADF85420B4F8422AD21AADF85620F5
:1017D000B4F8442AD21AADF85820B4F8462AD31ADD
:1017E000ADF85A300022B64B03F63E4000211152AC
:1017F0000232102AF7D1D3F86C2AD3F8504C93F860
:101800004E3C07925B00099308940B46099EAC4836
:10181000B34200F08B8000F654446218957935B1DC
:101820000126153506FA05F5079E354078D0675C28
:10183000089892F904B092F8019092F803C092F8D7
:1018400005A0C7EBC70600EB46064FEA490EB6F9FE
:101850000000B6F902502D1AADB2642005FB0BFB57
:101860009BFBF0FB4FEA5508C8EB0B0B1FFA8BFBF9
:10187000944818ACBCF1000F03D1744434F81C4CEC
:101880000CE0A644C45E3EF91CEC744508DAA4449E
:10189000A44503DBE645B4BF74466446C4520AE07F
:1018A00009DDCCEB040CF44503DBA445B4BFE646EC
:1018B000A64620F803E04FF0010ED6F80A608048F3
:1018C00092F902200EFA09F919EA060F0CBF7646C2
:1018D0004FF0FF3600F6C44E7F0033F80EE012FBE7
:1018E0000EF24FF0640EC41992FBFEF20FFA8BFB5E
:1018F0005A45B4F83E4CB6B20CDB4FFA8AFB05FBF6
:101900000BFB9BFBFEFBC8EB0B0B0FFA8BFB934512
:10191000A8BF934607440BFB064BA7F83EBC02E06A
:1019200000F6C4401D52023307316FE70024D0F89F
:10193000508C25460E2202FB0582634E92F90670FA
:10194000A35B17FB03F7642397FBF3F7A753E8B2F6
:1019500007F08CF801353844082DA05304F1020437
:10196000E8D1574DEE6816F020082F4634D00020FD
:1019700007F07CF8A5F83E0C0446012007F076F845
:10198000D5F86C3AA5F8400C1B0625D5D5F8E43CF3
:10199000B5F8CC291B78012B22D1D5F8503CB5F9EC
:1019A000CEE993F9141093F9063011FB02F25B4271
:1019B00032210EFB03F392FBF1F26FF0310E92B283
:1019C00093FBFEFE964493FBF1F174440A44A5F8A0
:1019D0003E4C1044A5F8400CD5F850AC002319E05B
:1019E000D5F8501CB5F8CE3991F906E091F91410EC
:1019F0001EFB03FE32239EFBF3FE11FB02F2744436
:101A000092FBF3F3A5F83E4C1844E3E7D1520233BE
:101A1000102B10D0C3EBC3042B4A5444985EB4F986
:101A20000010B4F9024088429146EFDB21B28842AF
:101A3000B8BF0146EAE7224BD3F810BB9BF9083048
:101A4000A3B995F824AC0AF1FF33182B78D8DFE856
:101A500003F02F7777557777774C777777777761BC
:101A60007777777777556C7777612F000024174B5E
:101A7000BBF9062039F90410442000FB043006F0BD
:101A8000A8FEC4EBC40280B229F80400524400B29C
:101A9000B2F90030B2F90220984203DB13B2984247
:101AA000B8BF034629F804300234102CDFD1C8E750
:101AB0009BF8043063B10020B5F8481C11E000BF6A
:101AC000A80500206C120020E611002090120020D2
:101AD000A64B1B7803F0040303F0FF00002BEAD1B0
:101AE00001460FF027FA01242BE00020B5F8441C32
:101AF0000FF020FA0120B5F8461C07E00020B5F8E9
:101B0000461C0FF017FAB5F8481C01200FF012FA26
:101B10000224E0E1002409EB4403E0B29988013497
:101B20000FF008FA062CF6D10BE0002409EB440371
:101B3000E0B2D98801340FF0FDF9042CF6D1CAE1E6
:101B40000024B8F1000F02D1BAF1050F0CD12046E4
:101B5000B5F83E1C0FF0EEF9601CC0B2B5F8401CA1
:101B60000FF0E8F90234E4B2F10208D4804C814E5F
:101B7000226B33689A1A002AA0460DDA14E0002678
:101B80007D4B03EB4603A019C0B219890FF0D2F9BF
:101B90000D2EEBD00136F3E703F58273236394F83F
:101BA00034300BB10FF04CFC744B1B78002B40F021
:101BB0007481EB681A0340F1708194F83520023A81
:101BC000082A00F26A81DFE812F0090031004E00B5
:101BD00062007B008C0033014F015C01684B1A6886
:101BE000E36B64339A4240F258810025654B664AA4
:101BF0001B789D420CDAD8F83860931993F8660187
:101C000030B10AF038FD5A4B013601359E63EDE7DD
:101C1000A16B574B0A4492F86621002A40F03D819F
:101C20009A634FF0FF32DA63032234E121230093F9
:101C3000564B019303F10C0202924920A3F10A02D0
:101C4000502102330CF058FF002840F02681EB6849
:101C500013F080024FF0FF3303D0E363A06304234B
:101C60002BE0A26327E04A4A02230021009301915E
:101C70000291482002F108030CF03EFF002840F0DA
:101C80000C814FF0FF33E363A063052315E00723C6
:101C90000093404B019303F10C0202924720A3F101
:101CA0000802002104330CF027FF002840F0F580E3
:101CB000A0634FF0FF33E363062384F83530ECE094
:101CC000354A03230021009301910291532002F130
:101CD00008030CF011FF002840F0DF80A063072309
:101CE000EBE7A16B224A11B9D16301219163254A27
:101CF0001678E26B1644402EA8BF4026132EE663EA
:101D000040F3CB801A4A926B0D2A00F2DE80DFE8A6
:101D100002F08B070B0E12182125295D61707A8065
:101D20001E480AF09CFC7DE01D481E496EE01E48DE
:101D30001E491F4A74E01F4895F8D61895F8D72811
:101D40006EE095F8B0381C480C2202FB037797F838
:101D5000B2185BE01948B5F8041357E01848B5F815
:101D6000061353E0174B184819694FE00B17002072
:101D7000A0160020FC160020E00F00200A1700200B
:101D8000C84300201400002084660108566801083A
:101D9000D8690108F06901083C6A01081C7701084C
:101DA00039770108A88F0108517701086877010881
:101DB000747701087D770108917701089E77010803
:101DC000B0770108840E0020C2770108444B4548D3
:101DD00019881BE0236C444FDB0407D5434895F872
:101DE0003C1307F0B3FC301AF8631DE00C23BB630F
:101DF0001AE095F8401395F8412395F83F333C4895
:101E000007F0A4FC0EE03B48B4F8441007F09EFC39
:101E100008E01F0508D53848B5F84413B5F9422342
:101E200007F094FC301AE063A36B0133A36334E042
:101E3000D5F86C3A980114D5B4F846302A4D83B9D8
:101E4000AB6C11930E203368129311A90AF076FC43
:101E50004FF48053A5F84C30092385F835300FF046
:101E6000C3FB0EF083FE18E094F84E30002BF6D042
:101E7000D5F86C3A9901F2D41B4B082283F835202F
:101E8000EFE71E4B1A68E36BC8339A4205D911F08D
:101E900075FB154B012283F83520194B1B78002B5D
:101EA0007EF4A7A9174BDA6852057EF5A2A9B3F80C
:101EB000120304F0C7FBFEF79CB901230B7005F574
:101EC000C333A0334B60FEF74FBB4FF48053A4F8ED
:101ED0004C300923F1E6B8F1000F3FF445AE36E689
:101EE00000000020D5770108A0160020E277010845
:101EF000F27701080E7801081C780108C843002019
:101F00000A170020A80500202DE9F04F2DED028BC7
:101F1000C04CC14B236091B0002363600FF06AF99D
:101F200018B90BF0CFFF0FF089F9DFF85493BB4FCE
:101F3000BB4DDFF84483DFF84CA307F091FF99F81D
:101F4000003043F0010389F800300EF0B5FDB54BC9
:101F5000FB606B6FA360B44BBB606B6BB34823F04B
:101F600080036B636B6F43F080736B672B6B43F085
:101F70003F0310AE2B6303238DF8263041F6FF7329
:101F800026F81C3D314605F0C9FD4FF6FF73A84801
:101F9000ADF82430314605F0C1FDA648314605F0C4
:101FA000BDFDDFF8E4C2CDF80CC06046314605F057
:101FB000B5FDA148314605F0B1FD31469F4805F019
:101FC000ADFD304605F012FD099B9D4AB3FBF2F3CF
:101FD000E3609C4B9C4A4FF0000BC3F800B09B4B56
:101FE0005A60F02287F823200722C3F808B0984FE0
:101FF0001A60D8F80830CAF8003097E80F0086E871
:102000000F002B6BDDF80CC0099843F008032B631D
:102010002B6B43F008032B634FF48043ACF818306C
:102020004FF40043ACF818300AA905F077FD0CA96D
:102030000B9805F073FD642006F0F1F985485946C8
:10204000A02212F04FFE2B6C43F013032B646B6C39
:1020500043F001136B64804BB94603F1C0009A7AD8
:10206000DF7A53F8105B02F00701D20805EB820219
:102070008900156A4FF00F0E8F400EFA01F125EA24
:1020800001011162156A834247EA05011162E6D136
:102090000023604F07F110020021995401330C2BEB
:1020A000F7D1FF236D4A3B777B77BB77FB776C4B90
:1020B00013606C4D6C4A0420107028463022049343
:1020C00012F010FE14222A7002222A760522049BA6
:1020D00085F82420654A98F805B082F800B0A3F589
:1020E000F072A3F590737B62614BDAF800503A62AC
:1020F00003EBCB035B78BB62AB0644BF0123BB623F
:1021000000235C4A40F2DC5199520233102BF8D183
:10211000304600211C2212F0E5FDBBF10E0F04D069
:102120000BF0EF0BBBF1080F02D101238DF8363015
:10213000052005F0C7FE18B14088003018BF012007
:10214000C5F340038DF82B30C5F380138DF82D3087
:10215000C5F340338DF82430C5F3C03300F00100DF
:102160008DF8273015F400638DF82A0004D098F814
:1021700086315E1E734273418DF82830C5F30043EB
:102180008DF82E30A36AB8F84801ADF83A00003354
:1021900018BF01238DF82F30C5F300538DF8303070
:1021A000B8F84A31ADF83430B8F85631ADF83230BD
:1021B000C5F3804305F00101C5F3C0028DF82C3052
:1021C000E804B8F854318DF825108DF82620ADF8C4
:1021D000383004D52848B0F85001ADF83A00B3F5CE
:1021E000FA7F84BF0023ADF83A30244898F8D631FE
:1021F00084F82C30002384F82D3043709DF836305D
:10220000002B14BF0223002300293FD1002A3ED017
:102210003CE000BF0C1700203D86000800ED00E008
:10222000003802400005FA050000000800000240E6
:102230000004024000080240001002400014024066
:1022400040420F00CC4300203F90020010E000E02D
:10225000C88201080C420020B08901081C1C002023
:102260005C090020B41C0020B31C0020CC1100200D
:102270006C8A0108E6110020680700203917002049
:10228000D0430020B4050020000C0240013309EBCC
:10229000830300271B690593B9460599CA5B4FF66E
:1022A000FF739A4200F00381130A022B02D19DF8BA
:1022B000241003E0012B04D19DF82510002900F023
:1022C000F280D1B29DF83000C24A4FEA011C02EB05
:1022D0000C0530B19DF8360018B90439032940F2D5
:1022E000CB80012B4DD19DF82C3023B9BDF838306F
:1022F000B3F5FA7F07D952F80C30B7498B4204BFC7
:10230000032384F82F30FF230026298984F87430B2
:1023100084F875306B7B686884F87860C4F8845002
:10232000ADF818108DF81A3006A902238DF81B306D
:1023300084F830606663A663E663266784F8766097
:1023400084F877600492CDF80CC005F0E7FB049A9E
:10235000DDF80CC0A97A52F80C00324605F06EF98F
:1023600028460FF023F99D4B9D49C4F888309D4BBA
:10237000C4F88C30C4F8906028460A1D0FF0AAFEFD
:1023800091E0022B3ED198488DF81B305FFA89F11D
:102390001C26714346184FF0000B4FF0010E86F8D3
:1023A000019086F802B086F80AB000F801E0697B77
:1023B000B5F808E06868F5608DF81A1006A9ADF860
:1023C00018E00492CDF80CC005F0A8FBDDF80CC0B5
:1023D000049AA97A52F80C005A4605F02FF92846BB
:1023E0000FF0E4F8814B3361814B7361C6F818B08C
:1023F000284606F1100106F114020FF06BFE09F1F8
:10240000010950E0032B35D19DF82C303BB194F8F5
:102410002E60284608214FF6FF7200231CE0BDF80D
:10242000382094F82E60BDF83A30B2F5FA7F0DD915
:102430007049B1FBF2F22846082192B206F0D0FFB3
:1024400004EB86066C4BC6F858010CE06B49B1FBF7
:10245000F2F22846012192B206F0C2FF04EB860692
:10246000674BC6F85801C36094F82E30013384F8E6
:102470002E3018E0042B16D1BDF832305F4A94F8A4
:102480002D6092FBF3F22846BDF83430012192B260
:1024900006F0A6FF94F82D3004EB86060133C6F84B
:1024A000880184F82D300237182F7FF4F6AE94F8A7
:1024B0002D3084F8A831534B534F1D78A5F11703E5
:1024C0000026022B3E7018D8236A3344D3ED007ADD
:1024D000F5EE407AF1EE10FA02D1A36A53BB24E084
:1024E0004A4A06EB020E0FCB8EE80F003B781036FF
:1024F0000133C02E3B70E7D1EFE7454B13F835C0F1
:1025000087F800C003EBC503D3F80490B9F1000FBE
:10251000E3D06645E1DA3D4A330103EB020E4B445A
:102520000FCB01368EE80F00F3E7DAF80030D9045C
:1025300026D41FE0374B384A03EBC5035E6A93F895
:1025400020001070002EF0D000238342EDDAC3EBA0
:10255000C3017218DFF8CCC0D2F8009041F80C909B
:1025600001EB0C0E9188AEF8041092798EF80620DB
:102570000133EAE705F0EF03082B284B1FD120E0D9
:1025800039780129F6D9264B00228A4203F110033B
:10259000F0DA13ED047AF6EE007A27EE277A0132AC
:1025A00003ED047A13ED057A27EE277A03ED057A19
:1025B00013ED037A67EE277A43ED037AE5E70E2DF4
:1025C00032D11A7842F010021A70182D32D106F06A
:1025D00027FA2FE0AC8901080000014067040108D8
:1025E000941700207505010884170020597700080A
:1025F0004D05010800127A009505010840420F00C0
:1026000085050108CC110020B4100020C410002062
:102610006C8A0108C8820108F61100205D070020BD
:10262000CC100020FC1100201A7822F010021A7041
:10263000192DCBE70EF0E8FEDAF800305A0302D489
:10264000BB4B01221A70BB4A137843F0040313708A
:1026500011F04CF809F080FEB8F85C21B64B4AB98D
:10266000B3F95E1141B9B3F96031D3F1010338BF59
:10267000002302E0002300E0134613F0010324D1FD
:1026800012B207EE102ADFEDAD7AAD49B8EEC77A87
:102690000B7027EE277AB8F95E318DED067A07EEDA
:1026A000103AB8EEC77AB8F9601127EE277A06A873
:1026B0008DED077A07EE101AB8EEC77AA14967EEDA
:1026C000277ACDED087A0EF00DF99F4D9F482B68C3
:1026D000B8F86461B3F85630059300210C2298F8DD
:1026E00063B1B8F80C7098F80F8012F0FBFA14225E
:1026F0009748002112F0F6FA964B94F8D0A10022E8
:102700001A709946BAF1000F03D104920EF036FD0B
:10271000049AA4F8D221BAF1000F01D109F0D8FA35
:10272000B6F5807F0ED0BB2E0ED8612E0ED8292E86
:102730000ED8132E0ED8092E0ED8002E0CBF002551
:1027400006250AE0002508E0012506E0022504E050
:10275000032502E0042500E005257F4B1A8822F0BE
:1027600040021204120C1A801A8822F03802120455
:10277000120C42F030021A801A8892B242F04002E3
:102780001A8094F8D411192009F092FA012005F06A
:102790003BFE29461A2009F08BFA012005F034FE91
:1027A00006A80AF061FE9DF91A306C4D013303D181
:1027B0009DF91830013303D0B4F8D2319BB233B154
:1027C00000230320A4F8D23105F033FEE3E0DFF864
:1027D00080A1634BCAF80030624BCAF80430624BE8
:1027E000CAF80C306420614BCAF8103005F017FEAF
:1027F000042389F800305E4B06221A705D4A116886
:10280000BBF1090F41F0010111609A4600F24C84BE
:10281000012202FA0BF240F202331340002B40F087
:102820003B8412F0FD0F00F03784534A137095F883
:10283000D03193461BB904930EF0A0FC049B0022F8
:10284000A5F8D2210BB909F043FA404B4B4A1A6064
:1028500064204B4A5A6005F0E2FD04238BF80030F7
:1028600007238AF80130434B1A6842F002021A60CB
:10287000404B1A6812F0020F9A4602D0334B1B6885
:102880009847404AB8F1000F1AD0F6B2002E14BF94
:102890004FF47A737D239F4205DBB7F57A6FA8BFAB
:1028A0004FF47A6700E01F46591E0F44B7FBF3F15F
:1028B0000139C9B201FB033385F8D411136002E07A
:1028C00085F8D4811760224A136898472E4900235F
:1028D0000B70194B93F858210AB189F8002093F82E
:1028E00059210AB12448027093F85A3103B10B7090
:1028F000DAF800301B074BD5059B1AB2642392FB14
:10290000F3F103FB11231BB207EE103AF8EEC76A8E
:1029100007EE101AF8EEC77A9FED1C7AE6EE877A7A
:10292000B2EE047A67EE877AC5ED767A33E000BFBF
:10293000D4160020D04300206807002035FA8E3CD2
:102940001C000020B81800209C0E0020FC0E002067
:10295000840E0020A60E0020003800400C17002036
:10296000C505010869D400088DBC000890C1793DF7
:102970002400002060070020F8160020B50501089B
:10298000FDD30008980E0020441900208988883C57
:102990000023C5F8D831C0490B7843F002030B700F
:1029A000BE4B4FF400425A834FF480421A830A27E9
:1029B000BA4E736983F400437361736983F480438F
:1029C0007361192005F02BFD013F192005F027FD4B
:1029D00017F0FF07ECD14FF4804333834FF40043EB
:1029E0003383AF4B9FEDAF8A1B68AF4E1B7B00EE6E
:1029F000103AB8EEC00A20EE080A0DF06BFF3288DC
:102A000007EE902AF8EEE77A27EE800A12F07AFBBA
:102A100036889FEDA67AA64B07EE906AF8EEE77A25
:102A20001880C7EE277AA34BFF211B229FEDA27AC5
:102A3000C7EE877AC4ED777AD3ED047A9F4CA04B2A
:102A400027EE888ADFED9F7A28EE278A204683EDDD
:102A5000008A12F047F99C4A9C4B126827700121AA
:102A600012F0020F1970204604D061700321197012
:102A70000221A170570704D519784C1C1C7003243F
:102A8000445412F00A0F0CD01A7804218154511CBE
:102A9000C9B205244454D11C0232D2B219700621A5
:102AA00081548B4C2268960604D519784E1C1E70F2
:102AB00007264654110608D51978092646548E1C57
:102AC0000131C9B21E700A264654824E7179082916
:102AD00001D00E2908D11F7807F1010E83F800E01C
:102AE0004FF00B0E00F807E01F7807F1010E5FFAB8
:102AF0008EFE4FF00C0C12F0040F83F800E000F88B
:102B000007C009D007F1020C704F87F800C06B4F67
:102B10004FF0100C07F80EC01F7807F1010E5FFA96
:102B20008EFE4FF0120C12F4806F83F800E000F874
:102B300007C00ED096F818C2BCF1000F09D007F1FB
:102B4000020C624F87F800C05C4F4FF0130C07F87F
:102B50000EC01F7807F1010E5FFA8EFE4FF0140CC5
:102B600012F4007F83F800E000F807C009D007F1F5
:102B7000020C564F87F800C0504F4FF0150C07F865
:102B80000EC0182913D11F784FF0160E00F807E079
:102B900007F1010E5FFA8EFE4FF0170C00F80EC021
:102BA00007F1030E0237FFB283F800E0C1551103AD
:102BB00004D519784F1C1F7019274754D70504D521
:102BC0001A78511C19701A23835400219822424804
:102BD00012F088F810F03EFE4049414AC5F8E02165
:102BE00000230B808B703F49A5F8E4310A60B6F8EA
:102BF000982190B23C4958520233242BFAD12368D1
:102C0000D8045CBFB6F89E0108801B0740F1FE8027
:102C100096F89231062B00F2F380DFE803F0040708
:102C20000E7994B2B20045F2F05201E042F6F82279
:102C30002E4B1A8010F0C4FDE1E007EE102ADFED04
:102C40002C7A2A4BF8EEC76A9FED2A7AE6EE877A4D
:102C500042F6F82119800023FCEEE77A264A17EEA7
:102C6000901A99500433482BF8D1244B244A5A60C7
:102C7000244B122240201A7005F062F9002800F05F
:102C8000BF8001234FF0070C90F900001E4A8DE829
:102C9000081040211D4BADE0D0430020000C024045
:102CA000440F002035FA8E3C000000200AE81C4149
:102CB000680F0020840E002000401C46511C00209C
:102CC000400F0020BD37863560070020501C0020D3
:102CD000B405002068070020801B00209C11002004
:102CE000F2080020B8050020E00F0020D00F0020DF
:102CF0000000B0C4CDCCCC3F0C0600201C0000204E
:102D0000DD7D00086C1C002085820008A086010083
:102D1000664B42F6F8221A80654B664A5A60664B4B
:102D2000102240201A7005F00BF9002868D001230A
:102D30004FF0000E90F90000604A8DE808404021F5
:102D40004FF4E13356E0594B42F6F8221A80584BC3
:102D50005B4A5A60584B082240201A7005F0F0F880
:102D600000284DD00123002790F90000554A8DE836
:102D7000880040214FF4E1330FF00CFFC5F8E80163
:102D80003AE04A4A504842F6F82111804A490C225A
:102D9000062B0A7010D00023037085F8EC3185F8FB
:102DA000ED311B2385F8EE31052385F8EF2185F8F9
:102DB000F0314FF4E1370DE00021017085F8EC119E
:102DC00085F8ED11414F85F8EF21212185F8EE11AD
:102DD00085F8F031364B3E4A5A60402005F0B0F895
:102DE00070B1012100233B4A90F900008DE80A00F0
:102DF00040213B460FF0CEFE003018BF012028B91D
:102E000008200DF051FE2A4B334A5A6023682A4AA3
:102E100013F4804F04D00821117025492F484860D1
:102E200042F20101194003F0010003F4005779B1A7
:102E30001E4944F6206EA1F800E01D49DFF8ACE021
:102E4000C1F804E00FB10821117008B10C21117014
:102E50001178043951701A0640F183804FF0000850
:102E60001F4FDFF88C90DFF88CA01E48C5F8F49156
:102E70004146152287F80180C7F80480C7F808800A
:102E800011F030FFA9F105034046CAF8003006F002
:102E900079F9154B02201B68FB6005F051F851468B
:102EA00050BB80200DF000FE53E000BFD00F00208B
:102EB0001C000020CD7D00086C1C00201182000841
:102EC000B97D0008C58100080C07002090D00300E0
:102ED000797D0008AD800008257E00080D7E000881
:102EE0003807002004190020C8430020197E00087C
:102EF0005C0900205807002090F805E07B786C4AB8
:102F00004FF00C0C0CFB032C9CF801C0F44504D0D2
:102F10000133DBB2042BF2D900237B700B6890F9EC
:102F200000001B78002B7B784FF00C0707FB032277
:102F30000CBF01210321537800910022019202214C
:102F40000FF028FE5B4B18600028AAD0012006F085
:102F500019F9594A594B106800F5C5721A600DF0FD
:102F600017FF23685B0555D5554BD5F81082C3F87C
:102F70000080042004F0E4FF0421C5F8140204F0EA
:102F8000B5FF504B85F818020820C3F8008004F004
:102F9000D7FF4D4B4D4F1860082104F0A7FF0021CB
:102FA00085F819022C22384611F09CFE8E237B7086
:102FB0004FF07C0AE0234FF07D09FB7087F800A0FA
:102FC00087F82B90424F2C220021384611F08AFEC0
:102FD0008A237B701020A023FB7087F800A087F85D
:102FE0002B90C5F81C8204F0ABFF1021C5F820021D
:102FF00004F07CFF85F824022020C5F8288204F024
:103000009FFF2021C5F82C0204F070FF85F83002E4
:1030100010F05EFC23682F4A13F4002318BF01232D
:10302000137005F028F82C4B18607379052B03D129
:103030002A4B4FF4C8721A80294B4FF47A721A80C7
:10304000284B1A7842F008021A70274B1A7822F09F
:1030500002021A70226840F6020313406BB1234B40
:10306000234A1A60234B03221A70234B01221A7041
:10307000224A00231380224A1380B3682360214B25
:1030800001221A70204B1A7862F07F021A7011B078
:10309000BDEC028BBDE8F08FBBF1010F04D81B4BD8
:1030A00000221A70FFF7E4BB4FF0000BFFF7B0BB34
:1030B000A4660108340700209C0E0020A410002004
:1030C000F81C00204C1D0020981D00201C1D002015
:1030D000511D0020D5160020A80F00200E0F002043
:1030E000081700205D0700200B170020F01C0020AF
:1030F000E4080020501D002029000020FA1A0020BA
:10310000FC1A0020D4160020D0430020F81600201E
:10311000824A83492DE9F04F1468824E04F59C439E
:1031200020330B60804B196811F4804F89B005D1B2
:103130000EF016F910B93378013333707778794B84
:10314000BFB15A68944240F20981013F5F7005E1C6
:10315000D8F800307548072C98BF195D744B88BFAC
:1031600021461B689847032C0BD906EB4404013712
:1031700020816E4BDFF8E0811D78FCB2A542E7D8D4
:103180001FE0D8F8003004F10E0203EB82029388AE
:10319000D2880028E9D0C01A4FF47A71D31A484374
:1031A00090FBF3F0084440F6C903984205DC40F276
:1031B000EE239842B8BF184601E040F6CA0080B23C
:1031C000D3E70F2386F82C3036785A4BD8F8008096
:1031D0001B7803934FF0030AB6FBFAFA564B574F8E
:1031E0001B7804930AEB4A0ACAEB060A69005FFAE5
:1031F0008AFA4FF0000B05914FEA4A0AD946059921
:103200008B4556D04E49039A3BF8014042B90EF027
:10321000A7F820B1049B002B08BF002400E0039C0A
:10322000B8F81410A14206D8B8F81610A14234BF5D
:103230000021012100E0002131B95FFA89F00291FB
:103240000EF09AF8029904465FFA89F003280BD829
:1032500051B934494FF0010E91F82C000EFA09FED5
:1032600020EA0E0081F82C000EF07AF8C0B92D4942
:1032700027F80A4091F8760020B9022E10D90120D3
:1032800081F8760079883C880C44B9880C442D4933
:10329000A4B22BF8014024B2032194FBF1F4A4B2B0
:1032A000294909F101092BF8014006370BF1020BFE
:1032B000A5E71C4B254993F82C20B2F10F077A4261
:1032C0007A4183F89020224B6AB1224A1268560153
:1032D00009D40A68D9689A60521AC82A3ED90122CC
:1032E00083F821203AE013480968D960002202706F
:1032F00098685B68091A994288BF154B4FF0000423
:1033000088BF83F82120AC4228DAE0B20EF034F80E
:103310000D4B23F814000134F5E700BFFC16002024
:103320002807002048190020B40500206C1C00204C
:1033300020000020A8050020B005002076190020FC
:1033400050190020C0190020E00F0020C8430020C1
:103350009C11002014100020B8050020884A136832
:10336000DC0405D5874B1B68D80701D40DF00EF897
:10337000854B1A68937A2BB3013B8449127B31F851
:1033800013301AB1C3F53B6308339BB21BB2A3F5EC
:103390007A73B3F57A7FA8BF4FF47A7323EAE373A5
:1033A00007EE903AB8EEE77ADFED797A794BC7EE1F
:1033B000277A9FED797A67EE877AFCEEE77A17EE47
:1033C000902A1A806E48754D036813F4807F00F0D0
:1033D00000817349734B0A68734C9A4203D9A378EE
:1033E0000BB90123A370A378002B00F0F2806E4B81
:1033F0002F7893F82160634B711E4E424E411A683C
:10340000002EC7F38007C2F3806899460CBF4FF0C7
:10341000030A4FF0000A94F82030052B00F2D38005
:10342000DFE803F0034D5274819A002F3AD05F4BCE
:1034300018685F4B19880DF0C9FF012809D15D4B51
:103440001A685D4BD3F89430DB88642101FB0323B9
:103450002361B8F1000F0DD0574BD3F894301B798E
:1034600043B105F059FE032384F820304FF47A73FA
:10347000E361D0E7002E40F0A6804E4BDFF828B184
:103480001A6823699A4209D905F046FE03238BF88E
:10349000203040F6B833CBF81C30BCE701238BF862
:1034A0002030B8E74FF48060B8F1000F02D004F08C
:1034B0008BFF01E004F098FF0023236183E0002EDE
:1034C00042D105F029FEA6E726B1052384F8203075
:1034D000012100E031466FB1344B1B68DA892B4B78
:1034E0001A805A809A80344AD2F894205288DA801E
:1034F0004FF0020A2F4B1A6863699A4201D8002FD5
:103500005ED147F23053E36103231EE02B7843F092
:1035100002032B700CF03AFF264B1A68E369134440
:10352000A361042311E0234B1A688EB1A3699A4268
:1035300049D9224B1B781BB9D9F80030DA0742D49D
:103540002B7823F002032B70052384F8203062E7E8
:10355000E3691344A36136E0164B1A68164BD3F89F
:103560009430DB88642101FB032323614FF48060E6
:10357000002384F82030E37004F036FF4BE700BFEF
:10358000B405002014100020B8050020E00F002032
:1035900000007A446E1C002000C07F440B170020FE
:1035A000FC160020404B4C009C110020EC18002021
:1035B000F0180020C8430020481900201100002006
:1035C00000297FF428AFBAF1000F02D0504604F072
:1035D000C1FE8E4E06F5C570B6F852110DF0F6FE1E
:1035E000804678B905F0EEFA894B0022C3F898803E
:1035F000C3F89C80C3F8A080C3F8A420C3F8A82017
:10360000C3F8AC202B785B0741D582480368DF06FE
:103610003DD5814B1B78DC0639D4804B7C4C1F7820
:103620008FB196F8E231B8F1000F16D173B17C4B2F
:103630001A68D4F8B0309B1A002B07DA0CF0A6FEFB
:1036400084F8B48023E0B8F1000F19D1102004F001
:1036500081FE012384F8B43019E03BB1704A12684E
:103660004FF47A7101FB0323C4F8B03094F8B430FE
:103670006BB104F055FE664B002283F8B42006E0DF
:1036800094F8B4301BB104F04BFE84F8B4700022FF
:1036900096F8E09196F8E111B6F89A71B6F89CE1C7
:1036A0001346604C105F9B08B842C4BF63F07F03B1
:1036B000DBB202327045B8BF43F04003082AF0D1B4
:1036C000534C94F8B5209A4205D194F8B620F92AC3
:1036D00004D8013200E0002284F8B62084F8B53026
:1036E0004E4B514F1A789B46DAB93B68D80708D53C
:1036F000B8F1000F15D12B78DA0712D50CF09EFC2B
:103700000FE02B785B070CD5484B1B784BB1484B2F
:10371000DB7833B911B10CF039FE02E0B8F1000FDB
:10372000F9D094F8B620DFF8E8A0DFF81C81142A5D
:1037300040F09C809BF8002019F1000918BF4FF061
:103740000109C2B19AF8B5205F2A04D0B9F1000F7F
:1037500011D07D2A0FD12A7802F0040202F0FF0175
:1037600012B10CF013FE06E00B20029104F0F2FD02
:1037700002998AF8B6102B7803F0040303F0FF00D7
:10378000002B73D194F8B530214A572B11D1294B16
:1037900020494FF47A721A800B68180601D50DF093
:1037A0005DF9254B1B6813F008035FD1234A138092
:1037B0005CE018490968490715D55A2B13D1204BED
:1037C000197819B1187001221E4B1DE092F8B7301C
:1037D00083F0010382F8B7300BB10C2000E00D201C
:1037E00004F0B8FD42E05D2B00F050855B2B00F04B
:1037F0004F855E2B2AD100F04DBDA72B40F02D85C3
:10380000054B1A7842F004021A702FE06807002076
:1038100048190020B40500205D0700201100002099
:10382000C8430020E00F002014100020A80500204D
:103830009C1100200817002060070020840F002042
:10384000390F00203A0F00209C0E0020562B03D188
:1038500002930CF03FFA029B9BF80020002A00F034
:10386000F3846F2B40F0EA840CF0E8FBA74A13685E
:103870005B0731D594F8B7309BB12B785C0710D536
:10388000A34BB3F90620B6F89A319A4209DD3B689A
:1038900013F0010305D19F4A322111809E4A82F81C
:1038A000B7303B68D8030AD59C4B1A782AB99C4A92
:1038B000127812B9974A3221118001220BE0984BFD
:1038C0001A784AB12A7802F0040202F0FF011AB90C
:1038D0001970944B01221A70D8F80090002309F156
:1038E000790B3B6009F17B0498460BF1020303EB73
:1038F000080113F808204B7814F8010C9A420AD2F8
:10390000214605F0E4FB30B114F8023C01229A4054
:103910003B6813433B6008F10408B8F1500F04F111
:103920000404E2D1804B1F7857B1804FDFF8149226
:103930003B68DFF8148213F0020F40F043833AE350
:1039400009F1C90B09F1CA040BF10103D919DA5DB8
:103950004B7814F8010C9A4229D2214605F0B7FBA6
:1039600028B394F802E0724B207994F803900EF19A
:10397000FF3E0EEB4E0E9E44674B4FF00C0C03F1D6
:10398000B8080CFB00FC08EB0C014A6872450ED02D
:10399000002208F80C908A60012202FA00F093F8E5
:1039A000E820C1F804E022EA000083F8E8000637C6
:1039B000482F04F10604C7D15E4BDFF890911C68D4
:1039C0005D4BD3F800B05D4B1B7803934FF00008BC
:1039D000D9F80030002B00F0E5821F78002F00F0AE
:1039E000E182D9F80420C2EB0B02002A0DDB0BF5B3
:1039F000FA72C9F80420484A012192F8E80001FA55
:103A000008F120EA010182F8E810039A002A00F088
:103A1000C98219F8041C58783F4A0431C9B20028F9
:103A200040F07E823A4830F91110B6F8980100F162
:103A3000C80E714502DD93F802A014E0C838814237
:103A400003DA9B78C3F1000A0DE092F8E810012335
:103A500003FA08F321EA030382F8E8300BF5FA735E
:103A6000C9F804309EE292F8E83043FA08F3D90727
:103A700000F19882BAF1000FCCBF0220012004F0BF
:103A80008BFC7B1E132B00F28482DFE813F0140002
:103A900021002E00610079008000E6004801AE019F
:103AA000DE011702820261006F008000E60048011B
:103AB000B6001A017E0127785744FA2FA8BFFA27CB
:103AC00027EAE7772046277004F088FA01201AE0F9
:103AD00067785744642FA8BF642727EAE777204612
:103AE000677004F07BFA02200DE0E778144B57442E
:103AF000642FA8BF642727EAE777E7702046196894
:103B000004F026FA03203946CCE100BFB4050020BA
:103B1000E00F0020200F002048190020380F00205F
:103B2000390F00203A0F00200A170020141000203F
:103B30003C8B0108B0100020C8430020A8050020DD
:103B4000241C00206007002018100020041A002008
:103B5000617951446429A8BF642121EAE17161714E
:103B60000D2006F0C7FD0D2F00F01382217951447E
:103B70006429A8BF642121EAE17121710E2091E13D
:103B8000A179514481F30801A17105208AE1C74B55
:103B90001B681A78022A22D107EE90AAB8EEE70A2B
:103BA000F2EE047A80EE270AD3ED097A30EE270A86
:103BB000B5EEC00AF1EE10FA09D4DFEDBD7AB4EE2D
:103BC000670AF1EE10FAC8BFB0EE670A01E09FED98
:103BD000B90A83ED090A0F2006F0A0FD0AE09978E2
:103BE0005144C829A8BFC82121EAE17199700F206A
:103BF00006F080FD0F2F00F0CC81AC4B1B681A78CB
:103C0000022A20D107EE90AAB8EEE70AF2EE047A73
:103C100080EE270AD3ED087A30EE270AB5EEC00A07
:103C2000F1EE10FA09D4DFEDA27AB4EE670AF1EEF4
:103C300010FAC8BFB0EE670A01E09FED9E0A83ED5F
:103C4000080A12205FE159785144C829A8BFC82149
:103C500021EAE1715970122024E1944B1B681A7813
:103C6000022A20D107EE90AAB8EEE70ADFED907A9B
:103C700093ED0C7A80EE270A30EE070AB5EEC00A03
:103C8000F1EE10FA07D4B4EE670AF1EE10FAC8BFED
:103C9000B0EE670A01E09FED870A83ED0C0A102061
:103CA00006F03CFD0AE0197B5144C829A8BFC82191
:103CB00021EAE1711973102006F01CFD102F00F0AD
:103CC00068817A4B1B681A78022A1ED107EE90AAE7
:103CD000B8EEE70ADFED767A93ED0B7A80EE270AED
:103CE00030EE070AB5EEC00AF1EE10FA07D4B4EED2
:103CF000670AF1EE10FAC8BFB0EE670A01E09FED67
:103D00006D0A83ED0B0A1320FDE0D97A5144C829CE
:103D1000A8BFC82121EAE171D9721320C2E0634B28
:103D20001B681A78022A22D107EE90AAB8EEE70A99
:103D3000DFED617A80EE270AD3ED0F7A30EE270AA5
:103D4000B5EEC00AF1EE10FA09D4DFED597AB4EEFF
:103D5000670AF1EE10FAC8BFB0EE670A01E09FED06
:103D6000550A83ED0F0A112006F0D8FC0AE0997D70
:103D70005144C829A8BFC82121EAE17199751120D1
:103D800006F0B8FC112F00F00481484B1B681A782C
:103D9000022A20D107EE90AAB8EEE70ADFED467AB4
:103DA00080EE270AD3ED0E7A30EE270AB5EEC00A70
:103DB000F1EE10FA09D4DFED3E7AB4EE670AF1EEC7
:103DC00010FAC8BFB0EE670A01E09FED3A0A83ED32
:103DD0000E0A142097E0597D5144C829A8BFC82174
:103DE00021EAE171597514205CE0304B1B681A78A8
:103DF000022A20D107EE90AAB8EEE70AF2EE047A82
:103E000080EE270AD3ED0A7A30EE270AB5EEC00A13
:103E1000F1EE10FA09D4DFED267AB4EE670AF1EE7E
:103E200010FAC8BFB0EE670A01E09FED220A83EDE9
:103E30000A0A092067E0D9785144C829A8BFC821D7
:103E400021EAE171D97009202CE0184B1B681A781F
:103E5000022A1ED107EE90AAB8EEE70ADFED147A27
:103E600093ED0D7A80EE270A30EE070AB5EEC00A10
:103E7000F1EE10FA07D4B4EE670AF1EE10FAC8BFFB
:103E8000B0EE670A01E09FED0B0A83ED0D0A0A20F0
:103E900039E0597B5144C829A8BFC82121EAE17102
:103EA00059730A2006F026FC73E000BF281C00208E
:103EB0000000C8420000000000007A44B34B1B68B9
:103EC0001A78022A22D107EE90AAB8EEE70ADFEDAF
:103ED000B07A80EE270AD3ED107A30EE270AB5EEDD
:103EE000C00AF1EE10FA09D4DFEDAA7AB4EE670A3F
:103EF000F1EE10FAC8BFB0EE670A01E09FEDA60A26
:103F000083ED100A0B2006F009FC42E0D97D5144F4
:103F1000C829A8BFC82121EAE171D9750B20C1E7E2
:103F2000012836D198789D4B33F91110B1F5617F96
:103F300005DB40F633039942B8BF0B4601E04FF46E
:103F400061730C2F25D14FF4966191FBF0F1A3F52D
:103F5000617393FBF1F392F8E9105FFA83FA51452C
:103F600017D0BAF1030F94BF5146022182F8E9102D
:103F70008B4A07FB016101F2F261116004F048F81D
:103F80003846514606F0B6FB0AF10100C0B204F013
:103F900003FA844B012293F8E81002FA08F20A436C
:103FA00083F8E82008F10108B8F1040F09F10C09C1
:103FB0007FF40EADB9E47C480368DA0511D57B4B7C
:103FC000DB7873B1D9F800309B070AD5B8F8003018
:103FD00013F001040AD104F0F5FD012004F0F4F916
:103FE00004E0012004F000FA012300E000233A6815
:103FF00054070DD563B1012004F0F6F9B8F800308C
:10400000980708D404F0DEFD022004F0DDF902E098
:10401000022004F0E9F9B8F80040654B14F0030FF2
:104020004FF4004214BF5A831A83D9F8003099061E
:1040300008D43B681A0540F1D5804FF4807004F035
:10404000C3F9D3E05B4B1B789B0767D55A4B1B78B2
:10405000042B63D93B6813F4007904F010040DD0ED
:10406000002C4ED1102004F0AFF9202004F0BCF950
:104070005248011D09F0BCFB02223EE0A4B234B15B
:10408000102004F0B1F94E4B012483F800903B68F6
:1040900058052AD54B4B1B685A894B4BB3F9001076
:1040A0000029B8BF4942914209DAB3F90230002B26
:1040B000B8BF5B429342ACBF0023012300E0002362
:1040C0009BB1B8F8003099061CD4202004F07CF98C
:1040D0003E483F4B011D1A685B684360026009F06F
:1040E00087FB374B01241C700CE0B8F800309A06AF
:1040F00008D5202004F078F90022314B01241A70F1
:1041000000E00024DFF89C8098F8EA309BB90E208C
:1041100004F020F9012388F8EA300CE014F0300FA5
:1041200087D0102004F060F9202004F05DF9244BC2
:1041300000221A7002E0002C3FF47BAF00221346ED
:104140002448254C0021195224481952244804EBD4
:10415000020E19520020CEF80000CEF80410CEF85E
:10416000080004F1280E5034964414440233042B02
:10417000CEF80000CEF80410CEF808002060616090
:10418000A06002F11402DBD153E700BF281C00201D
:1041900000007A440000C84200000000E00F002048
:1041A000B010002048190020B40500209C11002008
:1041B000000C02405D0700205C070020301C00203E
:1041C000441C0020A4100020961000203C1C00205D
:1041D0000C1D002000170020341A0020A810002019
:1041E000AC1000204FF4807004F0FEF87379082BB7
:1041F00001D00E2B02D1402004F0F6F83D490B68A7
:104200005B0573D596F818321BB92B7813F0040FA1
:1042100002E03B6813F4002F0BD0374B002283F8E9
:1042200064213C200BF0A8F900285FD003F02AFE9F
:10423000F7E70FF04DFB0FF00DFB57E0B9F1000F62
:1042400002D07E2B3FF410AB972B7FF4D6AA2B4BDA
:104250004FF4C8721A80FFF709BB0022BB2B0792EC
:1042600001D1022303E0B72B04D14FF6FE73ADF862
:104270001E301FE0BE2B01D1022304E0BD2B7FF4D2
:10428000F5AA4FF6FE73ADF81C3013E0012002E0F2
:10429000022000E003205FFA80F909F1FF3386F87D
:1042A000F0360CF0CBFF05F0DBFD484604F074F867
:1042B000FFF7DCBAD8F80030BDF81C10B3F858206E
:1042C0000A44A3F85820BDF81E10B3F85A200A4437
:1042D000A3F85A200CF0B2FF05F0C2FD012004F053
:1042E0005BF8002384F8B630FFF7C0BA09B0BDE828
:1042F000F08F00BFB4050020481900200E0F0020E9
:104300002DE9F04FCA4ACB4BD2F800E0B3F90600D2
:10431000BEF80A302DED028B984285B00FDBB0F568
:10432000FA6F9EF8077007DAC21A5743A3F5FA63CB
:1043300097FBF3F7643703E0C7F1640700E06427F5
:10434000BD4BB3F898210292BC4A93F96231D2F87E
:1043500000C09BB20021039364460A46B54B029D00
:1043600031F903B0C5EB0B0303F2F31640F2E63567
:10437000AE4203D8002BB8BF5B4201E04FF4FA73A2
:10438000022A4FF06406AE4D2ED09CF81181B8F190
:10439000000F04D04345CCBFC8EB0303002393FBBD
:1043A000F6F86FF0630A35F818900AFB083A08F13E
:1043B000010835F918800FFA89F5C5EB080505FBEA
:1043C0000AF595FBF6F5A9449E4D21F805900EEBF4
:1043D00002052D796B439C4D93FBF5F364339BB23F
:1043E0007B4393FBF6F630E09CF81281B8F1000FA6
:1043F00004D04345CCBFC8EB0303002393FBF6F680
:104400006FF0630905EB460809FB063A05EB460623
:10441000B8F90E80B6F910508A4EC8EB050505FBB9
:104420000AFA9AFBF9FA039DC8EB0A0808FB05F89B
:10443000A6F804809EF8065083EAE376A6EBE376BE
:104440006E43814D96FBF5F664360CEB02087C4B0F
:1044500098F8019003F11C054FF0640806FB09F978
:1044600099FBF8F902F8059094F80B9003F11F05F9
:1044700006FB09F999FBF8F902F8059094F81590F4
:1044800003F1220506FB09F6022A96FBF8F65655BB
:104490001D4616BF253383F82780D754029B694EEB
:1044A0009B4502DA735A5B4273520231062902F1CC
:1044B000010204F101047FF451AF5F4CB4F89A316A
:1044C000984205DBB0F5FA6FA8BF4FF4FA6000E040
:1044D0001846C01A4FF47A725043C3F5FA63B0FB22
:1044E000F3F34FF0640E93FBFEF205EB42016FF025
:1044F000630000FB023305EB4202098DB2F92A008A
:10450000504F0AB2821A534393FBFEFE4F4B1B8857
:104510007144F180590636D54D4BDFED4E7A1A883D
:10452000474BB3F84030D31A1BB208EE903AF8EE7E
:10453000E88A68EEA78AB0EE680A0CF0CBF9B0EE14
:10454000408AB0EE680A0CF062F9B7F90220B7F9B8
:10455000003006EE902A07EE903AF8EEE66AF8EEA2
:10456000E77A20EE667AA7EE887A67EE807ABDEE6B
:10457000C77AE6EE887A17EE103AFDEEE77A3B80CE
:1045800017EE903A7B80344B1A6812F0020F9A466D
:1045900000F09680314B6A6C1B68294F9A1A45F2DD
:1045A00007218A4240F38C807B6404F083FE2C4B0D
:1045B000DFF8B8801A78032A9946B8F8003022D17B
:1045C0000A2B2CD90023282089F8003003F027FF7C
:1045D00004F070FEB7F8480003F06AFB214B224953
:1045E0001B68DA7890FBF2F0421C082A28BF0822E8
:1045F0000A7059791B7992B251435A43A7F84A106D
:10460000A7F84C200BE00A2B09D80323164A89F897
:10461000003000231370A7F84A30A7F84C3099F8FF
:1046200000200F4B012A2DD022D3022A3ED047E092
:10463000B0100020E00F0020680700209C0E002032
:10464000B01A0020961000200CFEFFFF181000206A
:10465000840F002035FA8E3CB4050020FC160020A3
:10466000501D0020F01C002029000020F41C002018
:10467000B5F84A20B8F800309A4221DD012389F8C4
:10468000003011E0B8F80020B5F84C10914202DD7E
:1046900002221A7011E09E49B1F84A1001318A4293
:1046A00002DD00221A700BE0082007E0B5F84C305C
:1046B000B8F8002001339A42E0DC072003F04AFEFC
:1046C000DAF800703A0574D5924B296D1A68904B50
:1046D000C1EB020B45F207218B456ADD8E48B6F926
:1046E0000690D0F800801A6598F80A00B4F85211C4
:1046F0008A4E4FF47A7201289BFBF2FBA9F57A7976
:1047000003D03FD302281CD03EE0586D082190FB17
:10471000F1FECEEB000090FBF1F14FF0000E58657A
:10472000A3F858E089B2B8F8083040F6E4404143B5
:10473000C3EB1131B8F906304A4392FBF3F2326011
:1047400022E0774BB8F808A01B78C6F800A05B07FA
:104750001AD574480CF03AFE20B917F0100F18BFA4
:104760004FF0000909FB09F2322392FBF3F399445D
:10477000B8F906304FF47A7203FB09F393FBF2F3B6
:10478000534400E0002333603368674AD5E91801D9
:1047900003FB0BFB4FF47A739BFBF3FB10EB0B005B
:1047A00041EBEB710023C5E918010FF083FB5F4B70
:1047B00018605F4B1A6812F4805F984626D03F0657
:1047C00021D55C4B1B789E071DD55B4B19780429BE
:1047D00019D90023594E05229A551E44981C0A27C0
:1047E000122BC2B2777004D0B1EB520F0346F1D84E
:1047F00000E014222A44322382F86730FF2382F833
:1048000068300F2000E00A2003F0A4FDD5F8807086
:104810003F4E002F46D04A4BD6F8842019688A4272
:104820009A463FD896F88830B6F88A907A68ABB93D
:10483000012386F8883012F80920CAB186F88C3036
:1048400003F048FDB9F1000F12D13B78053B012B75
:104850000ED803F010FCC6F8900009E0002386F89B
:10486000883012F809201AB186F88C3003F032FD36
:10487000B5F88A107A68264B525CFE2A03D10022D2
:10488000A3F88A200EE0FF2A02D103F049FD09E0D7
:10489000DAF800000A2616FB02020131C3F8842070
:1048A000A3F88A101E4E3278500704D5254B4FF4DA
:1048B00080425A835DE0D8F80030D9075CBF42F0EF
:1048C000010232701B4A1278120703D4327822F0A8
:1048D00001023270DF0203D5337823F00103337015
:1048E000194B1B881BB1194B1B68980705D4184B33
:1048F0001B88003318BF012300E0012353B30223B8
:1049000085F88C30337823F00103337028E000BF42
:10491000B01A0020FC160020F01C0020FC1C002017
:104920000B170020F2080020407E0500001D00202B
:10493000141000205D0700205C070020181B0020D9
:10494000C8430020000C02400E0F0020600700202A
:10495000081700203278D10758BF022385F88C3021
:1049600003F089FBD5F89430C01A002801DB03F06E
:10497000B1FC0EF0ADFFC04B1A78002A78D0D5F804
:104980009830002B00F06386D5F89800BB4C03F0FC
:10499000E1FD002800F05B86D4F8980003F0D5FD17
:1049A000092801D03F2855D14FF00008D5F89C6068
:1049B000B34F44462EB1B3483968324610F0DAF9A5
:1049C00010B9B84604B93C46AF4B10379F42F1D3FB
:1049D00004B3D4F800E0D8F800C0D5F89C30A7485C
:1049E0001EF803701CF80310B94213D15A1C59B9B0
:1049F0002D2B09D8C0F89C2003440244202783F8BB
:104A0000A07082F8A01005E02B44C5F89C2083F824
:104A1000A070E2E7D5F89C300BB1444510D09B481C
:104A200003F0FAFD444507D854F8100B03F0F4FDE9
:104A3000092003F0EAFDF5E7954803F0EDFD0026B7
:104A4000D5F89C309E429FD28E4B985D03F0DDFDE1
:104A50000136F5E7D4F89C30002B40F0248604287A
:104A600040F01B8604F1A0000CF084FD00F0EFBDC7
:104A7000884F97F84A30012B40F0E485DFF8348204
:104A8000854B3A68C8F800701A60C246DFF8089291
:104A90004A46106803F05EFD002800F0C185D9F891
:104AA000000003F052FDDAF8003093F84810834616
:104AB00019B924283FD101223AE0012904D14D2817
:104AC0000CBF0222002233E0022904D13C280CBF93
:104AD000032200222CE003290CD140284FF00001D2
:104AE00002D983F848104DE058711971D971987145
:104AF00004221DE0042907D1997983F8490080EA4E
:104B000001029A71052213E005293BD158791979E0
:104B10008842987908D98BEA00009871481C18716E
:104B20000B4483F808B02DE058450CBF0622002244
:104B300083F8482026E03178584B4A0722D4BBF14D
:104B4000230FD9F8001012D14B4AC5F89810012054
:104B500010705348C5F86811019303F05DFD4C488F
:104B600003F05AFD019B197841F002011970D5F844
:104B70006C311B785B4505D14A4B4B4A1A604B4B55
:104B80004B4ADA60DAF80030DFF8289193F84820D1
:104B9000062A7FF47BAF93F8490000F03BFE002823
:104BA00040F03485D9F8002092F849304E2B00F0BF
:104BB000B18400F29580372B00F0EA8421D8292BAC
:104BC00000F0748409D8252B00F03584272B00F0E1
:104BD0004F84232B40F05E85E3E02D2B00F077849B
:104BE00007D82B2B40F0568503F01EF9607100F0BA
:104BF0000ABD332B00F0BA84352B00F0478200F059
:104C000049BD412B00F0B7840AD83C2B00F010813D
:104C10003E2B00F00081392B40F03C8500F035BC84
:104C2000442B00F0ED8447D8432B40F0338503F04C
:104C3000FBF80023A360607103F00AF9A36818432E
:104C4000A06003F0F1F884F8920103F0F7F8A4F8FB
:104C50005C0103F0F3F8A4F85E0103F0EFF8A4F8A8
:104C6000600103F0EBF8A4F8820103F0E7F8A4F880
:104C7000840100F0C8BC00BF0A170020B01A002051
:104C8000788B0108501B0020088D0108748F0108E3
:104C9000798F0108801B0020AC1D00200B1700201D
:104CA000A98F0108FCFF0120EFBEADDE00ED00E0A2
:104CB0000400FA05A81D00204A2B00F0B5804C2BFB
:104CC00040F0E88403F0B0F884F8D80103F0ACF8C1
:104CD00084F8D90103F0B2F8A4F8DA0100F093BC2B
:104CE000D12B00F06B831AD8CC2B00F00B8209D8A3
:104CF000C92B00F03B83CA2B00F0A880C82B40F0E2
:104D0000C98444E0CE2B00F02383C0F01883CF2B5E
:104D100000F04C82D02B00F0078300F0BBBCD62BF8
:104D200000F07E8207D8D32B2BD017D3D42B00F0E2
:104D3000838200F0AFBCEF2B5ED007D8D82B08BF22
:104D40004FF0000A00F0158100F0A4BCF22B00F037
:104D5000C382FA2B00F0068300F09CBC337803F08A
:104D6000040303F0FF09002B40F04D8403F05CF8CE
:104D7000022884F8F00640F2DD82D94B83F8F096E1
:104D8000D8E203F05BF8A5F8700100F03CBC92F8A3
:104D900005A04FEA5A0ABAF1120F1CD84FF00009C9
:104DA0001DE003F041F8132815D8DFF844A3DAF822
:104DB000003000F11E0B03EB8B0B03F035F8C94BF1
:104DC0000BF1010903F5A872197A814200F03F81C5
:104DD0000C339342F8D10AF0CBFB00F014BCD14560
:104DE00007D203F02BF8C04B23F8190009F1010991
:104DF000F5E70122BD4BB3E2DFF8F492D9F800A049
:104E000003F01CF8AAF85A00D9F8009003F016F83D
:104E1000A9F85800F7E303F007F884F8E20103F07B
:104E200003F884F8E101EEE303F008F8A081EAE377
:104E3000DFF8BC92D9F800A002F0F6FF8AF8000073
:104E4000D9F80030187803F087FEDCE3A84B1A6825
:104E50001278022A4FF0000A99466FD1D9F800B0B3
:104E600002F0E2FF07EE100AF8EE477AB2EE048A8B
:104E7000C7EE887A0BEB8A03D9F800B0C3ED087A45
:104E800002F0D2FF07EE900AB8EE677ADFED997A6A
:104E9000C7EE277A0BEB8A03D9F800B0C3ED0B7A83
:104EA00002F0C2FF07EE900AB8EE677ADFED927A61
:104EB000C7EE277A0BEB8A030AF1010ABAF1030F56
:104EC000C3ED0E7ACAD1BAF1070FD9F800B01CD1E0
:104ED00002F0AAFF07EE100AF8EE477AC7EE887ACA
:104EE000CBED117AD9F800B002F09EFF07EE100A60
:104EF000F8EE477AC7EE887ACBED127AD9F800B08F
:104F000002F092FF8BF84C0012E002F08DFF0BEBE9
:104F10000A035870D9F800B002F086FF0BEB0A03C1
:104F2000D9F800B0D87202F07FFF0BEB0A03587576
:104F30000AF1010ABAF10A0FC5D164E3D9F800B049
:104F400002F072FF0BEB0A035870D9F800B002F0C0
:104F50006BFF0BEB0A03D9F800B0D87202F064FFC4
:104F60000BEB0A030AF1010ABAF10A0F5875E5D1F1
:104F700049E3DFF87C919FED608AD9F800B002F038
:104F80005DFF07EE100AF8EE477A0BEB8A03C7EED7
:104F9000887AD9F800B0C3ED087A02F04FFF07EE27
:104FA000100AF8EE477A0BEB8A03C7EE887AD9F835
:104FB00000B0C3ED0B7A02F041FF07EE100AF8EEE5
:104FC000477A0BEB8A03C7EE887A0AF1010ABAF135
:104FD000030FC3ED0E7ACCD1BAF1070FD9F800B0A8
:104FE0001CD102F02BFF07EE100AF8EE477AC7EE4D
:104FF000887ACBED117AD9F800B002F01FFF07EEE6
:10500000100AF8EE477AC7EE887ACBED127AD9F813
:1050100000B002F013FF8BF84C0012E002F00EFF1C
:105020000BEB0A035870D9F800B002F007FF0BEB46
:105030000A03D9F800B0D87202F000FF0BEB0A03A4
:1050400058750AF1010ABAF10A0FC5D1DBE21B78E3
:105050008BF8013002F0E8FE89F8010002F0E4FE6E
:1050600089F8020002F0E0FE89F80300DAF8000097
:10507000224BC5F8780100217930C5F8743102F06F
:10508000E9FF1F4B80F001001870BCE202F0CCFE7B
:105090000B283FF6A0AE164B4FF0060A0AFB00F0B5
:1050A0001B68C83003EB000A02F0BEFE03283FF67F
:1050B00092AE8AF8060002F0B7FE8AF8010002F00C
:1050C000B3FE8AF8020002F0AFFE8AF8030002F095
:1050D000ABFE8AF8040002F0A7FE8AF8050092E20F
:1050E00068070020088D0108E00F00200D07002050
:1050F0009C0E00200000C84200007A44AC0800204A
:10510000110000205379092B7FF665AECD4AD2F805
:1051100000A002F089FECB4B8AF80000D3F800A073
:1051200002F082FE8AF8010002F07EFEC54A136892
:105130006428A8BF6420187102F076FEC14A136883
:105140006428A8BF6420587102F06EFEBD4A13683F
:10515000FF28A8BFFF20987102F066FEB94BD3F874
:1051600000A0642828BF64208AF8070002F05CFED3
:10517000B44A8AF80200D2F800A002F055FEB14B02
:105180008AF80300D3F800A002F058FED9F80030E6
:10519000AAF80A005B790A2B40F23582A94BD3F8B2
:1051A000009002F041FE89F808002CE202F046FE71
:1051B0006FF4AF6E00EB0E039BB2C62B98BFA4F842
:1051C000980102F03BFEA4F8440102F037FEA4F877
:1051D000460102F033FEA4F8480102F02FFEA4F8C5
:1051E000DA0102F021FE84F8EF0102F01DFE02F068
:1051F0001BFE84F8F00102F017FE84F8870102F02C
:1052000013FE84F8940102F00FFE8F4BD3F8009048
:1052100002F014FE00EB80004000A9F8560034E1D3
:10522000814602F00BFE894B23F8090009F10209BF
:10523000B9F1100FF5D1E6E153790F2B7FF4CBAD27
:1052400002F0F2FD072881463FF6C5ADDFF8F8A170
:10525000DAF800B002F0F2FD0E2303FB09F90BEBC4
:105260000903DAF800B0A3F8190102F0E7FD0BEB2F
:105270000903DAF800B0A3F81B0102F0DFFD0BEB25
:105280000903DAF800B0A3F81D0102F0CDFD0BEB25
:105290000903DAF800B083F81F0102F0C5FD0BEB3B
:1052A0000903DAF800B083F8200102F0BDFD0BEB32
:1052B0000903DAF800B083F8210102F0B5FD0BEB29
:1052C0000903DAF800A083F8220102F0C1FD0AEB1D
:1052D0000903C3F8230196E102F0A6FD0F288146D9
:1052E0003FF679AD02F0A0FDC9EBC909A14489F8E8
:1052F000D40002F099FD89F8D50002F095FD89F8F7
:10530000D60002F091FD89F8D70002F08DFD89F8F2
:10531000D80002F089FD89F8D90002F085FD89F8EE
:10532000DA0003F07DFB6EE13378590700F16B8101
:1053300008F0C8FD0BF082FF04F092FD63E13378C2
:105340005A0700F16081424B4FF4C8721A805AE14B
:1053500033785B0700F157813E4B1A7842F0040224
:105360001A7050E133785807E4D593E102F05CFD00
:10537000384B1A7810B142F0020201E022F002022A
:105380001A7002F051FD344BDFF8E090187002F013
:105390005FFDC9F8000002F05BFDC9F8040002F0EF
:1053A0004DFD2E4B188002F049FD2D4B188095F8CD
:1053B0007C3143F0020385F87C3124E102F034FDB6
:1053C000019002F045FD834602F042FD824602F064
:1053D0003FFD814602F032FD02F030FD02F024FD77
:1053E000019B9BB91020C5F880B1C5F884A102F0DB
:1053F000FBFF184B1A7842F001021A70B9F1000F46
:1054000000F00181174BC3F88891FCE0102B40F0AD
:10541000FA80C5F88CB1C5F890A1B9F1000F02D09F
:10542000104BC3F8889110480223011D85F8943170
:1054300008F0DEF9E7E0A06002F00AFDA368184377
:10544000A060E0E0B01000209C0E0020CE110020F3
:105450000E0F00205D0700205C070020061D0020C5
:10546000041D0020B01A00203C1C00200C1D002050
:1054700002F0E4FCA4F85C0102F0E0FCA4F85E0198
:1054800002F0DCFCA4F86001BDE002F0CDFC84F881
:105490007C0102F0C9FC84F8800102F0C5FC84F8AC
:1054A0007F0102F0C1FC84F88101ACE002F0C6FC8F
:1054B000A4F8820102F0C2FCA4F8840102F0B4FC5A
:1054C00084F8860102F0BAFCA4F888019BE002F09F
:1054D000ABFC84F8920102F0B1FCA4F89C0102F04C
:1054E000ADFCA4F8980102F0A9FCA4F89A0102F01E
:1054F0009BFCD9F8003084F893015B79082B40F2CB
:10550000828002F09BFCA4F89E0102F097FCA4F8B4
:10551000A00178E092F805B00323BBFBF3FBBBF1DD
:10552000120F3FF658ACDFF8E8928246DA456AD2AD
:1055300002F07AFC89F8A20102F080FC40F2ED232F
:10554000984205DD40F6CA039842A8BF184601E01C
:1055500040F2EE20A0F2EE20192390FBF3F089F840
:10556000A3010AF1010A09F10209DFE702F05CFC7C
:1055700084F8940147E0814602F056FC04EB0903ED
:1055800009F10109B9F1080F83F88A01F4D13AE071
:1055900053794FF0070AB3FBFAFACAEBCA029B1A17
:1055A00013F0FF0F7FF417AC5FFA8AFABAF1000F1D
:1055B00029D002F039FC5FFA80FB4FFA8BF002F041
:1055C00081FC0AF1FF3A5FFA8AFA814600283FF42B
:1055D00002AC80F800B002F031FCA9F8020002F041
:1055E00023FC89F8040002F01FFC89F8050002F092
:1055F0001BFC89F8070002F017FC89F80600D5E7C4
:10560000012385F89531002002F0EAFFD8F8003038
:10561000987902F0B6FFD8F80030002283F84820CD
:1056200095F8953173B1386802F07AFF18B93220D5
:1056300002F0F5FEF7E70BF053FF02F049FF604B75
:10564000604ADA60604B4C379F427FF412AA5F4B8E
:105650001B68990616D55E4BD5F898211B689A1AD7
:10566000002A0FDB5B4A1278042A0BD95A4A03F549
:10567000123303F5F873C2F89831584B5A6982F423
:1056800000425A61564B9B68002B00F093805548AE
:1056900098478FE009F06CFFB8E70C2825D15248F5
:1056A00002F0BAFF1FE00C28F9D00A2821D14A4C99
:1056B0004E4804F1A00602F0AFFF304623210FF060
:1056C00044FB10B1801BC4F89C00D5F89C30BBBBD8
:1056D00030224748C5F89C3000210FF003FB454AB3
:1056E0001378002BB3D044480FE07F2814D1FFF784
:1056F0004BB90D28DBD07F280BD1013BC4F89C307F
:10570000234400223D4883F8A02002F085FFFFF7E4
:105710003BB92F2B3FF638A9A0F12002D2B25E2A66
:105720003FF632A913B920283FF42EA95A1C2B4466
:10573000C5F89C2083F8A00002F067FFFFF724B9AA
:10574000591E254A705C202801D10B46BFE7C2F8DC
:105750009C301344002283F8A020294B294CD3F815
:1057600000A0D4F80090DFF8708048460FF0FAFAF5
:1057700008F1A00706464946384632460FF0FAFAC5
:10578000214B38B908EB060292F8A0205244527817
:10579000520703D010349C42E3D306E09C4204D26B
:1057A000701CE3683844984702E0184802F034FF60
:1057B00000238DE705B0BDEC028BBDE8F08F00BF84
:1057C00000ED00E00400FA05181C0020600700202E
:1057D000FC1600205C070020B01A0020000C0240DC
:1057E000840E0020EE1C00207E8F0108D39F01084C
:1057F000501B00200A170020798F0108A58F01088F
:1058000038010020788B0108088D0108898F010874
:10581000680700202DE9F04F2DED028B642889B038
:10582000044600F07A8100F29C80342800F0AC84B9
:1058300051D8222800F0728423D8032800F039813F
:1058400014D8012800F02981022840F0D3860420D2
:1058500002F0C6FE432002F094FE4C2002F091FEBE
:10586000462002F08EFE4C2000F05EBE042800F0C0
:105870002A81052840F0BE861A2002F0B1FE0024DD
:1058800032E1282800F0C88515D8242800F0AF851B
:10589000262840F0AF86A94C062002F0A1FEB4F8FD
:1058A0005C0102F0A0FEB4F85E0102F09CFEB4F8C8
:1058B000600100F06ABE2C2800F0C185322800F09B
:1058C0002D862A2840F09686012002F089FE9B4B07
:1058D000587900F029BE402800F0298621D83A28BE
:1058E00000F0AC820BD8362800F05286382840F001
:1058F0008186042002F074FE904C00F07EBD3B28AF
:1059000000F005843D2840F075868C4C022002F0A2
:1059100067FE94F8E20102F034FE94F8E10100F031
:1059200003BE462800F04D860BD8422800F00D86B5
:10593000452840F05F86132002F052FE002400F05C
:105940004ABE4B2800F09A854D2800F0C9854928A9
:1059500040F05086022002F043FE784B988900F018
:1059600014BE722800F075844AD86A2800F0B58405
:1059700024D8672800F0D58111D8652800F0F6807A
:10598000662840F03786122002F02AFE6C4B1B88F6
:10599000B3F5806F94BF012508250024A3E1682892
:1059A00000F02E82692840F02586664D287F400051
:1059B00000F0FE0002F014FE00242DE26D2800F03D
:1059C000368213D86B2800F0A7846C2840F012862A
:1059D0005D4C062002F004FE208802F004FE608880
:1059E00002F001FE594B188800F0CFBD6F2800F07F
:1059F0007582C0F04582702800F09A8200F0FABDEE
:105A0000782800F09B8118D8752800F0748308D896
:105A1000732800F05784742840F0EC850027012497
:105A2000D9E3762800F08884772840F0E385454D57
:105A3000287802F0D5FD0024FFE3A42800F0A2841A
:105A400014D87B2800F0FD82A02840F0D3850C20DC
:105A500002F0C6FD3E4B186802F0CEFD3D4B1868C3
:105A600002F0CAFD3C4B186800F0C0BDF12800F000
:105A7000A181FE2800F0AD84F02840F0BB85374CB2
:105A8000042002F0ADFD2368B3F85A0002F0ABFD2C
:105A90002368B3F8580000F078BD032002F0A0FDA1
:105AA000002002F06EFD204602F06BFD0D2000F09C
:105AB0003BBD02F095FD012002F063FD0A2002F0DB
:105AC00060FD00F05DBC062002F08AFD562002F069
:105AD00058FD522002F055FD422002F052FD5220A6
