:020000040800F2
:10000000A405002089010008993D0108393E010836
:10001000973D0108953D0108933D0108000000004F
:10002000000000000000000000000000913D0108F9
:100030008F3D0108000000008D3D0108193E0108B8
:10004000E5010008E5010008E5010008E5010008F8
:10005000E5010008E5010008E5010008E5010008E8
:10006000E5010008E5010008E5010008E5010008D8
:10007000E5010008E50100082D3C0108E501000844
:10008000E5010008E5010008E5010008E5010008B8
:10009000E5010008E5010008E5010008E5010008A8
:1000A0002D3B01085D3B0108E50100086D3B01089F
:1000B0004D3B0108E50100083D3B0108873D010873
:1000C000753D0108813D01086F3D0108E50100080B
:1000D000E5010008C53C0108E5010008213C0108D4
:1000E000293E0108E5010008553E0108E501000828
:1000F000E5010008E5010008E5010008E501000848
:10010000E50100089B3D0108E5010008E501000844
:10011000E5010008E5010008E5010008E501000827
:10012000E5010008E5010008E5010008E501000817
:10013000E5010008E5010008E5010008E501000807
:10014000E5010008E5010008E50100088534010823
:10015000E5010008893B0108D13C01087D3B01080D
:100160007B3D0108693D0108E5010008E501000843
:10017000E5010008E5010008E5010008E5010008C7
:10018000E5010008E5010008002100F004B80F4B6C
:100190005B58435004310E480E4B42189A42FFF40C
:1001A000F6AF0D4A00F003B8002342F8043B0B4BB6
:1001B0009A42FFF4F9AF0A48016841F47001016006
:1001C00013F08CFC00F010F87047000080A50108C7
:1001D00000000020A4010020A8050020E04300202A
:1001E00088ED00E0FFF7FEBF2DE9804899B001F0EF
:1001F00089FEB74CDFF8F0B22378DBF80050A14657
:100200002BB16368EB1A002BA4BF002323700AF004
:1002100089FB08B100232372E268170740F170815F
:10022000AB4B1B691B7A062B00F26081DFE813F0F1
:10023000070007003200EA00190147014701237D4A
:10024000A349002B00F0538100230B758B694F7D70
:1002500091F81CC093F800E0022309EB030603F1B8
:10026000010A717F9A48394101F00F0171450DD2A1
:100270000B290BD896F81D8000EB0A0600EB8101D4
:10028000767F08EA0C0006EB002008630233102B8F
:10029000E3D11BE194F860108D4B002900F0B08091
:1002A00093F8AE00002183F8601093F8AD1000F0D1
:1002B000070641EA0621596693F8AF1001F03F06A0
:1002C000760146EAD000986693F8B000800040EAD4
:1002D000911093F8B11001F0010640EA8620D8662B
:1002E00093F8B20000F00F06F60146EA51011967D3
:1002F00093F8B31001F07F06360146EA10105867F4
:1003000093F8B400400040EAD11193F8B50000F032
:10031000030641EA4621996793F8B61001F01F06DB
:10032000B60146EA9000D86793F8B700C00040EAEB
:10033000511193F8B900C3F8801093F8B81000F089
:10034000070641EA0621C3F8841093F8BA1001F0B9
:100350003F06760146EAD000C3F8880093F8BB0058
:10036000800040EA911093F8BC1001F0010640EAC9
:100370008620C3F88C0093F8BD0000F00F06F6014C
:1003800046EA5101C3F8901093F8BE1001F07F06C1
:10039000360146EA1010C3F8940093F8BF004000FD
:1003A00040EAD11193F8C00000F0030641EA46216B
:1003B000C3F8981093F8C11001F01F06B60146EA81
:1003C0009000C3F89C0093F8C200C00040EA5111AD
:1003D000C3F8A01093F8C310CE074CBF40F21470BE
:1003E000AD20C3F8A40088074CBF40F21473AD23BE
:1003F00011F0080FC4F8A8300CBF0123032376E0E6
:100400000B4674E094F8C53031490020002B6ED0C3
:1004100081F8C50091F8C710012903D081291ED1A8
:10042000032300E00B4694F8EB10102903D9284968
:10043000102081F8EB0094F8EB6026480021CFB241
:10044000B74200F1020052D210F8017C10F802EC21
:1004500047EA0E2E204F47F821E00131EFE703462F
:1004600045E094F82C111A4B00293FD0002183F865
:100470002C1193F82D11A82938D193F84031ABBB3A
:1004800009EB43019FED157A91F8300191F8311194
:1004900001EB002107EE901AF8EEE77A1049C7EE5B
:1004A000877A9FED107A77EEC77AFCEEE77A17EE3F
:1004B000906A41F823600133082BE1D106E094F8FB
:1004C0006431A3B1024B002183F8641101230EE0D3
:1004D000A80500207106002094060020CDCCCC4059
:1004E000EC0600200080BB43FC1600200023D90747
:1004F00006D583F002030121C3F340032172237068
:10050000570408D594F8653123B1AD4B002183F829
:1005100065110123237244F20803134033B1237A97
:1005200023B105F5C333A649A0334B60D6070ED5DA
:1005300094F8660194F86711A14B814207D001211C
:10054000197005F5C331A031596083F86701900433
:100550000AD500239A4901F5B470185A002841F0D1
:10056000A8840233182BF5D1237A33B9944BD3F8EE
:100570008031ED1AED43ED0F00E001252DB102F0C1
:10058000AFFD012384F8843133E1D4F888318C49FC
:10059000013303EAE373C1F88831110640F1298180
:1005A000D4F88C31B3B994F89031013B042B00F2AC
:1005B0002081DFE813F01600160016000B01DF00A3
:1005C0007F4BD3F88C010EF070FC0AF035FC08B1BB
:1005D0000DF0F8FBD9F88C010EF06CFC0028EFD17F
:1005E000E1E7D4F8B021764D167816B1012E12D07D
:1005F000FFE0012B00F2FD80724B95F89121D5F8B8
:100600008C010C2101FB023292F8212053F82210B8
:100610000EF046FC65E0D5F88C010EF031FC0028A8
:1006200000F0E78095F89031022B46D0032B54D090
:10063000012B40F0DE80644BD5F8A8211B689A1A84
:10064000C72A40F2D680D5F8A411042933D85D4AD0
:10065000C5F8A8310C2000FB0121D5F88C5191F888
:100660002110D5F808E00023164656F823007045FF
:10067000DFB204D00133082BF7D1002300E03B4662
:100680008B4205D0284652F821100EF009FCB0E04C
:1006900094F891310C2202FB0366766A16F8011B6E
:1006A00019B128460EF018FCF8E7D4F8A43101334C
:1006B000C4F8A4319DE0022099E0424B95F89121C5
:1006C000D5F88C010C2101FB023292F8212053F85D
:1006D00022100EF0E5FB032089E0D5F8B0319B78BD
:1006E0000BB9042083E095F8AC310BB985F8AC6107
:1006F00094F8AC31324D012B17D1D5F8A431B22B7F
:100700000DD8304AD5F88C01134493F85C100EF0E4
:10071000E3FBD5F8A4310133C5F8A43105E000238B
:10072000C5F8A431022385F8AC3194F8AC31244DDE
:10073000022B1AD1D5F8A4310F2B13D8D5F8B0213C
:1007400020495278D5F88C0102EB02120A44134476
:1007500093F810110EF0C0FBD5F8A4310133C5F8A1
:10076000A43102E0032385F8AC3194F8AC31022BBC
:100770003FD9B6E7D4F89821114B0132C4F898213B
:10078000D4F8B021D2785AB193F891210132D2B283
:100790000521B2FBF1F101EB8101521A83F891219D
:1007A000094B1B68C4F89C31002384F8B43194F8D9
:1007B000B53123F0020384F8B531012017E000BF02
:1007C000A80500208C660108C4430020B34BD4F870
:1007D0009C211968B24B8A1A40F6C4118A4208D982
:1007E000D3F8B82122F02002C3F8B821052006F082
:1007F0003BFF0EF064F994F8CF31CBF80000D4F849
:10080000BC5113B3A64B11A8D3F8E83898479DF80C
:1008100044309BB1D4F8F028DBF80030A04DD4F878
:10082000F4781344C4F8BC3105F6F800D4F8E03885
:10083000984705F6F806002870D00BE0994B1B6826
:100840005D1B962DE6D501F024BB451B002DE1DA9A
:1008500001F01FBB95F8FE28304631460DF066FFCB
:10086000914A1388002B4ED0D5F800391B78002010
:1008700008EE103A05F6041580468B49B1F800A041
:100880008A49BAF57A7F02D100230B502B6136F9E1
:1008900008C00B5863440B502B6905EE90CA013316
:1008A000012BF8EEE57A2B6140D10023C5ED017AEA
:1008B000C5ED007AAB607E490023BAF1010F26F83E
:1008C000083021F808305BD12B69012B49DD013B51
:1008D00000EE103AD5ED037AB8EEC00A87EE800A32
:1008E0000690059214F014FD0698059A18EE103A39
:1008F000D3B3F8EEC87AB4EEE70AF1EE10FA33DDBE
:100900004FF47A7313800023DFF8A4E1F05A3EF825
:100910000320821AF2520233062BF5D1D4F8B831F3
:100920005F4D13F0020300F0178340E095ED006A7D
:1009300005EE903A77EEC66AB8EEE57A86EE877AEB
:1009400036EE077A37EEC76AD5ED027A85ED017A81
:10095000E6EE867A85ED007AC5ED037AC5ED027A7A
:10096000A9E79FED540ABBE7504BDFF844C1C358D9
:1009700003F5FA7E4FF47A739EFBF3F32CF80830FC
:1009800008F10208B8F1060F00F1040005F11405A2
:100990007FF473AFBAF1010F04D15046059209F00C
:1009A000D9FB059A0AF1FF3AA2F800A0ABE7D5F807
:1009B000583905F51660984705F51668002800F0C7
:1009C000F8803D4B40461A7841460DF0AFFEB5F831
:1009D0006639002B44D00022D5F868091346B9F8CF
:1009E0006619DFF8DCE038F902C02D4DB1F5C87F9B
:1009F00004BF00214EF803105EF8031061444EF866
:100A00000310043300210C2B28F80210815202F14C
:100A10000202E4D1B5F86639012B1CD1D5F86C3946
:100A20004FF4C872C83393FBF2F30380D5F87039E2
:100A3000C83393FBF2F34380D5F87439C83393FB82
:100A4000F2F21E4B1B88D21A8280A7F85810A7F822
:100A50005A100BF0E5FEB4F86639013BA4F866398C
:100A6000E2680F4B520740F19080B3F87829322AA0
:100A700028D1D3F868291188A3F87A195188928867
:100A8000A3F87E29B7F85820A3F88029B7F85A2090
:100A9000A3F87C19A3F8822916E000BFC443002004
:100AA000A8050020FC16002008170020E80E0020F2
:100AB000F40E002000000000F816002000000020C6
:100AC000140F0020002A3ED00022D4F868A9104656
:100AD000B9F87839AC4938F902E0AC4D322B04BF93
:100AE00000230B500B5873440B50043000230C2888
:100AF00028F8023019462AF8023002F10202E7D142
:100B0000B5F87839012B19D185F8913985F8901904
:100B100009F020FBB5F87A39AAF80030B5F87C392D
:100B2000AAF80230B5F87E39AAF80430B5F8803951
:100B3000A7F85830B5F88239A7F85A30B4F87839A0
:100B4000013BA4F8783994F89229904BEAB1D3F894
:100B50008419D3F868093225002291FBF5F183F856
:100B600092290180D3F8881991FBF5F14180D3F8DF
:100B70008C3993FBF5F5864B1B88ED1A8580A7F819
:100B80005820A7F85A200BF04BFED4F86839B4F877
:100B900060191A888A1AA4F860295A88B4F8621968
:100BA0008A1AA4F862299B88B4F86429D31AA4F895
:100BB00064390DF084FFD4F89439764AD4F89C79DE
:100BC000C4F89409C3EB000A05EE90AA114691ED12
:100BD000006A3D78B8EE659A002329EE066A08326D
:100BE000194636F903E0DFF8C09107EE90EAF8EE17
:100BF000E77A0DF12C0C67EE867A0CEB4300C0ED22
:100C0000007AE5B105EE905AB8EEE57AF7EE006AA3
:100C100086EE877A38F9030007EE900AF8EEE77A55
:100C200067EE877A36EEC77AD2ED006AE6EE877A0B
:100C3000C2ED007AFDEEE77A17EE900A01E038F88F
:100C4000030029F8030039F803000233062B10FBD8
:100C5000001102F10402C4D1DFF834814E48B8F823
:100C60000030642569435B4391FBF3F5493DADB228
:100C70000BA90BF0D5F83B2D97ED017A464D12D913
:100C8000B4F9C019D5ED020A404B94F8B52107EE2E
:100C9000901AF8EEE77AF4EEE70AF1EE10FA1CDDAE
:100CA00042F008021BE0F7EE007A37EE276A2A4688
:100CB00087EE866A002339F903C00233062B07EE5C
:100CC00090CAD2ED006AF8EEE77AE6EE877A67EE30
:100CD000866AE2EC016AEED1D2E722F0080295EDD5
:100CE000010A83F8B52114F011FBDFF8C09095EDEF
:100CF000027AD5ED017A89ED000AF0EE408A27EEFE
:100D0000070A95ED008ADFED259AA7EEA70A14F0F1
:100D1000FFFAB1EE488AF0EE400AB0EE480A14F04D
:100D2000F5FAB0EE408A89ED010A28EEA90A14F01E
:100D3000EDF928EE290AA4F8CC0914F0E7F9D4F863
:100D4000B831A4F8CE091B0732D509F10C000BA964
:100D50000BF066F897ED027AF7EE007A37EE276A25
:100D600009F10C0387EE866A09F11809D3ED006AD0
:100D7000DFED0B7AE6EE877A67EE866AE3EC016ACE
:100D80004B45F3D107483EE02C0F0020A80500207A
:100D900000000020400F00205C0F00204C3D0F445D
:100DA00000000000780F0020540F00206C0F00207E
:100DB000C34D0BA9281D0BF033F898ED020A98EDEE
:100DC000017AD8ED037A20EE000AA7EE070AA7EE13
:100DD000A70A14F09DFAB5EE400AF1EE10FA11D010
:100DE00095ED017A87EE007A85ED017A95ED027A2C
:100DF00087EE007A85ED027A95ED037AC7EE007AE8
:100E0000C5ED037AAF480AF051FFA4F8DC09DFED25
:100E1000AE7AB4F9DCE99FEDAD7AB4F9AC09B4F976
:100E2000AE19B4F9B029AA4D29EE279A07EE90EA37
:100E3000F8EEE77AF1EE688A67EEC77AB1EE488A93
:100E4000CDED107A07EE900AF8EEE77A11A8CDED15
:100E5000117A07EE901AF8EEE77A0EA9CDED127A24
:100E600007EE902AF8EEE77ACDED0E8ACDED137AF3
:100E70008DED0F8A0AF0D4FF7B78DDED137A012B1C
:100E80001FD1944B1B785F0711D4D5F8E03940226D
:100E900093FBF2F29A1A07EE102AB8EEC77A37EEF1
:100EA000277ABDEEC77A17EE103AC5F8E039D4F8C4
:100EB000E039402293FBF2F305EE903AB8EEE57A82
:100EC00005E0B8F8008007EE108AB8EEC77A824BCA
:100ED0009DED110A93ED008AD4F8EC7977EEC77A8C
:100EE000CDED137AD3ED017A79EE277A89EE279A40
:100EF000DDED137A77EEC87AA9EE278A83ED008AB2
:100F000014F004F9D4F8F85929780AF055FE9DED4B
:100F1000120A3844C4F8EC09D4F8F07914F0F6F861
:100F200029780AF049FEB0EE480A3844C4F8F009BE
:100F3000D4F8F47914F0EAF869780AF03DFE674BCA
:100F40001A6852441A60D4F8FC3938440133C4F8A2
:100F5000F409C4F8FC3905E0A5F86039A5F8623950
:100F6000A5F864390DF0ABFDD4F8003ADFED567A00
:100F7000574AD4F8F478CBF80000C31A9BB206EEB7
:100F8000903AF8EE668AA4F8043A28EEA78A02F6A8
:100F9000082383ED008A97F85230C4F8000A33B969
:100FA00094F8D0314A4D002B00F0A0802BE002F6DF
:100FB0000C2393ED007AB5EE407AF1EE10FA9846E4
:100FC00009D1D2F8F02807EE102AB8EE477A67EE7A
:100FD000277AC3ED007A0025705F97F85210D8ED9C
:100FE000000A00EE100A3E48B8EEC00A00EB850089
:100FF0000AF0A4FCBDEEC00A10EE103A735302359D
:10100000062DE9D1CCE70121B0EE680A05F62C20C7
:10101000F0EE480AB5F8286A0AF090FCBCEEC00A67
:1010200095F8843110EE101A89B2B6FBF1F14F1C1D
:10103000BFB2A5F8347A1BB3B5F8369A0023244A18
:1010400002F6382002F65C261D5A33F806E002F656
:1010500064201EFB09FE33F800C01D520FFA87F80A
:10106000CCEB050C9EFBF8FEE64423F806E00233C9
:10107000082BE4D1002382F88431A2F8361A04E068
:10108000B5F8363A013BA5F8363AB4F8361A104AA4
:101090000BB2002B4FF0000326DDB2F9346A114A7F
:1010A0009D5AA2F12400083215FB01F59A5A95FBCE
:1010B000F6F5521B1A520233082BF0D116E000BF8E
:1010C0000000002004000020BD37863535FA8E3C34
:1010D000A80500200B1700208C0F0020041700200B
:1010E000B80F002004100020A2F8363A03F0F0F800
:1010F000D4F86C3ACA4DCB4E13F4801300F09980AB
:10110000B5F8703A180600F1E380C74B1B7803F07E
:10111000040303F0FF08002B79D095F8723A13B15D
:1011200095F8733A3BB1C14B00221A600123337426
:10113000002384F8733A337CB94FD4F8F45884F818
:10114000723A032B06D1284607F67821542213F071
:10115000C4FD55E0012B07D107F67820294654221B
:1011600013F0BBFD002302E0022B02D1012387F81C
:10117000CC3A012384F8CD3A84F8CE3AAC4BC4F88B
:10118000D85A00221A605A602A78AA4984F8DC2AC0
:1011900094F8CC2A0A44B2EE047A92F86411A64A72
:1011A00043F85C2C0D4484F8DD1A697895F815C075
:1011B00007EE901AF8EEE77A03F11002C7EE877A8D
:1011C0009FED9E7AC3ED047AEB7A07EE903AF8EE43
:1011D000E77AC7EE877A9FED9A7AC2ED017A07EE39
:1011E00090CAF8EEE77A67EE877AC2ED027AFCEEF3
:1011F000E77A17EE903A6B750023EB7207F0E6FA88
:10120000802011F03FFB012384F8EC3A60E005F602
:101210007427D7ED007AF5EE407AF1EE10FA57D048
:101220000BF0FEFA00233B60012385F8728A3374C9
:101230004EE0B5F8702A11063FD595F8722A511E76
:1012400001292ED8D5F8D83A95F8DD2ADFED7B7A3A
:1012500093F801E005F52E6595ED017A67EE277AA2
:101260001A44FCEEE77A17EE901AD17295ED027AE5
:10127000DFED747A67EE277AFCEEE77A17EE901AC4
:1012800007EE90EAF8EEE77A517577EEA77AFCEE72
:10129000E77A17EE902ADA70DA7A5A735A7DDA759D
:1012A00005E0032A03D185F8723A012301E0337C7B
:1012B00001338020337411F013FB5B4B1B785A070A
:1012C00006D494F8EC3A1BB1554B012283F8732AEB
:1012D000737CB3B1B4F93E2AB4F85A339A4210DCA5
:1012E0004F4B93F8C531012B01D0192B02D194F843
:1012F000A82332B90E2B04D0082B1CBF0023A4F85E
:10130000F23AD4F8F488464D98F81861002E45D08A
:10131000B5F8703A9B0741D005F6B41393ED010A76
:10132000D3ED007A93ED028AB5F8F47A20EE000A44
:10133000A7EEA70AA8EE080A13F0EAFF88EE000A53
:10134000DFED417AB4EEE70AF1EE10FA22D913F09C
:101350007FFF05F6F825D5ED007A20EE270A13F079
:10136000D5FEB0F5617FA8BF4FF4617005EE900A1D
:10137000DFED367AB8EEE50A80EE270A0AF02BFC9C
:1013800006EE906AF8EEE67A27EE800A13F0BEFECB
:1013900080B200E000203844A4F8F40AD4F8B83150
:1013A0001F4D9F0640F19E80B5F8703A03F0300360
:1013B000002B00F0978095F8B531DE0740F1928060
:1013C000B5F9DC09DFED227A224E08EE100AB8EEFC
:1013D000C88A28EE278AB0EE480A0AF0FCFBF0EE35
:1013E000408AB0EE480A0AF059FCD5F8FC3AB5F943
:1013F000060BDF78B0EE409AB2EE048A002F51D08F
:10140000B5F8023B1FFA83F91BB2C01A0AF062FF5B
:101410007D42A84220DBB842A8BF38461DE000BF8D
:10142000A8050020000000200B1700201C10002041
:10143000781000208C6601080000A04100007A446A
:101440005555553F9A99993F8FC2753CEFB6B044B8
:1014500035FA8E3C001700202846B4F8003B814442
:10146000B4F9040B1FFA83FA1BB21FFA89F9C01AE8
:10147000A4F8029B0AF02EFFA84203DBB842B4BFD7
:1014800005463D465544ADB2A4F8005B0FFA89F914
:101490002DB205EE909A07EE905AB8EEE57AF8EE86
:1014A000E76A09E0B5F9045B05EE900A06EE905A8A
:1014B000B8EEE57AF8EEE66A68EEE67AE7EE097AE3
:1014C00026EE899AC7EE887AA7EE289AFDEEE77A8B
:1014D00089EE089A17EE903ABDEEC99A338019EE5C
:1014E000103A7380864DB4F82E2305F24A330093E8
:1014F000844BD4F8081B1E68404608F15803B047D7
:1015000094F80C1B032916D9D5F8103B5A88B2F56C
:10151000FA7F10D2B5F9180BB5F9F25A5342002DE3
:10152000B8BF6D425B1B984203DB53198342A8BFCF
:101530000346A4F8183BB4F8F40AB4F8165BB4F800
:10154000146BD4F8107BB4F918EB6F4B00228A426D
:1015500003F1100335D297F901C0CCF1000C0EFB5A
:101560000CFC07EE10CA0FFA86FC06EE10CA0FFA42
:1015700080FC05EE90CA0FFA85FC07EE90CAF8EEE3
:10158000C76AF8EEE77A13ED027ADFF884C167EEF6
:10159000877AF8EEE55A13ED047AE5EE877AB8EE2D
:1015A000C66A13ED037AE6EE077A13ED017AE6EEEA
:1015B000877AFDEEE77A17EE908A2CF812800132D6
:1015C000C5E7524B1A7802F0040202F0FF03002A2A
:1015D00072D094F8F79BB4F8DC5B01238B424C4843
:1015E0002EB207D230F91350B542B8BF3546ADB26E
:1015F0000133F3E7D4F8182CD4F81C7C5388D4F8C2
:1016000020EC9E42C8BFC3EB0505E368B4F93E6A0F
:1016100003F4805A03F0100BD4F8103B07933C4BB3
:10162000CCBFADB2002500EB410843453BD0198843
:10163000491B89B223F8021B09B2BAF1000F0AD084
:10164000F8898642C7BFBEF80200B2F802C090888F
:10165000BEF800C005E0B2F802C0B9F1000F09D031
:101660009088814203DB6145B4BF0846604623F899
:10167000020CDAE71088814203DB6145B4BF0846FB
:10168000604623F8020C398A8E42CEDABBF1000F95
:1016900001D0918804E0079801780029C5D111880C
:1016A00023F8021CC1E794F8242C154B013AD2B25E
:1016B000182A00F254810AE08B42F4D2144A02F153
:1016C0004A0030F8130022F813000133F4E7012137
:1016D0009140104A0A40002A00F04181B3F8702A74
:1016E000D00519D5B3F8EE2AADF84420B3F8F02AA6
:1016F000B3F8F23AADF84620ADF8483025E000BF27
:10170000A805002018000020C41000200B1700209E
:101710008411002099209801B3F8142BD968ADF8F2
:101720004420B3F8162BADF84620C904B3F8182BA3
:10173000ADF8482009D5B3F93E1AD3F81C3CDB8933
:101740009942BCBF5242ADF84820B4F9CE194FF4CB
:101750007A7201F5E16151434FF4616391FBF3F15A
:10176000A1F5FA71ADF85C10B4F9CC1901F5E1619D
:101770004A4392FBF3F3A3F5FA73ADF85E30B4F885
:10178000DC3BB4F8382AA3F2DC53ADF84A30D4F885
:101790001C3CDB89D21AADF84C20B4F83A2AD21A94
:1017A000ADF84E20B4F83C2AD21AADF85020B4F867
:1017B0003E2AD21AADF85220B4F8402AD21AADF817
:1017C0005420B4F8422AD21AADF85620B4F8442A6C
:1017D000D21AADF85820B4F8462AD31AADF85A30C8
:1017E0000022B64B03F63E40002111520232102A6D
:1017F000F7D1D3F86C2AD3F8504C93F84E3C0792AB
:101800005B00099308940B46099EAC48B34200F074
:101810008B8000F654446218957935B10126153550
:1018200006FA05F5079E354078D0675C089892F96E
:1018300004B092F8019092F803C092F805A0C7EBAB
:10184000C70600EB46064FEA490EB6F90000B6F9A6
:1018500002502D1AADB2642005FB0BFB9BFBF0FB85
:101860004FEA5508C8EB0B0B1FFA8BFB944818ACDA
:10187000BCF1000F03D1744434F81C4C0CE0A644B6
:10188000C45E3EF91CEC744508DAA444A44503DBAD
:10189000E645B4BF74466446C4520AE009DDCCEBA9
:1018A000040CF44503DBA445B4BFE646A64620F885
:1018B00003E04FF0010ED6F80A60804892F902204A
:1018C0000EFA09F919EA060F0CBF76464FF0FF36FB
:1018D00000F6C44E7F0033F80EE012FB0EF24FF01C
:1018E000640EC41992FBFEF20FFA8BFB5A45B4F852
:1018F0003E4CB6B20CDB4FFA8AFB05FB0BFB9BFBA5
:10190000FEFBC8EB0B0B0FFA8BFB9345A8BF93466E
:1019100007440BFB064BA7F83EBC02E000F6C440B0
:101920001D52023307316FE70024D0F8508C254652
:101930000E2202FB0582634E92F90670A35B17FB31
:1019400003F7642397FBF3F7A753E8B209F098FF76
:1019500001353844082DA05304F10204E8D1574D55
:10196000EE6816F020082F4634D0002009F088FFDA
:10197000A5F83E0C0446012009F082FFD5F86C3A28
:10198000A5F8400C1B0625D5D5F8E43CB5F8CC29C4
:101990001B78012B22D1D5F8503CB5F9CEE993F94B
:1019A000141093F9063011FB02F25B4232210EFB58
:1019B00003F392FBF1F26FF0310E92B293FBFEFE55
:1019C000964493FBF1F174440A44A5F83E4C10444C
:1019D000A5F8400CD5F850AC002319E0D5F8501C00
:1019E000B5F8CE3991F906E091F914101EFB03FE0B
:1019F00032239EFBF3FE11FB02F2744492FBF3F3DD
:101A0000A5F83E4C1844E3E7D1520233102B10D016
:101A1000C3EBC3042B4A5444985EB4F90010B4F9E4
:101A2000024088429146EFDB21B28842B8BF0146AE
:101A3000EAE7224BD3F810BB9BF90830A3B995F81D
:101A400024AC0AF1FF33182B78D8DFE803F02F77A6
:101A500077557777774C7777777777617777777779
:101A600077556C7777612F000024174BBBF9062060
:101A700039F90410442000FB043009F0B4FDC4EB34
:101A8000C40280B229F80400524400B2B2F9003016
:101A9000B2F90220984203DB13B29842B8BF034662
:101AA00029F804300234102CDFD1C8E79BF8043049
:101AB00063B10020B5F8481C11E000BFA805002064
:101AC0006C120020E611002090120020A54B1B781C
:101AD00003F0040303F0FF00002BEAD101460AF0F3
:101AE00069FC01242BE00020B5F8441C0AF062FCDC
:101AF0000120B5F8461C07E00020B5F8461C0AF0A6
:101B000059FCB5F8481C01200AF054FC0224E0E11D
:101B1000002409EB4403E0B2998801340AF04AFC3E
:101B2000062CF6D10BE0002409EB4403E0B2D9887F
:101B300001340AF03FFC042CF6D1CAE10024B8F1CC
:101B4000000F02D1BAF1050F0CD12046B5F83E1CAA
:101B50000AF030FC601CC0B2B5F8401C0AF02AFC48
:101B60000234E4B2F10208D47F4C804E226B336819
:101B70009A1A002AA0460DDA14E000267C4B03EBEB
:101B80004603A019C0B219890AF014FC0D2EEBD03F
:101B90000136F3E703F5C873236394F834300BB1CF
:101BA00008F016FE734B1B78002B40F07281EB6837
:101BB0001A0340F16E8194F83520023A082A00F2A7
:101BC0006881DFE812F0090031004E006200790000
:101BD0008A0031014D015A01674B1A68E36B643387
:101BE0009A4240F256810025644B654A1B789D421B
:101BF0000CDAD8F83860931993F8660130B108F020
:101C0000C0FF594B013601359E63EDE7A16B564B82
:101C10000A4492F86621002A40F03B819A634FF013
:101C2000FF32DA63032232E121230093554B019303
:101C300003F10C0202924920A3F10A02502102335F
:101C40000EF0C8F8002840F02481EB6813F0800201
:101C50004FF0FF3303D0E363A063042336E1A263B4
:101C600027E0494A02230021009301910291482074
:101C700002F108030EF0AEF8002840F00A814FF0A0
:101C8000FF33E363A063052320E1072300933F4B69
:101C9000019303F10C0202924720A3F108020021F4
:101CA00004330EF097F8002840F0F380A0634FF063
:101CB000FF33E363062309E1354A03230021009340
:101CC00001910291532002F108030EF083F80028DD
:101CD00040F0DF80A0630723F8E0A16B224A11B92E
:101CE000D16301219163254A1678E26B1644402E98
:101CF000A8BF4026132EE66340F3CB801A4A926BAE
:101D00000D2A00F2DE80DFE802F08B070B0E1218BE
:101D10002125295D61707A801E4808F026FF7DE04C
:101D20001D481E496EE01E481E491F4A74E01F48A8
:101D300095F8D61895F8D7286EE095F8B0381C4875
:101D40000C2202FB037797F8B2185BE01948B5F84C
:101D5000041357E01848B5F8061353E0174B18481A
:101D600019694FE00B170020A0160020FC16002078
:101D7000E00F00200A170020C443002014000020B8
:101D80008C6601085E680108E0690108F8690108CD
:101D9000446A01082477010841770108B08F0108DF
:101DA00059770108707701087C7701088577010869
:101DB00099770108A6770108B8770108840E0020FA
:101DC000CA770108454B464819881BE0236C454FEC
:101DD000DB0407D5444895F83C1305F0EFFE301AB4
:101DE000F8631DE00C23BB631AE095F8401395F8E7
:101DF000412395F83F333D4805F0E0FE0EE03C48B6
:101E0000B4F8441005F0DAFE08E01F0508D539489B
:101E1000B5F84413B5F9422305F0D0FE301AE0635B
:101E2000A36B0133A36334E0D5F86C3A980114D561
:101E3000B4F846302B4D83B9AB6C11930E20336848
:101E4000129311A908F000FF4FF48053A5F84C300D
:101E5000092385F835300EF04DF90AF0C7F818E07F
:101E600094F84E30002BF6D0D5F86C3A9901F2D4A4
:101E70001C4B082283F83520EFE71F4B1A68E36BF1
:101E8000C8339A4205D911F071FD164B012283F82F
:101E900035201A4B1B78002B7EF4ABA9184BDA685F
:101EA00052057EF5A6A9B3F8120304F0B3FBFEF7C2
:101EB000A0B901230B7005F5C333A0334B60FEF7C7
:101EC00053BB4FF48053A4F84C30092384F83530C9
:101ED000DFE7B8F1000F3FF445AE36E60000002022
:101EE000DD770108A0160020EA770108FA770108DB
:101EF0001678010824780108C44300200A1700203E
:101F0000A80500202DE9F04F2DED028BC64CC74BE4
:101F100023608FB00023636010F024FB18B906F033
:101F200095F910F043FBC24DDFF86483C14EDFF832
:101F300050A3DFF860930AF0DFFA2B7843F0010337
:101F40002B7009F0F9FFBC4BC8F80C30736FA3601D
:101F5000BA4BC8F80830736BB94823F08003736339
:101F6000736F43F080737367336B43F03F030EAFBF
:101F7000336303238DF81E3041F6FF7327F81C3DB1
:101F800039460FF0BDF84FF6FF73AE48ADF81C3080
:101F900039460FF0B5F8AC4839460FF0B1F8DFF824
:101FA000F8C2CDF808C0604639460FF0A9F8A74836
:101FB00039460FF0A5F83946A5480FF0A1F8384684
:101FC0000FF046F8079BA34AB3FBF2F3E360A24B82
:101FD000A24A4FF0000BC3F800B0A14B5A60F022A8
:101FE00088F823200722DFF8A082C3F808B01A601F
:101FF000D8F80830CAF8003099E80F0087E80F00D9
:10200000336BDDF808C0079843F008033363336B84
:1020100043F0080333634FF48043ACF818304FF4B7
:102020000043ACF8183008A90FF06AF80AA909981B
:102030000FF066F864200CF0A2FE8A485946A022F0
:1020400012F054FE336C43F013033364736C43F0AB
:1020500001137364844B454603F1C0009A7A93F8E8
:102060000BE053F8106B02F00701D20806EB820276
:102070008900166A4FF00F0C0EFA01FE0CFA01F1FE
:1020800026EA01011162166A83424EEA06011162D4
:10209000E4D10023DFF8908108F110020021995467
:1020A00001330C2BF6D1FF2388F81C3088F81D3043
:1020B00088F81E3088F81F306C4BDFF8E0B16C4EAA
:1020C000C3F800B06B4B04221A703046302212F075
:1020D0000DFE1423337002233376052386F8243053
:1020E000654B95F805A083F800A0ABF5F073C8F830
:1020F0002030ABF59073C8F82430604B604903EB97
:10210000CA030E685B78C8F82830B30644BF0123C1
:10211000C8F8283000235B4A40F2DC519952023360
:10212000102BF8D1384600211C2212F0DFFDBAF145
:102130000E0F04D00AF0EF0ABAF1080F02D1012302
:102140008DF82E3005200CF0E1FB18B140880030EE
:1021500018BF0120C6F340038DF82330C6F3801367
:102160008DF82530C6F340338DF81C30C6F3C033EC
:1021700000F001008DF81F3016F400638DF8220086
:1021800004D095F886315F1E7B427B418DF820306C
:10219000C6F300438DF82630A36AB5F84801ADF8C0
:1021A0003200003318BF01238DF82730C6F30053E7
:1021B0008DF82830B5F84A31ADF82C30B5F85631E5
:1021C000ADF82A30C6F3804306F00101C6F3C00221
:1021D0008DF82430F004B5F854318DF81D108DF8C9
:1021E0001E20ADF8303004D52748B0F85001ADF8C6
:1021F0003200B3F5FA7F84BF0023ADF832302348B4
:1022000095F8D63184F82C30002384F82D304370B3
:102210009DF82E30002B14BF0223002300293FD14C
:10222000002A3ED03CE000BF0C1700209DEF0008C4
:10223000CC430020003802400005FA0500000008E9
:10224000000002400004024000080240001002406A
:102250000014024040420F00C84300203F9002009B
:1022600010E000E008420020B88901081C1C002092
:10227000B41C0020B31C0020CC110020748A01087B
:10228000B4050020E611002068070020391700205F
:1022900000ED00E0D0820108000C02405C09002043
:1022A000013309EB83034FF000081B690393C14618
:1022B000039931F808204FF6FF739A4200F0E78047
:1022C000130A022B02D19DF81C1003E0012B04D14C
:1022D0009DF81D10002900F0D480D2B2BD4E9DF8AB
:1022E00028104FEA021B5E4431B19DF82E1019B937
:1022F000043A032A40F2AE80012B38D1FF23002795
:1023000084F8743084F87530737B328970688DF886
:10231000123004A9022384F87870C4F884608DF820
:102320001330ADF8102084F830706763A763E7635B
:10233000276784F8767084F877700EF0E1FEA54A7E
:10234000B17A52F80B003A460EF0AAFC304608F07B
:10235000E9F9A14BA149C4F88830A14BC4F88C30ED
:10236000C4F8907030460A1D10F0EEFC89E0022B94
:1023700036D19C498DF813305FFA89F21C20424314
:102380008F184FF0000A012087F8019087F802A00B
:1023900087F80AA088543189727B7068ADF81010F4
:1023A000FE6004A98DF812200EF0AAFE894BB17AC6
:1023B00053F80B0052460EF073FC304608F0B2F9A9
:1023C000894B3B61894B7B61C7F818A0304607F108
:1023D000100107F1140210F0B7FC09F1010950E0F7
:1023E000032B35D19DF824303BB194F82E70304644
:1023F00008214FF6FF7200231CE0BDF8302094F84E
:102400002E70BDF83230B2F5FA7F0DD97849B1FBA4
:10241000F2F23046082192B205F01AFA04EB87076F
:10242000744BC7F858010CE07349B1FBF2F2304627
:10243000012192B205F00CFA04EB87076F4BC7F845
:102440005801C36094F82E30013384F82E3018E020
:10245000042B16D1BDF82A30674A94F82D7092FBF0
:10246000F3F23046BDF82C30012192B205F0F0F9BC
:1024700094F82D3004EB87070133C7F8880184F8FE
:102480002D3008F10208B8F1180F7FF411AF94F85D
:102490002D2084F8A8215A4A5A4B1678A6F1170223
:1024A0000027022A1F709E461AD8236A3B44D3EDA8
:1024B000007AF5EE407AF1EE10FA02D1A36A63BB1E
:1024C00026E0514A07EB020C0FCB8CE80F009EF878
:1024D000003010370133C02F8EF80030E5D1EDE722
:1024E0004A4B13F836808EF8008003EBC603D3F80E
:1024F0000490B9F1000FE1D04745DFDA424A3B01D1
:1025000003EB020C4B440FCB01378CE80F00F3E7D1
:102510003F4A1368D90427D41FE03E4B3E4A03EBE1
:10252000C6035F6A93F820001070002FF0D00023DC
:102530008342EDDAC3EBC3017A18DFF8E480D2F806
:10254000009041F8089001EB080C9188ACF8041059
:1025500092798CF806200133EAE706F0EF03082BA6
:10256000DFF8C08020D121E09EF800100129F4D9C5
:102570002A4B00228A4203F11003EEDA13ED047AAB
:10258000F6EE007A27EE277A013203ED047A13ED96
:10259000057A27EE277A03ED057A13ED037A67EEC5
:1025A000277A43ED037AE5E70E2E0AD198F800303A
:1025B00043F0100388F80030182E35D109F03AF9AD
:1025C00032E098F8003023F0100388F80030192E1C
:1025D000F3E700BFB489010893B400089417002002
:1025E00095B5000884170020BD0D01086DB50008E1
:1025F00000127A00B5B5000840420F00A5B50008EA
:10260000CC110020B4100020C4100020748A0108EE
:10261000B4050020D0820108F6110020CC10002063
:10262000FC1100205D07002008F0B6F8A2490B68F5
:102630005A0302D4A14B01221A70A14A137843F025
:10264000040313700CF090FF09F0C0FEB5F85C2194
:102650009C4B4AB9B3F95E1141B9B3F96031D3F17A
:10266000010338BF002302E0002300E0134613F00B
:10267000010324D112B207EE102ADFED937A9349B9
:10268000B8EEC77A0B7027EE277AB5F95E318DED7B
:10269000047A07EE103AB8EEC77AB5F9601127EE62
:1026A000277A04A88DED057A07EE101AB8EEC77ADE
:1026B000874967EE277ACDED067A09F053FB854B03
:1026C00085481B68B5F86471B3F856300393002150
:1026D0000C2295F863B1B5F80C9095F80FA0794EDF
:1026E0007E4D12F003FB14227D48002112F0FEFA09
:1026F0007C4B00221A7094F8D03133B10022A4F838
:10270000D22153B910F04EF807E0029305F0F2FF22
:10271000029B002800F0AB84F0E7B7F5807F0ED075
:10272000BB2F0ED8612F0ED8292F0ED8132F0ED8FD
:10273000092F0ED8002F0CBF002306230AE0002328
:1027400008E0012306E0022304E0032302E004235F
:1027500000E00523644A118821F040010904090CB6
:102760001180118821F038010904090C41F0300171
:102770001180118889B241F04001118094F8D41180
:10278000029319200FF0FEFF01200CF0EDFA029BDE
:102790001A2019460FF0F6FF01200CF0E5FA04A804
:1027A0000AF0A0FD9DF91230013303D19DF91030DC
:1027B000013303D0B4F8D2319BB223B10023A4F883
:1027C000D23100F054BC464B484A1A60484A5A601D
:1027D000484ADA606420484A1A610CF0D0FA414A4B
:1027E00004231370454B06211970454B196841F0BD
:1027F00001011960434A0021BBF1090F117000F279
:102800003E84012101FA0BF140F202320A40002A13
:1028100040F0318411F0FD0F00F02D8495F8D021A7
:1028200032B10023A5F8D23152B90FF0BBFF07E057
:10283000029205F05FFF029A002800F01C84F0E786
:10284000254B314A1A606420304A5A600CF097FADE
:102850002C4A04231370294B07225A70284B1A68FC
:1028600042F002021A60264B1A6812F0020F9B46D1
:1028700002D0194B1B689847254ABAF1000F49D07E
:10288000FFB2002F14BF4FF47A737D23994505DB07
:10289000B9F57A6FA8BF4FF47A6900E09946591EDE
:1028A0008944B9FBF3F10139C9B201FB033385F85F
:1028B000D411136032E000BFB4050020D41600200C
:1028C000CC4300206807002035FA8E3C1C00002015
:1028D000B81800209C0E0020FC0E00200C170020D1
:1028E000840E0020A60E002000380040E5B5000848
:1028F000E5D200086127010890C1793D240000203D
:1029000060070020F8160020D5B5000879D200082D
:10291000980E002085F8D4A1C2F80090BB4B1B682C
:102920009847BB4A0023137096F858310BB1B94948
:102930000B7096F859310BB1B7490B7096F85A31B4
:1029400003B11370DBF800301B071AD5039B1AB2D2
:10295000642392FBF3F103FB11231BB207EE103A41
:10296000F8EEC76A07EE101AF8EEC77A9FEDAB7A59
:10297000E6EE877AB2EE047A67EE877AC5ED767A6C
:1029800002E00023C5F8D831A5490B7843F00203D3
:102990000B70A44B4FF400425A834FF480421A83C9
:1029A0004FF00A099F4F7B6983F400437B617B6989
:1029B00083F480437B6119200CF0E1F909F1FF39C0
:1029C00019200CF0DCF919F0FF09EBD14FF480432A
:1029D0003B834FF400433B83934B9FED948A1B68EA
:1029E000934F1B7B00EE103AB8EEC00A20EE080AA7
:1029F00009F054F93A8807EE902AF8EEE77A27EEC4
:102A0000800A12F083FB3F889FED8A7A8A4B07EE9B
:102A1000907AF8EEE77A1880C7EE277A7B4BFF2191
:102A20001B229FED867AC7EE877AC4ED777AD3EDC5
:102A3000047A834C834B27EE888ADFED837A28EE75
:102A4000278A204683ED008A12F050F97F4A804B96
:102A5000126884F80090012112F0020F19702046CC
:102A600004D06170032119700221A170570704D5A9
:102A700019784C1C1C700324445412F00A0F0CD01B
:102A80001A7804218154511CC9B205244454D11C24
:102A90000232D2B21970062181546E490A68940636
:102AA00004D519784C1C1C7007244454110608D511
:102AB0001978092444548C1C0131C9B21C700A24B1
:102AC00044547179082901D00E2904D11C78671C5F
:102AD0001F700B2707551C78671CFFB24FF00C0EB8
:102AE00012F0040F1F7000F804E009D004F1020E88
:102AF000574C84F800E0524C4FF0100E04F807E0F9
:102B00001C78671CFFB24FF0120E12F4806F1F701A
:102B100000F804E00ED096F818E2BEF1000F09D0DC
:102B200004F1020E4A4C84F800E0454C4FF0130EBD
:102B300004F807E01C78671CFFB24FF0140E12F483
:102B4000007F1F7000F804E009D004F1020E404C31
:102B500084F800E03A4C4FF0150E04F807E018290D
:102B60000DD11C7816270755671CFFB24FF0170EC2
:102B700000F807E0E71C0234E4B21F7001551703A8
:102B800004D519784C1C1C7019244454D40504D560
:102B90001A78511C19701A238354002198222E4848
:102BA00012F0A4F807F05AF92C492D4AC5F8E02193
:102BB00000230B808B702B49A5F8E4310A60B6F82E
:102BC000982190B2284958520233242BFAD1214C33
:102BD0002368D8045CBFB6F89E0108801B0740F14B
:102BE000F68096F89231062B00F2EB80DFE803F0D6
:102BF000040742718CAAAA0045F2F05201E042F6A5
:102C0000F8221A4B1A8007F0DFF8D9E0840E002072
:102C100044190020A60E0020F81600208988883C60
:102C2000CC430020000C0240440F002035FA8E3CBB
:102C3000000000200AE81C41680F002000401C46EC
:102C4000511C0020400F0020BD3786356007002052
:102C5000501C0020B4050020801B00209C11002087
:102C6000F2080020B8050020E00F0020D00F00205F
:102C70000000B0C407EE102A5FED037A7B4BF8EE3C
:102C8000C76A9FED7B7AE6EE877A42F6F8211980D3
:102C90000023FCEEE77A774A17EE901A9950043336
:102CA000482BF8D1744B754A5A60754B122240205C
:102CB0001A700BF069FE002800F0838001234FF0AA
:102CC000070C90F900006F4A8DE8081040216E4B08
:102CD00071E0664B42F6F8221A80674B6B4A5A60E5
:102CE000674B102240201A700BF04EFE002868D06F
:102CF00001234FF0000E90F90000654A8DE808406E
:102D000040214FF4E13356E0584B42F6F8221A8046
:102D1000594B604A5A605A4B082240201A700BF0F7
:102D200033FE00284DD00123002790F900005A4AB5
:102D30008DE8880040214FF4E13310F023F9C5F805
:102D4000E8013AE0494A554842F6F82111804C49D9
:102D50000C22062B0A7010D00023037085F8EC318A
:102D600085F8ED311B2385F8EE31052385F8EF2139
:102D700085F8F0314FF4E1370DE00021017085F85E
:102D8000EC1185F8ED11464F85F8EF21212185F8EA
:102D9000EE1185F8F031384B424A5A6040200BF072
:102DA000F3FD70B1012100233F4A90F900008DE846
:102DB0000A0040213B4610F0E5F8003018BF012022
:102DC00028B9082009F0B0F82B4B384A5A6023681C
:102DD0002B4A13F4804F04D008211170264934483F
:102DE000486042F20101194003F0010003F400576A
:102DF00079B11E4944F6206EA1F800E01E49DFF8C3
:102E0000C0E0C1F804E00FB10821117008B10C2135
:102E100011701178043951701A0640F18C804FF00E
:102E20000009244FDFF89CA0DFF89CB02248C5F8C9
:102E3000F4A14946152287F80190C7F80490C7F815
:102E4000089011F053FFAAF105034846CBF8003073
:102E500004F00AFC194B02201B68FB600BF094FD88
:102E6000594698BB802009F05FF85CE0D00F002045
:102E7000CDCCCC3F0C0600201C00002061E60008F1
:102E80006C1C0020CDEC0008A086010051E6000873
:102E900059EC00083DE600080DEC00080C07002086
:102EA00090D00300FDE50008F5EA0008A9E6000857
:102EB00091E600083807002004190020C4430020D0
:102EC0009DE600085C0900205807002090F805E006
:102ED0007B786D4A4FF00C0C0CFB032C9CF801C066
:102EE000F44504D00133DBB2042BF2D900237B700C
:102EF0000B6890F900001B78002B7B784FF00C07D3
:102F000007FB03220CBF012103215378009100220B
:102F10000192022110F036F85C4B18600028A1D015
:102F2000012004F0A1FB5A4B18685A4B00F5C572FA
:102F30001A6009F06DF923685B0555D5564BD5F835
:102F40001092C3F8009004200BF01EFD0421C5F878
:102F500014020BF0EFFC514B85F818020820C3F85F
:102F600000900BF011FD4E4B4E4F186008210BF0F6
:102F7000E1FC002185F819022C22384611F0B6FE3A
:102F80008E237B704FF07C0BE0234FF07D0AFB70AB
:102F900087F800B087F82BA0434F2C220021384639
:102FA00011F0A4FE8A237B701020A023FB7087F809
:102FB00000B087F82BA0C5F81C920BF0E5FC10219F
:102FC000C5F820020BF0B6FC85F824022020C5F8D5
:102FD00028920BF0D9FC2021C5F82C020BF0AAFC9A
:102FE00085F8300206F078FF2368304A13F4002396
:102FF00018BF012313700BF062FD2D4B186073791D
:10300000052B03D12B4B4FF4C8721A802A4B4FF477
:103010007A721A8098F8003043F0080388F800307C
:10302000264B1A7822F002021A70226840F6020338
:1030300013406BB1224B234A1A60234B03221A70B0
:10304000224B01221A70224A00231380214A138046
:10305000B3682360204B01221A70204B1A7862F06B
:103060007F021A700FB0BDEC028BBDE8F08F032019
:103070000BF08FFE88E4BBF1010F7FF6F4AB4FF04D
:10308000000BFFF7B7BB00BFAC6601083407002098
:103090009C0E0020A4100020F81C00204C1D0020D5
:1030A000981D00201C1D0020511D0020D516002059
:1030B000A80F00200E0F0020081700200B1700207B
:1030C000F01C0020E4080020501D002029000020F2
:1030D000FA1A0020FC1A0020D4160020CC4300204D
:1030E000824A83492DE9F04F1468824E04F59C43CF
:1030F00020330B60804B196811F4804F89B005D1E3
:1031000007F010FC10B93378013333707778794BBE
:10311000BFB15A68944240F20981013F5F7005E1F6
:10312000D8F800307548072C98BF195D744B88BFDC
:1031300021461B689847032C0BD906EB4404013742
:1031400020816E4BDFF8E0811D78FCB2A542E7D804
:103150001FE0D8F8003004F10E0203EB82029388DE
:10316000D2880028E9D0C01A4FF47A71D31A4843A4
:1031700090FBF3F0084440F6C903984205DC40F2A6
:10318000EE239842B8BF184601E040F6CA0080B26C
:10319000D3E70F2386F82C3036785A4BD8F80080C6
:1031A0001B7803934FF0030AB6FBFAFA564B574FBE
:1031B0001B7804930AEB4A0ACAEB060A69005FFA15
:1031C0008AFA4FF0000B05914FEA4A0AD946059951
:1031D0008B4556D04E49039A3BF8014042B907F05F
:1031E000A1FB20B1049B002B08BF002400E0039C3E
:1031F000B8F81410A14206D8B8F81610A14234BF8E
:103200000021012100E0002131B95FFA89F002912B
:1032100007F094FB029904465FFA89F003280BD863
:1032200051B934494FF0010E91F82C000EFA09FE05
:1032300020EA0E0081F82C0007F074FBC0B92D497C
:1032400027F80A4091F8760020B9022E10D9012003
:1032500081F8760079883C880C44B9880C442D4963
:10326000A4B22BF8014024B2032194FBF1F4A4B2E0
:10327000294909F101092BF8014006370BF1020B2E
:10328000A5E71C4B254993F82C20B2F10F077A4291
:103290007A4183F89020224B6AB1224A1268560183
:1032A00009D40A68D9689A60521AC82A3ED90122FC
:1032B00083F821203AE013480968D960002202709F
:1032C00098685B68091A994288BF154B4FF0000453
:1032D00088BF83F82120AC4228DAE0B207F02EFB49
:1032E0000D4B23F814000134F5E700BFFC16002055
:1032F0002807002048190020B40500206C1C00207D
:1033000020000020A8050020B0050020761900202C
:1033100050190020C0190020E00F0020C4430020F5
:103320009C11002014100020B8050020884A136862
:10333000DC0405D5874B1B68D80701D40EF082FF4B
:10334000854B1A68937A2BB3013B8449127B31F881
:1033500013301AB1C3F53B6308339BB21BB2A3F51C
:103360007A73B3F57A7FA8BF4FF47A7323EAE373D5
:1033700007EE903AB8EEE77ADFED797A794BC7EE4F
:10338000277A9FED797A67EE877AFCEEE77A17EE77
:10339000902A1A806E48754D036813F4807F00F000
:1033A00000817349734B0A68734C9A4203D9A3781E
:1033B0000BB90123A370A378002B00F0F2806E4BB1
:1033C0002F7893F82160634B711E4E424E411A686C
:1033D000002EC7F38007C2F3806899460CBF4FF0F8
:1033E000030A4FF0000A94F82030052B00F2D38036
:1033F000DFE803F0034D5274819A002F3AD05F4BFF
:1034000018685F4B198807F0AAF9012809D15D4BAC
:103410001A685D4BD3F89430DB88642101FB0323E9
:103420002361B8F1000F0DD0574BD3F894301B79BE
:1034300043B10FF037FA032384F820304FF47A7346
:10344000E361D0E7002E40F0A6804E4BDFF828B1B4
:103450001A6823699A4209D90FF024FA03238BF8DA
:10346000203040F6B833CBF81C30BCE701238BF892
:103470002030B8E74FF48060B8F1000F02D00FF0B1
:1034800001FA01E00FF02CFA0023236183E0002E03
:1034900042D10FF007FAA6E726B1052384F82030C1
:1034A000012100E031466FB1344B1B68DA892B4BA8
:1034B0001A805A809A80344AD2F894205288DA804E
:1034C0004FF0020A2F4B1A6863699A4201D8002F05
:1034D0005ED147F23053E36103231EE02B7843F0C3
:1034E00002032B700EF0AEFE264B1A68E3691344FC
:1034F000A361042311E0234B1A688EB1A3699A4299
:1035000049D9224B1B781BB9D9F80030DA0742D4CD
:103510002B7823F002032B70052384F8203062E718
:10352000E3691344A36136E0164B1A68164BD3F8CF
:103530009430DB88642101FB032323614FF4806016
:10354000002384F82030E3700FF0CAF94BE700BF86
:10355000B405002014100020B8050020E00F002062
:1035600000007A446E1C002000C07F440B1700202E
:10357000FC160020404B4C009C110020EC18002051
:10358000F0180020C443002048190020110000203A
:1035900000297FF428AFBAF1000F02D0504606F0A0
:1035A000D9FD8E4E06F5C570B6F8521107F0D7F862
:1035B000804678B908F0B4F9894B0022C3F89880A6
:1035C000C3F89C80C3F8A080C3F8A420C3F8A82047
:1035D000C3F8AC202B785B0741D582480368DF062F
:1035E0003DD5814B1B78DC0639D4804B7C4C1F7851
:1035F0008FB196F8E231B8F1000F16D173B17C4B60
:103600001A68D4F8B0309B1A002B07DA0EF01AFEB5
:1036100084F8B48023E0B8F1000F19D1102006F02F
:1036200099FD012384F8B43019E03BB1704A126867
:103630004FF47A7101FB0323C4F8B03094F8B4302E
:103640006BB106F06EFD664B002283F8B42006E0F5
:1036500094F8B4301BB106F064FD84F8B470002215
:1036600096F8E09196F8E111B6F89A71B6F89CE1F7
:103670001346604C105F9B08B842C4BF63F07F03E1
:10368000DBB202327045B8BF43F04003082AF0D1E4
:10369000534C94F8B5209A4205D194F8B620F92AF3
:1036A00004D8013200E0002284F8B62084F8B53056
:1036B0004E4B514F1A789B46DAB93B68D80708D56C
:1036C000B8F1000F15D12B78DA0712D50EF012FCE5
:1036D0000FE02B785B070CD5484B1B784BB1484B60
:1036E000DB7833B911B10EF0ADFD02E0B8F1000F97
:1036F000F9D094F8B620DFF8E8A0DFF81C81142A8E
:1037000040F09C809BF8002019F1000918BF4FF091
:103710000109C2B19AF8B5205F2A04D0B9F1000FAF
:1037200011D07D2A0FD12A7802F0040202F0FF01A5
:1037300012B10EF087FD06E00B20029106F00AFDA3
:1037400002998AF8B6102B7803F0040303F0FF0007
:10375000002B73D194F8B530214A572B11D1294B46
:1037600020494FF47A721A800B68180601D508F0C8
:10377000B5FB254B1B6813F008035FD1234A138068
:103780005CE018490968490715D55A2B13D1204B1D
:10379000197819B1187001221E4B1DE092F8B7304C
:1037A00083F0010382F8B7300BB10C2000E00D204C
:1037B00006F0D0FC42E05D2B00F050855B2B00F062
:1037C0004F855E2B2AD100F04DBDA72B40F02D85F3
:1037D000054B1A7842F004021A702FE068070020A7
:1037E00048190020B40500205D07002011000020CA
:1037F000C4430020E00F002014100020A805002082
:103800009C1100200817002060070020840F002072
:10381000390F00203A0F00209C0E0020562B03D1B8
:10382000029308F0FDFF029B9BF80020002A00F0A5
:10383000F3846F2B40F0EA840EF05CFBA74A136818
:103840005B0731D594F8B7309BB12B785C0710D566
:10385000A34BB3F90620B6F89A319A4209DD3B68CA
:1038600013F0010305D19F4A322111809E4A82F84C
:10387000B7303B68D8030AD59C4B1A782AB99C4AC2
:10388000127812B9974A3221118001220BE0984B2D
:103890001A784AB12A7802F0040202F0FF011AB93C
:1038A0001970944B01221A70D8F80090002309F186
:1038B000790B3B6009F17B0498460BF1020303EBA3
:1038C000080113F808204B7814F8010C9A420AD228
:1038D000214603F002FF30B114F8023C01229A4065
:1038E0003B6813433B6008F10408B8F1500F04F142
:1038F0000404E2D1804B1F7857B1804FDFF8149257
:103900003B68DFF8148213F0020F40F043833AE380
:1039100009F1C90B09F1CA040BF10103D919DA5DE8
:103920004B7814F8010C9A4229D2214603F0D5FEB7
:1039300028B394F802E0724B207994F803900EF1CA
:10394000FF3E0EEB4E0E9E44674B4FF00C0C03F106
:10395000B8080CFB00FC08EB0C014A6872450ED05D
:10396000002208F80C908A60012202FA00F093F815
:10397000E820C1F804E022EA000083F8E8000637F6
:10398000482F04F10604C7D15E4BDFF890911C6804
:103990005D4BD3F800B05D4B1B7803934FF00008EC
:1039A000D9F80030002B00F0E5821F78002F00F0DE
:1039B000E182D9F80420C2EB0B02002A0DDB0BF5E3
:1039C000FA72C9F80420484A012192F8E80001FA85
:1039D00008F120EA010182F8E810039A002A00F0B9
:1039E000C98219F8041C58783F4A0431C9B200282A
:1039F00040F07E823A4830F91110B6F8980100F193
:103A0000C80E714502DD93F802A014E0C838814267
:103A100003DA9B78C3F1000A0DE092F8E810012365
:103A200003FA08F321EA030382F8E8300BF5FA738E
:103A3000C9F804309EE292F8E83043FA08F3D90757
:103A400000F19882BAF1000FCCBF022001200EF0E5
:103A5000FFFE7B1E132B00F28482DFE813F01400BC
:103A600021002E00610079008000E6004801AE01CF
:103A7000DE011702820261006F008000E60048014B
:103A8000B6001A017E0127785744FA2FA8BFFA27FB
:103A900027EAE777204627700AF0C4FF01201AE0E2
:103AA00067785744642FA8BF642727EAE777204642
:103AB00067700AF0B7FF02200DE0E778144B574417
:103AC000642FA8BF642727EAE777E77020461968C4
:103AD0000AF062FF03203946CCE100BFB4050020A4
:103AE000E00F0020200F002048190020380F002090
:103AF000390F00203A0F00200A1700201410002070
:103B0000448B0108B0100020C4430020A805002009
:103B1000241C00206007002018100020041A002038
:103B2000617951446429A8BF642121EAE17161717E
:103B30000D2004F021FE0D2F00F013822179514455
:103B40006429A8BF642121EAE17121710E2091E16D
:103B5000A179514481F30801A17105208AE1C74B85
:103B60001B681A78022A22D107EE90AAB8EEE70A5B
:103B7000F2EE047A80EE270AD3ED097A30EE270AB6
:103B8000B5EEC00AF1EE10FA09D4DFEDBD7AB4EE5D
:103B9000670AF1EE10FAC8BFB0EE670A01E09FEDC8
:103BA000B90A83ED090A0F2004F0FAFD0AE09978BA
:103BB0005144C829A8BFC82121EAE17199700F209A
:103BC00004F0DAFD0F2F00F0CC81AC4B1B681A78A3
:103BD000022A20D107EE90AAB8EEE70AF2EE047AA4
:103BE00080EE270AD3ED087A30EE270AB5EEC00A38
:103BF000F1EE10FA09D4DFEDA27AB4EE670AF1EE25
:103C000010FAC8BFB0EE670A01E09FED9E0A83ED8F
:103C1000080A12205FE159785144C829A8BFC82179
:103C200021EAE1715970122024E1944B1B681A7843
:103C3000022A20D107EE90AAB8EEE70ADFED907ACB
:103C400093ED0C7A80EE270A30EE070AB5EEC00A33
:103C5000F1EE10FA07D4B4EE670AF1EE10FAC8BF1D
:103C6000B0EE670A01E09FED870A83ED0C0A102091
:103C700004F096FD0AE0197B5144C829A8BFC82169
:103C800021EAE1711973102004F076FD102F00F085
:103C900068817A4B1B681A78022A1ED107EE90AA17
:103CA000B8EEE70ADFED767A93ED0B7A80EE270A1D
:103CB00030EE070AB5EEC00AF1EE10FA07D4B4EE02
:103CC000670AF1EE10FAC8BFB0EE670A01E09FED97
:103CD0006D0A83ED0B0A1320FDE0D97A5144C829FF
:103CE000A8BFC82121EAE171D9721320C2E0634B59
:103CF0001B681A78022A22D107EE90AAB8EEE70ACA
:103D0000DFED617A80EE270AD3ED0F7A30EE270AD5
:103D1000B5EEC00AF1EE10FA09D4DFED597AB4EE2F
:103D2000670AF1EE10FAC8BFB0EE670A01E09FED36
:103D3000550A83ED0F0A112004F032FD0AE0997D47
:103D40005144C829A8BFC82121EAE1719975112001
:103D500004F012FD112F00F00481484B1B681A7803
:103D6000022A20D107EE90AAB8EEE70ADFED467AE4
:103D700080EE270AD3ED0E7A30EE270AB5EEC00AA0
:103D8000F1EE10FA09D4DFED3E7AB4EE670AF1EEF7
:103D900010FAC8BFB0EE670A01E09FED3A0A83ED62
:103DA0000E0A142097E0597D5144C829A8BFC821A4
:103DB00021EAE171597514205CE0304B1B681A78D8
:103DC000022A20D107EE90AAB8EEE70AF2EE047AB2
:103DD00080EE270AD3ED0A7A30EE270AB5EEC00A44
:103DE000F1EE10FA09D4DFED267AB4EE670AF1EEAF
:103DF00010FAC8BFB0EE670A01E09FED220A83ED1A
:103E00000A0A092067E0D9785144C829A8BFC82107
:103E100021EAE171D97009202CE0184B1B681A784F
:103E2000022A1ED107EE90AAB8EEE70ADFED147A57
:103E300093ED0D7A80EE270A30EE070AB5EEC00A40
:103E4000F1EE10FA07D4B4EE670AF1EE10FAC8BF2B
:103E5000B0EE670A01E09FED0B0A83ED0D0A0A2020
:103E600039E0597B5144C829A8BFC82121EAE17132
:103E700059730A2004F080FC73E000BF281C002066
:103E80000000C8420000000000007A44B34B1B68E9
:103E90001A78022A22D107EE90AAB8EEE70ADFEDDF
:103EA000B07A80EE270AD3ED107A30EE270AB5EE0D
:103EB000C00AF1EE10FA09D4DFEDAA7AB4EE670A6F
:103EC000F1EE10FAC8BFB0EE670A01E09FEDA60A56
:103ED00083ED100A0B2004F063FC42E0D97D5144CD
:103EE000C829A8BFC82121EAE171D9750B20C1E713
:103EF000012836D198789D4B33F91110B1F5617FC7
:103F000005DB40F633039942B8BF0B4601E04FF49E
:103F100061730C2F25D14FF4966191FBF0F1A3F55D
:103F2000617393FBF1F392F8E9105FFA83FA51455C
:103F300017D0BAF1030F94BF5146022182F8E9105D
:103F40008B4A07FB016101F2F26111600AF084FD06
:103F50003846514604F010FC0AF10100C0B20EF0E0
:103F600077FC844B012293F8E81002FA08F20A4326
:103F700083F8E82008F10108B8F1040F09F10C09F1
:103F80007FF40EADB9E47C480368DA0511D57B4BAC
:103F9000DB7873B1D9F800309B070AD5B8F8003048
:103FA00013F001040AD107F0BBFC01200EF06AFCFB
:103FB00004E001200EF094FC012300E000233A68A5
:103FC00054070DD563B101200EF08AFCB8F800301B
:103FD000980708D407F0A4FC02200EF053FC02E07E
:103FE00002200EF07DFCB8F80040654B14F0030F82
:103FF0004FF4004214BF5A831A83D9F8003099064F
:1040000008D43B681A0540F1D5804FF480700EF05B
:1040100039FCD3E05B4B1B789B0767D55A4B1B7869
:10402000042B63D93B6813F4007904F010040DD01D
:10403000002C4ED110200EF025FC20200EF050FC5C
:104040005248011D09F012FB02223EE0A4B234B135
:1040500010200EF045FC4E4B012483F800903B6885
:1040600058052AD54B4B1B685A894B4BB3F90010A6
:104070000029B8BF4942914209DAB3F90230002B56
:10408000B8BF5B429342ACBF0023012300E0002392
:104090009BB1B8F8003099061CD420200EF0F2FB3A
:1040A0003E483F4B011D1A685B684360026009F09F
:1040B000DDFA374B01241C700CE0B8F800309A068A
:1040C00008D520200EF00CFC0022314B01241A7080
:1040D00000E00024DFF89C8098F8EA309BB90E20BD
:1040E00006F038F8012388F8EA300CE014F0300FBD
:1040F00087D010200EF0F4FB20200EF0F1FB244BB3
:1041000000221A7002E0002C3FF47BAF002213461D
:104110002448254C0021195224481952244804EB04
:10412000020E19520020CEF80000CEF80410CEF88E
:10413000080004F1280E5034964414440233042B32
:10414000CEF80000CEF80410CEF8080020606160C0
:10415000A06002F11402DBD153E700BF281C00204D
:1041600000007A440000C84200000000E00F002078
:10417000B010002048190020B40500209C11002038
:10418000000C02405D0700205C070020301C00206E
:10419000441C0020A4100020961000203C1C00208D
:1041A0000C1D002000170020341A0020A810002049
:1041B000AC1000204FF480700EF092FB7379082B46
:1041C00001D00E2B02D140200EF08AFB3D490B6836
:1041D0005B0573D596F818321BB92B7813F0040FD2
:1041E00002E03B6813F4002F0BD0374B002283F81A
:1041F00064213C200DF064FC00285FD00AF066FBCF
:10420000F7E705F069FE05F029FE57E0B9F1000F68
:1042100002D07E2B3FF410AB972B7FF4D6AA2B4B0A
:104220004FF4C8721A80FFF709BB0022BB2B07921C
:1042300001D1022303E0B72B04D14FF6FE73ADF892
:104240001E301FE0BE2B01D1022304E0BD2B7FF402
:10425000F5AA4FF6FE73ADF81C3013E0012002E022
:10426000022000E003205FFA80F909F1FF3386F8AD
:10427000F0360EF09BF908F03FF948460EF0E8FAE8
:10428000FFF7DCBAD8F80030BDF81C10B3F858209E
:104290000A44A3F85820BDF81E10B3F85A200A4467
:1042A000A3F85A200EF082F908F026F901200EF04A
:1042B000CFFA002384F8B630FFF7C0BA09B0BDE8E2
:1042C000F08F00BFB4050020481900200E0F002019
:1042D0002DE9F04FCA4ACB4BD2F800E0B3F9060003
:1042E000BEF80A302DED028B984285B00FDBB0F599
:1042F000FA6F9EF8077007DAC21A5743A3F5FA63FC
:1043000097FBF3F7643703E0C7F1640700E0642725
:10431000BD4BB3F898210292BC4A93F96231D2F8AE
:1043200000C09BB20021039364460A46B54B029D30
:1043300031F903B0C5EB0B0303F2F31640F2E63597
:10434000AE4203D8002BB8BF5B4201E04FF4FA73D2
:10435000022A4FF06406AE4D2ED09CF81181B8F1C0
:10436000000F04D04345CCBFC8EB0303002393FBED
:10437000F6F86FF0630A35F818900AFB083A08F16E
:10438000010835F918800FFA89F5C5EB080505FB1A
:104390000AF595FBF6F5A9449E4D21F805900EEB24
:1043A00002052D796B439C4D93FBF5F364339BB26F
:1043B0007B4393FBF6F630E09CF81281B8F1000FD6
:1043C00004D04345CCBFC8EB0303002393FBF6F6B0
:1043D0006FF0630905EB460809FB063A05EB460654
:1043E000B8F90E80B6F910508A4EC8EB050505FBEA
:1043F0000AFA9AFBF9FA039DC8EB0A0808FB05F8CC
:10440000A6F804809EF8065083EAE376A6EBE376EE
:104410006E43814D96FBF5F664360CEB02087C4B3F
:1044200098F8019003F11C054FF0640806FB09F9A8
:1044300099FBF8F902F8059094F80B9003F11F0529
:1044400006FB09F999FBF8F902F8059094F8159024
:1044500003F1220506FB09F6022A96FBF8F65655EB
:104460001D4616BF253383F82780D754029B694E1B
:104470009B4502DA735A5B4273520231062902F1FC
:10448000010204F101047FF451AF5F4CB4F89A319A
:10449000984205DBB0F5FA6FA8BF4FF4FA6000E070
:1044A0001846C01A4FF47A725043C3F5FA63B0FB52
:1044B000F3F34FF0640E93FBFEF205EB42016FF055
:1044C000630000FB023305EB4202098DB2F92A00BA
:1044D000504F0AB2821A534393FBFEFE4F4B1B8888
:1044E0007144F180590636D54D4BDFED4E7A1A886E
:1044F000474BB3F84030D31A1BB208EE903AF8EEAF
:10450000E88A68EEA78AB0EE680A07F0C7FBB0EE4B
:10451000408AB0EE680A07F05EFBB7F90220B7F9EF
:10452000003006EE902A07EE903AF8EEE66AF8EED2
:10453000E77A20EE667AA7EE887A67EE807ABDEE9B
:10454000C77AE6EE887A17EE103AFDEEE77A3B80FE
:1045500017EE903A7B80344B1A6812F0020F9A469D
:1045600000F09680314B6A6C1B68294F9A1A45F20D
:1045700007218A4240F38C807B6403F0D3F82C4BF4
:10458000DFF8B8801A78032A9946B8F8003022D1AB
:104590000A2B2CD90023282089F800300AF0EFFBE1
:1045A00003F0C0F8B7F848000AF04CF9214B224953
:1045B0001B68DA7890FBF2F0421C082A28BF082218
:1045C0000A7059791B7992B251435A43A7F84A109D
:1045D000A7F84C200BE00A2B09D80323164A89F8C8
:1045E000003000231370A7F84A30A7F84C3099F830
:1045F00000200F4B012A2DD022D3022A3ED047E0C3
:10460000B0100020E00F0020680700209C0E002062
:10461000B01A0020961000200CFEFFFF181000209A
:10462000840F002035FA8E3CB4050020FC160020D3
:10463000501D0020F01C002029000020F41C002048
:10464000B5F84A20B8F800309A4221DD012389F8F4
:10465000003011E0B8F80020B5F84C10914202DDAE
:1046600002221A7011E09E49B1F84A1001318A42C3
:1046700002DD00221A700BE0082007E0B5F84C308C
:10468000B8F8002001339A42E0DC072005F062FD13
:10469000DAF800703A0574D5924B296D1A68904B80
:1046A000C1EB020B45F207218B456ADD8E48B6F956
:1046B0000690D0F800801A6598F80A00B4F85211F4
:1046C0008A4E4FF47A7201289BFBF2FBA9F57A79A6
:1046D00003D03FD302281CD03EE0586D082190FB48
:1046E000F1FECEEB000090FBF1F14FF0000E5865AB
:1046F000A3F858E089B2B8F8083040F6E4404143E6
:10470000C3EB1131B8F906304A4392FBF3F2326041
:1047100022E0774BB8F808A01B78C6F800A05B072A
:104720001AD5744806F01BF820B917F0100F18BFFF
:104730004FF0000909FB09F2322392FBF3F399448D
:10474000B8F906304FF47A7203FB09F393FBF2F3E6
:10475000534400E0002333603368674AD5E9180109
:1047600003FB0BFB4FF47A739BFBF3FB10EB0B008B
:1047700041EBEB710023C5E918010FF09FFB5F4B84
:1047800018605F4B1A6812F4805F984626D03F0687
:1047900021D55C4B1B789E071DD55B4B19780429EE
:1047A00019D90023594E05229A551E44981C0A27F0
:1047B000122BC2B2777004D0B1EB520F0346F1D87E
:1047C00000E014222A44322382F86730FF2382F863
:1047D00068300F2000E00A2005F0BCFCD5F880709E
:1047E0003F4E002F46D04A4BD6F8842019688A42A3
:1047F0009A463FD896F88830B6F88A907A68ABB96E
:10480000012386F8883012F80920CAB186F88C3066
:104810000AF084FAB9F1000F12D13B78053B012B65
:104820000ED80AF04CF9C6F8900009E0002386F88B
:10483000883012F809201AB186F88C300AF06EFA26
:10484000B5F88A107A68264B525CFE2A03D1002202
:10485000A3F88A200EE0FF2A02D105F062FC09E0ED
:10486000DAF800000A2616FB02020131C3F88420A0
:10487000A3F88A101E4E3278500704D5254B4FF40A
:1048800080425A835DE0D8F80030D9075CBF42F01F
:10489000010232701B4A1278120703D4327822F0D8
:1048A00001023270DF0203D5337823F00103337045
:1048B000194B1B881BB1194B1B68980705D4184B63
:1048C0001B88003318BF012300E0012353B30223E8
:1048D00085F88C30337823F00103337028E000BF73
:1048E000B01A0020FC160020F01C0020FC1C002048
:1048F0000B170020F2080020407E0500001D00205C
:10490000141000205D0700205C070020181B002009
:10491000C4430020000C02400E0F0020600700205E
:10492000081700203278D10758BF022385F88C3051
:104930000AF0C5F8D5F89430C01A002801DB0AF057
:10494000EDF905F0C9FAC04B1A78002A78D0D5F8ED
:104950009830002B00F06386D5F89800BB4C0AF025
:10496000A9FA002800F05B86D4F898000AF09DFAB6
:10497000092801D03F2855D14FF00008D5F89C6098
:10498000B34F44462EB1B3483968324610F0F6F9B9
:1049900010B9B84604B93C46AF4B10379F42F1D32B
:1049A00004B3D4F800E0D8F800C0D5F89C30A7488C
:1049B0001EF803701CF80310B94213D15A1C59B9E0
:1049C0002D2B09D8C0F89C2003440244202783F8EB
:1049D000A07082F8A01005E02B44C5F89C2083F855
:1049E000A070E2E7D5F89C300BB1444510D09B484D
:1049F0000AF0C2FA444507D854F8100B0AF0BCFA82
:104A000009200AF0B2FAF5E795480AF0B5FA00264F
:104A1000D5F89C309E429FD28E4B985D0AF0A5FA45
:104A20000136F5E7D4F89C30002B40F024860428AA
:104A300040F01B8604F1A00005F058FF00F0EFBD28
:104A4000884F97F84A30012B40F0E485DFF8348234
:104A5000854B3A68C8F800701A60C246DFF80892C1
:104A60004A4610680AF026FA002800F0C185D9F8F5
:104A700000000AF01AFADAF8003093F8481083467A
:104A800019B924283FD101223AE0012904D14D2847
:104A90000CBF0222002233E0022904D13C280CBFC3
:104AA000032200222CE003290CD140284FF0000102
:104AB00002D983F848104DE058711971D971987175
:104AC00004221DE0042907D1997983F8490080EA7E
:104AD00001029A71052213E005293BD15879197911
:104AE0008842987908D98BEA00009871481C18719F
:104AF0000B4483F808B02DE058450CBF0622002275
:104B000083F8482026E03178584B4A0722D4BBF17D
:104B1000230FD9F8001012D14B4AC5F89810012084
:104B200010705348C5F8681101930AF025FA4C48F3
:104B30000AF022FA019B197841F002011970D5F8A8
:104B40006C311B785B4505D14A4B4B4A1A604B4B85
:104B50004B4ADA60DAF80030DFF8289193F8482001
:104B6000062A7FF47BAF93F8490000F03BFE002853
:104B700040F03485D9F8002092F849304E2B00F0EF
:104B8000B18400F29580372B00F0EA8421D8292BDC
:104B900000F0748409D8252B00F03584272B00F011
:104BA0004F84232B40F05E85E3E02D2B00F07784CB
:104BB00007D82B2B40F0568509F05AFE607100F0A3
:104BC0000ABD332B00F0BA84352B00F0478200F089
:104BD00049BD412B00F0B7840AD83C2B00F010816E
:104BE0003E2B00F00081392B40F03C8500F035BCB5
:104BF000442B00F0ED8447D8432B40F0338509F077
:104C000037FE0023A360607109F046FEA3681843D5
:104C1000A06009F02DFE84F8920109F033FEA4F89B
:104C20005C0109F02FFEA4F85E0109F02BFEA4F848
:104C3000600109F027FEA4F8820109F023FEA4F820
:104C4000840100F0C8BC00BF0A170020B01A002081
:104C5000808B0108501B0020108D01087C8F0108FB
:104C6000818F0108801B0020AC1D00200B17002045
:104C7000B18F0108FCFF0120EFBEADDE00ED00E0CA
:104C80000400FA05A81D00204A2B00F0B5804C2B2B
:104C900040F0E88409F0ECFD84F8D80109F0E8FD63
:104CA00084F8D90109F0EEFDA4F8DA0100F093BC14
:104CB000D12B00F06B831AD8CC2B00F00B8209D8D3
:104CC000C92B00F03B83CA2B00F0A880C82B40F012
:104CD000C98444E0CE2B00F02383C0F01883CF2B8F
:104CE00000F04C82D02B00F0078300F0BBBCD62B29
:104CF00000F07E8207D8D32B2BD017D3D42B00F013
:104D0000838200F0AFBCEF2B5ED007D8D82B08BF52
:104D10004FF0000A00F0158100F0A4BCF22B00F067
:104D2000C382FA2B00F0068300F09CBC337803F0BA
:104D3000040303F0FF09002B40F04D8409F098FDB7
:104D4000022884F8F00640F2DD82D94B83F8F09611
:104D5000D8E209F097FDA5F8700100F03CBC92F88C
:104D600005A04FEA5A0ABAF1120F1CD84FF00009F9
:104D70001DE009F07DFD132815D8DFF844A3DAF80B
:104D8000003000F11E0B03EB8B0B09F071FDC94BDA
:104D90000BF1010903F5A872197A814200F03F81F5
:104DA0000C339342F8D10CF087FE00F014BCD145CF
:104DB00007D209F067FDC04B23F8190009F101097A
:104DC000F5E70122BD4BB3E2DFF8F492D9F800A079
:104DD00009F058FDAAF85A00D9F8009009F052FDE0
:104DE000A9F85800F7E309F043FD84F8E20109F05F
:104DF0003FFD84F8E101EEE309F044FDA081EAE320
:104E0000DFF8BC92D9F800A009F032FD8AF8000062
:104E1000D9F80030187806F04DFDDCE3A84B1A688D
:104E20001278022A4FF0000A99466FD1D9F800B0E3
:104E300009F01EFD07EE100AF8EE477AB2EE048A7A
:104E4000C7EE887A0BEB8A03D9F800B0C3ED087A75
:104E500009F00EFD07EE900AB8EE677ADFED997A59
:104E6000C7EE277A0BEB8A03D9F800B0C3ED0B7AB3
:104E700009F0FEFC07EE900AB8EE677ADFED927A51
:104E8000C7EE277A0BEB8A030AF1010ABAF1030F86
:104E9000C3ED0E7ACAD1BAF1070FD9F800B01CD110
:104EA00009F0E6FC07EE100AF8EE477AC7EE887ABA
:104EB000CBED117AD9F800B009F0DAFC07EE100A50
:104EC000F8EE477AC7EE887ACBED127AD9F800B0BF
:104ED00009F0CEFC8BF84C0012E009F0C9FC0BEB9A
:104EE0000A035870D9F800B009F0C2FC0BEB0A03B2
:104EF000D9F800B0D87209F0BBFC0BEB0A03587567
:104F00000AF1010ABAF10A0FC5D164E3D9F800B079
:104F100009F0AEFC0BEB0A035870D9F800B009F0A9
:104F2000A7FC0BEB0A03D9F800B0D87209F0A0FC7B
:104F30000BEB0A030AF1010ABAF10A0F5875E5D121
:104F400049E3DFF87C919FED608AD9F800B009F061
:104F500099FC07EE100AF8EE477A0BEB8A03C7EECE
:104F6000887AD9F800B0C3ED087A09F08BFC07EE17
:104F7000100AF8EE477A0BEB8A03C7EE887AD9F865
:104F800000B0C3ED0B7A09F07DFC07EE100AF8EED5
:104F9000477A0BEB8A03C7EE887A0AF1010ABAF165
:104FA000030FC3ED0E7ACCD1BAF1070FD9F800B0D8
:104FB0001CD109F067FC07EE100AF8EE477AC7EE3D
:104FC000887ACBED117AD9F800B009F05BFC07EED6
:104FD000100AF8EE477AC7EE887ACBED127AD9F844
:104FE00000B009F04FFC8BF84C0012E009F04AFCCD
:104FF0000BEB0A035870D9F800B009F043FC0BEB37
:105000000A03D9F800B0D87209F03CFC0BEB0A0394
:1050100058750AF1010ABAF10A0FC5D1DBE21B7813
:105020008BF8013009F024FC89F8010009F020FC1C
:1050300089F8020009F01CFC89F80300DAF8000086
:10504000224BC5F8780100217930C5F8743109F098
:1050500025FD1F4B80F001001870BCE209F008FC30
:105060000B283FF6A0AE164B4FF0060A0AFB00F0E5
:105070001B68C83003EB000A09F0FAFB03283FF66F
:1050800092AE8AF8060009F0F3FB8AF8010009F0F5
:10509000EFFB8AF8020009F0EBFB8AF8030009F045
:1050A000E7FB8AF8040009F0E3FB8AF8050092E2C6
:1050B00068070020108D0108E00F00200D07002078
:1050C0009C0E00200000C84200007A44AC0800207A
:1050D000110000205379092B7FF665AECD4AD2F836
:1050E00000A009F0C5FBCB4B8AF80000D3F800A064
:1050F00009F0BEFB8AF8010009F0BAFBC54A136843
:105100006428A8BF6420187109F0B2FBC14A136873
:105110006428A8BF6420587109F0AAFBBD4A13682F
:10512000FF28A8BFFF20987109F0A2FBB94BD3F864
:1051300000A0642828BF64208AF8070009F098FBC3
:10514000B44A8AF80200D2F800A009F091FBB14BF2
:105150008AF80300D3F800A009F094FBD9F80030D6
:10516000AAF80A005B790A2B40F23582A94BD3F8E2
:10517000009009F07DFB89F808002CE209F082FB21
:105180006FF4AF6E00EB0E039BB2C62B98BFA4F872
:10519000980109F077FBA4F8440109F073FBA4F827
:1051A000460109F06FFBA4F8480109F06BFBA4F875
:1051B000DA0109F05DFB84F8EF0109F059FB09F011
:1051C00057FB84F8F00109F053FB84F8870109F0DC
:1051D0004FFB84F8940109F04BFB8F4BD3F8009000
:1051E00009F050FB00EB80004000A9F8560034E1C4
:1051F000814609F047FB894B23F8090009F10209B0
:10520000B9F1100FF5D1E6E153790F2B7FF4CBAD57
:1052100009F02EFB072881463FF6C5ADDFF8F8A15F
:10522000DAF800B009F02EFB0E2303FB09F90BEBB3
:105230000903DAF800B0A3F8190109F023FB0BEB1E
:105240000903DAF800B0A3F81B0109F01BFB0BEB14
:105250000903DAF800B0A3F81D0109F009FB0BEB14
:105260000903DAF800B083F81F0109F001FB0BEB2A
:105270000903DAF800B083F8200109F0F9FA0BEB22
:105280000903DAF800B083F8210109F0F1FA0BEB19
:105290000903DAF800A083F8220109F0FDFA0AEB0D
:1052A0000903C3F8230196E109F0E2FA0F288146C9
:1052B0003FF679AD09F0DCFAC9EBC909A14489F8D8
:1052C000D40009F0D5FA89F8D50009F0D1FA89F8A7
:1052D000D60009F0CDFA89F8D70009F0C9FA89F8A3
:1052E000D80009F0C5FA89F8D90009F0C1FA89F89F
:1052F000DA0006F09FFA6EE13378590700F16B810E
:1053000002F0A4FF0DF052F907F0F6F863E13378EC
:105310005A0700F16081424B4FF4C8721A805AE17B
:1053200033785B0700F157813E4B1A7842F0040254
:105330001A7050E133785807E4D593E109F098FAF0
:10534000384B1A7810B142F0020201E022F002025A
:105350001A7009F08DFA344BDFF8E090187009F0FC
:105360009BFAC9F8000009F097FAC9F8040009F09F
:1053700089FA2E4B188009F085FA2D4B188095F884
:105380007C3143F0020385F87C3124E109F070FAA6
:10539000019009F081FA834609F07EFA824609F00D
:1053A0007BFA814609F06EFA09F06CFA09F060FAAE
:1053B000019B9BB91020C5F880B1C5F884A10DF000
:1053C0008FFA184B1A7842F001021A70B9F1000FE7
:1053D00000F00181174BC3F88891FCE0102B40F0DE
:1053E000FA80C5F88CB1C5F890A1B9F1000F02D0D0
:1053F000104BC3F8889110480223011D85F89431A1
:1054000008F034F9E7E0A06009F046FAA368184311
:10541000A060E0E0B01000209C0E0020CE11002023
:105420000E0F00205D0700205C070020061D0020F5
:10543000041D0020B01A00203C1C00200C1D002080
:1054400009F020FAA4F85C0109F01CFAA4F85E0146
:1054500009F018FAA4F86001BDE009F009FA84F82F
:105460007C0109F005FA84F8800109F001FA84F85A
:105470007F0109F0FDF984F88101ACE009F002FA3E
:10548000A4F8820109F0FEF9A4F8840109F0F0F90A
:1054900084F8860109F0F6F9A4F888019BE009F088
:1054A000E7F984F8920109F0EDF9A4F89C0109F0FC
:1054B000E9F9A4F8980109F0E5F9A4F89A0109F0CE
:1054C000D7F9D9F8003084F893015B79082B40F2C2
:1054D000828009F0D7F9A4F89E0109F0D3F9A4F865
:1054E000A00178E092F805B00323BBFBF3FBBBF10E
:1054F000120F3FF658ACDFF8E8928246DA456AD2DE
:1055000009F0B6F989F8A20109F0BCF940F2ED23DF
:10551000984205DD40F6CA039842A8BF184601E04C
:1055200040F2EE20A0F2EE20192390FBF3F089F870
:10553000A3010AF1010A09F10209DFE709F098F96C
:1055400084F8940147E0814609F092F904EB0903DD
:1055500009F10109B9F1080F83F88A01F4D13AE0A1
:1055600053794FF0070AB3FBFAFACAEBCA029B1A47
:1055700013F0FF0F7FF417AC5FFA8AFABAF1000F4D
:1055800029D009F075F95FFA80FB4FFA8BF009F02A
:10559000BDF90AF1FF3A5FFA8AFA814600283FF422
:1055A00002AC80F800B009F06DF9A9F8020009F02A
:1055B0005FF989F8040009F05BF989F8050009F042
:1055C00057F989F8070009F053F989F80600D5E77B
:1055D000012385F89531002009F0B2FCD8F800309D
:1055E000987909F07EFCD8F80030002283F8482032
:1055F00095F8953173B1386809F042FC18B932203A
:1056000009F0BDFBF7E705F033F909F011FC604B39
:10561000604ADA60604B4C379F427FF412AA5F4BBE
:105620001B68990616D55E4BD5F898211B689A1A07
:10563000002A0FDB5B4A1278042A0BD95A4A03F579
:10564000123303F5F873C2F89831584B5A6982F453
:1056500000425A61564B9B68002B00F093805548DE
:1056600098478FE00CF028FAB8E70C2825D152486B
:1056700009F082FC1FE00C28F9D00A2821D14A4CFD
:105680004E4804F1A00609F077FC304623210FF0C4
:1056900060FB10B1801BC4F89C00D5F89C30BBBBEC
:1056A00030224748C5F89C3000210FF01FFB454AC7
:1056B0001378002BB3D044480FE07F2814D1FFF7B4
:1056C0004BB90D28DBD07F280BD1013BC4F89C30AF
:1056D000234400223D4883F8A02009F04DFCFFF749
:1056E0003BB92F2B3FF638A9A0F12002D2B25E2A97
:1056F0003FF632A913B920283FF42EA95A1C2B4497
:10570000C5F89C2083F8A00009F02FFCFFF724B90E
:10571000591E254A705C202801D10B46BFE7C2F80C
:105720009C301344002283F8A020294B294CD3F845
:1057300000A0D4F80090DFF8708048460FF016FB08
:1057400008F1A00706464946384632460FF016FBD8
:10575000214B38B908EB060292F8A0205244527847
:10576000520703D010349C42E3D306E09C4204D29B
:10577000701CE3683844984702E0184809F0FCFBC5
:1057800000238DE705B0BDEC028BBDE8F08F00BFB4
:1057900000ED00E00400FA05181C0020600700205E
:1057A000FC1600205C070020B01A0020000C02400C
:1057B000840E0020EE1C0020868F0108C29E010886
:1057C000501B00200A170020818F0108AD8F0108AF
:1057D00038010020808B0108108D0108918F01088D
:1057E000680700202DE9F04F2DED028B642889B069
:1057F000044600F07A8100F29C80342800F0AC84EA
:1058000051D8222800F0728423D8032800F039816F
:1058100014D8012800F02981022840F0D386042002
:1058200009F08EFB432009F05CFB4C2009F059FB8A
:10583000462009F056FB4C2000F05EBE042800F024
:105840002A81052840F0BE861A2009F079FB002441
:1058500032E1282800F0C88515D8242800F0AF854B
:10586000262840F0AF86A94C062009F069FBB4F861
:105870005C0109F068FBB4F85E0109F064FBB4F860
:10588000600100F06ABE2C2800F0C185322800F0CB
:105890002D862A2840F09686012009F051FB9B4B6B
:1058A000587900F029BE402800F0298621D83A28EE
:1058B00000F0AC820BD8362800F05286382840F031
:1058C0008186042009F03CFB904C00F07EBD3B2813
:1058D00000F005843D2840F075868C4C022009F0CC
:1058E0002FFB94F8E20109F0FCFA94F8E10100F0D2
:1058F00003BE462800F04D860BD8422800F00D86E6
:10590000452840F05F86132009F01AFB002400F0C0
:105910004ABE4B2800F09A854D2800F0C9854928D9
:1059200040F05086022009F00BFB784B988900F07C
:1059300014BE722800F075844AD86A2800F0B58435
:1059400024D8672800F0D58111D8652800F0F680AA
:10595000662840F03786122009F0F2FA6C4B1B885B
:10596000B3F5806F94BF012508250024A3E16828C2
:1059700000F02E82692840F02586664D287F400081
:1059800000F0FE0009F0DCFA00242DE26D2800F0A2
:10599000368213D86B2800F0A7846C2840F012865A
:1059A0005D4C062009F0CCFA208809F0CCFA60881A
:1059B00009F0C9FA594B188800F0CFBD6F2800F0E4
:1059C0007582C0F04582702800F09A8200F0FABD1E
:1059D000782800F09B8118D8752800F0748308D8C7
:1059E000732800F05784742840F0EC8500270124C8
:1059F000D9E3762800F08884772840F0E385454D88
:105A0000287809F09DFA0024FFE3A42800F0A2847E
:105A100014D87B2800F0FD82A02840F0D3850C200C
:105A200009F08EFA3E4B186809F096FA3D4B18685B
:105A300009F092FA3C4B186800F0C0BDF12800F064
:105A4000A181FE2800F0AD84F02840F0BB85374CE2
:105A5000042009F075FA2368B3F85A0009F073FAC4
:105A60002368B3F8580000F078BD032009F068FA05
:105A7000002009F036FA204609F033FA0D2000F034
:105A80003BBD09F05DFA012009F02BFA0A2009F06C
:105A900028FA00F05DBC062009F052FA562009F001
:105AA00020FA522009F01DFA422009F01AFA522079
:105AB00009F017FA00F081BC1D4B185D013409F0A4
:105AC00010FA0B2CF8D100241A4B185D013409F0A0
:105AD00008FA082CF8D10024174B185D013409F09E
