:020000040800F2
:10000000B805002089010008B9500108D95001083D
:10001000B7500108B5500108B350010800000000B6
:10002000000000000000000000000000B1500108C6
:10003000AF50010800000000AD500108BB5001089E
:10004000E5010008E5010008E5010008E5010008F8
:10005000E5010008E5010008E5010008E5010008E8
:10006000E5010008E5010008E5010008E5010008D8
:10007000E5010008D94F0108E5010008E501000885
:10008000E50100089D4E0108E5010008E5010008B2
:10009000E5010008E5010008E5010008E5010008A8
:1000A0009D4D0108CD4D0108E5010008DD4D010819
:1000B000BD4D0108E5010008AD4D01083F500108A4
:1000C0002D5001083950010827500108E5010008AA
:1000D000E5010008354F0108914E0108E5010008CF
:1000E000C9500108E5010008F5500108E5010008C4
:1000F000E5010008E5010008E5010008E501000848
:10010000E5010008E5010008E5010008E501000837
:10011000E5010008E5010008E5010008E501000827
:10012000E5010008E5010008E5010008E501000817
:10013000E5010008E5010008E5010008E501000807
:10014000E5010008E5010008E5010008993C010807
:10015000E5010008F94D0108414F0108ED4D010886
:100160003350010821500108E5010008E5010008AD
:10017000E5010008E5010008E5010008E5010008C7
:10018000E5010008E5010008002100F004B80F4B6C
:100190005B58435004310E480E4B42189A42FFF40C
:1001A000F6AF0D4A00F003B8002342F8043B0B4BB6
:1001B0009A42FFF4F9AF0A48016841F47001016006
:1001C00014F070FD00F010F87047000028C6010818
:1001D00000000020B8010020B80500208051002058
:1001E00088ED00E0FFF7FEBF2DE9804899B002F0EE
:1001F00025FABE4CBE4DDFF80CB301222A7062789E
:10020000DBF800800023237027462AB16268C2EB26
:1002100008029A42A8BF6370A668330740F177814D
:10022000B24BDB681B7A062B00F24D81DFE813F03E
:10023000070007003200E400150142014201237C5F
:10024000AA4A002B00F0408100231374536992F8EE
:1002500011E092F8189093F800C00223F81803F107
:10026000010A427EA14942FA0EF202F00F026245F3
:100270000CD20B2A0AD88A44407E9AF819A001EBC6
:10028000820200EA09000AEB0020D0620233102B40
:10029000E4D116E194F85C20944B002A00F0AA8087
:1002A00093F8AA10002283F85C2093F8A92001F0AB
:1002B000070042EA00221A6693F8AB2002F03F00E2
:1002C000400140EAD101596693F8AC10890041EA37
:1002D000921193F8AD2002F0010041EA8021996665
:1002E00093F8AE1001F00F00C00140EA5202DA6646
:1002F00093F8AF2002F07F00000140EA1111196766
:1003000093F8B010490041EAD21293F8B11001F00D
:10031000030042EA40225A6793F8B22002F01F001D
:10032000800140EA9101996793F8B310C90041EA4E
:10033000521293F8B510DA6793F8B42001F0070071
:1003400042EA0022C3F8802093F8B62002F03F0072
:10035000400140EAD101C3F8841093F8B710890036
:1003600041EA921193F8B82002F0010041EA80219D
:10037000C3F8881093F8B91001F00F00C00140EAEB
:100380005202C3F88C2093F8BA2002F07F000001DB
:1003900040EA1111C3F8901093F8BB10490041EAEC
:1003A000D21293F8BC1001F0030042EA4022C3F8D5
:1003B000942093F8BD2002F01F00800140EA9101D3
:1003C000C3F8981093F8BE10C90041EA5212C3F85E
:1003D0009C2093F8BF20D0074CBF40F21471AD2190
:1003E000C3F8A01091074CBF40F21473AD23C4F8BA
:1003F000A43066E0134667E094F8C1303B4A002120
:10040000002B61D082F8C11092F8C320012A03D0DA
:10041000812A20D1032300E0134694F8E720102A14
:1004200003D9324A102182F8E71094F8E7003149E5
:1004300000225FFA82FE864501F1020144D211F8E2
:1004400001EC11F802CC4EEA0C2CDFF8BCE04EF8BF
:1004500022C00132EDE70B4636E094F82821234B09
:100460008AB3002283F8282193F82921A82A2AD1C7
:1004700093F83C313BBB07EB43029FED1F7A92F8A8
:100480002C1192F82D2102EB012207EE902AF8EEB2
:10049000E77A1A4AC7EE877A9FED197A77EEC77A1C
:1004A000FCEEE77A17EE901A42F823100133082B7E
:1004B000E1D106E094F8603133B10C4B002283F8AF
:1004C0006021012300E0002313F001021ED083F01D
:1004D00002030122C3F3400322706370BBB1F20533
:1004E00015D500232B7008F06BF910E0B80500203B
:1004F000000000207D060020CDCCCC40F806002076
:100500000080BB4384190020A00600202A707304D9
:100510000DD594F8613123B1AB4B002283F86121F2
:10052000012323701BB1F00501D508F049F944F20D
:10053000080333400BB123780BB9B10403D508F598
:10054000C333A0336360F20710D594F8621194F8B6
:1005500063219D4B8A4207D001225A7008F5C332AD
:10056000A0325A6083F8631163782B7023783BB90B
:10057000954BD3F86401C0EB0800C043C00F00E006
:10058000012098B304F024FE012384F8683194F824
:1005900069318D4E002B00F0C384D6F86C315B07B7
:1005A00040F1BE84D6F87031180704D4082007F053
:1005B000F5FC00F0B5BCB6F8748108F008081FFA25
:1005C00088F8B8F1000F40F0AB84082007F0D6FCA3
:1005D000D6F87C31C6F87831B6F88831A6F8803183
:1005E000C6F8A881C6F8AC8100F09ABCD4F8B091E6
:1005F000754E09F10103B9F1010FC4F8B03100F0F3
:10060000A580B9F1020F00F03E81B9F1000F40F072
:10061000FC82D6F86C31190740F1F782D6F8B43174
:10062000C3EB0803002BC0F2F08208F5C333A033FC
:10063000C6F8B43106F5E070D6F8BC319847634B84
:1006400006F5E07001461A7809F04FFC96F8C621CD
:1006500012F0040F06F5E0701DD0D6F8B431C6F8DC
:10066000C831594B03F5E67149440026A1F874617D
:1006700003F6981630F8091029F8061003F69E16AE
:1006800029F8061009F10209B9F1060FE9D122F0A3
:10069000040283F8C62194F8A4294B4BA2B1B3F805
:1006A000C011B3F840238A1AA3F8C021B3F8C211CD
:1006B000B3F842238A1AA3F8C221B3F8C411B3F8DD
:1006C00044238A1AA3F8C421D4F8C8313E4A002B27
:1006D00000F09B82D2F8B4113D4ECB1AB34202F621
:1006E0009E1102F698161CD83A4B5A6982F4804241
:1006F0005A610023C25A36F903C00FFA82FEF4454C
:10070000C4BFDFF8D8C023F80C2031F903C0F4458A
:10071000BCBFDFF8CCE023F80E200233062BE9D172
:1007200073E20023C2F8C83136F903E0C85E2A4AF2
:1007300070444FF0020E1A44734490FBFEF0062BF7
:10074000A2F87401F0D10EF03BFD5EE2D6F86C31F8
:100750005A0740F15A82D6F8A839C3EB0803002B98
:10076000C0F2538296F8AC39C6F8A809012B13D011
:1007700002D3022B36D07EE0D6F8B8399847D6F8A7
:10078000BC399847D6F8A839B6F8B22986F8AC999A
:100790001344C6F8A8396EE0D6F8C0399847D6F8A1
:1007A000B4399847D6F8A839B6F8B0291344C6F832
:1007B000A83906F6C810D6F8C43906F6CC11984701
:1007C000022386F8AC3956E0B80500209D190020B8
:1007D0007FC3C901000C024084070020500F002095
:1007E000560F0020D6F8D819D6F8D4E991F8008031
:1007F000D4F8E01986F8AC090EF10103434508BFAF
:1008000086F8DC99D6F8D0C9D6F8C82901F10106D6
:1008100008BF0346032E04D1CE48012680F8E469C0
:10082000002607EB8101CB48C1F8E82994F8E419C8
:10083000C4F8E06981B1D0F8E829D0F8EC19D0F813
:10084000F0098A4202DD16460A4631468142A8BFB7
:1008500001469142A8BF0A4607EB8E01C4F8D4397D
:10086000C1F8F42907EB8301D1F8F419C1EB0C0CA2
:100870006244C4F8D029D4F8A86907F03DFA30449E
:10088000C4F8A809C1E1D6F86C315B0740F1BD811D
:1008900096F8DC39002B00F0B881D6F8B43AC3EBF7
:1008A000080309EE903A19EE902A46F2A7139A42ED
:1008B00040F2AB81C6F8B48ADFF8BC829FEDA69AFD
:1008C000B8F800109FEDA58AF7EE008A06F52C69AE
:1008D00006F6C42A89B3D6F8D829D6F8D0391278C2
:1008E000D6F8B80ADFED9E0A013AB3FBF2F308220C
:1008F00090FBF2FECEEB00000344C6F8B83A93FB3F
:10090000F2F305EE903AB8EEE50A049180EE090A9A
:1009100015F04EFE049900230139A8F80010C9F81B
:100920000030CAF8003038EEC00A20EE080ABDEEEA
:10093000C00A10EE100AC6F8BC0AD4F8D869D4F878
:10094000D0393278DFED860A013AB3FBF2F305EED7
:10095000903AB8EE650A80EE090A15F029FE38EEE5
:10096000C00A20EE080A15F021FDD4F8BC3AD6EDF5
:10097000017AD4F8C81AC01A06EE900A05EE901A49
:10098000B8EEE60A78EEE76AB8EEE57A20EE260AD7
:10099000A7EE270A15F00AFD72499FED736A91EDE3
:1009A000007AD4F8CC3AC4F8C80AF8EE477A27EEB1
:1009B000866A6BB1674AD2F8D82A05EE903A08EEFB
:1009C000102AB8EEE57AB8EEC88A88EE078A01E008
:1009D0009FED668A5F4E99ED007AD4F8E02A06F61C
:1009E000DC2393ED009AD2ED036A28EE099AF6EE25
:1009F000005A29EE279A67EE067A69EE255A78EEB4
:100A0000E68AE5EE867A0023C4F8D03A9AED006AC9
:100A1000C4F8D43A05EE900A77EE867AB8EEE56A25
:100A200037EE099A66EE288A89ED009AE7EEA68AE3
:100A3000C4F8D83AC4F8CC3A0B60CAED008AB8F8CA
:100A400000A0BAF1000F40F0E080D6F8E41A9FED64
:100A5000487AC6F8E40A411A07EE901AF8EEE77AE7
:100A6000F8EE699A67EE877A40F2DC53C7EEA99AEE
:100A70000A2106F6EC28FDEEE88AFDEEE99AC6EDBD
:100A80005F8A19EE900A9842A8BF1846A3F6B833B9
:100A90009842B8BF1846069210F07AFA069A06EE07
:100AA000900AD2ED027AB7EE000AB8EEE67A30EE9E
:100AB000670A06F52C6027EE000AA9EE270A80EDEA
:100AC000000A15F073FC0521814610F061FAB6F8B2
:100AD000F03AC6F8E80A03F21F339BB240F23E62D6
:100AE000934298ED009A09D8B6F8F21A01F21F3134
:100AF00089B291428CBF0021012100E0514611F0E2
:100B000001017ED094F8F63A124E002B36D118EE41
:100B1000901AD6F8783117485B1AB3F5FA7FA8BF58
:100B20004FF4FA738342A8BF18460A2110F030FA36
:100B3000D6F8F83A1B798022584390FBF2F3B3F5CC
:100B4000967FA8BF4FF49673A2F5D6729342B8BFB2
:100B5000134615E0B805002080E6C547D048874A0F
:100B6000B1DC423E90190020BD3786350000000000
:100B7000002474490CFEFFFF8E190020BB4B1B683C
:100B8000D4F8F82AD4F8A861917AC9EB0303594341
:100B9000202091FBF0F1107D927F07EE902A38EE35
:100BA000099AF8EEE77A03FB006027EE899ADFEDF9
:100BB000B07AB04BB0F5C81FA8BF4FF4C81029EEEB
:100BC000279A9842B8BF18464FF40053C4F8A801BA
:100BD000BDEEC99A90FBF3F0A74BB1F5967FA8BF85
:100BE0004FF496719942ACBF4118C11819EE103AF2
:100BF0006FF09502962BA8BF96239342B8BF134679
:100C0000C91AC4F8AC1188ED008AD4F8B031032BAE
:100C100003DD9A4B0022C3F8B021A368180640F107
:100C20007F81964BD3F8FC3ABBB994F8003B013B6B
:100C3000052B00F27581DFE813F01700170017008D
:100C4000170060013B018D4BD3F8FC0A07F040FA16
:100C50000CF09CF808B10DF0BBF8D7F8FC0A07F0CF
:100C60003CFA0028EFD1E0E7D4F8202B834E12782D
:100C7000012A05D0C0F00A81022A00F007814FE165
:100C8000D6F8FC0A07F00FFA002800F0498196F820
:100C9000003B013B032B00F24381DFE803F00247F6
:100CA000578B774BD4F8182B1968744B8A1AC72ABC
:100CB00040F23681D3F8140B042835D8714AC3F8B2
:100CC000181B0C2606FB0020D3F8FC6A90F821E0E4
:100CD000D6F808800023104650F8231041455FFAEB
:100CE00083FC04D00133082BF6D1002300E06346D7
:100CF000734505D0304652F82E1007F0E4F90FE1A5
:100D000094F8013B0C2202FB0300D0F8248018F871
:100D1000011B19B1304607F0F3F9F8E7D4F8143B9A
:100D20000133C4F8143BFBE00220F7E0554B94F884
:100D3000012BD4F8FC0A0C2101FB023292F821208D
:100D400053F8221007F0BFF90320E7E094F81C3BAA
:100D50001BB94A4B012283F81C2B94F81C3B474ECD
:100D6000012B17D1D6F8143B072B0DD8454AD6F8DE
:100D7000FC0A134493F85C1007F0C2F9D6F8143B50
:100D80000133C6F8143B05E00023C6F8143B0323E7
:100D900086F81C3B94F81C2B384B022A40F2C0808A
:100DA000D3F8242B002A00F0BB80002283F81C2BF0
:100DB0000420B3E0D4F8202B304B9278002A75D071
:100DC00093F81C2B12B9012283F81C2B94F81C3BBE
:100DD0002A4E012B25D1D6F8243B2B4A9342D6F834
:100DE000143B0FD8E22B06D8264AD6F8FC0A134447
:100DF00093F864100EE00023C4F8143B022384F837
:100E00001C3B0EE0DB2BF6D81E4AD6F8FC0A134436
:100E100093F8471107F074F9D6F8143B0133C6F87C
:100E2000143B94F81C3B154E022B1AD1D6F8143BF8
:100E30000F2B13D8D6F8202B12495278D6F8FC0A7B
:100E400002EB02120A44134493F8241207F058F9F3
:100E5000D6F8143B0133C6F8143B02E0032386F8AE
:100E60001C3B94F81C3B022B5AD91FE09819002018
:100E70000000003B0000E7FFD4FEFFFFB8050020A4
:100E8000645100208C8401086F110100012B47D8A8
:100E9000894B96F8012BD6F8FC0A0C2101FB023293
:100EA00092F8212053F8221007F00DF9052035E0C3
:100EB000D4F8082B814B0132C4F8082BD4F8202B2E
:100EC000D2785AB193F8012B0132D2B20521B2FB8C
:100ED000F1F101EB8101521A83F8012B784B1B6869
:100EE000C4F80C3B002384F8283B94F8C63123F067
:100EF000020384F8C631012010E0714BD4F80C2BAA
:100F000019686E4B8A1A40F6C4118A4208D9D3F880
:100F10006C2122F02002C3F86C21062011F032FC73
:100F200006F0EAFE94F8DB31CBF80000D4F82C6B25
:100F3000002B36D0634B1B78590732D55F4B11A875
:100F4000D3F83C3B98479DF8443033B3D4F8442B56
:100F5000DBF80030594ED4F8488B1344C4F82C3BCE
:100F600006F64C30D4F8343B984706F64C30014630
:100F700094F8522B08F0B9FF53490B8806F64C3908
:100F8000002B00F0B680D6F8543B1B78002008EE0A
:100F9000103A06F65836824630E04C4B1B689E1BD2
:100FA00000E0861B002ED1DA01F0FBBA39F90AC045
:100FB0005EF8002062444EF80020326905EE90CAC7
:100FC0000132012AF8EEE57A326123D10022C6ED22
:100FD000017AC6ED007AB2603D4A4FF0000E012B57
:100FE00029F80AE02AF802E02FD00AF1020ABAF141
:100FF000060F00F1040006F114066FD0324ADFF844
:10100000D8E01388B3F57A7FD0D100224EF80020C3
:101010003261CBE796ED006A05EE902A77EEC66A5C
:10102000B8EEE57A86EE877A36EE077A37EEC76A4B
:10103000D6ED027A86ED017AE6EE867A86ED007AC2
:10104000C6ED037AC6ED027AC6E7D6F810E0BEF127
:10105000010F0ADD0EF1FF3E00EE10EAD6ED037A35
:10106000B8EEC00A87EE800A01E09FED1A0A0690EA
:101070000491059315F040FC18EE102A0698049987
:10108000059B4AB1F8EEC87AB4EEE70AF1EE10FA21
:1010900002DD4FF47A732BE0DFF83CE050F80EC02D
:1010A0004FF47A7E0CF5FA7C9CFBFEFEDFF820C044
:1010B0002CF80AE099E700BF8C840108B8050020ED
:1010C000645100209E1900209419002084190020EA
:1010D00058110020000000004C110020012B06D107
:1010E00018460491059306F00FFF059B0499013BF8
:1010F0000B800023C84E39F8031006F53A629A5A5D
:101100008A1A29F803200233062BF3D1D6F86C3162
:1011100013F0020300F0C682D6F8AC3B06F6B430FA
:101120009847BE4B06F6B4301A78014608F0DDFE4B
:10113000B6F8BA3B06F6B43A002B43D00022D6F8F4
:10114000BC0B1346B7F8BA1BDFF8DCE23AF902C071
:10115000B14EB1F5C87F04BF00214EF803105EF810
:10116000031061444EF80310043300210C2B2AF8BD
:101170000210815202F10202E4D1B6F8BA3B012B0F
:101180001BD1D6F8C03B4FF4C872C83393FBF2F3BF
:101190000380D6F8C43BC83393FBF2F34380D6F800
:1011A000C83BC83393FBF2F26B88D21A8280A8F84E
:1011B0005810A8F85A100EF003F8B4F8BA3B013BE7
:1011C000A4F8BA3BA268944B52077BD5B3F8CC2B5A
:1011D000322A13D1D3F8BC2B1188A3F8CE1B518827
:1011E0009288A3F8D22BB8F85820A3F8D42BB8F8DB
:1011F0005A20A3F8D01BA3F8D62B01E0002A40D038
:101200000022D4F8BC1B1046B7F8CC3BDFF81CE238
:101210003AF902C0804E322B04BF00234EF8003052
:101220005EF8003063444EF80030043000230C2890
:101230002AF802309E468B5202F10202E4D1B6F83F
:10124000CC3B012B18D186F8E53B86F8E4EB049102
:1012500006F05AFE0499B6F8CE3B0B80B6F8D03BA8
:101260004B80B6F8D23B8B80B6F8D43BA8F8583008
:10127000B6F8D63BA8F85A30B4F8CC3B013BA4F8FA
:10128000CC3B94F8E62B644BE2B1D3F8D81BD3F8EF
:10129000BC0B3226002291FBF6F183F8E62B01808D
:1012A000D3F8DC1B91FBF6F14180D3F8E03B93FBD4
:1012B000F6F66B88F61A8680A8F85820A8F85A2007
:1012C0000DF07EFFD4F8BC3BB4F8B41B1A888A1A20
:1012D000A4F8B42B5A88B4F8B61B8A1AA4F8B62B13
:1012E0009B88B4F8B82BD31AA4F8B83B06F004FDD9
:1012F000D4F8E83B4A4AD4F8F08BC4F8E80BC31A98
:101300000AEE103A114691ED006A98F80060B8EEC6
:101310004A9A002329EE066A0832194639F903E091
:1013200007EE90EAF8EEE77A0DF12C0C67EE867A7C
:101330000CEB4300C0ED007ADFF8F4C0E6B105EE37
:10134000906AB8EEE57AF7EE006A86EE877A3AF9A7
:10135000030007EE900AF8EEE77A67EE877A36EE3A
:10136000C77AD2ED006AE6EE877AC2ED007AFDEE2A
:10137000E77A17EE900A01E03AF803002CF8030030
:101380003CF803000233062B10FB001102F10402AB
:10139000C4D16B882348CDF818C0642671435B43E1
:1013A00091FBF3F6493EB6B20BA90FF0C9FE3B2EF6
:1013B00098ED017A1B4EDDF818C012D9B4F9141C4F
:1013C000D6ED020A144B94F8C62107EE901AF8EEF7
:1013D000E77AF4EEE70AF1EE10FA2BDD42F00802AC
:1013E0002AE0F7EE007A37EE276A324687EE866A01
:1013F00000233CF903E00233062B07EE90EAD2ED1E
:10140000006AF8EEE77AE6EE877A67EE866AE2EC43
:10141000016AEED1D2E700BFB80500208019002094
:10142000A4110020C011002078110020901100208C
:10143000B811002022F0080296ED010A83F8C621B7
:1014400015F0B4F8DFF89CA396ED027AD6ED017A98
:101450008AED000AF0EE408A27EE070A96ED008A30
:10146000DFEDD69AA7EEA70A15F046FAB1EE488A44
:10147000F0EE400AB0EE480A15F098F8B0EE408A57
:101480008AED010A28EEA90A14F090FF28EE290A35
:10149000A4F8F00A14F08AFFD4F86C31A4F8F20A28
:1014A0001E0729D50AF108000BA90FF049FE98ED97
:1014B000027AF7EE007A37EE276A0AF1080287EE21
:1014C000866A0023BE4E06F5E071595E0233062B94
:1014D00007EE901AD2ED006AF8EEE77AE6EE877A28
:1014E00067EE866AE2EC016AECD106F5426007F02D
:1014F000C7F8A6F82C0C2EE0B24E0BA9301D0FF049
:101500001FFE95ED020A95ED017AD5ED037A20EEE6
:10151000000AA7EE070AA7EEA70A15F0EDF9B5EE47
:10152000400AF1EE10FA11D096ED017A87EE007ABA
:1015300086ED017A96ED027A87EE007A86ED027AE0
:1015400096ED037AC7EE007AC6ED037A9E4807F05F
:1015500097F8A4F82C0CB4F92C0CDFED9C7A9FEDD5
:101560009C7AB4F9001CB4F9022CB4F9043C944EF2
:1015700029EE279A07EE900AF8EEE77AF1EE688AEC
:1015800067EEC77AB1EE488ACDED107A07EE901A71
:10159000F8EEE77A11A8CDED117A07EE902AF8EE71
:1015A000E77A0EA9CDED127A07EE903AF8EEE77AD7
:1015B000CDED0E8ACDED137A8DED0F8A0FF0C0FDC3
:1015C00098F80130DDED137A012B1FD1814B1B7888
:1015D000580711D4D6F8303C402293FBF2F29A1A05
:1015E00007EE102AB8EEC77A37EE277ABDEEC77A33
:1015F00017EE100AC6F8300CD4F8303C402293FBAA
:10160000F2F305EE903AB8EEE57A04E0688807EE6A
:10161000100AB8EEC77A704B9DED110A93ED008A5F
:10162000D4F8D08A77EEC77ACDED137AD3ED017A6C
:1016300079EE277A89EE279ADDED137A77EEC87A6C
:10164000A9EE278A83ED008A14F0B0FED4F83C6C32
:1016500031780FF09DFC9DED120A4044C4F8D00A89
:10166000D4F8D48A14F0A2FE31780FF091FCB0EED9
:10167000480A4044C4F8D40AD4F8D88A14F096FE34
:1016800071780FF085FC554B1AEE101A1A680A444F
:101690001A60D4F8CC3A40440133C4F8D80AC4F8EC
:1016A000CC3A05E0A6F8B43BA6F8B63BA6F8B83BA2
:1016B00006F022FBD4F8403CDFED447A4049D4F8F0
:1016C00048ABCBF80000C31A1FFA83F805EE908AE6
:1016D000B8EE657A01F6484327EE277AA4F8448CE1
:1016E00083ED007A9AF85230C4F8400C33B994F87C
:1016F000DC21334B002A00F02A812FE001F64C4315
:1017000093ED007AB5EE407AF1EE10FA1A4609D15F
:10171000D1F8441B07EE101AB8EE477A67EE277A25
:10172000C3ED007A002639F90600D2ED000A9AF8D6
:101730005210069200EE100A2948B8EEC00A00EBDB
:10174000860006F00AFEBDEEC00A069A10EE103AB8
:1017500029F806300236062EE5D1C8E7D3F8680C22
:10176000002848D19A6842F201011140C1B144F603
:101770002062C3F8682C0AF1790A03461AF80310AC
:101780000AEB030241B99078D178884204D25378A9
:10179000043384F86C3C2BE00433502BEED127E06B
:1017A00093F85C23012A06D002D3022A03D01BE05F
:1017B00045F2F0521AE042F6F82217E04C3D0F4491
:1017C000B80500200000002004000020BD37863549
:1017D00035FA8E3C9E190020EC1100209019002053
:1017E00008120020D011002042F21072C3F8682CB9
:1017F0000123A4F86E3CD4F8702CC64B07EB4207CB
:101800000132042AA7F8748CC4F8702C27DDB3F9D0
:10181000741CB3F9762C0A44B3F9781C0A44B3F962
:101820007A1C0A44B3F97C1CB3F97E3C0A440521B6
:1018300092FBF1F291B203F5C870814203DCA3F58B
:10184000C873994208DAD4F8683CA4F87E2CB3FB3C
:10185000F2F30133A4F86E3C0023C4F8703C94F812
:101860006821AC4BE2B3B3F86E1CB3F8806C08B2DD
:101870000022A84B03F5C17703F6824C32F807E04B
:1018800032F80C8003F68A4718FB06F832F8079006
:1018900022F807E0C9EB0E0998FBF0F8C84422F8DB
:1018A0000C800232082AE4D193F86C2C8AB103EB45
:1018B0004202B3F892ECB2F88221B3F8947CA3F818
:1018C000942C1EFB06F6D71B96FBF0F03844A3F8C9
:1018D000920C0023013984F86831A4F8801C04E0DC
:1018E000B3F8802C013AA3F8802CB4F8806C894BB3
:1018F00030B200284FF0000227DDB3F96E1C854B93
:1019000003F6824703F68A4C32F807E032F80CC03F
:101910001EFB06FE03F5C1779EFBF1FECEEB0C0E1F
:1019200022F807E00232082AE9D193F86C2C72B150
:10193000B3F9926C704390FBF1F1B3F8940C03EBA4
:101940004202411AA2F8821101E0A3F8802C02F0B1
:1019500003FAD4F870316F4E012713F4801384F822
:10196000697100F09980B6F87431190600F1F580BC
:10197000694B1B7803F0040303F0FF09002B79D0B7
:1019800096F8963C13B196F8973C3BB1634B002216
:101990001A6001232B74002384F8973C2B7C5D4F45
:1019A000D4F8486B84F8963C032B06D1304607F6F2
:1019B0009C41542214F0E1FA55E0012B07D107F6BF
:1019C0009C403146542214F0D8FA002302E0022B46
:1019D00002D1012387F8F03C012384F8F13C84F81C
:1019E000F23C4F4BC4F8FC6C00221A605A6032780B
:1019F0004C4984F8002D94F8F02C0A44B2EE047A95
:101A000092F87812484A43F85C2C0E4484F8011D81
:101A1000717896F815C007EE901AF8EEE77A03F1A0
:101A20001002C7EE877A9FED417AC3ED047AF37A0C
:101A300007EE903AF8EEE77AC7EE877A9FED3C7AA8
:101A4000C2ED017A07EE90CAF8EEE77A67EE877A80
:101A5000C2ED027AFCEEE77A17EE903A7375002336
:101A6000F37208F0FFFB802006F088FA012384F867
:101A7000103D72E006F69848D8ED007AF5EE407A0F
:101A8000F1EE10FA69D00DF09BFB0023C8F800308E
:101A900086F8969C2F7460E0B6F87421120651D532
:101AA00096F8962C511E01292ED8D6F8FC3C96F8B3
:101AB000012DDFED1E7A93F801E006F6045696ED4F
:101AC000017A67EE277A1A44FCEEE77A17EE901A4D
:101AD000D17296ED027ADFED177A67EE277AFCEE87
:101AE000E77A17EE901A07EE90EAF8EEE77A51756A
:101AF00077EEA77AFCEEE77A17EE902ADA70DA7AB8
:101B00005A735A7DDA7517E0032A15D186F8963C88
:101B10002F7414E0B80500209E19002050120020F8
:101B2000AC1200208C8401080000A04100007A441F
:101B30005555553F9A99993F2B7C01332B74802042
:101B400006F02CFAB84B1B78580706D494F8103DD1
:101B50001BB1B64B012283F8972CD4F86C61B34AC1
:101B6000310739D5B2F8161D01F145039BB28A2B16
:101B70002ED8B2F874315B072AD5B2F82C0CB2F823
:101B80001A3D94F8C671C21A92B293B218B2B33029
:101B9000BCBF02F5B4739BB21AB2B32AC4BFA3F59B
:101BA000B4739BB23F07A14A94F82E0314D540B2F8
:101BB00040424343D2F8480B407A9BB213FB00F3F8
:101BC0006FF01D0093FBF0F31944A2F8161D03E01B
:101BD000B4F82C3CA4F81A3D16F0140F7DD0B4F8DC
:101BE0007421924B02F40272002A76D093F8C62137
:101BF00002F0100202F0FF0052B1B3F8141D93F985
:101C0000AC03D3F8AC2100FB0212A3F8142D64E05E
:101C1000D3F81C2DD178927879B3B3F98011B3F948
:101C20008871C1EB070EBEF1000FB8BFCEF1000EF8
:101C3000964510DDC3F8A8018F424FF00100C8BFE0
:101C4000524283F8200DB3F8183DC8BF92B21A442F
:101C5000A4F8182D41E093F8202D2AB1D3F87C2167
:101C6000C3F8782183F8200DD4F8AC31D4F8242DB2
:101C7000194413885288994228E0B3F98001B3F9D6
:101C800088713F1A87EAE77EAEEBE77E96450ADD6C
:101C9000022297FBF2F7664A1760012283F8F62AC0
:101CA00083F8202D0AE093F8202D3AB1D3F87C2157
:101CB000C3F8782183F8F61A83F8201DD4F8241D80
:101CC000D4F8AC210B88498802449A4203DB8A424B
:101CD000B4BF13460B46A4F8183D6B7CB3B1B4F9FE
:101CE0008821B4F864339A4210DC504B93F8D13118
:101CF000012B01D0192B02D194F8A62332B90E2B57
:101D000004D0082B1CBF0023A4F8163DD4F8488B40
:101D1000464D98F81891B9F1000F45D0B5F87431D7
:101D20009B0741D005F6084393ED010AD3ED007AF5
:101D300093ED028AB5F8187D20EE000AA7EEA70AF7
:101D4000A8EE080A14F0D8FD88EE000ADFED397A13
:101D5000B4EEE70AF1EE10FA22D914F0C9FB05F649
:101D60002855D5ED007A20EE270A14F01FFBB0F5B8
:101D7000617FA8BF4FF4617005EE900ADFED2E7A07
:101D8000B8EEE50A80EE270A0FF011F906EE909AF8
:101D9000F8EEE67A27EE800A14F008FB80B200E045
:101DA00000203844A4F8180DB70640F19180B4F82B
:101DB00074311E4D03F03003002B00F0898095F83C
:101DC000C631DE0740F18480B5F92C0CDFED1B7ABB
:101DD0001B4E08EE100AB8EEC88A28EE278AB0EE2D
:101DE000480A0FF0E4F8F0EE408AB0EE480A0FF02F
:101DF00041F9D5F82C3DB5F9360DDF78B0EE409AB3
:101E0000B2EE048A002F43D0B5F8323D1FFA83F9B1
:101E10001BB2C01A0FF004FC7D42A84212DBB8428C
:101E2000A8BF38460FE000BF9E190020B80500206B
:101E3000981900208FC2753CEFB6B04435FA8E3C3D
:101E4000881900202846B4F8303D8144B4F9340D97
:101E50001FFA83FA1BB21FFA89F9C01AA4F8329D3F
:101E60000FF0DEFBA84203DBB842B4BF05463D4697
:101E70005544ADB2A4F8305D0FFA89F92DB205EEE4
:101E8000909A07EE905AB8EEE57AF8EEE76A09E024
:101E9000B5F9345D05EE900A06EE905AB8EEE57A93
:101EA000F8EEE66A68EEE67AE7EE097A26EE899AB7
:101EB000C7EE887AA7EE289AFDEEE77A89EE089AAF
:101EC00017EE903ABDEEC99A338019EE103A73803E
:101ED000DBF80030D4F8382D8A4D9A1A002AC0F267
:101EE000608303F5FF73C5F8383D05F55573B5F804
:101EF00038230093844BD5F83C1D1E68404608F1FA
:101F00005803B04795F8401D032916D9D5F8443D2C
:101F10005A88B2F5FA7F10D2B5F94C0DB5F9165DB5
:101F20005342002DB8BF6D425B1B984203DB53192F
:101F30008342A8BF0346A4F84C3DB4F8180DB4F88A
:101F40004A5DB4F8486DD4F8447DB4F94CED6F4B5C
:101F500000228A4203F1100335D297F901C0CCF177
:101F6000000C0EFB0CFC07EE10CA0FFA86FC06EE06
:101F700010CA0FFA80FC05EE90CA0FFA85FC07EE36
:101F800090CAF8EEC76AF8EEE77A13ED027ADFF846
:101F900084C167EE877AF8EEE55A13ED047AE5EE30
:101FA000877AB8EEC66A13ED037AE6EE077A13ED88
:101FB000017AE6EE877AFDEEE77A17EE908A2CF842
:101FC00012800132C5E7524B1A7802F0040202F087
:101FD000FF03002A72D094F82D9EB4F8105E0123FE
:101FE0008B424C482EB207D230F91350B542B8BFDD
:101FF0003546ADB20133F3E7D4F8302ED4F8347E51
:102000005388D4F838EE9E42C8BFC3EB0505A368D9
:10201000B4F9886103F4805A03F0100BD4F8443DFE
:1020200007933C4BCCBFADB2002500EB41084345C4
:102030003BD01988491B89B223F8021B09B2BAF1B7
:10204000000F0AD0F8898642C7BFBEF80200B2F876
:1020500002C09088BEF800C005E0B2F802C0B9F135
:10206000000F09D09088814203DB6145B4BF084668
:10207000604623F8020CDAE71088814203DB6145F1
:10208000B4BF0846604623F8020C398A8E42CEDA85
:10209000BBF1000F01D0918804E007980178002976
:1020A000C5D1118823F8021CC1E794F83C2E154BCA
:1020B000013AD2B2182A00F254810AE08B42F4D2DB
:1020C000144A02F12E0030F8130022F813000133F5
:1020D000F4E701219140104A0A40002A00F04181B2
:1020E000B3F87421D00519D5B3F8122DADF84420FA
:1020F000B3F8142DB3F8163DADF84620ADF84830CE
:1021000025E000BFB80500201400002008130020BF
:102110009E190020C813002099209801B3F8482D7B
:102120009968ADF84420B3F84A2DADF84620C904AB
:10213000B3F84C2DADF8482009D5B3F98811D3F880
:10214000343EDB899942BCBF5242ADF84820B4F915
:10215000F21A4FF47A7201F5E16151434FF4616371
:1021600091FBF3F1A1F5FA71ADF85C10B4F9F01A36
:1021700001F5E1614A4392FBF3F3A3F5FA73ADF87D
:102180005E30B4F8103EB4F88221A3F2DC53ADF80F
:102190004A30D4F8343EDB89D21AADF84C20B4F87A
:1021A0008421D21AADF84E20B4F88621D21AADF8A7
:1021B0005020B4F88821D21AADF85220B4F88A2100
:1021C000D21AADF85420B4F88C21D21AADF85620AA
:1021D000B4F88E21D21AADF85820B4F89021D31A51
:1021E000ADF85A300022BC4B03F656600021115264
:1021F0000232102AF7D1D3F87021D3F8684E93F841
:10220000663E07925B00099308940B46099EB2480C
:10221000B34200F08B8000F66C646218957935B19A
:102220000126153506FA05F5079E354078D0675C1E
:10223000089892F904B092F8019092F803C092F8CD
:1022400005A0C7EBC70600EB46064FEA490EB6F9F4
:102250000000B6F902502D1AADB2642005FB0BFB4D
:102260009BFBF0FB4FEA5508C8EB0B0B1FFA8BFBEF
:102270009A4818ACBCF1000F03D1744434F81C4CDC
:102280000CE0A644C45E3EF91CEC744508DAA44494
:10229000A44503DBE645B4BF74466446C4520AE075
:1022A00009DDCCEB040CF44503DBA445B4BFE646E2
:1022B000A64620F803E04FF0010ED6F80A608648E3
:1022C00092F902200EFA09F919EA060F0CBF7646B8
:1022D0004FF0FF3600F6DC6E7F0033F80EE012FBA5
:1022E0000EF24FF0640EC41992FBFEF20FFA8BFB54
:1022F0005A45B4F8564EB6B20CDB4FFA8AFB05FBD2
:102300000BFB9BFBFEFBC8EB0B0B0FFA8BFB934508
:10231000A8BF934607440BFB064BA7F856BE02E046
:1023200000F6DC601D52023307316FE70024D0F85D
:10233000688E25460E2202FB0582694E92F90670D0
:10234000A35B17FB03F7642397FBF3F7A753E8B2EC
:1023500006F07CF901353844082DA05304F102043D
:10236000E8D15D4CA66816F0200734D0002006F0B6
:102370006DF9A4F8560E0546012006F067F9D4F869
:102380007031A4F8580E1B0625D5D4F8FC3EB4F8DD
:10239000F02A1B78012B22D1D4F8683EB4F9F2EA76
:1023A00093F9141093F9063011FB02F25B423221CB
:1023B0000EFB03F392FBF1F26FF0310E92B293FB3E
:1023C000FEFE964493FBF1F175440A44A4F8565E70
:1023D0001044A4F8580ED4F868AE002319E0D4F8DD
:1023E000681EB4F8F23A91F906E091F914101EFB58
:1023F00003FE32239EFBF3FE11FB02F2754492FBB7
:10240000F3F3A4F8565E1844E3E7D1520233102BDD
:1024100010D0C3EBC305324A5544985EB5F900109D
:10242000B5F9025088429046EFDB29B28842B8BF26
:102430000146EAE7284BD3F8449D99F90830A3B93F
:1024400094F83CAE0AF1FF33182B7AD8DFE803F09A
:102450002F7979577979794E797979797963797999
:10246000797979576E7979632F0000251D4BB9F979
:10247000062038F90510442000FB053005F098FFD0
:10248000C5EBC50280B228F80500524400B2B2F98B
:102490000030B2F90220984203DB13B29842B8BF71
:1024A000034628F805300235102DDFD1C8E799F82A
:1024B00004301BB10020B4F8601E08E00A4B1B7802
:1024C00003F0040303F0FF00002BF3D101460FF0EB
:1024D0004DF9012536E000BFB80500209414002016
:1024E0000E140020B81400209E1900200020B4F81B
:1024F0005C1E0FF03BF90120B4F85E1E07E00020DF
:10250000B4F85E1E0FF032F9B4F8601E01200FF02F
:102510002DF902257FE0002508EB4503E8B29988F4
:1025200001350FF023F9062DF6D10BE0002508EB5D
:102530004503E8B2D98801350FF018F9042DF6D11A
:1025400069E0002517B9BAF1050F0CD12846B4F897
:10255000561E0FF00BF9681CC0B2B4F8581E0FF0ED
:1025600005F90235EDB2F00206D42C4B93F848324F
:102570007BB110F0C3FB0CE00026294B03EB4603B4
:10258000A819C0B219890FF0F1F80D2EEDD001365F
:10259000F3E7244B1B7823B9A368190301D503F093
:1025A000E1FD204B204C1B7833B9A3685A0503D5B5
:1025B000B4F81E0306F0E8F9A368DB037DF519AE55
:1025C000164B93F84932002B3DF413AE174B1A7893
:1025D00002F0FF03002A7DF40CAE134A144CD2F82B
:1025E000702112F4804F0CD0A27C62B1114A1168A4
:1025F000114A99500433802BF8D110F0D9FF0023F1
:1026000000E00123A374A37C002B3DF4F2AD0BF09A
:10261000ABFFFDF7EEBD002FA5D097E7B016002069
:102620003A0700209C190020B805002096190020C8
:1026300000000020F4930108FA1800202DE9F04F63
:102640002DED028BBD4CBE4B2360A3B00023636015
:102650000AF000F918B90DF067FA0AF01FF9DFF86F
:102660004893B84FB84EDFF83883DFF840A30BF03B
:1026700019FA99F80030B54843F0010389F80030A1
:10268000B34BFB60736FA360B24BBB60736B23F003
:1026900080037363736F43F080737367336B43F02E
:1026A0003F0322AD336303238DF84E3041F6FF73B1
:1026B00025F83C3D294607F0EDFB4FF6FF73A64891
:1026C000ADF84C30294607F0E5FBA448294607F051
:1026D000E1FBDFF8DCC2CDF810C06046294607F008
:1026E000D9FB9F48294607F0D5FB29469D4807F0AE
:1026F000D1FB284607F036FB139B9B4AB3FBF2F352
:10270000E3609A4B9A4A4FF0000BC3F800B0994B24
:102710005A60F02287F823200722C3F808B0964FAA
:102720001A60D8F80830CAF8003097E80F0085E83A
:102730000F00336BDDF810C0139843F008033363C8
:10274000336B43F0080333634FF48043ACF8183025
:102750004FF40043ACF8183014A907F09BFB16A9FE
:10276000159807F097FB642005F033FC8348594621
:10277000A02213F00BFC336C43F013033364736C2F
:1027800043F0011373647E4BB94603F1C0009A7A9B
:10279000DF7A53F8106B02F00701D20806EB8202D1
:1027A0008900166A4FF00F0E8F400EFA01F126EAEB
:1027B00001011162166A834247EA06011162E6D1FD
:1027C00000235E4F07F110020021995401330C2BB6
:1027D000F7D1FF236B4A3B777B77BB77FB776A4B5D
:1027E00013606A4E6A4A0420107030463022039308
:1027F00013F0CCFB0521039B86F82410654998F85B
:1028000005B081F800B0A3F5E971A3F589737B6287
:10281000614B39621422327003EBCB030122327612
:10282000DAF800605B78BB62B30648BFBA62002387
:102830005A4A40F2DC5199520233102BF8D10CA8BD
:1028400000211C2213F0A2FBBBF10E0F04D00BF0F1
:10285000EF0BBBF1080F02D101238DF842300120AC
:1028600005F090F98DF83500052005F08BF9C6F3D9
:1028700040038DF83730C6F380138DF83930C6F336
:1028800040338DF83030C6F3C0338DF8333016F452
:1028900000638DF8360004D098F884315F1E7B42C7
:1028A0007B418DF83430C6F300438DF83A30A36A8B
:1028B000B8F84801ADF84600003318BF01238DF881
:1028C0003B30C6F300538DF83C30B8F84A31ADF8D0
:1028D0004030B8F85631ADF83E30C6F3804306F0CC
:1028E0000101C6F3C0028DF83830F004B8F8543155
:1028F0008DF831108DF83220ADF8443004D52848D9
:10290000B0F85001ADF84600B3F5FA7F84BF00235C
:10291000ADF84630234898F8CC3184F82C300023A9
:1029200084F82D3043709DF84230002B14BF0223F1
:10293000002300293ED1002A3DD03BE0A019002011
:10294000C581000800ED00E00038024000000240B0
:102950000005FA05000000080004024000080240DB
:10296000001002400014024040420F006851002055
:102970003F90020010E000E0849D0108B04F00206D
:102980006CA401082C2A00206A090020282D0020B0
:10299000262D0020F413002028A501080E14002085
:1029A00084070020CD1900206C510020C0050020B4
:1029B000000C0240013309EB83034FF000081B6950
:1029C0000693C146069931F808304FF6FF729342DC
:1029D00000F0FE80D8B2C44A9DF83A104FEA001CBD
:1029E0001B0A02EB0C0629B152F80C10BF4FB9427A
:1029F00000F0E880022B02D19DF8301003E0012B9B
:102A000004D19DF83110002900F0DC809DF83C10C5
:102A100031B19DF8421019B90438032840F2BB8047
:102A2000012B3DD1FF230027318984F8743084F8CD
:102A30007530737B706884F87870C4F88460ADF882
:102A40004C108DF84E30294602238DF84F3084F813
:102A500030706763A763E763276784F8767084F84C
:102A600077700592CDF810C007F014FA059ADDF8DA
:102A700010C0B17A52F80C003A4606F099FF304681
:102A800008F0FCFD9A4B9B49C4F888309A4BC4F877
:102A90008C30C4F8907030460A1D0FF0EBFE91E0C8
:102AA000022B3ED195488DF84F305FFA89F11C27F3
:102AB000794347184FF0000B4FF0010E87F8019053
:102AC00087F802B087F80AB000F801E0717BB6F829
:102AD00008E07068FE608DF84E102946ADF84CE0B5
:102AE0000592CDF810C007F0D5F9DDF810C0059AB1
:102AF000B17A52F80C005A4606F05AFF304608F0F8
:102B0000BDFD7F4B3B617F4B7B61C7F818B0304602
:102B100007F1100107F114020FF0ACFE09F10109F1
:102B200050E0032B35D19DF838303BB194F82E702E
:102B3000304608214FF6FF7200231CE0BDF8442008
:102B400094F82E70BDF84630B2F5FA7F0DD96E4973
:102B5000B1FBF2F23046082192B208F0ACFD04EB72
:102B600087076A4BC7F858010CE06949B1FBF2F2DC
:102B70003046012192B208F09EFD04EB8707654BB9
:102B8000C7F85801C36094F82E30013384F82E3012
:102B900018E0042B16D1BDF83E305D4A94F82D7034
:102BA00092FBF3F23046BDF84030012192B208F0BA
:102BB00082FD94F82D3004EB87070133C7F88801B4
:102BC00084F82D3008F10208B8F1180F7FF4FAAE3E
:102BD00094F82D2084F8A8214F4A504B1678A6F17E
:102BE00017020027022A1F709E461AD8236A3B4408
:102BF000D3ED007AF5EE407AF1EE10FA02D1A36A35
:102C000063BB26E0464A07EB020C0FCB8CE80F00B3
:102C10009EF8003010370133C02F8EF80030E5D118
:102C2000EDE7404B13F836808EF8008003EBC603C7
:102C3000D3F80490B9F1000FE1D04745DFDA384A04
:102C40003B0103EB020C4B440FCB01378CE80F0028
:102C5000F3E7DAF80030DA0426D41FE0324B334AC7
:102C600003EBC6035F6A93F820001070002FF0D0CA
:102C700000238342EDDAC3EBC3017A18DFF8B88092
:102C8000D2F8009041F8089001EB080C9188ACF85C
:102C9000041092798CF806200133EAE706F0EF037E
:102CA000082B234B4AD14BE09EF800100129F5D99F
:102CB000204B00228A4203F11003EFDA13ED047A6D
:102CC000F6EE007A27EE277A013203ED047A13ED4F
:102CD000057A27EE277A03ED057A13ED037A67EE7E
:102CE000277A43ED037AE5E768A40108000C004069
:102CF000170C0108281A0020190D0108181A0020C5
:102D0000CD9A0008F10C010800127A00390D010873
:102D100040420F00290D0108F4130020F812002092
:102D20000813002028A50108849D01081E14002016
:102D30007E07002010130020241400200E2E08D13E
:102D40001A7842F010021A70182E08D105F058FCBB
:102D500005E01A7822F010021A70192EF5E70FF02C
:102D6000EDFEDAF800305B0302D4BC4B01221A708E
:102D7000BB4A137843F0040313700CF047FC0CF0CB
:102D80009DF90CF005F9002008F086FA022004F005
:102D9000F9FE10B9012008F07FFAB24FB7F85C21B4
:102DA0004AB9B7F95E3143B9B7F96031D3F10103DC
:102DB00038BF002302E0002300E0134613F00103B4
:102DC00024D112B207EE102ADFEDA77AA749B8EE98
:102DD000C77A0B7027EE277AB7F95E318DED137A3B
:102DE00007EE103AB8EEC77AB7F9601127EE277AE6
:102DF00028468DED147A07EE101AB8EEC77A9C4972
:102E000067EE277ACDED157A0EF03CF9994B97F8DD
:102E10006B211B680692B3F8563097480793002140
:102E20000C22B7F8648197F863B1B7F80C9097F863
:102E30000FA0924E13F0AAF814229148002113F02B
:102E4000A5F8904B00221A7094F8D03133B10022CB
:102E5000A4F8D22153B910F0BDF807E003930CF0A9
:102E600020FE039B002800F00F87F0E7B8F5807F75
:102E700014D0B8F1BB0F13D8B8F1610F12D8B8F164
:102E8000290F11D8B8F1130F10D8B8F1090F0FD8C6
:102E9000B8F1000F0CBF002306230AE0002308E06E
:102EA000012306E0022304E0032302E0042300E000
:102EB0000523754A118821F040010904090C11808D
:102EC000118821F038010904090C41F0300111800A
:102ED000118889B241F04001118094F8D411039314
:102EE000192010F061F8012005F068F8039B1A2002
:102EF000194610F059F8012005F060F8284609F04D
:102F0000C9F99DF94E30013303D19DF94C3001339D
:102F100003D0B4F8D2319BB223B10023A4F8D2314C
:102F200000F0B2BE564B594A1A60594A5A60594A83
:102F3000DA606420584A1A6105F04BF8514B574C3F
:102F4000574D04221A7006232B70236843F00103A7
:102F50002360544A0021BBF1090F117000F29D86D5
:102F6000012101FA0BF140F202320A40002A40F03E
:102F7000908611F0FD0F00F08C8696F8D02132B1CA
:102F80000023A6F8D23152B910F024F807E00592D8
:102F90000CF087FD059A002800F07B86F0E7364BA1
:102FA000414A1A606420414A5A6005F012F83D49CE
:102FB00004230B7007236B70236843F00203236024
:102FC0001E21012277200EF0CBFF4FF42F6004F07A
:102FD000F5FF142004F0FDFF7720A02101220AABA9
:102FE00011F090FD002879D00024A4F160010025A3
:102FF000C9B2022213AB77208DF84C508DF84D509A
:1030000011F080FD9DF84D309DF84C1043EA0121F0
:103010001A4B03F5EB72A1520234102CE5D1B3F830
:10302000E44104F00F0004F47F44A3F8E4410121DB
:103030002B462A46DFF844E022F001057544B5F836
:10304000D651002D18BF002112F0010F03D0EDB2B0
:103050006B4008252CE083EA1523FAE7F8180020D6
:103060006C5100208407002035FA8E3C18000020A7
:103070004C1B00200011002060110020A01900202E
:10308000E81000200A11002000380040150F010848
:1030900095C200084FC3000890C1793D2407002065
:1030A0001900002080190020050F01082DC200081A
:1030B00013F4004F18BF83F4C053013D4FEA43039C
:1030C000F6D10132102AB5D14B4A0443A2F8E441AB
:1030D00021B9C3F30333984200F0E385474C2368DA
:1030E0009A0702D5464B1B689847434D4549BAF1AC
:1030F000000F1FD05FFA88F8B8F1000F14BF4FF42B
:103100007A737D23994505DBB9F57A6FA8BF4FF433
:103110007A6900E099465A1E9144B9FBF3F2013AEC
:10312000D2B202FB03330B60374985F8D4210A8001
:103130004B8003E085F8D4A1C1F80090334B1B68A5
:103140009847DDF81880324B00221A709946B8F182
:10315000000F03D0B8F1020F40F0BC8522ABC5F8D8
:10316000E82103F83C2D1E200A21012211F0CAFC9F
:10317000002800F0AF859DF84C30482B40F0AA8520
:10318000244B254A1A60254A5A60254A022389F8A9
:103190000030D370236843F008032360214B93F879
:1031A00058210AB120490A7093F859210AB11F49E0
:1031B0000A7093F85A310BB189F8003023681B0765
:1031C00038D5079B1AB2642392FBF3F103FB11235A
:1031D0001BB207EE103AF8EEC76A07EE101AF8EEC7
:1031E000C77A9FED137AE6EE877AB2EE047A67EE3D
:1031F000877AC6ED7B7A20E0A01900202407002002
:1032000060110020FC1000201E2D0020E81000207E
:103210009D190020700700200D200108114C0108A5
:1032200019000020840700200A11002080190020C6
:103230008988883C0023C5F8EC31B0490B7843F00D
:1032400002030B70AE4B4FF400425A834FF480429E
:103250001A830A25AA4C636983F400436361636996
:1032600083F480436361192004F0B3FE013D19200B
:1032700004F0AFFE15F0FF05ECD14FF4804323833B
:10328000A04B1A684FF4004512F0080F25839846AA
:1032900007D09D4B65831B6898479C4B2583012273
:1032A0001A709B4B9FED9B8A1B689B4C1B7B00EE0F
:1032B000103AB8EEC00A20EE080A0DF0DBFE2288B4
:1032C00007EE902AF8EEE77A27EE800A13F06EF800
:1032D00024889FED927A924B07EE904AF8EEE77AB7
:1032E0001880C7EE277A8F4B8F4CFF211A22204679
:1032F0009FED8E7AC7EE877AC3ED007A8C4BD3EDC3
:10330000047A8C4B27EE888ADFED8B7A28EE278AA9
:1033100083ED008A12F03AFE00222270D8F80020D5
:10332000864B012112F0020F1970204604D0617003
:10333000032119700221A170540704D519784C1C7F
:103340001C700324445412F00A0F0CD01A78042184
:103350008154511CC9B205244454D11C0232D2B24A
:1033600019700621815476490A6812F0200F8846A8
:1033700004D019784C1C1C7007244454110608D53D
:103380001978092444548C1C0131C9B21C700A24D8
:1033900044546C4C61790829A24601D00E2904D10D
:1033A0001C78651C1D700B2505551C78651CEDB23D
:1033B0004FF00C0E12F4803F1D7000F804E009D0AD
:1033C00004F1020E5D4C84F800E0574C4FF00E0EF5
:1033D00004F805E0540704D51C78651C1D70102501
:1033E00005551C78651CEDB24FF0120E12F4806F7B
:1033F0001D7000F804E00ED09AF808E2BEF1000F4C
:1034000009D004F1020E4D4C84F800E0464C4FF018
:10341000130E04F805E01C78651CEDB24FF0140E95
:1034200092051D7000F804E005D5444A023414707A
:103430003D4A1524545518290BD11A781624845462
:10344000541CE4B217250555D41C0232D2B21C70AC
:103450008154002198223C483C4C12F097FD10F01A
:1034600069FE3B493B4AC4F8F02100234B800B71B5
:1034700039490A60BAF8962190B238495852023355
:10348000242BFAD1D8F800301B0740F116819AF8A6
:103490009031062B00F20B81DFE803F00404729CEC
:1034A000B3CECE002E492F4A0A60012B2E482F4959
:1034B00007D103250570072084F8F43108700C2328
:1034C00007E00223037003230B70002384F8F43118
:1034D000072313704020264BC4F8F83104F084FB16
:1034E000002800F0E48001234FF0000990F900006B
:1034F000204A8DE80802402180E000BF6C51002086
:10350000000C024024070020700700205C0F002000
:10351000A811002035FA8E3C020000200AE81C4168
:10352000CC11002094100020BB2C002000401C4631
:10353000E8100020A4110020BD378635BA2C0020E9
:10354000C00500208407002090290020A019002039
:10355000E01300200C090020C40500203A070020D9
:10356000CC050020D52C0020C9050020D005002066
:10357000917900082D7D00080000B0C4CDCCCC3F6F
:1035800007EE102A5FED047AF8EEC76A1FED057AA0
:10359000E6EE877A0023FCEEE77A6C4A17EE901A83
:1035A00099500433482BF8D1694BC4F8F831694B72
:1035B000122240201A7004F017FB002877D0012354
:1035C0004FF0070C90F90000634A8DE80810402185
:1035D000624B66E0624BC4F8F8315E4B102240202B
:1035E0001A7004F001FB002861D001234FF0000E97
:1035F00090F900005B4A8DE8084040214FF4E13328
:103600004FE0594BC4F8F831524B082240201A7051
:1036100004F0EAFA00284AD00123002590F90000BE
:10362000524A8DE8280040214FF4E13310F0B4F8FD
:103630004F4BC3F8FC0136E046494E480C22062B9E
:103640000A7010D00023037084F8003284F801322D
:103650001B2384F80232052384F8032284F8043201
:103660004FF4E1350DE00021017084F8001284F878
:103670000112414D84F80322212184F8021284F8BA
:1036800004323E4BC4F8F831402004F0ADFA70B17A
:10369000012100233A4A90F900008DE80A004021F8
:1036A0002B4610F079F8003018BF012028B9082007
:1036B0000DF0CAFD0023C4F8F831D8F80030254ACF
:1036C00013F4804F04D0082111702E49C4F8F8116A
:1036D00042F20101194003F0010003F4005541B129
:1036E0002949C4F8F8110DB10821117008B10C2155
:1036F00011701178043951701A0640F187804FF02B
:103700000009224DDFF894B02148C6F808B24946B6
:10371000152285F80190C5F80490C5F8089012F0BC
:1037200035FC1C4BABF1050248461A6003930FF0C1
:1037300029F8194A02201268EA6004F055FA039B3E
:10374000194668BB80200DF07FFD57E01806002069
:10375000DD790008D52C0020397E0008A086010004
:10376000CD790008C57D0008B9790008797D000889
:10377000A01900201807002090D003007D790008D0
:10378000419600080D7A0008197A0008B810002048
:10379000AC1B0020D8100020645100206A090020D2
:1037A00090F805E06B78C54A4FF00C0C0CFB032C2D
:1037B0009CF801C0F44504D00133DBB2042BF2D9EC
:1037C00000236B700B6890F900001B7813F0FD0F5D
:1037D0006B784FF00C0505FB03220CBF0121032180
:1037E000537800910022019202210FF0D5FFB44BD3
:1037F00018600028A6D001200EF0C4FFB14B186855
:10380000B14B00F5C5721A600DF0A8FEAF4BC4F8BD
:103810002432D8F800208033C4F82832AC4B00257D
:1038200012F4803F1D700DF14C0B00F0C880039323
:103830000DF0D4FD039BDFF8CCC24FF0010983F8F3
:10384000009040F22A331A46604629460393CDF889
:1038500010C012F09BFB9F4A116B41EA09011163F2
:10386000116C41F008011164116B41F400111163F6
:1038700002228DF82C2003228DF82D20964A0592E5
:1038800010460AA9CDF828908DF82F908DF82E506B
:1038900006F0C0FA059A116A21F00F011162116A4F
:1038A00041F0020111628D4A118821F001010904E1
:1038B000090C1180118821F45C710904090C118034
:1038C0006821D1621585A2F81490118C21F00101B4
:1038D0000904090C1184118CB2F804E0108B21F05A
:1038E000020120F0730000040904000C090C1FFA07
:1038F0008EFE40F0600041EA0901A2F804E0108366
:1039000055631184118B21F008010904090C41F061
:1039100008011183118889B241EA0901118002F579
:1039200015324032116821F00101116010460592F4
:1039300006F092F9039B17934FF480634FF04061B8
:1039400019934FF48053059A13911A936449149173
:103950004FF4804340211B934FF440331046DDF871
:1039600010C016911D93594604231E9318951C955B
:103970001F9520952195CDF854C006F043F9059A7E
:10398000136843F010031360564B4FF400129A6013
:1039900009A80D238DF824308DF825908DF8265038
:1039A0008DF827900EF0CEFF4F4B1A684F4BEA5020
:1039B0000435802DF8D10FF0FBFD0FF0F9FDD8F89C
:1039C00000305B055AD54A4BD6F8D49EC3F8009018
:1039D000042004F009F90421C6F8D80E04F0DDF83B
:1039E000444B86F8DC0E0820C3F8009004F0FCF885
:1039F0000821C6F8E00E04F0D0F83F4D86F8E40E3A
:103A0000002128462C2212F0C1FA8E236B70E0238D
:103A1000EB704FF07C0C7D2385F800C085F82B30CF
:103A2000364D039300212C222846CDF810C012F009
:103A3000ADFA8A22DDF810C06A70A02285F800C0B5
:103A4000EA70039B85F82B301020C6F8E89E04F03E
:103A5000CBF81021C6F8EC0E04F09FF886F8F00EB3
:103A60002020C6F8F49E04F0BFF82021C6F8F80E16
:103A700004F093F886F8FC0E10F046FD204D2B88DC
:103A800023F040031B041B0C2B802B8823F03803EE
:103A90001B041B0C43F008032B802B889BB243F0C4
:103AA00040032B8000269F2332208DF828308DF88C
:103AB00029608DF82A608DF82B6025E0AC84010820
:103AC000B410002000110020E41200209C09002006
:103AD000F91800200038024000000240000C0040AD
:103AE000340C00400060024036870108FA180020BC
:103AF000B02D0020042E0020D42D00200A2E0020FE
:103B0000003C0040CC1B002004F063FA8DF84D60AF
:103B100006F1804606F504364FF400490AAA04234C
:103B2000A6F81A90284659460FF07AF9A6F8189088
:103B30009DF84E209DF84D30120242EA03429DF856
:103B40004F301A43694B9A42694B1BD008D86949D8
:103B50008A4210D001F51A4102318A420DD01FE08D
:103B600065498A4209D001318A420BD063498A42B1
:103B700016D1402202E0202200E080221A804FF479
:103B8000807202E04FF480721A805A809A881988F5
:103B900012029A604A43DA60012284F8FD2E04E0A2
:103BA00000221A805A809A60DA60DE681EB3360CF2
:103BB000B1464FF0000CB44517DA0CEB06056D105A
:103BC000280459461022CDF810C00FF08DF9DDF809
:103BD00010C000235BF80320013240F083800433DF
:103BE000102BF7D1A9462E46E5E707F09BF94FEADF
:103BF0000943C4F8003FD8F8003013F4002318BF7D
:103C0000012384F8043F04F077F83D4B18609AF8DC
:103C10000530052B03D13B4B4FF4C8721A803A4B49
:103C20004FF47A721A80394BC8221A80384B1A78AE
:103C300042F008021A70374B1A7822F002021A700A
:103C4000D8F8002040F6020313406BB1324B334AE0
:103C50001A60334B03221A70324B01221A70324A17
:103C600000231380314A1380BB68C8F80030304B02
:103C700001221A702F4B1A7862F07F021A7023B05B
:103C8000BDEC028BBDE8F08F032004F0ACF9FFF728
:103C9000D4BABBF1010F7FF693A94FF0000BFFF7E9
:103CA00058B9254B42F210725A801A80234A5A6042
:103CB000234A9A60234ADA60234A1A61234A5A61E6
:103CC000234B03229A70234B1A6842F004021A60B5
:103CD000FFF704BAB8F1010F7FF660AA4FF00008B1
:103CE000FFF731BA05F1010C35467CE718BA200020
:103CF00020000020152020001740EF001620C200F1
:103D0000F811002072110020941900208E19002053
:103D10007E0700209E190020A82D0020FE0800200C
:103D20000829002031000020082E00200C29002046
:103D3000F81800206C510020680F002089C000088E
:103D4000F14B010893C00008014C0108590D01080E
:103D500019000020240700202DE9F04FC74AC84B66
:103D60001768B3F906007B892DED028B984285B068
:103D70000EDBB0F5FA6FFC7907DAC21A5443A3F5EB
:103D8000FA6394FBF3F4643403E0C4F1640400E0E8
:103D90006424BC4AB2F896310293BB4B92F962217B
:103DA000D3F800E092B200210392F2460A46B44BE7
:103DB000029D31F903B0C5EB0B0303F2F31640F299
:103DC000E635AE4203D8002BB8BF5B4201E04FF4AA
:103DD000FA73022A4FF06406AC4D2DD09EF811C143
:103DE000BCF1000F04D06345CCBFCCEB0303002330
:103DF00093FBF6FC6FF0630935F81C8009FB0C3966
:103E00000CF1010C35F91CC00FFA88F5C5EB0C0557
:103E100005FB09F595FBF6F5A8449D4D21F80580B5
:103E2000BD182D796B439B4D93FBF5F364339BB227
:103E3000634393FBF6F62FE09EF812C1BCF1000F2E
:103E400004D06345CCBFCCEB0303002393FBF6F611
:103E50006FF0630805EB460C08FB063905EB4606D8
:103E6000BCF90EC0B6F91050894ECCEB050505FB28
:103E700009F999FBF8F9039DCCEB090C0CFB05FC47
:103E8000A6F804C0BD7983EAE376A6EBE3766E4339
:103E9000804D96FBF5F664360EEB020C7B4B9CF8DE
:103EA000018003F11C054FF0640C06FB08F898FB39
:103EB000FCF802F805809AF80B8003F11F0506FB59
:103EC00008F898FBFCF802F805809AF8158003F1D1
:103ED000220506FB08F6022A96FBFCF656551D46FF
:103EE00016BF253383F827C0D454029B684E9B45E8
:103EF00002DA735A5B4273520231062902F101025F
:103F00000AF1010A7FF453AF5E4CB4F8983198423D
:103F100005DBB0F5FA6FA8BF4FF4FA6000E0184671
:103F2000C01A4FF47A725043C3F5FA63B0FBF3F34F
:103F30004FF0640E93FBFEF205EB42016FF063005D
:103F400000FB023305EB4202098DB2F92A00504F03
:103F50000AB2821A534393FBFEFE4F4B1B887144F7
:103F6000F180590636D54D4BDFED4D7A1A88474B17
:103F7000B3F84030D31A1BB208EE903AF8EEE88A54
:103F800068EEA78AB0EE680A0DF074F8B0EE408AC9
:103F9000B0EE680A0DF00BF8B7F90220B7F900305F
:103FA00006EE902A07EE903AF8EEE66AF8EEE77A27
:103FB00020EE667AA7EE887A67EE807ABDEEC77A41
:103FC000E6EE887A17EE103AFDEEE77A3B8017EEC0
:103FD000903A7B80334B1A6812F0020F994600F03A
:103FE0009680314B6A6C1B68284F9A1A45F207215C
:103FF0008A4240F38C807B640EF090FC97F8483046
:10400000DFF8B480032BB8F8003022D10A2B2CD96A
:104010000023282087F8483003F0DBFF0EF07EFCF9
:10402000B7F84A0006F000F8204B21491B68DA78FF
:1040300090FBF2F0421C082A28BF082258791B790D
:104040000A7092B21B4950435A430880A7F84C208B
:104050000BE00A2B09D80323154A87F848300023C0
:104060001370144AA7F84C30138095F84820074B7A
:10407000012A2DD022D3022A3FD048E0F41200209A
:104080003A0700208407002000110020C0280020EB
:10409000CA1200200CFEFFFF2C070020E4110020B4
:1040A00035FA8E3CC005002084190020A82D002080
:1040B00031000020082E0020AC2D0020A94B1A88CA
:1040C000B8F800309A4222DD012385F8483012E02A
:1040D000B8F80020B3F84C10914203DD022283F8B7
:1040E000482011E09F49098801318A4203DD0022FE
:1040F00083F848200BE0082007E0B3F84C30B8F80C
:10410000002001339A42DFDC072003F0FDFED9F8DE
:1041100000703A0573D5944B296D1A68934BC1EB27
:10412000020B45F207218B4569DD9149B6F90690EE
:10413000D1F800801A6598F80A10B4F852018D4E33
:104140004FF47A7201299BFBF2FBA9F57A7903D02F
:104150003ED302291CD03DE0586D082190FBF1FEB2
:10416000CEEB000090FBF1F14FF0000E5865A3F884
:1041700058E089B2B8F8083040F6E4404143C3EB58
:104180001131B8F906304A4392FBF3F2326021E074
:10419000794BB8F808A01B78C6F800A05B0719D5C2
:1041A0000EF06EFF20B917F0100F18BF4FF0000986
:1041B00009FB09F2322392FBF3F39944B8F9063074
:1041C0004FF47A7203FB09F393FBF2F3534400E0DC
:1041D000002333603368694AD5E9180103FB0BFB00
:1041E0004FF47A739BFBF3FB10EB0B0041EBEB718D
:1041F0000023C5E9180110F0B1FF614B1860614B55
:104200001A6812F4805F984626D0390621D55E4B95
:104210001B789A071DD55D4B1978042919D90023FD
:104220005B4E05229A551E44981C0A27122BC2B2D7
:10423000777004D0B1EB520F0346F1D800E014229E
:104240002A44322382F86730FF2382F868300F2037
:1042500000E00A2003F058FED5F88070434E002F8E
:1042600046D04C4BD6F8842019688A4299463FD8EC
:1042700096F88830B6F88AA07A68ABB9012386F838
:10428000883012F80A20CAB186F88C3003F0FCFDA1
:10429000BAF1000F12D13B78053B012B0ED803F089
:1042A0002BFDC6F8900009E0002386F8883012F84C
:1042B0000A201AB186F88C3003F0E6FDB5F88A10B2
:1042C0007A682A4B525CFE2A03D10022A3F88A2086
:1042D0000EE0FF2A02D103F0FDFD09E0D9F800004D
:1042E0000A2616FB02020131C3F88420A3F88A10C3
:1042F000214E3278530704D5274B4FF480425A831E
:1043000063E0D8F80030DF075CBF42F00102327092
:104310001D4A1278100703D4327822F0010232705D
:10432000D90203D5337823F0010333701B4B1B688C
:104330005A0702D51A4A128862B91A4A12880AB173
:104340009B0705D4184B1B88003318BF012300E0DE
:1043500001235BB3022385F88C30337823F001030B
:10436000337029E0082E002084190020C028002086
:10437000A82D0020B42D00209E190020407E0500AD
:10438000B82D0020280700207E070020E010002024
:104390002829002064510020000C0240240700203E
:1043A0008E19002072110020941900203278D7074E
:1043B00058BF022385F88C3003F09EFCD5F894306A
:1043C000C01A002801DB03F05FFD10F09DF8BE4B22
:1043D0001A78002A78D0D5F89830002B00F015868E
:1043E000D5F89800B94C03F078FE002800F00D864F
:1043F000D4F8980003F06CFE092801D03F2855D16D
:104400004FF00008D5F89C60B14F44462EB1B1483A
:104410003968324611F002FE10B9B84604B93C467C
:10442000AD4B10379F42F1D304B3D4F800E0D8F875
:1044300000C0D5F89C30A5481EF803701CF8031086
:10444000B94213D15A1C59B92D2B09D8C0F89C2058
:1044500003440244202783F8A07082F8A01005E0EE
:104460002B44C5F89C2083F8A070E2E7D5F89C3077
:104470000BB1444510D0994803F092FE444507D84B
:1044800054F8100B03F08CFE092003F082FEF5E7D0
:10449000934803F085FE0026D5F89C309E429FD2BB
:1044A0008C4B985D03F075FE0136F5E7D4F89C302F
:1044B000002B40F0D085042840F03E8604F1A00097
:1044C00006F0CDFE00F0A1BD864F97F84A30012BD3
:1044D00040F09685DFF82882834B3A68C8F8007070
:1044E0001A60C246DFF800924A46106803F0F5FDF4
:1044F000002800F07385D9F8000003F0E9FDDAF830
:10450000003093F84810834619B924283FD101227E
:104510003AE0012904D14D280CBF0222002233E0E9
:10452000022904D13C280CBF032200222CE00329DD
:104530000CD140284FF0000102D983F8481046E022
:1045400058711971D971987104221DE0042907D19D
:10455000997983F8490080EA01029A71052213E0F3
:10456000052934D1587919798842987908D98BEA84
:1045700000009871481C18710B4483F808B026E0BD
:1045800058450CBF0622002283F848201FE03378EC
:104590005B071CD4BBF1230FD9F800300CD14A4A79
:1045A0005248C5F8983001211170C5F8683103F000
:1045B000F7FD4B4803F0F4FDD5F86C311B785B45F3
:1045C00005D14B4B4B4A1A604B4B4C4ADA60DAF838
:1045D0000030DFF82C9193F84820062A82D193F816
:1045E000490002F0C9FA002840F0EE84D9F8002012
:1045F00092F84930482B00F04D834FD8332B00F010
:10460000178421D8292B00F0D28309D8252B00F05C
:10461000A983272B00F0AD83232B40F01985C6E03A
:104620002D2B00F0D58307D82B2B40F0118503F0FC
:1046300047FA607100F0C5BC2F2B00F07A84312B53
:1046400000F08C8400F004BD3C2B00F0E98009D818
:10465000372B00F03684392B00F09883352B40F04F
:10466000F7849EE1412B00F0E8830CD83E2B40F00C
:10467000EF8403F025FA84F8D40103F021FA84F8DA
:10468000D30100F09EBC432B00F0F883442B40F094
:10469000DF84012385F88D3100F093BCCF2B00F02F
:1046A000158240D8C92B00F0F8822BD84C2B00F093
:1046B000B283C82B71D04A2B40F0CA8403F00AFAA7
:1046C000A08100F07EBC00BF9C190020C028002003
:1046D000F8A5010860290020C8A7010828AA010838
:1046E0002DAA010890290020602E00205DAA010853
:1046F000FCFF0120EFBEADDE00ED00E00400FA0596
:104700005C2E0020CC2B00F0768104D8CA2B00F060
:10471000958000F09DBCCD2B00F0A582CE2B00F043
:10472000AB8200F095BCD42B00F014820FD8D12BB3
:1047300000F0DB82C0F08C82D22B1BD0D32B40F058
:10474000878403F0C7F9D64B188000F03ABCEF2BF2
:1047500057D007D8D62B08BF4FF0000900F0EF81E3
:1047600000F076BCF22B00F04B82FA2B00F08E8228
:1047700000F06EBC337803F0040303F0FF09002B54
:1047800040F01F8403F09CF9022884F8A00740F24F
:104790006582C44B83F8A09760E292F805A04FEAC7
:1047A0005A0ABAF1120F1CD84FF000091CE003F0AE
:1047B00087F9132815D8DFF8FCA2DAF8003000F1E9
:1047C0001E0B03EB8B0B03F07BF9B74B0BF10109CD
:1047D00003F5A272197A814200F0C5800C3393422E
:1047E000F8D10CF06BF9ECE3D14507D203F072F984
:1047F000AE4B23F8190009F10109F5E70122AC4B92
:1048000042E2DFF8B092D9F800A003F063F9AAF809
:104810005A00D9F8009003F05DF9A9F85800D0E3E8
:10482000DFF89092D9F800A003F04AF98AF8000066
:10483000D9F80030187803F07FFFC2E39D4B1A6867
:104840001278022A4FF0000A994671D1DFF864927B
:10485000D9F800B003F034F907EE100AF8EE477A01
:10486000B2EE048AC7EE887A0BEB8A03D9F800B05F
:10487000C3ED087A03F024F907EE900AB8EE677AE0
:10488000DFED8D7AC7EE277A0BEB8A03D9F800B0FB
:10489000C3ED0B7A03F014F907EE900AB8EE677ACD
:1048A000DFED867AC7EE277A0BEB8A030AF1010A5D
:1048B000BAF1030FC3ED0E7AC8D1BAF1070FD9F8D8
:1048C00000B01CD103F0FCF807EE100AF8EE477AAE
:1048D000C7EE887ACBED117AD9F800B003F0F0F882
:1048E00007EE100AF8EE477AC7EE887ACBED127A17
:1048F000D9F800B003F0E4F88BF84C0012E003F0B4
:10490000DFF80BEB0A035870D9F800B003F0D8F8C1
:104910000BEB0A03D9F800B0D87203F0D1F80BEB17
:104920000A0358750AF1010ABAF10A0FC5D148E322
:10493000D9F800B003F0C4F80BEB0A035870D9F8AB
:1049400000B003F0BDF80BEB0A03D9F800B0D87241
:1049500003F0B6F80BEB0A030AF1010ABAF10A0FE9
:104960005875E5D12DE31B788BF8013003F0A8F8DA
:1049700089F8010003F0A4F889F8020003F0A0F818
:1049800089F80300DAF800004D4BC5F8740179305E
:10499000C5F870310BF09EFF4A4B80F00100187093
:1049A0000FE303F08DF80B283FF61BAF414B4FF0A0
:1049B000060A0AFB00F01B68C83003EB000A03F08C
:1049C0007FF803283FF60DAF8AF8060003F078F869
:1049D0008AF8010003F074F88AF8020003F070F816
:1049E0008AF8030003F06CF88AF8040003F068F812
:1049F0008AF80500E5E25379092B7FF6F2AE324AD8
:104A0000D2F8009003F05CF82F4B89F80000D3F83F
:104A1000009003F055F889F8010003F051F82A4A94
:104A200013686428A8BF6420187103F049F8264A67
:104A300013686428A8BF6420587103F041F8224A23
:104A40001368FF28A8BFFF20987103F039F81E4BA8
:104A5000D3F80090642828BF642089F8070003F089
:104A60002FF8194A89F80200D2F8009003F028F8CC
:104A7000154B89F80300D3F8009003F02BF8D8F811
:104A80000030A9F80A005B790A2B40F29A820E4B9B
:104A9000D3F8009003F014F889F8080091E200BF01
:104AA000D212002084070020C8A701083A0700207E
:104AB00019070020001100200000C84200007A44BD
:104AC000C808002011000020F412002003F002F8B2
:104AD0006FF4AF6143189BB2C62B98BFA4F8960140
:104AE00002F0F8FFA4F8440102F0F4FFA4F8460134
:104AF00002F0F0FFA4F8480102F0ECFFA4F8D001A6
:104B000002F0DEFF84F8E10102F0DAFF02F0D8FFE4
:104B100084F8E20102F0D4FF84F8850102F0D0FFAE
:104B200084F8920102F0CCFFCA4BD3F8009002F057
:104B3000D1FF00EB80004000A9F8560026E102F00A
:104B4000C9FFC54B23F8090009F10209B9F1100F9B
:104B5000F5D136E253790F2B7FF443AE02F0B0FF6C
:104B6000072881463FF63DAEBA4AD2F800A002F0CF
:104B7000B1FF0E2303FB09F90AEB0903A3F819019E
:104B8000B44BD3F800A002F0A5FF0AEB0903B14A29
:104B9000A3F81B01D2F800A002F09CFF0AEB090366
:104BA000A3F81D01AB4BD3F800A002F089FF0AEB7C
:104BB0000903A84A83F81F01D2F800A002F080FF81
:104BC0000AEB090383F82001A24BD3F800A002F0FE
:104BD00077FF0AEB09039F4A83F82101D2F800A06E
:104BE00002F06EFF0AEB090383F82201994BD3F818
:104BF00000A002F079FF0AEB0903C3F82301E0E10A
:104C000002F05EFF0F2881463FF6EBAD02F058FF41
:104C1000C9EBC909A14489F8D40002F051FF89F811
:104C2000D50002F04DFF89F8D60002F049FF89F85F
:104C3000D70002F045FF89F8D80002F041FF89F85B
:104C4000D90002F03DFF89F8DA0003F0D9FCB8E1A1
:104C500033785A0700F1B5810AF066FF07F01EFEAF
:104C600008F020FFADE133785B0700F1AA817B4BB0
:104C70004FF4C8721A80A4E13378580700F1A1817B
:104C8000774B1A7842F004021A709AE13378590788
:104C9000E4D5DDE107F002FA93E102F011FF704B79
:104CA0001A7810B142F0020201E022F002021A70FA
:104CB00002F006FF6B4BDFF8C091187002F014FF92
:104CC000C9F8000002F010FFC9F8040002F002FF6A
:104CD000654B188002F0FEFE644B188095F8783121
:104CE00043F0020385F878316BE102F0E9FE0190B0
:104CF00002F0FAFE834602F0F7FE824602F0F4FE6E
:104D0000814602F0E7FE02F0E5FE02F0D9FE019BCB
:104D10009BB91020C5F87CB1C5F880A103F03EF91D
:104D20004F4B1A7842F001021A70B9F1000F00F0EF
:104D300048814F4BC3F8009043E1102B40F0418174
:104D4000C5F884B1C5F888A1B9F1000F02D0484B6D
:104D5000C3F8009047480223011D85F88C3107F005
:104D6000F9FC2EE1A06002F0BFFEA3681843A0602A
:104D700027E102F0AFFEA4F85C0102F0ABFEA4F85C
:104D80005E0102F0A7FEA4F860011AE102F098FEAD
:104D900084F87A0102F094FE84F87E0102F090FE1D
:104DA00084F87D0102F08CFE84F87F0109E102F0B5
:104DB00091FEA4F8800102F08DFEA4F8820102F0B9
:104DC0007FFE84F8840102F085FEA4F88601F8E0F5
:104DD00002F076FE84F8900102F07CFEA4F89A01BD
:104DE00002F078FEA4F8960102F074FEA4F898018F
:104DF00002F066FED9F8003084F891015B79082B47
:104E000040F2DF8002F066FEA4F89C0102F062FE30
:104E1000A4F89E01D5E002F053FE84F8CE0102F022
:104E20004FFE84F8CF0102F055FEA4F8D001C8E08F
:104E300002F046FE84F89201C3E0814602F040FE93
:104E400004EB090309F10109B9F1080F83F888019E
:104E5000F4D1B6E000110020F613002072110020FA
:104E60007E070020E0100020BE2D0020BC2D002079
:104E700030070020442A0020C42D002002F020FE2C
:104E80000023A360607102F02FFEA3681843A060A6
:104E900002F016FE84F8900102F01CFEA4F85C01FA
:104EA00002F018FEA4F85E0102F014FEA4F86001FE
:104EB00002F010FEA4F8800102F00CFEA4F88201BA
:104EC0007FE053794FF0070AB3FBFAF2C2EBC2025C
:104ED0009A1A12F0FF0F7FF484ACB3FBFAFABAF11E
:104EE000000F6ED002F0ECFD5FFA80FB4FFA8BF002
:104EF00002F034FE0AF1FF3A5FFA8AFA814600288E
:104F00003FF46FAC80F800B002F0E4FDA9F80200B5
:104F100002F0D6FD89F8040002F0D2FD89F8050000
:104F200002F0CEFD89F8070002F0CAFD89F80600FC
:104F3000D5E7DFF8989209F1400A02F0CBFDA9F815
:104F4000980202F0BDFD89F89A0202F0B9FD09F15C
:104F5000040989F89702D145EFD132E002F0B0FDA3
:104F60001F283FF63EACD8F800305B79082B7FF461
:104F700038AC00F1860A02F0ADFD04EB8A0900F0BE
:104F80003F00A9F8020002F0A5FDB9F80220800157
:104F900000F4FE531343A9F8023002F091FD000122
:104FA00004F82A0002F08CFD14F82A3000F00F00FB
:104FB000184304F82A0002F083FD89F801000CF080
:104FC0000DFA002003F0D0F8D8F80030987903F0FB
:104FD0009CF8D8F80030002283F8482095F88D31ED
:104FE00073B1386803F05FF818B9322002F0F1FFAE
:104FF000F7E70DF0D7FE03F029F8604B604ADA605E
:10500000604B4C379F427FF460AA5F4B1B689A0647
:1050100016D55E4BD5F890211B689A1A002A0FDB33
:105020005B4A1278042A0BD95A4A03F5123303F566
:10503000F873C2F89031584B5A6982F400425A61B1
:10504000564B9B68002B00F094805548984790E0A1
:105050000BF034FDB8E70C2803D1524803F0A0F858
:105060005AE00A2801D00D2858D14A4C4E4804F184
:10507000A00603F095F83046232110F0BAFF10B1D6
:10508000801BC4F89C00D5F89C30002B38D0591EEA
:10509000404A705C202801D10B46F6E7C2F89C30EC
:1050A0001344002283F8A020404B414CD3F800A0C9
:1050B000D4F80090DFF8DC80484610F0A7FF08F134
:1050C000A007064649463846324610F0A7FF394B3E
:1050D00038B908EB060292F8A020524452785007E3
:1050E00003D010349C42E3D306E09C4204D2701CEF
:1050F000E3683844984702E02F4803F051F8002352
:1051000030222E48C5F89C30002110F03FFF2C4A79
:105110001378002B3FF479AF2A4809E07F2811D19A
:10512000013BC4F89C3023440022274883F8A02088
:1051300003F036F8FFF754B90C288ED07F2804D13D
:10514000FFF74EB92F2B3FF64BA9A0F12002D2B2A8
:105150005E2A3FF645A913B920283FF441A95A1CFD
:105160002B44C5F89C2083F8A00003F012F8FFF749
:1051700037B905B0BDEC028BBDE8F08F00ED00E063
:105180000400FA05282A00202407002084190020A2
:10519000E0100020C0280020000C0240E810002091
:1051A000542A002032AA010874C001084C010020D2
:1051B000F8A50108C8A701083DAA01086029002038
:1051C0009C1900202DAA010859AA01088407002073
:1051D0002DE9F04F9A4E9B4A33689B4C03F59C4354
:1051E000203313602388994A01331168238042F2E7
:1051F00001030B4087B093461BB1954B1A780132DF
:105200001A700DF0B7FCDBF80030DD0405D5914BCA
:105210001B68D80701D40FF015FF8F4B8F4D1A680C
:10522000937A23B3013B127B35F813301AB1C3F5DF
:105230003B6308339BB21BB2A3F57A73B3F57A7F55
:10524000A8BF4FF47A7323EAE37307EE903AB8EEFF
:10525000E77ADFED837A834BC7EE277A9FED827A78
:1052600067EE877AFCEEE77A17EE902A1A80DBF871
:105270000030D90540F18F8032687C4B9A4204D9C6
:10528000237913B9704B01221A71B4F900007849DF
:105290006D4B0E781428CCBF00200120C6F3800689
:1052A00030B14FF0000883F8068083F8058001E0F4
:1052B0004FF00308664BB4F900E05F686D4B94F85B
:1052C00006C0D3F800A0617963882A88BCF1030F77
:1052D00056D8DFE80CF0020C204410B12A800022DE
:1052E0003BE0002E40F0BA862A80A6714BE097F88A
:1052F000009009EB8909CE45CCBFB1464FF00009BB
:105300004FF0010CB9F1000F3AD0013361469BB266
:105310004FF0020CDAE78EB1BAF80E206A80AA804C
:10532000DFF864C1B7F80280A5F80680ACF8028007
:10533000B7F80280ACF804804FF0020897F80090AC
:1053400097F801C0CC440CEB8C0CE64500F38A8640
:10535000002E00F087862A800222A27113E02A80A4
:105360000322A271617163807EB141490B7843F0E1
:1053700002030B70344B00225A710FF063FE04E0FD
:105380002A8084F806C061716380B8F1000F02D0F2
:10539000404602F0B9FD384FB7F852010DF070FEEB
:1053A000814660B903F0FEF9294B0022C3F808904A
:1053B000C3F80C90C3F810905A619A61DA612C4AD4
:1053C00013785A0769D5DBF80030DB0665D52B4B1F
:1053D0001B78DE0661D42A4B1D4E93F80080B8F18D
:1053E000000F10D097F8D431B9F1000F15D16BB17F
:1053F000244B1A68336A9B1A002B07DA0FF022FE3F
:1054000086F8249049E0B9F1000F3FD1102002F056
:105410007BFD012386F824303FE033B1194A12683E
:105420004FF47A7101FB0323336296F82430A3B35F
:1054300002F050FD064B002283F824202DE000BF2F
:10544000841900201C070020E0130020C005002064
:10545000582A002028070020C40500203A07002011
:1054600000007A44D82C002000C07F44404B4C0000
:105470009E190020901B0020840700207E0700203A
:1054800011000020645100201E2D002096F82430C9
:105490001BB102F01FFD86F82480002297F8D2A1EC
:1054A00097F8D311B7F89861B7F89AE11346A85E58
:1054B0009B08B042C4BF63F07F03DBB20232704589
:1054C000B8BF43F04003082AF1D19F4E96F825203B
:1054D0009A4205D196F82620F92A04D8013200E034
:1054E000002286F8262086F82530984BDFF8908237
:1054F0001A78EAB9D8F80030D80709D5B9F1000F01
:1055000016D193490B78D90712D50EF067FE0FE03C
:105510008F4A13785A070BD58E4B1B7843B16379AA
:1055200033B911B10FF08EFD02E0B9F1000FF9D0DF
:1055300096F82620844BDFF85092142A40F09A8087
:1055400082490A781AF1000A18BF4FF0010A7AB3AB
:1055500093F825205F2A12D17D490A7802F00402CF
:1055600002F0FF0112B10FF06DFD08E00B20019178
:10557000009302F0C9FC009B019983F82610BAF150
:10558000000F15D096F825307D2B11D1704A137875
:1055900003F0040303F0FF0213B10FF053FD07E023
:1055A0000B20019202F0B0FC674B019A83F8262091
:1055B00067490B7803F0040303F0FF00002B59D177
:1055C00096F82530604A572B16D1634B4FF47A7208
:1055D0001A80DBF800301B0601D50BF00FFE5F4B85
:1055E0001B68580702D55E4A0A21118013F0080390
:1055F00040D15C4A13803DE0DBF80010490715D527
:105600005A2B13D1584B197819B118700122574BE6
:105610001EE092F8273083F0010382F827300BB1A7
:105620000C2000E00D2002F06FFC23E05D2B00F069
:105630001D855B2B00F01C855E2B0BD1032000F039
:1056400018BDA72B40F03385494B1A7842F004026D
:105650001A700FE0562B03D1009309F0B1FD009BA7
:105660003A490A78002A00F019856F2B40F010851E
:105670000EF0B4FDDBF800305B0734D596F8273028
:10568000A3B1334A1378580710D5B5F90620B7F8F7
:1056900098319A420ADDD8F8003013F0010305D1A1
:1056A000344A32211180284A82F82730D8F8003055
:1056B000D9030AD5304B1A782AB92B4A127812B975
:1056C0002C4A3221118001220CE0274B1A7852B16A
:1056D0001F490A7802F0040202F0FF011AB919709A
:1056E000224B01221A70D9F80090002709F1790A9B
:1056F000C8F8007009F17B060AF10203D919DA5DD6
:105700004B7816F8010C9A420CD231460CF08BFF04
:1057100040B116F8023C01229A40D8F800301343F9
:10572000C8F800300437502F06F10406E4D1134BBB
:105730001F785FB3124E094F3368124D13F0020FFA
:1057400040F0508348E300BF582A00201100002099
:105750009E190020B905002094190020240700207C
:105760008E190020E41100209D1100209E110020C0
:105770007E070020841100209C1100209C1900202D
:10578000280700202C0700200011002009F1C90A79
:1057900009F1CA060AF10103D919DA5D4B7816F846
:1057A000010C9A4229D231460CF03DFF28B396F8FD
:1057B00002E0BF4B307996F803900EF1FF3E0EEBFE
:1057C0004E0E9E44BB4B4FF00C0C03F128080CFB13
:1057D00000FC08EB0C014A6872450ED0002208F864
:1057E0000C908A60012202FA00F093F85820C1F868
:1057F00004E022EA000083F858000637482F06F13B
:105800000606C7D1AC4BDFF8D0921E68AB4B1B68C5
:105810000293AB4B1B7803934FF00008D9F800308C
:10582000002B00F0D0821F78002F00F0CC82D9F836
:10583000042002998A1A002A0DDB01F5FA72C9F8D0
:1058400004209C4A012192F8580001FA08F120EA4C
:10585000010182F85810039A002A00F0B48219F866
:10586000041C5878934A0431C9B2002840F06A8277
:10587000944835F91110B0F8960100F1C80E714541
:1058800002DD93F802A015E0C838814203DA9B7864
:10589000C3F1000A0EE092F85810012303FA08F34E
:1058A00021EA030382F85830029A02F5FA73C9F824
:1058B000043088E292F8583043FA08F3DA0700F12E
:1058C0008282BAF1000FCCBF0220012002F03EFB21
:1058D0007B1E132B00F26E82DFE813F01400210010
:1058E0002E003E0056005D00C3003C01A201D20123
:1058F00002026C023E004C005D00C3003C019300BC
:105900000E01720137785744FA2FA8BFFA2727EA09
:10591000E7773046377002F0B3F901201AE0777864
:105920005744642FA8BF642727EAE777304677708B
:1059300002F0A6F902200DE0F778634B5744642F7C
:10594000A8BF642727EAE777F7703046196802F0A6
:1059500051F903203946C0E1717951446429A8BF47
:10596000642121EAE17171710D2004F051FC0D2FC9
:1059700000F02082317951446429A8BF642121EAD2
:10598000E17131710E20A8E1B179514481F3080130
:10599000B1710520A1E14D4B1B681A78022A22D172
:1059A00007EE90AAB8EEE70AF2EE047A80EE270A34
:1059B000D3ED097A30EE270AB5EEC00AF1EE10FAFF
:1059C00009D4DFED437AB4EE670AF1EE10FAC8BFEE
:1059D000B0EE670A01E09FED3F0A83ED090A0F2050
:1059E00004F02AFC0AE099785144C829A8BFC821CC
:1059F00021EAE17199700F2004F00AFC0F2F00F0EA
:105A0000D981324B1B681A78022A20D107EE90AA5E
:105A1000B8EEE70AF2EE047A80EE270AD3ED087AB0
:105A200030EE270AB5EEC00AF1EE10FA09D4DFED28
:105A3000287AB4EE670AF1EE10FAC8BFB0EE670A32
:105A400001E09FED240A83ED080A12206DE15978E8
:105A50005144C829A8BFC82121EAE1715970122018
:105A60003BE11A4B1B681A78022A37D107EE90AA3D
:105A7000B8EEE70ADFED167A93ED0C7A80EE270A8E
:105A800030EE070AB5EEC00AF1EE10FA07D4B4EE14
:105A9000670AF1EE10FAC8BFB0EE670A01E09FEDA9
:105AA0000D0A83ED0C0A102004F0C6FB21E000BFB4
:105AB0006DAF0108582A0020F41200206451002024
:105AC000B905002084070020302A0020342A002055
:105AD0000000C84200000000842A0020197B5144C5
