:020000040800F2
:10000000A405002089010008A52301084D2401084A
:10001000A3230108A12301089F2301080000000079
:100020000000000000000000000000009D23010807
:100030009B230108000000009923010825240108E2
:10004000E5010008E5010008E5010008E5010008F8
:10005000E5010008E5010008E5010008E5010008E8
:10006000E5010008E5010008E5010008E5010008D8
:10007000E5010008E501000839220108E501000852
:10008000E5010008E5010008E5010008E5010008B8
:10009000E5010008E5010008E5010008E5010008A8
:1000A0003921010869210108E501000879210108C9
:1000B00059210108E501000849210108932301089D
:1000C000812301088D2301087B230108E501000835
:1000D000E5010008D1220108E50100082D220108F0
:1000E00035240108E501000869240108E50100083C
:1000F000E5010008E5010008E5010008E501000848
:10010000E5010008A7230108E5010008E501000852
:10011000E5010008E5010008E5010008E501000827
:10012000E5010008E5010008E5010008E501000817
:10013000E5010008E5010008E5010008E501000807
:10014000E5010008E5010008E5010008151A0108AD
:10015000E501000895210108DD2201088921010837
:100160008723010875230108E5010008E50100085F
:10017000E5010008E5010008E5010008E5010008C7
:10018000E5010008E5010008002100F004B80F4B6C
:100190005B58435004310E480E4B42189A42FFF40C
:1001A000F6AF0D4A00F003B8002342F8043B0B4BB6
:1001B0009A42FFF4F9AF0A48016841F47001016006
:1001C00011F092FF00F010F870470000A87B0108C2
:1001D00000000020A4010020A80500202C400020E1
:1001E00088ED00E0FFF7FEBF2DE9804893B001F0F5
:1001F00055FFC74CC74E23783268254633B1636834
:10020000D31A002B02DB002323702372E16842F231
:1002100001030B400BB9BE4803740B0740F19481F6
:1002200063691B7A062B00F27F81DFE813F0070079
:1002300007003600F700390167016701237EB448E3
:10024000002B00F0728100230376C36990F819C077
:1002500090F8209093F80080022305EB030E03F141
:10026000010B9EF82100AA4F40FA0CF000F00F009D
:1002700040450ED20B280CD89EF821A007EB0B0EA0
:1002800007EB80009EF821E00AEA09070EEB07273A
:1002900047630233102BE0D137E194F864009C4BA4
:1002A000002800F0B98093F8B270002083F8640051
:1002B00093F8B10007F0070E40EA0E20986693F815
:1002C000B30000F03F0E4FEA4E1E4EEAD707DF663E
:1002D00093F8B470BF0047EA901793F8B50000F0A8
:1002E000010E47EA8E271F6793F8B67007F00F0ECE
:1002F0004FEACE1E4EEA5000586793F8B70000F060
:100300007F0E4FEA0E1E4EEA17179F6793F8B870DC
:100310007F0047EAD01093F8B97007F0030E40EA67
:100320004E20D86793F8BA0000F01F0E4FEA8E1ED9
:100330004EEA9707C3F8807093F8BB70FF0047EA56
:10034000501093F8BD70C3F8840093F8BC0007F018
:10035000070E40EA0E20C3F8880093F8BE0000F0B4
:100360003F0E4FEA4E1E4EEAD707C3F88C7093F843
:10037000BF70BF0047EA901793F8C00000F0010E6D
:1003800047EA8E27C3F8907093F8C17007F00F0EFC
:100390004FEACE1E4EEA5000C3F8940093F8C20014
:1003A00000F07F0E4FEA0E1E4EEA1717C3F8987042
:1003B00093F8C3707F0047EAD01093F8C47007F039
:1003C000030E40EA4E20C3F89C0093F8C50000F0ED
:1003D0001F0E4FEA8E1E4EEA9707C3F8A07093F8DF
:1003E000C670FF0047EA5010C3F8A40093F8C70096
:1003F000C7074CBF40F21477AD27C3F8A870870732
:100400004CBF40F21473AD2310F0080FC4F8AC30A9
:100410000CBF0123032388E0034686E094F8C970EB
:100420003B480023D7B390F8CA70B0F8CC8080F86E
:10043000C9304FF0020C4FF0030E1CFB07E981445A
:100440000CFB070C99F8CE909CF8D2C04CEA092C12
:10045000E0456AD190F8CF00012803D0812864D10B
:10046000734600E00346102F84BF102084F8CA00B2
:1004700094F8CAC000204FEA4C0C604555D0DFF814
:10048000A4E00EEB00070EF1260E97F803803F79EB
:1004900047EA082720F80E700230EEE73B4644E0BA
:1004A00094F814011A4B00283ED0002083F8140160
:1004B00093F81501A82837D193F82831A3BB05EB91
:1004C00043009FED157A90F8187190F8190100EB30
:1004D000072007EE900AF8EEE77A1048C7EE877A11
:1004E0009FED0F7A77EEC77AFCEEE77A17EE907AF7
:1004F00040F823700133082BE1D106E094F84C3129
:100500009BB1034B002083F84C0101230DE000BF99
:10051000A805002030160020CDCCCC40D406002009
:100520000080BB43760600200023D8070CD50120AD
:100530002074AD48C3F34003037083F001032370BC
:1005400002F5C333A03363604B0414D594F84D31E6
:1005500023B1A64B002083F84D010123A348237447
:100560004BB101230370A04B00271F7002F54333EA
:1005700003F5A0734360CF0713D594F84E7194F838
:100580004F019A4BB8420CD001201872964883F85C
:100590004F714FF0000E80F801E002F5C330A0303B
:1005A000586088040AD50023904800F5A877DF5BDF
:1005B000002F41F020850233182BF5D1237C33B96D
:1005C0008A4BD3F86831D31ADB43DB0F00E00123F9
:1005D0008BB1D4F86C31D21A12F1500F03D4834B83
:1005E00093F870313BB102F071FF012384F871314F
:1005F00084F8703138E1D4F874217C4B0132002A40
:10060000C8BF0022C3F874210A0640F12D81D4F836
:100610007831B3B994F87C31013B042B00F224818A
:10062000DFE813F01600160016000F01EA006F4B0A
:10063000D3F878010BF0D2FF08F0B8FA08B10DF04A
:1006400017FAD5F878010BF0CEFF0028EFD1E1E7DB
:10065000D4F89C21654D177817B1012F12D003E112
:10066000012B00F20181624B95F87D21D5F87801CC
:100670000C2101FB023292F8212053F822100BF0DA
:10068000A8FF67E0D5F878010BF093FF002800F091
:10069000EB8095F87C31022B48D0032B56D0012BF0
:1006A00040F0E280534BD5F894211B689A1AC72A70
:1006B00040F2DA80D5F89011042935D84C4AC5F8B3
:1006C00094310C2000FB0121D5F8785191F82110CC
:1006D000D5F808C00023104650F8237067455FFA2C
:1006E00083FE04D00133082BF6D1002300E07346CB
:1006F0008B4205D0284652F821100BF06AFFB3E078
:1007000094F87D310C2202FB0300476A013F17F881
:10071000011F19B1284606F0ADFBF8E7D4F8903177
:100720000133C4F890319FE002209BE0304B95F8F4
:100730007D21D5F878010C2101FB023292F82120AD
:1007400053F822100BF045FF03208BE0D5F89C31C5
:100750009B780BB9042085E095F898310BB985F8A2
:10076000987194F89831214D012B17D1D5F890311B
:10077000B22B0DD81E4AD5F87801134493F85C10BB
:1007800006F078FBD5F890310133C5F8903105E0DB
:100790000023C5F89031022385F8983194F89831F8
:1007A000124D022B1AD1D5F890310F2B13D8D5F852
:1007B0009C210F495278D5F8780102EB02120A44C5
:1007C000134493F8101106F055FBD5F8903101331E
:1007D000C5F8903102E0032385F8983194F89831F8
:1007E000022B41D9B6E700BF00000020A805002079
:1007F0003C4001080C400020D4F88421944B013285
:10080000C4F88421D4F89C21D2785AB193F87D2180
:100810000132D2B20521B2FBF1F101EB8101521A92
:1008200083F87D218B4B1B68C4F88831002384F842
:10083000A03194F8A13123F0020384F8A131012002
:1008400010E0844BD4F888211968814B8A1A40F64D
:10085000C4118A4208D9D3F8A42122F02002C3F897
:10086000A42105200EF0F2F90BF085FCD4F8B43188
:1008700030600BA898479DF82C3043B9764B1A6826
:10088000734BD3F86C31D31A642B00F15586D4F82E
:10089000BC116F4B3268D3F8C4010A44B4F8C011DC
:1008A000C4F86C21002284F87021543001B1022177
:1008B00009F044FD0BF05FFCD4F8CC313060C31A72
:1008C000A4F8C831C4F8CC0103F048FF634B604D75
:1008D0009B78ABB1B5F9D621B5F88C339A420FDCD1
:1008E00095F8F931012B01D0192B02D194F8DA23B4
:1008F00032B90E2B04D0082B1CBF0023A4F80C39EE
:10090000D4F8C481524D98F81461BEB3B5F8C03123
:100910009B0733D005F5116393ED080ADFED507A9C
:10092000B5F80E79B4EEE70AF1EE10FA22D912F01A
:1009300041FF05F63415D5ED007A20EE270A12F0B6
:10094000EFFEB0F5617FA8BF4FF4617006EE900A2C
:10095000DFED447AB8EEE60A80EE270A06F0DCFD09
:1009600007EE106AF8EEC77A27EE800A12F0D8FE7A
:1009700080B200E000203844A4F80E09D4F8A43175
:10098000334D9F0640F19480B5F8C03103F0300339
:10099000002B00F08D8095F8A131DE0740F18880B2
:1009A000B5F93C29DFED307A304E0A2392FBF3F3A0
:1009B00008EE103AB8EEC88A28EE278AB0EE480A48
:1009C00006F0AAFDF0EE408AB0EE480A06F004FEFA
:1009D000D5F84039B5F94A09DF78B0EE409AB2EE61
:1009E000048A002F44D0B5F846391FFA83F91BB2A8
:1009F000C01A07F0E9F87D42A84203DBB842A8BF5D
:100A0000384600E02846B4F844398144B4F948092E
:100A10001FFA83FA1BB21FFA89F9C01AA4F8469983
:100A200007F0D2F8A84203DBB842B4BF05463D4602
:100A300055440FFA89F9ADB207EE909AA4F84459DB
:100A40002DB2B8EEE77A07EE905AF8EEE76A19E0B1
:100A5000A80500200C4000203016002000000020D7
:100A60008FC2753CEFB6B04435FA8E3C3416002088
:100A700006EE900AB5F94859B8EEE67A06EE905AB5
:100A8000F8EEE66A68EEE67AE7EE097A26EE899AEB
:100A9000C7EE887AA7EE289AFDEEE77A89EE089AE3
:100AA00017EE903ABDEEC99A338019EE103A738072
:100AB000964DB4F8602305F55F730093944BD4F81A
:100AC0004C191E68404608F15403B04794F8506929
:100AD000032E16D9D5F854395A88B2F5FA7F10D2B8
:100AE000B5F90C09B5F95C190028B8BF404253426A
:100AF0001B1A994203DB13188B42A8BF0B46A4F8BC
:100B00005C39B4F80E19B4F85A09B4F85859D4F845
:100B10005479B4F95CE97F4B0022B24203F110032F
:100B200035D297F901C00FFA85FACCF1000C0EFB13
:100B30000CFC06EE10AA0FFA80FA07EE10CA07EEB8
:100B400090AA0FFA81FCF8EEC76A05EE90CA13ED81
:100B5000027ADFF8C8C1F8EEE77AF8EEE55A67EEF8
:100B6000877A13ED047AE5EE877AB8EEC66A13ED5C
:100B7000037AE6EE077A13ED017AE6EE877AFDEE68
:100B8000E77A17EE908A2CF812800132C5E7624BA3
:100B90001A7802F0040202F0FF03002A00F09280AB
:100BA00094F83B0AB4F8201A06900123B3425B4F35
:100BB00008B207D237F913108142B8BF014689B293
:100BC0000133F3E7D4F85C2AE368B2F802E0D4F822
:100BD00054C9D4F8605A7045C8BFCEEB010E03F477
:100BE0008051079103F0100AB4F9D611D4F8640AC1
:100BF0004A4BCCBF1FFA8EFE4FF0000E07EB4609A2
:100C00004B4556D01E88079FCEEB0606B6B223F89A
:100C1000026B27B39CF800704FB9EF89B0F80680DB
:100C2000C8EB070B594502DDB844414512DBEF899B
:100C3000B942CBBF47889788B2F80280B0F80080ED
:100C400036B2BE4203DB4645B4BF3746474623F8BB
:100C5000027CD5E7B942CCBF4688068826E0069FCD
:100C6000B2F802B036B257B1B2F80480464503DBA1
:100C70005E45B4BFB046D84623F8028CC0E7B2F850
:100C80000080464503DB5E45B4BFB046D84623F836
:100C9000028C2E8AB142B3DABAF1000F01D09688E5
:100CA00004E09CF80060002EAAD1168823F8026C9C
:100CB000A6E794F8682A154B013AD2B2182A00F236
:100CC0005A810AE0B342F4D2144A02F14A0131F8DF
:100CD000131022F813100133F4E701219140104A58
:100CE0000A40002A00F04781B3F8C021D00519D589
:100CF000B3F80829ADF82C20B3F80A29B3F80C3959
:100D0000ADF82E20ADF8303025E000BFA80500205A
:100D100008000020080F002039160020C80F00200E
:100D200099209801B3F85829D968ADF82C20B3F868
:100D30005A29ADF82E20C904B3F85C29ADF830204B
:100D400009D5B3F9D611D3F8603ADB899942BCBF13
:100D50005242ADF83020B4F93A194FF47A7201F5E5
:100D6000E16151434FF4616391FBF3F1A1F5FA7135
:100D7000ADF84410B4F9381901F5E1614A4392FB2A
:100D8000F3F3A3F5FA73ADF84630B4F8203AB4F8AB
:100D9000D021A3F2DC53ADF83230D4F8603ADB89CD
:100DA000D21AADF83420B4F8D221D21AADF83620D8
:100DB000B4F8D421D21AADF83820B4F8D621D21A1A
:100DC000ADF83A20B4F8D821D21AADF83C20B4F8E6
:100DD000DA21D21AADF83E20B4F8DC21D21AADF8EF
:100DE0004020B4F8DE21D31AADF842300022B94BCE
:100DF00003F68220002111520232102AF7D1D3F8D3
:100E0000940AD3F8982A93F8923A06905B000993D3
:100E100007920B46DDF824C0AE48634500F08F8092
:100E200000F69C256A18967936B10127153607FA1F
:100E300006F6069F3E407CD0685C079D92F904B0A0
:100E400092F801A092F803805679C0EBC00E05EB32
:100E50004E0E4FEA4A0CBEF90270BEF900500896D9
:100E60007F1BBFB2642507FB0BFB9BFBF5FB4FEA27
:100E70005709C9EB0B0B1FFA8BFB974D12AEB8F15C
:100E8000000F03D1664436F81C6C0CE0B444EE5EEF
:100E90003CF91CCC664508DAB044B04503DBC445D8
:100EA000B4BF66464646EE520AE009DDC8EB0608C6
:100EB000E04503DBB045B4BFC446B44625F803C0E3
:100EC0004FF0010CDEF80AE0824D92F902200CFA94
:100ED0000AFA1AEA0E0F0CBFE6464FF0FF3E05F67F
:100EE0000C3C05EB400633F80CC0B6F8826A12FBE6
:100EF0000CF24FF0640C92FBFCF20FFA8BFB5A459C
:100F00001FFA8EFE0EDBDDF820A04FFA8AF807FBF1
:100F100008FB9BFBFCFBC9EB0B0B0FFA8BFB934510
:100F2000A8BF934605EB40050BFB0E6BA5F882BAF4
:100F300002E000F60C301E52023307316AE700254A
:100F4000D0F8989A2E460E2202FB0692634F92F931
:100F50000680EB5B18FB03F8642398FBF3F825F895
:100F60000780F0B206F040F801364044082EE853FE
:100F700005F10205E7D1574DEF6817F02009A846A3
:100F800034D0002006F030F8A5F8820A0646012089
:100F900006F02AF8D5F8943AA5F8840A1B0625D558
:100FA000D5F82C3BB5F838291B78012B22D1D5F880
:100FB000983AB5F93AE993F9141093F9063011FB10
:100FC00002F25B4232210EFB03F392FBF1F26FF06F
:100FD000310E92B293FBFEFE964493FBF1F1764400
:100FE0000A44A5F8826A1044A5F8840AD5F898BA8C
:100FF000002319E0D5F8981AB5F83A3991F906E0C6
:1010000091F914101EFB03FE32239EFBF3FE11FB2D
:1010100002F2764492FBF3F3A5F8826A1844E3E700
:10102000D1520233102B10D0C3EBC3062B4A5E44BF
:10103000985EB6F90010B6F9026088429246EFDB7E
:1010400031B28842B8BF0146EAE7224BD3F854399F
:1010500093F90820A2B995F868BA0BF1FF32182A63
:101060007AD8DFE802F0317979557979794C797954
:10107000797979627979797979556D7979623100FF
:101080000026174A3AF90610442000FB0620B3F95F
:101090000620059306F0A8FAC6EBC60180B22AF82E
:1010A0000600594400B2B1F90020059BB1F90210C5
:1010B000904203DB0AB29042B8BF02462AF80620EB
:1010C0000236102EDDD1C6E71B795BB10020B5F8E2
:1010D0008C1A10E0A8050020B41000202A1000206F
:1010E000D8100020B84B1B7803F0040303F0FF0076
:1010F000002BEBD1014606F01DFE01262DE000205D
:10110000B5F8881A06F016FE0120B5F88A1A07E02D
:101110000020B5F88A1A06F00DFEB5F88C1A0120E9
:1011200006F008FE022600F0ABBF00260AEB4603DD
:10113000F0B29988013606F0FDFD062EF6D10CE0DE
:1011400000260AEB4603F0B2D988013606F0F2FD1C
:10115000042EF6D100F094BF0026B9F1000F02D1A1
:10116000BBF1050F0CD13046B5F8821A06F0E2FD4E
:10117000701CC0B2B5F8841A06F0DCFD0236F6B277
:10118000F90208D4914FD5F8701F3A68904B511A64
:1011900000290DDAD0E100278E4B03EB4703F0194D
:1011A000C0B2198906F0C6FD0D2FEBD00137F3E769
:1011B00002F5FF72C3F8702F93F8743F0BB10EF075
:1011C0008FF9B5F8C03133B9814BD3F8C40101218F
:1011D000543009F0B3F8804B1878002840F0AC8107
:1011E000EA687B4B120340F1A78193F8752F023A0E
:1011F000052A1ED893F8FC2832B1012A09D106F03D
:1012000021FDC0F17F0004E0D3F8780F03689B68EC
:101210009847D5F87C3F95F8802F1344B3F5807F2D
:10122000A8BF4FF480738342D4BFC5F87C3FC5F894
:101230007C0F95F8753F023B082B00F27781DFE8C1
:1012400013F00900410067007D009600A8003C01F2
:1012500059016601614B1A68D5F8883F64339A4298
:1012600040F2648140200FF091FF002840F05E8141
:1012700040275B4BD8F8842F554E1A44994692F874
:10128000640170B10FF0C4FFD6F87C1F0139C6F8B5
:101290007C1FD6F8841F013F01F10101C6F8841FAD
:1012A000E7D1D5F8842F4A4B4A4492F86421002AAA
:1012B00040F03C81C3F8842F4FF0FF32C3F8882FF1
:1012C00003221CE024230093464B019303F10C02FC
:1012D00002924920A3F10A02502102330BF039FC9B
:1012E000002840F02381EA68394B12F080024FF069
:1012F000FF3107D0C3F8840FC3F8881F042283F896
:10130000752F13E1C3F8842FC3F8881F0622F6E770
:10131000354A02230021009301910291482002F1F5
:1013200008030BF016FC002840F000814FF0FF335B
:10133000C5F8883FC5F8840F0523BBE00723009359
:101340002A4B019303F10C0202924720A3F10802F9
:10135000002104330BF0FDFB002840F0E7804FF044
:10136000FF33C5F8883FC5F8840F0623A2E0204A62
:1013700005230021009301910291532002F10803FB
:101380000BF0E7FB002840F0D180C5F8840F07235D
:1013900090E040200FF0FAFE002840F0C780D5F81A
:1013A000843F0C2B7DD8DFE803F0070B2B2F354053
:1013B00044484C505D676B000E4810F081F86AE0BD
:1013C0000D480E492EE000BF3916002030160020CF
:1013D000A805002078070020381600200C400020C7
:1013E0003C4001080A420108B0430108C843010813
:1013F00014440108EC5001080651010884690108F1
:10140000C148C249C24A44E0C24895F8FA1895F862
:10141000FB283EE095F8D438BF480C2202FB03833A
:1014200093F8D61810F04CF835E0BC48B5F83413F2
:10143000F8E7BB48B5F83613F4E7BA48D5F8B81161
:10144000F0E7B94BB9489988ECE7D5F88C2FB84B41
:10145000D60403D5B74893F86E13E3E70B22C3F81D
:10146000842F18E0B44895F8721395F8732395F813
:10147000713310F025F80EE0B048B5F8901FD1E7B1
:10148000EA68AB4B100506D5AD48B3F87613B3F94F
:10149000742310F015F8D5F8843F0133C5F8843F64
:1014A00044E00FF0A3FE002840D04FF48053A5F88D
:1014B000923F092385F8753F38E0D5F8943A9C4E61
:1014C000990114D5B6F8943F8BB9D6F8983F0B9391
:1014D0000E203B680C930BA90BF0EEFB4FF48053EE
:1014E000A6F8923F092386F8753F0AF03BF806F00C
:1014F00059FA1BE095F89C2F8D4B002AF5D0D3F8B4
:10150000942A9201F1D4082283F8752FEFE78D4BCE
:101510001A68D5F8883FC8339A4203D90EF07CFE8A
:101520000123C7E70FF062FE0028F7D10FF020FB80
:1015300010B1012385F8753F834B1E78002E7EF491
:1015400058AE7B4DEB685B057EF553AE95F89D3F3D
:10155000B5F84293DFF8EC81002B00F01C82D8F83C
:101560000030D5F8A02F9A1A7C2A40F21482C5F8D0
:10157000A03F95F8A43F013385F8A43F06F124006D
:101580006B4FC0B205F098FC07F6A67333F916301E
:1015900007EE103A644B9B8807EE903AB8EEC77A94
:1015A000F8EEE77A0136C7EE277A9FED687A67EEA4
:1015B000877AFDEEE77A17EE900A00B205F0A8FCF4
:1015C000032EDBD1302005F077FC002005F0A0FCD5
:1015D00005F080FC97F8A46F16F0030623D1D7F826
:1015E000A02F41F288339A420BD9102005F064FCF9
:1015F000304605F08DFC212005F05EFC304605F0FC
:1016000087FC142005F058FCB5F93C090A2390FB2F
:10161000F3F005F07DFC1C2005F04EFC002005F0E9
:1016200077FC05F057FC95F8A43F414E5F0740F06A
:101630008C81022005F040FCB6F9AC0F0A2390FB28
:10164000F3F005F065FC0320B6F90E7905F034FCE3
:101650003F4B1B784FF0050A97FBFAF75807BFB2CC
:101660000CD506F55F7049460DF0F2FF20B9F3681E
:1016700013F0100F18BF002738B205E0D6F8B03FBE
:101680009B89B3FBFAF000B205F042FCEB68284EF0
:10169000990740F1B680DFF8BC90B6F8B43F99F8EE
:1016A0000020B6F8B6AF642707FB03234FEA0A1AF7
:1016B0005200B3FBF2F31FFA8AFA4AEA032A1FFA2E
:1016C0008AFAC3F303234AEA030A062005F0F4FB6F
:1016D0000FFA8AF005F01CFCB6F8B62F99F8003026
:1016E000013292B292FBF3F103FB1123A6F8B63F4D
:1016F000D6F8B83F9B7B012B2ED1392005F0DCFBBF
:10170000B6F9B40F44E000BF1B5101082F51010886
:101710003B51010844510108555101085F5101082E
:101720006E5101087D510108000000208D51010813
:10173000A805002097510108A4510108BD510108D6
:10174000C85101080C4000203816002000007A44DF
:10175000391600200C000020B6F8B43F6E265E4318
:10176000152396FBF3F6B6B23A2005F0A5FBB6FBBF
:10177000F7F90FFA89F005F0CBFB3B2005F09CFB55
:1017800007FB196080B205300A2390FBF3F000B22A
:1017900005F0BEFB282005F08FFBD5F8BC3FAD4E11
:1017A0000A2293FBF2F000B205F0B2FB042005F030
:1017B00083FBD5F8B03FD6F8C00F9B894FF6FF7278
:1017C0009042A8BF104620EAE070BBB1181A07EE9D
:1017D000900A9FEDA17AF8EEE77A06EE903A67EE6E
:1017E000877AB8EEE67AC7EE877AFDEEE77A17EEEB
:1017F000900A6428A8BF642020EAE07000B205F0D7
:1018000087FBD5F8A431934E9A0640F1938096F861
:10181000A1319B071DD5112005F04EFBB6F8C40F72
:101820008E4B4FF4F367784390FBF3F000B205F072
:101830006FFB192005F040FBB6F8C43F5F436423FB
:1018400097FBF3F797FBF3F203FB127000B205F07E
:101850005FFB95F8A131B5F8C66F13F0020F08BF12
:101860000026012005F028FB30B205F051FB0920CD
:1018700005F022FB002005F04BFB794B95F8A061A9
:101880001B88B3F5967F0BD9724A92F8A42F02F009
:101890000F02072A04D842F20F76B342B8BF1E46A1
:1018A000052005F009FBD5F8B83F5B7B0BB930B2DA
:1018B0001AE0203E07EE906A9FED6A7AF8EEE77A2A
:1018C000FEEE006AC7EE877AB6EE007AF5EEC07AD1
:1018D000F1EE10FA48BFB0EE667A77EE877AFDEE49
:1018E000E77A17EE900A00B205F012FB95F8A121F5
:1018F000584B970703D493F8C82F012A04D101232A
:1019000085F8C83F58481CE0D3F8B83FDFED577A58
:1019100093ED017A27EE277A0BA8BDEEC77A8DEDFD
:101920000B7A93ED027A67EE277AFDEEE77ACDED3A
:101930000C7A06E04E4A92E803000BAB83E8030002
:10194000184605F0F0FA05F0C5FA95F8A43F282BE3
:1019500021D1404BD8F80060002283F8A42F4FF427
:101960007A73B6FBF3F917203C2605F0A5FAB9FB0C
:10197000F6F7B7FBF6F006FB1070000200B205F0B8
:10198000C7FA182005F098FA06FB179000B205F088
:10199000BFFA05F09FFA95F8D43F2E4E002B00F0C9
:1019A00064810AF0E8FBD6F8D83F324AC31A934262
:1019B000074640F2E480002386F8DE3F86F8E03FE9
:1019C000B6F8B43FD8F80000DAB21B0A86F8FB3F3D
:1019D00086F8F13F284B86F8FA2F86F8F02F53F857
:1019E000F02C801A53F8EC2CD27B4FF47A715143CF
:1019F00088420ED3214A126843F8F02C13F8E82CE1
:101A0000013A012A05D8102286F8DE2F022286F834
:101A1000E02FD5F8BC1F0A2291FBF2F185F8F81FE0
:101A2000091285F8F91FD5F8C01F91FBF2F295F85D
:101A3000A01103F8CD1C95F8A13185F8FC2F9E0765
:101A40004FEA222285F8FD2F0B4A19D42D2302F8E4
:101A5000CC3C91E0A80500200000C842A08601000F
:101A60000E0000206666E63F741500208096184B35
:101A70003C4401083F0D0300A01600200C4000204C
:101A80000429D4F8CC6FCE4DDFF850E3D4F8D00F52
:101A90008CBF3323322302F8CC3C96FBF5F30EFBCC
:101AA000036803EB830390FBF5F503EB8303C54A5F
:101AB0000EFB050E4FF0060C4FEA8309C24B0CFBE0
:101AC00008F8F60F0CFB0EFE98FBF2FA03F8DE6C3A
:101AD0009EFBF2F6642102FB1A8802FB16E292FBDF
:101AE000F1F203F8D62C1212C00F03F8D52CB4F87B
:101AF000C42F03F8D90C2420424398FBF1F892FB41
:101B0000F1F133F8BA2C03F8E01CC1F3072103F814
:101B1000DF1C03F8D42CB4F8C61F03F8DB8C120AC0
:101B200005EB850503F8D32C0A2205EB8505B1FBEF
:101B3000F2F2AD0002F5FA7292B249FA8AF945FA68
:101B400086F51FFA89F9ADB203F8D22C120A03F810
:101B5000DD9C4FEA28284FEA192903F8D85C03F8DE
:101B6000D12C2D0A33F8B82C03F8DC9C03F8DA8C5E
:101B700003F8D75C03F8CB2C944BC3F8D87F924C76
:101B800014F8B66CA0466EB954F8B00C0AF02BFDF0
:101B9000012807D902288E4D00F038820AF028FD6E
:101BA0000123AB7154F8AC5C874B002D5DD013F86A
:101BB000B62C3AB153F8A42C40F6B731BA1A8A427F
:101BC00016D852E0012203F8B62C53F8A02C53F893
:101BD000B00C1278022A04D8043002210EF06CFEF8
:101BE00002E002210AF0E0FC002304F89C3C3AE009
:101BF00013F8A82CAAB943F8AC2C03F8B62C53F868
:101C0000A02C53F8B00C1278022A04D80430012119
:101C10000EF052FE02E001210AF0C6FC0AF0E8FCD8
:101C200021E0013AD2B203F8A82C13F89C1C13F857
:101C30009B0C42B901304A1C03F89B0C03F89C2C06
:101C400053F8B00C0DE02A46013012F8015B03F89E
:101C50009B0C294453F8B00C03F89C1C43F8AC2CA3
:101C6000294605F007F944F8A47C574C14F89A3C2F
:101C70002546FBB154F8983CE3B154F8943CCBB101
:101C800044F8903C1B68534A44F88C3C54F8883C18
:101C9000134493F8080404F099F854F8903C9879A8
:101CA0000AF0B0F854F8883C0133092B88BF0023B0
:101CB00044F8883CDFF8288114F8843CD8F80060A8
:101CC000414A4746002B3EF494AA52F8803C33B177
:101CD00012F87C3C013B012B8CBF00230123D90768
:101CE0007EF587AA55F8800C374C0AF07CFCE0B1F1
:101CF00054F8800C0AF072FC14F87B3CD7F800A072
:101D00007E2B81460ED102231B2804F87C3C09D18E
:101D100054F8800C0AF067FC20B9012344F878AC31
:101D200004F8743C05F87B9CDCE7D8F8002054F8F4
:101D3000783CD31A41F65832934225D9032304F84C
:101D40007C3CFEF756BA13F8731C234A32F8110094
:101D500018B903F8730C4FF4036015F8732C1A4C80
:101D60000132D2B2B0F5C06F05F8732C77D039D8F4
:101D7000B0F5007F69D016D8B0F5807F00F0A5805F
:101D8000B0F5887F00F0A18015F8742C0E4B002A66
:101D90003EF42FAA3A68921B012AD4D9002203F8F4
:101DA000742CFEF726BAB0F5806F00F0A680B0F56F
:101DB000826F00F0E380B0F5047FE5D13DE000BF25
:101DC0008096980040420F00A0160020A805002031
:101DD000000000203C400108CC500108806967FFEA
:101DE0000C400020B0F5006F40D00CD8B0F5E26F89
:101DF0007AD0B0F5E46F7BD0B0F5E06FC4D1A34BDF
:101E0000B3F9A61F77E0B0F5036F06D0B0F5046F05
:101E100063D0B0F5026FB7D1D8E09C4BD3F8A421C2
:101E20009206B1D593F8A1219107ADD5B3F8C43F7F
:101E300024215943123164230EE0944BDA6892074F
:101E4000A2D5B3F8B43F0A21CEE0904BDA68110571
:101E50009AD5D3F8BC1F0A2391FBF3F1C5E08B4B55
:101E6000DA68120590D5D3F8C01FBEE0874BD3F8CF
:101E7000A411890688D593F8A1118C0784D5D007C1
:101E800011D5D3F8D03F83EAE371A1EBE37101EB05
:101E900051011922B1FBF2F1002BACBF41F000411E
:101EA00041F040410EE0D3F8CC3F83EAE371A1EB6F
:101EB000E37101EB51011922B1FBF2F1002BB8BF24
:101EC00041F080414FF4006070E0704BD3F8A431D2
:101ED00059077FF559AF002187E06C4BB3F93C19E6
:101EE00001EB8101490080E0684BB3F9A81F02E0D3
:101EF000664BB3F9AA1F2C23AEE714F8723C0133EA
:101F0000DBB2032B88BF012304F8723C15F8723C46
:101F100042F2107159435E4B1B78DA0748BF01311A
:101F20009C0748BF02315807584BB3F8C03148BF2F
:101F30000431DA0748BF0A319C0748BF143118063C
:101F400048BF2831DA0548BF28315C0748BF6431F3
:101F5000180748BFC8319A0548BF01F5C8719C06EB
:101F600048BF01F57A71D80648BF01F5FA615A06F3
:101F700048BF01F57A614FF4806017E0434BD3F816
:101F8000A41111F0200817D093F8A12193F8A031E3
:101F900012F0020F0CBF00214FF47A7112F0010F02
:101FA0000CBF00224FF4FA62114419440AF02EFBD0
:101FB000002305F8743CE7E6DB681B067FF5E4AE1A
:101FC00041460AF023FB04F8748CDDE62F4BD3F86E
:101FD000A42191067FF5D8AE93F8A12192077FF551
:101FE000D3AEB3F8C63F642159430AF00FFB002378
:101FF00004F8743CC8E601230372264B00275F7087
:1020000002F5C333A0334360FEF7D8BAAB791BB1F6
:1020100044F8B47CAE71C5E554F8B43CFB1AB3F592
:102020007A6FFFF4BFAD012354F8B00CAB710AF026
:10203000D5FA054654F8B00C0AF0D0FA6D067FF4D4
:10204000B1AD8A2802D08E280ED0ABE50F4BD3F865
:10205000A43198067FF5A6AD14F8B63C002B7FF4AA
:10206000A1ADA8F1E70305E014F8B63C002B7FF41E
:1020700099AD094B44F8AC3C2D2304F8A83C91E5FC
:10208000B9F1000F3FF47CA8FFF76DB8A805002058
:102090003916002000000020841500202DE9F04FA3
:1020A0002DED068BC74CC84B236093B000236360B3
:1020B0000EF074FD18B907F06DF80EF093FDDFF81F
:1020C0006493DFF86483C14DDFF860B3DFF860A389
:1020D00009F09CF899F8003043F0010389F80030CA
:1020E00005F006FCBA4BC8F80C306B6FA360B94B17
:1020F000C8F808306B6BB84823F080036B636B6FD4
:1021000043F080736B672B6B43F03F0312AF2B637D
:1021100003238DF82E3041F6FF7327F81C3D394616
:102120000EF011F84FF6FF73AC48ADF82C3039467D
:102130000EF009F8AA4839460EF005F8DFF8F4C2A7
:10214000CDF80CC0604639460DF0FDFFA548394674
:102150000DF0F9FF3946A4480DF0F5FF384609F0B7
:102160005BFD0B9BA14AB3FBF2F3E360A04BA14ADA
:1021700000261E605E60A04B5A60F02288F8232083
:102180000722DFF898829E601A60D8F80830CBF8F2
:1021900000309AE80F0087E80F002B6BDDF80CC0C9
:1021A0000B9843F008032B632B6B43F008032B635E
:1021B0004FF48043ACF818304FF40043ACF81830BB
:1021C0000CA90DF0C0FF0EA90D980DF0BCFF642006
:1021D0000AF069F931468948A02211F091F82B6C78
:1021E00043F013032B646B6C43F001136B64844B5B
:1021F000464603F1C0009A7A93F80BE053F8105B5F
:1022000002F00701D20805EB82028900156A4FF03F
:102210000F0C0EFA01FE0CFA01F125EA0101116220
:10222000156A83424EEA05011162E4D10023DFF80A
:10223000948108F110020021995401330C2BF6D13E
:10224000FF2388F81C3088F81D3088F81E3088F885
:102250001F306C4BDFF8E0C1C3F800C06A4D6B4B18
:1022600004221A7028463022CDF80CC011F048F82C
:1022700014232B700223DDF80CC02B76644A05234F
:1022800085F8243073791370ACF5F172C8F820200A
:10229000ACF59172C8F824205E4ADBF8005002EBDE
:1022A000C3025278C8F82820AA0644BF0122C8F801
:1022B00028200022584940F2DC5050520232102AA5
:1022C000F8D1384600211C22049311F019F8049B20
:1022D0000E2B03D003F0EF03082B02D101238DF85E
:1022E0003E30052009F06EFE18B14088003018BF5E
:1022F0000120C5F340038DF83330C5F380138DF80A
:102300003630C5F340338DF82C30C5F3C03300F0C0
:1023100001008DF82F3015F400638DF8320004D0E1
:1023200096F884315F1E7B427B418DF83030C5F3D7
:1023300000438DF83730A36AB6F84411ADF8421067
:10234000003318BF01238DF83830C5F300538DF8E2
:102350003930B6F84631ADF83C30B6F85231ADF808
:102360003A30C5F380438DF8343096F854311A1C56
:1023700018BF012205F00108C5F3C0078DF835200C
:10238000E804B6F850218DF82D808DF82E70ADF848
:10239000402004D52149B1F84C11ADF84210B2F5F6
:1023A000FA7F02D90BB9ADF8423096F8D4311C4807
:1023B00084F82C300021642210F0A2FF9DF83E30FA
:1023C000002B3BE03C1600208DBB0008003802408B
:1023D0000005FA0500000008000002400004024069
:1023E00000080240001002400014024040420F006A
:1023F000104000203F90020010E000E0503E00201E
:1024000068630108381C0020001D0020FD1C00200E
:1024100010100020246401082A1000209C070020CE
:102420006C1600201840002000ED00E0B4050020EC
:10243000685C0108000C02408E09002014BF0223D2
:102440000023B8F1000F00D107B101330AEB830379
:102450004FF000081B690593C246059A32F8083010
:102460004FF6FF72934200F04681190A022902D109
:102470009DF82C2003E0012904D19DF82D20002A8D
:1024800000F03381DBB2BF4D9DF839004FEA031CE9
:10249000654430B19DF83E0018B9043B032B40F26F
:1024A000FD80012951D19DF8343023B9BDF8403069
:1024B000B3F5FA7F08D9B34AB34952F80C308B42CE
:1024C00004BF032384F89430FF230027298984F86C
:1024D000DC3084F8DD306B7B686884F8E070C4F829
:1024E000EC50ADF81C108DF81E3007A9022384F8BB
:1024F0009870C4F89C70C4F8A070C4F8A470C4F8B4
:10250000D87084F8DE7084F8DF708DF81F30CDF855
:102510000CC00DF018FEDDF80CC09A4BA97A53F8E8
:102520000C003A460DF038FC28460DF0C3F9974BE5
:102530009749C4F8F030974BC4F8F430C4F8F870F9
:1025400028460A1D0AF020FECFE002293CD1924A1B
:102550008DF81F105FFA8AF31C20584317180023C8
:102560004FF0010EBB70BB7287F801A007A902F8FB
:1025700000E095F80DE02A896868FD608DF81EE09E
:10258000ADF81C200493CDF80CC00DF0DCFDDDF897
:102590000CC0049B7B4AA97A52F80C001A460DF035
:1025A000FBFB28460DF086F97C4A3A61049B7C4A85
:1025B0007A61BB61284607F1100107F114020AF0A5
:1025C000E3FD0AF1010A90E0032965D19DF834305A
:1025D0000BB39DF8353094F8317053B1BDF84030ED
:1025E000704AB2FBF3F22846082192B2BDF842309D
:1025F00003E0284608214FF6FF720CF0CBFB04EBFA
:102600008707694BC7F8C001C36094F832301922BC
:1026100004EBC30331E0BDF8403094F83170B3F5FA
:10262000FA7F15D95F4AB2FBF3F292B2BDF842309D
:10263000284608210CF0AEFB04EB87075B4BC7F87C
:10264000C001C36094F832300D2204EBC30314E0E0
:10265000574AB2FBF3F292B2BDF84230284601214C
:102660000CF098FB04EB87074F4BC7F8C001C36021
:1026700094F83230092204EBC30383F8352094F830
:10268000323094F8312004EBC30181F83420013258
:102690008D6384F8312025E0042926D194F8323066
:1026A00094F83070424A04EBC303012183F834707C
:1026B000BDF83A3092FBF3F292B2BDF83C302846B6
:1026C0000CF068FB94F8323004EBC3020A2182F864
:1026D000351094F8302004EB87070132C7F8F00179
:1026E00084F83020013384F8323008F10208B8F160
:1026F000180F7FF4B2AE94F8302084F810222D4ADF
:102700002D4B1578A5F117020027022A1F709E464F
:102710001BD8236A3B44D3ED007AF5EE407AF1EE04
:1027200010FA03D1A36A002B4CD126E0234A07EB11
:10273000020C0FCB8CE80F009EF8003010370133ED
:10274000C02F8EF80030E4D1ECE71D4B13F8358034
:102750008EF8008003EBC503D3F804A0BAF1000F94
:10276000E0D04745DEDA154A3B0103EB020C534447
:102770000FCB01378CE80F00F3E7DBF80030D9040A
:1027800046D43FE064630108000001400D6D00087D
:102790002C170020196E00081C170020B5FE000839
:1027A000F16D000800127A00296E0008396E0008E9
:1027B00040420F0010100020F80E0020080F0020EB
:1027C00024640108994B9A4A03EBC5035F6A93F8A6
:1027D00020001070002FD0D000238342CDDAC3EB4D
:1027E000C3017A18DFF87C82D2F800A041F808A073
:1027F00001EB080C9188ACF8041092798CF8062053
:102800000133EAE705F0EF03082B8A4B20D121E0E2
:102810009EF800100129F5D9874B00228A4203F166
:102820001003EFDA13ED047AF6EE007A27EE277A3A
:10283000013203ED047A13ED057A27EE277A03EDD2
:10284000057A13ED037A67EE277A43ED037AE5E71D
:102850000E2D08D11A7842F010021A70182D08D1E6
:1028600004F09DFB05E01A7822F010021A70192D71
:10287000F5E70CF0E7FFDBF800305A0302D46F4BAA
:1028800001221A7099F8003043F0040389F80030EF
:102890000BF008FF0FF00CFB0FF0A0FBB6F858216F
:1028A000674B4AB9B3F95A1141B9B3F95C31D3F165
:1028B000010338BF002302E0002300E0134613F0B9
:1028C00001036AD15F49DFED607A0B7012B208EE46
:1028D000902AB6F95A31B6F95C21F8EEE88A08EE8A
:1028E000103A0AEE902A68EEA78AB8EEC88AF8EE87
:1028F000EAAAB0EE680A28EE278A6AEEA7AA04F0D0
:102900006BFEB0EE409AB0EE680A04F005FEF0EE01
:10291000409AB0EE480A04F05FFEF0EE408AB0EE56
:10292000480A04F0F9FDB0EE408AB0EE6A0A04F0FD
:1029300053FEB0EE40AAB0EE6A0A04F0EDFD20EEC0
:10294000097A69EE8A7AF0EE475AE7EE885A2AEE5B
:10295000096A69EE806AC4ED885AF0EE465AE6EEDE
:10296000C85AE7EE087AE6EE486A2AEE28AA28EE68
:10297000C00A69EEE89A68EE898A84ED85AA84ED3A
:10298000860A84ED878AC4ED895AC4ED8A9AC4ED1B
:102990008B6AC4ED8C7AC4ED8D8A2C4F2C483B6831
:1029A00096F85FA1B3F8528000210C2210F0A8FC29
:1029B00000211422274810F0A3FC2748002184F8A6
:1029C00044120C224170043010F09AFC234BC4F8DE
:1029D0005432232009F067FD214B1A8822F040026F
:1029E0001204120C1A801A8822F038021204120CF7
:1029F00042F030021A801A8892B242F040021A80E5
:102A00006B2080210EF0BDF90625962009F04BFDC4
:102A10007520012107AA0EF0F7F99DF81C30682BEC
:102A200022D0013D15F0FF05EFD137E0685C0108C9
:102A30003A10002049070020100F00201C1500202C
:102A40009C0700201000002035FA8E3C6C07002007
:102A5000741800205007002080180020585D0108DD
:102A600000380040441000200C20012107AA0EF07D
:102A7000CBF99DF81C30142B10D3182B02D9543BE2
:102A8000062B0BD8032384F84432432384F84832BE
:102A9000464BC4F84C32464BC4F85032002384F8FD
:102AA000583294F84432434D032B40F0CE84424BCD
:102AB000424A1A60424A5A60424ADA60424A1A61FD
:102AC0004248042285F8582206220270404A1168C2
:102AD000BAF1090F41F0010EC2F800E00346934637
:102AE00000F2AF84012000FA0AF040F20232024004
:102AF000002A40F09E8410F0FD0F00F09A84354AC1
:102B0000C5F83822344AC5F83C22344A04201070F3
:102B100041F0030107225A70CBF80010DBF80020C7
:102B2000930702D5D5F8382290472D4A4FF47A7191
:102B30001160214A4FF0000A136885F859A2BC20A1
:102B40009847284A96F8553182F800A0114613B1EB
:102B5000184A82F85832244A92F856310BB11F486D
:102B6000037092F8573103B10B70DBF800301E0789
:102B70003ED50FFA88F8642398FBF3F203FB128822
:102B80000FFA88F807EE108AF8EEC76A07EE102AE7
:102B9000F8EEC77A9FED157AE6EE877AB2EE047A00
:102BA00067EE877AC5ED977A25E000BF090E010828
:102BB000830D01083C160020500700200D8A0008F4
:102BC00021970008596E000890C1793D1800002037
:102BD0004C07002075D10008959700084C1900207B
:102BE000640700204D1900209C0700208988883C3C
:102BF0000023C5F85C3299F8003043F0020389F8ED
:102C00000030B64B4FF400425A834FF480421A838F
:102C10004FF00A08B14E736983F40043736173691E
:102C200083F480437361192009F03DFC08F1FF38FB
:102C3000192009F038FC18F0FF08EBD14FF480435D
:102C400033834FF400433383D4F860329FEDA48A7A
:102C50001B7B00EE103AB8EEC00A20EE080A04F022
:102C6000BBFCA04B9FEDA07AD3ED047A9F4B84ED83
:102C7000990A1B8827EE888A07EE903AF8EEE77AE1
:102C800084ED9A8AC7EE277A9FED997AC7EE877A04
:102C9000C4ED9B7A974C04F0C1F9FF211B2220461A
:102CA00010F02EFB944A954B126884F800800121A5
:102CB00012F0020F1970204604D0617003211970C0
:102CC0000221A170540704D519784C1C1C700324F0
:102CD000445412F00A0F0CD01A7804218154511C6C
:102CE000C9B205244454D11C0232D2B21970062153
:102CF000815483490A6812F0200F884604D019785D
:102D00004C1C1C7007244454110608D5197809245A
:102D100044548C1C0131C9B21C700A244454794CAF
:102D20006179082901D00E2908D11E7806F1010E1B
:102D300083F800E04FF00B0E00F806E01E7806F175
:102D4000010E5FFA8EFE4FF00C0C12F0040F83F8A8
:102D500000E000F806C009D006F1020C674E86F8C4
:102D600000C0644E4FF0100C06F80EC01E7806F13D
:102D7000010E5FFA8EFE4FF0120C12F4806F83F892
:102D800000E000F806C00ED094F814C2BCF1000FA9
:102D900009D006F1020C594E86F800C0554E4FF08E
:102DA000130C06F80EC0960508D51E7806F1010E24
:102DB00083F800E04FF0150E00F806E0182913D153
:102DC0001E784FF0160E00F806E006F1010E5FFACD
:102DD0008EFE4FF0170C00F80EC006F1030E0236FF
:102DE000F6B283F800E08155110304D519784E1C22
:102DF0001E7019264654D60504D51A78511C197030
:102E00001A238354002198223F4810F079FA0DF0DC
:102E1000C5F93E49B4F84E31A5F8743200230B8051
:102E20008B703968B4F89601394AC5F8702201F1FF
:102E3000750E384985F876320A6082B23649374EC7
:102E4000D1F80090DFF8DCC09A5309F596794CF878
:102E500013900233242BB4468A46EFD1D8F8006091
:102E6000F10454BFB4F89C311346ACF8063000238B
:102E70001EF80320B2B90EEB0302917892F803908A
:102E800049450FD209B1013901E009F10101527838
:102E900001EB810101EB810101F56171043289B21D
:102EA0002CF812100433502BE2D1330740F1E180AB
:102EB00094F89031062B00F2D680DFE803F0040787
:102EC000355C7795950045F2F05201E042F6F82224
:102ED000134B1A800DF0EEF9C4E000BF000C024065
:102EE00035FA8E3C500700200AE81C4104000020FF
:102EF00000401C46951C00204C070020941C00201C
:102F0000B40500209C0700209C1B0020E00F00203F
:102F100024090020BC0500200C4000207807002078
:102F2000F21A0020B41800207A4B42F6F8221A80D8
:102F300000010A2390FBF3F0A0F5B0600023764A6D
:102F400098500433482BFAD1744B754A5A60754B2C
:102F5000122240201A7009F073F8002800F08380D4
:102F600001234FF0070C90F900006F4A8DE808101C
:102F700040216E4B71E0674B42F6F8221A80674B96
:102F80006B4A5A60674B102240201A7009F058F8BB
:102F9000002868D001234FF0000E90F90000654A28
:102FA0008DE8084040214FF4E13356E0594B42F69A
:102FB000F8221A80594B604A5A605A4B0822402026
:102FC0001A7009F03DF800284DD00123002690F931
:102FD00000005A4A8DE8480040214FF4E1330EF0DA
:102FE00099FAC5F8C0023AE04A4A554842F6F82133
:102FF00011804C490C22062B0A7010D0002303705C
:1030000085F8C43285F8C5321B2385F8C6320523FE
:1030100085F8C72285F8C8324FF4E1360DE000216B
:10302000017085F8C41285F8C512464E85F8C7228E
:10303000212185F8C61285F8C832384B424A5A60B9
:10304000402008F0FDFF70B1012100233F4A90F9B4
:1030500000008DE80A00402133460EF05BFA003094
:1030600018BF012028B9082004F03AFC2B4B384A3D
:103070005A60D8F800302B4A13F4804F04D0122144
:10308000117026493348486042F20101194003F0AB
:10309000010003F4005681B11E4944F6206EA1F8E8
:1030A00000E026B1082111701C492B4E4E6020B162
:1030B0000C21117019492948486011780439517060
:1030C0001A0640F189804FF00009254EDFF89CB0C8
:1030D0002448C5F8CCB24946152286F80190C6F8B6
:1030E0000490C6F8089010F00BF91F4BABF10502E5
:1030F00048461A6004930BF0A9FDDAF80020F2604C
:10310000022008F09DFF049B194688BB802004F034
:10311000E7FB5AE0F21A0020100600201000002001
:1031200035BB0008B61C0020C1C30008A086010002
:1031300025BB000811C3000811BB0008C5C2000868
:10314000F406002090D00300D1BA0008ADC10008F9
:1031500089BB000865BB000871BB00087DBB000887
:10316000240700200C190020440700208E090020AD
:1031700090F805E07378B94A4FF00C0C0CFB032C67
:103180009CF801C0F44504D00133DBB2042BF2D922
:10319000002373700B6890F900001B78002B737884
:1031A0004FF00C0606FB03220CBF012103215378CC
:1031B00000910022019202210EF0ACF9A84B186098
:1031C0000028A3D001200BF041FD3868A54B00F585
:1031D000C3721A6004F096FCD8F800305B0553D532
:1031E000A14BD5F8E8721F60042008F029FF0421E4
:1031F000C5F8EC0208F0FAFE9C4B85F8F0020820B6
:103200001F6008F01DFF9A4B9A4E1860082108F0C5
:10321000EDFE002185F8F1022C22304610F070F806
:103220008E2373704FF07C0AE0234FF07D09F3701A
:1032300086F800A086F82B908F4E2C220021304675
:1032400010F05EF88A2373701020A023F37086F8C4
:1032500000A086F82B90C5F8F47208F0F1FE10215A
:10326000C5F8F80208F0C2FE85F8FC022020C5F877
:10327000007308F0E5FE2021C5F8040308F0B6FE4F
:1032800085F808030DF014FA7C4E338823F04003D0
:103290001B041B0C3380338823F038031B041B0CE6
:1032A000338033889BB243F04003338000279F2351
:1032B00032208DF818308DF819708DF81A708DF84D
:1032C0001B7009F0F0F88DF81D7007F1804707F5C5
:1032D00004374FF4004906AA0423A7F81A90304691
:1032E00007A90DF065FDA7F818909DF81E209DF820
:1032F0001D30120242EA03429DF81F301A43604B10
:103300009A42604B17D008D85F498A420CD001F529
:103310001A4102318A4209D01BE05C498A4205D039
:1033200001318A4207D014E0202200E080221A8076
:103330004FF4807202E04FF480721A805A809A88AB
:10334000198812029A604A43DA60012285F809233B
:1033500004E000221A805A809A60DA60DF681FB3A6
:10336000FF0ABA464FF00009B9450BDA09EB070628
:1033700076100DF11C0BF002594610220DF098FD4D
:103380000F2806DC0DF0EAFE4FEACA23C5F80C331D
:103390000AE000235BF8032001325BD10433102BD9
:1033A000F8D1B2463746DFE7D8F80030384A13F490
:1033B000002318BF0123137008F0DDFE354B1860A1
:1033C0006379052B03D1344B4FF4C8721A80334B09
:1033D0004FF47A721A80324B1A7842F008021A704F
:1033E000304B1A7822F002021A70D8F8002040F60A
:1033F000020313406BB12C4B2C4A1A602C4B032256
:103400001A702C4B01221A702B4A002313802B4A6E
:103410001380A368C8F80030294B01221A70294B89
:103420001A7862F07F021A7013B0BDEC068BBDE80B
:10343000F08FBAF1010F04D8234A00211170FFF771
:103440006DBB4FF0000AFFF74DBB012009F035F8C6
:10345000FFF7D1BB06F101093E46A3E75C40010836
:1034600020070020E80E002060150020B415002081
:103470000016002084150020B9150020003C0040F3
:1034800018BA20001C000020152020001740EF0073
:103490001D150020740700205C1B0020901C0020DC
:1034A0004907002039160020581500201609002071
:1034B000B81500200C000020161B0020181B00204F
:1034C0001C150020184000204C1900208B498C4806
:1034D0000A682DE9F04F02F59C4320330360894BC5
:1034E0001E7887B0C6B119465B689A4240F23081B7
:1034F000013E0E702CE12B688348072C98BF195DA4
:10350000824B88BF21461B689847032C0CD97D4A03
:1035100002EB4404013620817B4B7D4D1A78F4B2D6
:10352000A2421A46E7D81EE02B6804F10E0203EB14
:1035300082029388D2880028E9D0C01A4FF47A71A9
:10354000D31A484390FBF3F0084440F6C90398426D
:1035500005DC40F2EE239842B8BF184601E040F681
:10356000CA0080B2D3E76B4B1B6842F2010903EA41
:103570000909D9F10109684B38BF4FF00009D3F8A8
:1035800000A0664BB9F1000F06D1654909781970A2
:1035900064490878644908701E781EB1624B1E7831
:1035A00086F00106574992F80080D5F800B00F2345
:1035B00081F82C305D4B1F780322B7FBF2F202EB4F
:1035C0004202BA1AD2B201F12E0303EB42020024E6
:1035D0004FEA480C0292254664455AD016B1544B26
:1035E000E05A00E03046BBF81430834206D8BBF8FE
:1035F0001610814234BF0021012100E000214D4B13
:10360000E9B953F825309A4502D24B4BE05A1AE0FB
:10361000EBB218468DE808100BF0F0FF009BDDF8C8
:1036200004C0032B0FD8374B4FF0010E93F82C102A
:103630000EFA05FE21EA0E0183F82C1003E00AF5CC
:10364000967143F81410B9F1000F1DD1029A2D4B59
:1036500004EB4401505293F8762022B9022F13D97B
:10366000012083F87600354B581831F803E0418883
:103670007144B0F804E04A33714489B2E15208B2AF
:10368000032390FBF3F080B22B4B0135E052023460
:10369000A2E71C4B204A93F82C10B1F10F004142D5
:1036A000414183F89010264B69B1264909684901C8
:1036B00009D41268D9689A60521AC82A44D90122DA
:1036C00083F8212040E017481268DA600121017078
:1036D0001548017099685B68521A9A4203D9184BD1
:1036E000002283F82120002444452DDAE0B20BF0BB
:1036F00085FF114B23F814000134F5E73016002044
:103700001007002050190020B61C002014000020D3
:10371000BC050020B40500200C400020A8050020B6
:10372000B00500200100002000000020B218002099
:1037300058190020B4180020780700207E190020B6
:10374000E00F00203C1000209F4B1A7801321A70C5
:103750009E4F3B68DA0405D59D4B1B68DB0701D4FF
:103760000CF072FD9B4B1A68937A2BB3013B9A497C
:10377000127B31F813301AB1C3F53B6308339BB2A7
:103780001BB2A3F57A73B3F57A7FA8BF4FF47A73AF
:1037900023EAE37307EE903AB8EEE77ADFED8F7A2B
:1037A0008F4BC7EE277A9FED8F7A67EE877AFCEE14
:1037B000E77A17EE902A1A803B688B4C13F4807FCF
:1037C00000F0E58089498A4B0A688A4E9A4203D9FB
:1037D000B3780BB90123B370B378002B00F0D78016
:1037E000844B94F8008093F82150794BB5F1010E89
:1037F000DEF100051A6855EB0E05002DC2F3806955
:103800000CBF03220022C8F380089A46029296F861
:103810002030052B00F2B680DFE803F0034E53782A
:10382000859EB8F1000F3AD0734B1868734B198816
:103830000BF00EFF012809D1714B1A68714BD3F8B8
:103840009430DB88642101FB03233361B9F1000F5D
:103850000DD06C4BD3F894301B7943B10BF0C4FFFF
:10386000032386F820304FF47A73F361CFE7002DFD
:1038700040F08880624B32691968DFF878B1914274
:1038800009D90BF0B1FF03228BF8202040F6B832A3
:10389000CBF81C20BBE701228BF82020B7E74FF4C0
:1038A0008060B9F1000F02D00BF08EFF01E00BF049
:1038B000B9FF0023336165E0002D45D10BF094FF83
:1038C000A5E725B1052386F82030012100E029462F
:1038D000B8F1000F0DD0484B1B68DA893E4B1A80B7
:1038E0005A809A80474AD2F894205288DA8002227D
:1038F0000292434B1A6873699A4202D8B8F1000FDA
:103900003DD147F23053F36103231EE0237843F0A7
:10391000020323700CF098FC394B1A68F3691344C6
:10392000B361042311E0364B1A688DB1B3699A4232
:1039300028D9354B1B781BB9DAF80030D80721D4C9
:10394000237823F002032370052386F820305EE7F6
:10395000F3691344B36115E0294B2A491A68D1F879
:103960009430DB88642101FB032333614FF48060D2
:10397000002386F82030F3700BF054FF47E700294E
:103980007FF445AF029A12B110460BF07FFE1F4D37
:1039900005F5C470B5F84E110BF05AFE8146B8BB60
:1039A00003F0B4FB95F8E231012B09D923785907CC
:1039B00006D5134B134A1B68D2F898209A4232D28C
:1039C00003F094FB2FE000BFB2180020B4050020E4
:1039D0003C100020BC0500207807002000007A443D
:1039E000B81C002000C07F4439160020301600208B
:1039F000404B4C00E00F0020AC180020B018002015
:103A00000C40002050190020020000209C070020DC
:103A1000AE4B95F8E2211B684FF47A7101FB02323C
:103A2000AB4BC3F8982023785A0743D53B68DB0695
:103A300040D5A84B1B78DE063CD4A74BA44E93F888
:103A40000080B8F1000F11D095F8E031B9F1000F06
:103A500016D173B19D4B1A68D6F89C309B1A002B77
:103A600007DA0CF0F1FB86F8A09023E0B9F1000F23
:103A700019D110200BF00AFE012386F8A03019E0BE
:103A80003BB1924A12684FF47A7101FB0323C6F8E6
:103A90009C3096F8A0306BB108F0E0FC8C4B002213
:103AA00083F8A02006E096F8A0301BB108F0D6FC01
:103AB00086F8A080002295F8DEB195F8DF11B5F800
:103AC00098E1B5F89AC11346844E905F9B08704503
:103AD000C4BF63F07F03DBB202326045B8BF43F07E
:103AE0004003082AF0D17A4E96F8A1209A4205D1D7
:103AF00096F8A220F92A04D8013200E0002286F8C4
:103B0000A220754886F8A1300378714ADFF8DC817D
:103B1000824633BBD8F80000C0070AD582F8A3302C
:103B2000B9F1000F1DD12378DA071AD50CF00CFC7F
:103B300017E023785B0714D5694B1B788BB1694B71
:103B4000DB7873B992F8A3300133DBB2032B82F830
:103B5000A33006D911B10CF077FB02E0B9F1000FE8
:103B6000F9D096F8A2205A4BDFF88491142A7FD11D
:103B70009AF800201BF1000B18BF4FF0010B6AB33D
:103B800093F8A1205F2A11D1227802F0040202F0FA
:103B9000FF0112B10CF058FB08E00B2001910093DB
:103BA0000BF074FD009B019983F8A210BBF1000F8C
:103BB00014D096F8A1307D2B10D1237803F00403A4
:103BC00003F0FF0213B10CF03FFB07E00B20019262
:103BD0000BF05CFD3E4B019A83F8A220237803F0A2
:103BE000040303F0FF00002B42D196F8A130384ABD
:103BF000572B09D13C4B4FF47A721A803B68180658
:103C000036D503F043FE33E03968490717D55A2B00
:103C100015D192F8A4302BB1012382F8A40082F8C8
:103C2000A53025E092F8A63083F0010382F8A63093
:103C30000BB10C2000E00D200BF028FD18E05D2BEF
:103C400000F036855B2B00F035855E2B00F0568545
:103C5000562B03D1009306F067FB009B9AF80020D7
:103C6000002A00F0FB846F2B40F0F2840CF06CFB18
:103C70003B685B074CD596F8A630154A9BB1237874
:103C8000580710D5154BB3F90610B5F8983199427D
:103C900009DDD8F8003013F0010304D13221A2F875
:103CA000A81082F8A630D8F8003013F4803F084BF3
:103CB00020D096F8AA202AB993F8A42012B932226B
:103CC000A3F8A820012386F8AA3021E00C400020A8
:103CD000501900204907002002000020780700202A
:103CE000A8050020E00F0020901C00203C100020C0
:103CF0006C07002096F8A42052B1227802F004024A
:103D000002F0FF0122B9012283F8A41083F8A52054
:103D1000D9F800A000230AF1750BC8F800300AF1A9
:103D2000770699460BF1020303EB090113F809200A
:103D30004B7816F8010C9A420CD2314609F0CBFBB5
:103D400040B116F8023C01229A40D8F800301343E3
:103D5000C8F8003009F10409B9F1500F06F1040662
:103D6000E0D1C14B1B785BB1C04BDFF82CA31A68C4
:103D7000DFF8289312F0020F984640F054834CE38A
:103D80000AF1C5090AF1C606984609F1010303EBD9
:103D9000080113F808204B7816F8010C9A4229D232
:103DA000314609F098FB28B396F802E0B04B307921
:103DB00096F803B00EF1FF3E0EEB4E0E9E44AD4B57
:103DC0004FF00C0C03F1AC0A0CFB00FC0AEB0C02EC
:103DD000516871450ED000210AF80CB0C2F804E019
:103DE0009160012202FA00F093F8DC2022EA000040
:103DF00083F8DC0008F10608B8F1480F06F1060662
:103E0000C3D19D4BDFF898A21E689C4B1B680293A0
:103E10009B4B1B7803934FF00009DAF80030002B1E
:103E200000F0F28293F80080B8F1000F00F0EC820D
:103E3000DAF8042002998A1A002A0DDB01F5FA72D9
:103E4000CAF804208B4A012192F8DC0001FA09F13A
:103E500020EA010182F8DC10039A002A00F0D482E3
:103E60001AF8041C5878834A0431C9B2002840F07B
:103E70007D82844830F91110B5F8960100F1C80E22
:103E8000714502DD93F802B016E0C838814203DACA
:103E90009B78C3F1000B0FE07649012391F8DC20F9
:103EA00003FA09F322EA0303029A81F8DC3002F5EF
:103EB000FA73CAF80430A7E292F8DC3043FA09F347
:103EC000D90700F1A182BBF1000FCCBF0220012075
:103ED0000BF062FC08F1FF33132B00F28C82DFE859
:103EE00013F01400250036004A0063006A00EB005E
:103EF0004E01B501E30113028A024A0059006A002B
:103F0000EB004E019F002001850196F80080D84407
:103F1000B8F1FA0FA8BF4FF0FA0828EAE87830465F
:103F200086F8008008F0DAF8012022E096F8018097
:103F3000D844B8F1640FA8BF4FF0640828EAE878C5
:103F4000304686F8018008F0C9F8022011E096F8A2
:103F500003804D4BD844B8F1640FA8BF4FF06408FC
:103F600028EAE87886F803803046196808F070F887
:103F700003204146C5E1717959446429A8BF6421F1
:103F800021EAE17171710D2008F0F0FEB8F10D0F1A
:103F900000F03182317959446429A8BF642121EAB3
:103FA000E17131710E20ACE1B179594481F308011E
:103FB000B1710520A5E1354B1B681A78022A20D182
:103FC00007EE90BAB8EEE70ADFED317A93ED097AA1
:103FD00080EE270A30EE070AB5EEC00AF1EE10FABD
:103FE00007D4B4EE670AF1EE10FAC8BFB0EE670A64
:103FF00001E09FED280A83ED090A0F2008F0CAFEB0
:104000000AE099785944C829A8BFC82121EAE1717A
:1040100099700F2008F0AAFEB8F10F0F00F0EB81A5
:104020001A4B1B681A78022A3CD107EE90BAB8EEF8
:10403000E70ADFED177A93ED087A80EE270A30EE73
:10404000070AB5EEC00AF1EE10FA07D4B4EE670A1B
:10405000F1EE10FAC8BFB0EE670A01E09FED0D0A5D
:1040600083ED080A122074E1381600203C1000206D
:10407000F464010850190020F40E00200C400020C8
:10408000A805002078070020641C0020681C002080
:104090000000C842000000004C0700206807002014
:1040A000001A002059785944C829A8BFC82121EA1C
:1040B000E1715970122024E1B44B1B681A78022A6E
:1040C00020D107EE90BAB8EEE70ADFEDB17A93EDB2
:1040D0000C7A80EE270A30EE070AB5EEC00AF1EE40
:1040E00010FA07D4B4EE670AF1EE10FAC8BFB0EECA
:1040F000670A01E09FEDA70A83ED0C0A102008F083
:1041000049FE0AE0197B5944C829A8BFC82121EA01
:10411000E1711973102008F029FEB8F1100F00F0BA
:104120006A819A4B1B681A78022A1ED107EE90BA50
:10413000B8EEE70ADFED967A93ED0B7A80EE270A68
:1041400030EE070AB5EEC00AF1EE10FA07D4B4EE6D
:10415000670AF1EE10FAC8BFB0EE670A01E09FED02
:104160008D0A83ED0B0A1320F3E0D97A5944C8294C
:10417000A8BFC82121EAE171D9721320C1E0834BA5
:104180001B681A78022A22D107EE90BAB8EEE70A25
:10419000DFED817A80EE270AD3ED0F7A30EE270A21
:1041A000B5EEC00AF1EE10FA09D4DFED797AB4EE7B
:1041B000670AF1EE10FAC8BFB0EE670A01E09FEDA2
:1041C000750A83ED0F0A112008F0E4FD0AE0997DDD
:1041D0005944C829A8BFC82121EAE1719975112065
:1041E00008F0C4FDB8F1110F00F00581674B1B68A2
:1041F0001A78022A20D107EE90BAB8EEE70ADFED6E
:10420000667A80EE270AD3ED0E7A30EE270AB5EEF5
:10421000C00AF1EE10FA09D4DFED5D7AB4EE670A58
:10422000F1EE10FAC8BFB0EE670A01E09FED590A3F
:1042300083ED0E0A14208CE0597D5944C829A8BF8B
:10424000C82121EAE171597514205AE04F4B1B68CF
:104250001A78022A1ED107EE90BAB8EEE70ADFED0F
:104260004C7A93ED0A7A80EE270A30EE070AB5EE13
:10427000C00AF1EE10FA07D4B4EE670AF1EE10FAB4
:10428000C8BFB0EE670A01E09FED420A83ED0A0A5B
:1042900009205EE0D9785944C829A8BFC82121EA7D
:1042A000E171D97009202CE0384B1B681A78022A7A
:1042B0001ED107EE90BAB8EEE70ADFED357A93ED3E
:1042C0000D7A80EE270A30EE070AB5EEC00AF1EE4D
:1042D00010FA07D4B4EE670AF1EE10FAC8BFB0EED8
:1042E000670A01E09FED2B0A83ED0D0A0A2030E0FA
:1042F000597B5944C829A8BFC82121EAE1715973E3
:104300000A2008F033FD76E0204B1B681A78022A59
:1043100022D107EE90BAB8EEE70ADFED1F7A80EE01
:10432000270AD3ED107A30EE270AB5EEC00AF1EE77
:1043300010FA09D4DFED167AB4EE670AF1EE10FA3E
:10434000C8BFB0EE670A01E09FED120A83ED100AC4
:104350000B2008F01FFD4EE0D97D5944C829A8BFA5
:10436000C82121EAE171D9750B20CAE7012842D1A1
:1043700098780A4B33F91110B1F5617F10DB40F6E4
:1043800033039942B8BF0B460CE000BF681C002005
:104390000000C8420000000000007A4478070020B6
:1043A0004FF46173B8F10C0F25D14FF4966191FB76
:1043B000F0F1A3F5617393FBF1F392F8DD105FFA6E
:1043C00083FB594517D0BBF1030F94BF5946022117
:1043D00082F8DD10B84A08FB015101F2E261116078
:1043E00007F096FE4046594608F0C0FC0BF101006C
:1043F000C0B20BF0D1F9B14B012293F8DC1002FAF4
:1044000009F20A4383F8DC2009F10109B9F1040F2C
:104410000AF10C0A7FF401ADA6E43B68DA0511D578
:10442000A74BDB7873B1DAF800309B070AD5B9F8EF
:10443000003013F001060AD102F068FE01200BF0F3
:10444000C3F904E001200BF0EDF9012300E00023A3
:10445000D8F8002056070DD563B101200BF0E2F922
:10446000B9F80030980708D402F050FE02200BF093
:10447000ABF902E002200BF0D5F9B9F80060914BDE
:1044800016F0030F4FF4004214BF5A831A83DAF870
:104490000030990609D4D8F800301A0540F1AA80F6
:1044A0004FF480700BF090F9A8E0874B1B789B07C6
:1044B00069D5864B1B78042B65D9D8F8003013F4E6
:1044C000007A06F010060DD0002E4FD110200BF010
:1044D0007BF920200BF0A6F97D48011D0CF0CCFAE9
:1044E00002223FE0B6B236B110200BF09BF9794BB7
:1044F000012683F800A0D8F8003058052AD5764B5D
:104500001B685A89754BB3F900100029B8BF49429E
:10451000914209DAB3F90230002BB8BF5B429342F3
:10452000ACBF0023012300E000239BB1B9F80030A9
:1045300099061CD420200BF047F96948694B011DEE
:104540001A685B68436002600CF096FA614B0126C2
:104550001E700CE0B9F800309A0608D520200BF048
:1045600061F900225B4B01261A7000E00026DFF89B
:104570004C9199F8DE309BB90E200BF087F801239F
:1045800089F8DE300CE016F0300F84D010200BF0EC
:1045900049F920200BF046F94E4B00221A7002E038
:1045A000002E3FF478AF002213464F484F4E0021B3
:1045B00019524F4819524F4806EB020E195200206B
:1045C000CEF80000CEF80410CEF8080006F1280E50
:1045D0005036964416440233042BCEF80000CEF831
:1045E0000410CEF8080030607160B06002F114026F
:1045F000DBD150E74FF480700BF014F96B79082B86
:1046000001D00E2B02D140200BF00CF93B685B056A
:1046100040F1A08095F814321BB9237813F0040FF1
:1046200003E0D8F8003013F4002F0CD0234B002205
:1046300083F858213C2004F079F9002800F08A80A2
:1046400007F0A0FCF6E70CF033F80BF0A7FD81E0D3
:10465000BBF1000F02D07E2B3FF408AB972B05D1A6
:10466000254B4FF4C8721A80FFF702BBA72B06D167
:10467000154B1A7842F004021A70FFF7F9BA0022BB
:10468000BB2B059201D1022303E0B72B04D14FF6D7
:10469000FE73ADF8163041E0BE2B01D1022304E0D9
:1046A000BD2B7FF4E5AA4FF6FE73ADF8143035E06C
:1046B000012024E0022022E0F40E00205019002006
:1046C000E00F0020000C02404907002048070020AE
:1046D000701C0020841C0020E80E0020B00E00207A
:1046E0007C1C00207415002034160020301A002095
:1046F000EC0E0020F00E00205C1B002003205FFA6F
:1047000080FA0AF1FF3385F8E0360CF06BFA06F018
:104710007DFD50460BF040F8FFF7AABAD9F80030FB
:10472000BDF81410B3F854200A44A3F85420BDF87F
:104730001610B3F856200A44A3F856200CF052FA8B
:1047400006F064FD01200BF027F8002386F8A23064
:10475000FFF78EBA07B0BDE8F08F00BFC44B2DE95C
:10476000F04FB3F90600C34BD3F800E02DED028BF8
:10477000BEF80A30984291B00FDBB0F5FA6F9EF8A0
:10478000077007DAC21A5743A3F5FA6397FBF3F7EA
:10479000643703E0C7F1640700E06427B64BB3F861
:1047A00096210492B54A93F95E31D2F800C09BB2CB
:1047B0000021059364460A46AD4B049DCB5E0393EE
:1047C0005B1B03F2F31640F2E635AE4203D8002B32
:1047D000B8BF5B4201E04FF4FA73022A4FF064065F
:1047E000A74DDFF8A4922DD09CF80D81B8F1000FF1
:1047F00004D04345CCBFC8EB0303002393FBF6F87A
:104800006FF0630B35F818A00BFB083B08F10108AB
:1048100035F918800FFA8AF5C5EB080505FB0BF58D
:1048200095FBF6F5554429F801500EEB02052D795C
:104830006B43944D93FBF5F364339BB27B4393FB43
:10484000F6F62FE09CF80E81B8F1000F04D0434536
:10485000CCBFC8EB0303002393FBF6F66FF0630AAB
:1048600005EB46080AFB063B05EB4606B8F90E8049
:10487000B6F91050059EC8EB050505FB0BFB9BFB2D
:10488000FAFBC8EB0B0808FB06F8A9F804809EF8B1
:10489000065083EAE376A6EBE3766E43794D96FB0A
:1048A000F5F664360CEB0208754B98F8019003F1AD
:1048B0001C054FF0640806FB09F999FBF8F902F8AA
:1048C000059094F80B9003F11F0506FB09F999FB7D
:1048D000F8F902F8059094F8159003F1220506FB0B
:1048E00009F6022A96FBF8F656551D4616BF2533E3
:1048F00083F82780D754049E039BB342624E02DAAA
:10490000735A5B4273520231062902F1010204F12B
:1049100001047FF451AF584CB4F89831984205DB4C
:10492000B0F5FA6FA8BF4FF4FA6000E01846C01A5D
:104930004FF47A725043C3F5FA63B0FBF3F34FF0D0
:10494000640E93FBFEF205EB42016FF0630000FB87
:10495000023305EB4202098DB2F92A004A4F0AB22E
:10496000821A534393FBFEFE484B1B887144F1802F
:1049700059063AD5464BDFED477AB3F904200A23AE
:1049800092FBF3F33E4AB2F840209B1A1BB208EEAA
:10499000903AF8EEE88A68EEA78AB0EE680A02F06C
:1049A0001BFEB0EE408AB0EE680A02F0B5FDB7F922
:1049B0000220B7F9003006EE902A07EE903AF8EEA2
:1049C000E66AF8EEE77A20EE667AA7EE887A67EE76
:1049D000807ABDEEC77AE6EE887A17EE103AFDEEE1
:1049E000E77A3B8017EE903A7B802B4B244F1B8855
:1049F000DFED2A0AB5F8428000EE103A0121B8EE48
:104A0000400A07F1440002F08BFBBCEEC00A244BC5
:104A100010EE101A89B2B8FBF1F101F1010C1B780C
:104A20001FFA8CFCA5F84CC0002B3BD0B7F84EA069
:104A30000023134AF75A02F1500E02F1580033F8DE
:104A40000E8033F800901F5218FB0AF80FFA8CFB07
:104A5000C9EB070998FBFBF8C84423F80E80023322
:104A6000082BE6D10E4BA2F84E10002018701EE065
:104A700078070020F40E00209C0700206C0700201F
:104A8000B01A00200CFEFFFFB00E002068070020C7
:104A9000E00E002035FA8E3C700700206F12833A3A
:104AA00019070020B7F84E30013BA7F84E30B5F893
:104AB0004E10BB4A0BB2002B4FF000030FDDB2F9D2
:104AC0004C70B84A985A083210FB01F09A5A90FB81
:104AD000F7F0121AF2520233082BF2D101E0A2F8D9
:104AE0004E30B14B1A6812F0020F9A4674D0AF4B99
:104AF0002A6E1B68AA4F9A1A45F207218A426BDD7B
:104B00003B660AF0B1F8AA4BDFF8D8821A78032A7C
:104B10009946B8F8003022D10A2B2CD9002328203E
:104B200089F8003007F0BFFC0AF09EF8B7F864007F
:104B300007F052F99F4BA0491B68DA7890FBF2F01E
:104B4000421C082A28BF08220A7059791B7992B2A0
:104B500051435A43A7F86610A7F868200BE00A2BC8
:104B600009D80323944A89F8003000231370A7F86A
:104B70006630A7F8683099F800208D4B012A0DD0D7
:104B800002D3022A1ED027E0B5F86620B8F800301C
:104B90009A4221DD012389F8003011E0B8F80020A5
:104BA000B5F86810914202DD02221A7011E07C49CA
:104BB000B1F8661001318A4202DD00221A700BE062
:104BC000082007E0B5F86830B8F8002001339A42B1
:104BD000E0DC07200AF05AFDDAF800703A056FD5DC
:104BE000724BE96E1A686E4BC1EB020A45F207215F
:104BF0008A4565DDDA666F4AB6F90690D2F800801C
:104C0000B4F84E1198F80A206C4E012AA9F57A7969
:104C100003D03ED3022A1BD03DE0196F082291FB3E
:104C2000F2F0091A91FBF2F20020A3F8740092B29C
:104C30001967B8F8080040F6E4435343C0EB133358
:104C40004FF47A725343B8F9062093FBF2F321E054
:104C50005B4BB8F808B01B78C6F800B05B071AD5F4
:104C600058480AF0F5FC20B917F0100F18BF4FF0A4
:104C7000000909FB09F2322392FBF3F39944B8F9D6
:104C800006304FF47A7203FB09F393FBF2F35B44B3
:104C900000E00023336033684B4AD5E91E0103FB73
:104CA0000AFA4FF47A739AFBF3FA10EB0A0041EB1D
:104CB000EA710023C5E91E010DF00AFC434B1860A0
:104CC000434B1A6812F4805F984626D03E0621D5E1
:104CD000404B1B7898071DD53F4B1978042919D9EB
:104CE00000233E4E05229A551E44981C0A27122B7B
:104CF000C2B2777004D0B1EB520F0346F1D800E096
:104D000014222A44322382F87F30FF2382F8803035
:104D10000F2000E00A200AF0B9FCD5F89870204E68
:104D2000002F6BD02E4BD6F89C2019688A429A46E9
:104D300064D896F8A030B6F8A2907A68ABB901238F
:104D400086F8A03012F80920CAB186F8A43007F01E
:104D50005FFBB9F1000F12D13B78053B012B0ED858
:104D600007F009FAC6F8A80009E0002386F8A03089
:104D700012F809201AB186F8A43007F049FBB5F8FB
:104D8000A2107A68064B525CFE2A03D10022A3F8D7
:104D9000A22033E0FF2A27D107F060FB2EE000BFFE
:104DA000B01A0020001B0020B4050020301600209F
:104DB000B8150020581500200C00002064150020B4
:104DC0003916002024090020407E050068150020C7
:104DD0003C1000204907002048070020301B00201D
:104DE0000C4000205C150020DAF800000A2616FBB3
:104DF00002020131C3F89C20A3F8A2108D4E337833
:104E0000590704D58C4B4FF480425A8334E0D8F8CC
:104E10000020D2075CBF43F001033370874B1B783F
:104E20001F0703D4337823F001033370B5F8AC3097
:104E30001BB1834B1B68980705D4824B1B8800333A
:104E400018BF012300E001233BB1022385F8A43001
:104E5000337823F00103337005E03278D10758BF6F
:104E6000022385F8A43007F086F9D5F8B030C01ACF
:104E7000002801DB07F0CCFA0BF01AFC724B1A7811
:104E80009946002A75D0D5F8B430002B00F0BF86C3
:104E9000D5F8B4006D4C07F0A6FB002800F0B786EB
:104EA000D4F8B40007F09AFB092801D03F2852D16A
:104EB0004FF00008D5F8B860654F44462EB16548FC
:104EC000396832460EF064FA10B9B84604B93C4667
:104ED000614B10379F42F1D3ECB1D5F8B83022685E
:104EE0005A48D75CD8F80020D15CB94213D15A1C7B
:104EF00059B92D2B09D8C0F8B82003440244202703
:104F000083F8BC7082F8BC1005E02B44C5F8B820CB
:104F100083F8BC70E1E7D5F8B8300BB1444510D048
:104F20004E4807F00BF8444507D854F8100B07F02B
:104F300005F8092006F0FAFFF5E7494806F0FEFFFC
:104F40000026D5F8B8309E42A2D2424B985D06F0BA
:104F5000EDFF0136F5E7D4F8B830002B40F083863A
:104F6000042840F07A8604F1BC000AF087FC00F0C7
:104F70004EBE3C4F97F84A30012B40F04386DFF895
:104F8000EC80394B3A68C8F800701A60C346DFF805
:104F9000D8A05246106807F026FB002800F02586AE
:104FA000DAF8000007F01AFBDBF8003093F848103D
:104FB000024619B924285BD1012238E0012904D125
:104FC0004D280CBF0222002231E0022904D13C28E6
:104FD0000CBF032200222AE003290CD140284FF005
:104FE000000102D983F848106AE058711971D9712B
:104FF000987104221BE0042907D1997983F84900AC
:1050000080EA01029A71052211E0052958D15879E8
:1050100019798842987906D950409871481C1871BE
:105020000B441A724CE090420CBF0622002283F817
:10503000482045E039160020000C024049070020B6
:105040004C070020901C002038160020B01A0020C9
:10505000306501086C1B0020E066010850690108FA
:10506000556901089C1B0020141600201016002012
:105070003178D64B490723D4232ADAF8001014D10B
:10508000012089F80000D248C5F8B410C5F8841191
:105090000292019306F052FFCE4806F04FFF019BAB
:1050A000197841F002011970029AD5F888311B78FD
:1050B000934205D1C84BC94A1A60C94BC94ADA6044
:1050C000DBF80030DFF834A393F84820062A7FF499
:1050D0005EAF93F8490000F079FE002840F07B8530
:1050E000DAF8002092F849304C2B00F0D68467D8CB
:1050F000372B00F0338521D8292B00F09A8409D86A
:10510000252B00F07184272B00F07584232B40F0B1
:10511000A185F2E02D2B00F09D8407D82B2B40F0C9
:10512000998506F0B4FE607100F052BD332B00F09B
:105130000385352B00F0AF8200F08CBD412B00F0D1
:1051400000850AD83C2B00F036813E2B00F02981E7
:10515000392B40F07F8500F05BBC442B00F0358597
:1051600026D8432B40F0768506F091FE0023A360FD
:10517000607106F0A1FEA3681843A06006F087FEE8
:1051800084F8900106F08EFEA4F8580106F08AFE1D
:10519000A4F85A0106F086FEA4F85C0106F082FE2F
:1051A000A4F8800106F07EFEA4F8820100F010BD94
:1051B000482B00F0AD834A2B00F00A8500F04ABD71
:1051C000D02B00F0838356D8CA2B00F0268109D853
:1051D000C82B00F0888000F29E834E2B00F06A847A
:1051E00000F038BDCD2B00F07C8304D8CC2B00F030
:1051F0008F8200F02FBDCE2B00F07C83CF2B40F0B0
:10520000298506F04FFE6FF4AF6E00EB0E039BB2E4
:10521000C62B98BFA4F8960106F044FEA4F84001FE
:1052200006F040FEA4F8420106F03CFEA4F844015A
:1052300006F038FEA4F8D80106F029FE84F8ED0146
:1052400006F025FE06F023FE84F8EE0106F01FFEB0
:1052500084F8850106F01BFE84F8920106F017FE23
:10526000614BD3F800A006F01DFE00EB800040006B
:10527000AAF85200CCE3D62B00F09A820AD8D22B9F
:105280001BD0C0F07083D32B27D0D42B00F09C828E
:1052900000F0E0BCEF2B74D007D8D82B08BF4FF03C
:1052A000000B00F05D8100F0D5BCF22B00F0E38232
:1052B000FA2B00F0298300F0CDBC33785B0700F1B6
:1052C000878406F0E4FD022884F8E00640F20483B7
:1052D000464B002283F8E026FEE206F0E3FDA5F847
:1052E0008C0100F075BC92F805A04FEA5A0ABAF199
:1052F000120F1FD84FF0000B20E006F0C8FD132856
:1053000018D8DFF8E4B0DBF8003000F11C0203EB42
:10531000820202F1050A029206F0B9FD344B029AAC
:1053200003F5A87193F808E0864500F095810C33E9
:105330008B42F7D103F0F6FA00F04ABCD34507D20E
:1053400006F0B0FD07AB23F81B000BF1010BF5E7EE
:1053500000235345274A06DA07A931F8131022F82B
:1053600013100133F5E70AF1FF3A02EB4A03223248
:10537000934203D0002123F8021FF9E701221E4BBC
:10538000C0E2DFF864A0DAF800B006F08BFDABF8FD
:105390005600DAF800A006F085FDAAF8540000F0E7
:1053A00017BC06F074FD84F8E00106F070FD84F887
:1053B000DF0100F00DBCDFF830A0DAF800B006F035
:1053C00066FDE8B10228A8BF02201AE039160020C5
:1053D0008569010855690108FCFF0120EFBEADDEBB
:1053E00000ED00E00400FA056C0700209C07002097
:1053F000E06601083E1C0020F50600201016002083
:1054000001208BF80000DAF800301B78022BB74B34
:1054100014BFB74AB74A1A60DAE3B74B1A68127872
:10542000022A83469A467DD1DAF80030019306F0CD
:105430002EFD07EE100AF8EE477AB2EE048AC7EEA8
:10544000887A019B03EB8B03C3ED087ADAF800300E
:10545000019306F01CFD07EE900AB8EE677ADFEDC7
:10546000A77A019BC7EE277A03EB8B03C3ED0B7A78
:10547000DAF80030019306F00AFD07EE900AB8EE64
:10548000677ADFED9F7A019BC7EE277A03EB8B03E8
:105490000BF1010BBBF1030FC3ED0E7AC4D1DAF8A7
:1054A00000300193BBF1070F21D106F0F0FC07EEAD
:1054B000100AF8EE477A019BC7EE887AC3ED117A9D
:1054C000DAF80030019306F0E2FC07EE100AF8EE7D
:1054D000477A019BC7EE887AC3ED127ADAF800307A
:1054E000019306F0D4FC019B83F84C0014E006F015
:1054F000CEFC019B5B445870DAF80030019306F053
:10550000C6FC019B5B44D872DAF80030019306F0C8
:10551000BEFC019B5B4458750BF1010BBBF10A0FFC
:10552000BDD155E3DAF80030019306F0B0FC019BE1
:105530005B445870DAF80030019306F0A8FC019B38
:105540005B44D872DAF80030019306F0A0FC019BAE
:105550005B440BF1010BBBF10A0F5875E2D137E345
:10556000DFF894A19FED668ADAF80030019306F027
:1055700099FC07EE100AF8EE477A019BC7EE887A8D
:1055800003EB8B03C3ED087ADAF80030019306F0E1
:1055900089FC07EE100AF8EE477A019BC7EE887A7D
:1055A00003EB8B03C3ED0B7ADAF80030019306F0BE
:1055B00079FC07EE100AF8EE477A019BC7EE887A6D
:1055C00003EB8B030BF1010BBBF1030FC3ED0E7A61
:1055D000C6D1DAF800300193BBF1070F21D106F0F4
:1055E00061FC07EE100AF8EE477A019BC7EE887A55
:1055F000C3ED117ADAF80030019306F053FC07EEA0
:10560000100AF8EE477A019BC7EE887AC3ED127A4A
:10561000DAF80030019306F045FC019B83F84C005A
:1056200014E006F03FFC019B5B445870DAF8003050
:10563000019306F037FC019B5B44D872DAF8003026
:10564000019306F02FFC019B5B4458750BF1010B95
:10565000BBF10A0FBDD1BBE21B78537106F017FCFA
:105660008AF8010006F013FC8AF8020006F00FFC2D
:105670008AF80300234BDBF80000C3F8B801224A84
:10568000C3F8B4217530002106F064FD1F4B80F093
:10569000010018709CE206F0FAFB0B283FF64AAEB8
:1056A000154B4FF0060B0BFB00F01B68C03003EBF3
:1056B000000B06F0ECFB03283FF63CAE8BF80A002B
:1056C00006F0E5FB8BF8050006F0E1FB8BF8060021
:1056D00006F0DDFB8BF8070006F0D9FB8BF808001D
:1056E00006F0D5FB8BF8090072E200BF080000202D
:1056F000F1D50008FDAD00086C0700200000C8428D
:1057000000007A44B01A0020DC08002002000020CB
:105710005379092B7FF60EAEDFF8F0A3DAF800B06C
:1057200006F0B5FB8BF80000DAF800B006F0AFFB2E
:105730008BF8010006F0ABFBDAF800306428A8BF54
:105740006420187106F0A3FBDAF800306428A8BFC3
:105750006420587106F09BFBDAF80030FF28A8BFE0
:10576000FF20987106F093FBDAF800B0642828BF98
:1057700064208BF8070006F08AFB8BF80200DAF849
:1057800000B006F084FB8BF80300DAF800B006F0F6
:1057900089FBD8F80030ABF80A005B790A2B40F29D
:1057A0001782DAF800A006F072FB8AF808000FE210
:1057B000834606F077FBCF4B23F80B000BF1020B6F
:1057C000BBF1100FF5D103E253790F2B7FF4B2AD8B
:1057D00006F05DFB072882463FF6ACADDFF830B33C
:1057E000DBF80030019306F05DFB0E22019B02FB0B
:1057F0000AFA5344A3F81501DBF80030019306F0D0
:1058000051FB019B5344A3F81701DBF800300193CF
:1058100006F048FB019B5344A3F81901DBF8003064
:10582000019306F034FB019B534483F81B01DBF822
:105830000030019306F02BFB019B534483F81C01BD
:10584000DBF80030019306F022FB019B534483F800
:105850001D01DBF80030019306F019FB019BDBF81A
:1058600000B0534483F81E0106F026FB0BEB0A033D
:10587000C3F81F01ACE106F00AFB0F2882463FF691
:1058800059ADCAEBCA0A06F002FB04EB0A0303F1A6
:10589000D00A83F8D00006F0FAFA8AF8010006F080
:1058A000F6FA8AF8020006F0F2FA8AF8030006F027
:1058B000EEFA8AF8040006F0EAFA8AF8050006F023
:1058C000E6FA8AF8060001F06AFB81E133785807AE
:1058D00000F17E8103F05EFC0BF084F905F096FC8C
:1058E00076E13378590700F173814FF4C873A5F856
:1058F000AC306DE133785A0700F16A817E4B1A783B
:1059000042F004021A7063E133785B07E4D5A1E149
:1059100008F072FC5CE106F0BAFA774B1A7810B125
:1059200042F0020201E022F002021A7006F0AFFA21
:10593000724BDFF8E0A1187006F0BEFACAF800005A
:1059400006F0BAFACAF8040006F0ACFA6C4B1880FC
:1059500006F0A8FA6B4B188095F8BC3143F00203AF
:1059600085F8BC3134E106F092FA029006F0A4FA10
:10597000019006F0A1FA834606F09EFA824606F0F0
:1059800091FA06F08FFA06F082FA029A019B9AB910
:105990001020C5F8C031C5F8C4B109F043FF564B1B
:1059A0001A7842F001021A70BAF1000F00F010816B
:1059B000554BC3F8C8A10BE1102A40F00981C5F886
:1059C000CC31C5F8D0B1BAF1000F02D04E4BC3F8BC
:1059D000C8A14D49022381F8D43101F5E67001F5E3
:1059E000E8710BF049F8F3E0A06006F065FAA368EF
:1059F0001843A060ECE006F055FAA4F8580106F050
:105A000051FAA4F85A0106F04DFAA4F85C01DFE05F
:105A100006F03DFA84F87A0106F039FA84F87E013E
:105A200006F035FA84F87D0106F031FA84F87F013A
:105A3000CEE006F037FAA4F8800106F033FAA4F8B5
:105A4000820106F024FA84F8840106F02BFAA4F807
:105A50008601BDE006F01BFA84F8900106F022FAF8
:105A6000A4F89A0106F01EFAA4F8960106F01AFAB4
:105A7000A4F8980106F00BFADAF8003084F89101E6
:105A80005B79082B40F2A48006F00CFAA4F89C0184
:105A900006F008FAA4F89E019AE006F0F8F984F8F6
:105AA000D60106F0F4F984F8D70106F0FBF9A4F862
:105AB000D8018DE052790323B2FBF3F3122B3FF6AA
:105AC00039ACDFF854A04FF0000B9B4580F080808C
:105AD000019306F0DCF98AF8A00106F0E3F940F240
