:020000040800F2
:10000000D405002089010008692301081124010892
:10001000672301086523010863230108000000002D
:100020000000000000000000000000006123010843
:100030005F230108000000005D230108E923010897
:10004000E5010008E5010008E5010008E5010008F8
:10005000E5010008E5010008E5010008E5010008E8
:10006000E5010008E5010008E5010008E5010008D8
:10007000E5010008E5010008FD210108E50100088F
:10008000E5010008E5010008E5010008E5010008B8
:10009000E5010008E5010008E5010008E5010008A8
:1000A000FD2001082D210108E50100083D2101087E
:1000B0001D210108E50100080D2101085723010851
:1000C00045230108512301083F230108E5010008E9
:1000D000E501000895220108E5010008F121010869
:1000E000F9230108E50100082D240108E5010008B5
:1000F000E5010008E5010008E5010008E501000848
:10010000E50100086B230108E5010008E50100088E
:10011000E5010008E5010008E5010008E501000827
:10012000E5010008E5010008E5010008E501000817
:10013000E5010008E5010008E5010008E501000807
:10014000E5010008E5010008E5010008D9190108EA
:10015000E501000859210108A12201084D210108EB
:100160004B23010839230108E5010008E5010008D7
:10017000E5010008E5010008E5010008E5010008C7
:10018000E5010008E5010008002100F004B80F4B6C
:100190005B58435004310E480E4B42189A42FFF40C
:1001A000F6AF0D4A00F003B8002342F8043B0B4BB6
:1001B0009A42FFF4F9AF0A48016841F47001016006
:1001C00011F074FF00F010F870470000507D010836
:1001D00000000020D4010020D80500208440002029
:1001E00088ED00E0FFF7FEBF2DE9804893B001F0F5
:1001F00055FFC74CC74E23783268254633B1636834
:10020000D31A002B02DB002323702372E16842F231
:1002100001030B400BB9BE4803740B0740F19481F6
:1002200063691B7A062B00F27F81DFE813F0070079
:1002300007003600F700390167016701237EB448E3
:10024000002B00F0728100230376C36990F819C077
:1002500090F8209093F80080022305EB030E03F141
:10026000010B9EF82100AA4F40FA0CF000F00F009D
:1002700040450ED20B280CD89EF821A007EB0B0EA0
:1002800007EB80009EF821E00AEA09070EEB07273A
:1002900047630233102BE0D137E194F864009C4BA4
:1002A000002800F0B98093F8B270002083F8640051
:1002B00093F8B10007F0070E40EA0E20986693F815
:1002C000B30000F03F0E4FEA4E1E4EEAD707DF663E
:1002D00093F8B470BF0047EA901793F8B50000F0A8
:1002E000010E47EA8E271F6793F8B67007F00F0ECE
:1002F0004FEACE1E4EEA5000586793F8B70000F060
:100300007F0E4FEA0E1E4EEA17179F6793F8B870DC
:100310007F0047EAD01093F8B97007F0030E40EA67
:100320004E20D86793F8BA0000F01F0E4FEA8E1ED9
:100330004EEA9707C3F8807093F8BB70FF0047EA56
:10034000501093F8BD70C3F8840093F8BC0007F018
:10035000070E40EA0E20C3F8880093F8BE0000F0B4
:100360003F0E4FEA4E1E4EEAD707C3F88C7093F843
:10037000BF70BF0047EA901793F8C00000F0010E6D
:1003800047EA8E27C3F8907093F8C17007F00F0EFC
:100390004FEACE1E4EEA5000C3F8940093F8C20014
:1003A00000F07F0E4FEA0E1E4EEA1717C3F8987042
:1003B00093F8C3707F0047EAD01093F8C47007F039
:1003C000030E40EA4E20C3F89C0093F8C50000F0ED
:1003D0001F0E4FEA8E1E4EEA9707C3F8A07093F8DF
:1003E000C670FF0047EA5010C3F8A40093F8C70096
:1003F000C7074CBF40F21477AD27C3F8A870870732
:100400004CBF40F21473AD2310F0080FC4F8AC30A9
:100410000CBF0123032388E0034686E094F8C970EB
:100420003B480023D7B390F8CA70B0F8CC8080F86E
:10043000C9304FF0020C4FF0030E1CFB07E981445A
:100440000CFB070C99F8CE909CF8D2C04CEA092C12
:10045000E0456AD190F8CF00012803D0812864D10B
:10046000734600E00346102F84BF102084F8CA00B2
:1004700094F8CAC000204FEA4C0C604555D0DFF814
:10048000A4E00EEB00070EF1260E97F803803F79EB
:1004900047EA082720F80E700230EEE73B4644E0BA
:1004A00094F814011A4B00283ED0002083F8140160
:1004B00093F81501A82837D193F82831A3BB05EB91
:1004C00043009FED157A90F8187190F8190100EB30
:1004D000072007EE900AF8EEE77A1048C7EE877A11
:1004E0009FED0F7A77EEC77AFCEEE77A17EE907AF7
:1004F00040F823700133082BE1D106E094F84C3129
:100500009BB1034B002083F84C0101230DE000BF99
:10051000D805002070160020CDCCCC400407002068
:100520000080BB43A60600200023D8070CD501207D
:100530002074AD48C3F34003037083F001032370BC
:1005400002F5C333A03363604B0414D594F84D31E6
:1005500023B1A64B002083F84D010123A348237447
:100560004BB101230370A04B00271F7002F54333EA
:1005700003F5A0734360CF0713D594F84E7194F838
:100580004F019A4BB8420CD001201872964883F85C
:100590004F714FF0000E80F801E002F5C330A0303B
:1005A000586088040AD50023904800F5A877DF5BDF
:1005B000002F41F020850233182BF5D1237C33B96D
:1005C0008A4BD3F86831D31ADB43DB0F00E00123F9
:1005D0008BB1D4F86C31D21A12F1500F03D4834B83
:1005E00093F870313BB102F093FF012384F871312D
:1005F00084F8703138E1D4F874217C4B0132002A40
:10060000C8BF0022C3F874210A0640F12D81D4F836
:100610007831B3B994F87C31013B042B00F224818A
:10062000DFE813F01600160016000F01EA006F4B0A
:10063000D3F8780105F073FE0CF0CEF808B10FF096
:100640001BFAD5F8780105F06FFE0028EFD1E1E73D
:10065000D4F89C21654D177817B1012F12D003E112
:10066000012B00F20181624B95F87D21D5F87801CC
:100670000C2101FB023292F8212053F8221005F0E0
:1006800049FE67E0D5F8780105F03FFE002800F04C
:10069000EB8095F87C31022B48D0032B56D0012BF0
:1006A00040F0E280534BD5F894211B689A1AC72A70
:1006B00040F2DA80D5F89011042935D84C4AC5F8B3
:1006C00094310C2000FB0121D5F8785191F82110CC
:1006D000D5F808C00023104650F8237067455FFA2C
:1006E00083FE04D00133082BF6D1002300E07346CB
:1006F0008B4205D0284652F8211005F00BFEB3E0DE
:1007000094F87D310C2202FB0300476A013F17F881
:10071000011F19B1284605F019FEF8E7D4F8903109
:100720000133C4F890319FE002209BE0304B95F8F4
:100730007D21D5F878010C2101FB023292F82120AD
:1007400053F8221005F0E6FD03208BE0D5F89C312C
:100750009B780BB9042085E095F898310BB985F8A2
:10076000987194F89831214D012B17D1D5F890311B
:10077000B22B0DD81E4AD5F87801134493F85C10BB
:1007800005F0E4FDD5F890310133C5F8903105E06E
:100790000023C5F89031022385F8983194F89831F8
:1007A000124D022B1AD1D5F890310F2B13D8D5F852
:1007B0009C210F495278D5F8780102EB02120A44C5
:1007C000134493F8101105F0C1FDD5F890310133B1
:1007D000C5F8903102E0032385F8983194F89831F8
:1007E000022B41D9B6E700BF00000020D805002049
:1007F000FC3F010864400020D4F88421944B01326E
:10080000C4F88421D4F89C21D2785AB193F87D2180
:100810000132D2B20521B2FBF1F101EB8101521A92
:1008200083F87D218B4B1B68C4F88831002384F842
:10083000A03194F8A13123F0020384F8A131012002
:1008400010E0844BD4F888211968814B8A1A40F64D
:10085000C4118A4208D9D3F8A42122F02002C3F897
:10086000A42105200EF0ACFC05F0A3FCD4F8B431B3
:1008700030600BA898479DF82C3043B9764B1A6826
:10088000734BD3F86C31D31A642B00F15586D4F82E
:10089000BC116F4B3268D3F8C4010A44B4F8C011DC
:1008A000C4F86C21002284F87021583001B1022173
:1008B0000AF042FB05F07DFCD4F8CC313060C31A5D
:1008C000A4F8C831C4F8CC0103F066FF634B604D57
:1008D0009B78ABB1B5F9D621B5F88A339A420FDCD3
:1008E00095F8F931012B01D0192B02D194F8D823B6
:1008F00032B90E2B04D0082B1CBF0023A4F81839E2
:10090000D4F8C481524D98F81861BEB3B5F8C0311F
:100910009B0733D005F61C1393ED080ADFED507AE0
:10092000B5F81A79B4EEE70AF1EE10FA22D912F00E
:1009300023FF05F51465D5ED007A20EE270A12F0A5
:10094000D1FEB0F5617FA8BF4FF4617006EE900A4A
:10095000DFED447AB8EEE60A80EE270A06F08AF860
:1009600007EE106AF8EEC77A27EE800A12F0BAFE98
:1009700080B200E000203844A4F81A09D4F8A43169
:10098000334D9F0640F19480B5F8C03103F0300339
:10099000002B00F08D8095F8A131DE0740F18880B2
:1009A000B5F94829DFED307A304E0A2392FBF3F394
:1009B00008EE103AB8EEC88A28EE278AB0EE480A48
:1009C00006F058F8F0EE408AB0EE480A06F0B2F8A9
:1009D000D5F84C39B5F95609DF78B0EE409AB2EE49
:1009E000048A002F44D0B5F852391FFA83F91BB29C
:1009F000C01A06F097FB7D42A84203DBB842A8BFAD
:100A0000384600E02846B4F850398144B4F9540916
:100A10001FFA83FA1BB21FFA89F9C01AA4F8529977
:100A200006F080FBA84203DBB842B4BF05463D4652
:100A300055440FFA89F9ADB207EE909AA4F85059CF
:100A40002DB2B8EEE77A07EE905AF8EEE76A19E0B1
:100A5000D80500206440002070160020000000200F
:100A60008FC2753CEFB6B04435FA8E3C7416002048
:100A700006EE900AB5F95459B8EEE67A06EE905AA9
:100A8000F8EEE66A68EEE67AE7EE097A26EE899AEB
:100A9000C7EE887AA7EE289AFDEEE77A89EE089AE3
:100AA00017EE903ABDEEC99A338019EE103A738072
:100AB000964DB4F85E2305F27A330093944BD4F844
:100AC00058191E68404608F15803B04794F85C690D
:100AD000032E16D9D5F860395A88B2F5FA7F10D2AC
:100AE000B5F91809B5F968190028B8BF4042534252
:100AF0001B1A994203DB13188B42A8BF0B46A4F8BC
:100B00006839B4F81A19B4F86609B4F86459D4F815
:100B10006079B4F968E97F4B0022B24203F1100317
:100B200035D297F901C00FFA85FACCF1000C0EFB13
:100B30000CFC06EE10AA0FFA80FA07EE10CA07EEB8
:100B400090AA0FFA81FCF8EEC76A05EE90CA13ED81
:100B5000027ADFF8C8C1F8EEE77AF8EEE55A67EEF8
:100B6000877A13ED047AE5EE877AB8EEC66A13ED5C
:100B7000037AE6EE077A13ED017AE6EE877AFDEE68
:100B8000E77A17EE908A2CF812800132C5E7624BA3
:100B90001A7802F0040202F0FF03002A00F09280AB
:100BA00094F8470AB4F82C1A06900123B3425B4F1D
:100BB00008B207D237F913108142B8BF014689B293
:100BC0000133F3E7D4F8682AE368B2F802E0D4F816
:100BD00060C9D4F86C5A7045C8BFCEEB010E03F45F
:100BE0008051079103F0100AB4F9D611D4F8700AB5
:100BF0004A4BCCBF1FFA8EFE4FF0000E07EB4609A2
:100C00004B4556D01E88079FCEEB0606B6B223F89A
:100C1000026B27B39CF800704FB9EF89B0F80680DB
:100C2000C8EB070B594502DDB844414512DBEF899B
:100C3000B942CBBF47889788B2F80280B0F80080ED
:100C400036B2BE4203DB4645B4BF3746474623F8BB
:100C5000027CD5E7B942CCBF4688068826E0069FCD
:100C6000B2F802B036B257B1B2F80480464503DBA1
:100C70005E45B4BFB046D84623F8028CC0E7B2F850
:100C80000080464503DB5E45B4BFB046D84623F836
:100C9000028C2E8AB142B3DABAF1000F01D09688E5
:100CA00004E09CF80060002EAAD1168823F8026C9C
:100CB000A6E794F8742A154B013AD2B2182A00F22A
:100CC0005A810AE0B342F4D2144A02F14A0131F8DF
:100CD000131022F813100133F4E701219140104A58
:100CE0000A40002A00F04781B3F8C021D00519D589
:100CF000B3F81429ADF82C20B3F81629B3F8183935
:100D0000ADF82E20ADF8303025E000BFD80500202A
:100D100008000020440F0020791600200410002055
:100D200099209801B3F86429D968ADF82C20B3F85C
:100D30006629ADF82E20C904B3F86829ADF8302033
:100D400009D5B3F9D611D3F86C3ADB899942BCBF07
:100D50005242ADF83020B4F946194FF47A7201F5D9
:100D6000E16151434FF4616391FBF3F1A1F5FA7135
:100D7000ADF84410B4F9441901F5E1614A4392FB1E
:100D8000F3F3A3F5FA73ADF84630B4F82C3AB4F89F
:100D9000D021A3F2DC53ADF83230D4F86C3ADB89C1
:100DA000D21AADF83420B4F8D221D21AADF83620D8
:100DB000B4F8D421D21AADF83820B4F8D621D21A1A
:100DC000ADF83A20B4F8D821D21AADF83C20B4F8E6
:100DD000DA21D21AADF83E20B4F8DC21D21AADF8EF
:100DE0004020B4F8DE21D31AADF842300022B94BCE
:100DF00003F68E20002111520232102AF7D1D3F8C7
:100E0000A00AD3F8A42A93F89E3A06905B000993AF
:100E100007920B46DDF824C0AE48634500F08F8092
:100E200000F6A8256A18967936B10127153607FA13
:100E300006F6069F3E407CD0685C079D92F904B0A0
:100E400092F801A092F803805679C0EBC00E05EB32
:100E50004E0E4FEA4A0CBEF90270BEF900500896D9
:100E60007F1BBFB2642507FB0BFB9BFBF5FB4FEA27
:100E70005709C9EB0B0B1FFA8BFB974D12AEB8F15C
:100E8000000F03D1664436F81C6C0CE0B444EE5EEF
:100E90003CF91CCC664508DAB044B04503DBC445D8
:100EA000B4BF66464646EE520AE009DDC8EB0608C6
:100EB000E04503DBB045B4BFC446B44625F803C0E3
:100EC0004FF0010CDEF80AE0824D92F902200CFA94
:100ED0000AFA1AEA0E0F0CBFE6464FF0FF3E05F67F
:100EE000183C05EB400633F80CC0B6F88E6A12FBCE
:100EF0000CF24FF0640C92FBFCF20FFA8BFB5A459C
:100F00001FFA8EFE0EDBDDF820A04FFA8AF807FBF1
:100F100008FB9BFBFCFBC9EB0B0B0FFA8BFB934510
:100F2000A8BF934605EB40050BFB0E6BA5F88EBAE8
:100F300002E000F618301E52023307316AE700253E
:100F4000D0F8A49A2E460E2202FB0692634F92F925
:100F50000680EB5B18FB03F8642398FBF3F825F895
:100F60000780F0B205F0E6FA01364044082EE85357
:100F700005F10205E7D1574DEF6817F02009A846A3
:100F800034D0002005F0D6FAA5F88E0A06460120D6
:100F900005F0D0FAD5F8A03AA5F8900A1B0625D599
:100FA000D5F8383BB5F844291B78012B22D1D5F868
:100FB000A43AB5F946E993F9141093F9063011FBF8
:100FC00002F25B4232210EFB03F392FBF1F26FF06F
:100FD000310E92B293FBFEFE964493FBF1F1764400
:100FE0000A44A5F88E6A1044A5F8900AD5F8A4BA68
:100FF000002319E0D5F8A41AB5F8463991F906E0AE
:1010000091F914101EFB03FE32239EFBF3FE11FB2D
:1010100002F2764492FBF3F3A5F88E6A1844E3E7F4
:10102000D1520233102B10D0C3EBC3062B4A5E44BF
:10103000985EB6F90010B6F9026088429246EFDB7E
:1010400031B28842B8BF0146EAE7224BD3F8603993
:1010500093F90820A2B995F874BA0BF1FF32182A57
:101060007AD8DFE802F0317979557979794C797954
:10107000797979627979797979556D7979623100FF
:101080000026174A3AF90610442000FB0620B3F95F
:101090000620059305F056FDC6EBC60180B22AF87E
:1010A0000600594400B2B1F90020059BB1F90210C5
:1010B000904203DB0AB29042B8BF02462AF80620EB
:1010C0000236102EDDD1C6E71B795BB10020B5F8E2
:1010D000981A10E0D8050020F010002066100020BB
:1010E00018110020B84B1B7803F0040303F0FF0035
:1010F000002BEBD1014606F0CBF801262DE00020B5
:10110000B5F8941A06F0C4F80120B5F8961A07E06D
:101110000020B5F8961A06F0BBF8B5F8981A012029
:1011200006F0B6F8022600F0ABBF00260AEB460335
:10113000F0B29988013606F0ABF8062EF6D10CE035
:1011400000260AEB4603F0B2D988013606F0A0F873
:10115000042EF6D100F094BF0026B9F1000F02D1A1
:10116000BBF1050F0CD13046B5F88E1A06F090F899
:10117000701CC0B2B5F8901A06F08AF80236F6B2C2
:10118000F90208D4914FD5F8801F3A68904B511A54
:1011900000290DDAD0E100278E4B03EB4703F0194D
:1011A000C0B2198906F074F80D2FEBD00137F3E7C0
:1011B00002F5FF72C3F8802F93F8843F0BB10CF057
:1011C0006FFBB5F8C03133B9814BD3F8C4010121AD
:1011D000583009F0B1FE804B1878002840F0AC81FF
:1011E000EA687B4B120340F1A78193F8852F023AFE
:1011F000052A1ED893F8082932B1012A09D105F031
:10120000CFFFC0F17F0004E0D3F8880F03689B682C
:101210009847D5F88C3F95F8902F1344B3F5807F0D
:10122000A8BF4FF480738342D4BFC5F88C3FC5F884
:101230008C0F95F8853F023B082B00F27781DFE8A1
:1012400013F00900410067007D009600A8003C01F2
:1012500059016601614B1A68D5F8983F64339A4288
:1012600040F2648140200FF073FF002840F05E815F
:1012700040275B4BD8F8942F554E1A44994692F864
:10128000640170B10FF0A6FFD6F88C1F0139C6F8C3
:101290008C1FD6F8941F013F01F10101C6F8941F7D
:1012A000E7D1D5F8942F4A4B4A4492F86421002A9A
:1012B00040F03C81C3F8942F4FF0FF32C3F8982FD1
:1012C00003221CE024230093464B019303F10C02FC
:1012D00002924920A3F10A02502102330CF00BFFC5
:1012E000002840F02381EA68394B12F080024FF069
:1012F000FF3107D0C3F8940FC3F8981F042283F876
:10130000852F13E1C3F8942FC3F8981F0622F6E740
:10131000354A02230021009301910291482002F1F5
:1013200008030CF0E8FE002840F000814FF0FF3386
:10133000C5F8983FC5F8940F0523BBE00723009339
:101340002A4B019303F10C0202924720A3F10802F9
:10135000002104330CF0CFFE002840F0E7804FF06E
:10136000FF33C5F8983FC5F8940F0623A2E0204A42
:1013700005230021009301910291532002F10803FB
:101380000CF0B9FE002840F0D180C5F8940F072377
:1013900090E040200FF0DCFE002840F0C780D5F838
:1013A000943F0C2B7DD8DFE803F0070B2B2F354043
:1013B00044484C505D676B000E4810F063F86AE0DB
:1013C0000D480E492EE000BF79160020701600204F
:1013D000D8050020A80700207816002064400020CF
:1013E000FC3F0108CA410108704301088843010815
:1013F000D4430108D4500108EE500108886901085F
:10140000C148C249C24A44E0C24895F8061995F855
:1014100007293EE095F8E038BF480C2202FB038321
:1014200093F8E21810F02EF835E0BC48B5F8341304
:10143000F8E7BB48B5F83613F4E7BA48D5F8B81161
:10144000F0E7B94BB9489988ECE7D5F89C2FB84B31
:10145000D60403D5B74893F86C13E3E70B22C3F81F
:10146000942F18E0B44895F8701395F8712395F807
:101470006F3310F007F80EE0B048B5F8A01FD1E7C1
:10148000EA68AB4B100506D5AD48B3F87413B3F951
:1014900072230FF0F7FFD5F8943F0133C5F8943F5E
:1014A00044E00FF085FE002840D04FF48053A5F8AB
:1014B000A23F092385F8853F38E0D5F8A03A9C4E35
:1014C000990114D5B6F8A43F8BB9D6F8A83F0B9371
:1014D0000E203B680C930BA90CF0C0FE4FF4805318
:1014E000A6F8A23F092386F8853F0AF059FE05F0C9
:1014F00007FD1BE095F8AC2F8D4B002AF5D0D3F8F3
:10150000A02A9201F1D4082283F8852FEFE78D4BB2
:101510001A68D5F8983FC8339A4203D90FF06EF98C
:101520000123C7E70FF044FE0028F7D107F09AFD2A
:1015300010B1012385F8853F834B1E78002E7EF481
:1015400058AE7B4DEB685B057EF553AE95F8AD3F2D
:10155000B5F84293DFF8EC81002B00F01C82D8F83C
:101560000030D5F8B02F9A1A7C2A40F21482C5F8C0
:10157000B03F95F8B43F013385F8B43F06F124003D
:101580006B4FC0B204F03EFF07F6B67333F9163066
:1015900007EE103A644B9B8807EE903AB8EEC77A94
:1015A000F8EEE77A0136C7EE277A9FED687A67EEA4
:1015B000877AFDEEE77A17EE900A00B204F04EFF4C
:1015C000032EDBD1302004F01DFF002004F046FF85
:1015D00004F026FF97F8B46F16F0030623D1D7F86E
:1015E000B02F41F288339A420BD9102004F00AFF41
:1015F000304604F033FF212004F004FF304604F0AD
:101600002DFF142004F0FEFEB5F948090A2390FBD3
:10161000F3F004F023FF1C2004F0F4FE002004F09B
:101620001DFF04F0FDFE95F8B43F414E5F0740F00A
:101630008C81022004F0E6FEB6F9BC0F0A2390FB71
:10164000F3F004F00BFF0320B6F91A7904F0DAFE88
:101650003F4B1B784FF0050A97FBFAF75807BFB2CC
:101660000CD506F27A3049460CF004F820B9F3683C
:1016700013F0100F18BF002738B205E0D6F8C03FAE
:101680009B89B3FBFAF000B204F0E8FEEB68284E49
:10169000990740F1B680DFF8BC90B6F8C43F99F8DE
:1016A0000020B6F8C6AF642707FB03234FEA0A1AE7
:1016B0005200B3FBF2F31FFA8AFA4AEA032A1FFA2E
:1016C0008AFAC3F303234AEA030A062004F09AFEC7
:1016D0000FFA8AF004F0C2FEB6F8C62F99F800306F
:1016E000013292B292FBF3F103FB1123A6F8C63F3D
:1016F000D6F8C83F9B7B012B2ED1392004F082FE07
:10170000B6F9C40F44E000BF0351010817510108A6
:10171000235101082C5101083D510108475101088E
:10172000565101086551010800000020755101085B
:10173000D80500207F5101088C510108A5510108EE
:10174000B0510108644000207816002000007A445F
:10175000791600200C000020B6F8C43F6E265E43C8
:10176000152396FBF3F6B6B23A2004F04BFEB6FB17
:10177000F7F90FFA89F004F071FE3B2004F042FE05
:1017800007FB196080B205300A2390FBF3F000B22A
:1017900004F064FE282004F035FED5F8CC3FAB4EB3
:1017A0000A2293FBF2F000B204F058FE042004F089
:1017B00029FED5F8C03FD6F8D00F9B894FF6FF72AF
:1017C0009042A8BF104620EAE070BBB1181A07EE9D
:1017D000900A9FED9F7AF8EEE77A06EE903A67EE70
:1017E000877AB8EEE67AC7EE877AFDEEE77A17EEEB
:1017F000900A6428A8BF642020EAE07000B204F0D8
:101800002DFED5F8A431914E9A0640F1938096F8BA
:10181000A1319B071DD5112004F0F4FDB6F8D40FBB
:101820008C4B4FF4F367784390FBF3F000B204F075
:1018300015FE192004F0E6FDB6F8D43F5F4364239B
:1018400097FBF3F797FBF3F203FB127000B204F07F
:1018500005FE95F8A131B5F8D66F13F0020F08BF59
:101860000026012004F0CEFD30B204F0F7FD09207F
:1018700004F0C8FD002004F0F1FD774B95F8A0615D
:101880001B88B3F5967F0BD9704A92F8B42F02F0FB
:101890000F02072A04D842F20F76B342B8BF1E46A1
:1018A000052004F0AFFDD5F8C83F5B7B0BB930B223
:1018B0001AE0203E07EE906A9FED687AF8EEE77A2C
:1018C000FEEE006AC7EE877AB6EE007AF5EEC07AD1
:1018D000F1EE10FA48BFB0EE667A77EE877AFDEE49
:1018E000E77A17EE900A00B204F0B8FD95F8A1214E
:1018F000564B970703D493F8D82F012A04D101231C
:1019000085F8D83F56481CE0D3F8C83FDFED557A3C
:1019100093ED017A27EE277A0BA8BDEEC77A8DEDFD
:101920000B7A93ED027A67EE277AFDEEE77ACDED3A
:101930000C7A06E04C4A92E803000BAB83E8030004
:10194000184604F096FD04F06BFD95F8B43F282B83
:1019500021D13E4BD8F80060002283F8B42F4FF419
:101960007A73B6FBF3F917203C2604F04BFDB9FB64
:10197000F6F7B7FBF6F006FB1070000200B204F0B9
:101980006DFD182004F03EFD06FB179000B204F038
:1019900065FD04F045FD95F8E43F2C4E002B00F06A
:1019A000648104F006FCD6F8E83F304AC31A93423B
:1019B000074640F2E480002386F8EE3F86F8F03FC9
:1019C000B6F8C43F2A49D8F80000DAB21B0A0A70F8
:1019D0004B7006F580514B70264B0A7053F8E02C83
:1019E000801A53F8DC2CD27B4FF47A715143884231
:1019F0000ED3214A126843F8E02C13F8D82C013A90
:101A0000012A05D8102286F8EE2F022286F8F02F40
:101A1000D5F8CC0F194A0A2190FBF1F01070001292
:101A20005070D5F8D00F90FBF1F11171091251717E
:101A300095F8A01103F8BD1C95F8A1310D4A9E0739
:101A40001ED42D2302F8BC3C96E000BFD805002030
:101A50000000C842A08601000E0000206666E63F36
:101A6000B41500208096184BFC4301083F0D03007D
:101A7000E2150020D016002064400020E015002070
:101A80000429D4F8DC6FCE4DDFF850E3D4F8E00F32
:101A90008CBF3323322302F8BC3C96FBF5F30EFBDC
:101AA000036803EB830390FBF5F503EB8303C54A5F
:101AB0000EFB050E4FF0060C4FEA8309C24B0CFBE0
:101AC00008F8F60F0CFB0EFE98FBF2FA03F8CE6C4A
:101AD0009EFBF2F6642102FB1A8802FB16E292FBDF
:101AE000F1F203F8C62C1212C00F03F8C52CB4F89B
:101AF000D42F03F8C90C2420424398FBF1F892FB41
:101B0000F1F133F8AA2C03F8D01CC1F3072103F834
:101B1000CF1C03F8C42CB4F8D61F03F8CB8C120AE0
:101B200005EB850503F8C32C0A2205EB8505B1FBFF
:101B3000F2F2AD0002F5FA7292B249FA8AF945FA68
:101B400086F51FFA89F9ADB203F8C22C120A03F820
:101B5000CD9C4FEA28284FEA192903F8C85C03F8FE
:101B6000C12C2D0A33F8A82C03F8CC9C03F8CA8C9E
:101B700003F8C75C03F8BB2C944BC3F8E87F924C86
:101B800014F8A66CA0466EB954F8A00C04F0CCFB77
:101B9000012807D902288E4D00F0388204F0C9FBD5
:101BA0000123AB7154F89C5C874B002D5DD013F87A
:101BB000A62C3AB153F8942C40F6B731BA1A8A429F
:101BC00016D852E0012203F8A62C53F8902C53F8B3
:101BD000A00C1278022A04D8043002210FF05EF91A
:101BE00002E0022104F08CFB002304F88C3C3AE074
:101BF00013F8982CAAB943F89C2C03F8A62C53F898
:101C0000902C53F8A00C1278022A04D80430012139
:101C10000FF044F902E0012104F072FB04F089FBAB
:101C200021E0013AD2B203F8982C13F88C1C13F877
:101C30008B0C42B901304A1C03F88B0C03F88C2C36
:101C400053F8A00C0DE02A46013012F8015B03F8AE
:101C50008B0C294453F8A00C03F88C1C43F89C2CE3
:101C6000294604F073FB44F8947C574C14F88A3CE2
:101C70002546FBB154F8883CE3B154F8843CCBB121
:101C800044F8803C1B68534A44F87C3C54F8783C48
:101C9000134493F8080405F02FFB54F8803C98791E
:101CA00006F0BCFF54F8783C0133092B88BF0023B1
:101CB00044F8783CDFF8288114F8743CD8F80060C8
:101CC000414A4746002B3EF494AA52F8703C33B187
:101CD00012F86C3C013B012B8CBF00230123D90778
:101CE0007EF587AA55F8700C374C04F01DFBE0B167
:101CF00054F8700C04F013FB14F86B3CD7F800A0F8
:101D00007E2B81460ED102231B2804F86C3C09D19E
:101D100054F8700C04F008FB20B9012344F868ACB7
:101D200004F8643C05F86B9CDCE7D8F8002054F814
:101D3000683CD31A41F65832934225D9032304F85C
:101D40006C3CFEF756BA13F8631C234A32F81100B4
:101D500018B903F8630C4FF4036015F8632C1A4CA0
:101D60000132D2B2B0F5C06F05F8632C77D039D804
:101D7000B0F5007F69D016D8B0F5807F00F0A5805F
:101D8000B0F5887F00F0A18015F8642C0E4B002A76
:101D90003EF42FAA3A68921B012AD4D9002203F8F4
:101DA000642CFEF726BAB0F5806F00F0A680B0F57F
:101DB000826F00F0E380B0F5047FE5D13DE000BF25
:101DC0008096980040420F00D0160020D8050020D1
:101DD00000000020FC3F0108B4500108806967FF43
:101DE00064400020B0F5006F40D00CD8B0F5E26F31
:101DF0007AD0B0F5E46F7BD0B0F5E06FC4D1A34BDF
:101E0000B3F9B61F77E0B0F5036F06D0B0F5046FF5
:101E100063D0B0F5026FB7D1D8E09C4BD3F8A421C2
:101E20009206B1D593F8A1219107ADD5B3F8D43F6F
:101E300024215943123164230EE0944BDA6892074F
:101E4000A2D5B3F8C43F0A21CEE0904BDA68110561
:101E50009AD5D3F8CC1F0A2391FBF3F1C5E08B4B45
:101E6000DA68120590D5D3F8D01FBEE0874BD3F8BF
:101E7000A411890688D593F8A1118C0784D5D007C1
:101E800011D5D3F8E03F83EAE371A1EBE37101EBF5
:101E900051011922B1FBF2F1002BACBF41F000411E
:101EA00041F040410EE0D3F8DC3F83EAE371A1EB5F
:101EB000E37101EB51011922B1FBF2F1002BB8BF24
:101EC00041F080414FF4006070E0704BD3F8A431D2
:101ED00059077FF559AF002187E06C4BB3F94819DA
:101EE00001EB8101490080E0684BB3F9B81F02E0C3
:101EF000664BB3F9BA1F2C23AEE714F8623C0133EA
:101F0000DBB2032B88BF012304F8623C15F8623C66
:101F100042F2107159435E4B1B78DA0748BF01311A
:101F20009C0748BF02315807584BB3F8C03148BF2F
:101F30000431DA0748BF0A319C0748BF143118063C
:101F400048BF2831DA0548BF28315C0748BF6431F3
:101F5000180748BFC8319A0548BF01F5C8719C06EB
:101F600048BF01F57A71D80648BF01F5FA615A06F3
:101F700048BF01F57A614FF4806017E0434BD3F816
:101F8000A41111F0200817D093F8A12193F8A031E3
:101F900012F0020F0CBF00214FF47A7112F0010F02
:101FA0000CBF00224FF4FA621144194404F0F6F910
:101FB000002305F8643CE7E6DB681B067FF5E4AE2A
:101FC000414604F0EBF904F8648CDDE62F4BD3F8BE
:101FD000A42191067FF5D8AE93F8A12192077FF551
:101FE000D3AEB3F8D63F6421594304F0D7F90023A8
:101FF00004F8643CC8E601230372264B00275F7097
:1020000002F5C333A0334360FEF7D8BAAB791BB1F6
:1020100044F8A47CAE71C5E554F8A43CFB1AB3F5B2
:102020007A6FFFF4BFAD012354F8A00CAB7104F03C
:1020300076F9054654F8A00C04F071F96D067FF4AA
:10204000B1AD8A2802D08E280ED0ABE50F4BD3F865
:10205000A43198067FF5A6AD14F8A63C002B7FF4BA
:10206000A1ADA8F1D70305E014F8A63C002B7FF43E
:1020700099AD094B44F89C3C2D2304F8983C91E51C
:10208000B9F1000F3FF47CA8FFF76DB8D805002028
:102090007916002000000020C41500202DE9F04F23
:1020A0002DED068BC74CC84B236093B000236360B3
:1020B00006F0EEFF18B90AF083FE07F00DF8DFF81E
:1020C0006493DFF86483C14DDFF860B3DFF860A389
:1020D00009F0AAFE99F8003043F0010389F80030B6
:1020E00004F0B4FEBA4BC8F80C306B6FA360B94B68
:1020F000C8F808306B6BB84823F080036B636B6FD4
:1021000043F080736B672B6B43F03F0312AF2B637D
:1021100003238DF82E3041F6FF7327F81C3D394616
:1021200006F009FC4FF6FF73AC48ADF82C30394689
:1021300006F001FCAA48394606F0FDFBDFF8F4C2C0
:10214000CDF80CC06046394606F0F5FBA548394687
:1021500006F0F1FB3946A44806F0EDFB384606F0E0
:1021600015FC0B9BA14AB3FBF2F3E360A04BA14A21
:1021700000261E605E60A04B5A60F02288F8232083
:102180000722DFF898829E601A60D8F80830CBF8F2
:1021900000309AE80F0087E80F002B6BDDF80CC0C9
:1021A0000B9843F008032B632B6B43F008032B635E
:1021B0004FF48043ACF818304FF40043ACF81830BB
:1021C0000CA906F0B8FB0EA90D9806F0B4FB64202C
:1021D00004F015F831468948A02211F073F82B6CF1
:1021E00043F013032B646B6C43F001136B64844B5B
:1021F000464603F1C0009A7A93F80BE053F8105B5F
:1022000002F00701D20805EB82028900156A4FF03F
:102210000F0C0EFA01FE0CFA01F125EA0101116220
:10222000156A83424EEA05011162E4D10023DFF80A
:10223000948108F110020021995401330C2BF6D13E
:10224000FF2388F81C3088F81D3088F81E3088F885
:102250001F306C4BDFF8E0C1C3F800C06A4D6B4B18
:1022600004221A7028463022CDF80CC011F02AF84A
:1022700014232B700223DDF80CC02B76644A05234F
:1022800085F8243073791370ACF5F072C8F820200B
:10229000ACF59072C8F824205E4ADBF8005002EBDF
:1022A000C3025278C8F82820AA0644BF0122C8F801
:1022B00028200022584940F2DC5050520232102AA5
:1022C000F8D1384600211C22049310F0FBFF049B38
:1022D0000E2B03D003F0EF03082B02D101238DF85E
:1022E0003E30052006F05AFD18B14088003018BF76
:1022F0000120C5F340038DF83330C5F380138DF80A
:102300003630C5F340338DF82C30C5F3C03300F0C0
:1023100001008DF82F3015F400638DF8320004D0E1
:1023200096F882315F1E7B427B418DF83030C5F3D9
:1023300000438DF83730A36AB6F84411ADF8421067
:10234000003318BF01238DF83830C5F300538DF8E2
:102350003930B6F84631ADF83C30B6F85231ADF808
:102360003A30C5F380438DF8343096F854311A1C56
:1023700018BF012205F00108C5F3C0078DF835200C
:10238000ED04B6F850218DF82D808DF82E70ADF843
:10239000402004D52149B1F84C11ADF84210B2F5F6
:1023A000FA7F02D90BB9ADF8423096F8D2311C4809
:1023B00084F82C300021642210F084FF9DF83E3018
:1023C000002B3BE07C1600205763000800380240D9
:1023D0000005FA0500000008000002400004024069
:1023E00000080240001002400014024040420F006A
:1023F000684000203F90020010E000E0A83E00206E
:102400006C630108781C0020641D0020611D002001
:102410004C1000202864010866100020CC07002022
:10242000AC1600207040002000ED00E0E405002024
:102430006C5C0108000C0240BC09002014BF0223A0
:102440000023B8F1000F00D107B101330AEB830379
:102450004FF000081B690593C246059A32F8083010
:102460004FF6FF72934200F04681190A022902D109
:102470009DF82C2003E0012904D19DF82D20002A8D
:1024800000F03381DBB2BF4D9DF839004FEA031CE9
:10249000654430B19DF83E0018B9043B032B40F26F
:1024A000FD80012951D19DF8343023B9BDF8403069
:1024B000B3F5FA7F08D9B34AB34952F80C308B42CE
:1024C00004BF032384F89430FF230027298984F86C
:1024D000DC3084F8DD306B7B686884F8E070C4F829
:1024E000EC50ADF81C108DF81E3007A9022384F8BB
:1024F0009870C4F89C70C4F8A070C4F8A470C4F8B4
:10250000D87084F8DE7084F8DF708DF81F30CDF855
:102510000CC006F010FADDF80CC09A4BA97A53F8FB
:102520000C003A4606F01CF828460BF0E7FA974BE9
:102530009749C4F8F030974BC4F8F430C4F8F870F9
:1025400028460A1D0CF04AFECFE002293CD1924AEF
:102550008DF81F105FFA8AF31C20584317180023C8
:102560004FF0010EBB70BB7287F801A007A902F8FB
:1025700000E095F80DE02A896868FD608DF81EE09E
:10258000ADF81C200493CDF80CC006F0D4F9DDF8AA
:102590000CC0049B7B4AA97A52F80C001A4605F03D
:1025A000DFFF28460BF0AAFA7C4A3A61049B7C4A7A
:1025B0007A61BB61284607F1100107F114020CF0A3
:1025C0000DFE0AF1010A90E0032965D19DF834302F
:1025D0000BB39DF8353094F8317053B1BDF84030ED
:1025E000704AB2FBF3F22846082192B2BDF842309D
:1025F00003E0284608214FF6FF720CF06DFA04EB59
:102600008707694BC7F8C001C36094F832301922BC
:1026100004EBC30331E0BDF8403094F83170B3F5FA
:10262000FA7F15D95F4AB2FBF3F292B2BDF842309D
:10263000284608210CF050FA04EB87075B4BC7F8DB
:10264000C001C36094F832300D2204EBC30314E0E0
:10265000574AB2FBF3F292B2BDF84230284601214C
:102660000CF03AFA04EB87074F4BC7F8C001C36080
:1026700094F83230092204EBC30383F8352094F830
:10268000323094F8312004EBC30181F83420013258
:102690008D6384F8312025E0042926D194F8323066
:1026A00094F83070424A04EBC303012183F834707C
:1026B000BDF83A3092FBF3F292B2BDF83C302846B6
:1026C0000CF00AFA94F8323004EBC3020A2182F8C3
:1026D000351094F8302004EB87070132C7F8F00179
:1026E00084F83020013384F8323008F10208B8F160
:1026F000180F7FF4B2AE94F8302084F810222D4ADF
:102700002D4B1578A5F117020027022A1F709E464F
:102710001BD8236A3B44D3ED007AF5EE407AF1EE04
:1027200010FA03D1A36A002B4CD126E0234A07EB11
:10273000020C0FCB8CE80F009EF8003010370133ED
:10274000C02F8EF80030E4D1ECE71D4B13F8358034
:102750008EF8008003EBC503D3F804A0BAF1000F94
:10276000E0D04745DEDA154A3B0103EB020C534447
:102770000FCB01378CE80F00F3E7DBF80030D8040B
:1027800046D43FE06863010800000140ED5E0008A8
:102790006C170020F95F00085C17002087A2000872
:1027A000D15F000800127A00096000081960000873
:1027B00040420F004C100020340F0020440F002036
:1027C000286401089C4B9D4A03EBC5035F6A93F89C
:1027D00020001070002FD0D000238342CDDAC3EB4D
:1027E000C3017A18DFF88882D2F800A041F808A067
:1027F00001EB080C9188ACF8041092798CF8062053
:102800000133EAE705F0EF03082B8D4B20D121E0DF
:102810009EF800100129F5D98A4B00228A4203F163
:102820001003EFDA13ED047AF6EE007A27EE277A3A
:10283000013203ED047A13ED057A27EE277A03EDD2
:10284000057A13ED037A67EE277A43ED037AE5E71D
:102850000E2D08D11A7842F010021A70182D08D1E6
:1028600003F043FE05E01A7822F010021A70192DC9
:10287000F5E70AF0F9FFDBF80030590302D4724B98
:1028800001221A7099F8003043F0040389F80030EF
:102890000DF00CFF0FF0EEFA0FF082FBB6F85821A6
:1028A0006A4B4AB9B3F95A1141B9B3F95C31D3F162
:1028B000010338BF002302E0002300E0134613F0B9
:1028C00001036AD16249DFED637A0B7012B208EE40
:1028D000902AB6F95A31B6F95C21F8EEE88A08EE8A
:1028E000103A0AEE902A68EEA78AB8EEC88AF8EE87
:1028F000EAAAB0EE680A28EE278A6AEEA7AA04F0D0
:1029000019F9B0EE409AB0EE680A04F0B3F8F0EEB0
:10291000409AB0EE480A04F00DF9F0EE408AB0EEAD
:10292000480A04F0A7F8B0EE408AB0EE6A0A04F054
:1029300001F9B0EE40AAB0EE6A0A04F09BF820EE6E
:10294000097A69EE8A7AF0EE475AE7EE885A2AEE5B
:10295000096A69EE806AC4ED885AF0EE465AE6EEDE
:10296000C85AE7EE087AE6EE486A2AEE28AA28EE68
:10297000C00A69EEE89A68EE898A84ED85AA84ED3A
:10298000860A84ED878AC4ED895AC4ED8A9AC4ED1B
:102990008B6AC4ED8C7AC4ED8D8A2F4D2F482B683D
:1029A00096F85F81B3F8567096F861A100210C2269
:1029B00010F088FC00211422294810F083FC2948DB
:1029C000002184F844120C224170043010F07AFC8B
:1029D000254BC4F85432232003F011FC234B1A88F2
:1029E00022F040021204120C1A801A8822F03802D7
:1029F0001204120C42F030021A801A8892B242F08D
:102A000040021A806B2080210AF0F2FD4FF0060B85
:102A10002E46962003F0F3FB7520012107AA0AF049
:102A2000CAFD9DF81C30682B24D00BF1FF3B1BF036
:102A3000FF0BEED138E000BF6C5C0108761000207F
:102A4000790700204C0F00205C150020CC070020E7
:102A50001000002035FA8E3C9C070020B41800209E
:102A600080070020C01800205C5D0108003800408D
:102A7000801000200C20012107AA0AF09CFD9DF87F
:102A80001C30142B10D3182B02D9543B062B0BD817
:102A9000032384F84432432384F84832464BC4F875
:102AA0004C32464BC4F85032002384F8583294F824
:102AB0004432434D032B40F0E984424B424A1A60B2
:102AC000424A5A60424ADA60424A1A614248042243
:102AD00085F8582206220270404A1168B8F1090FA1
:102AE00041F0010EC2F800E00346934600F2CA84AA
:102AF000012000FA08F040F202320240002A40F0C1
:102B0000B98410F0FD0F00F0B584354AC5F83822BD
:102B1000344AC5F83C22344A0420107041F00301C5
:102B200007225A70CBF80010DBF80020920702D57C
:102B3000D5F838229047BAF1000F0CBF07220022C7
:102B400085F85922294A4FF47A7111601D4A50467E
:102B500013689847264900230B70264B93F855219C
:102B600012B1174880F8582293F856210AB11E482E
:102B7000027093F8573103B10B70DBF800301B077C
:102B80003CD53FB2642397FBF3F203FB12773FB2CD
:102B900007EE107AF8EEC76A07EE102AF8EEC77A49
:102BA0009FED157AE6EE877AB2EE047A67EE877AC1
:102BB000C5ED977A25E000BFB7D50008F1D500082C
:102BC0007C1600208007002071C600088D97000841
:102BD0003960000890C1793D180000207C07002072
:102BE000E9DA0008019800088C19002094070020F9
:102BF0008D190020CC0700208988883C0023C5F867
:102C00005C3299F8003043F0020389F80030BF4B82
:102C10004FF400425A834FF480421A834FF00A085F
:102C2000BA4F7B6983F400437B617B6983F4804303
:102C30007B61192003F0E3FA08F1FF38192003F053
:102C4000DEFA18F0FF08EBD14FF480433B834FF4DA
:102C500000433B83D4F860329FEDAD8A1B7B00EECE
:102C6000103AB8EEC00A20EE080A03F063FFA94B41
:102C70009FEDA97AD3ED047AA84B84ED990A1B88BD
:102C800027EE888A07EE903AF8EEE77A84ED9A8A82
:102C9000C7EE277A9FEDA27AC7EE877AC4ED9B7ABA
:102CA000A04C03F061FCFF211B22204610F00AFB20
:102CB0009D4A9E4B126884F80080012112F0020F99
:102CC0001970204604D06170032119700221A1708F
:102CD000570704D519784C1C1C700324445412F077
:102CE0000A0F0CD01A7804218154511CC9B2052452
:102CF0004454D11C0232D2B21970062181548C4F37
:102D00003A68940604D519784C1C1C700724445466
:102D1000110608D51978092444548C1C0131C9B214
:102D20001C700A244454834C6179082901D00E296F
:102D300009D193F800E00EF1010C83F800C04FF0C8
:102D40000B0C00F80EC093F800E00EF1010C5FFAD6
:102D50008CFC4FF00C0812F0040F83F800C000F850
:102D60000E800BD0DFF8C4810EF1020E88F800E06F
:102D7000DFF8B0E14FF010080EF80C8093F800E097
:102D80000EF1010C5FFA8CFC4FF0120812F4806F08
:102D900083F800C000F80E8010D094F81482B8F1C7
:102DA000000F0BD0DFF884810EF1020E88F800E0EE
:102DB000DFF870E14FF013080EF80C8012F4007F7A
:102DC00009D093F800E00EF1010C83F800C04FF039
:102DD000150C00F80EC0182917D193F800E04FF039
:102DE000160C00F80EC00EF1010C5FFA8CFC4FF0CF
:102DF000170800F80C800EF1030C0EF1020E5FFABA
:102E00008EFE83F800C000F80E10110308D5197863
:102E100001F1010E83F800E04FF0190E00F801E017
:102E2000D20504D51A78511C19701A238354002135
:102E30009822414810F046FA0DF0A2FC3F49B4F840
:102E40004E31A5F8743200230B808B703168B4F8D2
:102E500094013B4AC5F8702201F1790C394985F893
:102E600076320A6082B23849DFF8E480D1F8009007
:102E7000DFF8E0E023F8082009F596794EF8139082
:102E80000233242B8A46EED1D7F800E01EF4805F8F
:102E90000CBFB4F89A311346A8F8063000231CF88A
:102EA0000320B2B90CEB0302917892F803904945E4
:102EB0000FD209B1013901E009F10101527801EBAA
:102EC000810101EB810101F56171043289B228F8B9
:102ED00012100433502BE2D11EF0080F00F0E380F3
:102EE00094F88E31062B00F2D880DFE803F0040757
:102EF000355C7796960045F2F05201E042F6F822F2
:102F0000124B1A800DF0C8FCC6E000BF000C024056
:102F100035FA8E3C800700200AE81C41040000209E
:102F200000401C46F91C00207C070020F81C0020F3
:102F3000E4050020CC070020DC1B00201C10002032
:102F400052090020EC05002064400020321B0020C4
:102F5000A8070020F41800207E4B42F6F8221A80C1
:102F600000010A2390FBF3F0A0F5B06000237A4A39
:102F700098500433482BFAD1784B794A5A60794BF0
:102F8000122240201A7005F0C5FE002800F085804E
:102F900001234FF0070890F90000734A8DE80801FB
:102FA0004021724B73E06B4B42F6F8221A806B4B58
:102FB0006F4A5A606B4B102240201A7005F0AAFE2F
:102FC00000286AD001234FF0000C90F90000694AF4
:102FD0008DE8081040214FF4E13358E05D4B42F694
:102FE000F8221A805D4B644A5A605E4B08224020EA
:102FF0001A7005F08FFE00284FD001234FF0000E0D
:1030000090F900005D4A8DE8084040214FF4E1331B
:103010000EF062FAC5F8C0023BE04E4A584842F64C
:10302000F82111804F490C22062B0A7010D0002382
:10303000037085F8C43285F8C5321B2385F8C63283
:10304000052385F8C72285F8C8324FF4E1380EE031
:103050000021017085F8C41285F8C512DFF840819F
:1030600085F8C722212185F8C61285F8C8323B4B66
:10307000444A5A60402005F04DFE70B10121002302
:10308000414A90F900008DE80A00402143460EF0C5
:1030900023FA003018BF012028B9082003F0CEFE23
:1030A0002E4B3A4A5A603B682E4A13F4804F04D0A4
:1030B0001221117029493648486042F20101194035
:1030C00003F0010003F4005EA1B1224944F6206C34
:1030D000A1F800C0BEF1000F06D0082111701F49F1
:1030E000DFF8C0E0C1F804E020B10C2111701B49E9
:1030F000284848601178043951701A0640F18D80D3
:10310000DFF8A480DFF8A4B02348C5F8CCB24FF0B4
:1031100000094946152288F80190C8F80490C8F8BB
:10312000089010F0CFF81D4AABF105034846136034
:1031300004920CF045F8DAF80030C8F80C300220A0
:1031400005F0E8FD049A4346964688BB802003F0CC
:1031500075FE5BE0321B00204006002010000020BE
:10316000958200081A1D002009850008A08601002C
:103170008582000859840008718200080D840008C7
:103180002407002031820008ED820008E98200084F
:10319000C5820008DD8200084C1900207407002059
:1031A00090D00300D182000854070020BC09002001
:1031B00090F805C05A78BA494FF00C0808FB02187D
:1031C00098F80180E04504D00132D2B2042AF2D945
:1031D00000225A70DEF800205B78127890F9000027
:1031E000002A4FF00C0E0CBF012203220EFB03112C
:1031F000009200224B78019202210EF06DF9A94B4A
:1032000018600028A2D001200BF0DAFF3068A64B2E
:1032100000F5C5721A6003F023FF3B685B0555D5C6
:10322000A24BD5F8E882C3F80080042005F072FDB7
:103230000421C5F8EC0205F0C5FD9D4B85F8F002B0
:103240000820C3F8008005F065FD9A4B9A4E18607F
:10325000082105F0B7FD002185F8F1022C22304647
:1032600010F030F88E2373704FF07C0AE0234FF09B
:103270007D09F37086F800A086F82B908F4E2C22E3
:103280000021304610F01EF88A2373701020A0230E
:10329000F37086F800A086F82B90C5F8F48205F04C
:1032A00039FD1021C5F8F80205F08CFD85F8FC0207
:1032B0002020C5F8008305F02DFD2021C5F804036A
:1032C00005F080FD85F808030DF0E4FC7C4E3388A2
:1032D00023F040031B041B0C3380338823F0380396
:1032E0001B041B0C338033889BB243F040033380B4
:1032F0004FF000089F2332208DF818308DF8198088
:103300008DF81A808DF81B8002F079FF8DF81D80F2
:1033100008F1804808F504384FF4004906AA042350
:10332000A8F81A90304607A90AF0C6F8A8F818902D
:103330009DF81E209DF81D30120242EA03429DF8BE
:103340001F301A435F4B9A425F4B17D008D85F4932
:103350008A420CD001F51A4102318A4209D01BE0A1
:103360005B498A4205D001318A4207D014E020220D
:1033700000E080221A804FF4807202E04FF48072E5
:103380001A805A809A88198812029A604A43DA6031
:10339000012285F8092304E000221A805A809A60ED
:1033A000DA60DB6823B34FEAD328C2464FF0000946
:1033B000C1450BDA09EB080676100DF11C0BF00283
:1033C0005946102206F02AF90F2806DC0DF0A8FE57
:1033D0004FEACA23C5F80C330AE000235BF8032048
:1033E000013258D10433102BF8D1B246B046DFE792
:1033F0003B68384A13F4002318BF0123137002F00E
:10340000D8FE354B18606379052B03D1334B4FF44D
:10341000C8721A80324B4FF47A721A80314B1A7884
:1034200042F008021A70304B1A7822F002021A7029
:103430003A6840F6020313406BB12C4B2C4A1A60D9
:103440002C4B03221A702C4B01221A702B4A00239A
:1034500013802B4A1380A3683B602A4B01221A7009
:10346000294B1A7862F07F021A7013B0BDEC068BFC
:10347000BDE8F08FB8F1010F04D8244A0021117083
:10348000FFF752BB4FF00008FFF732BB012002F0FC
:10349000C0FEFFF7B6BB06F101094646A6E700BF2E
:1034A0001C40010850070020240F0020A015002018
:1034B000F415002040160020C4150020F915002046
:1034C000003C004018BA20004C00002015202000CD
:1034D0001740EF005D150020A40700209C1B002072
:1034E000D01C0020790700207916002098150020B4
:1034F00044090020F81500200C000020561B002075
:10350000581B00205C150020704000208C19002002
:103510008B498C480A682DE9F04F02F59C43203313
:103520000360894B1E7887B0C6B119465B689A4222
:1035300040F23081013E0E702CE12B688348072C4D
:1035400098BF195D824B88BF21461B689847032CA2
:103550000CD97D4A02EB4404013620817B4B7D4D22
:103560001A78F4B2A2421A46E7D81EE02B6804F19A
:103570000E0203EB82029388D2880028E9D0C01A99
:103580004FF47A71D31A484390FBF3F0084440F6A5
:10359000C903984205DC40F2EE239842B8BF1846B2
:1035A00001E040F6CA0080B2D3E76B4B1B6842F2E1
:1035B000010903EA0909D9F10109684B38BF4FF045
:1035C0000009D3F800A0664BB9F1000F06D1654998
:1035D0000978197064490878644908701E781EB12A
:1035E000624B1E7886F00106574992F80080D5F8A4
:1035F00000B00F2381F82C305D4B1F780322B7FBFE
:10360000F2F202EB4202BA1AD2B201F12E0303EB3C
:10361000420200244FEA480C0292254664455AD0E3
:1036200016B1544BE05A00E03046BBF814308342E8
:1036300006D8BBF81610814234BF0021012100E0FA
:1036400000214D4BE9B953F825309A4502D24B4B36
:10365000E05A1AE0EBB218468DE8081009F0E0FFD6
:10366000009BDDF804C0032B0FD8374B4FF0010E41
:1036700093F82C100EFA05FE21EA0E0183F82C10A7
:1036800003E00AF5967143F81410B9F1000F1DD14B
:10369000029A2D4B04EB4401505293F8762022B944
:1036A000022F13D9012083F87600354B581831F8D2
:1036B00003E041887144B0F804E04A33714489B2B0
:1036C000E15208B2032390FBF3F080B22B4B01359B
:1036D000E0520234A2E71C4B204A93F82C10B1F1BF
:1036E0000F004142414183F89010264B69B12649B1
:1036F0000968490109D41268D9689A60521AC82A1F
:1037000044D9012283F8212040E017481268DA608A
:10371000012101701548017099685B68521A9A423C
:1037200003D9184B002283F82120002444452DDAC8
:10373000E0B209F075FF114B23F814000134F5E7EE
:103740007016002040070020901900201A1D00204C
:1037500014000020EC050020E40500206440002057
:10376000D8050020E0050020010000200000002016
:10377000F218002098190020F4180020A807002053
:10378000BE1900201C100020781000209F4B1A78D2
:1037900001321A709E4F3B68DA0405D59D4B1B68B9
:1037A000DB0701D40DF042F89B4B1A68937A2BB3D8
:1037B000013B9A49127B31F813301AB1C3F53B63D0
:1037C00008339BB21BB2A3F57A73B3F57A7FA8BF17
:1037D0004FF47A7323EAE37307EE903AB8EEE77A90
:1037E000DFED8F7A8F4BC7EE277A9FED8F7A67EEEA
:1037F000877AFCEEE77A17EE902A1A803B688B4CAA
:1038000013F4807F00F0E58089498A4B0A688A4E6C
:103810009A4203D9B3780BB90123B370B378002B64
:1038200000F0D780844B94F8008093F82150794BB6
:10383000B5F1010EDEF100051A6855EB0E05002DFD
:10384000C2F380690CBF03220022C8F380089A46A5
:10385000029296F82030052B00F2B680DFE803F0E4
:10386000034E5378859EB8F1000F3AD0734B186819
:10387000734B198809F0FEFE012809D1714B1A68B3
:10388000714BD3F89430DB88642101FB032333614F
:10389000B9F1000F0DD06C4BD3F894301B7943B1C4
:1038A00009F0B4FF032386F820304FF47A73F361F4
:1038B000CFE7002D40F08880624B32691968DFF84D
:1038C00078B1914209D909F0A1FF03228BF8202099
:1038D00040F6B832CBF81C20BBE701228BF8202041
:1038E000B7E74FF48060B9F1000F02D009F07EFF16
:1038F00001E009F0A9FF0023336165E0002D45D107
:1039000009F084FFA5E725B1052386F820300121C1
:1039100000E02946B8F1000F0DD0484B1B68DA894A
:103920003E4B1A805A809A80474AD2F89420528897
:10393000DA8002220292434B1A6873699A4202D8D3
:10394000B8F1000F3DD147F23053F36103231EE07D
:10395000237843F0020323700CF068FF394B1A6898
:10396000F3691344B361042311E0364B1A688DB137
:10397000B3699A4228D9354B1B781BB9DAF8003065
:10398000D80721D4237823F002032370052386F877
:1039900020305EE7F3691344B36115E0294B2A49EF
:1039A0001A68D1F89430DB88642101FB032333616A
:1039B0004FF48060002386F82030F37009F044FF54
:1039C00047E700297FF445AF029A12B1104609F08B
:1039D0006FFE1F4D05F5C370B5F84E1109F04AFE94
:1039E0008146B8BB02F038FE95F8E031012B09D9C9
:1039F0002378590706D5134B134A1B68D2F8982031
:103A00009A422ED202F018FE2BE000BFF2180020DE
:103A1000E405002078100020EC050020A807002015
:103A200000007A441C1D002000C07F44791600204D
:103A300070160020404B4C001C100020EC18002099
:103A4000F01800206440002090190020020000209F
:103A5000CC070020AC4B1A68AC4B02F6B832C3F866
:103A6000982023785A0743D53B68DB0640D5A84BFE
:103A70001B78DE063CD4A74BA44E93F80080B8F127
:103A8000000F11D095F8DE31B9F1000F16D173B1E6
:103A90009D4B1A68D6F89C309B1A002B07DA0CF065
:103AA000C5FE86F8A09023E0B9F1000F19D11020CF
:103AB00009F0FEFD012386F8A03019E03BB1924ADF
:103AC00012684FF47A7101FB0323C6F89C3096F814
:103AD000A0306BB105F088F88C4B002283F8A02051
:103AE00006E096F8A0301BB105F07EF886F8A080BD
:103AF000002295F8DCB195F8DD11B5F896E1B5F83E
:103B000098C11346844E905F9B087045C4BF63F014
:103B10007F03DBB202326045B8BF43F04003082A9E
:103B2000F0D17A4E96F8A1209A4205D196F8A220BB
:103B3000F92A04D8013200E0002286F8A220754854
:103B400086F8A1300378714ADFF8DC81824633BB06
:103B5000D8F80000C0070AD582F8A330B9F1000FE9
:103B60001DD12378DA071AD50CF0E0FE17E0237890
:103B70005B0714D5694B1B788BB1694BDB7873B944
:103B800092F8A3300133DBB2032B82F8A33006D9BD
:103B900011B10CF04BFE02E0B9F1000FF9D096F82C
:103BA000A2205A4BDFF88491142A7FD19AF8002082
:103BB0001BF1000B18BF4FF0010B6AB393F8A12063
:103BC0005F2A11D1227802F0040202F0FF0112B143
:103BD0000CF02CFE08E00B200191009309F068FD29
:103BE000009B019983F8A210BBF1000F14D096F846
:103BF000A1307D2B10D1237803F0040303F0FF02E2
:103C000013B10CF013FE07E00B20019209F050FDF8
:103C10003E4B019A83F8A220237803F0040303F0BB
:103C2000FF00002B42D196F8A130384A572B09D11A
:103C30003C4B4FF47A721A803B68180636D503F075
:103C4000D3F833E03968490717D55A2B15D192F8C4
:103C5000A4302BB1012382F8A40082F8A53025E01E
:103C600092F8A63083F0010382F8A6300BB10C2045
:103C700000E00D2009F01CFD18E05D2B00F03685FA
:103C80005B2B00F035855E2B00F05685562B03D15B
:103C9000009307F047F9009B9AF80020002A00F0F3
:103CA000FB846F2B40F0F2840CF040FE3B685B0716
:103CB0004CD596F8A630154A9BB12378580710D5F5
:103CC000154BB3F90610B5F89631994209DDD8F8CD
:103CD000003013F0010304D13221A2F8A81082F8B9
:103CE000A630D8F8003013F4803F084B20D096F867
:103CF000AA202AB993F8A42012B93222A3F8A82046
:103D0000012386F8AA3021E06440002090190020A9
:103D10007907002002000020A8070020D805002015
:103D20001C100020D01C0020781000209C070020D0
:103D300096F8A42052B1227802F0040202F0FF01AA
:103D400022B9012283F8A41083F8A520D9F800A095
:103D500000230AF1790BC8F800300AF17B06994676
:103D60000BF1020303EB090113F809204B7816F855
:103D7000010C9A420CD2314609F008FF40B116F806
:103D8000023C01229A40D8F800301343C8F80030B2
:103D900009F10409B9F1500F06F10406E0D1C14B55
:103DA0001B785BB1C04BDFF82CA31A68DFF82893AF
:103DB00012F0020F984640F054834CE30AF1C9090F
:103DC0000AF1CA06984609F1010303EB080113F84A
:103DD00008204B7816F8010C9A4229D2314609F096
:103DE000D5FE28B396F802E0B04B307996F803B0D0
:103DF0000EF1FF3E0EEB4E0E9E44AD4B4FF00C0C01
:103E000003F1AC0A0CFB00FC0AEB0C025168714593
:103E10000ED000210AF80CB0C2F804E09160012233
:103E200002FA00F093F8DC2022EA000083F8DC00BC
:103E300008F10608B8F1480F06F10606C3D19D4BFC
:103E4000DFF898A21E689C4B1B6802939B4B1B7863
:103E500003934FF00009DAF80030002B00F0F282F3
:103E600093F80080B8F1000F00F0EC82DAF804203B
:103E700002998A1A002A0DDB01F5FA72CAF80420A9
:103E80008B4A012192F8DC0001FA09F120EA0101D4
:103E900082F8DC10039A002A00F0D4821AF8041C7D
:103EA0005878834A0431C9B2002840F07D828448A2
:103EB00030F91110B5F8940100F1C80E714502DD1A
:103EC00093F802B016E0C838814203DA9B78C3F158
:103ED000000B0FE07649012391F8DC2003FA09F387
:103EE00022EA0303029A81F8DC3002F5FA73CAF879
:103EF0000430A7E292F8DC3043FA09F3D90700F165
:103F0000A182BBF1000FCCBF0220012009F056FCBA
:103F100008F1FF33132B00F28C82DFE813F014005A
:103F2000250036004A0063006A00EB004E01B5012F
:103F3000E30113028A024A0059006A00EB004E01B5
:103F40009F002001850196F80080D844B8F1FA0F4F
:103F5000A8BF4FF0FA0828EAE878304686F80080D3
:103F600002F0DAF8012022E096F80180D844B8F196
:103F7000640FA8BF4FF0640828EAE878304686F856
:103F8000018002F0C9F8022011E096F803804D4B41
:103F9000D844B8F1640FA8BF4FF0640828EAE87865
:103FA00086F803803046196802F070F80320414615
:103FB000C5E1717959446429A8BF642121EAE171FE
:103FC00071710D200AF0A4F9B8F10D0F00F03182E3
:103FD000317959446429A8BF642121EAE171317122
:103FE0000E20ACE1B179594481F30801B17105208B
:103FF000A5E1354B1B681A78022A20D107EE90BA4A
:10400000B8EEE70ADFED317A93ED097A80EE270A00
:1040100030EE070AB5EEC00AF1EE10FA07D4B4EE9E
:10402000670AF1EE10FAC8BFB0EE670A01E09FED33
:10403000280A83ED090A0F200AF07EF90AE0997830
:104040005944C829A8BFC82121EAE17199700F20FD
:104050000AF05EF9B8F10F0F00F0EB811A4B1B6804
:104060001A78022A3CD107EE90BAB8EEE70ADFEDE3
:10407000177A93ED087A80EE270A30EE070AB5EE3C
:10408000C00AF1EE10FA07D4B4EE670AF1EE10FAA6
:10409000C8BFB0EE670A01E09FED0D0A83ED080A84
:1040A000122074E17816002078100020F8640108CE
:1040B00090190020300F002064400020D805002017
:1040C000A8070020A41C0020A81C00200000C84253
:1040D000000000007C07002098070020401A002004
:1040E00059785944C829A8BFC82121EAE1715970FB
:1040F000122024E1B44B1B681A78022A20D107EE63
:1041000090BAB8EEE70ADFEDB17A93ED0C7A80EE63
:10411000270A30EE070AB5EEC00AF1EE10FA07D40E
:10412000B4EE670AF1EE10FAC8BFB0EE670A01E01C
:104130009FEDA70A83ED0C0A10200AF0FDF80AE0B3
:10414000197B5944C829A8BFC82121EAE171197314
:1041500010200AF0DDF8B8F1100F00F06A819A4BD8
:104160001B681A78022A1ED107EE90BAB8EEE70A49
:10417000DFED967A93ED0B7A80EE270A30EE070A90
:10418000B5EEC00AF1EE10FA07D4B4EE670AF1EE0C
:1041900010FAC8BFB0EE670A01E09FED8D0A83ED0B
:1041A0000B0A1320F3E0D97A5944C829A8BFC821C3
:1041B00021EAE171D9721320C1E0834B1B681A78A0
:1041C000022A22D107EE90BAB8EEE70ADFED817A33
:1041D00080EE270AD3ED0F7A30EE270AB5EEC00A3B
:1041E000F1EE10FA09D4DFED797AB4EE670AF1EE58
:1041F00010FAC8BFB0EE670A01E09FED750A83EDC3
:104200000F0A11200AF098F80AE0997D5944C8294C
:10421000A8BFC82121EAE171997511200AF078F848
:10422000B8F1110F00F00581674B1B681A78022A5C
:1042300020D107EE90BAB8EEE70ADFED667A80EE9D
:10424000270AD3ED0E7A30EE270AB5EEC00AF1EE5A
:1042500010FA09D4DFED5D7AB4EE670AF1EE10FAD8
:10426000C8BFB0EE670A01E09FED590A83ED0E0A60
:1042700014208CE0597D5944C829A8BFC82121EADF
:10428000E171597514205AE04F4B1B681A78022AC5
:104290001ED107EE90BAB8EEE70ADFED4C7A93ED47
:1042A0000A7A80EE270A30EE070AB5EEC00AF1EE70
:1042B00010FA07D4B4EE670AF1EE10FAC8BFB0EEF8
:1042C000670A01E09FED420A83ED0A0A09205EE0D9
:1042D000D9785944C829A8BFC82121EAE171D97009
:1042E00009202CE0384B1B681A78022A1ED107EEF1
:1042F00090BAB8EEE70ADFED357A93ED0D7A80EEED
:10430000270A30EE070AB5EEC00AF1EE10FA07D41C
:10431000B4EE670AF1EE10FAC8BFB0EE670A01E02A
:104320009FED2B0A83ED0D0A0A2030E0597B59449A
:10433000C829A8BFC82121EAE17159730A2009F0F0
:10434000E7FF76E0204B1B681A78022A22D107EE9D
:1043500090BAB8EEE70ADFED1F7A80EE270AD3EDB8
:10436000107A30EE270AB5EEC00AF1EE10FA09D441
:10437000DFED167AB4EE670AF1EE10FAC8BFB0EEC0
:10438000670A01E09FED120A83ED100A0B2009F085
:10439000D3FF4EE0D97D5944C829A8BFC82121EADE
:1043A000E171D9750B20CAE7012842D198780A4BF0
:1043B00033F91110B1F5617F10DB40F633039942F8
:1043C000B8BF0B460CE000BFA81C00200000C8428C
:1043D0000000000000007A44A80700204FF4617339
:1043E000B8F10C0F25D14FF4966191FBF0F1A3F5D4
:1043F000617393FBF1F392F8DD105FFA83FB59458B
:1044000017D0BBF1030F94BF5946022182F8DD108B
:10441000B84A08FB015101F2EE61116001F096FE0D
:104420004046594609F074FF0BF10100C0B209F093
:10443000C5F9B14B012293F8DC1002FA09F20A43E4
:1044400083F8DC2009F10109B9F1040F0AF10C0A23
:104450007FF401ADA6E43B68DA0511D5A74BDB7804
:1044600073B1DAF800309B070AD5B9F8003013F0C1
:1044700001060AD102F0F0F8012009F0B7F904E0D2
:10448000012009F0E1F9012300E00023D8F8002021
:1044900056070DD563B1012009F0D6F9B9F80030FF
:1044A000980708D402F0D8F8022009F09FF902E03A
:1044B000022009F0C9F9B9F80060914B16F0030F1A
:1044C0004FF4004214BF5A831A83DAF80030990679
:1044D00009D4D8F800301A0540F1AA804FF4807052
:1044E00009F084F9A8E0874B1B789B0769D5864BB8
:1044F0001B78042B65D9D8F8003013F4007A06F045
:1045000010060DD0002E4FD1102009F06FF9202099
:1045100009F09AF97D48011D04F028FD02223FE0D0
:10452000B6B236B1102009F08FF9794B012683F825
:1045300000A0D8F8003058052AD5764B1B685A8958
:10454000754BB3F900100029B8BF4942914209DA0E
:10455000B3F90230002BB8BF5B429342ACBF0023DB
:10456000012300E000239BB1B9F8003099061CD468
:10457000202009F03BF96948694B011D1A685B6806
:104580004360026004F0F2FC614B01261E700CE0F7
:10459000B9F800309A0608D5202009F055F9002214
:1045A0005B4B01261A7000E00026DFF84C9199F869
:1045B000DE309BB90E2009F07BF8012389F8DE304C
:1045C0000CE016F0300F84D0102009F03DF92020C7
:1045D00009F03AF94E4B00221A7002E0002E3FF427
:1045E00078AF002213464F484F4E002119524F48D2
:1045F00019524F4806EB020E19520020CEF8000067
:10460000CEF80410CEF8080006F1280E5036964475
:1046100016440233042BCEF80000CEF80410CEF876
:10462000080030607160B06002F11402DBD150E725
:104630004FF4807009F008F96B79082B01D00E2B2C
:1046400002D1402009F000F93B685B0540F1A080F1
:1046500095F814321BB9237813F0040F03E0D8F84F
:10466000003013F4002F0CD0234B002283F8582184
:104670003C2006F035F9002800F08A8004F06EFB3B
:10468000F6E70CF007FB0CF07BF881E0BBF1000FC4
:1046900002D07E2B3FF408AB972B05D1254B4FF46E
:1046A000C8721A80FFF702BBA72B06D1154B1A78E8
:1046B00042F004021A70FFF7F9BA0022BB2B0592F0
:1046C00001D1022303E0B72B04D14FF6FE73ADF8FE
:1046D000163041E0BE2B01D1022304E0BD2B7FF454
:1046E000E5AA4FF6FE73ADF8143035E0012024E062
:1046F000022022E0300F0020901900201C10002022
:10470000000C02407907002078070020B01C002030
:10471000C41C0020240F0020EC0E0020BC1C002034
:10472000B415002074160020701A0020280F0020F5
:104730002C0F00209C1B002003205FFA80FA0AF156
:10474000FF3385F8EC3604F0C7FC07F06DFB5046EC
:1047500009F034F8FFF7AABAD9F80030BDF8141000
:10476000B3F858200A44A3F85820BDF81610B3F83F
:104770005A200A44A3F85A2004F0AEFC07F054FB78
:10478000012009F01BF8002386F8A230FFF78EBA4B
:1047900007B0BDE8F08F00BFC44B2DE9F04FB3F96F
:1047A0000600C34BD3F800E02DED028BBEF80A30B3
:1047B000984291B00FDBB0F5FA6F9EF8077007DAF8
:1047C000C21A5743A3F5FA6397FBF3F7643703E084
:1047D000C7F1640700E06427B64BB3F89421049254
:1047E000B54A93F95E31D2F800C09BB2002105931F
:1047F00064460A46AD4B049DCB5E03935B1B03F2FC
:10480000F31640F2E635AE4203D8002BB8BF5B4248
:1048100001E04FF4FA73022A4FF06406A74DDFF867
:10482000A4922DD09CF81181B8F1000F04D043451B
:10483000CCBFC8EB0303002393FBF6F86FF0630BC8
:1048400035F818A00BFB083B08F1010835F9188072
:104850000FFA8AF5C5EB080505FB0BF595FBF6F598
:10486000554429F801500EEB02052D796B43944D08
:1048700093FBF5F364339BB27B4393FBF6F62FE097
:104880009CF81281B8F1000F04D04345CCBFC8EBAF
:104890000303002393FBF6F66FF0630A05EB46086B
:1048A0000AFB063B05EB4606B8F90E80B6F9105038
:1048B000059EC8EB050505FB0BFB9BFBFAFBC8EB54
:1048C0000B0808FB06F8A9F804809EF8065083EA56
:1048D000E376A6EBE3766E43794D96FBF5F6643608
:1048E0000CEB0208754B98F8019003F11C054FF092
:1048F000640806FB09F999FBF8F902F8059094F8A9
:104900000B9003F11F0506FB09F999FBF8F902F872
:10491000059094F8159003F1220506FB09F6022A8A
:1049200096FBF8F656551D4616BF253383F82780AB
:10493000D754049E039BB342624E02DA735A5B4221
:1049400073520231062902F1010204F101047FF4DD
:1049500051AF584CB4F89631984205DBB0F5FA6F78
:10496000A8BF4FF4FA6000E01846C01A4FF47A72FC
:104970005043C3F5FA63B0FBF3F34FF0640E93FBBF
:10498000FEF205EB42016FF0630000FB023305EB22
:104990004202098DB2F92A004A4F0AB2821A5343E1
:1049A00093FBFEFE484B1B887144F18059063AD5B3
:1049B000464BDFED477AB3F904200A2392FBF3F369
:1049C0003E4AB2F840209B1A1BB208EE903AF8EE2D
:1049D000E88A68EEA78AB0EE680A02F0ABF8B0EE9B
:1049E000408AB0EE680A02F045F8B7F90220B7F93C
:1049F000003006EE902A07EE903AF8EEE66AF8EEFE
:104A0000E77A20EE667AA7EE887A67EE807ABDEEC6
:104A1000C77AE6EE887A17EE103AFDEEE77A3B8029
:104A200017EE903A7B802B4B244F1B88DFED2A0A30
:104A3000B5F8428000EE103A0121B8EE400A07F1C5
:104A4000440001F01BFEBCEEC00A244B10EE101A0D
:104A500089B2B8FBF1F101F1010C1B781FFA8CFC53
:104A6000A5F84CC0002B3BD0B7F84EA00023134A4A
:104A7000F75A02F1500E02F1580033F80E8033F865
:104A800000901F5218FB0AF80FFA8CFBC9EB0709BC
:104A900098FBFBF8C84423F80E800233082BE6D1BC
:104AA0000E4BA2F84E10002018701EE0A807002040
:104AB000300F0020CC0700209C070020F01A0020B7
:104AC0000CFEFFFFEC0E0020980700201C0F0020BA
:104AD00035FA8E3CA00700206F12833A4907002068
:104AE000B7F84E30013BA7F84E30B5F84E10BB4A30
:104AF0000BB2002B4FF000030FDDB2F94C70B84A37
:104B0000985A083210FB01F09A5A90FBF7F0121AEB
:104B1000F2520233082BF2D101E0A2F84E30B14B31
:104B20001A6812F0020F9A4674D0AF4B2A6E1B68B7
:104B3000AA4F9A1A45F207218A426BDD3B6609F0BB
:104B400034FFAA4BDFF8D8821A78032A9946B8F8BE
:104B5000003022D10A2B2CD90023282089F80030DC
:104B600001F04DFB09F021FFB7F8640004F000F8F4
:104B70009F4BA0491B68DA7890FBF2F0421C082A90
:104B800028BF08220A7059791B7992B251435A43BF
:104B9000A7F86610A7F868200BE00A2B09D80323B2
:104BA000944A89F8003000231370A7F86630A7F8FC
:104BB000683099F800208D4B012A0DD002D3022ACB
:104BC0001ED027E0B5F86620B8F800309A4221DD03
:104BD000012389F8003011E0B8F80020B5F868101A
:104BE000914202DD02221A7011E07C49B1F8661090
:104BF00001318A4202DD00221A700BE0082007E032
:104C0000B5F86830B8F8002001339A42E0DC07209C
:104C100008F04EFDDAF800703A056FD5724BE96E78
:104C20001A686E4BC1EB020A45F207218A4565DD21
:104C3000DA666F4AB6F90690D2F80080B4F84E11E1
:104C400098F80A206C4E012AA9F57A7903D03ED350
:104C5000022A1BD03DE0196F082291FBF2F0091ADD
:104C600091FBF2F20020A3F8740092B21967B8F831
:104C7000080040F6E4435343C0EB13334FF47A7219
:104C80005343B8F9062093FBF2F321E05B4BB8F8ED
:104C900008B01B78C6F800B05B071AD5584808F072
:104CA000E9FC20B917F0100F18BF4FF0000909FBFD
:104CB00009F2322392FBF3F39944B8F906304FF42A
:104CC0007A7203FB09F393FBF2F35B4400E00023E9
:104CD000336033684B4AD5E91E0103FB0AFA4FF4EF
:104CE0007A739AFBF3FA10EB0A0041EBEA710023A6
:104CF000C5E91E010DF0CEFB434B1860434B1A680B
:104D000012F4805F984626D03E0621D5404B1B7892
:104D100098071DD53F4B1978042919D900233E4E19
:104D200005229A551E44981C0A27122BC2B277708E
:104D300004D0B1EB520F0346F1D800E014222A440C
:104D4000322382F87F30FF2382F880300F2000E08A
:104D50000A2008F0ADFCD5F89870204E002F6BD0DB
:104D60002E4BD6F89C2019688A429A4664D896F849
:104D7000A030B6F8A2907A68ABB9012386F8A030CB
:104D800012F80920CAB186F8A43003F007FFB9F180
:104D9000000F12D13B78053B012B0ED801F009FA28
:104DA000C6F8A80009E0002386F8A03012F8092010
:104DB0001AB186F8A43003F0F1FEB5F8A2107A68B3
:104DC000064B525CFE2A03D10022A3F8A22033E056
:104DD000FF2A27D103F008FF2EE000BFF01A0020C1
:104DE000401B0020E405002070160020F81500206C
:104DF000981500200C000020A41500207916002032
:104E000052090020407E0500A815002078100020DF
:104E10007907002078070020701B002064400020E4
:104E20009C150020DAF800000A2616FB0202013168
:104E3000C3F89C20A3F8A2108D4E3378590704D5EF
:104E40008C4B4FF480425A8334E0D8F80020D207CC
:104E50005CBF43F001033370874B1B781F0703D4FB
:104E6000337823F001033370B5F8AC301BB1834BBA
:104E70001B68980705D4824B1B88003318BF012399
:104E800000E001233BB1022385F8A430337823F0FE
:104E90000103337005E03278D10758BF022385F84B
:104EA000A43001F086F9D5F8B030C01A002801DB33
:104EB00003F074FE0BF0EEFE724B1A789946002A4E
:104EC00075D0D5F8B430002B00F0BF86D5F8B4000B
:104ED0006D4C01F029FA002800F0B786D4F8B40030
:104EE00001F01DFA092801D03F2852D14FF00008E7
:104EF000D5F8B860654F44462EB1654839683246EA
:104F00000EF028FA10B9B84604B93C46614B103788
:104F10009F42F1D3ECB1D5F8B83022685A48D75C3B
:104F2000D8F80020D15CB94213D15A1C59B92D2BA5
:104F300009D8C0F8B82003440244202783F8BC7085
:104F400082F8BC1005E02B44C5F8B82083F8BC708B
:104F5000E1E7D5F8B8300BB1444510D04E4803F026
:104F6000C7FE444507D854F8100B03F0C1FE0920D2
:104F700003F0B7FEF5E7494803F0BAFE0026D5F87E
:104F8000B8309E42A2D2424B985D03F0AAFE013691
:104F9000F5E7D4F8B830002B40F08386042840F0C1
:104FA0007A8604F1BC0008F009FD00F04EBE3C4FCB
:104FB00097F84A30012B40F04386DFF8EC80394BFC
:104FC0003A68C8F800701A60C346DFF8D8A05246A5
:104FD000106801F0A9F9002800F02586DAF8000031
:104FE00001F09DF9DBF8003093F84810024619B93A
:104FF00024285BD1012238E0012904D14D280CBFBF
:105000000222002231E0022904D13C280CBF0322F5
:1050100000222AE003290CD140284FF0000102D9D8
:1050200083F848106AE058711971D9719871042297
:105030001BE0042907D1997983F8490080EA01022D
:105040009A71052211E0052958D1587919798842B9
:10505000987906D950409871481C18710B441A72FF
:105060004CE090420CBF0622002283F8482045E025
:1050700079160020000C0240790700207C070020F0
:10508000D01C002078160020F01A0020346501089A
:10509000AC1B0020E4660108546901085969010845
:1050A000DC1B002054160020501600203178D64B0F
:1050B000490723D4232ADAF8001014D1012089F8F3
:1050C0000000D248C5F8B410C5F8841102920193CB
:1050D00003F00EFECE4803F00BFE019B197841F061
:1050E00002011970029AD5F888311B78934205D1D4
:1050F000C84BC94A1A60C94BC94ADA60DBF80030AC
:10510000DFF834A393F84820062A7FF45EAF93F8C3
:10511000490002F0F1F8002840F07B85DAF8002021
:1051200092F849304C2B00F0D68467D8372B00F02A
:10513000338521D8292B00F09A8409D8252B00F03B
:105140007184272B00F07584232B40F0A185F2E0B9
:105150002D2B00F09D8407D82B2B40F0998503F070
:10516000A2FD607100F052BD332B00F00385352B9A
:1051700000F0AF8200F08CBD412B00F000850AD812
:105180003C2B00F036813E2B00F02981392B40F07A
:105190007F8500F05BBC442B00F0358526D8432B7F
:1051A00040F0768503F07FFD0023A360607103F07B
:1051B0008FFDA3681843A06003F075FD84F88E018D
:1051C00003F07CFDA4F8580103F078FDA4F85A011F
:1051D00003F074FDA4F85C0103F070FDA4F87E01F7
:1051E00003F06CFDA4F8800100F010BD482B00F026
:1051F000AD834A2B00F00A8500F04ABDD02B00F0A9
:10520000838356D8CA2B00F0268109D8C82B00F01A
:10521000888000F29E834E2B00F06A8400F038BD37
:10522000CD2B00F07C8304D8CC2B00F08F8200F0D3
:105230002FBDCE2B00F07C83CF2B40F0298503F0CF
:105240003DFD6FF4AF6E00EB0E039BB2C62B98BF13
:10525000A4F8940103F032FDA4F8400103F02EFD00
:10526000A4F8420103F02AFDA4F8440103F026FD4E
:10527000A4F8D60103F017FD84F8EB0103F013FD49
:1052800003F011FD84F8EC0103F00DFD84F88301B7
:1052900003F009FD84F8900103F005FD614BD3F89C
:1052A00000A003F00BFD00EB80004000AAF85600C0
:1052B000CCE3D62B00F09A820AD8D22B1BD0C0F0B8
:1052C0007083D32B27D0D42B00F09C8200F0E0BC5D
:1052D000EF2B74D007D8D82B08BF4FF0000B00F08D
:1052E0005D8100F0D5BCF22B00F0E382FA2B00F0D8
:1052F000298300F0CDBC33785B0700F1878403F08D
:10530000D2FC022884F8EC0640F20483464B0022CB
:1053100083F8EC26FEE203F0D1FCA5F88C0100F046
:1053200075BC92F805A04FEA5A0ABAF1120F1FD8BD
:105330004FF0000B20E003F0B6FC132818D8DFF87C
:10534000E4B0DBF8003000F11E0203EB820202F150
:10535000010A029203F0A7FC344B029A03F5A871EC
:1053600093F808E0864500F095810C338B42F7D125
:1053700005F0B2FA00F04ABCD34507D203F09EFC18
:1053800007AB23F81B000BF1010BF5E70023534596
:10539000274A06DA07A931F8131022F8131001334F
:1053A000F5E70AF1FF3A02EB4A032232934203D0B7
:1053B000002123F8021FF9E701221E4BC0E2DFF8AB
:1053C00064A0DAF800B003F079FCABF85A00DAF820
:1053D00000A003F073FCAAF8580000F017BC03F01B
:1053E00062FC84F8DE0103F05EFC84F8DD0100F06D
:1053F0000DBCDFF830A0DAF800B003F054FCE8B1DF
:105400000228A8BF02201AE0791600208969010845
:1054100059690108FCFF0120EFBEADDE00ED00E0A0
:105420000400FA059C070020CC070020E466010870
:105430007E1C0020250700205016002001208BF83C
:105440000000DAF800301B78022BB74B14BFB74AC4
:10545000B74A1A60DAE3B74B1A681278022A834611
:105460009A467DD1DAF80030019303F01CFC07EE78
:10547000100AF8EE477AB2EE048AC7EE887A019BEA
:1054800003EB8B03C3ED087ADAF80030019303F0E5
:105490000AFC07EE900AB8EE677ADFEDA77A019B67
:1054A000C7EE277A03EB8B03C3ED0B7ADAF80030F3
:1054B000019303F0F8FB07EE900AB8EE677ADFED90
:1054C0009F7A019BC7EE277A03EB8B030BF1010B4D
:1054D000BBF1030FC3ED0E7AC4D1DAF800300193AB
:1054E000BBF1070F21D103F0DEFB07EE100AF8EE47
:1054F000477A019BC7EE887AC3ED117ADAF800305B
:10550000019303F0D0FB07EE100AF8EE477A019BF7
:10551000C7EE887AC3ED127ADAF80030019303F00F
:10552000C2FB019B83F84C0014E003F0BCFB019B21
:105530005B445870DAF80030019303F0B4FB019B30
:105540005B44D872DAF80030019303F0ACFB019BA6
:105550005B4458750BF1010BBBF10A0FBDD155E34C
:10556000DAF80030019303F09EFB019B5B44587016
:10557000DAF80030019303F096FB019B5B44D8728C
:10558000DAF80030019303F08EFB019B5B440BF1D2
:10559000010BBBF10A0F5875E2D137E3DFF894A194
:1055A0009FED668ADAF80030019303F087FB07EE7F
:1055B000100AF8EE477A019BC7EE887A03EB8B035B
:1055C000C3ED087ADAF80030019303F077FB07EEB9
:1055D000100AF8EE477A019BC7EE887A03EB8B033B
:1055E000C3ED0B7ADAF80030019303F067FB07EEA6
:1055F000100AF8EE477A019BC7EE887A03EB8B031B
:105600000BF1010BBBF1030FC3ED0E7AC6D1DAF833
:1056100000300193BBF1070F21D103F04FFB07EEE0
:10562000100AF8EE477A019BC7EE887AC3ED117A2B
:10563000DAF80030019303F041FB07EE100AF8EEB0
:10564000477A019BC7EE887AC3ED127ADAF8003008
:10565000019303F033FB019B83F84C0014E003F04B
:105660002DFB019B5B445870DAF80030019303F086
:1056700025FB019B5B44D872DAF80030019303F0FC
:105680001DFB019B5B4458750BF1010BBBF10A0F2D
:10569000BDD1BBE21B78537003F005FB8AF8010013
:1056A00003F001FB8AF8020003F0FDFA8AF8030018
:1056B000234BDBF80000C3F8B801224AC3F8B42139
:1056C0007930002100F064FD1F4B80F0010018705C
:1056D0009CE203F0E8FA0B283FF64AAE154B4FF078
:1056E000060B0BFB00F01B68C83003EB000B03F04C
:1056F000DAFA03283FF63CAE8BF8060003F0D3FA43
:105700008BF8010003F0CFFA8BF8020003F0CBFA1C
:105710008BF8030003F0C7FA8BF8040003F0C3FA18
:105720008BF8050072E200BF0800002009F60008AF
:10573000DDB900089C0700200000C84200007A4440
:10574000F01A00200C090020020000205379092BD8
:105750007FF60EAEDFF8F0A3DAF800B003F0A3FA9C
:105760008BF80000DAF800B003F09DFA8BF8010026
:1057700003F099FADAF800306428A8BF64201871A1
:1057800003F091FADAF800306428A8BF6420587159
:1057900003F089FADAF80030FF28A8BFFF209871DB
:1057A00003F081FADAF800B0642828BF64208BF88F
:1057B000070003F078FA8BF80200DAF800B003F083
:1057C00072FA8BF80300DAF800B003F077FAD8F831
:1057D0000030ABF80A005B790A2B40F21782DAF846
:1057E00000A003F060FA8AF808000FE2834603F095
:1057F00065FACF4B23F80B000BF1020BBBF1100F36
:10580000F5D103E253790F2B7FF4B2AD03F04BFADD
:10581000072882463FF6ACADDFF830B3DBF8003046
:10582000019303F04BFA0E22019B02FB0AFA534448
:10583000A3F81901DBF80030019303F03FFA019B54
:105840005344A3F81B01DBF80030019303F036FA50
:10585000019B5344A3F81D01DBF80030019303F0D2
:1058600022FA019B534483F81F01DBF800300193B7
:1058700003F019FA019B534483F82001DBF8003050
:10588000019303F010FA019B534483F82101DBF8E4
:105890000030019303F007FA019BDBF800B053449A
:1058A00083F8220103F014FA0BEB0A03C3F8230177
:1058B000ACE103F0F8F90F2882463FF659ADCAEB88
:1058C000CA0A03F0F0F904EB0A0303F1D00A83F8E3
:1058D000D00003F0E8F98AF8010003F0E4F98AF84F
:1058E000020003F0E0F98AF8030003F0DCF98AF81B
:1058F000040003F0D8F98AF8050003F0D4F98AF817
:10590000060000F0F2FD81E13378580700F17E8156
:1059100007F056FA03F0E0FB06F086FA76E13378FA
:10592000590700F173814FF4C873A5F8AC306DE1ED
:1059300033785A0700F16A817E4B1A7842F00402EC
:105940001A7063E133785B07E4D5A1E10AF058FCF3
:105950005CE103F0A8F9774B1A7810B142F002022B
:1059600001E022F002021A7003F09DF9724BDFF899
:10597000E0A1187003F0ACF9CAF8000003F0A8F930
:10598000CAF8040003F09AF96C4B188003F096F9FA
:105990006B4B188095F8BC3143F0020385F8BC319D
:1059A00034E103F080F9029003F092F9019003F0E2
:1059B0008FF9834603F08CF9824603F07FF903F0F8
:1059C0007DF903F070F9029A019B9AB91020C5F88D
:1059D000C031C5F8C4B107F037FF564B1A7842F012
:1059E00001021A70BAF1000F00F01081554BC3F894
:1059F000C8A10BE1102A40F00981C5F8CC31C5F8E7
:105A0000D0B1BAF1000F02D04E4BC3F8C8A14D4936
:105A1000022381F8D43101F5E67001F5E87103F055
:105A2000A5FAF3E0A06003F053F9A3681843A0605F
:105A3000ECE003F043F9A4F8580103F03FF9A4F8AF
:105A40005A0103F03BF9A4F85C01DFE003F02BF905
:105A500084F8780103F027F984F87C0103F023F936
:105A600084F87B0103F01FF984F87D01CEE003F098
:105A700025F9A4F87E0103F021F9A4F8800103F0D0
:105A800012F984F8820103F019F9A4F88401BDE049
:105A900003F009F984F88E0103F010F9A4F89801D5
:105AA00003F00CF9A4F8940103F008F9A4F89601A6
:105AB00003F0F9F8DAF8003084F88F015B79082BED
:105AC00040F2A48003F0FAF8A4F89A0103F0F6F883
:105AD000A4F89C019AE003F0E6F884F8D40103F0FE
