:020000040800F2
:10000000D4050020890100086D2801081529010880
:100010006B28010869280108672801080000000012
:10002000000000000000000000000000652801083A
:10003000632801080000000061280108ED2801087C
:10004000E5010008E5010008E5010008E5010008F8
:10005000E5010008E5010008E5010008E5010008E8
:10006000E5010008E5010008E5010008E5010008D8
:10007000E5010008E501000801270108E501000885
:10008000E5010008E5010008E5010008E5010008B8
:10009000E5010008E5010008E5010008E5010008A8
:1000A0000126010831260108E50100084126010862
:1000B00021260108E5010008112601085B28010836
:1000C000492801085528010843280108E5010008CE
:1000D000E501000899270108E5010008F526010857
:1000E000FD280108E501000831290108E5010008A3
:1000F000E5010008E5010008E5010008E501000848
:10010000E50100086F280108E5010008E501000885
:10011000E5010008E5010008E5010008E501000827
:10012000E5010008E5010008E5010008E501000817
:10013000E5010008E5010008E5010008E501000807
:10014000E5010008E5010008E501000815210108A6
:10015000E50100085D260108A527010851260108D0
:100160004F2801083D280108E5010008E5010008C5
:10017000E5010008E5010008E5010008E5010008C7
:10018000E5010008E5010008002100F004B80F4B6C
:100190005B58435004310E480E4B42189A42FFF40C
:1001A000F6AF0D4A00F003B8002342F8043B0B4BB6
:1001B0009A42FFF4F9AF0A48016841F47001016006
:1001C00012F0F6F900F010F87047000058820108AC
:1001D00000000020D4010020D8050020B8400020F5
:1001E00088ED00E0FFF7FEBF2DE9804893B001F0F5
:1001F00055FFC74CC74E23783268254633B1636834
:10020000D31A002B02DB002323702372E16842F231
:1002100001030B400BB9BE4803740B0740F19481F6
:1002200063691B7A062B00F27F81DFE813F0070079
:1002300007003600F700390167016701237EB448E3
:10024000002B00F0728100230376C36990F819C077
:1002500090F8209093F80080022305EB030E03F141
:10026000010B9EF82100AA4F40FA0CF000F00F009D
:1002700040450ED20B280CD89EF821A007EB0B0EA0
:1002800007EB80009EF821E00AEA09070EEB07273A
:1002900047630233102BE0D137E194F864009C4BA4
:1002A000002800F0B98093F8B270002083F8640051
:1002B00093F8B10007F0070E40EA0E20986693F815
:1002C000B30000F03F0E4FEA4E1E4EEAD707DF663E
:1002D00093F8B470BF0047EA901793F8B50000F0A8
:1002E000010E47EA8E271F6793F8B67007F00F0ECE
:1002F0004FEACE1E4EEA5000586793F8B70000F060
:100300007F0E4FEA0E1E4EEA17179F6793F8B870DC
:100310007F0047EAD01093F8B97007F0030E40EA67
:100320004E20D86793F8BA0000F01F0E4FEA8E1ED9
:100330004EEA9707C3F8807093F8BB70FF0047EA56
:10034000501093F8BD70C3F8840093F8BC0007F018
:10035000070E40EA0E20C3F8880093F8BE0000F0B4
:100360003F0E4FEA4E1E4EEAD707C3F88C7093F843
:10037000BF70BF0047EA901793F8C00000F0010E6D
:1003800047EA8E27C3F8907093F8C17007F00F0EFC
:100390004FEACE1E4EEA5000C3F8940093F8C20014
:1003A00000F07F0E4FEA0E1E4EEA1717C3F8987042
:1003B00093F8C3707F0047EAD01093F8C47007F039
:1003C000030E40EA4E20C3F89C0093F8C50000F0ED
:1003D0001F0E4FEA8E1E4EEA9707C3F8A07093F8DF
:1003E000C670FF0047EA5010C3F8A40093F8C70096
:1003F000C7074CBF40F21477AD27C3F8A870870732
:100400004CBF40F21473AD2310F0080FC4F8AC30A9
:100410000CBF0123032388E0034686E094F8C970EB
:100420003B480023D7B390F8CA70B0F8CC8080F86E
:10043000C9304FF0020C4FF0030E1CFB07E981445A
:100440000CFB070C99F8CE909CF8D2C04CEA092C12
:10045000E0456AD190F8CF00012803D0812864D10B
:10046000734600E00346102F84BF102084F8CA00B2
:1004700094F8CAC000204FEA4C0C604555D0DFF814
:10048000A4E00EEB00070EF1260E97F803803F79EB
:1004900047EA082720F80E700230EEE73B4644E0BA
:1004A00094F814011A4B00283ED0002083F8140160
:1004B00093F81501A82837D193F82831A3BB05EB91
:1004C00043009FED157A90F8187190F8190100EB30
:1004D000072007EE900AF8EEE77A1048C7EE877A11
:1004E0009FED0F7A77EEC77AFCEEE77A17EE907AF7
:1004F00040F823700133082BE1D106E094F84C3129
:100500009BB1034B002083F84C0101230DE000BF99
:10051000D805002070160020CDCCCC400407002068
:100520000080BB43A60600200023D8070CD501207D
:100530002074AD48C3F34003037083F001032370BC
:1005400002F5C333A03363604B0414D594F84D31E6
:1005500023B1A64B002083F84D010123A348237447
:100560004BB101230370A04B00271F7002F54333EA
:1005700003F5A0734360CF0713D594F84E7194F838
:100580004F019A4BB8420CD001201872964883F85C
:100590004F714FF0000E80F801E002F5C330A0303B
:1005A000586088040AD50023904800F5A877DF5BDF
:1005B000002F41F020850233182BF5D1237C33B96D
:1005C0008A4BD3F86831D31ADB43DB0F00E00123F9
:1005D0008BB1D4F86C31D21A12F1500F03D4834B83
:1005E00093F870313BB103F029F9012384F871319C
:1005F00084F8703138E1D4F874217C4B0132002A40
:10060000C8BF0022C3F874210A0640F12D81D4F836
:100610007831B3B994F87C31013B042B00F224818A
:10062000DFE813F01600160016000F01EA006F4B0A
:10063000D3F8780109F01CFA0BF068FB08B108F058
:1006400089F9D5F8780109F018FA0028EFD1E1E727
:10065000D4F89C21654D177817B1012F12D003E112
:10066000012B00F20181624B95F87D21D5F87801CC
:100670000C2101FB023292F8212053F8221009F0DC
:10068000F2F967E0D5F8780109F0DDF9002800F00B
:10069000EB8095F87C31022B48D0032B56D0012BF0
:1006A00040F0E280534BD5F894211B689A1AC72A70
:1006B00040F2DA80D5F89011042935D84C4AC5F8B3
:1006C00094310C2000FB0121D5F8785191F82110CC
:1006D000D5F808C00023104650F8237067455FFA2C
:1006E00083FE04D00133082BF6D1002300E07346CB
:1006F0008B4205D0284652F8211009F0B4F9B3E036
:1007000094F87D310C2202FB0300476A013F17F881
:10071000011F19B1284609F0C3F9F8E7D4F8903160
:100720000133C4F890319FE002209BE0304B95F8F4
:100730007D21D5F878010C2101FB023292F82120AD
:1007400053F8221009F08FF903208BE0D5F89C3183
:100750009B780BB9042085E095F898310BB985F8A2
:10076000987194F89831214D012B17D1D5F890311B
:10077000B22B0DD81E4AD5F87801134493F85C10BB
:1007800009F08EF9D5F890310133C5F8903105E0C4
:100790000023C5F89031022385F8983194F89831F8
:1007A000124D022B1AD1D5F890310F2B13D8D5F852
:1007B0009C210F495278D5F8780102EB02120A44C5
:1007C000134493F8101109F06BF9D5F89031013307
:1007D000C5F8903102E0032385F8983194F89831F8
:1007E000022B41D9B6E700BF00000020D805002049
:1007F0000445010898400020D4F88421944B01322C
:10080000C4F88421D4F89C21D2785AB193F87D2180
:100810000132D2B20521B2FBF1F101EB8101521A92
:1008200083F87D218B4B1B68C4F88831002384F842
:10083000A03194F8A13123F0020384F8A131012002
:1008400010E0844BD4F888211968814B8A1A40F64D
:10085000C4118A4208D9D3F8A42122F02002C3F897
:10086000A421052010F094FD08F0B5FED4F8B431B1
:1008700030600BA898479DF82C3043B9764B1A6826
:10088000734BD3F86C31D31A642B00F15586D4F82E
:10089000BC116F4B3268D3F8C4010A44B4F8C011DC
:1008A000C4F86C21002284F87021583001B1022173
:1008B0000EF084FA08F08FFED4F8CC313060C31A01
:1008C000A4F8C831C4F8CC0104F03AF9634B604D88
:1008D0009B78ABB1B5F9D621B5F88A339A420FDCD3
:1008E00095F8F931012B01D0192B02D194F8D823B6
:1008F00032B90E2B04D0082B1CBF0023A4F81839E2
:10090000D4F8C481524D98F81861BEB3B5F8C0311F
:100910009B0733D005F61C1393ED080ADFED507AE0
:10092000B5F81A79B4EEE70AF1EE10FA22D913F00D
:10093000A5F905F51465D5ED007A20EE270A13F028
:1009400053F9B0F5617FA8BF4FF4617006EE900ACD
:10095000DFED447AB8EEE60A80EE270A0CF0C0F824
:1009600007EE106AF8EEC77A27EE800A13F03CF91A
:1009700080B200E000203844A4F81A09D4F8A43169
:10098000334D9F0640F19480B5F8C03103F0300339
:10099000002B00F08D8095F8A131DE0740F18880B2
:1009A000B5F94829DFED307A304E0A2392FBF3F394
:1009B00008EE103AB8EEC88A28EE278AB0EE480A48
:1009C0000CF08EF8F0EE408AB0EE480A0CF0E8F831
:1009D000D5F84C39B5F95609DF78B0EE409AB2EE49
:1009E000048A002F44D0B5F852391FFA83F91BB29C
:1009F000C01A0CF0FFFB7D42A84203DBB842A8BF3F
:100A0000384600E02846B4F850398144B4F9540916
:100A10001FFA83FA1BB21FFA89F9C01AA4F8529977
:100A20000CF0E8FBA84203DBB842B4BF05463D46E4
:100A300055440FFA89F9ADB207EE909AA4F85059CF
:100A40002DB2B8EEE77A07EE905AF8EEE76A19E0B1
:100A5000D8050020984000207016002000000020DB
:100A60008FC2753CEFB6B04435FA8E3C7416002048
:100A700006EE900AB5F95459B8EEE67A06EE905AA9
:100A8000F8EEE66A68EEE67AE7EE097A26EE899AEB
:100A9000C7EE887AA7EE289AFDEEE77A89EE089AE3
:100AA00017EE903ABDEEC99A338019EE103A738072
:100AB000964DB4F85E2305F27A330093944BD4F844
:100AC00058191E68404608F15803B04794F85C690D
:100AD000032E16D9D5F860395A88B2F5FA7F10D2AC
:100AE000B5F91809B5F968190028B8BF4042534252
:100AF0001B1A994203DB13188B42A8BF0B46A4F8BC
:100B00006839B4F81A19B4F86609B4F86459D4F815
:100B10006079B4F968E97F4B0022B24203F1100317
:100B200035D297F901C00FFA85FACCF1000C0EFB13
:100B30000CFC06EE10AA0FFA80FA07EE10CA07EEB8
:100B400090AA0FFA81FCF8EEC76A05EE90CA13ED81
:100B5000027ADFF8C8C1F8EEE77AF8EEE55A67EEF8
:100B6000877A13ED047AE5EE877AB8EEC66A13ED5C
:100B7000037AE6EE077A13ED017AE6EE877AFDEE68
:100B8000E77A17EE908A2CF812800132C5E7624BA3
:100B90001A7802F0040202F0FF03002A00F09280AB
:100BA00094F8470AB4F82C1A06900123B3425B4F1D
:100BB00008B207D237F913108142B8BF014689B293
:100BC0000133F3E7D4F8682AE368B2F802E0D4F816
:100BD00060C9D4F86C5A7045C8BFCEEB010E03F45F
:100BE0008051079103F0100AB4F9D611D4F8700AB5
:100BF0004A4BCCBF1FFA8EFE4FF0000E07EB4609A2
:100C00004B4556D01E88079FCEEB0606B6B223F89A
:100C1000026B27B39CF800704FB9EF89B0F80680DB
:100C2000C8EB070B594502DDB844414512DBEF899B
:100C3000B942CBBF47889788B2F80280B0F80080ED
:100C400036B2BE4203DB4645B4BF3746474623F8BB
:100C5000027CD5E7B942CCBF4688068826E0069FCD
:100C6000B2F802B036B257B1B2F80480464503DBA1
:100C70005E45B4BFB046D84623F8028CC0E7B2F850
:100C80000080464503DB5E45B4BFB046D84623F836
:100C9000028C2E8AB142B3DABAF1000F01D09688E5
:100CA00004E09CF80060002EAAD1168823F8026C9C
:100CB000A6E794F8742A154B013AD2B2182A00F22A
:100CC0005A810AE0B342F4D2144A02F14A0131F8DF
:100CD000131022F813100133F4E701219140104A58
:100CE0000A40002A00F04781B3F8C021D00519D589
:100CF000B3F81429ADF82C20B3F81629B3F8183935
:100D0000ADF82E20ADF8303025E000BFD80500202A
:100D100008000020440F0020791600200410002055
:100D200099209801B3F86429D968ADF82C20B3F85C
:100D30006629ADF82E20C904B3F86829ADF8302033
:100D400009D5B3F9D611D3F86C3ADB899942BCBF07
:100D50005242ADF83020B4F946194FF47A7201F5D9
:100D6000E16151434FF4616391FBF3F1A1F5FA7135
:100D7000ADF84410B4F9441901F5E1614A4392FB1E
:100D8000F3F3A3F5FA73ADF84630B4F82C3AB4F89F
:100D9000D021A3F2DC53ADF83230D4F86C3ADB89C1
:100DA000D21AADF83420B4F8D221D21AADF83620D8
:100DB000B4F8D421D21AADF83820B4F8D621D21A1A
:100DC000ADF83A20B4F8D821D21AADF83C20B4F8E6
:100DD000DA21D21AADF83E20B4F8DC21D21AADF8EF
:100DE0004020B4F8DE21D31AADF842300022B94BCE
:100DF00003F68E20002111520232102AF7D1D3F8C7
:100E0000A00AD3F8A42A93F89E3A06905B000993AF
:100E100007920B46DDF824C0AE48634500F08F8092
:100E200000F6A8256A18967936B10127153607FA13
:100E300006F6069F3E407CD0685C079D92F904B0A0
:100E400092F801A092F803805679C0EBC00E05EB32
:100E50004E0E4FEA4A0CBEF90270BEF900500896D9
:100E60007F1BBFB2642507FB0BFB9BFBF5FB4FEA27
:100E70005709C9EB0B0B1FFA8BFB974D12AEB8F15C
:100E8000000F03D1664436F81C6C0CE0B444EE5EEF
:100E90003CF91CCC664508DAB044B04503DBC445D8
:100EA000B4BF66464646EE520AE009DDC8EB0608C6
:100EB000E04503DBB045B4BFC446B44625F803C0E3
:100EC0004FF0010CDEF80AE0824D92F902200CFA94
:100ED0000AFA1AEA0E0F0CBFE6464FF0FF3E05F67F
:100EE000183C05EB400633F80CC0B6F88E6A12FBCE
:100EF0000CF24FF0640C92FBFCF20FFA8BFB5A459C
:100F00001FFA8EFE0EDBDDF820A04FFA8AF807FBF1
:100F100008FB9BFBFCFBC9EB0B0B0FFA8BFB934510
:100F2000A8BF934605EB40050BFB0E6BA5F88EBAE8
:100F300002E000F618301E52023307316AE700253E
:100F4000D0F8A49A2E460E2202FB0692634F92F925
:100F50000680EB5B18FB03F8642398FBF3F825F895
:100F60000780F0B20BF01CFB01364044082EE8531A
:100F700005F10205E7D1574DEF6817F02009A846A3
:100F800034D000200BF00CFBA5F88E0A0646012099
:100F90000BF006FBD5F8A03AA5F8900A1B0625D55C
:100FA000D5F8383BB5F844291B78012B22D1D5F868
:100FB000A43AB5F946E993F9141093F9063011FBF8
:100FC00002F25B4232210EFB03F392FBF1F26FF06F
:100FD000310E92B293FBFEFE964493FBF1F1764400
:100FE0000A44A5F88E6A1044A5F8900AD5F8A4BA68
:100FF000002319E0D5F8A41AB5F8463991F906E0AE
:1010000091F914101EFB03FE32239EFBF3FE11FB2D
:1010100002F2764492FBF3F3A5F88E6A1844E3E7F4
:10102000D1520233102B10D0C3EBC3062B4A5E44BF
:10103000985EB6F90010B6F9026088429246EFDB7E
:1010400031B28842B8BF0146EAE7224BD3F8603993
:1010500093F90820A2B995F874BA0BF1FF32182A57
:101060007AD8DFE802F0317979557979794C797954
:10107000797979627979797979556D7979623100FF
:101080000026174A3AF90610442000FB0620B3F95F
:10109000062005930BF08CFDC6EBC60180B22AF842
:1010A0000600594400B2B1F90020059BB1F90210C5
:1010B000904203DB0AB29042B8BF02462AF80620EB
:1010C0000236102EDDD1C6E71B795BB10020B5F8E2
:1010D000981A10E0D8050020F010002066100020BB
:1010E00018110020B84B1B7803F0040303F0FF0035
:1010F000002BEBD101460CF033F901262DE0002046
:10110000B5F8941A0CF02CF90120B5F8961A07E0FE
:101110000020B5F8961A0CF023F9B5F8981A0120BA
:101120000CF01EF9022600F0ABBF00260AEB4603C6
:10113000F0B2998801360CF013F9062EF6D10CE0C6
:1011400000260AEB4603F0B2D98801360CF008F904
:10115000042EF6D100F094BF0026B9F1000F02D1A1
:10116000BBF1050F0CD13046B5F88E1A0CF0F8F82B
:10117000701CC0B2B5F8901A0CF0F2F80236F6B254
:10118000F90208D4914FD5F8801F3A68904B511A54
:1011900000290DDAD0E100278E4B03EB4703F0194D
:1011A000C0B219890CF0DCF80D2FEBD00137F3E752
:1011B00002F5FF72C3F8802F93F8843F0BB10DF056
:1011C00029FDB5F8C03133B9814BD3F8C4010121F1
:1011D00058300DF0F3FD804B1878002840F0AC81BA
:1011E000EA687B4B120340F1A78193F8852F023AFE
:1011F000052A1ED893F8082932B1012A09D10CF02A
:1012000037F8C0F17F0004E0D3F8880F03689B68CB
:101210009847D5F88C3F95F8902F1344B3F5807F0D
:10122000A8BF4FF480738342D4BFC5F88C3FC5F884
:101230008C0F95F8853F023B082B00F27781DFE8A1
:1012400013F00900410067007D009600A8003C01F2
:1012500059016601614B1A68D5F8983F64339A4288
:1012600040F26481402010F011FB002840F05E81C4
:1012700040275B4BD8F8942F554E1A44994692F864
:10128000640170B110F044FBD6F88C1F0139C6F828
:101290008C1FD6F8941F013F01F10101C6F8941F7D
:1012A000E7D1D5F8942F4A4B4A4492F86421002A9A
:1012B00040F03C81C3F8942F4FF0FF32C3F8982FD1
:1012C00003221CE024230093464B019303F10C02FC
:1012D00002924920A3F10A025021023306F045F997
:1012E000002840F02381EA68394B12F080024FF069
:1012F000FF3107D0C3F8940FC3F8981F042283F876
:10130000852F13E1C3F8942FC3F8981F0622F6E740
:10131000354A02230021009301910291482002F1F5
:10132000080306F022F9002840F000814FF0FF3357
:10133000C5F8983FC5F8940F0523BBE00723009339
:101340002A4B019303F10C0202924720A3F10802F9
:101350000021043306F009F9002840F0E7804FF03F
:10136000FF33C5F8983FC5F8940F0623A2E0204A42
:1013700005230021009301910291532002F10803FB
:1013800006F0F3F8002840F0D180C5F8940F072349
:1013900090E0402010F07AFA002840F0C780D5F89D
:1013A000943F0C2B7DD8DFE803F0070B2B2F354043
:1013B00044484C505D676B000E4810F001FC6AE039
:1013C0000D480E492EE000BF79160020701600204F
:1013D000D8050020A807002078160020984000209B
:1013E00004450108D24601087848010890480108E0
:1013F000DC480108DC550108F6550108906E01082B
:10140000C148C249C24A44E0C24895F8061995F855
:1014100007293EE095F8E038BF480C2202FB038321
:1014200093F8E21810F0CCFB35E0BC48B5F8341363
:10143000F8E7BB48B5F83613F4E7BA48D5F8B81161
:10144000F0E7B94BB9489988ECE7D5F89C2FB84B31
:10145000D60403D5B74893F86C13E3E70B22C3F81F
:10146000942F18E0B44895F8701395F8712395F807
:101470006F3310F0A5FB0EE0B048B5F8A01FD1E720
:10148000EA68AB4B100506D5AD48B3F87413B3F951
:10149000722310F095FBD5F8943F0133C5F8943FC3
:1014A00044E010F023FA002840D04FF48053A5F810
:1014B000A23F092385F8853F38E0D5F8A03A9C4E35
:1014C000990114D5B6F8A43F8BB9D6F8A83F0B9371
:1014D0000E203B680C930BA906F0FAF84FF48053EA
:1014E000A6F8A23F092386F8853F0EF01FFC0BF0FB
:1014F00045FD1BE095F8AC2F8D4B002AF5D0D3F8B5
:10150000A02A9201F1D4082283F8852FEFE78D4BB2
:101510001A68D5F8983FC8339A4203D90EF0ACFE4A
:101520000123C7E710F0E2F90028F7D109F002F92A
:1015300010B1012385F8853F834B1E78002E7EF481
:1015400058AE7B4DEB685B057EF553AE95F8AD3F2D
:10155000B5F84293DFF8EC81002B00F01C82D8F83C
:101560000030D5F8B02F9A1A7C2A40F21482C5F8C0
:10157000B03F95F8B43F013385F8B43F06F124003D
:101580006B4FC0B208F046FB07F6B67333F916305E
:1015900007EE103A644B9B8807EE903AB8EEC77A94
:1015A000F8EEE77A0136C7EE277A9FED687A67EEA4
:1015B000877AFDEEE77A17EE900A00B208F056FB44
:1015C000032EDBD1302008F025FB002008F04EFB75
:1015D00008F02EFB97F8B46F16F0030623D1D7F866
:1015E000B02F41F288339A420BD9102008F012FB39
:1015F000304608F03BFB212008F00CFB304608F099
:1016000035FB142008F006FBB5F948090A2390FBC6
:10161000F3F008F02BFB1C2008F0FCFA002008F087
:1016200025FB08F005FB95F8B43F414E5F0740F0FD
:101630008C81022008F0EEFAB6F9BC0F0A2390FB69
:10164000F3F008F013FB0320B6F91A7908F0E2FA78
:101650003F4B1B784FF0050A97FBFAF75807BFB2CC
:101660000CD506F27A3049460DF0BEF920B9F36880
:1016700013F0100F18BF002738B205E0D6F8C03FAE
:101680009B89B3FBFAF000B208F0F0FAEB68284E41
:10169000990740F1B680DFF8BC90B6F8C43F99F8DE
:1016A0000020B6F8C6AF642707FB03234FEA0A1AE7
:1016B0005200B3FBF2F31FFA8AFA4AEA032A1FFA2E
:1016C0008AFAC3F303234AEA030A062008F0A2FABF
:1016D0000FFA8AF008F0CAFAB6F8C62F99F8003067
:1016E000013292B292FBF3F103FB1123A6F8C63F3D
:1016F000D6F8C83F9B7B012B2ED1392008F08AFAFF
:10170000B6F9C40F44E000BF0B5601081F5601088C
:101710002B56010834560108455601084F5601085A
:101720005E5601086D560108000000207D56010834
:10173000D80500208756010894560108AD560108C7
:10174000B8560108984000207816002000007A441E
:10175000791600200C000020B6F8C43F6E265E43C8
:10176000152396FBF3F6B6B23A2008F053FAB6FB0F
:10177000F7F90FFA89F008F079FA3B2008F04AFAF5
:1017800007FB196080B205300A2390FBF3F000B22A
:1017900008F06CFA282008F03DFAD5F8CC3FAB4EA3
:1017A0000A2293FBF2F000B208F060FA042008F07D
:1017B00031FAD5F8C03FD6F8D00F9B894FF6FF72AB
:1017C0009042A8BF104620EAE070BBB1181A07EE9D
:1017D000900A9FED9F7AF8EEE77A06EE903A67EE70
:1017E000877AB8EEE67AC7EE877AFDEEE77A17EEEB
:1017F000900A6428A8BF642020EAE07000B208F0D4
:1018000035FAD5F8A431914E9A0640F1938096F8B6
:10181000A1319B071DD5112008F0FCF9B6F8D40FB3
:101820008C4B4FF4F367784390FBF3F000B208F071
:101830001DFA192008F0EEF9B6F8D43F5F4364238F
:1018400097FBF3F797FBF3F203FB127000B208F07B
:101850000DFA95F8A131B5F8D66F13F0020F08BF55
:101860000026012008F0D6F930B208F0FFF909206F
:1018700008F0D0F9002008F0F9F9774B95F8A0614D
:101880001B88B3F5967F0BD9704A92F8B42F02F0FB
:101890000F02072A04D842F20F76B342B8BF1E46A1
:1018A000052008F0B7F9D5F8C83F5B7B0BB930B21B
:1018B0001AE0203E07EE906A9FED687AF8EEE77A2C
:1018C000FEEE006AC7EE877AB6EE007AF5EEC07AD1
:1018D000F1EE10FA48BFB0EE667A77EE877AFDEE49
:1018E000E77A17EE900A00B208F0C0F995F8A12146
:1018F000564B970703D493F8D82F012A04D101231C
:1019000085F8D83F56481CE0D3F8C83FDFED557A3C
:1019100093ED017A27EE277A0BA8BDEEC77A8DEDFD
:101920000B7A93ED027A67EE277AFDEEE77ACDED3A
:101930000C7A06E04C4A92E803000BAB83E8030004
:10194000184608F09EF908F073F995F8B43F282B73
:1019500021D13E4BD8F80060002283F8B42F4FF419
:101960007A73B6FBF3F917203C2608F053F9B9FB5C
:10197000F6F7B7FBF6F006FB1070000200B208F0B5
:1019800075F9182008F046F906FB179000B208F028
:101990006DF908F04DF995F8E43F2C4E002B00F05E
:1019A000648107F018FED6F8E83F304AC31A934224
:1019B000074640F2E480002386F8EE3F86F8F03FC9
:1019C000B6F8C43F2A49D8F80000DAB21B0A0A70F8
:1019D0004B7006F580514B70264B0A7053F8E02C83
:1019E000801A53F8DC2CD27B4FF47A715143884231
:1019F0000ED3214A126843F8E02C13F8D82C013A90
:101A0000012A05D8102286F8EE2F022286F8F02F40
:101A1000D5F8CC0F194A0A2190FBF1F01070001292
:101A20005070D5F8D00F90FBF1F11171091251717E
:101A300095F8A01103F8BD1C95F8A1310D4A9E0739
:101A40001ED42D2302F8BC3C96E000BFD805002030
:101A50000000C842A08601000E0000206666E63F36
:101A6000B41500208096184B044901083F0D03006F
:101A7000E2150020D016002098400020E01500203C
:101A80000429D4F8DC6FCE4DDFF850E3D4F8E00F32
:101A90008CBF3323322302F8BC3C96FBF5F30EFBDC
:101AA000036803EB830390FBF5F503EB8303C54A5F
:101AB0000EFB050E4FF0060C4FEA8309C24B0CFBE0
:101AC00008F8F60F0CFB0EFE98FBF2FA03F8CE6C4A
:101AD0009EFBF2F6642102FB1A8802FB16E292FBDF
:101AE000F1F203F8C62C1212C00F03F8C52CB4F89B
:101AF000D42F03F8C90C2420424398FBF1F892FB41
:101B0000F1F133F8AA2C03F8D01CC1F3072103F834
:101B1000CF1C03F8C42CB4F8D61F03F8CB8C120AE0
:101B200005EB850503F8C32C0A2205EB8505B1FBFF
:101B3000F2F2AD0002F5FA7292B249FA8AF945FA68
:101B400086F51FFA89F9ADB203F8C22C120A03F820
:101B5000CD9C4FEA28284FEA192903F8C85C03F8FE
:101B6000C12C2D0A33F8A82C03F8CC9C03F8CA8C9E
:101B700003F8C75C03F8BB2C944BC3F8E87F924C86
:101B800014F8A66CA0466EB954F8A00C07F075FFC7
:101B9000012807D902288E4D00F0388207F072FF25
:101BA0000123AB7154F89C5C874B002D5DD013F87A
:101BB000A62C3AB153F8942C40F6B731BA1A8A429F
:101BC00016D852E0012203F8A62C53F8902C53F8B3
:101BD000A00C1278022A04D8043002210EF09CFED8
:101BE00002E0022107F02AFF002304F88C3C3AE0CF
:101BF00013F8982CAAB943F89C2C03F8A62C53F898
:101C0000902C53F8A00C1278022A04D80430012139
:101C10000EF082FE02E0012107F010FF07F032FF14
:101C200021E0013AD2B203F8982C13F88C1C13F877
:101C30008B0C42B901304A1C03F88B0C03F88C2C36
:101C400053F8A00C0DE02A46013012F8015B03F8AE
:101C50008B0C294453F8A00C03F88C1C43F89C2CE3
:101C6000294607F01DFF44F8947C574C14F88A3C31
:101C70002546FBB154F8883CE3B154F8843CCBB121
:101C800044F8803C1B68534A44F87C3C54F8783C48
:101C9000134493F8080404F0A5FA54F8803C9879AA
:101CA00007F003FF54F8783C0133092B88BF002369
:101CB00044F8783CDFF8288114F8743CD8F80060C8
:101CC000414A4746002B3EF494AA52F8703C33B187
:101CD00012F86C3C013B012B8CBF00230123D90778
:101CE0007EF587AA55F8700C374C07F0C6FEE0B1B8
:101CF00054F8700C07F0BCFE14F86B3CD7F800A049
:101D00007E2B81460ED102231B2804F86C3C09D19E
:101D100054F8700C07F0B1FE20B9012344F868AC08
:101D200004F8643C05F86B9CDCE7D8F8002054F814
:101D3000683CD31A41F65832934225D9032304F85C
:101D40006C3CFEF756BA13F8631C234A32F81100B4
:101D500018B903F8630C4FF4036015F8632C1A4CA0
:101D60000132D2B2B0F5C06F05F8632C77D039D804
:101D7000B0F5007F69D016D8B0F5807F00F0A5805F
:101D8000B0F5887F00F0A18015F8642C0E4B002A76
:101D90003EF42FAA3A68921B012AD4D9002203F8F4
:101DA000642CFEF726BAB0F5806F00F0A680B0F57F
:101DB000826F00F0E380B0F5047FE5D13DE000BF25
:101DC0008096980040420F00D0160020D8050020D1
:101DD0000000002004450108BC550108806967FF28
:101DE00098400020B0F5006F40D00CD8B0F5E26FFD
:101DF0007AD0B0F5E46F7BD0B0F5E06FC4D1A34BDF
:101E0000B3F9B61F77E0B0F5036F06D0B0F5046FF5
:101E100063D0B0F5026FB7D1D8E09C4BD3F8A421C2
:101E20009206B1D593F8A1219107ADD5B3F8D43F6F
:101E300024215943123164230EE0944BDA6892074F
:101E4000A2D5B3F8C43F0A21CEE0904BDA68110561
:101E50009AD5D3F8CC1F0A2391FBF3F1C5E08B4B45
:101E6000DA68120590D5D3F8D01FBEE0874BD3F8BF
:101E7000A411890688D593F8A1118C0784D5D007C1
:101E800011D5D3F8E03F83EAE371A1EBE37101EBF5
:101E900051011922B1FBF2F1002BACBF41F000411E
:101EA00041F040410EE0D3F8DC3F83EAE371A1EB5F
:101EB000E37101EB51011922B1FBF2F1002BB8BF24
:101EC00041F080414FF4006070E0704BD3F8A431D2
:101ED00059077FF559AF002187E06C4BB3F94819DA
:101EE00001EB8101490080E0684BB3F9B81F02E0C3
:101EF000664BB3F9BA1F2C23AEE714F8623C0133EA
:101F0000DBB2032B88BF012304F8623C15F8623C66
:101F100042F2107159435E4B1B78DA0748BF01311A
:101F20009C0748BF02315807584BB3F8C03148BF2F
:101F30000431DA0748BF0A319C0748BF143118063C
:101F400048BF2831DA0548BF28315C0748BF6431F3
:101F5000180748BFC8319A0548BF01F5C8719C06EB
:101F600048BF01F57A71D80648BF01F5FA615A06F3
:101F700048BF01F57A614FF4806017E0434BD3F816
:101F8000A41111F0200817D093F8A12193F8A031E3
:101F900012F0020F0CBF00214FF47A7112F0010F02
:101FA0000CBF00224FF4FA621144194407F0FEFD01
:101FB000002305F8643CE7E6DB681B067FF5E4AE2A
:101FC000414607F0F3FD04F8648CDDE62F4BD3F8AF
:101FD000A42191067FF5D8AE93F8A12192077FF551
:101FE000D3AEB3F8D63F6421594307F0DFFD002399
:101FF00004F8643CC8E601230372264B00275F7097
:1020000002F5C333A0334360FEF7D8BAAB791BB1F6
:1020100044F8A47CAE71C5E554F8A43CFB1AB3F5B2
:102020007A6FFFF4BFAD012354F8A00CAB7107F039
:102030001FFD054654F8A00C07F01AFD6D067FF44D
:10204000B1AD8A2802D08E280ED0ABE50F4BD3F865
:10205000A43198067FF5A6AD14F8A63C002B7FF4BA
:10206000A1ADA8F1D70305E014F8A63C002B7FF43E
:1020700099AD094B44F89C3C2D2304F8983C91E51C
:10208000B9F1000F3FF47CA8FFF76DB8D805002028
:102090007916002000000020C41500202DE9F04F23
:1020A0002DED068BC84CC94B23609FB000236360A5
:1020B00008F056FB18B90EF073FE08F075FBDFF858
:1020C0006CB3DFF86C83C24DDFF868A3DFF8689368
:1020D00009F064FC9BF8003043F001038BF80030FA
:1020E0000AF0F2FEBB4BC8F80C306B6FA360BA4B22
:1020F000C8F808306B6BB94823F080036B636B6FD3
:1021000043F080736B672B6B43F03F031EAE2B6372
:1021100003238DF83E3041F6FF7326F83C3D3146EF
:1021200009F05CFB4FF6FF73AD48ADF83C3031462B
:1021300009F054FBAB48314609F050FBDFF8FCC214
:10214000CDF80CC06046314609F048FBA648314640
:1021500009F044FB3146A54809F040FB304609F040
:10216000E5FA0F9BA24AB3FBF2F3E360A14BA24A4C
:1021700000271F605F60A14B5A60F02288F823207F
:102180000722DFF8A0829F601A60D8F80830CAF8EA
:10219000003099E80F0086E80F002B6BDDF80CC0CB
:1021A0000F9843F008032B632B6B43F008032B635A
:1021B0004FF48043ACF818304FF40043ACF81830BB
:1021C00010A909F00BFB12A9119809F007FB642074
:1021D00007F087FB39468A48A02211F0F5FA2B6CEC
:1021E00043F013032B646B6C43F001136B64854B5A
:1021F000474603F1C0009A7A93F80BE053F8105B5E
:1022000002F00701D20805EB82028900156A4FF03F
:102210000F0C0EFA01FE0CFA01F125EA0101116220
:10222000156A83424EEA05011162E4D10023DFF80A
:10223000988108F110020021995401330C2BF6D13A
:10224000FF23714A88F81C3088F81D3088F81E304A
:1022500088F81F306D4B13606D4D6E4A042010706E
:1022600028463022049311F0AFFA14222A70022279
:102270002A760522049B85F82420674A97F805B042
:1022800082F800B0A3F5F072A3F59073C8F824307B
:10229000624BDAF80050C8F8202003EBCB035B78E0
:1022A000C8F82830AB0644BF0123C8F82830002303
:1022B0005B4A40F2DC5199520233102BF8D108A846
:1022C00000211C2211F080FABBF10E0F04D00BF09C
:1022D000EF0BBBF1080F02D101238DF8323005203E
:1022E00007F0A0F818B14088003018BF0120C5F3EE
:1022F00040038DF82730C5F380138DF82A30C5F3DD
:1023000040338DF82030C5F3C03300F001008DF864
:10231000233015F400638DF8260007D097F882313A
:10232000B3F1010EDEF1000353EB0E038DF8243000
:10233000C5F300438DF82B30A36AB7F84411ADF80C
:102340003610003318BF01238DF82C30C5F300532D
:102350008DF82D30B7F84631ADF83030B7F852313E
:10236000ADF82E30C5F380438DF8283097F85431FE
:102370001A1C18BF012205F0010BC5F3C0088DF827
:102380002920E804B7F850218DF821B08DF822807B
:10239000ADF8342004D52349B1F84C11ADF836100E
:1023A000B2F5FA7F02D90BB9ADF8363097F8D231D1
:1023B0001D4884F82C300021642211F005FA9DF8A4
:1023C0003230002B3CE000BF7C160020659B0008EB
:1023D000003802400005FA05000000080000024035
:1023E00000040240000802400010024000140240B5
:1023F00040420F009C4000203F90020010E000E0AF
:10240000DC3E002074680108B01C0020BC090020DC
:10241000781D0020751D00204C1000203069010837
:1024200066100020CC070020AC160020A44000203D
:1024300000ED00E0E405002074610108000C02409A
:1024400014BF02230023BBF1000F02D1B8F1000F2B
:1024500000D0013309EB83034FF000091B6905939A
:10246000CB46059A32F809304FF6FF72934200F0DE
:102470009481D8B2A24A9DF827104FEA001C1B0A8B
:1024800002EB0C0541B1DFF8A8E26968714503D1A0
:102490002989012900F07B819DF8231041B1DFF8E3
:1024A00094E26968714503D12989042900F06F819C
:1024B0009DF8241041B1DFF880E26968714503D1CD
:1024C0002989202900F06381022B02D19DF8201078
:1024D00003E0012B04D19DF82110002900F0578161
:1024E0009DF82D1031B19DF8321019B90438032828
:1024F00040F22681012B52D19DF8283023B9BDF836
:102500003430B3F5FA7F07D952F80C307D498B424D
:1025100004BF032384F89430FF234FF00008298977
:1025200084F8DC3084F8DD306B7B686884F8E08008
:10253000C4F8EC50ADF83C108DF83E303146022323
:102540008DF83F3084F89880C4F89C80C4F8A0804F
:10255000C4F8A480C4F8D88084F8DE8084F8DF80D2
:102560000492CDF80CC009F039F9049ADDF80CC0DA
:10257000A97A52F80C00424608F000FF28460CF0F9
:102580000FF9614B6149C4F8F030614BC4F8F43085
:10259000C4F8F88028460A1D07F0AEFDF7E0022BCC
:1025A00045D15C488DF83F305FFA8BF14FF01C0E3F
:1025B0000EFB01F100EB01084FF0000E88F802E07D
:1025C00088F80AE04FF0010E88F801B000F801E049
:1025D000697BB5F808E06868C8F80C508DF83E10C3
:1025E0003146ADF83CE00492CDF80CC009F0F6F8A5
:1025F000DDF80CC0049AA97A52F80C00002208F009
:10260000BDFE28460CF0CCF8434BC8F81030002132
:10261000424BC8F81810C8F81430284608F11001C9
:1026200008F1140207F068FD0BF1010BAFE0032B7A
:1026300040F084809DF828300BB39DF8293094F841
:10264000318053B1BDF83430354AB2FBF3F228463D
:10265000082192B2BDF8363003E0284608214FF633
:10266000FF7207F0DDFD04EB88031922C3F8C001F7
:102670002C4BC36094F8323004EBC30331E0BDF857
:10268000343094F83180B3F5FA7F15D9244AB2FB7F
:10269000F3F292B2BDF836302846082107F0C0FDAB
:1026A00004EB88030D22C3F8C0011F4BC36094F8EC
:1026B000323004EBC30314E01C4AB2FBF3F292B2D3
:1026C000BDF836302846012107F0AAFD04EB880347
:1026D0000922C3F8C001134BC36094F8323004EBF5
:1026E000C30383F8352094F8323094F8312004EB9A
:1026F000C30181F8342001328D6384F8312043E036
:102700007068010800000140EDC300086C1700204C
:10271000F9C400085C17002099B40008D1C400086F
:1027200000127A0009C5000819C5000840420F00D0
:10273000000802400004024000000240042B26D1A1
:1027400094F8323094F83080914A04EBC3030121AD
:1027500083F83480BDF82E3092FBF3F292B2BDF8CC
:102760003030284607F05CFD04EB88030A21C3F8EB
:10277000F00194F8323004EBC30282F8351094F87B
:102780003020013284F83020013384F8323009F1EE
:102790000209B9F1180F7FF464AE94F8302084F880
:1027A00010227C4A7C4B1578A5F117024FF0000CE3
:1027B000022A83F800C09E461CD8236A6344D3EDE6
:1027C000007AF5EE407AF1EE10FA02D1A36A83BBEB
:1027D0002AE0724A0CEB02080FCB88E80F009EF843
:1027E00000300CF1100C0133BCF1C00F8EF800303A
:1027F000E3D1EBE76A4B13F835908EF8009003EBCA
:10280000C503D3F804B0BBF1000FDFD0CC45DDDA4F
:10281000624A4FEA0C1303EB02085B440FCB0CF146
:10282000010C88E80F00F1E7DAF80030D90426D46B
:102830001FE05C4B5C4A03EBC5035C6A93F8200025
:102840001070002CF0D000238342EDDAC3EBC301FB
:102850006218DFF87C81D2F8009041F8089001EB13
:10286000080C9188ACF8041092798CF8062001339A
:10287000EAE705F0EF03082B4C4B20D121E09EF84E
:1028800000100129F5D94A4B00228A4203F11003B6
:10289000EFDA13ED047AF6EE007A27EE277A0132AA
:1028A00003ED047A13ED057A27EE277A03ED057A16
:1028B00013ED037A67EE277A43ED037AE5E70E2DF1
:1028C00008D11A7842F010021A70182D08D109F0B8
:1028D00041FE05E01A7822F010021A70192DF5E772
:1028E0000CF07CF9DAF800305A0302D4314B0122A3
:1028F0001A70314931480B78DFF8D8B043F004033F
:102900000B7011238DF83E3002238DF83F302C4B95
:102910001A6B01252A433146ADF83C501A6308F082
:102920005DFF284B284A1A60002007F00DF80BF0D5
:102930009BFD0EF0D1FD0EF049FD584600211022FE
:10294000DAF8004010F040FF4FF6FF7306930323C0
:102950004FF0000A8DF81C3014F0020304F4004913
:1029600004F400688DF81DA08DF81EA08DF81FA03E
:102970005C4631D01EA9154841F8605D06F022FC86
:102980000723257084F801A0A570E37025E000BF3F
:1029900040420F004C100020340F0020440F002054
:1029A0003069010874610108761000207907002061
:1029B0004C0F00205C150020A440002000000240C5
:1029C0000038024090190020B19100080008024030
:1029D00080100020841B00201D46B9F1000F0FD08D
:1029E0001EA9042341F8603D814806F0EBFB0C234F
:1029F00001222371A2716B1C07226571E271DDB2A5
:102A0000B8F1000F0FD01EA9202341F8603D79488E
:102A100006F0D8FB022301222373A2736B1C07224A
:102A20006573E273DDB2744B74481A6BDFF8CC91B6
:102A300042F480021A631A6B42F004021A635A6C61
:102A400042F480725A6408F0EBFD6D4B10934FF026
:102A50000008022D6B4B119334BF43464FF4806343
:102A600015934FF4006316934FF4005317934FF4EC
:102A70008073189331464FF40033484613951993E9
:102A8000CDF83C80CDF84880CDF85080CDF86880F6
:102A9000CDF86C80CDF87080CDF8748008F096FD8C
:102AA000D9F80030584A43F00103C9F800305168A2
:102AB000564B0B4043F440335360554B5A68012D3D
:102AC00022F0407294BF0021012122F4807242EA78
:102AD00001225A6099684F4A0A4042F002029A6005
:102AE000DA6A013D22F47002EDB242EA0555DD6278
:102AF000012204EB0805A978002950D014F8081029
:102B0000EE78501C0929C0B210D9A1F10A0505EBD5
:102B10004505D3F80CC04FF0070E0EFA05FE2CEA5F
:102B20000E0EAE404EEA0605DD600DE001EB4105FC
:102B3000D3F810C04FF0070E0EFA05FE2CEA0E0E69
:102B4000AE404EEA06051D61062A0CD8013A02EB9A
:102B500082025E6B1F25954026EA0505914045EAF5
:102B600001025A631CE00C2A0CD8073A02EB8202DD
:102B70001E6B1F25954026EA0505914045EA010296
:102B80001A630DE00D3A02EB8202DE6A1F259540C2
:102B900026EA0505914045EA0102DA6200E01046A6
:102BA00008F10408B8F1100F01D00246A1E79A68B5
:102BB000194D42F400729A609A6842F480729A60E9
:102BC0009A6842F001029A609A6842F080429A60E4
:102BD000B5F858214AB9B5F95A31FBB9B5F95C31A4
:102BE000D3F1010338BF002319E0002317E000BF31
:102BF00000040240000002400038024070640240BD
:102C00004C200140941B002000230140E030FCFFD9
:102C100000200140FDF7FFC0CC070020134613F051
:102C20000103B04C6AD1B049DFEDB07A0B7012B23B
:102C300008EE902AB7F95C31B7F95A21F8EEE88A24
:102C400008EE102A0AEE903A68EEA78AB8EEC88A13
:102C5000F8EEEAAAB0EE680A28EE278A6AEEA7AA7A
:102C600009F09EFFB0EE409AB0EE680A09F038FF16
:102C7000F0EE409AB0EE480A09F092FFF0EE408A7A
:102C8000B0EE480A09F02CFFB0EE408AB0EE6A0AB6
:102C900009F086FFB0EE40AAB0EE6A0A09F020FF04
:102CA00020EE097A69EE8A7AF0EE475AE7EE885A02
:102CB0002AEE096A69EE806AC4ED885AF0EE465A37
:102CC000E6EEC85AE7EE087AE6EE486A2AEE28AA47
:102CD00028EEC00A69EEE89A68EE898A84ED85AA32
:102CE00084ED860A84ED878AC4ED895AC4ED8A9AF8
:102CF000C4ED8B6AC4ED8C7AC4ED8D8ADFF83C821A
:102D00007B48D8F8003097F85F91B3F8566097F891
:102D1000617100210C2210F057FD0021142275482A
:102D200010F052FD7448002184F844120C224170C6
:102D3000043010F049FD714BC4F85432232006F0E2
:102D4000D0FD6F4B1A8822F040021204120C1A8038
:102D50001A8822F038021204120C42F030021A8053
:102D60001A8892B242F040021A806B2080210BF048
:102D7000F9FD4FF0060A962006F0B3FD75200121FB
:102D80000FAA0BF0D2FD9DF83C30682B07D0712BB9
:102D900005D00AF1FF3A1AF0FF0AECD11CE00C2032
:102DA00001210FAA0BF0C1FD9DF83C305A2B05D82C
:102DB000542B05D2143B042B0ED801E0EC2B0BD185
:102DC000032384F84432432384F848324D4BC4F83B
:102DD0004C324D4BC4F85032002384F8583294F8EA
:102DE0004432032B40F0E684424B484A1A60484A7A
:102DF0005A60484ADA60484A1A613A4A4748042108
:102E000082F8581206220270454A1168B9F1090F7A
:102E100041F0010E9B46C2F800E00346924600F2E4
:102E2000C584012000FA09F040F202320240002A73
:102E300040F0B48410F0FD0F00F0B084394AC4F8BB
:102E40003822394AC4F83C22384A0420107041F034
:102E5000030107225A70CAF80010DAF800309B0705
:102E600002D5D4F838329847002F0CBF072300232F
:102E700084F859322E4B4FF47A721A603846DBF8D8
:102E8000003098472B4A0023137095F8553113B141
:102E9000144981F8583295F856310BB123490B701B
:102EA00095F8573103B11370DAF80030180747D599
:102EB00036B2642396FBF3F203FB126636B207EEDA
:102EC000106AF8EEC76A07EE102AF8EEC77A9FED8F
:102ED0001A7AE6EE877AB2EE047A67EE877AC4ED64
:102EE000977A30E07C1600201000002035FA8E3CE6
:102EF000B418002080070020C01800206462010878
:102F0000003800402BE9000865E9000835B80008E2
:102F1000F578000839C5000890C1793D18000020F7
:102F20007C07002029A60008697900088C19002078
:102F300094070020941900208988883C9C07002071
:102F40000023C4F85C32BC4E337843F00203337084
:102F5000BA4B4FF400425A834FF480421A834FF029
:102F60000A09B64F7B6983F400437B617B6983F474
:102F700080437B61192006F0B4FC012006F0E4FCDC
:102F8000192006F0AEFC09F1FF39002006F0DCFC48
:102F900019F0FF09E5D14FF480433B834FF4004320
:102FA0003B83D4F860329FEDA68A1B7BA54F00EED1
:102FB000103AB8EEC00A20EE080A09F0F1FDA24B63
:102FC0009FEDA27AD3ED047AA14B84ED990A1B8878
:102FD00027EE888A07EE903AF8EEE77A84ED9A8A2F
:102FE000C7EE277A9FED9B7AC7EE877AC4ED9B7A6E
:102FF00009F0F0FAFF211B22384610F0E5FB964A53
:10300000964B126887F80090012112F0020F197098
:10301000384604D07970032119700221B970510724
:1030200004D519784F1C1F700327475412F00A0F5C
:103030000CD01A7804218154511CC9B20527475479
:10304000D11C0232D2B2197006218154844A12680E
:10305000970604D519784F1C1F700727475411068F
:1030600008D51978092747548F1C0131C9B21F7040
:103070000A2747546979082901D00E2908D11F78F9
:1030800007F1010E83F800E04FF00B0E00F807E0A7
:103090001F7807F1010E5FFA8EFE4FF00C0C12F054
:1030A000040F83F800E000F807C009D007F1020C14
:1030B0006A4F87F800C0634F4FF0100C07F80EC03E
:1030C0001F7807F1010E5FFA8EFE4FF0120C12F41A
:1030D000806F83F800E000F807C00ED095F814C2A6
:1030E000BCF1000F09D007F1020C5C4F87F800C05B
:1030F000544F4FF0130C07F80EC0970508D51F78F2
:1031000007F1010E83F800E04FF0150E00F807E01C
:10311000182913D11F784FF0160E00F807E007F1B9
:10312000010E5FFA8EFE4FF0170C00F80EC007F18B
:10313000030E0237FFB283F800E0C155110304D536
:1031400019784F1C1F7019274754D20504D51A78D7
:10315000511C19701A23835400219822414810F001
:1031600033FB0DF04BF84049B5F84E31A4F87432FA
:1031700000230B808B70D8F80010B5F894013B4AFF
:10318000C4F8702201F1790C394984F876320A606A
:1031900082B23849384FD1F80090DFF8E4E0DA53D2
:1031A00009F596794EF813900233242BB9468A46D6
:1031B000EFD12B4FD7F800E01EF4805F0CBFB5F8BD
:1031C0009A311346A9F8063000231CF80320B2B93F
:1031D0000CEB0302917892F803B059450FD209B174
:1031E000013901E00BF10101527801EB810101EBA2
:1031F000810101F56171043289B229F8121004339A
:10320000502BE2D11EF0080F00F0E18095F88E31CE
:10321000062B00F2D680DFE803F00407355C7795D3
:10322000950045F2F05201E042F6F822134B1A8065
:103230000DF070F8C4E000BFA4400020000C024074
:1032400035FA8E3C0D1D0020800700200AE81C4145
:103250000400002000401C467C0700200C1D0020BC
:10326000E4050020141C00201C100020520900203E
:10327000EC05002098400020A8070020521B0020E9
:10328000F41800207A4B42F6F8221A8000010A2333
:1032900090FBF3F0A0F5B0600023764A9850043319
:1032A000482BFAD1744B754A5A60754B1222402054
:1032B0001A7006F0F5F8002800F0838001234FF023
:1032C000070C90F900006F4A8DE8081040216E4B02
:1032D00071E0674B42F6F8221A80674B6B4A5A60DE
:1032E000674B102240201A7006F0DAF8002868D0E8
:1032F00001234FF0000E90F90000654A8DE8084068
:1033000040214FF4E13356E0594B42F6F8221A803F
:10331000594B604A5A605A4B082240201A7006F0F6
:10332000BFF800284DD00123002590F900005A4A2B
:103330008DE8280040214FF4E1330EF06BFCC4F817
:10334000C0023AE04A4A554842F6F82111804C49F9
:103350000C22062B0A7010D00023037084F8C432AC
:1033600084F8C5321B2384F8C632052384F8C722AB
:1033700084F8C8324FF4E1350DE00021017084F883
:10338000C41284F8C512464D84F8C722212184F85E
:10339000C61284F8C832384B424A5A60402006F0C0
:1033A0007FF870B1012100233F4A90F900008DE8B9
:1033B0000A0040212B460EF02DFC003018BF0120E2
:1033C00028B9082009F070FD2B4B384A5A60384A5A
:1033D000136813F4804F9146294A04D012211170CA
:1033E00025493448486042F20101194003F00100C8
:1033F00003F4005581B11E4944F6206EA1F800E0A7
:1034000025B1082111701C492B4D4D6020B10C21B4
:1034100011701949294848601178043951701A0609
:1034200040F18B804FF0000B254D264B2648C4F809
:10343000CC325946152285F801B0C5F804B0C5F85C
:1034400008B0049310F0C0F9049B204A053B58468D
:10345000136004920DF09CFFDAF80030EB6002205C
:1034600006F01EF8049A98BB802009F01DFD5CE070
:10347000521B00204006002010000020459100084B
:103480002E1D002029980008A08601003591000813
:1034900079970008219100082D9700082407002043
:1034A00090D00300E19000080D9600089991000863
:1034B000E405002075910008819100088D910008B5
:1034C00054070020BC0900204C190020740700207C
:1034D00090F805E06B78BC494FF00C0C0CFB031C1A
:1034E0009CF801C0F44504D00133DBB2042BF2D9BF
:1034F00000236B70136890F900001B78002B6B7829
:103500004FF00C050CBF0122032205FB03110092B2
:1035100000224B78019202210EF07CFBAB4B18602D
:103520000028A1D001200DF033FFD8F80000A84BEF
:1035300000F5C5721A6009F0FBFDD9F800305B0593
:1035400055D5A44BD4F8E882C3F80080042005F0D8
:10355000A7FF0421C4F8EC0205F078FF9E4B84F825
:10356000F0020820C3F8008005F09AFF9B4B9C4DA9
:103570001860082105F06AFF002184F8F1022C226E
:10358000284610F021F98E236B704FF07C0BE0235E
:103590004FF07D0AEB7085F800B085F82BA0914DB7
:1035A0002C220021284610F00FF98A236B7010207E
:1035B000A023EB7085F800B085F82BA0C4F8F48246
:1035C00005F06EFF1021C4F8F80205F03FFF84F803
:1035D000FC022020C4F8008305F062FF2021C4F81B
:1035E000040305F033FF84F808030DF091F87E4DD5
:1035F0002B8823F040031B041B0C2B802B8823F00B
:1036000038031B041B0C2B802B889BB243F0400318
:103610002B804FF000089F2332208DF818308DF852
:1036200019808DF81A808DF81B8006F05AF98DF8F4
:103630003D8008F1804808F504384FF4004A06AA96
:103640000423A8F81AA028460FA90BF0C6F8A8F87A
:1036500018A09DF83E209DF83D30120242EA034238
:103660009DF83F301A43614B9A42614B17D008D8FE
:1036700060498A420CD001F51A4102318A4209D0D0
:103680001BE05D498A4205D001318A4207D014E02F
:10369000202200E080221A804FF4807202E04FF472
:1036A00080721A805A809A88198812029A604A4356
:1036B000DA60012284F8092304E000221A805A808B
:1036C0009A60DA60DD6825B3ED0AAA464FF000087B
:1036D000A8450BDA08EB050464100DF13C0BE00281
:1036E000594610220BF0DCF80F2807DC0EF0B6F874
:1036F000424B4FEACA22C3F80C230AE000235BF8CE
:10370000032001325BD10433102BF8D1A2462546A9
:10371000DEE7D9F800303A4A13F4002318BF01233A
:10372000137005F058FF374B1860374B5A79052A4C
:103730001A4603D1354B4FF4C8711980344B4FF4FE
:103740007A711980334B197841F008011970324BA6
:10375000197821F002011970D9F8001040F602031F
:103760000B406BB12D4B2E4919602E4B0321197064
:103770002D4B012119702D4900230B802C490B8002
:1037800093683B602B4B01221A70337863F07F0300
:1037900033701FB0BDEC068BBDE8F08FB9F1010F9F
:1037A00004D8254B00221A70FFF757BB4FF00009D1
:1037B000FFF737BB012006F0EBF8FFF7C4BB04F1BD
:1037C00001082C46A3E700BF24450108500700204C
:1037D000240F0020A0150020F41500204016002022
:1037E000C4150020F9150020003C004018BA200044
:1037F0001C000020152020001740EF007C16002040
:103800005D150020A4070020CC070020D41B002059
:10381000081D002079070020791600209815002047
:1038200044090020F81500200C000020761B002021
:10383000781B00205C1500208C190020A349A448A7
:103840000A682DE9F04F02F59C4320330360A14B39
:103850001E7887B0C6B119465B689A4240F20A8169
:10386000013E0E7006E12B689B48072C98BF195D3E
:103870009A4B88BF21461B689847032C0CD9954A60
:1038800002EB440401362081934B954D1A78F4B233
:10389000A2421A46E7D81EE02B6804F10E0203EBA1
:1038A00082029388D2880028E9D0C01A4FF47A7136
:1038B000D31A484390FBF3F0084440F6C9039842FA
:1038C00005DC40F2EE239842B8BF184601E040F60E
:1038D000CA0080B2D3E7834B1B6842F2010903EAB6
:1038E0000909D9F10109804B38BF4FF00009D3F81D
:1038F00000A07E4BB9F1000F06D17D4909781970FF
:103900007C4908787C4908701E781EB17A4B1E7875
:1039100086F001066F4992F80080D5F800B00F23B9
:1039200081F82C30754B1F780322B7FBF2F202EBC3
:103930004202BA1AD2B201F12E0303EB4202002472
:103940004FEA480C0292254664455AD016B16C4B9A
:10395000E05A00E03046BBF81430834206D8BBF88A
:103960001610814234BF0021012100E00021654B87
:10397000E9B953F825309A4502D2634BE05A1AE070
:10398000EBB218468DE808100BF004F8009BDDF848
:1039900004C0032B0FD84F4B4FF0010E93F82C109F
:1039A0000EFA05FE21EA0E0183F82C1003E00AF559
:1039B000967143F81410B9F1000F1DD1029A454BCE
:1039C00004EB4401505293F8762022B9022F13D908
:1039D000012083F876004D4B581831F803E04188F8
:1039E0007144B0F804E04A33714489B2E15208B23C
:1039F000032390FBF3F080B2434B0135E0520234D5
:103A0000A2E7344B384A93F82C10B1F10F05694204
:103A1000694183F890103E4B69B13E4909684C01F9
:103A200009D41268D9689A60521AC82A1ED901228C
:103A300083F821201AE02F481268DA600121017012
:103A40002D48017099685B68521A9A4203D9304B2D
:103A5000002283F821200024444507DAE0B20AF06E
:103A600099FF294B23F814000134F5E7234B1A780A
:103A700001321A701B4F3B68D80405D5254B1B68D3
:103A8000D90701D40CF010FC104B1968144B1868BE
:103A9000837A002B42D01C4A013B32F81330027B60
:103AA0001AB1C3F53B6308339BB21BB2A3F57A731B
:103AB000B3F57A7FA8BF4FF47A7323EAE37307EE76
:103AC000903AB8EEE77ADFED147A5FE070160020E6
:103AD00040070020981900202E1D0020140000200F
:103AE000EC050020E405002098400020D8050020C7
:103AF000E00500200100002000000020F218002056
:103B0000A0190020F4180020A8070020C6190020E2
:103B10001C1000207810002000007A443A6812043B
:103B200040D5A34AD2F894400C1B002C3ADB01F597
:103B30009C442034C2F894409E4CC07A65799E4CD7
:103B400034F81540A4B294FBF0F492F898000130D8
:103B500000F00F0082F89800024482F899401A465B
:103B60009648185C01330244102B92B2F8D112B27D
:103B700092FBF3F31BB2642BA8BF642323EAE37325
:103B800007EE903AB8EEE77ADFED8D7AC7EE277A46
:103B90008C4B9FED8D7A67EE877AFCEEE77A17EE15
:103BA000902A1A803B68894C13F4807F00F0E380F0
:103BB000874B884E994203D9B3780BB90123B37070
:103BC000B378002B00F0D780824B94F8008093F8F4
:103BD0002150814BB5F1010EDEF100051A6855EB5D
:103BE0000E05002DC2F380690CBF03220022C8F32A
:103BF00080089A46029296F82030052B00F2B68093
:103C0000DFE803F0034E5378859EB8F1000F3AD0F9
:103C1000724B1868724B19880AF0E6FE012809D128
:103C2000704B1A68624BD3F8AC30DB88642101FB1F
:103C300003233361B9F1000F0DD05D4BD3F8AC30E5
:103C40001B7943B10AF09CFF032386F820304FF420
:103C50007A73F361CFE7002D40F08880614B3269C1
:103C60001968DFF870B1914209D90AF089FF03227F
:103C70008BF8202040F6B832CBF81C20BBE701229D
:103C80008BF82020B7E74FF48060B9F1000F02D025
:103C90000AF066FF01E00AF091FF0023336165E05E
:103CA000002D45D10AF06CFFA5E725B1052386F864
:103CB0002030012100E02946B8F1000F0DD0474B1C
:103CC0001B68DA89484B1A805A809A80384AD2F8A1
:103CD000AC205288DA8002220292424B1A68736941
:103CE0009A4202D8B8F1000F3DD147F23053F36148
:103CF00003231EE0237843F0020323700CF0D4FA70
:103D0000384B1A68F3691344B361042311E0354B4F
:103D10001A688DB1B3699A4228D9344B1B781BB904
:103D2000DAF80030D80721D4237823F00203237077
:103D3000052386F820305EE7F3691344B36115E08C
:103D4000284B1B491A68D1F8AC30DB88642101FB91
:103D5000032333614FF48060002386F82030F37032
:103D60000AF02CFF47E700297FF445AF029A12B111
:103D700010460AF057FE1E4E06F5C370B6F84E11F7
:103D80000AF032FE8146A8BB08F09CFC96F8E031B0
:103D9000012B09D92378590706D5124B044A1B6811
:103DA000D2F8B0209A422CD208F07CFC29E000BF67
:103DB00098190020841B0020941B0020311A002039
:103DC0000000C842301D002000C07F44791600204A
:103DD000404B4C001C10002078100020EC180020F4
:103DE000F018002098400020A807002002000020C2
:103DF000CC070020AE4B1A68AE4B02F6B832C3F8BF
:103E0000B02023785A0743D53B68DB0640D5AA4B40
:103E10001B78DD063CD4A94BA64D93F80080B8F181
:103E2000000F11D096F8DE31B9F1000F16D173B141
:103E30009F4B1A68D5F8B4309B1A002B07DA0CF0A8
:103E400033FA85F8B89023E0B9F1000F19D11020AA
:103E50000AF0E8FD012385F8B83019E03BB1944A37
:103E600012684FF47A7101FB0323C5F8B43095F85A
:103E7000B8306BB105F070FD8E4B002283F8B8208E
:103E800006E095F8B8301BB105F066FD85F8B880FE
:103E9000002296F8DCB196F8DD11B6F896E1B6F896
:103EA00098C11346864D505F9B087045C4BF63F0B0
:103EB0007F03DBB202326045B8BF43F04003082AFB
:103EC000F0D17C4D95F8B9209A4205D195F8BA20E9
:103ED000F92A04D8013200E0002285F8BA20774898
:103EE00085F8B9300378734ADFF8E481824633BB42
:103EF000D8F80000C0070AD582F8BB30B9F1000F2E
:103F00001DD12378DA071AD50CF04EFA17E0237882
:103F10005B0714D56B4B1B788BB16B4BDB7873B99C
:103F200092F8BB300133DBB2032B82F8BB3006D9E9
:103F300011B10CF0B9F902E0B9F1000FF9D095F820
:103F4000BA205C4BDFF88C91142A40F082809AF8FA
:103F500000201BF1000B18BF4FF0010B6AB393F860
:103F6000B9205F2A11D1227802F0040202F0FF0189
:103F700012B10CF099F908E00B20019100930AF0BE
:103F800051FD009B019983F8BA10BBF1000F14D0CA
:103F900095F8B9307D2B10D1237803F0040303F09A
:103FA000FF0213B10CF080F907E00B2001920AF038
:103FB00039FD404B019A83F8BA20237803F00403BB
:103FC00003F0FF00002B44D195F8B930394A572B44
:103FD00009D13E4B4FF47A721A803B68180638D5E7
:103FE00008F038FF35E03968490717D55A2B15D145
:103FF00092F8BC302BB1012382F8BC0082F8BD30AE
:1040000027E092F8BE3083F0010382F8BE300BB196
:104010000C2000E00D200AF005FD1AE05D2B00F0F9
:1040200009855B2B00F008855E2B02D1032000F090
:1040300004BD562B01D10AF0B7FE9AF80030002BD0
:1040400000F0108595F8B9306F2B40F005850CF025
:10405000ABF93B685B074DD595F8BE30154A9BB16F
:104060002378580710D5164BB3F90610B6F89631D9
:10407000994209DDD8F8003013F0010304D1322150
:10408000A2F8C01082F8BE30D8F8003013F4803F98
:10409000084B21D095F8C2202AB993F8BC2012B958
:1040A0003222A3F8C020012385F8C23022E000BFED
:1040B0009840002098190020790700200200002075
:1040C000A8070020D80500201C100020081D002093
:1040D000781000209C07002095F8BC2052B122786F
:1040E00002F0040202F0FF0122B9012283F8BC10A1
:1040F00083F8BD20D9F800A000230AF1790BC8F895
:1041000000300AF17B0599460BF1020303EB09012C
:1041100013F809204B7815F8010C9A420CD2294665
:104120000DF0D7F840B115F8023C01229A40D8F8BA
:1041300000301343C8F8003009F10409B9F1500FF9
:1041400005F10405E0D1C14B1B785BB1C04BDFF832
:104150002CA31A68DFF8289312F0020F984640F05B
:1041600054834CE30AF1C9090AF1CA05984609F1DA
:10417000010303EB080113F808204B7815F8010C34
:104180009A4229D229460DF0A4F828B395F802E006
:10419000B04B287995F803B00EF1FF3E0EEB4E0EB2
:1041A0009E44AD4B4FF00C0C03F1C40A0CFB00FC19
:1041B0000AEB0C02516871450ED000210AF80CB0D0
:1041C000C2F804E09160012202FA00F093F8F420B2
:1041D00022EA000083F8F40008F10608B8F1480F5D
:1041E00005F10605C3D19D4BDFF898A21D689C4BD5
:1041F0001B6802939B4B1B7803934FF00009DAF87E
:104200000030002B00F0F28293F80080B8F1000F2C
:1042100000F0EC82DAF8042002998A1A002A0DDBF9
:1042200001F5FA72CAF804208B4A012192F8F400D1
:1042300001FA09F120EA010182F8F410039A002A38
:1042400000F0D4821AF8041C5878834A0431C9B2A9
:10425000002840F07D82844830F91110B6F89401AE
:1042600000F1C80E714502DD93F802B016E0C838BF
:10427000814203DA9B78C3F1000B0FE076490123FA
:1042800091F8F42003FA09F322EA0303029A81F871
:10429000F43002F5FA73CAF80430A7E292F8F43069
:1042A00043FA09F3D90700F1A182BBF1000FCCBF9B
:1042B000022001200AF03CFC08F1FF33132B00F22E
:1042C0008C82DFE813F01400250036004A006300FA
:1042D0006A00EB004E01B501E30113028A024A00B5
:1042E00059006A00EB004E019F002001850195F8FE
:1042F0000080D844B8F1FA0FA8BF4FF0FA0828EAB6
:10430000E878284685F8008005F018F9012022E0B9
:1043100095F80180D844B8F1640FA8BF4FF0640845
:1043200028EAE878284685F8018005F007F9022098
:1043300011E095F803804D4BD844B8F1640FA8BF45
:104340004FF0640828EAE87885F803802846196861
:1043500005F0AEF803204146C5E169795944642966
:10436000A8BF642121EAE17169710D2003F00AFA06
:10437000B8F10D0F00F03182297959446429A8BFA2
:10438000642121EAE17129710E20ACE1A979594437
:1043900081F30801A9710520A5E1354B1B681A7846
:1043A000022A20D107EE90BAB8EEE70ADFED317AA3
:1043B00093ED097A80EE270A30EE070AB5EEC00ABF
:1043C000F1EE10FA07D4B4EE670AF1EE10FAC8BFA6
:1043D000B0EE670A01E09FED280A83ED090A0F207D
:1043E00003F0E4F90AE099785944C829A8BFC82124
:1043F00021EAE17199700F2003F0C4F9B8F10F0FB1
:1044000000F0EB811A4B1B681A78022A3CD107EEA8
:1044100090BAB8EEE70ADFED177A93ED087A80EEEE
:10442000270A30EE070AB5EEC00AF1EE10FA07D4FB
:10443000B4EE670AF1EE10FAC8BFB0EE670A01E009
:104440009FED0D0A83ED080A122074E17816002012
:1044500078100020006A010898190020300F002011
:1044600098400020D8050020A8070020DC1C002070
:10447000E01C00200000C842000000007C07002073
:1044800098070020601A002059785944C829A8BF0D
:10449000C82121EAE1715970122024E1B44B1B6854
:1044A0001A78022A20D107EE90BAB8EEE70ADFEDBB
:1044B000B17A93ED0C7A80EE270A30EE070AB5EE5A
:1044C000C00AF1EE10FA07D4B4EE670AF1EE10FA62
:1044D000C8BFB0EE670A01E09FEDA70A83ED0C0AA2
:1044E000102003F063F90AE0197B5944C829A8BFDA
:1044F000C82121EAE1711973102003F043F9B8F1E2
:10450000100F00F06A819A4B1B681A78022A1ED19C
:1045100007EE90BAB8EEE70ADFED967A93ED0B7AE4
:1045200080EE270A30EE070AB5EEC00AF1EE10FA67
:1045300007D4B4EE670AF1EE10FAC8BFB0EE670A0E
:1045400001E09FED8D0A83ED0B0A1320F3E0D97A89
:104550005944C829A8BFC82121EAE171D9721320A2
:10456000C1E0834B1B681A78022A22D107EE90BA69
:10457000B8EEE70ADFED817A80EE270AD3ED0F7AF5
:1045800030EE270AB5EEC00AF1EE10FA09D4DFEDDD
:10459000797AB4EE670AF1EE10FAC8BFB0EE670A96
:1045A00001E09FED750A83ED0F0A112003F0FEF87C
:1045B0000AE0997D5944C829A8BFC82121EAE171C0
:1045C0009975112003F0DEF8B8F1110F00F00581A4
:1045D000674B1B681A78022A20D107EE90BAB8EE12
:1045E000E70ADFED667A80EE270AD3ED0E7A30EE29
:1045F000270AB5EEC00AF1EE10FA09D4DFED5D7AB4
:10460000B4EE670AF1EE10FAC8BFB0EE670A01E037
:104610009FED590A83ED0E0A14208CE0597D594410
:10462000C829A8BFC82121EAE171597514205AE0B0
:104630004F4B1B681A78022A1ED107EE90BAB8EECB
:10464000E70ADFED4C7A93ED0A7A80EE270A30EE26
:10465000070AB5EEC00AF1EE10FA07D4B4EE670A05
:10466000F1EE10FAC8BFB0EE670A01E09FED420A12
:1046700083ED0A0A09205EE0D9785944C829A8BF09
:10468000C82121EAE171D97009202CE0384B1B6860
:104690001A78022A1ED107EE90BAB8EEE70ADFEDCB
:1046A000357A93ED0D7A80EE270A30EE070AB5EEE3
:1046B000C00AF1EE10FA07D4B4EE670AF1EE10FA70
:1046C000C8BFB0EE670A01E09FED2B0A83ED0D0A2B
:1046D0000A2030E0597B5944C829A8BFC82121EAE3
:1046E000E17159730A2003F04DF876E0204B1B6806
:1046F0001A78022A22D107EE90BAB8EEE70ADFED67
:104700001F7A80EE270AD3ED107A30EE270AB5EE35
:10471000C00AF1EE10FA09D4DFED167AB4EE670A9A
:10472000F1EE10FAC8BFB0EE670A01E09FED120A81
:1047300083ED100A0B2003F039F84EE0D97D59447F
:10474000C829A8BFC82121EAE171D9750B20CAE7A1
:10475000012842D198780A4B33F91110B1F5617FE5
:1047600010DB40F633039942B8BF0B460CE000BFA4
:10477000E01C00200000C8420000000000007A4455
:10478000A80700204FF46173B8F10C0F25D14FF446
:10479000966191FBF0F1A3F5617393FBF1F392F84D
:1047A000F5105FFA83FB594517D0BBF1030F94BF97
:1047B0005946022182F8F510B74A08FB016101F25F
:1047C000EE61116004F0D4FE4046594602F0DAFF73
:1047D0000BF10100C0B20AF0ABF9B04B012293F823
:1047E000F41002FA09F20A4383F8F42009F10109EE
:1047F000B9F1040F0AF10C0A7FF401ADA6E43B689D
:10480000DA0511D5A64BDB7873B1DAF800309B07D7
:104810000AD5B9F8003013F001050AD107F052FFAC
:1048200001200AF09DF904E001200AF0C7F90123F4
:1048300000E00023D8F8002055070DD563B1012012
:104840000AF0BCF9B9F80030980708D407F03AFF2D
:1048500002200AF085F902E002200AF0AFF9B9F867
:104860000050904B15F0030F4FF4004214BF5A83D1
:104870001A83DAF80030990609D4D8F800301A05FE
:1048800040F1AA804FF480700AF06AF9A8E0864BE4
:104890001B789B0769D5854B1B78042B65D9D8F805
:1048A000003013F4007A05F010050DD0002D4FD123
:1048B00010200AF055F920200AF080F97C48011DEB
:1048C00005F0BCFE02223FE0ADB235B110200AF087
:1048D00075F9784B012583F800A0D8F80030580509
:1048E0002AD5754B1B685A89744BB3F900100029FF
:1048F000B8BF4942914209DAB3F90230002BB8BF80
:104900005B429342ACBF0023012300E000239BB134
:10491000B9F8003099061CD420200AF021F9684823
:10492000684B011D1A685B684360026005F086FEF3
:10493000604B01251D700CE0B9F800309A0608D5CF
:1049400020200AF03BF900225A4B01251A7000E0A2
:104950000025DFF8489199F8F6309BB90E200AF04F
:1049600061F8012389F8F6300CE015F0300F84D09F
:1049700010200AF023F920200AF020F94D4B0022E4
:104980001A7002E0002D3FF478AF002213464E4823
:104990004E4D002119524E4819524E4805EB020E59
:1049A00019520020CEF80000CEF80410CEF808000E
:1049B00005F1280E5035964415440233042BCEF8E9
:1049C0000000CEF80410CEF8080028606960A860E6
:1049D00002F11402DBD150E74FF480700AF0EEF8D8
:1049E0007379082B01D00E2B02D140200AF0E6F893
:1049F0003B685B0540F1A08096F814321BB9237820
:104A000013F0040F03E0D8F8003013F4002F0CD09B
:104A1000224B002283F870213C2006F04FFB002837
:104A200000F08A8004F0DEFCF6E70BF071FE0BF07C
:104A3000E5FB81E0012000E002205FFA80FA0AF144
:104A4000FF3386F8EC3605F0AFFE06F0A7FF5046C0
:104A50000AF06EF8FFF7FDBABBF1000F02D07E2B13
:104A60003FF4F5AA95F8B930972B05D11A4B4FF4BE
:104A7000C8721A80FFF7EDBAA72B06D10A4B1A7835
:104A800042F004021A70FFF7E4BA0022BB2B059231
:104A900024D1022326E000BF300F00209819002007
:104AA0001C100020000C024079070020780700202D
:104AB000E81C0020FC1C0020240F0020EC0E00202D
:104AC000F41C0020B415002074160020901A002059
:104AD000280F00202C0F0020D41B0020B72B04D15E
:104AE0004FF6FE73ADF816300AE0BE2B01D102235B
:104AF00004E0BD2B7FF4ADAA4FF6FE73ADF8143081
:104B0000D9F80030BDF81410B3F858200A44A3F8BF
:104B10005820BDF81610B3F85A200A44A3F85A20BA
:104B200005F042FE06F03AFF01200AF001F80023EA
:104B300085F8BA30FFF78DBA07B0BDE8F08F00BF37
:104B4000C44B2DE9F04FB3F90600C34BD3F800E096
:104B50002DED028BBEF80A30984291B00FDBB0F514
:104B6000FA6F9EF8077007DAC21A5743A3F5FA6383
:104B700097FBF3F7643703E0C7F1640700E06427AD
:104B8000B64BB3F894210492B54A93F95E31D2F84A
:104B900000C09BB20021059364460A46AD4B049DBC
:104BA000CB5E03935B1B03F2F31640F2E635AE4295
:104BB00003D8002BB8BF5B4201E04FF4FA73022A1E
:104BC0004FF06406A74DDFF8A4922DD09CF8118118
:104BD000B8F1000F04D04345CCBFC8EB030300235A
:104BE00093FBF6F86FF0630B35F818A00BFB083B4E
:104BF00008F1010835F918800FFA8AF5C5EB0805A8
:104C000005FB0BF595FBF6F5554429F801500EEB25
:104C100002052D796B43944D93FBF5F364339BB2FE
:104C20007B4393FBF6F62FE09CF81281B8F1000F5E
:104C300004D04345CCBFC8EB0303002393FBF6F637
:104C40006FF0630A05EB46080AFB063B05EB4606D8
:104C5000B8F90E80B6F91050059EC8EB050505FBA6
:104C60000BFB9BFBFAFBC8EB0B0808FB06F8A9F84B
:104C700004809EF8065083EAE376A6EBE3766E4363
:104C8000794D96FBF5F664360CEB0208754B98F8F7
:104C9000019003F11C054FF0640806FB09F999FB2C
:104CA000F8F902F8059094F80B9003F11F0506FB44
:104CB00009F999FBF8F902F8059094F8159003F1B9
:104CC000220506FB09F6022A96FBF8F656551D4604
:104CD00016BF253383F82780D754049E039BB34225
:104CE000624E02DA735A5B4273520231062902F1B4
:104CF000010204F101047FF451AF584CB4F896312D
:104D0000984205DBB0F5FA6FA8BF4FF4FA6000E0F7
:104D10001846C01A4FF47A725043C3F5FA63B0FBD9
:104D2000F3F34FF0640E93FBFEF205EB42016FF0DC
:104D3000630000FB023305EB4202098DB2F92A0041
:104D40004A4F0AB2821A534393FBFEFE484B1B881C
:104D50007144F18059063AD5464BDFED477AB3F9F5
:104D600004200A2392FBF3F33E4AB2F840209B1A38
:104D70001BB208EE903AF8EEE88A68EEA78AB0EE29
:104D8000680A07F00DFFB0EE408AB0EE680A07F03F
:104D9000A7FEB7F90220B7F9003006EE902A07EE19
:104DA000903AF8EEE66AF8EEE77A20EE667AA7EE39
:104DB000887A67EE807ABDEEC77AE6EE887A17EEDB
:104DC000103AFDEEE77A3B8017EE903A7B802B4B52
:104DD000244F1B88DFED2A0AB5F8428000EE103A16
:104DE0000121B8EE400A07F1440007F07DFCBCEE5B
:104DF000C00A244B10EE101A89B2B8FBF1F101F190
:104E0000010C1B781FFA8CFCA5F84CC0002B3BD082
:104E1000B7F84EA00023134AF75A02F1500E02F1E0
:104E2000580033F80E8033F800901F5218FB0AF830
:104E30000FFA8CFBC9EB070998FBFBF8C84423F871
:104E40000E800233082BE6D10E4BA2F84E10002044
:104E500018701EE0A8070020300F0020CC070020AB
:104E60009C070020101B00200CFEFFFFEC0E002012
:104E7000980700201C0F002035FA8E3CA007002068
:104E80006F12833A49070020B7F84E30013BA7F86C
:104E90004E30B5F84E10BA4A0BB2002B4FF000035B
:104EA0000FDDB2F94C70B74A985A083210FB01F086
:104EB0009A5A90FBF7F0121AF2520233082BF2D1F1
:104EC00001E0A2F84E30B04B1A6812F0020F9A4679
:104ED00074D0AE4B2A6E1B68A94F9A1A45F207216F
:104EE0008A426BDD3B6605F05BF9A94BDFF8D482A3
:104EF0001A78032A9946B8F8003022D10A2B2CD907
:104F00000023282089F8003004F0EBFC05F048F974
:104F1000B7F8640004F022FA9E4B9F491B68DA78C8
:104F200090FBF2F0421C082A28BF08220A70597927
:104F30001B7992B251435A43A7F86610A7F868202C
:104F40000BE00A2B09D80323934A89F80030002389
:104F50001370A7F86630A7F8683099F800208C4BDA
:104F6000012A0DD002D3022A1ED027E0B5F8662010
:104F7000B8F800309A4221DD012389F8003011E0B1
:104F8000B8F80020B5F86810914202DD02221A70CC
:104F900011E07B49B1F8661001318A4202DD00223E
:104FA0001A700BE0082007E0B5F86830B8F8002068
:104FB00001339A42E0DC072009F034FDDAF8007092
:104FC0003A0577D5714BE96E1A686D4BC1EB020A51
:104FD00045F207218A456DDDDA666E4AB6F906901C
:104FE000D2F80080B4F84E1198F80A206B4E012ACE
:104FF000A9F57A7903D046D3022A23D045E093F865
:105000008120196F03EB4202B2F88400082291FB61
:10501000F2FE80B2CEEB0101014491FBF2F2A3F863
:105020008C0092B21967B8F8080040F6E443534385
:10503000C0EB13334FF47A725343B8F9062093FB55
:10504000F2F321E0564BB8F808B01B78C6F800B070
:105050005B071AD5534809F0C7FC20B917F0100FA9
:1050600018BF4FF0000909FB09F2322392FBF3F35A
:105070009944B8F906304FF47A7203FB09F393FBB5
:10508000F2F35B4400E0002333603368464AD5E91D
:10509000240103FB0AFA4FF47A739AFBF3FA10EB3C
:1050A0000A0041EBEA710023C5E924010DF074FC0C
:1050B0003E4B18603E4B1A6812F4805F984626D02B
:1050C0003E0621D53B4B1B7898071DD53A4B1978E6
:1050D000042919D90023394E05229A551E44981CDB
:1050E0000A27122BC2B2777004D0B1EB520F0346DD
:1050F000F1D800E014222A44322382F89730FF23AB
:1051000082F898300F2000E00A2009F08BFCD5F8D7
:10511000B0301B4E002B7FD0294AD6F8B41010684F
:105120008142914678D896F8B800B6F8BA20596806
:10513000002849D1012086F8B8008A5C002A4FD0A7
:105140001A78D4F81837013A00FA02F21A4201D15B
:1051500004F0FAFB012385F8BC3004F091FBB5F8AC
:10516000BA30074E002B3BD1D6F8B0301B78053B48
:10517000012B35D804F02FFAC6F8C00030E000BF8C
:10518000101B0020601B0020E4050020701600208A
:10519000F8150020981500200C000020A415002010
:1051A0007916002052090020407E0500A815002035
:1051B000781000207907002078070020A81B002025
:1051C000984000209C150020002786F8B8708B5C62
:1051D00033B1384604F0B8FB86F8BC7004F050FBDD
:1051E000D5F8B020B5F8BA105268994B525CFE2A37
:1051F00003D10022A3F8BA200EE0FF2A02D104F066
:10520000ABFB09E0D9F800000A2616FB02020131C7
:10521000C3F8B420A3F8BA108E4E3378590704D5DA
:105220008D4B4FF480425A8334E0D8F80020D207E7
:105230005CBF43F001033370884B1B781F0703D416
:10524000337823F001033370B5F8C4301BB1844BBD
:105250001B68980705D4834B1B88003318BF0123B4
:1052600000E001233BB1022385F8BC30337823F002
:105270000103337005E03278D10758BF022385F867
:10528000BC3004F0A8F9D5F8C830C01A002801DBFA
:1052900004F0F6FA0BF03CFA734B1A789946002AA0
:1052A00075D0D5F8CC30002B00F0BD86D5F8CC00F9
:1052B000674C04F0E2FB002800F0B586D4F8CC007F
:1052C00004F0D6FB092801D03F2852D14FF0000846
:1052D000D5F8D060654F44462EB1654839683246EE
:1052E0000EF0BAFA10B9B84604B93C46614B103713
:1052F0009F42F1D3ECB1D5F8D03022685448D75C46
:10530000D8F80020D15CB94213D15A1C59B92D2BC1
:1053100009D8C0F8D02003440244202783F8D47071
:1053200082F8D41005E02B44C5F8D02083F8D4705F
:10533000E1E7D5F8D0300BB1444510D04E4804F029
:10534000FFFB444507D854F8100B04F0F9FB092083
:1053500004F0EFFBF5E7494804F0F2FB0026D5F82E
:10536000D0309E42A2D2424B985D04F0E2FB01365F
:10537000F5E7D4F8D030002B40F08186042840F0C7
:10538000788604F1D40009F0D3FC00F04CBE3C4F09
:1053900097F84A30012B40F04186DFF8EC80394B1A
:1053A0003A68C8F800701A60C346DFF8D8A05246C1
:1053B000106804F062FB002800F02386DAF8000091
:1053C00004F056FBDBF8003093F84810024619B998
:1053D00024285BD1012238E0012904D14D280CBFDB
:1053E0000222002231E0022904D13C280CBF032212
:1053F00000222AE003290CD140284FF0000102D9F5
:1054000083F848106AE058711971D97198710422B3
:105410001BE0042907D1997983F8490080EA010249
:105420009A71052211E0052958D1587919798842D5
:10543000987906D950409871481C18710B441A721B
:105440004CE090420CBF0622002283F8482045E041
:10545000101B002079160020000C02407907002064
:105460007C070020081D0020781600203C6A0108F7
:10547000E41B0020EC6B01085C6E0108616E010802
:10548000141C002054160020501600203178D64BF2
:10549000490723D4232ADAF8001014D1012089F80F
:1054A0000000D248C5F8CC10C5F89C1102920193B7
:1054B00004F046FBCE4804F043FB019B197841F011
:1054C00002011970029AD5F8A0311B78934205D1D8
:1054D000C84BC94A1A60C94BC94ADA60DBF80030C8
:1054E000DFF834A393F84820062A7FF45EAF93F8E0
:1054F000490000F077FE002840F07985DAF80020B6
:1055000092F849304C2B00F0D58466D8372B00F048
:10551000318521D8292B00F0998409D8252B00F05A
:105520007184272B00F07484232B40F09F85F1E0D9
:105530002D2B00F09C8407D82B2B40F0978503F08F
:1055400023FF607100F050BD332B00F00185352B37
:1055500000F0AF8200F08ABD412B00F0FE840AD833
:105560003C2B00F035813E2B00F02881392B40F098
:105570007D8500F05ABC442B00F0338525D8432BA1
:1055800040F0748503F000FF0023A360607103F016
:105590000FFF07F091FC03F0F7FE84F88E0103F093
:1055A000FDFEA4F8580103F0F9FEA4F85A0103F037
:1055B000F5FEA4F85C0103F0F1FEA4F87E0103F00F
:1055C000EDFEA4F8800100F00FBD482B00F0AE8383
:1055D0004A2B00F0098500F049BDD02B00F08483F0
:1055E00056D8CA2B00F0278109D8C82B00F0888034
:1055F00000F29F834E2B00F06A8400F037BDCD2B64
:1056000000F07D8304D8CC2B00F0908200F02EBDFA
:10561000CE2B00F07D83CF2B40F0288503F0BEFE1B
:105620006FF4AF6E00EB0E039BB2C62B98BFA4F8CD
:10563000940103F0B3FEA4F8400103F0AFFEA4F818
:10564000420103F0ABFEA4F8440103F0A7FEA4F866
:10565000D60103F099FE84F8EB0103F095FE03F008
:1056600093FE84F8EC0103F08FFE84F8830103F0CD
:105670008BFE84F8900103F087FE624BD3F800A004
:1056800003F08CFE00EB80004000AAF85600CCE34B
:10569000D62B00F09B820AD8D22B1BD0C0F071838E
:1056A000D32B27D0D42B00F09D8200F0DFBCEF2B52
:1056B00074D007D8D82B08BF4FF0000B00F05E81E4
:1056C00000F0D4BCF22B00F0E482FA2B00F02A8325
:1056D00000F0CCBC33785B0700F1868403F054FE05
:1056E000022884F8EC0640F20583474B002283F839
:1056F000EC26FFE203F052FEA5F8A40100F074BC12
:1057000092F805A04FEA5A0ABAF1120F1FD84FF0CB
:10571000000B20E003F038FE132818D8DFF8E4B0BF
:10572000DBF8003000F11E0203EB820202F1010AF5
:10573000029203F029FE354B029A03F5A87193F803
:1057400008E0864500F096810C338B42F7D105F0D6
:10575000B1FC00F049BCD34507D203F01FFE07ABF4
:1057600023F81B000BF1010BF5E700235345284AF2
:1057700006DA07A931F8131022F813100133F5E700
:105780000AF1FF3A02EB4A032232934203D000218E
:1057900023F8021FF9E701221E4BC1E2DFF864A0E3
:1057A000DAF800B003F0FAFDABF85A00DAF800A01E
:1057B00003F0F4FDAAF8580000F016BC03F0E4FD75
:1057C00084F8DE0103F0E0FD84F8DD0100F00CBC9C
:1057D000DFF830A0DAF800B003F0D6FDF0B102280F
:1057E000A8BF02201BE000BF79160020916E0108BF
:1057F000616E0108FCFF0120EFBEADDE00ED00E0B0
:105800000400FA059C070020CC070020EC6B01087F
:10581000B61C0020250700205016002001208BF820
:105820000000DAF800301B78022BB74B14BFB74AE0
:10583000B74A1A60D8E3B74B1A681278022A83462F
:105840009A467DD1DAF80030019303F09DFD07EE12
:10585000100AF8EE477AB2EE048AC7EE887A019B06
:1058600003EB8B03C3ED087ADAF80030019303F001
:105870008BFD07EE900AB8EE677ADFEDA77A019B01
:10588000C7EE277A03EB8B03C3ED0B7ADAF800300F
:10589000019303F079FD07EE900AB8EE677ADFED29
:1058A0009F7A019BC7EE277A03EB8B030BF1010B69
:1058B000BBF1030FC3ED0E7AC4D1DAF800300193C7
:1058C000BBF1070F21D103F05FFD07EE100AF8EEE0
:1058D000477A019BC7EE887AC3ED117ADAF8003077
:1058E000019303F051FD07EE100AF8EE477A019B91
:1058F000C7EE887AC3ED127ADAF80030019303F02C
:1059000043FD019B83F84C0014E003F03DFD019B37
:105910005B445870DAF80030019303F035FD019BC9
:105920005B44D872DAF80030019303F02DFD019B3F
:105930005B4458750BF1010BBBF10A0FBDD153E36A
:10594000DAF80030019303F01FFD019B5B445870AF
:10595000DAF80030019303F017FD019B5B44D87225
:10596000DAF80030019303F00FFD019B5B440BF16B
:10597000010BBBF10A0F5875E2D135E3DFF894A1B2
:105980009FED668ADAF80030019303F007FD07EE19
:10599000100AF8EE477A019BC7EE887A03EB8B0377
:1059A000C3ED087ADAF80030019303F0F7FC07EE54
:1059B000100AF8EE477A019BC7EE887A03EB8B0357
:1059C000C3ED0B7ADAF80030019303F0E7FC07EE41
:1059D000100AF8EE477A019BC7EE887A03EB8B0337
:1059E0000BF1010BBBF1030FC3ED0E7AC6D1DAF850
:1059F00000300193BBF1070F21D103F0CFFC07EE7C
:105A0000100AF8EE477A019BC7EE887AC3ED117A47
:105A1000DAF80030019303F0C1FC07EE100AF8EE4B
:105A2000477A019BC7EE887AC3ED127ADAF8003024
:105A3000019303F0B3FC019B83F84C0014E003F0E6
:105A4000ADFC019B5B445870DAF80030019303F021
:105A5000A5FC019B5B44D872DAF80030019303F097
:105A60009DFC019B5B4458750BF1010BBBF10A0FC8
:105A7000BDD1B9E21B78537003F086FC8AF80100AF
:105A800003F082FC8AF8020003F07EFC8AF803002F
:105A9000234BDBF80000C3F8D001224AC3F8CC2125
:105AA0007930002103F086FD1F4B80F00100187053
:105AB0009AE203F069FC0B283FF649AE154B4FF014
:105AC000060B0BFB00F01B68C83003EB000B03F068
:105AD0005BFC03283FF63BAE8BF8060003F054FC5A
