:020000040800F2
:10000000B405002089010008055E0108255E01088D
:10001000035E0108015E0108FF5D010800000000A9
:10002000000000000000000000000000FD5D01086D
:10003000FB5D010800000000F95D0108075E010892
:10004000E5010008E5010008E5010008E5010008F8
:10005000E5010008E5010008E5010008E5010008E8
:10006000E5010008E5010008E5010008E5010008D8
:10007000E5010008255D0108E95B0108E5010008CC
:10008000E5010008E5010008E5010008E5010008B8
:10009000E5010008E5010008E5010008E5010008A8
:1000A000E95A0108195B0108E5010008295B01080C
:1000B000095B0108E5010008F95A01088B5D010898
:1000C000795D0108855D0108735D0108E50100089F
:1000D000E5010008815C0108E5010008DD5B01081D
:1000E000155E0108E5010008415E0108E501000810
:1000F000E5010008E5010008E5010008E501000848
:10010000E5010008E5010008E5010008E501000837
:10011000E5010008E5010008E5010008E501000827
:10012000E5010008E5010008E5010008E501000817
:10013000E5010008E5010008E5010008E501000807
:10014000E5010008E5010008E5010008994B0108F8
:10015000E5010008455B01088D5C0108395B010879
:100160007F5D01086D5D0108E5010008E5010008FB
:10017000E5010008E5010008E5010008E5010008C7
:10018000E5010008E5010008002100F004B80F4B6C
:100190005B58435004310E480E4B42189A42FFF40C
:1001A000F6AF0D4A00F003B8002342F8043B0B4BB6
:1001B0009A42FFF4F9AF0A48016841F47001016006
:1001C00015F06AFC00F010F870470000A8D4010890
:1001D00000000020B4010020B8050020A85A00202B
:1001E00088ED00E0FFF7FEBF2DE9804897B002F0F0
:1001F00097F9C14CC14DDFF8189301222A7062783B
:10020000D9F800800023237026462AB16268C2EB29
:1002100008029A42A8BF6370A768380740F17D8141
:10022000B54BDB681B7A062B00F25281DFE813F036
:10023000070007003200E9001A0147014701237C4B
:10024000AD4A002B00F0458100231374536992F8E6
:1002500011E092F818A093F800C00223F01803F1FF
:10026000010B427EA44942FA0EF202F00F026245EF
:100270000CD20B2A0AD88B44407E9BF819B001EBB4
:10028000820200EA0A000BEB0020D0620233102B3E
:10029000E4D11BE194F85C20974B002A00F0AF807A
:1002A00093F8AA10002283F85C2093F8A92001F0AB
:1002B000070042EA00221A6693F8AB2002F03F00E2
:1002C000400140EAD101596693F8AC10890041EA37
:1002D000921193F8AD2002F0010041EA8021996665
:1002E00093F8AE1001F00F00C00140EA5202DA6646
:1002F00093F8AF2002F07F00000140EA1111196766
:1003000093F8B010490041EAD21293F8B11001F00D
:10031000030042EA40225A6793F8B22002F01F001D
:10032000800140EA9101996793F8B310C90041EA4E
:10033000521293F8B510DA6793F8B42001F0070071
:1003400042EA0022C3F8802093F8B62002F03F0072
:10035000400140EAD101C3F8841093F8B710890036
:1003600041EA921193F8B82002F0010041EA80219D
:10037000C3F8881093F8B91001F00F00C00140EAEB
:100380005202C3F88C2093F8BA2002F07F000001DB
:1003900040EA1111C3F8901093F8BB10490041EAEC
:1003A000D21293F8BC1001F0030042EA4022C3F8D5
:1003B000942093F8BD2002F01F00800140EA9101D3
:1003C000C3F8981093F8BE10C90041EA5212C3F85E
:1003D0009C2093F8BF20D1074CBF40F21471AD218F
:1003E000C3F8A01093074CBF40F21473AD2312F072
:1003F000080FC4F8A4300CBF0123032369E013469F
:1004000067E094F8C1303C4A0021002B61D082F8AB
:10041000C11092F8C320012A03D0812A20D10323DE
:1004200000E0134694F8E720102A03D9324A10213D
:1004300082F8E71094F8E700314900225FFA82FE63
:10044000864501F1020144D211F801EC11F802CC09
:100450004EEA0C2CDFF8BCE04EF822C00132EDE78A
:100460000B4636E094F82821234B8AB3002283F808
:10047000282193F82921A82A2AD193F83C313BBBA3
:1004800006EB43029FED1F7A92F82C1192F82D2172
:1004900002EB012207EE902AF8EEE77A1A4AC7EE3D
:1004A000877A9FED1A7A77EEC77AFCEEE77A17EE35
:1004B000901A42F823100133082BE1D106E094F89A
:1004C000603133B10C4B002283F86021012300E03E
:1004D000002313F001021FD083F002030122C3F3B3
:1004E000400322706370C3B1F80516D500232B704A
:1004F00009F066FC11E000BFB805002000000020F4
:100500007D060020CDCCCC40F80600200080BB4307
:10051000C4190020A00600202A7079040DD594F893
:10052000613123B1AB4B002283F861210123237099
:100530001BB1FA0501D509F043FC44F208033B4026
:100540000BB123780BB9BB0403D508F5C333A03333
:100550006360FF0710D594F8621194F863219D4BF6
:100560008A4207D001225A7008F5C332A0325A607D
:1005700083F8631163782B7023783BB9954BD3F8DC
:100580006401C0EB0800C043C00F00E0012098B335
:1005900004F0A2FD012384F8683194F869318D4F8D
:1005A000002B00F0C384D7F86C31580740F1BE84AB
:1005B000D7F87031190704D408200BF017FD00F0AC
:1005C000B5BCB7F8748108F008081FFA88F8B8F1CC
:1005D000000F40F0AB8408200BF0F8FCD7F87C311A
:1005E000C7F87831B7F88831A7F88031C7F8A88103
:1005F000C7F8AC8100F09ABCD4F8B0A1754F0AF1ED
:100600000103BAF1010FC4F8B03100F0A580BAF1CE
:10061000020F00F03E81BAF1000F40F0FC82D7F8E3
:100620006C311A0740F1F782D7F8B431C3EB0803F5
:10063000002BC0F2F08208F5C333A033C7F8B43101
:1006400007F5E070D7F8BC319847634B07F5E070C9
:1006500001461A7808F0E5FC97F8C62112F0040F5D
:1006600007F5E0701DD0D7F8B431C7F8C831594B41
:1006700003F5E67151440027A1F8707103F6D41711
:1006800030F80A102AF8071003F6DA172AF80710CC
:100690000AF1020ABAF1060FE9D122F0040283F846
:1006A000C62194F8E0294B4BA2B1B3F8C011B3F8BE
:1006B0003C238A1AA3F8C021B3F8C211B3F83E2331
:1006C0008A1AA3F8C221B3F8C411B3F840238A1AD6
:1006D000A3F8C421D4F8C8313E4A002B00F09B8215
:1006E000D2F8B4113D4FCB1ABB4202F6DA1102F632
:1006F000D4171CD83A4B5A6982F480425A610023BD
:10070000C25A37F903C00FFA82FEF445C4BFDFF8BE
:10071000D8C023F80C2031F903C0F445BCBFDFF882
:10072000CCE023F80E200233062BE9D173E200233C
:10073000C2F8C83137F903E0C85E2A4A70444FF066
:10074000020E1A44734490FBFEF0062BA2F87001CF
:10075000F0D10FF069F95EE2D7F86C315B0740F138
:100760005A82D7F8E439C3EB0803002BC0F2538256
:1007700097F8E839C7F8E409012B13D002D3022B0C
:1007800036D07EE0D7F8F4399847D7F8F83998474B
:10079000D7F8E439B7F8EE2987F8E8A91344C7F881
:1007A000E4396EE0D7F8FC399847D7F8F039984724
:1007B000D7F8E439B7F8EC291344C7F8E43907F659
:1007C0000420D7F8003A07F608219847022387F853
:1007D000E83956E0B8050020D91900207FC3C901C7
:1007E000000C0240840700208C0F0020920F002094
:1007F000D7F8141AD7F810EA91F80080D4F81C1A28
:1008000087F8E8090EF10103434508BF87F818AAE5
:10081000D7F80CCAD7F8042A01F1010708BF03462C
:10082000032F04D1CE48012780F8207A002706EB59
:100830008101CB48C1F8242A94F8201AC4F81C7A04
:1008400081B1D0F8242AD0F8281AD0F82C0A8A428C
:1008500002DD17460A4639468142A8BF0146914249
:10086000A8BF0A4606EB8E01C4F8103AC1F8302A38
:1008700006EB8301D1F8301AC1EB0C0C6244C4F8CA
:100880000C2AD4F8E47908F06DFD3844C4F8E40982
:10089000C1E1D7F86C31580740F1BD8197F8183A9B
:1008A000002B00F0B881D7F8F03AC3EB080309EE4B
:1008B000903A19EE902A46F2A7139A4240F2AB8181
:1008C000C7F8F08ADFF8BC829FEDA69AB8F800104E
:1008D0009FEDA58AF7EE008A07F6FC2A07F5306B34
:1008E00089B3D7F8142AD7F80C3A1278D7F8F40A53
:1008F000DFED9E0A013AB3FBF2F3082290FBF2FE11
:10090000CEEB00000344C7F8F43A93FBF2F305EE94
:10091000903AB8EEE50A049180EE090A16F09EFDC1
:10092000049900230139A8F80010CAF80030CBF868
:10093000003038EEC00A20EE080ABDEEC00A10EE04
:10094000100AC7F8F80AD4F8147AD4F80C3A3A78AE
:10095000DFED860A013AB3FBF2F305EE903AB8EE0A
:10096000650A80EE090A16F079FD38EEC00A20EE1D
:10097000080A16F071FCD4F8F83AD7ED017AD4F8E9
:10098000041BC01A06EE900A05EE901AB8EEE60AAD
:1009900078EEE76AB8EEE57A20EE260AA7EE270A97
:1009A00016F05AFC72499FED736A91ED007AD4F803
:1009B000083BC4F8040BF8EE477A27EE866A6BB161
:1009C000674AD2F8142B05EE903A08EE102AB8EEDA
:1009D000E57AB8EEC88A88EE078A01E09FED668A5C
:1009E0005F4F9AED007AD4F81C2B07F6183393ED7D
:1009F000009AD2ED036A28EE099AF6EE005A29EE23
:100A0000279A67EE067A69EE255A78EEE68AE5EED1
:100A1000867A0023C4F80C3B9BED006AC4F8103BB7
:100A200005EE900A77EE867AB8EEE56A37EE099A17
:100A300066EE288A8AED009AE7EEA68AC4F8143B8F
:100A4000C4F8083B0B60CBED008AB8F800B0BBF1EE
:100A5000000F40F0E080D7F8201B9FED487AC7F8E0
:100A6000200B411A07EE901AF8EEE77AF8EE699A31
:100A700067EE877A40F2DC53C7EEA99A0A2107F69F
:100A80002838FDEEE88AFDEEE99AC7ED5F8A19EE97
:100A9000900A9842A8BF1846A3F6B8339842B8BF48
:100AA0001846039211F084FE039A06EE900AD2EDE6
:100AB000027AB7EE000AB8EEE67A30EE670A07F679
:100AC000FC2027EE000AA9EE270A80ED000A16F0A6
:100AD000C3FB0521824611F06BFEB7F82C3BC7F82B
:100AE000240B03F21F339BB240F23E62934298ED17
:100AF000009A09D8B7F82E1B01F21F3189B2914232
:100B00008CBF0021012100E0594611F001017ED087
:100B100094F8323B124F002B36D118EE901AD7F8CA
:100B2000783117485B1AB3F5FA7FA8BF4FF4FA7310
:100B30008342A8BF18460A2111F03AFED7F8343B89
:100B40001B798022584390FBF2F3B3F5967FA8BF40
:100B50004FF49673A2F5D6729342B8BF134615E0D0
:100B6000B805002080E6C547D048874AB1DC423E40
:100B7000CC190020BD3786350000000000247449E0
:100B80000CFEFFFFC8190020BB4B1B68D4F8342BA8
:100B9000D4F8A871917ACAEB03035943202091FB42
:100BA000F0F1107D927F07EE902A38EE099AF8EE68
:100BB000E77A03FB007027EE899ADFEDB07AB04B3D
:100BC000B0F5C81FA8BF4FF4C81029EE279A984265
:100BD000B8BF18464FF40053C4F8A801BDEEC99A37
:100BE00090FBF3F0A74BB1F5967FA8BF4FF4967139
:100BF0009942ACBF4118C11819EE103A6FF0950236
:100C0000962BA8BF96239342B8BF1346C91AC4F8BF
:100C1000AC1188ED008AD4F8B031032B03DD9A4B78
:100C20000022C3F8B021A368190640F17F81964BDA
:100C3000D3F8383BBBB994F83C3B013B052B00F2A1
:100C40007581DFE813F01700170017001700600127
:100C50003B018D4BD3F8380B08F03AFD05F02CFE24
:100C600008B112F0C9FBD6F8380B08F036FD0028A1
:100C7000EFD1E0E7D4F85C2B834F1278012A05D03E
:100C8000C0F00A81022A00F007814FE1D7F8380B43
:100C900008F009FD002800F0498197F83C3B013B32
:100CA000032B00F24381DFE803F00247578B774BB9
:100CB000D4F8542B1968744B8A1AC72A40F236812B
:100CC000D3F8500B042835D8714AC3F8541B0C27AD
:100CD00007FB0020D3F8387B90F821E0D7F8088094
:100CE0000023104650F8231041455FFA83FC04D0DE
:100CF0000133082BF6D1002300E06346734505D08D
:100D0000384652F82E1008F0DEFC0FE194F83D3B17
:100D10000C2202FB0300D0F8248018F8011B19B143
:100D2000384608F0EDFCF8E7D4F8503B0133C4F83E
:100D3000503BFBE00220F7E0554B94F83D2BD4F8F4
:100D4000380B0C2101FB023292F8212053F82210BB
:100D500008F0B9FC0320E7E094F8583B1BB94A4B74
:100D6000012283F8582B94F8583B474F012B17D199
:100D7000D7F8503B072B0DD8454AD7F8380B13440A
:100D800093F85C1008F0BCFCD7F8503B0133C7F86F
:100D9000503B05E00023C7F8503B032387F8583B3E
:100DA00094F8582B384B022A40F2C080D3F8602BBD
:100DB000002A00F0BB80002283F8582B0420B3E007
:100DC000D4F85C2B304B9278002A75D093F8582BCE
:100DD00012B9012283F8582B94F8583B2A4F012B63
:100DE00025D1D7F8603B2B4A9342D7F8503B0FD818
:100DF000E22B06D8264AD7F8380B134493F8641030
:100E00000EE00023C4F8503B022384F8583B0EE068
:100E1000DB2BF6D81E4AD7F8380B134493F847114A
:100E200008F06EFCD7F8503B0133C7F8503B94F8FC
:100E3000583B154F022B1AD1D7F8503B0F2B13D824
:100E4000D7F85C2B12495278D7F8380B02EB021214
:100E50000A44134493F8241208F052FCD7F8503B8C
:100E60000133C7F8503B02E0032387F8583B94F85E
:100E7000583B022B5AD91FE0D41900200000003B38
:100E80000000E7FFD4FEFFFFB80500208C5A0020C9
:100E9000249201086F110100012B47D8CB4B97F822
:100EA0003D2BD7F8380B0C2101FB023292F82120A0
:100EB00053F8221008F007FC052035E0D4F8442B45
:100EC000C34B0132C4F8442BD4F85C2BD2785AB10E
:100ED00093F83D2B0132D2B20521B2FBF1F101EBC7
:100EE0008101521A83F83D2BBA4B1B68C4F8483B6A
:100EF000002384F8643B94F8C63123F0020384F89D
:100F0000C631012010E0B34BD4F8482B1968B04B20
:100F10008A1A40F6C4118A4208D9D3F86C2122F00B
:100F20002002C3F86C21062007F01EFE08F01AFA12
:100F3000D4F8743BC9F800000FA898479DF83C30DE
:100F400043B9A54B1A68A24BD3F87C3BD31A002BAC
:100F5000C1F29782D9F80020D4F8803B9C4FD4F896
:100F6000848B134403F5FA73C4F87C3B07F688308E
:100F7000D4F86C3B984707F6883094F88E2B0146DE
:100F800008F04FF8954A1388002B00F09680D7F8A8
:100F9000903B1B78002008EE103A07F69437824603
:100FA0008E4BDFF848C2B3F800B0BBF57A7F03D1AF
:100FB00000234CF800303B6189495CF8003031F97E
:100FC0000AE073444CF800303B6905EE90EA0133C7
:100FD000012BF8EEE57A3B6106D10023C7ED017ADB
:100FE000C7ED007ABB6019E097ED006A05EE903A14
:100FF00077EEC66AB8EEE57A86EE877A36EE077A3D
:1010000037EEC76AD7ED027A87ED017AE6EE867A87
:1010100087ED007AC7ED037AC7ED027A714B4FF086
:10102000000CBBF1010F21F80AC02AF803C02ED131
:101030003969012909DD013900EE101AD7ED037A6B
:10104000B8EEC00A87EE800A01E09FED670A0490BF
:101050000392029316F0A6FB18EE101A0498039A56
:10106000029B51B1F8EEC87AB4EEE70AF1EE10FA3D
:1010700003DD4FF47A7313801FE05C4941584FF44D
:101080007A7E01F5FA7C9CFBFEFE23F80AE00AF169
:10109000020ABAF1060F00F1040007F114077FF409
:1010A0007FAFBBF1010F04D1584603920AF006FF4F
:1010B000039A0BF1FF3BA2F800B00023444F07F660
:1010C000883A07F6DC3233F80A109A5A8A1A23F85B
:1010D0000A200233062BF1D1D7F86C3113F002034A
:1010E00000F0EA82D7F8E83B07F53F609847404BAD
:1010F00007F53F601A78014607F093FFB7F8F63B13
:10110000002B45D00022D7F8F87B1346B6F8F61B23
:10111000DFF8E0E0B1F5C87F04BF00214EF803100E
:101120002B495EF8030001F53F6C32F90CB05844CE
:101130004EF80300043300200C2B22F80C00B852A8
:1011400002F10202E2D1B1F8F63B012B1BD1D1F83A
:10115000FC3B4FF4C872C83393FBF2F33B80D1F8E9
:10116000003CC83393FBF2F37B80D1F8043CC833D6
:1011700093FBF2F26B88D21ABA80A8F85800A8F84C
:101180005A000EF051FCB4F8F63B013BA4F8F63BD4
:10119000A2680F4B520740F19280B3F8082C322A14
:1011A0002AD1D3F8F82B1188A3F80A1C5188928809
:1011B000A3F80E2CB8F85820A3F8102CB8F85A2031
:1011C000A3F80C1CA3F8122C18E000BF249201080D
:1011D000B80500208C5A0020C4190020D019002026
:1011E0004011002094110020000000008811002010
:1011F000C0190020B4110020002A3FD00023D4F8E9
:10120000F8BB1846B6F8082CB849B94F322A04BFC3
:1012100000220A5007F53F6E0A5833F90EC06244A7
:101220000A50043000220C2823F80E202BF803204B
:1012300003F10203E6D1B7F8083C012B19D187F876
:10124000213C87F8202C0AF039FEB7F80A3CABF8AD
:101250000030B7F80C3CABF80230B7F80E3CABF8F6
:101260000430B7F8103CA8F85830B7F8123CA8F88A
:101270005A30B4F8083C013BA4F8083C94F8222CFE
:101280009B4BE2B1D3F8140CD3F8F81B32270022A1
:1012900090FBF7F083F8222C0880D3F8180C90FB11
:1012A000F7F04880D3F81C3C93FBF7F76B88FF1AE4
:1012B0008F80A8F85820A8F85A200EF0B5FBD4F873
:1012C000F83BB4F8F01B1A888A1AA4F8F02B5A8855
:1012D000B4F8F21B8A1AA4F8F22B9B88B4F8F42B0A
:1012E000D31AA4F8F43B08F03DF8D4F8243C814A22
:1012F000D4F82C7CC4F8240CC31A0AEE103A134616
:1013000093ED006A97F800C0B8EE4A9A002329EEE0
:10131000066A083219460DF1240E0EEB43003AF925
:1013200003E007EE90EAF8EEE77A67EE867AC0ED22
:10133000007ABCF1000F1DD005EE90CAB8EEE57A38
:10134000F7EE006A86EE877A6B48C05E07EE900A79
:10135000F8EEE77A694867EE877A36EEC77AD2ED1B
:10136000006AE6EE877AC2ED007AFDEEE77A17EEC4
:1013700090EA04E06148A0F14C0E33F80EE023F847
:1013800000E05E4833F800E00233062B1EFB0E112E
:1013900002F104028346BED16B884FF064085B43C0
:1013A00008FB01F191FBF3F8A8F14908083009A9FD
:1013B0001FFA88F811F0D4FAB8F13B0F97ED017AD3
:1013C0000BF1080312D9B4F9501CD3ED020A484AB4
:1013D00007EE901AF8EEE77A94F8C611F4EEE70AF1
:1013E000F1EE10FA1CDD41F008011BE0F7EE007A87
:1013F00037EE276A194687EE866A00223BF902C05B
:101400000232062A07EE90CAD1ED006AF8EEE77ABA
:10141000E6EE877A67EE866AE1EC016AEED1D2E702
:1014200021F0080193ED010A82F8C611029316F02B
:1014300013F8029BDFF8CC8093ED027AD3ED017AAA
:1014400088ED000AF0EE408A27EE070A9BED028A3B
:10145000DFED2B9AA7EEA70A16F0A4F9B1EE488AA1
:10146000F0EE400AB0EE480A15F0F6FFB0EE408A02
:1014700088ED010A28EEA90A15F0EEFE28EE290AE9
:10148000A4F82C0B15F0E8FED4F86C31A4F82E0B60
:101490001B0739D508F1080009A911F061FA97ED89
:1014A000027AF7EE007A37EE276A08F1080287EE33
:1014B000866A0023DFF838B00BF5E071595E02331D
:1014C000062B07EE901AD2ED006AF8EEE77AE6EE08
:1014D000877A67EE866AE2EC016AEBD10BF65C4034
:1014E00008F0CEFBABF8680C3FE000BFCC11002049
:1014F000B8050020E0110020A8110020F411002000
:101500004C3D0F440C120020A34B0293181D09A957
:1015100011F026FA95ED020A95ED017AD5ED037AE0
:1015200020EE000AA7EE070AA7EEA70A16F03AF97E
:10153000B5EE400AF1EE10FA029B11D093ED017A5C
:1015400087EE007A83ED017A93ED027A87EE007AD6
:1015500083ED027A93ED037AC7EE007AC3ED037A46
:101560008E4808F08DFBA4F8680CDFED8D7AB4F995
:1015700068EC9FED8C7AB4F93C0CB4F93E1CB4F9DC
:10158000402CDFF8348229EE279A07EE90EAF8EE35
:10159000E77AF1EE688A67EEC77AB1EE488ACDED58
:1015A0000E7A07EE900AF8EEE77A0FA8CDED0F7AE3
:1015B00007EE901AF8EEE77A0CA9CDED107A07EE57
:1015C000902AF8EEE77ACDED0C8ACDED117A8DED0B
:1015D0000D8A11F0C5F97B78DDED117A012B1FD151
:1015E000714B1B78580711D4D8F86C3C402293FB00
:1015F000F2F29A1A07EE102AB8EEC77A37EE277A77
:10160000BDEEC77A17EE103AC8F86C3CD4F86C3CC3
:10161000402293FBF2F305EE903AB8EEE57A04E04F
:10162000688807EE100AB8EEC77A604B9DED0F0A86
:1016300093ED008AD4F80C8B77EEC77ACDED117A52
:10164000D3ED017A79EE277A89EE279ADDED117ACA
:1016500077EEC87AA9EE278A83ED008A15F0FCFDA3
:10166000D4F8787C397811F0A3F89DED100A404445
:10167000C4F80C0BD4F8108B15F0EEFD397811F08E
:1016800097F8B0EE480A4044C4F8100BD4F8148B15
:1016900015F0E2FD797811F08BF8454B1AEE101A2F
:1016A0001A680A441A60D4F8083B40440133C4F86D
:1016B000140BC4F8083B05E0A7F8F03BA7F8F23B91
:1016C000A7F8F43B07F04EFED4F87C3CDFED347A0B
:1016D000C9F80000C31A1FFA83F805EE908AB8EE25
:1016E000658A344BD4F8849BA4F8808C28EE278A32
:1016F000C4F87C0C83ED008A99F852302BB9D4F8E9
:10170000880C2D4B002862D11AE000273AF9070017
:101710002A4B99F8521000EE100A062000FB073001
:10172000B8EEC00AF0EE480A08F017F9BDEEC00A9C
:1017300010EE103A2AF807300237062FE6D1DEE71E
:10174000996842F201020A40C2B144F62062C3F82D
:10175000882C09F18509034619F8031009EB0302E7
:1017600041B99078D178884204D25378043384F810
:10177000B03C29E00433502BEED125E093F85623FA
:10178000012A06D002D3022A03D019E045F2F05212
:1017900018E042F6F82215E00000002004000020C6
:1017A000BD37863535FA8E3CDA1900202812002024
:1017B000CC1900203C120020B80500204412002063
:1017C00042F21072C3F8882C0123A4F8B23CD4F87A
:1017D000B42CC64B06EB42060132042AA6F8B88C9C
:1017E000C4F8B42C27DDB3F9B81CB3F9BA2C0A44F9
:1017F000B3F9BC1C0A44B3F9BE1C0A44B3F9C01CBB
:10180000B3F9C23C0A44052192FBF1F291B203F50F
:10181000C870814203DCA3F5C873994208DAD4F892
:10182000883CA4F8C22CB3FBF2F30133A4F8B23C19
:101830000023C4F8B43C94F86821AC4BE2B3B3F88D
:10184000B21CB3F8C46C08B20022A84B03F5C177F0
:1018500003F6C64C32F807E032F80C8003F6CE47A8
:1018600018FB06F832F8079022F807E0C9EB0E09DA
:1018700098FBF0F8C84422F80C800232082AE4D120
:1018800093F8B02C8AB103EB4202B3F8D6ECB2F86D
:101890008221B3F8D87CA3F8D82C1EFB06F6D71B00
:1018A00096FBF0F03844A3F8D60C0023013984F8F5
:1018B0006831A4F8C41C04E0B3F8C42C013AA3F8BE
:1018C000C42CB4F8C46C894B30B200284FF000022D
:1018D00027DDB3F9B21C854B03F6C64703F6CE4CA1
:1018E00032F807E032F80CC01EFB06FE03F5C177A4
:1018F0009EFBF1FECEEB0C0E22F807E00232082A26
:10190000E9D193F8B02C72B1B3F9D66C704390FB67
:10191000F1F1B3F8D80C03EB4202411AA2F882119C
:1019200001E0A3F8C42C02F097F9D4F870316F4E9F
:10193000012713F4801384F8697100F09980B6F8D8
:101940007431190600F1F580694B1B7803F004032C
:1019500003F0FF09002B79D096F8DA3C13B196F822
:10196000DB3C3BB1634B00221A6001232B74002344
:1019700084F8DB3C2B7C5D4FD4F8846B84F8DA3C34
:10198000032B06D1304607F54E61542215F04BFA71
:1019900055E0012B07D107F54E603146542215F072
:1019A00042FA002302E0022B02D1012387F8343DE2
:1019B000012384F8353D84F8363D4F4BC4F8406D23
:1019C00000221A605A6032784C4984F8442D94F809
:1019D000342D0A44B2EE047A92F87812484A43F859
:1019E0005C2C0E4484F8451D717896F815C007EEFE
:1019F000901AF8EEE77A03F11002C7EE877A9FEDAE
:101A0000417AC3ED047AF37A07EE903AF8EEE77A7A
:101A1000C7EE877A9FED3C7AC2ED017A07EE90CA55
:101A2000F8EEE77A67EE877AC2ED027AFCEEE77AA3
:101A300017EE903A73750023F3720CF025FE8020A8
:101A40000AF0C4FA012384F8543D72E006F6DC483B
:101A5000D8ED007AF5EE407AF1EE10FA69D00DF08B
:101A6000E3FF0023C8F8003086F8DA9C2F7460E0AA
:101A7000B6F87421120651D596F8DA2C511E0129B8
:101A80002ED8D6F8403D96F8452DDFED1E7A93F816
:101A900001E006F6485696ED017A67EE277A1A4479
:101AA000FCEEE77A17EE901AD17296ED027ADFED2E
:101AB000177A67EE277AFCEEE77A17EE901A07EEB0
:101AC00090EAF8EEE77A517577EEA77AFCEEE77ABE
:101AD00017EE902ADA70DA7A5A735A7DDA7517E0BF
:101AE000032A15D186F8DA3C2F7414E0B8050020DB
:101AF000DA19002094120020F0120020249201082C
:101B00000000A04100007A445555553F9A99993FED
:101B10002B7C01332B7480200AF068FA964B1B78DB
:101B2000580706D494F8543D1BB1944B012283F816
:101B3000DB2CD4F86C61914A310739D5B2F85A1DC3
:101B400001F145039BB28A2B2ED8B2F874315B07A2
:101B50002AD5B2F8680CB2F85E3D94F8C671C21A84
:101B600092B293B218B2B330BCBF02F5B4739BB259
:101B70001AB2B32AC4BFA3F5B4739BB23F077F4A1E
:101B800094F82A0314D540B240424343D2F8840B60
:101B9000407A9BB213FB00F36FF01D0093FBF0F350
:101BA0001944A2F85A1D03E0B4F8683CA4F85E3D5D
:101BB00016F0140F7DD0B4F87421704B02F4027249
:101BC000002A76D093F8C62102F0100202F0FF003E
:101BD00052B1B3F8581D93F97A03D3F8AC2100FB46
:101BE0000212A3F8582D64E0D3F8602DD1789278D2
:101BF00079B3B3F98011B3F98871C1EB070EBEF167
:101C0000000FB8BFCEF1000E964510DDC3F8A80155
:101C10008F424FF00100C8BF524283F8640DB3F801
:101C20005C3DC8BF92B21A44A4F85C2D41E093F821
:101C3000642D2AB1D3F87C21C3F8782183F8640D90
:101C4000D4F8AC31D4F8682D1944138852889942DD
:101C500028E0B3F98001B3F988713F1A87EAE77E7B
:101C6000AEEBE77E96450ADD022297FBF2F7444A87
:101C70001760012283F8322B83F8642D0AE093F871
:101C8000642D3AB1D3F87C21C3F8782183F8321B54
:101C900083F8641DD4F8681DD4F8AC210B884988FA
:101CA00002449A4203DB8A42B4BF13460B46A4F8AF
:101CB0005C3D6B7CB3B1B4F98821B4F85E339A42D1
:101CC00010DC2E4B93F8D131012B01D0192B02D10E
:101CD00094F8742332B90E2B04D0082B1CBF0023B8
:101CE000A4F85A3DD4F8847B244D97F82481B8F1A8
:101CF000000F4FD0B5F874319B074BD005F6444325
:101D000093ED010AD3ED007A93ED028AB5F85C9D5C
:101D100020EE000AA7EEA70AA8EE080A15F042FD79
:101D200088EE000ADFED177AB4EEE70AF1EE10FA5A
:101D30002CD915F033FB05F66C55D5ED007A20EE65
:101D4000270A15F089FAB0F5617FA8BF4FF46170DA
:101D500005EE900ADFED0C7AB8EEE50A80EE270A70
:101D600010F035FD06EE908AF8EEE67A27EE800A4E
:101D700015F072FA80B20AE0DA190020B8050020E6
:101D8000D41900208FC2753CEFB6B04400204844FF
:101D9000A4F85C0DB6060BD5B4F8743103F030032B
:101DA00033B18A4B93F8C631DD0701D508F080FEC8
:101DB000864DB4F8342305F24E330093844BD4F8A7
:101DC000701D1E68384607F15803B04794F8741D1B
:101DD000032916D9D5F8783D5A88B2F5FA7F10D282
:101DE000B5F9800DB5F95A5D5342002DB8BF6D426B
:101DF0005B1B984203DB53198342A8BF0346A4F838
:101E0000803DB4F85C0DB4F87E5DB4F87C6DD4F818
:101E1000787DB4F980ED6F4B00228A4203F1100304
:101E200035D297F901C0CCF1000C0EFB0CFC07EE8B
:101E300010CA0FFA86FC06EE10CA0FFA80FC05EEF7
:101E400090CA0FFA85FC07EE90CAF8EEC76AF8EE62
:101E5000E77A13ED027ADFF884C167EE877AF8EE4D
:101E6000E55A13ED047AE5EE877AB8EEC66A13ED0B
:101E7000037AE6EE077A13ED017AE6EE877AFDEE55
:101E8000E77A17EE908A2CF812800132C5E7524BA0
:101E90001A7802F0040202F0FF03002A72D094F8CC
:101EA000619EB4F8445E01238B424C482EB207D2A7
:101EB00030F91350B542B8BF3546ADB20133F3E740
:101EC000D4F8642ED4F8687E5388D4F86CEE9E4221
:101ED000C8BFC3EB0505A368B4F9886103F4805A51
:101EE00003F0100BD4F8783D05933C4BCCBFADB25A
:101EF000002500EB410843453BD01988491B89B2B6
:101F000023F8021B09B2BAF1000F0AD0F889864201
:101F1000C7BFBEF80200B2F802C09088BEF800C089
:101F200005E0B2F802C0B9F1000F09D090888142F3
:101F300003DB6145B4BF0846604623F8020CDAE7CC
:101F40001088814203DB6145B4BF0846604623F830
:101F5000020C398A8E42CEDABBF1000F01D0918893
:101F600004E0059801780029C5D1118823F8021CE6
:101F7000C1E794F8702E154B013AD2B2182A00F23C
:101F800054810AE08B42F4D2144A02F12E0030F858
:101F9000130022F813000133F4E701219140104AA5
:101FA0000A40002A00F04181B3F87421D00519D508
:101FB000B3F8562DADF83C20B3F8582DB3F85A3D80
:101FC000ADF83E20ADF8403025E000BFB805002058
:101FD000140000203C130020DA190020FC1300201C
:101FE00099209801B3F87C2D9968ADF83C20B3F89E
:101FF0007E2DADF83E20C904B3F8802DADF8402009
:1020000009D5B3F98811D3F8683EDB899942BCBF82
:102010005242ADF84020B4F92E1B4FF47A7201F50C
:10202000E16151434FF4616391FBF3F1A1F5FA7162
:10203000ADF85410B4F92C1B01F5E1614A4392FB51
:10204000F3F3A3F5FA73ADF85630B4F8443EB4F8A0
:102050008221A3F2DC53ADF84230D4F8683EDB892C
:10206000D21AADF84420B4F88421D21AADF8462033
:10207000B4F88621D21AADF84820B4F88821D21AD3
:10208000ADF84A20B4F88A21D21AADF84C20B4F841
:102090008C21D21AADF84E20B4F88E21D21AADF8A8
:1020A0005020B4F89021D31AADF852300022BC4B26
:1020B00003F68A60002111520232102AF7D1D3F8B8
:1020C0007021D3F89C4E93F89A3E05925B000793DB
:1020D00006940B46079EB248B34200F08B8000F591
:1020E0006A646218957935B10126153506FA05F549
:1020F000059E354078D0675C069892F904B092F856
:10210000019092F803C092F805A0C7EBC70600EB58
:1021100046064FEA490EB6F90000B6F902502D1AEC
:10212000ADB2642005FB0BFB9BFBF0FB4FEA5508AF
:10213000C8EB0B0B1FFA8BFB9A4816ACBCF1000FD7
:1021400003D1744434F81C4C0CE0A644C45E3EF940
:102150001CEC744508DAA444A44503DBE645B4BF8F
:1021600074466446C4520AE009DDCCEB040CF44525
:1021700003DBA445B4BFE646A64620F803E04FF0D3
:10218000010ED6F80A60864892F902200EFA09F983
:1021900019EA060F0CBF76464FF0FF3600F5716E58
:1021A0007F0033F80EE012FB0EF24FF0640EC419FC
:1021B00092FBFEF20FFA8BFB5A45B4F88A4EB6B288
:1021C0000CDB4FFA8AFB05FB0BFB9BFBFEFBC8EB12
:1021D0000B0B0FFA8BFB9345A8BF934607440BFBF1
:1021E000064BA7F88ABE02E000F571601D5202336B
:1021F00007316FE70024D0F89C8E25460E2202FBA3
:102200000582694E92F90670A35B17FB03F76423FE
:1022100097FBF3F7A753E8B207F018FD01353844F0
:10222000082DA05304F10204E8D15D4CA66816F015
:10223000200734D0002007F009FDA4F88A0E0546D7
:10224000012007F003FDD4F87031A4F88C0E1B06B2
:1022500025D5D4F8303FB4F82C2B1B78012B22D194
:10226000D4F89C3EB4F92EEB93F9141093F9063090
:1022700011FB02F25B4232210EFB03F392FBF1F2FF
:102280006FF0310E92B293FBFEFE964493FBF1F198
:1022900075440A44A4F88A5E1044A4F88C0ED4F85D
:1022A0009CAE002319E0D4F89C1EB4F82E3B91F9A3
:1022B00006E091F914101EFB03FE32239EFBF3FE91
:1022C00011FB02F2754492FBF3F3A4F88A5E184402
:1022D000E3E7D1520233102B10D0C3EBC305324ACF
:1022E0005544985EB5F90010B5F902508842904601
:1022F000EFDB29B28842B8BF0146EAE7284BD3F8A2
:10230000789D99F90830A3B994F870AE0AF1FF33BB
:10231000182B7AD8DFE803F02F7979577979794E3D
:102320007979797979637979797979576E79796376
:102330002F0000251D4BB9F9062038F9051044205F
:1023400000FB053007F034FBC5EBC50280B228F86E
:102350000500524400B2B2F90030B2F902209842AE
:1023600003DB13B29842B8BF034628F805300235A4
:10237000102DDFD1C8E799F804301BB10020B4F864
:10238000941E08E00A4B1B7803F0040303F0FF00DF
:10239000002BF3D1014610F097FE012536E000BF77
:1023A000B8050020C814002042140020F0140020BA
:1023B000DA1900200020B4F8901E10F085FE0120EC
:1023C000B4F8921E07E00020B4F8921E10F07CFED4
:1023D000B4F8941E012010F077FE02258BE0002552
:1023E00008EB4503E8B29988013510F06DFE062D23
:1023F000F6D10BE0002508EB4503E8B2D98801359A
:1024000010F062FE042DF6D175E0002517B9BAF17F
:10241000050F0CD12846B4F88A1E10F055FE681C32
:10242000C0B2B4F88C1E10F04FFE0235EDB2F002CF
:1024300004D4324D95F880326BB91AE00026304B47
:1024400003EB4603A819C0B2198910F03DFE0D2E0A
:10245000EFD00136F3E72B4ED5F884323268D31A29
:10246000002B06DB09F07CFC336803F58273C5F8AA
:102470008432254B1B7823B9A368190301D507F0D3
:1024800083FD214B214C1B7833B9A3685A0503D532
:10249000B4F81A030BF014F9A368DB037DF5A9AEB9
:1024A000164B93F88832002B3DF4A3AE184B1A78E4
:1024B00002F0FF03002A7DF49CAE144A154CD2F8BA
:1024C000702112F4804F0CD0A27C62B1124A1168C4
:1024D000124A99500433802BF8D105F0E6FF00230F
:1024E00000E00123A374A37C002B3DF482AE0EF028
:1024F000F5FFFDF77EBE002F99D08BE7B0160020C8
:102500003A070020C4190020D8190020B80500207F
:10251000D2190020000000202CA201083A19002046
:102520002DE9F04F2DED028BC04CC14B2360A3B0C1
:10253000002363600FF034FE18B90DF0A1FD0FF019
:1025400053FEDFF85493BB4FBB4EDFF84483DFF8F4
:1025500038A30CF01DFF99F8003043F0010389F80F
:10256000003010F08FFAB54BFB60736FA360B44B73
:10257000BB60736BB34823F080037363736F43F0E6
:1025800080737367336B43F03F0322AD33630323E0
:102590008DF84E3041F6FF7325F83C3D294606F094
:1025A00015FD4FF6FF73A848ADF84C30294606F0EC
:1025B0000DFDA648294606F009FDDFF8E0C2CDF87A
:1025C00010C06046294606F001FDA148294606F0E4
:1025D000FDFC29469F4806F0F9FC284606F062FCFF
:1025E000139B9D4AB3FBF2F3E3609C4B9C4A4FF074
:1025F000000BC3F800B09B4B5A60F02287F82320F1
:102600000722C3F808B0984F1A60D8F80830CAF803
:10261000003097E80F0085E80F00336BDDF810C03D
:10262000139843F008033363336B43F008033363B9
:102630004FF48043ACF818304FF40043ACF8183036
:1026400014A906F0C3FC16A9159806F0BFFC642077
:1026500006F0E7FF85485946A02214F0EDFB336CE5
:1026600043F013033364736C43F001137364804BC2
:10267000B94603F1C0009A7ADF7A53F8106B02F082
:102680000701D20806EB82028900166A4FF00F0E8E
:102690008F400EFA01F126EA01011162166A8342A7
:1026A00047EA06011162E6D10023604F07F11002EC
:1026B0000021995401330C2BF7D1FF233B777B7713
:1026C000BB77FB776B4BDFF8D8B16B4EC3F800B02C
:1026D0006A4B04221A703046302214F0ADFB1423EA
:1026E000337002233376052386F82430644B98F840
:1026F00005A083F800A0ABF5D2733B62ABF1E40315
:102700007B62604B604903EBCA030E685B78BB6277
:10271000B30644BF0123BB6200235C4A40F2DC5194
:1027200099520233102BF8D10CA800211C2214F06E
:1027300083FBBAF10E0F04D00AF0EF0ABAF1080FCA
:1027400002D101238DF84230052006F043FD18B177
:102750004088003018BF0120C6F340038DF83730A1
:10276000C6F380138DF83930C6F340338DF830301E
:10277000C6F3C03300F001008DF8333016F4006367
:102780008DF8360004D098F87E315F1E7B427B4185
:102790008DF83430C6F300438DF83A30A36AB8F8A8
:1027A0004401ADF84600003318BF01238DF83B30DB
:1027B000C6F300538DF83C30B8F84631ADF84030E0
:1027C000B8F85231ADF83E30C6F3804306F001014F
:1027D000C6F3C0028DF83830F004B8F850318DF8E7
:1027E00031108DF83220ADF8443004D52848B0F8C7
:1027F0004C01ADF84600B3F5FA7F84BF0023ADF875
:102800004630244898F89A3184F82C30002384F814
:102810002D3043709DF84230002B14BF022300235B
:1028200000293FD1002A3ED03CE000BFDC19002047
:10283000C597000800ED00E0003802400005FA05E9
:1028400000000008000002400004024000080240AE
:10285000001002400014024040420F00905A002035
:102860003F90020010E000E048AC0108D85800207A
:1028700038B301086C2A0020683700206437002034
:1028800028140020F4B30108C005002042140020E1
:1028900084070020091A0020945A0020000C0240EE
:1028A00038090020013309EB83034FF000091B694D
:1028B0000793CDF81890079A32F809804FF6FF7306
:1028C000984500F003815FFA88F3B64A9DF83A1004
:1028D0004FEA031B4FEA182802EB0B0629B152F806
:1028E0000B10B148814200F0EB80B8F1020F02D129
:1028F0009DF8301004E0B8F1010F04D19DF83110BB
:10290000002900F0DD809DF83C1031B19DF84210A7
:1029100019B9043B032B40F2BC80B8F1010F3BD145
:10292000FF230027318984F8743084F87530737B75
:10293000706884F87870C4F88460ADF84C108DF835
:102940004E30294602238DF84F3084F8307067638B
:10295000A763E763276784F8767084F87770059239
:1029600006F034FB059AB17A52F80B003A4605F0AE
:10297000A3FA30463946424609F06CFA8B4B8C4933
:10298000C4F888308B4BC4F88C30C4F89070304653
:102990000A1D06F095F893E0B8F1020F3DD10699B3
:1029A0008548B6F808E0ADF84CE0CBB21C2159439D
:1029B0004718069B7B704FF0000A012387F802A09E
:1029C00087F80AA04354717B7068FE608DF84E1042
:1029D0002946039305928DF84F8006F0F7FA059A81
:1029E000B17A52F80B00524605F066FA039B304666
:1029F0001A46514609F02EFA704B3B61704B7B61D1
:102A000007F11001C7F818A0304607F1140206F0CC
:102A100057F806990131069152E0B8F1030F35D10C
:102A20009DF838303BB194F82E70304608214FF6AF
:102A3000FF7200231CE0BDF8442094F82E70BDF80E
:102A40004630B2F5FA7F0DD95E49B1FBF2F230465D
:102A5000082192B208F05EFD04EB87075A4BC7F8D5
:102A600058010CE05949B1FBF2F23046012192B213
:102A700008F050FD04EB8707554BC7F85801C360B9
:102A800094F82E30013384F82E3019E0B8F1040F99
:102A900016D1BDF83E304D4A94F82D7092FBF3F2FA
:102AA0003046BDF84030012192B208F033FD94F871
:102AB0002D3004EB87070133C7F8880184F82D30E7
:102AC00009F10209B9F1180F7FF4F5AE94F82D2041
:102AD00084F8A8213F4A404B1678A6F11702002738
:102AE000022A1F709E461AD8236A3B44D3ED007A0F
:102AF000F5EE407AF1EE10FA02D1A36A63BB26E04C
:102B0000364A07EB020C0FCB8CE80F009EF8003022
:102B100010370133C02F8EF80030E5D1EDE7304B90
:102B200013F836808EF8008003EBC603D3F80490C8
:102B3000B9F1000FE1D04745DFDA284A3B0103EB4A
:102B4000020C4B440FCB01378CE80F00F3E725490B
:102B50000B68DA0450D41FE0234B244A03EBC6036E
:102B60005F6A93F820001070002FF0D0002383429A
:102B7000EDDAC3EBC3017A18DFF87880D2F8009061
:102B800041F8089001EB080C9188ACF80410927998
:102B90008CF806200133EAE706F0EF03082B144B0C
:102BA0004AD14BE034B30108000C0040372401083F
:102BB000641A002039250108541A0020F57E000807
:102BC0001125010800127A005925010840420F0022
:102BD00049250108281400202C1300203C13002054
:102BE000F4B30108C005002048AC010852140020CD
:102BF0007E070020581400209EF800100129CBD930
:102C0000A64B00228A4203F11003C5DA13ED047AC1
:102C1000F6EE007A27EE277A013203ED047A13EDFF
:102C2000057A27EE277A03ED057A13ED037A67EE2E
:102C3000277A43ED037AE5E70E2E08D11A7842F0A1
:102C400010021A70182E08D106F0DAFF05E01A7883
:102C500022F010021A70192EF5E709F065F8904A73
:102C600013685B0302D48F4B01221A708E498F4F79
:102C70000B7843F004030B708D4B93E803008D4BEE
:102C800085E803001A6B139842F004021A6314A932
:102C900006F09CF90AF01AFB0CF0F8FA12F066FE46
:102CA000B7F858214AB9B7F95A3143B9B7F95C3185
:102CB000D3F1010338BF002302E0002300E01346F4
:102CC00013F0010324D112B207EE102ADFED7A7A55
:102CD000B7F95A217949B8EEC77A0B7027EE277AEF
:102CE000B7F95C318DED137A07EE102AB8EEC77A8A
:102CF000284627EE277A72498DED147A07EE103AAE
:102D0000B8EEC77A67EE277ACDED157A0FF0CAFDD7
:102D10006C4B6D481B68B7F86081B3F8563006936A
:102D200000210C2297F85FB197F867A1B7F80C90D3
:102D3000664E14F081F814226548002114F07CF8E6
:102D4000644B00221A7094F8D03133B10022A4F8F9
:102D5000D22153B908F0D0FA07E003930DF04EF9F1
:102D6000039B002800F01087F0E7B8F5807F14D0AF
:102D7000B8F1BB0F13D8B8F1610F12D8B8F1290F11
:102D800011D8B8F1130F10D8B8F1090F0FD8B8F156
:102D9000000F0CBF002306230AE0002308E00123F4
:102DA00006E0022304E0032302E0042300E00523FD
:102DB000494A118821F040010904090C1180118849
:102DC00021F038010904090C41F03001118011880B
:102DD00089B241F04001118094F8D4110393192075
:102DE00008F073FA012006F011FC039B1A20194623
:102DF00008F06BFA012006F009FC28460AF062F997
:102E00009DF94E30013303D19DF94C30013303D08D
:102E1000B4F8D2319BB223B10023A4F8D23100F030
:102E2000B3BE2B4B2D4A1A602D4A5A602D4ADA60E8
:102E300064202D4A1A6106F0F4FB264B2B4C2C4DD6
:102E400004221A7006232B70236843F001032360C9
:102E5000284A0021BBF1090F117000F29E86012162
:102E600001FA0BF140F202320A40002A40F091864A
:102E700011F0FD0F00F08D8696F8D02132B10023BD
:102E8000A6F8D231C2BB08F037FA35E005920DF052
:102E9000B5F8059A002800F07C86F0E7441300207E
:102EA000C005002030190020945A0020840700201B
:102EB00038AD01080038024035FA8E3C1800002079
:102EC000881B00203C1100209C110020DC190020F0
:102ED000201100204611002000380040352701084D
:102EE000C5D0000835B4000890C1793D2407002002
:102EF00019000020C01900207F4B804A1A6064200E
:102F00007F4A5A6006F08DFB7E4904230B7007232D
:102F10006B70236843F0020323601E210122772097
:102F200012F0B6FC4FF42F6006F070FB142006F090
:102F300078FB7720A02101220AAB0EF0A7F9002828
:102F40004FD00024A4F160010025C9B2022213ABC6
:102F500077208DF84C508DF84D500EF097F99DF874
:102F60004D309DF84C1043EA0121674B03F5EB729D
:102F7000A1520234102CE5D1B3F8E44104F00F0063
:102F800004F47F44A3F8E44101212B462A46DFF8EC
:102F900078E122F001057544B5F8D651002D18BF2F
:102FA000002112F0010F03D0EDB26B40082502E0C2
:102FB00083EA1523FAE713F4004F18BF83F4C053D4
:102FC000013D4FEA4303F6D10132102ADFD14E4AC8
:102FD0000443A2F8E44121B9C3F30333984200F05B
:102FE000E0854A4C236823F0800222609A0702D5CC
:102FF000414B1B6898475FFA88F8B8F1000F0CBF87
:103000007D234FF47A73994505DBB9F57A6FA8BF34
:103010004FF47A6900E099465A1E9144B9FBF3F2E5
:10302000013AD2B23A49384D02FB03330B60394BB7
:1030300085F8D4211B689847374B0022BAF1040F5A
:103040001A70984600F2CA85012202FA0AF313F0B8
:103050001A0140F0BF8513F0050F00F0BB8522ABCD
:10306000C5F8E81103F83C1D1E200A210EF00EF9E8
:10307000002800F0AF859DF84C30482B40F0AA8521
:10308000264B274A1A60274A5A60274A022388F8A3
:103090000030D370236843F008032360234B93F878
:1030A00054210AB122490A7093F855210AB11549F1
:1030B0000A7093F856310BB188F8003023681B076B
:1030C0003AD5069B1AB2642392FBF3F103FB11235A
:1030D0001BB207EE103AF8EEC76A07EE101AF8EEC8
:1030E000C77A9FED147AE6EE877AB2EE047A67EE3D
:1030F000877AC6ED7B7A22E09C1100202527010803
:103100002DD10008C0190020DC1900202407002060
:103110003811002020110020D9190020700700204C
:10312000F54401083113010819000020840700202C
:10313000461100208988883C0023C5F8EC31B0494D
:103140000B7843F002030B70AE4B4FF400425A83EE
:103150004FF480421A830A25AA4C636983F4004322
:103160006361636983F480436361192006F059FA4F
:10317000013D192006F055FA15F0FF05ECD14FF48A
:1031800080432383A04B1A684FF4004512F0080FC8
:103190002583984607D09D4B65831B6898479C4BB9
:1031A000258301221A709B4B9FED9B8A1B689B4CC9
:1031B0001B7B00EE103AB8EEC00A20EE080A0FF0B2
:1031C00069FB228807EE902AF8EEE77A27EE800A5C
:1031D00014F042F824889FED927A924B07EE904AC1
:1031E000F8EEE77A1880C7EE277A8F4B8F4CFF21D5
:1031F000192220469FED8E7AC7EE877AC3ED007ABA
:103200008C4BD3ED047A8C4B27EE888ADFED8B7ADA
:1032100028EE278A83ED008A13F00EFE002222702A
:10322000D8F80020864B012112F0020F19702046B9
:1032300004D06170032119700221A170550704D5D3
:1032400019784C1C1C700324445412F00A0F0CD043
:103250001A7804218154511CC9B205244454D11C4C
:103260000232D2B219700621815476490A68940656
:1032700004D519784C1C1C7007244454110608D539
:103280001978092444548C1C0131C9B21C700A24D9
:1032900044546D4C61790829A24601D00E2904D10D
:1032A0001C78651C1D700B2505551C78651CEDB23E
:1032B0004FF00C0E12F4803F1D7000F804E009D0AE
:1032C00004F1020E5E4C84F800E0584C4FF00E0EF4
:1032D00004F805E0540704D51C78651C1D70102502
:1032E00005551C78651CEDB24FF0120E12F4806F7C
:1032F0001D7000F804E00ED09AF8D8E1BEF1000F7E
:1033000009D004F1020E4E4C84F800E0474C4FF017
:10331000130E04F805E01C78651CEDB24FF0140E96
:1033200092051D7000F804E005D5454A023414707A
:103330003E4A1524545518290BD11A781624845462
:10334000541CE4B217250555D41C0232D2B21C70AD
:103350008154002198223D483D4C13F06DFD11F041
:1033600069FE3C493C4AC4F8F02100234B800B71B4
:103370003A490A60BAF8902190B23949585202335A
:10338000242BFAD12F4B196811F0080F984600F042
:1033900016819AF88A31062B00F20B81DFE803F0E0
:1033A0000404729CB3CECE002E492F4A0A60012B32
:1033B0002E482F4907D103250570072084F8F431E2
:1033C00008700C2307E00223037003230B70002313
:1033D00084F8F431072313704020264BC4F8F831E9
:1033E00005F036FF002800F0E48001234FF00009CB
:1033F00090F90000204A8DE80802402180E000BFDB
:10340000945A0020000C024024070020700700207E
:10341000980F0020E411002035FA8E3C02000020B5
:103420000AE81C4108120020D0100020FB360020C2
:1034300000401C4620110020E0110020BD378635D9
:10344000FA360020C005002084070020D029002083
:10345000DC1900201414002006090020C4050020F7
:103460003A070020CC05002014370020C9050020B1
:10347000D0050020118E0008659400080000B0C43B
:10348000CDCCCC3F07EE102A5FED047AF8EEC76A88
:103490001FED057AE6EE877A0023FCEEE77A6C4AA8
:1034A00017EE901A99500433482BF8D1694BC4F8A1
:1034B000F831694B122240201A7005F0C9FE00282D
:1034C00077D001234FF0070C90F90000634A8DE894
:1034D00008104021624B66E0624BC4F8F8315E4B45
:1034E000102240201A7005F0B3FE002861D001239D
:1034F0004FF0000E90F900005B4A8DE80840402133
:103500004FF4E1334FE0594BC4F8F831524B0822E5
:1035100040201A7005F09CFE00284AD001230025A7
:1035200090F90000524A8DE8280040214FF4E13321
:1035300011F0B2F84F4BC3F8FC0136E046494E4853
:103540000C22062B0A7010D00023037084F800327E
:1035500084F801321B2384F80232052384F8032205
:1035600084F804324FF4E1350DE00021017084F855
:10357000001284F80112414D84F80322212184F8BD
:10358000021284F804323E4BC4F8F831402005F0B2
:103590005FFE70B1012100233A4A90F900008DE8E6
:1035A0000A0040212B4611F077F8003018BF0120A7
:1035B00028B908200FF05EFA0023C4F8F831D8F8D3
:1035C0000030254A13F4804F04D0082111702E4991
:1035D000C4F8F81142F20101194003F0010003F4AC
:1035E000005541B12949C4F8F8110DB108211170F5
:1035F00008B10C2111701178043951701A0640F18C
:1036000087804FF00009224DDFF894B02148C6F8BA
:1036100008B24946152285F80190C5F80490C5F80E
:10362000089013F009FC1C4BABF1050248461A60E8
:10363000039305F099FA194A02201268EA6005F02E
:1036400007FE039B194668BB80200FF013FA57E072
:10365000180600205D8E00081437002071950008C0
:10366000A08601004D8E0008FD940008398E0008E8
:10367000B1940008DC1900201807002090D0030046
:10368000F98D0008999300088D8E0008998E000826
:10369000F4100020E81B0020141100208C5A002098
:1036A0003809002090F805E06B78C64A4FF00C0C02
:1036B0000CFB032C9CF801C0F44504D00133DBB2B1
:1036C000042BF2D900236B700B6890F900001B7873
:1036D00013F0FD0F6B784FF00C0505FB03220CBFB8
:1036E000012103215378009100220192022110F060
:1036F000D3FFB54B18600028A6D0012005F034FA9E
:10370000B24B186800F5CC73C4F824320FF096FB66
:10371000AF4BC4F82832D8F800208033C4F82C32DC
:10372000AC4B002512F4803F1D700DF14C0B00F0E6
:10373000C88003930FF0C2FA039BDFF8CCC24FF0AE
:10374000010983F8009040F22A331A466046294660
:103750000393CDF810C013F06FFB9F4A116B41EA41
:1037600009011163116C41F008011164116B41F4FE
:103770000011116302228DF82C2003228DF82D20D8
:10378000964A059210460AA9CDF828908DF82F90F8
:103790008DF82E5005F0DAFB059A116A21F00F0121
:1037A0001162116A41F0020111628D4A118821F003
:1037B00001010904090C1180118821F45C710904CC
:1037C000090C11806821D1621585A2F81490118C22
:1037D00021F001010904090C1184118CB2F804E0F4
:1037E000108B21F0020120F0730000040904000C8A
:1037F000090C1FFA8EFE40F0600041EA0901A2F8B0
:1038000004E0108355631184118B21F00801090431
:10381000090C41F008011183118889B241EA0901BC
:10382000118002F515324032116821F0010111605A
:103830001046059204F024FC039B17934FF4806319
:103840004FF0406119934FF48053059A13911A93E6
:10385000644914914FF4804340211B934FF440334B
:103860001046DDF810C016911D93594604231E938F
:1038700018951C951F9520952195CDF854C004F0FE
:10388000D5FB059A136843F010031360564B4FF4B1
:1038900000129A6009A80D238DF824308DF8259028
:1038A0008DF826508DF8279005F0D6F94F4B1A6801
:1038B0004F4BEA500435802DF8D104F0F6FD04F0AA
:1038C000F4FDD8F800305B055AD54A4BD6F8D89E9F
:1038D000C3F80090042005F0BBFC0421C6F8DC0E00
:1038E00005F08CFC444B86F8E00E0820C3F80090ED
:1038F00005F0AEFC0821C6F8E40E05F07FFC3F4D54
:1039000086F8E80E002128462C2213F095FA8E2323
:103910006B70E023EB704FF07C0C7D2385F800C0CA
:1039200085F82B30364D039300212C222846CDF804
:1039300010C013F081FA8A22DDF810C06A70A0224C
:1039400085F800C0EA70039B85F82B301020C6F87C
:10395000EC9E05F07DFC1021C6F8F00E05F04EFC43
:1039600086F8F40E2020C6F8F89E05F071FC2021A0
:10397000C6F8FC0E05F042FC86F8000F11F044FD7D
:10398000204D2B8823F040031B041B0C2B802B881D
:1039900023F038031B041B0C43F008032B802B88F7
:1039A0009BB243F040032B8000269F2332208DF8EA
:1039B00028308DF829608DF82A608DF82B6005F08D
:1039C00030FE23E044920108F01000203C1100205A
:1039D0006C09002038190020003802400000024025
:1039E000000C0040340C004000600240CE940108FE
:1039F0003A190020D03F002024400020F43F00204E
:103A00002A400020003C00400C1C00208DF84D6036
:103A100006F1804606F504364FF400490AAA04234D
:103A2000A6F81A902846594607F0BCFCA6F818904C
:103A30009DF84E209DF84D30120242EA03429DF857
:103A40004F301A43694B9A42694B1BD008D86949D9
:103A50008A4210D001F51A4102318A420DD01FE08E
:103A600065498A4209D001318A420BD063498A42B2
:103A700016D1402202E0202200E080221A804FF47A
:103A8000807202E04FF480721A805A809A881988F6
:103A900012029A604A43DA60012284F8012F04E09E
:103AA00000221A805A809A60DA60DE681EB3360CF3
:103AB000B1464FF0000CB44517DA0CEB06056D105B
:103AC000280459461022CDF810C007F0F9FCDDF8A3
:103AD00010C000235BF80320013240F083800433E0
:103AE000102BF7D1A9462E46E5E70AF077FC4FEAFE
:103AF0000943C4F8043FD8F8003013F4002318BF7A
:103B0000012384F8083F05F02DFC3D4B18609AF81E
:103B10000530052B03D13B4B4FF4C8721A803A4B4A
:103B20004FF47A721A80394BC8221A80384B1A78AF
:103B300042F008021A70374B1A7822F002021A700B
:103B4000D8F8002040F6020313406BB1324B334AE1
:103B50001A60334B03221A70324B01221A70324A18
:103B600000231380314A1380BB68C8F80030304B03
:103B700001221A702F4B1A7862F07F021A7023B05C
:103B8000BDEC028BBDE8F08F032005F054FDFFF77C
:103B9000D6BABBF1010F7FF6C0A94FF0000BFFF7BB
:103BA00057B9254B42F210725A801A80234A5A6044
:103BB000234A9A60234ADA60234A1A61234A5A61E7
:103BC000234B03229A70234B1A6842F004021A60B6
:103BD000FFF707BABAF1010F7FF660AA4FF0000AAB
:103BE000FFF72ABA05F1010C35467CE718BA200028
:103BF00038000020152020001740EF001620C200DA
:103C000034120020AE110020D0190020C819002065
:103C10007E070020DA190020C83F0020FA080020A3
:103C20004829002091000020284000204C29002035
:103C300030190020945A0020A40F00205D5901087B
:103C4000D544010865590108E544010879250108B2
:103C500019000020240700202DE9F04FC14AC24B73
:103C60001768B3F906007B892DED028B984285B069
:103C70000EDBB0F5FA6FFC7907DAC21A5443A3F5EC
:103C8000FA6394FBF3F4643403E0C4F1640400E0E9
:103C90006424B64AB2F890310293B54B92F95E2192
:103CA000D3F800E092B200210392F2460A46AE4BEE
:103CB000029D31F903B0C5EB0B0303F2F31640F29A
:103CC000E635AE4203D8002BB8BF5B4201E04FF4AB
:103CD000FA73022A4FF06406A64D2DD09EF81DC13E
:103CE000BCF1000F04D06345CCBFCCEB0303002331
:103CF00093FBF6FC6FF0630935F81C8009FB0C3967
:103D00000CF1010C35F91CC00FFA88F5C5EB0C0558
:103D100005FB09F595FBF6F5A844974D21F80580BC
:103D2000BD182D796B43954D93FBF5F364339BB22E
:103D3000634393FBF6F62FE09EF81EC1BCF1000F23
:103D400004D06345CCBFCCEB0303002393FBF6F612
:103D50006FF0630805EB460C08FB063905EB4606D9
:103D6000BCF90EC0B6F91050834ECCEB050505FB2F
:103D700009F999FBF8F9039DCCEB090C0CFB05FC48
:103D8000A6F804C0BD7983EAE376A6EBE3766E433A
:103D90007A4D96FBF5F664360EEB020C754B9CF8EB
:103DA000018003F11C054FF0640C06FB08F898FB3A
:103DB000FCF802F805809AF80B8003F11F0506FB5A
:103DC00008F898FBFCF802F805809AF8158003F1D2
:103DD000220506FB08F6022A96FBFCF656551D4600
:103DE00016BF253383F827C0D454029B624E9B45EF
:103DF00002DA735A5B4273520231062902F1010260
:103E00000AF1010A7FF453AF584CB4F8923198424A
:103E100005DBB0F5FA6FA8BF4FF4FA6000E0184672
:103E2000C01A4FF47A725043C3F5FA63B0FBF3F350
:103E30004FF0640E93FBFEF205EB42016FF063005E
:103E400000FB023305EB4202098DB2F92A004A4F0A
:103E50000AB2821A534393FBFEFE494B1B887144FE
:103E6000F180590636D5474BDFED477A1A88414B2A
:103E7000B3F84030D31A1BB208EE903AF8EEE88A55
:103E800068EEA78AB0EE680A0EF004FDB0EE408A34
:103E9000B0EE680A0EF09BFCB7F90220B7F90030CB
:103EA00006EE902A07EE903AF8EEE66AF8EEE77A28
:103EB00020EE667AA7EE887A67EE807ABDEEC77A42
:103EC000E6EE887A17EE103AFDEEE77A3B8017EEC1
:103ED000903A7B802D4B1A6812F0020F994600F041
:103EE0009F802B4B6A6C1B68224F9A1A45F2072160
:103EF0008A4240F395807B640EF02AF897F84830A8
:103F0000DFF89C80032BB8F800304BD10A2B55D931
:103F10000023282087F8483005F083FB0EF018F8BE
:103F20001C4BB7F84A201B681978D8784A4302EB33
:103F3000421202F59F4249F6F6717B32B2FBF1F272
:103F400059789B7892FBF1F201321349082A28BF75
:103F500008220A7092B2114950435A430880A7F8C8
:103F60004C202BE0281300203A0700208407002073
:103F70003C110020002900200E1300200CFEFFFF42
:103F80002C0700202012002035FA8E3CC0050020AE
:103F9000C4190020C83F00209100002028400020C4
:103FA000CC3F00200A2B09D80323B34A87F84830B6
:103FB00000231370B14AA7F84C30138095F84820BD
:103FC000AF4B012A0DD002D3022A1FD028E0AB4B01
:103FD0001A88B8F800309A4222DD012385F848306B
:103FE00012E0B8F80020B3F84C10914203DD022231
:103FF00083F8482011E0A149098801318A4203DD94
:10400000002283F848200BE0082007E0B3F84C308A
:10401000B8F8002001339A42DFDC072007F04EFF9A
:10402000D9F800703A0573D5964B296D1A68944BF0
:10403000C1EB020B45F207218B4569DD9249B6F9C8
:104040000690D1F800801A6598F80810B4F84E016F
:104050008E4E4FF47A7201299BFBF2FBA9F57A7917
:1040600003D03ED302291CD03DE0586D082190FBBF
:10407000F1FECEEB000090FBF1F14FF0000E586521
:10408000A3F858E089B2B8F8063040F6E44041435E
:10409000C3EB1131B8F904304A4392FBF3F23260BA
:1040A00021E07B4BB8F806A01B78C6F800A05B07A0
:1040B00019D507F0ABFF20B917F0100F18BF4FF05C
:1040C000000909FB09F2322392FBF3F39944B8F992
:1040D00004304FF47A7203FB09F393FBF2F3534479
:1040E00000E00023336033686A4AD5E9180103FB16
:1040F0000BFB4FF47A739BFBF3FB10EB0B0041EBD4
:10410000EB710023C5E9180112F048FB624B1860FF
:10411000624B1A6812F4805F984626D0390621D582
:104120005F4B1B789A071DD55E4B1978042919D966
:1041300000235D4E05229A551E44981C0A27122B17
:10414000C2B2777004D0B1EB520F0346F1D800E051
:1041500014222A44322382F86730FF2382F8683021
:104160000F2000E00A2007F0A9FED5F88070444E29
:10417000002F46D04D4BD6F8842019688A429946C4
:104180003FD896F88830B6F88AA07A68ABB9012390
:1041900086F8883012F80A20CAB186F88C3005F00B
:1041A0000FFABAF1000F12D13B78053B012B0ED864
:1041B00005F0D8F8C6F8900009E0002386F88830AA
:1041C00012F80A201AB186F88C3005F0F9F9B5F822
:1041D0008A107A682A4B525CFE2A03D10022A3F887
:1041E0008A200EE0FF2A02D107F04FFE09E0D9F83D
:1041F00000000A2616FB02020131C3F88420A3F84E
:104200008A10234E3278530704D5294B4FF480424D
:104210005A8366E0D8F80030DF075CBF42F0010245
:1042200032701F4A1278100703D4327822F001024C
:104230003270D90203D5337823F0010333701D4B5C
:104240001B685A0702D51C4A128862B91B4A128899
:104250000AB19B0705D41A4B1B88003318BF0123F2
:1042600000E0012373B3022385F88C30337823F008
:10427000010333702CE000BF910000202840002093
:1042800000290020C4190020C83F0020D43F00208E
:10429000DA190020407E0500D83F002028070020C2
:1042A0007E0700201C110020682900208C5A002065
:1042B000000C024024070020C8190020AE11002085
:1042C000D01900203278D70758BF022385F88C30E8
:1042D00005F048F8D5F89430C01A002801DB05F045
:1042E0006FF911F091F8BE4B1A78002A78D0D5F802
:1042F0009830002B00F00D86D5F89800B94C05F0E9
:10430000ECF9002800F00586D4F8980005F0E0F9F3
:10431000092801D03F2855D14FF00008D5F89C60FE
:10432000B14F44462EB1B1483968324612F0CCFD47
:1043300010B9B84604B93C46AD4B10379F42F1D393
:1043400004B3D4F800E0D8F800C0D5F89C30A548F4
:104350001EF803701CF80310B94213D15A1C59B946
:104360002D2B09D8C0F89C2003440244202783F851
:10437000A07082F8A01005E02B44C5F89C2083F8BB
:10438000A070E2E7D5F89C300BB1444510D09948B5
:1043900005F006FA444507D854F8100B05F000FA6A
:1043A000092005F0F6F9F5E7934805F0F9F900263C
:1043B000D5F89C309E429FD28C4B985D05F0E9F970
:1043C0000136F5E7D4F89C30002B40F0C88504286E
:1043D00040F0368604F1A0000DF064FD00F099BDB8
:1043E000864F97F84A30012B40F08E85DFF82882FF
:1043F000834B3A68C8F800701A60C246DFF8009232
:104400004A46106805F069F9002800F06B85D9F874
:10441000000005F05DF9DAF8003093F848108346A3
:1044200019B924283FD101223AE0012904D14D28AD
:104430000CBF0222002233E0022904D13C280CBF29
:10444000032200222CE003290CD140284FF0000168
:1044500002D983F8481046E058711971D9719871E2
:1044600004221DE0042907D1997983F8490080EAE4
:1044700001029A71052213E0052934D1587919797E
:104480008842987908D98BEA00009871481C187105
:104490000B4483F808B026E058450CBF06220022E2
:1044A00083F848201FE033785B071CD4BBF1230F4F
:1044B000D9F800300CD14A4A5248C5F89830012149
:1044C0001170C5F8683105F06BF94B4805F068F9D3
:1044D000D5F86C311B785B4505D14B4B4B4A1A60C4
:1044E0004B4B4C4ADA60DAF80030DFF82C9193F845
:1044F0004820062A82D193F8490007F0A9FD002838
:1045000040F0E684D9F8002092F84930482B00F0BA
:1045100044834FD8332B00F00E8421D8292B00F090
:10452000C98309D8252B00F0A083272B00F0A48392
:10453000232B40F01185C6E02D2B00F0CC8307D84B
:104540002B2B40F0098504F0F7FD607100F0BDBC35
:104550002F2B00F07284312B00F0848400F0FCBC1F
:104560003C2B00F0E98009D8372B00F02E84392B42
:1045700000F08F83352B40F0EF8496E1412B00F063
:10458000DF830CD83E2B40F0E78404F0D5FD84F89F
:10459000A20104F0D1FD84F8A10100F096BC432BE8
:1045A00000F0F083442B40F0D784012385F88D314F
:1045B00000F08BBCCF2B00F0098240D8C92B00F053
:1045C000EF822BD84C2B00F0A983C82B71D04A2B3B
:1045D00040F0C28404F0BAFDA08100F076BC00BFB8
:1045E000D819002000290020C4B40108A029002007
:1045F00084B60108D8B80108DDB80108D029002028
:10460000804000200DB90108FCFF0120EFBEADDEA7
:1046100000ED00E00400FA057C400020CC2B00F007
:104620006E8104D8CA2B00F0958000F095BCCD2B8C
:1046300000F09C82CE2B00F0A28200F08DBCD42B27
:1046400000F008820FD8D12B00F0D282C0F0838214
:10465000D22B1BD0D32B40F07F8404F077FDD24BBC
:10466000188000F032BCEF2B57D007D8D62B08BFEC
:104670004FF0000900F0E38100F06EBCF22B00F077
:104680003F82FA2B00F0858200F066BC337803F09D
:10469000040303F0FF09002B40F0178404F04CFDE5
:1046A000022884F8DC0740F25C82C04B83F8DC9778
:1046B00057E292F805A04FEA5A0ABAF1120F1CD835
:1046C0004FF000091CE004F037FD132815D8DFF87F
:1046D000ECA2DAF8003000F1200B03EB8B0B04F0B6
:1046E0002BFDB34B0BF1050903F59C72197A81423E
:1046F00000F0C5800C339342F8D103F0D1F9E4E324
:10470000D14507D204F022FDAA4B23F8190009F184
:104710000109F5E70122A84B39E2DFF8A092D9F8A8
:1047200000A004F013FDAAF85A00D9F8009004F094
:104730000DFDA9F85800C8E3DFF88092D9F800A071
:1047400004F0FAFC8AF80000D9F80030187805F077
:10475000F3FABAE3994B1A681278022A4FF0000A6A
:10476000994671D1DFF85492D9F800B004F0E4FC16
:1047700007EE100AF8EE477AB2EE048AC7EE887A9E
:104780000BEB8A03D9F800B0C3ED087A04F0D4FC2F
:1047900007EE900AB8EE677ADFED897AC7EE277ADE
:1047A0000BEB8A03D9F800B0C3ED0B7A04F0C4FC1C
:1047B00007EE900AB8EE677ADFED827AC7EE277AC5
:1047C0000BEB8A030AF1010ABAF1030FC3ED0E7A6B
:1047D000C8D1BAF1070FD9F800B01CD104F0ACFC75
:1047E00007EE100AF8EE477AC7EE887ACBED117A19
:1047F000D9F800B004F0A0FC07EE100AF8EE477AF2
:10480000C7EE887ACBED127AD9F800B004F094FCA8
:104810008BF84C0012E004F08FFC0BEB0A0358708D
:10482000D9F800B004F088FC0BEB0A03D9F800B00B
:10483000D87204F081FC0BEB0A0358750AF1010AE7
:10484000BAF10A0FC5D140E3D9F800B004F074FC06
:104850000BEB0A035870D9F800B004F06DFC0BEBB9
:104860000A03D9F800B0D87204F066FC0BEB0A0317
:104870000AF1010ABAF10A0F5875E5D125E31B7850
:104880008BF8053004F058FC89F8010004F054FC62
:1048900089F8020004F050FC89F80300DAF80010EF
:1048A00001F1850002F09AFF0FE304F045FC0B28AC
:1048B0003FF623AF414B4FF0060A0AFB00F01B689E
:1048C000D03003EB000A04F037FC03283FF615AFA5
:1048D0008AF80A0004F030FC8AF8050004F02CFC89
:1048E0008AF8060004F028FC8AF8070004F024FC8B
:1048F0008AF8080004F020FC8AF80900E5E2537900
:10490000092B7FF6FAAE304AD2F8009004F014FC7E
:104910002D4B89F80000D3F8009004F00DFC89F8C5
:10492000010004F009FC284A13686428A8BF642029
:10493000187104F001FC244A13686428A8BF64209D
:10494000587104F0F9FB204A1368FF28A8BFFF2024
:10495000987104F0F1FB1C4BD3F80090642828BF39
:10496000642089F8070004F0E7FB174A89F8020081
:10497000D2F8009004F0E0FB134B89F80300D3F861
:10498000009004F0E3FBD8F80030A9F80A005B7946
:104990000A2B40F29A820C4BD3F8009004F0CCFB27
:1049A00089F8080091E200BF161300208407002058
:1049B00084B601083A070020190700203C110020A6
:1049C0000000C84200007A442813002004F0BEFB17
:1049D0006FF4AF6143189BB2C62B98BFA4F8900147
:1049E00004F0B4FBA4F8400104F0B0FBA4F84201C9
:1049F00004F0ACFBA4F8440104F0A8FBA4F89E0169
:104A000004F09AFB84F8AF0104F096FB04F094FBE9
:104A100084F8B00104F090FB84F87F0104F08CFB73
:104A200084F88C0104F088FBCC4BD3F8009004F0A0
:104A30008DFB00EB80004000A9F8560029E104F04E
:104A400085FBC74B23F8090009F10209B9F1100FE2
:104A5000F5D13AE253790F2B7FF44FAE04F06CFBA3
:104A6000072881463FF649AEBC4AD2F800A004F0C0
:104A70006DFB0E2303FB09F90AEB0903A3F82501DB
:104A8000B64BD3F800A004F061FB0AEB0903B34A6C
:104A9000A3F82701D2F800A004F058FB0AEB0903A1
:104AA000A3F82901AD4BD3F800A004F045FB0AEBB5
:104AB0000903AA4A83F82B01D2F800A004F03CFBBA
:104AC0000AEB090383F82C01A44BD3F800A004F0EF
:104AD00033FB0AEB0903A14A83F82D01D2F800A0A9
:104AE00004F02AFB0AEB090383F82E019B4BD3F851
:104AF00000A004F035FB0AEB0903C3F82F01E4E141
:104B000004F01AFB0F2881463FF6F7ADC9EBC9093F
:104B100004F012FB04EB090303F1D00983F8D00081
:104B200004F00AFB89F8010004F006FB89F8020092
:104B300004F002FB89F8030004F0FEFA89F804008F
:104B400004F0FAFA89F8050004F0F6FA89F806008C
:104B500005F056F8B9E133785A0700F1B6810BF049
:104B60008FFA0DF041FB0AF013FCAEE133785B07DE
:104B700000F1AB817B4B4FF4C8721A80A5E133780A
:104B8000580700F1A281784B1A7842F004021A709B
:104B90009BE133785907E4D5DEE10EF091FF94E113
:104BA00004F0CAFA704B1A7810B142F0020201E028
:104BB00022F002021A7004F0BFFA6C4BDFF8C091C9
:104BC000187004F0CDFAC9F8000004F0C9FAC9F869
:104BD000040004F0BBFA664B188004F0B7FA654B8A
:104BE000188095F8703143F0020385F870316CE15C
:104BF00004F0A2FA019004F0B3FA834604F0B0FA8C
:104C0000824604F0ADFA814604F0A0FA04F09EFA60
:104C100004F092FA019B9BB91020C5F874B1C5F855
:104C200078A107F0E3F9504B1A7842F001021A70AC
:104C3000B9F1000F00F049814F4BC3F8009044E1F7
:104C4000102B40F04281C5F880B1C5F884A1B9F1BC
:104C5000000F02D0484BC3F8009048480223011DC2
:104C600085F88C3108F0E2FC2FE1A06004F078FABE
:104C7000A3681843A06028E104F068FAA4F858017A
:104C800004F064FAA4F85A0104F060FAA4F85C0194
:104C90001BE104F051FA84F8760104F04DFA84F82F
:104CA000780104F049FA84F8770104F045FA84F8B1
:104CB00079010AE104F04AFAA4F87A0104F046FA0C
:104CC000A4F87C0104F038FA84F87E0104F03EFA7E
:104CD000A4F88001F9E004F02FFA84F88A0104F0C6
:104CE00035FAA4F8940104F031FAA4F8900104F024
:104CF0002DFAA4F8920104F01FFAD9F8003084F8D4
:104D00008B015B79082B40F2E08004F01FFAA4F8D5
:104D1000960104F01BFAA4F89801D6E004F00CFA0E
:104D200084F89C0104F008FA84F89D0104F00EFA5E
:104D3000A4F89E01C9E004F0FFF984F88C01C4E0F6
:104D4000814604F0F9F904EB090309F10109B9F10D
:104D5000080F83F88201F4D1B7E000BF3C110020B6
:104D60002A140020AE1100207E0700201C11002014
:104D7000DE3F0020DC3F002030070020802A00209A
:104D8000E43F002004F0D8F90023A360607104F030
:104D9000E7F9A3681843A06004F0CEF984F88A010B
:104DA00004F0D4F9A4F8580104F0D0F9A4F85A0199
:104DB00004F0CCF9A4F85C0104F0C8F9A4F87A0175
:104DC00004F0C4F9A4F87C017FE053794FF0070A9E
:104DD000B3FBFAF2C2EBC2029A1A12F0FF0F7FF491
:104DE0008CACB3FBFAFABAF1000F6ED004F0A4F960
:104DF0005FFA80FB4FFA8BF004F0ECF90AF1FF3A0E
:104E00005FFA8AFA814600283FF477AC80F800B058
:104E100004F09CF9A9F8020004F08EF989F8040066
:104E200004F08AF989F8050004F086F989F807008A
:104E300004F082F989F80600D5E7DFF8989209F1C5
:104E4000400A04F083F9A9F8680204F075F989F8BA
:104E50006A0204F071F909F1040989F86702D14581
:104E6000EFD132E004F068F91F283FF646ACD8F8DD
:104E700000305B79082B7FF440AC00F17A0A04F033
:104E800065F904EB8A0900F03F00A9F8020004F07C
:104E90005DF9B9F80220800100F4FE531343A9F82C
:104EA000023004F049F9000104F82A0004F044F942
:104EB00014F82A3000F00F00184304F82A0004F018
:104EC0003BF989F801000DF0F9FE002004F04CFCDC
:104ED000D8F80030987904F018FCD8F80030002297
:104EE00083F8482095F88D3173B1386804F0DBFB06
:104EF00018B9322004F095FBF7E706F085FF0CF0B7
:104F00008FFF604B604ADA60604B4C379F427FF402
:104F100068AA5F4B1B689A0616D55E4BD5F89021A0
:104F20001B689A1A002A0FDB5B4A1278042A0BD9F5
:104F30005A4A03F5123303F5F873C2F89031584B0F
:104F40005A6982F400425A61564B9B68002B00F06C
:104F500094805548984790E002F0A2FDB8E70C28ED
:104F600003D1524804F01CFC5AE00A2801D00D2855
:104F700058D14A4C4E4804F1A00604F011FC3046CA
:104F8000232111F08CFF10B1801BC4F89C00D5F8D0
:104F90009C30002B38D0591E404A705C202801D12B
:104FA0000B46F6E7C2F89C301344002283F8A02099
:104FB000404B414CD3F800A0D4F80090DFF8DC80DF
:104FC000484611F079FF08F1A007064649463846E1
:104FD000324611F079FF394B38B908EB060292F8E6
:104FE000A02052445278500703D010349C42E3D39F
:104FF00006E09C4204D2701CE3683844984702E003
:105000002F4804F0CDFB002330222E48C5F89C30F9
:10501000002111F011FF2C4A1378002B3FF479AFD7
:105020002A4809E07F2811D1013BC4F89C30234471
:105030000022274883F8A02004F0B2FBFFF75CB9F8
:105040000C288ED07F2804D1FFF756B92F2B3FF6BE
:1050500053A9A0F12002D2B25E2A3FF64DA913B99E
:1050600020283FF449A95A1C2B44C5F89C2083F8FA
:10507000A00004F08EFBFFF73FB905B0BDEC028B3A
:10508000BDE8F08F00ED00E00400FA05682A00207A
:1050900024070020C41900201C1100200029002032
:1050A000000C024020110020942A0020E2B80108E0
:1050B000CAC1010848010020C4B4010884B601082F
:1050C000EDB80108A0290020D8190020DDB801089A
:1050D00009B90108840700202DE9F04FAB4EAC4A16
:1050E0003368AC4C03F59C43203313602388AA4AF1
:1050F00001331168238042F201030B4089B09346CB
:105100001BB1A64B1A7801321A7005F047FCDBF888
:105110000030DD0405D5A24B1B68D80701D410F080
:1051200037FEA04BA04D1A68937A23B3013B127B44
:1051300035F813301AB1C3F53B6308339BB21BB289
:10514000A3F57A73B3F57A7FA8BF4FF47A7323EA95
:10515000E37307EE903AB8EEE77ADFED947A944B7A
:10516000C7EE277A9FED937A67EE877AFCEEE77AAF
:1051700017EE902A1A80DBF80030D90540F18780BD
:1051800032688D4B9A4204D9237913B9814B01229D
:105190001A71B4F900A089497E4B0E78BAF1140F48
:1051A000CCBF4FF0000A4FF0010AC6F38006BAF1F7
:1051B000000F03D000279F715F7100E00327774B3A
:1051C000B4F900E058687E4B94F80680D3F800C02C
:1051D000617963882A88B8F1030F4FD8DFE808F0B7
:1051E000020E223DBAF1000F02D02A80002232E0E6
:1051F000002E40F0DC862A80A67142E090F80090F4
:1052000009EB8909CE45CCBFB1464FF000094FF0FC
:105210000108B9F1000F31D0013341469BB24FF084
:105220000208D8E746B1BCF80E206A80BCF80E70C0
:10523000AF804788EF80022790F8009090F80180B7
:10524000C84408EB8808C64500F3B586002E00F078
:10525000B2862A800222A27113E02A800322A27160
:10526000617163807EB155490B7843F002030B7086
:10527000484B00225A7110F08BFD04E02A8084F81C
:1052800006806171638017B1384606F017FE4D4FF6
:10529000B7F84E0106F0BAFE814660B904F082FD0F
:1052A0003E4B0022C3F80890C3F80C90C3F810904E
:1052B0005A619A61DA61414A13785A0742D5DBF89C
:1052C0000030DB063ED5404B1B78DE063AD43F4B20
:1052D000324E93F80080B8F1000F10D097F8A23149
:1052E000B9F1000F15D16BB1394B1A68336A9B1AAB
:1052F000002B07DA10F04CFD86F8249022E0B9F17B
:10530000000F18D1102006F0D9FD012386F82430B3
:1053100018E033B12E4A12684FF47A7101FB03236F
:10532000336296F824306BB106F0AFFD1B4B0022C0
:1053300083F8242006E096F824301BB106F0A5FD82
:1053400086F82480002297F8A0A197F8A111B7F859
:105350009261B7F894E11346A85E9B08B042C4BFBF
:1053600063F07F03DBB202327045B8BF43F0400305
:10537000082AF1D1094E96F825209A422AD196F8AA
:105380002620F92A29D8013225E000BFC4190020BF
:105390001C07002014140020C0050020982A0020BB
:1053A00028070020C40500203A07002000007A44A6
:1053B0001637002000C07F44404B4C00DA19002013
:1053C000CC1B0020840700207E0700201100002055
:1053D0008C5A0020002286F8262086F82530974B2C
:1053E000DFF890821A78EAB9D8F80030D80709D5E2
:1053F000B9F1000F16D192490B78D90712D50FF0E9
:105400006DFE0FE08E4A13785A070BD58D4B1B7833
:1054100043B1637933B911B110F0BAFC02E0B9F1CC
:10542000000FF9D096F82620874BDFF85092142A07
:1054300040F09A8081490A781AF1000A18BF4FF0AB
:10544000010A7AB393F825205F2A12D17C490A78A1
:1054500002F0040202F0FF0112B110F099FC08E022
:105460000B200291019306F029FD019B029983F81C
:105470002610BAF1000F15D096F825307D2B11D1EA
:105480006F4A137803F0040303F0FF0213B110F026
:105490007FFC07E00B20029206F010FD6A4B029A97
:1054A00083F8262066490B7803F0040303F0FF001D
:1054B000002B59D196F82530634A572B16D1634BF0
:1054C0004FF47A721A80DBF800301B0601D50DF01C
:1054D000A5FA5F4B1B68580702D55E4A0A21118066
:1054E00013F0080340D15C4A13803DE0DBF8001064
:1054F000490715D55A2B13D1584B197819B1187083
:105500000122574B1EE092F8273083F0010382F806
:1055100027300BB10C2000E00D2006F0CFFC23E07B
:105520005D2B00F04C855B2B00F04B855E2B0BD187
:10553000032000F047BDA72B40F06285494B1A7845
:1055400042F004021A700FE0562B03D101930AF0C7
:105550006BFA019B39490A78002A00F048856F2BC5
:1055600040F03F850FF0BAFDDBF80030580734D526
:1055700096F82730A3B1324A1378590710D5B5F9F8
:105580000620B7F892319A420ADDD8F8003013F0BD
:10559000010305D1344A322111802B4A82F8273089
:1055A000D8F80030DA030AD5304B1A782AB92B4ADA
:1055B000127812B92C4A3221118001220CE0274BBB
:1055C0001A7852B11E490A7802F0040202F0FF0173
:1055D0001AB91970224B01221A70D9F800900027CD
:1055E00009F1850AC8F8007009F187060AF102037B
:1055F000D919DA5D4B7816F8010C9A420CD2314673
:1056000003F055F840B116F8023C01229A40D8F850
:1056100000301343C8F800300437502F06F1040659
:10562000E4D1134B1F785FB3124E094F3368124D0C
:1056300013F0020F40F04F8347E300BF110000203A
:10564000DA190020B9050020982A0020D01900207E
:1056500024070020C819002020120020D9110020A2
:10566000DA1100207E070020C0110020D811002090
:10567000D8190020280700202C0700203C1100200A
:1056800009F1D50A09F1D6060AF10103D919DA5D43
:105690004B7816F8010C9A4229D2314603F007F8EC
:1056A00028B396F802E0BF4B307996F803900EF1DC
:1056B000FF3E0EEB4E0E9E44BB4B4FF00C0C03F125
:1056C00028080CFB00FC08EB0C014A6872450ED060
:1056D000002208F80C908A60012202FA00F093F888
:1056E0005820C1F804E022EA000083F85800063789
:1056F000482F06F10606C7D1AC4B1E68AC4B1B68A1
:105700000493AC4B1B780593AB4B03934FF000080D
:10571000039B1A68002A00F0CE821778002F00F051
:10572000CA825B680499CB1A002B0DDB01F5FA7372
:1057300003994B609C4B012193F8580001FA08F142
:1057400020EA010183F85810059B002B00F0B3827A
:10575000039B507813F8041CDFF84CA20431C9B243
:10576000002840F06782954835F91110B0F8900193
:1057700000F1C80E714502DD92F8029015E0C838BC
:10578000814203DA9278C2F100090EE09AF85810CB
:10579000012202FA08F221EA02028AF85820049A49
:1057A00002F5FA73039A536085E29AF8582042FA98
:1057B00008F2D30700F17F82B9F1000FCCBF0220BD
:1057C000012006F0EBFB7A1E132A00F26B82DFE861
:1057D00012F0140021002E003E0056005D00C300B0
:1057E00039019F01CF01FF0169023E004C005D00BD
:1057F000C300390193000B016F0137784F44FA2F32
:10580000A8BFFA2727EAE7773046377003F06EFD26
:1058100001201AE077784F44642FA8BF642727EA55
:10582000E7773046777003F061FD02200DE0F778EE
:105830004F44642FA8BF642727EAE777F770304604
:10584000DAF85C1003F00CFD03203946BDE17179F4
:1058500049446429A8BF642121EAE17171710D20D6
:1058600008F0E8FE0D2F00F01D82317949446429CB
:10587000A8BF642121EAE17131710E20A5E1B1795F
:10588000494481F30801B17105209EE1DAF86020F6
:105890001178022922D107EE909AB8EEE70AF2EECB
:1058A000047A80EE270AD2ED097A30EE270AB5EEA7
:1058B000C00AF1EE10FA09D4DFED427AB4EE670ABD
:1058C000F1EE10FAC8BFB0EE670A01E09FED3E0AA4
:1058D00082ED090A0F2008F0C1FE0AE091784944E0
:1058E000C829A8BFC82121EAE17191700F2008F0F2
:1058F000A1FE0F2F00F0D681DAF860301A78022A64
:1059000020D107EE909AB8EEE70AF2EE047A80EE24
:10591000270AD3ED087A30EE270AB5EEC00AF1EE79
:1059200010FA09D4DFED277AB4EE670AF1EE10FA27
:10593000C8BFB0EE670A01E09FED230A83ED080AB5
:1059400012206AE159784944C829A8BFC82121EA30
:10595000E1715970122038E1DAF8602011780229DB
:1059600034D107EE909AB8EEE70ADFED167A92EDA1
:105970000C7A80EE270A30EE070AB5EEC00AF1EE87
:1059800010FA07D4B4EE670AF1EE10FAC8BFB0EE11
:10599000670A01E09FED0C0A82ED0C0A102008F066
:1059A0005DFE1EE00DBE0108982A0020281300208D
:1059B0008C5A0020B9050020C42A0020840700204A
:1059C00000007A440000C84200000000117B4944F6
:1059D000C829A8BFC82121EAE1711173102008F07D
:1059E00029FE102F00F05E81DAF860301A78022A62
:1059F0001ED107EE909AB8EEE70A5FED0E7A93EDAE
:105A00000B7A80EE270A30EE070AB5EEC00AF1EEF7
:105A100010FA07D4B4EE670AF1EE10FAC8BFB0EE80
:105A2000670A01E01FED180A83ED0B0A1320F4E06A
:105A3000D97A4944C829A8BFC82121EAE171D9729D
:105A40001320C2E0DAF860201178022922D107EE93
:105A5000909AB8EEE70A5FED267A80EE270AD2ED3B
:105A60000F7A30EE270AB5EEC00AF1EE10FA09D42B
:105A70005FED2C7AB4EE670AF1EE10FAC8BFB0EE13
:105A8000670A01E01FED300A82ED0F0A112008F0CD
:105A9000E5FD0AE0917D4944C829A8BFC82121EA53
:105AA000E1719175112008F0C5FD112F00F0FA8009
:105AB000DAF860301A78022A20D107EE909AB8EE10
:105AC000E70A5FED417A80EE270AD3ED0E7A30EED9
:105AD000270AB5EEC00AF1EE10FA09D45FED477A55
