:020000040800F2
:100000009805002089010008112A0108392A0108F1
:100010000F2A01080D2A01080B2A01080000000020
:10002000000000000000000000000000092A010894
:10003000072A010800000000052A0108132A010808
:10004000E5010008E5010008E5010008E5010008F8
:10005000E5010008E5010008E5010008E5010008E8
:10006000E5010008E5010008E5010008E5010008D8
:10007000E5010008E5010008A5280108E5010008E0
:10008000E5010008E5010008E5010008E5010008B8
:10009000E5010008E5010008E5010008E5010008A8
:1000A000A5270108D5270108E5010008E527010873
:1000B000C5270108E5010008B5270108FF29010847
:1000C000ED290108F9290108E7290108E5010008DF
:1000D000E50100083D290108E5010008992801080B
:1000E000212A0108E5010008552A0108E501000858
:1000F000E5010008E5010008E5010008E501000848
:10010000E5010008E5010008E5010008E501000837
:10011000E5010008E5010008E5010008E501000827
:10012000E5010008E5010008E5010008E501000817
:10013000E5010008E5010008E5010008E501000807
:10014000E5010008E5010008E5010008591E010865
:10015000E50100080128010849290108F5270108DF
:10016000F3290108E1290108E5010008E50100087B
:10017000E5010008E5010008E5010008E5010008C7
:10018000E5010008E5010008002100F004B80F4B6C
:100190005B58435004310E480E4B42189A42FFF40C
:1001A000F6AF0D4A00F003B8002342F8043B0B4BB6
:1001B0009A42FFF4F9AF0A48016841F47001016006
:1001C00012F0C8FA01F06CFB70470000C883010808
:1001D000000000209801002098050020F440002035
:1001E00088ED00E0FFF7FEBF2DE9F04F2DED068B07
:1001F000C74CC84B23609FB00023636012F0E6F940
:1002000018B90BF0CBFA12F005FADFF864B3DFF897
:100210006483C14DDFF860A3DFF8609308F0B2FD9E
:100220009BF8003043F001038BF8003006F09EFD90
:10023000BA4BC8F80C306B6FA360B94BC8F80830E4
:100240006B6BB84823F080036B636B6F43F0807374
:100250006B672B6B43F03F031EAE2B6303238DF8BC
:100260003E3041F6FF7326F83C3D31460FF095F9DC
:100270004FF6FF73AC48ADF83C3031460FF08DF9C6
:10028000AA4831460FF089F9DFF8F4C2CDF808C06A
:10029000604631460FF081F9A54831460FF07DF9EF
:1002A0003146A4480FF079F930460DF07BFB0F9BE7
:1002B000A14AB3FBF2F3E360A04BA14A00271F6001
:1002C0005F60A04B5A60F02288F823200722DFF8F5
:1002D00098829F601A60D8F80830CAF8003099E810
:1002E0000F0086E80F002B6BDDF808C00F9843F075
:1002F00008032B632B6B43F008032B634FF48043FD
:10030000ACF818304FF40043ACF8183010A90FF0D7
:1003100044F912A911980FF040F964200DF04BFF39
:1003200039468948A02213F0E1FA2B6C43F01303FD
:100330002B646B6C43F001136B64844B474603F1F1
:10034000C0009A7A93F80BE053F8105B02F00701B3
:10035000D20805EB82028900156A4FF00F0C0EFAE5
:1003600001FE0CFA01F125EA01011162156A8342CE
:100370004EEA05011162E4D10023DFF8948108F10F
:1003800010020021995401330C2BF6D1FF23704A3F
:1003900088F81C3088F81D3088F81E3088F81F3027
:1003A0006C4B13606C4D6D4A04201070284630224F
:1003B000039313F09BFA14222A7002222A76052254
:1003C000039B85F82420664A97F805B082F800B0B0
:1003D000A3F5F172A3F59173C8F8243009EBCB03B0
:1003E000DAF800505B7CC8F82830AB0644BF012324
:1003F000C8F82830C8F8202000235A4A40F2DC51BF
:1004000099520233102BF8D108A800211C2213F0B6
:100410006DFABBF10E0F04D00BF0EF0BBBF1080F20
:1004200002D101238DF8323005200DF065FC18B1A2
:100430004088003018BF0120C5F340038DF82730F5
:10044000C5F380138DF82A30C5F340338DF8203082
:10045000C5F3C03300F001008DF8233015F40063BC
:100460008DF8260007D097F88231B3F1010EDEF146
:10047000000353EB0E038DF82430C5F300438DF8D1
:100480002B30A36AB7F84411ADF83610003318BF0B
:1004900001238DF82C30C5F300538DF82D30B7F8BB
:1004A0004631ADF83030B7F85231ADF82E30C5F3E3
:1004B00080438DF8283097F854311A1C18BF012258
:1004C00005F0010BC5F3C0088DF82920ED04B7F83D
:1004D00050218DF821B08DF82280ADF8342004D55C
:1004E0002149B1F84C11ADF83610B2F5FA7F02D9B6
:1004F0000BB9ADF8363097F8D4311C4884F82C305D
:100500000021642213F0F2F99DF83230002B39E01B
:100510009805002019D90008003802400005FA05A6
:1005200000000008000002400004024000080240F1
:10053000001002400014024040420F00D84000204A
:100540003F90020010E000E0203F0020F44D010841
:10055000A81A0020120D0020C01D0020BE1D002082
:10056000C0130020DA130020200B0020581B0020AD
:10057000E040002000ED00E068080020244601086B
:10058000000C024014BF02230023BBF1000F02D174
:10059000B8F1000F00D0013309EB83034FF00009DD
:1005A000D3F8E0300593CDF81090059A32F8093071
:1005B0004FF6FF72934200F09B81D8B2A44A9DF897
:1005C00027104FEA001C1B0A02EB0C0541B1DFF8B3
:1005D000B4E26968714503D12989012900F082815B
:1005E0009DF8231041B1DFF8A0E26968714503D19D
:1005F0002989042900F076819DF8241041B1DFF8A3
:100600008CE26968714503D12989202900F06A814B
:10061000022B02D19DF8201003E0012B04D19DF89C
:100620002110002900F05E819DF82D1031B19DF858
:10063000321019B90438032840F22C81012B52D111
:100640009DF8283023B9BDF83430B3F5FA7F07D9C7
:1006500052F80C307F498B4204BF032384F82D30BD
:10066000FF234FF00008298984F8743084F875302E
:100670006B7B686884F87880C4F88450ADF83C10CF
:100680008DF83E30314602238DF83F3084F83080BB
:10069000C4F83480C4F83880C4F83C80C4F8708052
:1006A00084F8768084F877800392CDF808C00EF045
:1006B00074FF039ADDF808C0A97A52F80C0042468C
:1006C0000EF094FD28460AF0E7F8634B6349C4F83E
:1006D0008830634BC4F88C30C4F8908028460A1DDB
:1006E0000CF0B7FFFEE0022B49D1DDF810E05D48C9
:1006F0008DF83F305FFA8EF14FF01C0E0EFB01F1CA
:1007000000EB0108DDF810E088F801E04FF0000B85
:100710004FF0010E88F802B088F80AB000F801E046
:10072000697BB5F808E06868C8F80C508DF83E1091
:100730003146ADF83CE00392CDF808C00EF02DFF35
:10074000DDF808C0039AA97A52F80C005A460EF058
:100750004DFD28460AF0A0F8434BC8F81030434B33
:10076000C8F8143008F11001C8F818B0284608F18C
:1007700014020CF06EFF049901310491B2E0032BD6
:1007800040F086809DF82830DFF8EC800BB39DF8B0
:10079000293098F8018053B1BDF83430344AB2FBA7
:1007A000F3F22846082192B2BDF8363003E028461D
:1007B00008214FF6FF720BF059FB04EB8803C3F8D6
:1007C00058012C4BC3602C4B9A7803EBC2031922BF
:1007D00031E0BDF8343098F801B0B3F5FA7F15D99F
:1007E000234AB2FBF3F292B2BDF836302846082114
:1007F0000BF03CFB04EB8B030D22C3F858011F4B9D
:10080000C36098F8023008EBC30314E01C4AB2FB43
:10081000F3F292B2BDF83630284601210BF026FBE8
:1008200004EB8B030922C3F85801124BC36098F8FC
:10083000023008EBC3035A710F4B9A78597803EBD7
:10084000C200013201710131856059709A7049E02E
:10085000F04D0108000001406D5E000820060020F8
:10086000795F00081006002009F30008515F0008B6
:1008700000127A00895F0008581B0020995F000869
:1008800040420F0000080240000402400000024005
:10089000042B27D1DFF85082924A98F8023098F85A
:1008A00000B008EBC303012183F804B0BDF82E307B
:1008B00092FBF3F292B2BDF8303028460BF0D6FA34
:1008C00004EB8B030A21C3F8880198F8023008EB87
:1008D000C3020133517198F8002088F802300132C8
:1008E00088F8002009F10209B9F1180F7FF45DAE14
:1008F0007D4A7E4B127884F8A8217D4A1578A5F1AF
:1009000017024FF0000C022A83F800C09E461CD844
:10091000236A6344D3ED007AF5EE407AF1EE10FAE3
:1009200002D1A36A83BB2AE0724A0CEB02080FCB08
:1009300088E80F009EF800300CF1100C0133BCF178
:10094000C00F8EF80030E3D1EBE76B4B03EBC50330
:10095000D3F814B093F810908EF80090BBF1000F0C
:10096000DFD0CC45DDDA634A4FEA0C1303EB020813
:100970005B440FCB0CF1010C88E80F00F1E7DAF8CB
:100980000030D80427D420E05B4B5C4A03EBC5035E
:10099000D3F8F44093F8F0001070002CEFD000234F
:1009A0008342ECDAC3EBC3016218DFF87881D2F836
:1009B000009041F8089001EB080C9188ACF8041005
:1009C00092798CF806200133EAE705F0EF03082B53
:1009D0004B4B20D121E09EF800100129F5D9494B5D
:1009E00000228A4203F11003EFDA13ED047AF6EEE7
:1009F000007A27EE277A013203ED047A13ED057AA7
:100A000027EE277A03ED057A13ED037A67EE277A4E
:100A100043ED037AE5E70E2D08D11A7842F0100273
:100A20001A70182D08D105F00AFD05E01A7822F099
:100A300010021A70192DF5E70AF002F9DAF8003001
:100A4000590302D4304B01221A70304930480B78D8
:100A5000DFF8D4B043F004030B7011238DF83E305F
:100A600002238DF83F302B4B1A6B01252A43314668
:100A7000ADF83C501A630EF090FD274B274A1A60E0
:100A800000200DF0CBFB0FF0D1FB0AF0C3FB584662
:100A900000211022DAF8004012F028FF4FF6FF7311
:100AA000069303234FF0000A8DF81C3014F0020364
:100AB00004F4004904F400688DF81DA08DF81EA010
:100AC0008DF81FA05C4631D01EA9154841F8605D25
:100AD0000CF028FF0723257084F801A0A570E370AF
:100AE00025E000BF40420F00581B0020E40A002010
:100AF000C0130020B812002024460108EA13002089
:100B0000FD090020C0120020C8180020E04000208D
:100B100000000240003802405008002005D90008BB
:100B200000080240F01300207C1900201D46B9F196
:100B3000000F0FD01EA9042341F8603D81480CF03E
:100B4000F1FE0C2301222371A2716B1C0722657137
:100B5000E271DDB2B8F1000F0FD01EA9202341F8D9
:100B6000603D79480CF0DEFE022301222373A2735C
:100B70006B1C07226573E273DDB2744B74481A6B09
:100B8000DFF8CC9142F480021A631A6B42F004023F
:100B90001A635A6C42F480725A640EF067FC6D4B13
:100BA00010934FF00008022D6B4B119334BF434656
:100BB0004FF4806315934FF4006316934FF4005382
:100BC00017934FF48073189331464FF4003348461F
:100BD00013951993CDF83C80CDF84880CDF850801E
:100BE000CDF86880CDF86C80CDF87080CDF8748039
:100BF0000EF012FCD9F80030584A43F00103C9F84E
:100C000000305168564B0B4043F440335360554B12
:100C10005A68012D22F0407294BF0021012122F474
:100C2000807242EA01225A6099684F4A0A4042F0B3
:100C300002029A60DA6A013D22F47002EDB242EAE1
:100C40000555DD62012204EB0805A978002950D082
:100C500014F80810EE78501C0929C0B210D9A1F17F
:100C60000A0505EB4505D3F80CC04FF0070E0EFA48
:100C700005FE2CEA0E0EAE404EEA0605DD600DE0E4
:100C800001EB4105D3F810C04FF0070E0EFA05FE38
:100C90002CEA0E0EAE404EEA06051D61062A0CD85F
:100CA000013A02EB82025E6B1F25954026EA05059C
:100CB000914045EA01025A631CE00C2A0CD8073A1D
:100CC00002EB82021E6B1F25954026EA0505914026
:100CD00045EA01021A630DE00D3A02EB8202DE6A78
:100CE0001F25954026EA0505914045EA0102DA6292
:100CF00000E0104608F10408B8F1100F01D00246D8
:100D0000A1E79A68194D42F400729A609A6842F419
:100D100080729A609A6842F001029A609A6842F082
:100D200080429A60B5F858214AB9B5F95A31FBB9F1
:100D3000B5F95C31D3F1010338BF002319E000237A
:100D400017E000BF000402400000024000380240EB
:100D5000706402404C2001408C19002000230140A7
:100D6000E030FCFF00200140FDF7FFC0200B002019
:100D7000134613F00103B24C6AD1B249DFEDB27AE7
:100D80000B7012B208EE902AB7F95C31B7F95A210C
:100D9000F8EEE88A08EE102A0AEE903A68EEA78A82
:100DA000B8EEC88AF8EEEAAAB0EE680A28EE278AFA
:100DB0006AEEA7AA05F046FEB0EE409AB0EE680AC9
:100DC00005F0E0FDF0EE409AB0EE480A05F03AFE7C
:100DD000F0EE408AB0EE480A05F0D4FDB0EE408A4D
:100DE000B0EE6A0A05F02EFEB0EE40AAB0EE6A0A36
:100DF00005F0C8FD20EE097A69EE8A7AF0EE475ACE
:100E0000E7EE885A2AEE096A69EE806AC4ED6E5AE6
:100E1000F0EE465AE6EEC85AE7EE087AE6EE486A81
:100E20002AEE28AA28EEC00A69EEE89A68EE898AB6
:100E300084ED6BAA84ED6C0A84ED6D8AC4ED6F5A63
:100E4000C4ED709AC4ED716AC4ED727AC4ED738A10
:100E5000DFF848B27D48DBF8003097F85F91B3F8CF
:100E6000628097F861A100210C2212F03FFD002161
:100E70001422774812F03AFD76480026314684F86D
:100E8000DC610C224670043012F030FD724BC4F865
:100E9000EC3123200DF08FF9704BC4F8F0611A8803
:100EA000C4F8F46122F040021204120CC4F8F86194
:100EB000C4F8FC611A801A8822F038021204120C5D
:100EC00042F028021A801A8892B242F040021A8038
:100ED0006B20802111F0B8FA06265F4696200DF0AF
:100EE0006AF9752001210FAA11F06EFA9DF83C30C5
:100EF000682B06D0712B04D0013E16F0FF06EDD111
:100F00001CE00C2001210FAA11F05EFA9DF83C3084
:100F10005A2B05D8542B05D2143B042B0ED801E0D4
:100F2000EC2B0BD1032384F8DC31432384F8E0312C
:100F30004B4BC4F8E4314B4BC4F8E8314A4E002324
:100F4000337094F8DC31032B40F07884404B474AEF
:100F50001A60474A5A60474ADA60474A1A61474866
:100F60000422327006220270454A1168B9F1090F55
:100F700041F0010EC2F800E00346934600F25A84A5
:100F8000012000FA09F040F202320240002A40F04B
:100F9000498410F0FD0F00F045843A4AC4F8D0218E
:100FA000394AC4F8D421394A0420107041F00301B1
:100FB00007225A70CBF80010DBF80020920702D508
:100FC000D4F8D0219047324A4FF47A711160204909
:100FD0004FF000090B6884F80092504698472D4A5C
:100FE00095F8553182F8009003B1337095F8563179
:100FF0000BB126490B7095F8573103B11370DBF82C
:1010000000301B074CD50FFA88F8642398FBF3F2E5
:1010100003FB12880FFA88F807EE108AF8EEC76A09
:1010200007EE102AF8EEC77A9FED1B7AE6EE877A74
:10103000B2EE047A67EE877AC4ED817A33E000BFBE
:10104000980500200000002035FA8E3C680700203B
:10105000040A002074070020E4470108003800401B
:10106000C923010849240108740A00204D01010820
:10107000D55F0008B95F000890C1793D08000020E5
:10108000000A0020CDAD0008A9E400084C080020AB
:10109000180A0020540800208988883CCC0A0020C7
:1010A0000023C4F80432BF4B1A7842F002021A70CF
:1010B000BD4A4FF4004151834FF4804111834FF0FA
:1010C0000A099846B84E736983F4004373617369E3
:1010D00083F48043736119200DF06DF801200DF049
:1010E0009DF819200DF067F809F1FF3900200DF087
:1010F00095F819F0FF09E5D14FF4804333834FF49D
:1011000000433383D4F808329FEDA88A1B7BA84E96
:1011100000EE103AB8EEC00A20EE080A05F092FC84
:10112000A44B9FEDA57AD3ED047AA44B84ED830AFA
:101130001B8827EE888A07EE903AF8EEE77A84ED6E
:10114000848AC7EE277A9FED9E7AC7EE877AC4ED30
:10115000857A05F0B3F9FF211C22304612F0C6FB58
:10116000984A994B126886F80090012112F0020FFC
:101170001970304604D07170032119700221B170CA
:1011800019784E1CF6B24FF01B0E12F0040F1E70B1
:1011900000F801E009D001F1020E8B4981F800E06E
:1011A00083494FF0030E01F806E012F00A0F0CD04D
:1011B0001A7804218154511CC9B205264654D11C09
:1011C0000232D2B2197006218154804E32689106E3
:1011D00008D5197801F1010E83F800E04FF0070EF1
:1011E00000F801E011060ED519784FF0090E00F84D
:1011F00001E001F1020E0131C9B283F800E04FF0C5
:101200000A0E00F801E06979082901D00E2909D1F8
:1012100093F800E00EF1010C83F800C04FF00B0CC6
:1012200000F80EC093F800E00EF1010C5FFA8CFCA0
:101230004FF00C0912F0040F83F800C000F80E9074
:101240000BD0DFF884910EF1020E89F800E0DFF890
:1012500060E14FF010090EF80C9093F800E00EF1E9
:10126000010C5FFA8CFC4FF0120912F4806F83F8C6
:1012700000C000F80E9010D095F81492B9F1000F4C
:101280000BD0DFF844910EF1020E89F800E0DFF890
:1012900020E14FF013090EF80C9012F4007F09D0F2
:1012A00093F800E00EF1010C83F800C04FF0150C2C
:1012B00000F80EC0182917D193F800E04FF0160C73
:1012C00000F80EC00EF1010C5FFA8CFC4FF017090C
:1012D00000F80C900EF1030C0EF1020E5FFA8EFE78
:1012E00083F800C000F80E10110308D5197801F139
:1012F000010E83F800E04FF0190E00F801E0D2056E
:1013000004D51A78511C19701A2181541A78511C6D
:10131000197014238354002198222D4812F0E6FA04
:101320000EF0EEFF2B49B5F84E31A4F81C32002325
:101330000B808B703968B5F89401274AC4F81822DD
:1013400001F1850C254984F81E320A6082B22449D5
:10135000DFF890A0D1F80090DFF88CE023F80A20A5
:1013600009F596794EF813900233242B8946EED175
:10137000D6F800E01EF4805F0CBFB5F89C31134630
:10138000AAF8063000231CF80320002A3BD10CEBFE
:101390000302917892F803B0594534D231B3013940
:1013A00026E000BFE0400020000C024035FA8E3CF1
:1013B000511D0020040A00200AE81C4110000020F2
:1013C00000401C46000A0020501D00206808002034
:1013D0000C1A002094130020A60C00207008002096
:1013E000D4400020FA0A0020B80700200BF10101C8
:1013F000527801EB810101EB810101F56171043249
:1014000089B22AF812100433502BBCD11EF0080FF9
:1014100000F0BA8095F88E31062B00F2AF80DFE83D
:1014200003F004070E35506E6E0045F2F05201E0F5
:1014300042F6F8227C4B1A800EF0EEFF9DE07A4BCC
:1014400042F6F8221A8000010A2390FBF3F0A0F57F
:10145000B0600023754A98500433482BFAD1744B7E
:10146000744A5A60744B122240201A700CF082FCAD
:10147000002800F0838001234FF0070C90F9000052
:101480006E4A8DE8081040216D4B71E0664B42F6C4
:10149000F8221A80664B6B4A5A60674B1022402034
:1014A0001A700CF067FC002868D001234FF0000E82
:1014B00090F90000644A8DE8084040214FF4E13380
:1014C00056E0594B42F6F8221A80594B5F4A5A604F
:1014D000594B082240201A700CF04CFC00284DD0CB
:1014E0000123002590F90000594A8DE82800402189
:1014F0004FF4E13310F030FAC4F868023AE04A4A97
:10150000544842F6F82111804B490C22062B0A70F0
:1015100010D00023037084F86C3284F86D321B23E2
:1015200084F86E32052384F86F2284F870324FF409
:10153000E1350DE00021017084F86C1284F86D1221
:10154000454D84F86F22212184F86E1284F87032A0
:10155000374B424A5A6040200CF00CFC70B101211C
:1015600000233F4A90F900008DE80A0040212B46F5
:1015700010F0F2F9003018BF012028B9082005F05A
:10158000E5FB2B4B374A5A6033682B4A13F4804FE4
:1015900004D01221117026493348486042F20101FB
:1015A000194003F0010003F4005581B11E4944F6CF
:1015B000206EA1F800E025B1082111701C492B4DC7
:1015C0004D6020B10C2111701949294848601178EB
:1015D000043951701A0640F189804FF0000A254DF8
:1015E000DFF89CB02448C4F874B25146152285F83F
:1015F00001A0C5F804A0C5F808A012F077F91F4BA8
:10160000ABF1050250461A6003930AF057FBD9F874
:101610000020EA6002200CF0ADFB039B194688BB5A
:10162000802005F093FB5AE04A190020C4080020EE
:101630000000002099D800086D1D0020FDE0000882
:10164000A086010089D800084DE0000875D8000880
:1016500001E00008A809002090D0030035D8000858
:10166000E1DE0008EDD80008C9D80008D5D8000888
:10167000E1D80008D809002010080020F80900204F
:10168000120D002090F805E06B786E4A4FF00C0CBC
:101690000CFB032C9CF801C0F44504D00133DBB2F1
:1016A000042BF2D900236B700B6890F900001B78B3
:1016B000002B6B784FF00C0505FB03220CBF0121BA
:1016C00003215378009100220192022110F044F985
:1016D0005D4B18600028A3D001200AF0EFFA3868AB
:1016E0005A4B00F5CB721A6005F068FC33685B0555
:1016F00053D5574BD4F890721F6004200CF03AFB7E
:101700000421C4F894020CF00BFB524B84F89802AD
:1017100008201F600CF02EFB4F4B504D1860082125
:101720000CF0FEFA002184F899022C22284612F0CF
:10173000DDF88E236B704FF07C0AE0234FF07D09BB
:10174000EB7085F800A085F82B90454D2C220021E8
:10175000284612F0CBF88A236B701020A023EB7080
:1017600085F800A085F82B90C4F89C720CF002FB61
:101770001021C4F8A0020CF0D3FA84F8A4022020AF
:10178000C4F8A8720CF0F6FA2021C4F8AC020CF0F0
:10179000C7FA84F8B0020FF02BF83368314A13F41B
:1017A000002318BF012313700CF07FFB2E4B186031
:1017B0002E4B5A79052A194603D12D4B4FF4C87286
:1017C0001A802C4B4FF47A721A802B4B1A7842F005
:1017D00008021A70294B1A7822F002021A70326835
:1017E00040F6020313406BB1254B264A1A60264B84
:1017F00003221A70254B01221A70254A00231380F8
:10180000244A13808B683360234B01221A7098F8A6
:10181000003063F07F0388F800301FB0BDEC068B0A
:10182000BDE8F08FB9F1010F04D81C4A00211170F6
:10183000FFF7C2BB4FF00009FFF7A2BB01200CF07D
:1018400011FD30E4D04E0108D40900209C12002084
:10185000141E0020681E0020B41E0020381E002028
:101860006D1E0020C9180020D40A0020200B002083
:10187000CC190020FE180020FD090020F8180020D7
:101880000C1E0020980C00206C1E00201A00002066
:101890006E19002070190020C81800204C08002084
:1018A0002DE9804893B0FEF79FFCC04C2379226855
:1018B000254633B1A368D31A002B02DB0023237122
:1018C0002373216942F201030B400BB9B74803753A
:1018D0000B0740F18581A3691B7A062B00F270810A
:1018E000DFE813F0070007003500EF002C015A0174
:1018F0005A01237FAD48002B00F06381002303775A
:10190000036A90F81DE090F8248093F800C0022349
:10191000EF1803F1010A97F82500A44E40FA0EF0E3
:1019200000F00F0060450ED20B280CD897F82590D8
:1019300006EB0A0706EB800097F8257009EA08060F
:1019400007EB062686630233102BE1D12BE194F8D6
:101950006800964B002800F0B28093F8B660002033
:1019600083F8680093F8B50006F0070740EA0720FF
:10197000D86693F8B70000F03F077F0147EAD60624
:101980001E6793F8B860B60046EA901693F8B9005F
:1019900000F0010746EA87265E6793F8BA6006F012
:1019A0000F07FF0147EA5000986793F8BB0000F06B
:1019B0007F073F0147EA1616DE6793F8BC607600A2
:1019C00046EAD01093F8BD6006F0030740EA4720CE
:1019D000C3F8800093F8BE0000F01F07BF0147EA7C
:1019E0009606C3F8846093F8BF60F60046EA50108C
:1019F00093F8C160C3F8880093F8C00006F00707A9
:101A000040EA0720C3F88C0093F8C20000F03F07BB
:101A10007F0147EAD606C3F8906093F8C360B6002A
:101A200046EA901693F8C40000F0010746EA8726BC
:101A3000C3F8946093F8C56006F00F07FF0147EA0A
:101A40005000C3F8980093F8C60000F07F073F01EC
:101A500047EA1616C3F89C6093F8C760760046EA1A
:101A6000D01093F8C86006F0030740EA4720C3F897
:101A7000A00093F8C90000F01F07BF0147EA9606CF
:101A8000C3F8A46093F8CA60F60046EA5010C3F8A1
:101A9000A80093F8CB00C7074CBF40F21476AD26E0
:101AA000C3F8AC6086074CBF40F21473AD2310F04E
:101AB000080FC4F8B0300CBF0123032381E00346B4
:101AC0007FE094F8CD6039480023AEB390F8CE6043
:101AD000B0F8D0C080F8CD304FF0020E03271EFBC7
:101AE000067880440EFB060E98F8D2809EF8D6E069
:101AF0004EEA082EF44564D190F8D300012803D0B3
:101B000081285ED13B4600E00346102E84BF1020A2
:101B100084F8CE0094F8CEE000204FEA4E0E7045D7
:101B20004FD0234F3E18263796F803C0367946EA41
:101B30000C26C6530230F2E7334642E094F818010F
:101B40001A4B00283CD0002083F8180193F81901A3
:101B5000A82835D193F82C3193BB05EB43009FEDBA
:101B6000157A90F81C6190F81D0100EB062007EE35
:101B7000900AF8EEE77A1048C7EE877A9FED0F7A61
:101B800077EEC77AFCEEE77A17EE906A40F82360AA
:101B90000133082BE1D106E094F850318BB1034BAF
:101BA000002083F8500101230BE000BF58080020FB
:101BB0002A090020CDCCCC40880900200080BB43FE
:101BC0000023D8070CD501202075BD48C3F340037E
:101BD000037083F00103237102F5C333A033A360C4
:101BE0004F0414D594F8513123B1B64B002083F83B
:101BF00051010123B34823754BB101230371B04B4D
:101C000000261E7002F5433303F5A0738360CE07F0
:101C100011D594F8526194F85301AA4BB0420AD0FE
:101C200001201873A64883F853610027477002F516
:101C3000C330A030986088040AD50023A14800F57D
:101C4000AA769E5B002E41F0FE810233182BF5D15F
:101C5000237D33B99B4BD3F86C31D31ADB43DB0FB5
:101C600000E001238BB1D4F87031D21A12F1500F79
:101C700003D4944B93F874313BB102F0C7FE0123B7
:101C800084F8753184F8743135E1D4F878218D4BBE
:101C90000132002AC8BF0022C3F878210A0640F1A9
:101CA0002A81D4F87C31B3B994F88031013B042BFC
:101CB00000F22181DFE813F01600160016000C0177
:101CC000DF00804BD3F87C010CF049FB07F00AFAE7
:101CD00008B10AF0C7FDD5F87C010CF045FB0028DF
:101CE000EFD1E1E7D4F8A021764D167816B1012E98
:101CF00012D000E1012B00F2FE80734B95F8812198
:101D0000D5F87C010C2101FB023292F8212053F816
:101D100022100CF01FFB65E0D5F87C010CF0FDFAF9
:101D2000002800F0E88095F88031022B46D0032B84
:101D300054D0012B40F0DF80644BD5F898211B680C
:101D40009A1AC72A40F2D780D5F89411042933D8BB
:101D50005D4AC5F898310C2000FB0121D5F87C5173
:101D600091F82110D5F808E00023104650F82360C0
:101D70007645DFB204D00133082BF7D1002300E011
:101D80003B468B4205D0284652F821100CF0E2FA6F
:101D9000B1E094F881310C2202FB0300466A16F888
:101DA000011B19B1284604F041F9F8E7D4F8943141
:101DB0000133C4F894319EE002209AE0424B95F83A
:101DC0008121D5F87C010C2101FB023292F82120FF
:101DD00053F822100CF0BEFA03208AE0D5F8A031A7
:101DE0009B780BB9042084E095F89C310BB985F8F9
:101DF0009C6194F89C31334D012B17D1D5F8943167
:101E0000B22B0DD8304AD5F87C01134493F85C10FE
:101E100004F00CF9D5F894310133C5F8943105E09C
:101E20000023C5F89431022385F89C3194F89C3145
:101E3000244D022B1AD1D5F894310F2B13D8D5F895
:101E4000A02121495278D5F87C0102EB02120A4404
:101E5000134493F8101104F0E9F8D5F894310133E4
:101E6000C5F8943102E0032385F89C3194F89C3145
:101E7000022B40D9B6E7D4F88821124B0132C4F8BE
:101E80008821D4F8A021D2785AB193F88121013267
:101E9000D2B20521B2FBF1F101EB8101521A83F8B4
:101EA00081210A4B1B68C4F88C31002384F8A431CB
:101EB00094F8A53123F0020384F8A531012018E03D
:101EC0000C00002058080020B04E0108D44000202B
:101ED000C84BD4F88C211968C74B8A1A40F6C41134
:101EE0008A4208D9D3F8A82122F02002C3F8A821F9
:101EF000052009F0E3FE0BF0D8FF0DF12C0820605F
:101F0000D4F8B831BC4D404698479DF82C3033B9D1
:101F10002A68D5F87031D31A642B01F18480D4F883
:101F2000C0212368B44D1344C4F87031002384F8F1
:101F3000743105F5E270D4F8B031984758B9B4F867
:101F4000CA31002B00F0DC80AB4BD3F87402643054
:101F50000EF092FDD4E095F8CC316BB3A74B42461E
:101F600003F1180618685968154603C50833B342CB
:101F70002A46F7D11B88A24A2B80BDF84460A2F103
:101F80000C01971F00231846D5186D88D55238F8D4
:101F900003E00233182B15FB0E00F5D14B88138399
:101FA0004FF4807513FB060393FBF5F321F8023F12
:101FB000B94202F11A02E5D18F4DDFF8549294F83C
:101FC0001C2205F5E27001460BF040FDB9F8003027
:101FD0004A4605F5E27A05F51B7B002B00F084806C
:101FE000D5F820321B78002708EE103A05F5097560
:101FF0003E4610888349B0F57A7F02D10023CB5149
:102000002B613AF906E0CB597344CB512B6905EEAD
:1020100090EA0133012BF8EEE57A2B6106D100231B
:10202000C5ED017AC5ED007AAB6019E095ED006A67
:1020300005EE903A77EEC66AB8EEE57A86EE877AD4
:1020400036EE077A37EEC76AD5ED027A85ED017A6A
:10205000E6EE867A85ED007AC5ED037AC5ED027A63
:10206000002301282AF806302BF806302CD12B69E2
:10207000012B09DD013B00EE103AD5ED037AB8EEF5
:10208000C00A87EE800A01E09FED5F0A0690049186
:10209000059211F0E5FE18EE103A06980499059A9B
:1020A0004BB1F8EEC87AB4EEE70AF1EE10FA02DDB1
:1020B0004FF47A7316E0CB594FF47A7103F5FA7343
:1020C00093FBF1F32BF806300236062E07F10407D6
:1020D00005F114058DD1012801D108F0D5FCB9F81E
:1020E0000030013BA9F8003000233AF803103BF818
:1020F00003208A1A2AF803200233062BF5D11EE7A3
:102100000BF0D3FED4F87C322060C31AA4F87832E6
:10211000C4F87C0200F0EEFFD4F88032364DDB02CA
:1021200040F1AF80B5F8CA6106F40066B6B2002E81
:1021300040F09380354B1B785F0740F18E804FF461
:10214000006008F03FFDD5F87432C5F884321A7883
:10215000B3F85A3094F88C924FF47A7E0EFB03FE5B
:10216000B4F87832022A08BF01229EFBF3FE0CBFAE
:1021700085F8882285F88862CEF1000ED4F8846252
:1021800094F888A21FFA8EFE0023A4F88AE2304653
:1021900006F120011A4690F8567090F853500FB18E
:1021A000BD4205D8B9F1030F05D8D7B2022F02D12D
:1021B000002780F85670DFF85CC0BAF1000F2BD012
:1021C00005EE905AD1ED006AF2EE047A66EEA76A47
:1021D000B8EEE57AF4EEC76AF1EE10FA44BFC7EE46
:1021E000277AC1ED007AD1ED007AFDEEE77A17EE9D
:1021F000905A18E0D44000205808002014500108DC
:10220000260A0020B80A002000000000F81800206C
:10221000FE180020E60A0020B71897F801B0AB4579
:1022200038BF7D707D78AD012CF80350A84D05F5C1
:1022300025774FF0000C23F807C0013205F29A27EA
:10224000032A23F807E000F1010003F1020301F182
:102250000401A0D1012385F8A032B4F8CA319C4D05
:102260001E051AD49B4B1B7803F0040303F0FF06F2
:102270009BB995F8A03283B10EF0F4FB85F8A0620B
:102280000BE0B5F8CA311D0507D5924B1B785807EE
:1022900003D54FF4006008F0C3FC8F4B9B78B3B1BB
:1022A000B4F9A822B4F85E349A4210DC884B93F853
:1022B000CD32012B01D0192B02D194F8AE2432B9C2
:1022C0000E2B04D0082B1CBF0023A4F8103AD4F81E
:1022D00074927F4D99F82461BEB3B5F8CA3199075D
:1022E00033D005F6142393ED080ADFED7C7AB5F8B8
:1022F000127AB4EEE70AF1EE10FA22D911F050FD8D
:1023000005F63825D5ED007A20EE270A11F0FEFCFF
:10231000B0F5617FA8BF4FF4617007EE100ADFEDE2
:10232000707AB8EEC70A80EE270A04F02BFB05EEA0
:10233000906AF8EEE57A27EE800A11F0E7FC80B2A9
:1023400000E000203844A4F8120AD4F8A831604D07
:102350009A0640F18180B5F8CA3103F03003002BB2
:102360007AD095F8A531DB0776D5B5F9402ADFEDAF
:102370005D7A5D4E0A2392FBF3F308EE103AB8EE55
:10238000C88A28EE278AB0EE480A04F0FBFAF0EE7D
:10239000408AB0EE480A04F055FBD5F8443AB5F946
:1023A0004E0ADF78B0EE409AB2EE048AA7B3B5F8D1
:1023B0004A3A1FFA83FA1BB2C01A04F061FE7D424A
:1023C000A84203DBB842A8BF384600E02846B4F86C
:1023D000483A8244B4F94C0A1FFA83FB1BB21FFA35
:1023E0008AFAC01AA4F84AAA04F04AFEA84203DBFB
:1023F000B842B4BF05463D465D44ADB2A4F8485A64
:102400000FFA8AFA2DB207EE90AA05EE905AB8EEAE
:10241000E77AF8EEE56A09E0B5F94C5A07EE900A5A
:1024200006EE905AB8EEE77AF8EEE66A68EEE67ADB
:10243000E7EE097A26EE899AC7EE887AA7EE289AFF
:10244000FDEEE77A89EE089A17EE903ABDEEC99A4A
:10245000338019EE103A73801D4DB4F8322405F222
:102460004E430093214BD4F8501A1E68484609F198
:102470006403B04794F88C12032916D9D5F8543A5E
:102480005A88B2F5FA7F10D2B5F95C0AB5F9105A3C
:102490005342002DB8BF6D425B1B984203DB5319BA
:1024A0008342A8BF0346A4F85C3AD4F88022084BC4
:1024B00017011FD50023B4F85AEAB4F858CAD4F863
:1024C000549AB4F95CAA0A481D461E4691E000BF22
:1024D00058080020F81800200C0000208FC2753C1E
:1024E000EFB6B04435FA8E3CFA18002014000020F4
:1024F000C01200201A6912F48052DBD1CB48B3F825
:102500005A5A0270B3F8586AB3F8120AD3F8547AD8
:10251000B3F95CEA03F526638A4203F1100380F005
:10252000D68097F900C013ED027ACCF1000C0EFBB7
:102530000CFC05EE90CA0FFA86FC06EE10CA0FFAE4
:1025400080FCF8EEE56A05EE90CA0FFA85FC07EE0E
:1025500090CAF8EEE77AF8EEE55A67EE877A13ED5F
:10256000047ADFF8D0C2E5EE877AB8EEC66A13EDDA
:10257000037AE6EE077A13ED017AE6EE877AFDEE4E
:10258000E77A17EE908A2CF812800132C4E799F9A5
:10259000002010ED017A0FFA8CF752420AFB02F28A
:1025A00007EE907A05EE902A0FFA8EF206EE102AC8
:1025B000F8EEE77AB8EEC66A67EE877A90ED007AB1
:1025C000E6EE077A0FFA85FBF8EEE56A90ED017A00
:1025D000E6EE877AFDEEE77A17EE902A92B217B20E
:1025E0005F4528F8162007DD15461A4601361030DB
:1025F00013468E42CBD305E00FFA83FB5F45F5DB34
:102600002A46F1E7D4F8382B50881688871BEB1A36
:10261000BFB23AB21BB29342844A12DD0125157053
:102620000DF12A0202EB4105AA4208D0B2F802E0FD
:102630001EFB07FE9EFBF3FE22F802EFF4E7B6B2A4
:1026400007E000251570022593FBF5F31E44B6B292
:10265000C01AB4F8122A80B200238B4237D215B2C6
:1026600007EE905A724D38F913C005EB031595ED3E
:10267000007AF8EEE77A06EE90CA0FFA86FC67EE6B
:10268000877A07EE10CAB8EEC77A5F00F4EEC77A11
:10269000F1EE10FAF8EEE66A0CD405B207EE105A25
:1026A000B8EEC77AF4EE477AF1EE10FAC8BFF0EE52
:1026B000477A01E0F0EE477A76EEA77A5D4DFDEEBF
:1026C000E77A013317EE90EA27F805E0C5E75A4BA1
:1026D0001A7802F0040202F0FF0312B994F88C1287
:1026E00080E0D4F8802294F83F6B544B079612F0A8
:1026F000006C1DD11A69D60418D4B3F8202B93F8B6
:102700008C020123834211B208D24A4A32F91320C3
:102710008A42B8BF0A4692B20133F3E7D4F8383B95
:102720005D88A94204DD551BADB202E0654600E0BC
:102730000025236994F88C92D4F8607BB4F9A81230
:10274000D4F8640BD4F8382B099703F4805803F0BD
:10275000100308934FEA490900234B4539D0BCF1D7
:10276000000F0BD1B8F1000F40F07D84314E33F8EB
:1027700006E0C5EB0E0E23F806E003E0B8F1000F0B
:1027800040F079842B4E079FB2F802A036F903B0CF
:1027900047B1B2F804E0F34517DBD345B4BFDE46DA
:1027A000D64612E0B2F800E0F34503DBD345B4BFF0
:1027B000DE46D646099F26F803E03E8AB14206DA95
:1027C000089E26B1B2F804E01A4E23F806E0023360
:1027D000C3E794F8682B194B013AD2B2182A00F2D9
:1027E00054810AE08B42F4D2124A02F14A0030F8D6
:1027F000130022F813000133F4E701219140104A3D
:102800000A40002A00F04181B3F8CA21D50519D544
:10281000B3F80C2AADF82C20B3F80E2AB3F8103A0E
:10282000ADF82E20ADF8303025E000BF00190020B3
:10283000B812002078130020F81800205808002053
:1028400099209801B3F8582A1969ADF82C20B3F8EB
:102850005A2AADF82E20C804B3F85C2AADF830200F
:1028600009D5B3F9A812D3F8603BDB899942BCBF04
:102870005242ADF83020B4F93E1A4FF47A7201F5A5
:10288000E16151434FF4616391FBF3F1A1F5FA71FA
:10289000ADF84410B4F93C1A01F5E1614A4392FBEA
:1028A000F3F3A3F5FA73ADF84630B4F8203BB4F86F
:1028B000A222A3F2DC53ADF83230D4F8603BDB89BE
:1028C000D21AADF83420B4F8A422D21AADF83620CA
:1028D000B4F8A622D21AADF83820B4F8A822D21A39
:1028E000ADF83A20B4F8AA22D21AADF83C20B4F8D8
:1028F000AC22D21AADF83E20B4F8AE22D21AADF80E
:102900004020B4F8B022D31AADF842300022B64BC2
:1029100003F68230002111520232102AF7D1D3F887
:102920008072D3F8940B93F8923B07975B0009935E
:1029300008900B46099DAC48AB4200F08B8000F636
:1029400098346218957935B10126153506FA05F5E2
:10295000079E354078D0675C089892F904B092F8E9
:10296000019092F803C092F805A0C7EBC70600EBF0
:1029700046064FEA490EB6F90000B6F902502D1A84
:10298000ADB2642005FB0BFB9BFBF0FB4FEA550847
:10299000C8EB0B0B1FFA8BFB944812ACBCF1000F79
:1029A00003D1744434F81C4C0CE0A644C45E3EF9D8
:1029B0001CEC744508DAA444A44503DBE645B4BF27
:1029C00074466446C4520AE009DDCCEB040CF445BD
:1029D00003DBA445B4BFE646A64620F803E04FF06B
:1029E000010ED6F80A60804892F902200EFA09F921
:1029F00019EA060F0CBF76464FF0FF3600F6084E78
:102A00007F0033F80EE012FB0EF24FF0640EC41993
:102A100092FBFEF20FFA8BFB5A45B4F8824BB6B22A
:102A20000CDB4FFA8AFB05FB0BFB9BFBFEFBC8EBA9
:102A30000B0B0FFA8BFB9345A8BF934607440BFB88
:102A4000064BA7F882BB02E000F608401D52023395
:102A500007316FE70024D0F8948B25460E2202FB45
:102A60000582634E92F90670A35B17FB03F764239C
:102A700097FBF3F7A753E8B203F006FD013538449E
:102A8000082DA05304F10204E8D1574C266916F032
:102A90002008274634D0002003F0F6FCA4F8820B6F
:102AA0000546012003F0F0FCD4F88032A4F8840B32
:102AB000190625D5D4F8283CB4F83C2A1B78012BFC
:102AC00022D1D4F8943BB4F93EEA93F9141093F967
:102AD000063011FB02F25B4232210EFB03F392FB44
:102AE000F1F26FF0310E92B293FBFEFE964493FB2F
:102AF000F1F175440A44A4F8825B1044A4F8840BF5
:102B0000D4F894AB002319E0D4F8941BB4F83E3AFF
:102B100091F906E091F914101EFB03FE32239EFB8F
:102B2000F3FE11FB02F2754492FBF3F3A4F8825B0F
:102B30001844E3E7D1520233102B10D0C3EBC30586
:102B40002B4A5544985EB5F90010B5F902508842F9
:102B50009146EFDB29B28842B8BF0146EAE7224B33
:102B6000D3F854BA9BF90830A3B994F868AB0AF1CA
:102B7000FF33182B78D8DFE803F02F777755777776
:102B8000774C7777777777617777777777556C7743
:102B900077612F000025174BBBF9062039F9051086
:102BA000442000FB053003F055FFC5EBC50280B2A1
:102BB00029F80500524400B2B2F90030B2F90220FF
:102BC000984203DB13B29842B8BF034629F8053098
:102BD0000235102DDFD1C8E79BF8043063B1002027
:102BE000B4F88C1B11E000BF5808002060140020CE
:102BF000DA13002088140020B24B1B7803F0040382
:102C000003F0FF00002BEAD1014604F0A9FA0125E8
:102C10002BE00020B4F8881B04F0A2FA0120B4F8DD
:102C20008A1B07E00020B4F88A1B04F099FAB4F874
:102C30008C1B012004F094FA02250FE2002509EB19
:102C40004503E8B29988013504F08AFA062DF6D1D9
:102C50000BE0002509EB4503E8B2D988013504F003
:102C60007FFA042DF6D1F9E10025B8F1000F02D169
:102C7000BAF1050F0CD12846B4F8821B04F070FAA3
:102C8000681CC0B2B4F8841B04F06AFA0235EDB2D5
:102C9000F20207D48C4D15F8883CA8467BB107F0AA
:102CA000EBFF0CE00026894B03EB4603A819C0B2EA
:102CB000198904F055FA0D2EECD00136F3E7B4F87B
:102CC000CA312BB9824BD3F8740264300DF0D4FEB4
:102CD000804B1878002840F0A68123691B0340F13F
:102CE000A28115F8873C023B052B19D8784B93F845
:102CF000003A2BB9744B53F8840C03689B689847CF
:102D000055F8803C15F87C2C1344B3F5807FA8BFA0
:102D10004FF480738342D4BF45F8803C45F8800C63
:102D200015F8873C023B082B00F27D81DFE813F0A9
:102D300009004300630079009200A40041015F0193
:102D40006C01654B1A6855F8743C64339A4240F242
:102D50006A81402004F064F8002840F06481402635
:102D60005E4B58F8782C584C1A441F4692F87E0156
:102D700070B103F060F954F8802C013A44F8802CCB
:102D800054F8782C013E02F1010244F8782CE7D186
:102D900055F8782C4C4B174497F87E21002A40F0C8
:102DA000428143F8782C4FF0FF3243F8742C032211
:102DB00003F8872C37E124230093494B019303F157
:102DC0000C0202924920A3F10A02502102330FF0B3
:102DD0004BFB002840F02781236913F080024FF05D
:102DE000FF3305D045F8743C45F8780C0423DDE04A
:102DF00045F8782C2AE03B4A0223002100930191F8
:102E00000291482002F108030FF02EFB002840F049
:102E10000A814FF0FF3345F8743C45F8780C0523E0
:102E2000C4E007230093304B019303F10C0202929C
:102E30004720A3F10802002104330FF015FB0028FE
:102E400040F0F18045F8780C4FF0FF3345F8743CC2
:102E50000623ABE0254A052300210093019102914E
:102E6000532002F108030FF0FFFA002840F0DB8046
:102E700045F8780C072399E0402003F0D1FF0028A3
:102E800040F0D18055F8783C0C2B00F28680DFE8CA
:102E900003F0070B0E123D484C505458656F7300F9
:102EA000134806F0B3FD72E01248134936E01348A8
:102EB0001349144A69E0144894F8FE1994F8FF295C
:102EC00063E000BFF818002050190020FA0A002023
:102ED0005808002001190020D4400020B04E0108FD
:102EE0009A5001084052010858520108A4520108A2
:102EF0000C60010826600108587001083B60010859
:102F00004F6001085B6001086460010894F8D839DB
:102F100069480C2202FB037797F8DA1906F076FD70
:102F200035E06648B4F80814F8E76548B4F80A14C0
:102F3000F4E76448D4F8BC11F0E7634B6348998820
:102F4000ECE755F8703CDE0403D5614894F8401472
:102F5000E4E7604B0B2243F8782C18E05E4894F8C5
:102F6000441494F8452494F8433406F04FFD0EE0E1
:102F70005A4835F86C1CD1E72269594B140506D51F
:102F80005848B3F84814B3F9462406F03FFD55F805
:102F9000783C013345F8783C45E00BF0CEF9002849
:102FA00041D04FF4805325F86A3C092305F8873C4B
:102FB00039E0D4F88032980116D535F8683C454C94
:102FC00093B954F8643C0B93454B0E201B680C934B
:102FD0000BA903F017F94FF4805324F86A3C092336
:102FE00004F8873C0EF050FA03F038FF1BE015F8A8
:102FF000603C002BF6D0D4F880329901F2D4354BE6
:10300000082203F8872CEFE7374B1A6855F8743C11
:10301000C8339A4203D90DF0B1F90123C6E70BF08A
:103020008CF90028F7D1314B1B78002B7EF43DAC96
:103030002B4B1A6952057EF538ACB3F8160404F030
:10304000B9FFFEF732BC012303731F4B00265E70ED
:1030500002F5C333A0338360FEF7FABDB8F1000F69
:103060003FF416AE07E6099FB0F806E0FE89CEEB06
:10307000060A514512DC099FFE89B1421C4EC8BFA9
:10308000B0F802E036F903A0D6BFB2F804E0B2F817
:1030900002B0B0F800B0F245FFF77EBBB644714510
:1030A000E9DAB142C8BFB0F802E0114ED8BFB0F8BB
:1030B00000E0FFF78ABB00BF756001087F60010870
:1030C0008E6001089D6001080C000020AD600108C1
:1030D000B760010850190020C4600108DD600108D4
:1030E00058080020E8600108D440002001190020A1
:1030F000781300202DE9F04FC54AC64BD2F800E006
:10310000B3F90600BEF80A302DED028B98428FB05D
:103110000FDBB0F5FA6F9EF8077007DAC21A574353
:10312000A3F5FA6397FBF3F7643703E0C7F164078D
:1031300000E06427B84BB3F894210292B74A93F9A0
:103140005E31D2F800C09BB20021039365460A4667
:10315000B04B029C31F903B0C4EB0B0303F2F3163E
:1031600040F2E634A64203D8002BB8BF5B4201E030
:103170004FF4FA73022A4FF06406A94C2ED09CF843
:103180001D81B8F1000F04D04345CCBFC8EB030349
:10319000002393FBF6F86FF0630A34F818900AFBEB
:1031A000083A08F1010834F918800FFA89F4C4EBE1
:1031B000080404FB0AF494FBF6F4A144994C21F8AA
:1031C00004900EEB020424796343974C93FBF4F3D1
:1031D00064339BB27B4393FBF6F630E09CF81E8190
:1031E000B8F1000F04D04345CCBFC8EB0303002364
:1031F00093FBF6F66FF0630904EB460809FB063A09
:1032000004EB4606B8F90E80B6F91040854EC8EBBF
:10321000040404FB0AFA9AFBF9FA039CC8EB0A08B7
:1032200008FB04F8A6F804809EF8064083EAE376DB
:10323000A6EBE37666437C4C96FBF4F664360CEB27
:103240000208774B98F8019003F11C044FF06408D2
:1032500006FB09F999FBF8F902F8049095F80B9030
:1032600003F11F0406FB09F999FBF8F902F8049031
:1032700095F8159003F1220406FB09F6022A96FB45
:10328000F8F616551C4616BF253383F82780D75409
:10329000029B644E9B4502DA735A5B4273520231C1
:1032A000062902F1010205F101057FF451AF5A4DE3
:1032B000B5F89631984205DBB0F5FA6FA8BF4FF428
:1032C000FA6000E01846C01A4FF47A725043C3F512
:1032D000FA63B0FBF3F34FF0640E93FBFEF204EBE2
:1032E00042016FF0630000FB023304EB4202098DE0
:1032F000B2F92A004B4F0AB2821A534393FBFEFEE7
:103300004A4B1B887144F18059063AD5484BDFED92
:10331000497AB3F904200A2392FBF3F3404AB2F846
:1033200040209B1A1BB208EE903AF8EEE88A68EE4D
:10333000A78AB0EE680A03F085FBB0EE408AB0EED3
:10334000680A03F01FFBB7F90220B7F9003006EE58
:10335000902A07EE903AF8EEE66AF8EEE77A20EE69
:10336000667AA7EE887A67EE807ABDEEC77AE6EED7
:10337000887A17EE103AFDEEE77A3B8017EE903A26
:103380007B8095F89A31002B7BD02B4B244F1B88E8
:10339000DFED2A0AB4F8428000EE103A0121B8EEBF
:1033A000400A07F1440003F0F1F8BCEEC00A244BD8
:1033B00010EE101A89B2B8FBF1F101F1010C1B7883
:1033C0001FFA8CFCA4F84CC0002B3BD0B7F84EB0D1
:1033D0000023134AF75A02F1500E02F1580033F855
:1033E0000EA033F800801F521AFB0BFA0FFA8CF96B
:1033F000C8EB07089AFBF9F9C84423F80E8002339A
:10340000082BE6D10E4BA2F84E10002018701EE0DB
:10341000A8120020FA0A0020200B0020CC0A00206D
:1034200008190020641200200CFEFFFF220A002071
:103430009412002035FA8E3CD00A00206F12833A95
:10344000CD090020B7F84E30013BA7F84E30B4F854
:103450004E10BB4A0BB2002B4FF000030FDDB2F948
:103460004C70B84A985A083210FB01F09A5A90FBF7
:10347000F7F0121AF2520233082BF2D101E0A2F84F
:103480004E30B14B1A6812F0020F9A4674D0AF4B0F
:10349000226E1B68AA4F9A1A45F207218A426BDDF9
:1034A0003B6608F03BFCAA4BDFF8D8821A78032A67
:1034B0009946B8F8003022D10A2B2CD900232820B5
:1034C00089F800300AF077FE08F028FCB7F86400AD
:1034D0000AF048FB9F4BA0491B68DA7890FBF2F09A
:1034E000421C082A28BF08220A7059791B7992B217
:1034F00051435A43A7F86610A7F868200BE00A2B3F
:1035000009D80323944A89F8003000231370A7F8E0
:103510006630A7F8683099F800208D4B012A0DD04D
:1035200002D3022A1ED027E0B4F86620B8F8003093
:103530009A4221DD012389F8003011E0B8F800201B
:10354000B4F86810914202DD02221A7011E07C4941
:10355000B1F8661001318A4202DD00221A700BE0D8
:10356000082007E0B4F86830B8F8002001339A4228
:10357000E0DC072007F088FADAF800703A0579D520
:10358000724BE16E1A686E4BC1EB020A45F20721DD
:103590008A456FDDDA666F4AB6F90690D2F8008088
:1035A0006E4898F80A20B0F84E116D4E012AA9F520
:1035B0007A7903D047D3022A23D046E093F88120BA
:1035C000196F03EB4202B2F88400082291FBF2FE6D
:1035D00080B2CEEB0101014491FBF2F2A3F88C0022
:1035E00092B21967B8F8080040F6E4435343C0EBC1
:1035F00013334FF47A725343B8F9062093FBF2F376
:1036000022E0584BB8F808B01B78C6F800B05B074A
:103610001BD500F5C37007F019FA20B917F0100F89
:1036200018BF4FF0000909FB09F2322392FBF3F3B4
:103630009944B8F906304FF47A7203FB09F393FB0F
:10364000F2F35B4400E0002333603368464AD4E978
:10365000240103FB0AFA4FF47A739AFBF3FA10EB96
:103660000A0041EBEA710023C4E924010FF026FAB5
:103670003E4B18603E4B1A6812F4805F984626D085
:103680003E0621D53B4B1B7898071DD53A4B197840
:10369000042919D90023394E05229A551E44981C35
:1036A0000A27122BC2B2777004D0B1EB520F034637
:1036B000F1D800E014222244322382F89730FF230D
:1036C00082F898300F2000E00A2007F0DDF9D4F8E6
:1036D000B0301B4E002B7FD0294AD6F8B4101068AA
:1036E0008142914678D896F8B800B6F8BA20596861
:1036F000002849D1012086F8B8008A5C002A4FD002
:103700001A78164B013AD3F83C3700FA02F21A4203
:1037100001D10AF083FD012384F8BC300AF01AFDC0
:10372000B4F8BA30064E002B3AD1D6F8B0301B7838
:10373000053B012B34D80AF0B8FBC6F8C0002FE0D7
:103740000819002058190020680800205808002097
:103750006C1E00200C1E00201A000020200B0020F0
:10376000181E0020F8180020407E05001C1E0020B6
:10377000D80A0020FD090020FC090020A019002023
:10378000D4400020101E0020002786F8B8708B5C03
:1037900033B138460AF042FD86F8BC700AF0DAFC14
:1037A000D4F8B020B4F8BA1052689C4B525CFE2A90
:1037B00003D10022A3F8BA200EE0FF2A02D10AF0BA
:1037C00035FD09E0D9F800000A2616FB0202013196
:1037D000C3F8B420A3F8BA10914E3378590704D532
:1037E000904B4FF480425A8334E0D8F80020D2073F
:1037F0005CBF43F0010333708B4B1B781B0703D472
:10380000337823F001033370B4F8C4301BB1874B15
:103810001B689F0705D4864B1B88003318BF012304
:1038200000E001233BB1022384F8BC30337823F05D
:103830000103337005E03278D00758BF022384F8C3
:10384000BC300AF032FBD4F8C830C01A002801DBC3
:103850000AF080FC774F0CF0CBFF3B78002B7AD03E
:10386000D4F8CC30002B00F0F187D4F8CC006B4DAD
:103870000AF07AFD002800F0E987D5F8CC000AF0BC
:103880006EFD092801D03F2857D14FF00009D4F828
:10389000D060DFF8B8814D4636B16748D8F80010DF
:1038A000324610F06BF810B9C14605B94546634B76
:1038B00008F110089845EFD3FDB1D4F8D0302A684C
:1038C000564812F803E0D9F80020D15C714514D1B4
:1038D0005A1C61B92D2B0AD8C0F8D02003440244E9
:1038E0004FF0200E83F8D4E082F8D41005E0234492
:1038F000C4F8D02083F8D4E0DFE7D4F8D0300BB19F
:103900004D4510D04E480AF0B3F94D4507D855F84B
:10391000100B0AF0ADF909200AF0A3F9F5E74948C0
:103920000AF0A6F90026D4F8D0309E429DD2424B30
:10393000985D0AF096F90136F5E7D5F8D030002BFE
:1039400040F0AA87042841F0178005F1D40007F061
:1039500021FA00F07BBF3C4F97F84A30012B40F032
:103960007087DFF8EC80DFF8EC903B68C8F80070F7
:10397000C9F80030C346DFF8DCA0524610680AF0F0
:10398000F3FC002800F05087DAF800000AF0E7FCAA
:10399000DBF8003093F84810024619B924285BD1AF
:1039A000012238E0012904D14D280CBF0222002257
:1039B00031E0022904D13C280CBF032200222AE076
:1039C00003290CD140284FF0000102D983F8481098
:1039D0006CE058711971D971987104221BE00429A7
:1039E00007D1997983F8490080EA01029A7105228A
:1039F00011E005295AD1587919798842987906D960
:103A000050409871481C18710B441A724EE0904255
:103A10000CBF0622002283F8482047E00819002046
:103A2000F8180020000C0240FD090020000A0020C8
:103A3000FE18002001190020DC190020A86D0108E3
:103A400024700108297001080C1A0020186C010864
:103A5000C41E0020C81E00203178C84B490725D459
:103A6000232ADAF8001016D1C548C4F8CC104FF05C
:103A7000010E80F800E0C348C4F89C110192009345
:103A80000AF0F6F8C0480AF0F3F8009B197841F004
:103A900002011970019AD4F8A0311B78934205D124
:103AA000BA4BBB4A1A60BB4BBB4ADA60DBF800304A
:103AB000DFF808A393F84820062A7FF45CAF93F858
:103AC000490003F059FB002840F0A786DAF80020EF
:103AD00092F849304E2B00F0DF8475D8372B00F078
:103AE0001B8522D8292B00F08D8409D8252B00F0C6
:103AF0006284272B00F06684232B40F0CA86D6E030
:103B00002D2B00F0908408D82B2B40F0C2860AF0B1
:103B10008AF8A24B587100F07DBE332B00F0E98487
:103B2000352B00F0738200F0B4BE412B00F0E78427
:103B30000AD83C2B00F008813E2B00F0F980392B8D
:103B400040F0A78600F04DBC442B00F01E8525D820
:103B5000432B40F09E860AF066F80023AB60687144
:103B60000AF076F803F0FAF80AF05DF885F88E01AD
:103B70000AF064F8A5F858010AF060F8A5F85A01AF
:103B80000AF05CF8A5F85C010AF058F8A5F87E0187
:103B90000AF054F8A5F8800100F03CBE4A2B00F072
:103BA00039864C2B40F075860AF03DF8DFF8EC8141
:103BB00088F8D6010AF037F888F8D7010AF03EF8FD
:103BC000A8F8D80100F026BED12B00F0B5831AD892
:103BD000CC2B00F0458209D8C92B00F08583CA2B75
:103BE00000F0EE80C82B40F0548656E0CE2B00F05B
:103BF0006D83C0F06283CF2B00F09482D02B00F055
:103C0000518300F046BED82B00F06F810DD8D32B26
:103C10003DD029D3D42B00F0CA82D62B08BF4FF059
:103C2000000800F0B98200F034BEF22B00F00F83E0
:103C300012D8EF2B40F02D86DFF87C81D8F8009069
:103C400009F0FCFFA9F86600D8F8008009F0F6FF3B
:103C5000A8F8640000F0DEBDF32B00F09A84FA2B84
:103C600000F03E8300F015BE337803F0040303F048
:103C7000FF08002B40F0CE8509F0D5FF474B022806
:103C800083F8100740F2148383F8108710E309F0DB
:103C9000D5FFA4F8A40100F0BDBD92F805804FEA5D
:103CA0005808B8F1120F1CD84FF000091DE009F0B8
:103CB000BAFF132815D8DFF80091D9F8003000F1C9
:103CC000200A03EB8A0A09F0AEFF354B0AF105081A
:103CD00003F5AE72197A814200F077810C3393427A
:103CE000F8D10BF01FF900F095BDC14507D209F0DE
:103CF000A5FF05AB23F8190009F10109F5E7002339
:103D00004345284A06DA05A931F8131022F81310A2
:103D10000133F5E708F1FF3802EB48032232934202
:103D200003D0002123F8021FF9E701221E4BD5E240
:103D300009F079FFDFF8648088F8E00109F073FF8B
:103D400088F8DF0100F066BDDFF86C80D8F80090DD
:103D500009F069FF18B10228A8BF022000E0012085
:103D600089F80000D8F800301B78022B0F4B14BFE5
:103D70000F4A104A1A6000F04DBD00BFF81800202D
:103D8000011900205970010829700108FCFF012069
:103D9000EFBEADDE00ED00E00400FA05200B0020D0
:103DA000A86D0108AE1A0020A90900201400002007
:103DB000E1C00008BDFB0008CC0A0020C41E0020A2
:103DC000D14B1A681278022A4FF00008994670D138
:103DD000D9F800A009F027FF07EE100AF8EE477A9D
:103DE000B2EE048AC7EE887A0AEB8803D9F800A0FD
:103DF000C3ED087A09F017FF07EE900AB8EE677A6C
:103E0000DFEDC27AC7EE277A0AEB8803D9F800A063
:103E1000C3ED0B7A09F007FF07EE900AB8EE677A58
:103E2000DFEDBB7AC7EE277A0AEB880308F10108B9
:103E3000B8F1030FC3ED0E7ACAD1B8F1070FD9F864
:103E400000A01CD109F0EFFE07EE100AF8EE477A49
:103E5000C7EE887ACAED117AD9F800A009F0E3FE1E
:103E600007EE100AF8EE477AC7EE887ACAED127AA2
:103E7000D9F800A009F0D7FE8AF84C0012E009F04A
:103E8000D2FE0AEB08035870D9F800A009F0CBFE67
:103E90000AEB0803D9F800A0D87209F0C4FE0AEBB7
:103EA0000803587508F10108B8F10A0FC5D100F0F0
:103EB000B1BCD9F800A009F0B6FE0AEB08035870AF
:103EC000D9F800A009F0AFFE0AEB0803D9F800A06A
:103ED000D87209F0A8FE0AEB080308F10108B8F14E
:103EE0000A0F5875E5D100F095BC8046DFF81892AE
:103EF0009FED878AD9F800A009F0A0FE07EE100A0E
:103F0000F8EE477A0AEB8803C7EE887AD9F800A062
:103F1000C3ED087A09F092FE07EE100AF8EE477A30
:103F20000AEB8803C7EE887AD9F800A0C3ED0B7AB4
:103F300009F084FE07EE100AF8EE477A0AEB8803D0
:103F4000C7EE887A08F10108B8F1030FC3ED0E7AC5
:103F5000CCD1B8F1070FD9F800A01CD109F06EFE42
:103F600007EE100AF8EE477AC7EE887ACAED117AA2
:103F7000D9F800A009F062FE07EE100AF8EE477AC1
:103F8000C7EE887ACAED127AD9F800A009F056FE79
:103F90008AF84C0012E009F051FE0AEB0803587051
:103FA000D9F800A009F04AFE0AEB0803D9F800A0EE
:103FB000D87209F043FE0AEB0803587508F10108AE
:103FC000B8F10A0FC5D100F025BC1B788AF805307E
:103FD00009F029FE88F8010009F025FE88F80200A2
:103FE00009F021FE88F803004A4BD9F80000C3F815
:103FF000D001494AC3F8CC218530002109F044FFA3
:10400000464B80F00100187000F004BC09F00BFE74
:104010000B283FF666AE3C4B4FF0060909FB00F05B
:104020001B68D03003EB000909F0FDFD03283FF6C3
:1040300058AE89F80A0009F0F6FD89F8050009F084
:10404000F2FD89F8060009F0EEFD89F8070009F095
:10405000EAFD89F8080009F0E6FD89F80900D9E3CE
:104060005379092B7FF63DAE2D4AD2F8008009F036
:10407000DAFD2B4B88F80000D3F8008009F0D3FD5F
:1040800088F8010009F0CFFD254A13686428A8BF0D
:104090006420187109F0C7FD214A13686428A8BF7D
:1040A0006420587109F0BFFD1D4A1368FF28A8BF9E
:1040B000FF20987109F0B7FD194BD3F800806428F0
:1040C00028BF642088F8070009F0ADFD144A88F87D
:1040D0000200D2F8008009F0A6FD114B88F8030019
:1040E000D3F8008009F0AAFDDAF80030A8F80A0039
:1040F0005B790A2B40F28E83094BD3F8008009F0DC
:1041000092FD88F8080085E3CC0A00200000C84230
:1041100000007A4408190020600C00200E000020E6
:10412000A812002009F08AFD6FF4AF6283189BB2D9
:10413000C62B9CBFCE4BA3F8940109F07FFDA5F8D8
:10414000400109F07BFDA5F8420109F077FDA5F8D3
:10415000440109F073FDA5F8D80109F064FD85F864
:10416000ED0109F060FD09F05EFD85F8EE0109F052
:104170005AFD85F8830109F056FD85F8900109F094
:1041800052FDBC4BD3F8008009F058FD00EB8000D5
:104190004000A8F8620024E109F050FDB64B23F876
:1041A000080008F10208B8F1100FF5D132E3537995
:1041B0000F2B7FF496AD09F036FD072880463FF6B9
:1041C00090ADDFF8B092D9F800A009F037FD0E23CA
:1041D00003FB08F80AEB0803D9F800A0A3F82501AF
:1041E00009F02CFD0AEB0803D9F800A0A3F8270179
:1041F00009F024FD0AEB0803D9F800A0A3F829016F
:1042000009F011FD0AEB0803D9F800A083F82B018F
:1042100009F009FD0AEB0803D9F800A083F82C0186
:1042200009F001FD0AEB0803D9F800A083F82D017D
:1042300009F0F9FC0AEB0803D9F8009083F82E0185
:1042400009F006FD09EB0803C3F82F01E2E209F0CB
:10425000EAFC0F2880463FF644ADC8EBC80809F0D9
:10426000E2FC05EB080303F1D00883F8D00009F065
:10427000DAFC88F8010009F0D6FC88F8020009F0A1
:10428000D2FC88F8030009F0CEFC88F8040009F09D
:10429000CAFC88F8050009F0C6FC88F8060002F0A0
:1042A000CEF8B7E233785B0700F1B48207F076FA14
:1042B0000EF0B0F904F066FDACE23378580700F177
:1042C000A9824FF4C873A4F8C430A3E23378590725
:1042D00000F1A082694B1A7842F004021A7099E248
:1042E00033785A07E4D5D4E209F09DFC634B1A7881
:1042F00010B142F0020201E022F002021A7009F04D
:1043000092FC5F4BDFF88C81187009F0A1FCC8F8B3
:10431000000009F09DFCC8F8040009F08FFC594B1F
:10432000188009F08BFC584B188094F8D43143F076
:10433000020384F8D4316DE209F075FC834609F07C
:1043400087FC824609F084FC814609F081FC8046A6
:1043500009F074FC09F072FC09F065FCBBF1000F78
:1043600013D11020C4F8D8A1C4F8DC9106F058FC91
:10437000424B1A7842F001021A70B8F1000F00F0B7
:104380004982424BC3F8E08144E2BBF1100F40F098
:104390004182C4F8E4A1C4F8E891B8F1000F02D05A
:1043A0003A4BC3F8E0813A480223011D84F8EC310E
:1043B0000AF0E2FB2EE22E4B986009F049FC02F075
:1043C000CDFC27E209F03AFCDFF8A480A8F85801F8
:1043D00009F034FCA8F85A0109F030FCA8F85C0197
:1043E00018E209F020FC85F8780109F01CFC85F83A
:1043F0007C0109F018FC85F87B0109F014FC85F8B4
:104400007D0107E209F01AFCA5F87E0109F016FC0F
:10441000A5F8800109F007FC85F8820109F00EFC7F
:10442000A5F88401F6E109F0FEFB85F88E0109F09C
:1044300005FCA5F8980109F001FCA5F8940109F024
:10444000FDFBA5F8960109F0EEFBDAF8003085F8DF
:104450008F015B79082B40F2DD8109F0EFFBDFF87B
:104460001080A8F89C0109F0E9FBA8F89E01D1E1B1
:10447000200B0020CC0A0020C2130020FD090020E0
:10448000FC090020221E0020201E00200819002008
:10449000EC1A0020281E002092F805A00323BAFB86
:1044A000F3FABAF1120F3FF61CACDFF82C938046FA
:1044B000D04580F0AF8109F0B6FB89F8A00109F082
:1044C000BDFB40F2ED23984205DD40F6CA03984259
:1044D000A8BF184601E040F2EE20A0F2EE2019231A
:1044E00090FBF3F089F8A10108F1010809F1020934
:1044F000DEE709F098FBB84B83F890018AE180462B
:1045000009F091FBB44B434408F10108B8F1080FDE
:1045100083F88601F4D17DE153794FF00709B3FBAD
:10452000F9F9C9EBC9029B1A13F0FF0F7FF4D9AB5D
:104530005FFA89F9B9F1000F00F06C8109F073FBA3
:104540005FFA80FA4FFA8AF009F0D6FB09F1FF39D9
:104550005FFA89F9804600283FF4C3AB80F800A0D9
:1045600009F06CFBA8F8020009F05DFB88F8040074
:1045700009F059FB88F8050009F055FB88F8070099
:1045800009F051FB88F80600D4E7012384F8ED31E7
:1045900040E109F048FBFF2882466FD14FF0000848
:1045A0008E4884F8EE81414660220FF09FF98DF825
:1045B00013809DF8133094F85222DFF828829A4233
:1045C00054D99DF8133008EBC30393F85532DB0739
:1045D00045D59DF8133008EBC30393F85422804B64
:1045E00033F91230002B3ADD9DF8133098F8EE9134
:1045F00008EBC3034FEAC901D3F8583208EB0102B4
:104600005B68C2F8F0319DF8133008EBC303D3F8B0
:1046100058321889A2F8F601002301229A4002407C
:1046200003D10133102BF8D100E01A46DFF8B48132
:1046300008EB010309F10109A3F8F421D3F8F00113
:10464000B3F8F631ADF8143004238DF8163005A90F
:1046500001238DF817300AF0A0FF88F8EE919DF83D
:1046600013300133DBB28DF81330A2E7012009F0DB
:10467000C5FA98F8EE0109F08BFACEE094F8EE3125
:104680009842BFF42EAB002009F0B8FA09F092FA74
:10469000D8F80030186809F045FED9F8000009F094
:1046A0000BFB09F0C3FD72B6DFF83C814FF4806369
:1046B0004FF4007BA8F81A304FF00109A8F81AB09F
:1046C0004046ADF8143005A904238DF816308DF856
:1046D00017900AF062FF404605A98DF816908DF8F4
:1046E0001790ADF814B00AF058FF3E4A4FEACA0AD4
:1046F0005244D2F8F031B2F8F4111868B2F8F62149
:1047000001FA09F109FA01F949EA000119601A836D
:10471000A8F818B0424613695805FCD4314A02EB98
:104720000A034FF0010CD3F8F001B3F8F4E101688B
:104730004FEA4E0E0CFA0EFE4EEA01010160D3F86C
:10474000F011B3F8F6314B8327494FF4007EA1F8FE
:104750001AE04FF4804EA1F818EC4FF4004EA1F887
:104760001AEC40F605589146DFF87CB0DBF81020D3
:10477000510505D4B8F1000FF6D008F1FF38F3E782
:104780000383ADF8143004238DF8163005A90123F6
:104790008DF817300AF001FF144B4FF400421A83D2
:1047A000B8F1000F24D0104B1A695205B6D509EBA9
:1047B0000A014FF40070D1F8F021B1F8F611126936
:1047C00011420A4A18BF18834FF480410ABF588328
:1047D00011835183E7E700BF200B0020F81A002067
:1047E000781300200819002000000240000C02404D
:1047F0004FF40072ABF818204FF480421A8362B66F
:104800000A2009F0D8FC0BF07BFD6C4B1B68F322EF
:1048100083F84920002009F0F1F909F0CBF9674B42
:104820001B68002283F8482094F8ED314BB13868BA
:1048300009F078FD06F070FA09F0C7FC604B614A98
:10484000DA60614B4C379F427FF486A85F4B1B6850
:10485000980616D55E4BD4F8B4221B689A1A002A23
:104860000FDB5C4A1278042A0BD95B4A03F512333A
:1048700003F5F873C2F8B432584B5A6982F4004217
:104880005A61574B9B68002B00F09380554898471E
:104890008FE00AF047FBC0E70C2803D1524809F02B
:1048A000E7F959E00A2801D00D2857D14A4D4F4861
:1048B00005F1D40609F0DCF9304623210FF049F860
:1048C00010B1801BC5F8D000D4F8D030002B38D000
:1048D000591E414A705C202801D10B46F6E7C2F808
:1048E000D0301344002283F8D420414B414DD3F8FB
:1048F00000B0D5F800A0DFF8E09050460FF036F891
:1049000009F1D40806465146404632460FF036F8C3
:10491000394B38B909EB060292F8D4205A44527840
:10492000510703D010359D42E3D306E09D4204D2E7
:10493000701CEB684044984702E0304809F098F951
:1049400000232F48C4F8D030002130220EF0CEFFD3
:104950003B78002B3FF47AAF2A4809E07F2811D139
:10496000013BC5F8D0302B440022274883F8D420DF
:1049700009F07EF9FEF779BF0C288FD07F2804D18B
:10498000FEF773BF2F2B3EF670AFA0F12002D2B21C
:104990005E2A3EF66AAF13B920283EF466AF5A1C71
:1049A0002344C4F8D02083F8D40009F05AF9FEF764
:1049B0005CBF0FB0BDEC028BBDE8F08FC41E0020C1
:1049C00000ED00E00400FA05A41A0020000A00200F
:1049D00058080020FC09002008190020000C0240A3
:1049E000040A0020081E00202E700108C279010868
:1049F0002C010020186C0108A86D0108397001080D
:104A0000DC1900202970010855700108A449A54847
:104A10000A682DE9F04F02F59C4320330360A24B56
:104A20001E7887B0C6B119465B689A4240F20C8185
:104A3000013E0E7008E12B689C48072C98BF195D59
:104A40009B4B88BF21461B689847032C0CD9964A7C
:104A500002EB440401362081944B964D1A78F4B24F
:104A6000A2421A46E7D81EE02B6804F10E0203EBBF
:104A70008202D38812890028E9D0C01A4FF47A71D3
:104A8000D31A484390FBF3F0084440F6C903984218
:104A900005DC40F2EE239842B8BF184601E040F62C
:104AA000CA0080B2D3E7844B1B6842F2010903EAD3
:104AB0000909D9F10109814B38BF4FF00009D3F83A
:104AC00000A07F4BB9F1000F06D17E49097819701B
:104AD0007D4908787D4908701E781EB17B4B1E7891
:104AE00086F00106704992F80080D5F800B00F23D7
:104AF00081F82C30764B1F780322B7FBF2F202EBE1
:104B00004202BA1AD2B201F12E0303EB4202002490
:104B10004FEA480C0292254664455AD016B16D4BB7
:104B2000E05A00E03046BBF81630834206D8BBF8A6
:104B30001810814234BF0021012100E00021664BA2
:104B4000E9B953F825309A4502D2644BE05A1AE08D
:104B5000EBB218468DE8081005F024FF009BDDF845
:104B600004C0032B0FD8504B4FF0010E93F82C10BC
:104B70000EFA05FE21EA0E0183F82C1003E00AF577
:104B8000967143F81410B9F1000F1DD1029A464BEB
:104B900004EB4401505293F8762022B9022F13D926
:104BA000012083F876004E4B581831F803E0418815
:104BB0007144B0F804E04A33714489B2E15208B25A
:104BC000032390FBF3F080B2444B0135E0520234F2
:104BD000A2E7354B394A93F82C10B1F10F0EDEF1F4
:104BE000000151EB0E0183F890103E4B69B13E4934
:104BF00009684F0109D41268D9689A60521AC82A04
:104C00001ED9012283F821201AE02F481268DA60A9
:104C1000012101702D48017099685B68521A9A420F
:104C200003D9304B002283F821200024444507DAC1
:104C3000E0B205F0B7FE294B23F814000134F5E784
:104C4000234B1A7801321A701B4F3B68DE0405D5DE
:104C5000254B1B68DD0701D40BF0A8FB104B19682E
:104C6000144B1868837A002B42D01C4A013B32F85F
:104C70001330027B1AB1C3F53B6308339BB21BB2FE
:104C8000A3F57A73B3F57A7FA8BF4FF47A7323EA5A
:104C9000E37307EE903AB8EEE77ADFED147A5FE05F
:104CA00058080020C4090020C01B00206D1D0020F2
:104CB000040000207008002068080020D440002074
:104CC0005C080020640800200D0000200C0000207B
:104CD000B6070020C81B0020B8070020FA0A0020F1
:104CE000EE1B002094130020D80A002000007A4414
:104CF0003A68140440D58F4AD2F894400C1B002C1B
:104D00003ADB01F59C442034C2F894408A4CC07AC6
:104D100065798A4C34F81540A4B294FBF0F492F80B
:104D20009800013000F00F0082F89800024482F8E9
:104D300099401A468248185C01330244102B92B203
:104D4000F8D112B292FBF3F31BB2642BA8BF642319
:104D500023EAE37307EE903AB8EEE77ADFED797A6B
:104D6000C7EE277A784B9FED797A67EE877AFCEE6B
:104D7000E77A17EE902A1A803B68754C13F4807F0F
:104D800000F00081734B744E994203D9B3780BB98C
:104D90000123B370B378002B00F0F4806E4B94F8CD
:104DA000008093F821506D4B681E45421A684541BA
:104DB000002DC2F380690CBF03220022C8F38008D3
:104DC0009A46029296F82030052B00F2D680DFE852
:104DD00003F0034E5378859EB8F1000F3AD0604B34
:104DE0001868604B198805F031FE012809D15E4B27
:104DF0001A68504BD3F8AC30DB88642101FB0323E5
:104E00003361B9F1000F0DD04A4BD3F8AC301B79A8
:104E100043B105F0E7FE032386F820304FF47A73A0
:104E2000F361CFE7002D40F0A8804F4B326919683D
:104E3000DFF824B1914209D905F0D4FE03228BF8A2
:104E4000202040F6B832CBF81C20BBE701228BF8BB
:104E50002020B7E74FF48060B9F1000F02D005F0D1
:104E6000B1FE01E005F0DCFE0023336185E0002D9A
:104E700045D105F0B7FEA5E725B1052386F820301A
:104E8000012100E02946B8F1000F0DD0344B1B681A
:104E9000DA89364B1A805A809A80264AD2F8AC209A
:104EA0005288DA80022202922F4B1A6873699A4262
:104EB00002D8B8F1000F5DD147F23053F3610323FC
:104EC0001EE0237843F0020323700BF06FFA264BA9
:104ED0001A68F3691344B361042311E0224B1A6882
:104EE0008DB1B3699A4248D9214B1B781BB9DAF8C6
:104EF0000030D90741D4237823F00203237005231F
:104F000086F820305EE7F3691344B36135E0164B51
:104F100008491A68D1F8AC30DB88642101FB03230F
:104F200033614FF48060002386F82030F37005F081
:104F300077FE47E7C01B00207C1900208C19002059
:104F4000591C00200000C842701D002000C07F4492
:104F5000F8180020404B4C0094130020D80A002081
:104F6000B0070020B4070020D4400020FA0A002037
:104F70000E00002000297FF425AF029A12B11046DE
:104F800005F082FDA74E06F5C370B6F84E1105F088
:104F90005DFD8146002834D1A34BA44D1B6813F05E
:104FA000006808D02B7833B905F0D8FCA04B012855
:104FB00018BF0020187023785A0708D53A68D3061E
:104FC00005D4B8F1000F02D02B78002B37D09949C7
:104FD0000022C1F8BC20C1F8C020C1F8C420964A04
:104FE000126802F57A72C1F8C82001222A70904A2C
:104FF0000023C1F8B030C1F8B430C1F8B830137034
:105000001DE03B68DD0617D42378580714D5864B7E
:105010001B68190110D5854D2B786BB1864B1A682A
:10502000844BD3F8C8309A4209D905F097FC30B9BF
:105030007F4B2870187002E07D4B00221A70237895
:105040005A0743D53B68DB0640D57C4B1B78DD0611
:105050003CD47B4B774D93F80080B8F1000F11D012
:1050600096F8E031B9F1000F16D173B1724B1A689E
:10507000D5F8CC309B1A002B07DA0BF097F985F89E
:10508000D09023E0B9F1000F19D1102005F0FCFCFD
:10509000012385F8D03019E03BB1674A12684FF41C
:1050A0007A7101FB0323C5F8CC3095F8D0306BB191
:1050B00009F0BCF85F4B002283F8D02006E095F899
:1050C000D0301BB109F0B2F885F8D080002296F8F4
:1050D000DEB196F8DF11B6F896E1B6F898C113463E
:1050E000584D505F9B087045C4BF63F07F03DBB22F
:1050F00002326045B8BF43F04003082AF0D14D4D5D
:1051000095F8D1209A4205D195F8D220F92A04D8F1
:10511000013200E0002285F8D220494885F8D130DC
:105120000378444ADFF80081824633BBD8F8000098
:10513000C0070AD582F8D330B9F1000F1DD123780A
:10514000DA071AD50BF0B2F917E023785B0714D50C
:105150003D4B1B788BB13D4BDB7873B992F8D33064
:105160000133DBB2032B82F8D33006D911B10BF037
:105170001DF902E0B9F1000FF9D095F8D2202D4BBE
:10518000DFF8D090142A40F09D809AF800201BF19F
:10519000000B18BF4FF0010B6AB393F8D1205F2AC0
:1051A00011D1227802F0040202F0FF0112B10BF0DB
:1051B000FDF808E00B200191009305F065FC009BD1
:1051C000019983F8D210BBF1000F14D095F8D130BB
:1051D0007D2B10D1237803F0040303F0FF0213B1F9
:1051E0000BF0E4F807E00B20019205F04DFC114BA9
:1051F000019A83F8D220237803F0040303F0FF0020
:10520000002B5FD195F8D1300A4A572B24D1104B8F
:105210004FF47A721A803B68180653D501F06CFD82
:1052200050E000BF200B0020D80A0020180000200A
:105230004C1D0020C01B0020D4400020FD09002090
:105240000E000020FA0A00205C08002094130020C1
:10525000FE180020CC0A00203968490717D55A2BC0
:1052600015D192F8D4302BB1012382F8D40082F802
:10527000D53027E092F8D63083F0010382F8D6309B
:105280000BB10C2000E00D2005F0FEFB1AE05D2BB9
:1052900000F012855B2B00F011855E2B02D10320FC
:1052A00000F00DBD562B01D10BF0DCFB9AF800305D
:1052B000002B00F0198595F8D1306F2B40F00E854A
:1052C0000BF0F4F83B685B0738D595F8D630B54A53
:1052D0009BB12378580710D5B34BB3F90610B6F835
:1052E0009631994209DDD8F8003013F0010304D15A
:1052F0003221A2F8D81082F8D630D8F8003013F452
:10530000803FA84B0CD095F8DA202AB993F8D42026
:1053100012B93222A3F8D820012385F8DA300DE043
:1053200095F8D42052B1227802F0040202F0FF0175
:1053300022B9012283F8D41083F8D520D9F800A02F
:1053400000230AF1850BC8F800300AF18705994659
:105350000BF1020303EB090113F809204B7815F850
:10536000010C9A420CD2294608F0F1F940B115F827
:10537000023C01229A40D8F800301343C8F80030AC
:1053800009F10409B9F1500F05F10405E0D1874B8B
:105390001B785BB1864BDFF830A21A68DFF82C92DD
:1053A00012F0020F984640F04D8345E30AF1D5090B
:1053B0000AF1D605984609F1010303EB080113F839
:1053C00008204B7815F8010C9A4229D2294608F09A
:1053D000BEF928B395F802E0764B287995F803B02A
:1053E0000EF1FF3E0EEB4E0E9E446E4B4FF00C0C3A
:1053F00003F1DC0A0CFB00FC0AEB0C02516871455E
:105400000ED000210AF80CB0C2F804E0916001222D
:1054100002FA00F093F80C2122EA000083F80C0154
:1054200008F10608B8F1480F05F10605C3D1624B33
:10543000DFF89CA11D68614B1B680293604B1B78D1
:1054400003934FF00009DAF80030002B00F0EB82F4
:1054500093F80080B8F1000F00F0E582DAF804203C
:1054600002998A1A002A0DDB01F5FA72CAF80420A3
:105470004C4A012192F80C0101FA09F120EA0101DC
:1054800082F80C11039A002A00F0CD821AF8041C4D
:105490005878444A0431C9B2002840F08182424819
:1054A00030F91110B6F8940100F1C80E714502DD13
:1054B00093F802B016E0C838814203DA9B78C3F152
:1054C000000B0FE03749012391F80C2103FA09F38F
:1054D00022EA0303029A81F80C3102F5FA73CAF842
:1054E0000430A0E292F80C3143FA09F3D90700F135
:1054F0009A82BBF1000FCCBF0220012005F04AFBCD
:1055000008F1FF33132B00F28582DFE813F014005B
:105510002500360063007C008300E6004901B001ED
:10552000DE0117028302630072008300E600490176
:10553000B8001B01800195F80080D844B8F1FA0F3B
:10554000A8BF4FF0FA0828EAE878284685F80080D6
:1055500008F05EFC012022E095F80180D844B8F103
:10556000640FA8BF4FF0640828EAE878284685F859
:10557000018008F04DFC022011E095F80380114BEA
:10558000D844B8F1640FA8BF4FF0640828EAE8785F
:1055900085F803802846196808F0F4FB032041468B
:1055A000C0E100BFC01B0020FA0A00200119002042
:1055B000D80A002021750108A8120020D44000203C
:1055C0005C080020D41A0020000A0020220A0020D3
:1055D000A01C0020697959446429A8BF642121EAEC
:1055E000E17169710D2005F007FAB8F10D0F00F0B7
:1055F0001182297959446429A8BF642121EAE17103
:1056000029710E208EE1A979594481F30801A9710D
:10561000052087E1C54B1B681A78022A20D107EEC6
:1056200090BAB8EEE70ADFEDC27A93ED097A80EE20
:10563000270A30EE070AB5EEC00AF1EE10FA07D4D9
:10564000B4EE670AF1EE10FAC8BFB0EE670A01E0E7
:105650009FEDB80A83ED090A0F2005F0E1F90AE091
:1056600099785944C829A8BFC82121EAE1719970E5
:105670000F2005F0C1F9B8F10F0F00F0CB81AB4B53
:105680001B681A78022A1ED107EE90BAB8EEE70A14
:10569000DFEDA77A93ED087A80EE270A30EE070A4D
:1056A000B5EEC00AF1EE10FA07D4B4EE670AF1EED7
:1056B00010FAC8BFB0EE670A01E09FED9E0A83EDC5
:1056C000080A12205FE159785944C829A8BFC821A7
:1056D00021EAE1715970122024E1944B1B681A7879
:1056E000022A20D107EE90BAB8EEE70ADFED907AF1
:1056F00093ED0C7A80EE270A30EE070AB5EEC00A69
:10570000F1EE10FA07D4B4EE670AF1EE10FAC8BF52
:10571000B0EE670A01E09FED870A83ED0C0A1020C6
:1057200005F07EF90AE0197B5944C829A8BFC821B1
:1057300021EAE1711973102005F05EF9B8F1100F3C
:1057400000F06881794B1B681A78022A1ED107EE97
:1057500090BAB8EEE70ADFED767A93ED0B7A80EE39
:10576000270A30EE070AB5EEC00AF1EE10FA07D4A8
:10577000B4EE670AF1EE10FAC8BFB0EE670A01E0B6
:105780009FED6C0A83ED0B0A1320FCE0D97A594493
:10579000C829A8BFC82121EAE171D9721320C1E04C
:1057A000624B1B681A78022A22D107EE90BAB8EE33
:1057B000E70ADFED617A80EE270AD3ED0F7A30EE4B
:1057C000270AB5EEC00AF1EE10FA09D4DFED587AD7
:1057D000B4EE670AF1EE10FAC8BFB0EE670A01E056
:1057E0009FED540A83ED0F0A112005F019F90AE024
:1057F000997D5944C829A8BFC82121EAE17199754A
:10580000112005F0F9F8B8F1110F00F00381474BB2
:105810001B681A78022A20D107EE90BAB8EEE70A80
:10582000DFED457A80EE270AD3ED0E7A30EE270AB7
:10583000B5EEC00AF1EE10FA09D4DFED3D7AB4EE10
:10584000670AF1EE10FAC8BFB0EE670A01E09FEDFB
:10585000390A83ED0E0A142095E0597D5944C82970
:10586000A8BFC82121EAE171597514205AE02F4BD5
:105870001B681A78022A1ED107EE90BAB8EEE70A22
:10588000DFED2B7A93ED0A7A80EE270A30EE070AD5
:10589000B5EEC00AF1EE10FA07D4B4EE670AF1EEE5
:1058A00010FAC8BFB0EE670A01E09FED220A83ED4F
:1058B0000A0A092067E0D9785944C829A8BFC82135
:1058C00021EAE171D97009202CE0184B1B681A7885
:1058D000022A1ED107EE90BAB8EEE70ADFED147A7D
:1058E00093ED0D7A80EE270A30EE070AB5EEC00A76
:1058F000F1EE10FA07D4B4EE670AF1EE10FAC8BF61
:10590000B0EE670A01E09FED0B0A83ED0D0A0A2055
:1059100039E0597B5944C829A8BFC82121EAE1715F
:1059200059730A2005F068F874E000BFD81A002007
:105930000000C8420000000000007A44B34B1B681E
:105940001A78022A22D107EE90BAB8EEE70ADFED04
:10595000B07A80EE270AD3ED107A30EE270AB5EE42
:10596000C00AF1EE10FA09D4DFEDAA7AB4EE670AA4
:10597000F1EE10FAC8BFB0EE670A01E09FEDA60A8B
:1059800083ED100A0B2005F04BF843E0D97D594414
:10599000C829A8BFC82121EAE171D9750B20C1E748
:1059A000012837D198789D4B33F91110B1F5617FFB
:1059B00005DB40F633039942B8BF0B4601E04FF4D4
:1059C0006173B8F10C0F25D14FF4966191FBF0F1A2
:1059D000A3F5617393FBF1F392F80D115FFA83FB6A
:1059E000594517D0BBF1030F94BF5946022182F8E5
:1059F0000D118B4A08FB016101F21271116008F070
:105A000021FA4046594604F0F7FF0BF10100C0B2FD
:105A100005F0C0F8834B012293F80C1102FA09F249
:105A20000A4383F80C2109F10109B9F1040F0AF1C5
:105A30000C0A7FF408ADADE43B68DA050FD57A4B6C
:105A4000DB7863B1DAF800309B0708D5B9F800308D
:105A500013F0010508D1012005F0B4F804E001209D
:105A600005F0DEF8012300E00023D8F800205507F8
:105A70000BD553B1012005F0D3F8B9F800309807E1
:105A800006D4022005F09EF802E0022005F0C8F8D6
:105A9000B9F80050654B15F0030F4FF4004214BFE6
:105AA0005A831A83DAF80030990609D4D8F80030FE
:105AB0001A0540F1D5804FF4807005F083F8D3E0EB
:105AC0005B4B1B789B0769D55A4B1B78042B65D918
:105AD000D8F8003013F4007A05F010050DD0002D31
