:020000040800F2
:10000000A005002089010008192E0108B92E010859
:10001000172E0108152E0108132E010800000000FC
:10002000000000000000000000000000112E010888
:100030000F2E0108000000000D2E0108992E010866
:10004000E5010008E5010008E5010008E5010008F8
:10005000E5010008E5010008E5010008E5010008E8
:10006000E5010008E92D0108E5010008E5010008A7
:10007000E5010008E5010008892C0108E5010008F8
:10008000E5010008E5010008E5010008E5010008B8
:10009000E5010008E5010008E5010008E5010008A8
:1000A000892B0108B92B0108E5010008C92B0108BB
:1000B000A92B0108E5010008992B0108E32D01088F
:1000C000D12D0108DD2D0108CB2D0108E501000827
:1000D000E5010008212D0108E50100087D2C01083B
:1000E000A92E0108E5010008D52E0108E501000848
:1000F000E5010008E5010008E5010008E501000848
:10010000E50100081B2E0108E5010008E5010008D3
:10011000E5010008E5010008E5010008E501000827
:10012000E5010008E5010008E5010008E501000817
:10013000E5010008E5010008E5010008E501000807
:10014000E5010008E5010008E50100087125010846
:10015000E5010008E52B01082D2D0108D92B010828
:10016000D72D0108C52D0108E5010008E5010008AB
:10017000E5010008E5010008E5010008E5010008C7
:10018000E5010008E5010008002100F004B80F4B6C
:100190005B58435004310E480E4B42189A42FFF40C
:1001A000F6AF0D4A00F003B8002342F8043B0B4BB6
:1001B0009A42FFF4F9AF0A48016841F47001016006
:1001C00012F0BAFC00F010F8704700003088010807
:1001D00000000020A0010020A0050020843F002096
:1001E00088ED00E0FFF7FEBF2DE9804893B001F0F5
:1001F00077FFC64CC64E2378326825462BB163681C
:10020000D31A002BA4BF00232370A16842F201037C
:100210000B400BB9BD4803730B0740F19181236973
:100220001B7A062B00F27E81DFE813F0070007003F
:100230003600F600380166016601237DB348002BC5
:1002400000F0718100230375836990F815C090F860
:100250001C9093F80080022305EB030E03F1010BC1
:100260009EF81D00A94F40FA0CF000F00F00404529
:100270000ED20B280CD89EF81DA007EB0B0E07EB37
:1002800080009EF81DE00AEA09070EEB07270763C6
:100290000233102BE0D136E194F860009B4B00282C
:1002A00000F0B88093F8AE70002083F8600093F8F7
:1002B000AD0007F0070E40EA0E20586693F8AF0035
:1002C00000F03F0E4FEA4E1E4EEAD7079F6693F8A6
:1002D000B070BF0047EA901793F8B10000F0010E2C
:1002E00047EA8E27DF6693F8B27007F00F0E4FEAE9
:1002F000CE1E4EEA5000186793F8B30000F07F0E50
:100300004FEA0E1E4EEA17175F6793F8B4707F002E
:1003100047EAD01093F8B57007F0030E40EA4E207C
:10032000986793F8B60000F01F0E4FEA8E1E4EEA53
:100330009707DF6793F8B770FF0047EA501093F80C
:10034000B970C3F8800093F8B80007F0070E40EAD0
:100350000E20C3F8840093F8BA0000F03F0E4FEA75
:100360004E1E4EEAD707C3F8887093F8BB70BF00E3
:1003700047EA901793F8BC0000F0010E47EA8E2779
:10038000C3F88C7093F8BD7007F00F0E4FEACE1EC5
:100390004EEA5000C3F8900093F8BE0000F07F0EC4
:1003A0004FEA0E1E4EEA1717C3F8947093F8BF7009
:1003B0007F0047EAD01093F8C07007F0030E40EAC0
:1003C0004E20C3F8980093F8C10000F01F0E4FEACA
:1003D0008E1E4EEA9707C3F89C7093F8C270FF0018
:1003E00047EA5010C3F8A00093F8C300C7074CBFFA
:1003F00040F21477AD27C3F8A47087074CBF40F2D2
:100400001473AD2310F0080FC4F8A8300CBF0123FB
:10041000032388E0034686E094F8C5703B48002338
:10042000D7B390F8C670B0F8C88080F8C5304FF0E8
:10043000020C4FF0030E1CFB07E981440CFB070C78
:1004400099F8CA909CF8CEC04CEA092CE0456AD1D4
:1004500090F8CB00012803D0812864D1734600E0D6
:100460000346102F84BF102084F8C60094F8C6C03D
:1004700000204FEA4C0C604555D0DFF8A4E00EEBAD
:1004800000070EF1260E97F803803F7947EA082708
:1004900020F80E700230EEE73B4644E094F810017D
:1004A0001A4B00283ED0002083F8100193F8110168
:1004B000A82837D193F82431A3BB05EB43009FED67
:1004C000157A90F8147190F8150100EB072007EEEB
:1004D000900AF8EEE77A1048C7EE877A9FED0F7A18
:1004E00077EEC77AFCEEE77A17EE907A40F8237041
:1004F0000133082BE1D106E094F848319BB1034B5E
:10050000002083F8480101230DE000BFA005002072
:1005100038160020CDCCCC40C80600200080BB435C
:100520006A0600200023D8070AD583F00203C3F32C
:100530004003237002F5C3330120A03320736360AE
:100540004B0411D594F8493123B1B34B002083F803
:1005500049010123B048237333B10123037002F52D
:10056000433303F5A0734360CF070ED594F84A7167
:1005700094F84B01A84BB84207D00120187002F53F
:10058000C330A030586083F84B7188040AD500232B
:10059000A14800F5A677DF5B002F41F046850233C6
:1005A000182BF5D1237B33B99B4BD3F86431D31A85
:1005B000DB43DB0F00E001238BB1D4F86831D21AA2
:1005C00012F1500F03D4944B93F86C313BB102F00D
:1005D00087FF012384F86D3184F86C3135E1D4F85C
:1005E00070218D4B0132002AC8BF0022C3F8702150
:1005F0000A0640F12A81D4F87431B3B994F87831FD
:10060000013B042B00F22181DFE813F016001600F5
:1006100016000C01E000804BD3F8740105F050FD8A
:100620000FF052FD08B10DF099FFD5F8740105F0F7
:100630004CFD0028EFD1E1E7D4F89821764D1778EA
:1006400017B1012F12D000E1012B00F2FE80734B95
:1006500095F87921D5F874010C2101FB023292F84A
:10066000212053F8221005F026FD66E0D5F874012C
:1006700005F01CFD002800F0E88095F87831022B89
:1006800047D0032B55D0012B40F0DF80644BD5F8C9
:1006900090211B689A1AC72A40F2D780D5F88C118E
:1006A000042934D85D4AC5F890310C2000FB0121A3
:1006B000D5F8745191F82110D5F808C000231046E0
:1006C00050F8237067455FFA83FE04D00133082B8E
:1006D000F6D1002300E073468B4205D0284652F83D
:1006E000211005F0E8FCB0E094F879310C2202FB0F
:1006F0000300476A17F8011B19B1284605F0F8FCFA
:10070000F8E7D4F88C310133C4F88C319DE0022035
:1007100099E0424B95F87921D5F874010C2101FB41
:10072000023292F8212053F8221005F0C4FC032075
:1007300089E0D5F898319B780BB9042083E095F8CF
:1007400094310BB985F8947194F89431324D012BA2
:1007500017D1D5F88C31B22B0DD8304AD5F87401A9
:10076000134493F85C1005F0C3FCD5F88C310133C9
:10077000C5F88C3105E00023C5F88C31022385F8DB
:10078000943194F89431244D022B1AD1D5F88C3140
:100790000F2B13D8D5F8982120495278D5F8740139
:1007A00002EB02120A44134493F8101105F0A0FC66
:1007B000D5F88C310133C5F88C3102E0032385F87C
:1007C000943194F89431022B3FD9B6E7D4F88021C4
:1007D000114B0132C4F88021D4F89821D2785AB153
:1007E00093F879210132D2B20521B2FBF1F101EB8C
:1007F0008101521A83F87921094B1B68C4F88431AE
:10080000002384F89C3194F89D3123F0020384F88E
:100810009D31012017E000BFA0050020EC4C01082D
:10082000683F0020AD4BD4F884211968AC4B8A1A7C
:1008300040F6C4118A4208D9D3F8A02122F0200240
:10084000C3F8A021052010F0F5FC05F088FB0BAFE4
:100850003060D4F8B031384698479DF82C3043B911
:10086000A04B1A689E4BD3F86831D31A642B00F161
:100870008686D4F8B8119A4B3268D3F8C0010A447E
:10088000B4F8BC11C4F86821002284F86C215830F7
:1008900001B102210EF0C0FA05F061FBD4ED6E6AE1
:1008A000D4F8C831DFED907A3060B8EE667AC31ABA
:1008B000A4F8C43167EE277A8C4BC4F8C801C4EDA4
:1008C000737A3A4603F1080618685968154603C555
:1008D0000833B3422A46F7D118689B88844A2860B7
:1008E000AB80BDF8386002F1280102F12E0E002322
:1008F0001846D5186D88D55237F803C002330C2B33
:1009000015FB0C00F5D14B8893814FF4807513FBD8
:10091000060393FBF5F321F8023F714502F10E0245
:10092000E5D10CF037F894F895330BB10CF032F8B0
:1009300003F0DAFE6F4B1B78B3B1B4F92629B4F893
:1009400098339A4210DC664B93F80532012B01D0A4
:10095000192B02D194F8E62332B90E2B04D0082BC0
:100960001CBF0023A4F84839D4F8C0815C4D98F826
:100970001861002E4BD0B5F8BC319B0747D09FEDD6
:100980005E8ADFED5E7AB5F84A7988EE088AB4EEC1
:10099000E78AF1EE10FA36D9B7EE000A30EE480ACF
:1009A00013F0F0FC9FED567ADFED567AE8EE077A09
:1009B00005F64C159FED547AA8EE277ADFED537AB1
:1009C000E8EE077A95ED007A20EE270A20EE070A76
:1009D00013F02CFCB0F5617FA8BF4FF4617007EEF7
:1009E000100ADFED4B7AB8EEC70A80EE270A05F051
:1009F000FFFE06EE906AF8EEE67A27EE800A13F024
:100A000015FC80B200E000203844A4F84A09D4F86C
:100A1000A031334D9F0640F1A180B5F8BC3103F001
:100A20003003002B00F09A8095F89D31DE0740F1ED
:100A30009580B5F95009DFED377A374E08EE100A88
:100A4000B8EEC88A28EE278AB0EE480A05F0D0FE34
:100A5000F0EE408AB0EE480A05F02AFFD5F8543986
:100A6000B5F95E09DF78B0EE409AB2EE048A002F45
:100A700054D0B5F85A391FFA83F91BB2C01A06F0E0
:100A8000FFF97D42A84203DBB842A8BF384600E028
:100A90002846B4F858398144B4F95C091FFA83FA3E
:100AA0001BB21FFA89F9C01AA4F85A9906F0E8F99E
:100AB000A84203DBB842B4BF05463D465544ADB23B
:100AC000A4F858590FFA89F92DB206EE909A07EE5C
:100AD000905AB8EEE67AF8EEE76A29E0683F00201F
:100AE000A005002038160020BD378635504E01087D
:100AF0007007002000000020000000008FC2753C3D
:100B0000306E99BC2716983D843459BEA40DC93F58
:100B1000EFB6B04435FA8E3C3C16002006EE900A43
:100B2000B5F95C59B8EEE67A06EE905AF8EEE66A48
:100B300068EEE67AE7EE097A26EE899AC7EE887AB9
:100B4000A7EE289AFDEEE77A89EE089A17EE903A1A
:100B5000BDEEC99A338019EE103A7380864DB4F811
:100B60006C2305F562730093844BD4F860191E68FA
:100B7000404608F15803B04794F86419032916D980
:100B8000D5F868395A88B2F5FA7F10D2B5F97009EC
:100B9000B5F948595342002DB8BF6D425B1B9842CE
:100BA00003DB53198342A8BF0346A4F87039B4F895
:100BB0004A09B4F86E59B4F86C69D4F86879B4F994
:100BC00070E96F4B00228A4203F1100335D297F986
:100BD00001C00FFA86FACCF1000C0EFB0CFC06EEFD
:100BE00010AA0FFA85FA07EE10CA07EE90AA0FFABC
:100BF00080FCF8EEC76A05EE90CA13ED027ADFF8C2
:100C000088C1F8EEE77AF8EEE55A67EE877A13EDD9
:100C1000047AE5EE877AB8EEC66A13ED037AE6EE5B
:100C2000077A13ED017AE6EE877AFDEEE77A17EEA2
:100C3000908A2CF812800132C5E7524B1A7802F0E4
:100C4000040202F0FF03002A72D094F84F9AB4F81D
:100C5000345A01238B424C482EB207D230F913503C
:100C6000B542B8BF3546ADB20133F3E7D4F8702AC8
:100C7000D4F8747A5388D4F878EA9E42C8BFC3EB9C
:100C80000505A368B4F9266903F4805A03F0100B34
:100C9000D4F8683906933C4BCCBFADB2002500EBCD
:100CA000410843453BD01988491B89B223F8021BF0
:100CB00009B2BAF1000F0AD0F8898642C7BFBEF860
:100CC0000200B2F802C09088BEF800C005E0B2F899
:100CD00002C0B9F1000F09D09088814203DB614561
:100CE000B4BF0846604623F8020CDAE71088814258
:100CF00003DB6145B4BF0846604623F8020C398A1D
:100D00008E42CEDABBF1000F01D0918804E0069844
:100D100001780029C5D1118823F8021CC1E794F895
:100D20007C2A154B013AD2B2182A00F25A810AE005
:100D30008B42F4D2144A02F14A0030F8130022F830
:100D400013000133F4E701219140104A0A40002AC0
:100D500000F04781B3F8BC21D00519D5B3F8442978
:100D6000ADF82C20B3F84629B3F84839ADF82E2059
:100D7000ADF8303025E000BFA005002008000020BD
:100D8000140F002041160020D40F00209920980154
:100D9000B3F86C299968ADF82C20B3F86E29ADF83A
:100DA0002E20C904B3F87029ADF8302009D5B3F965
:100DB0002619D3F8743ADB899942BCBF5242ADF888
:100DC0003020B4F9981A4FF47A7201F5E161514379
:100DD0004FF4616391FBF3F1A1F5FA71ADF84410A2
:100DE000B4F9961A01F5E1614A4392FBF3F3A3F5D6
:100DF000FA73ADF84630B4F8343AB4F82029A3F2C7
:100E0000DC53ADF83230D4F8743ADB89D21AADF83D
:100E10003420B4F82229D21AADF83620B4F82429A7
:100E2000D21AADF83820B4F82629D21AADF83A20F3
:100E3000B4F82829D21AADF83C20B4F82A29D21ADD
:100E4000ADF83E20B4F82C29D21AADF84020B4F801
:100E50002E29D31AADF842300022B94B03F69A205E
:100E6000002111520232102AF7D1D3F8AC2AD3F85C
:100E7000B05A93F8AA3A06925B00099307950B467D
:100E8000DDF824C0AE48634500F08F8000F6B4253D
:100E90006A18967936B10127153607FA06F6069FC5
:100EA0003E407CD0685C079D92F904B092F801A0A6
:100EB00092F803805679C0EBC00E05EB4E0E4FEA58
:100EC0004A0CBEF90270BEF9005008967F1BBFB2F3
:100ED000642507FB0BFB9BFBF5FB4FEA5709C9EBAE
:100EE0000B0B1FFA8BFB974D12AEB8F1000F03D11D
:100EF000664436F81C6C0CE0B444EE5E3CF91CCC45
:100F0000664508DAB044B04503DBC445B4BF664665
:100F10004646EE520AE009DDC8EB0608E04503DB71
:100F2000B045B4BFC446B44625F803C04FF0010C29
:100F3000DEF80AE0824D92F902200CFA0AFA1AEA67
:100F40000E0F0CBFE6464FF0FF3E05F6243C05EBC6
:100F5000400633F80CC0B6F89A6A12FB0CF24FF058
:100F6000640C92FBFCF20FFA8BFB5A451FFA8EFEC3
:100F70000EDBDDF820A04FFA8AF807FB08FB9BFB8D
:100F8000FCFBC9EB0B0B0FFA8BFB9345A8BF9346F9
:100F900005EB40050BFB0E6BA5F89ABA02E000F6D4
:100FA00024301E52023307316AE70025D0F8B09A88
:100FB0002E460E2202FB0692634F92F90680EB5BEF
:100FC00018FB03F8642398FBF3F825F80780F0B2C8
:100FD00005F082F901364044082EE85305F1020578
:100FE000E7D1574DAF6817F02009A84634D000204C
:100FF00005F072F9A5F89A0A0646012005F06CF989
:10100000D5F8AC3AA5F89C0A1B0625D5D5F8443B83
:10101000B5F8962A1B78012B22D1D5F8B03AB5F94C
:1010200098EA93F9141093F9063011FB02F25B422F
:1010300032210EFB03F392FBF1F26FF0310E92B20C
:1010400093FBFEFE964493FBF1F176440A44A5F827
:101050009A6A1044A5F89C0AD5F8B0BA002319E0A2
:10106000D5F8B01AB5F8983A91F906E091F914104C
:101070001EFB03FE32239EFBF3FE11FB02F27644BD
:1010800092FBF3F3A5F89A6A1844E3E7D1520233CE
:10109000102B10D0C3EBC3062B4A5E44985EB6F902
:1010A0000010B6F9026088429246EFDB31B2884206
:1010B000B8BF0146EAE7224BD3F8683993F9082014
:1010C000A2B995F87CBA0BF1FF32182A7AD8DFE87A
:1010D00002F0317979557979794C79797979796230
:1010E0007979797979556D79796231000026174AD5
:1010F0003AF90610442000FB0620B3F906200593B8
:1011000005F0DEFBC6EBC60180B22AF806005944A2
:1011100000B2B1F90020059BB1F90210904203DB47
:101120000AB29042B8BF02462AF806200236102EB4
:10113000DDD1C6E71B795BB10020B5F8A41A10E039
:10114000A0050020C41000203A100020E810002064
:10115000B44B1B7803F0040303F0FF00002BEBD12A
:10116000014605F033FF01262DE00020B5F8A01A56
:1011700005F02CFF0120B5F8A21A07E00020B5F811
:10118000A21A05F023FFB5F8A41A012005F01EFFEE
:10119000022600F098BF00260AEB4603F0B29988B9
:1011A000013605F013FF062EF6D10CE000260AEBFF
:1011B0004603F0B2D988013605F008FF042EF6D1B7
:1011C00000F081BF0026B9F1000F02D1BBF1050F7D
:1011D0000CD13046B5F89A1A05F0F8FE701CC0B272
:1011E000B5F89C1A05F0F2FE0236F6B2F90208D400
:1011F0008D4FD5F8881F3A688C4B511A00290DDAAB
:1012000015E000278A4B03EB4703F019C0B2198998
:1012100005F0DCFE0D2FEBD00137F3E702F5FF728E
:10122000C3F8882F93F88C3F0BB110F051FDB5F83F
:10123000BC3133B97D4BD3F8C001012158300DF0DA
:10124000EBFD7C4B1B78002B40F09981AB681A03B7
:1012500040F19581754A92F88D2F023A082A00F2E2
:101260008881DFE812F0090038005E0074008D000C
:101270009F004B01680175016F4B1A68D5F8943FC8
:1012800064339A4240F2758100266C4B6C4A1B789D
:101290009E420FDAD8F8903F644F134493F87201DE
:1012A00040B10EF069FCD7F8903F01330136C7F822
:1012B000903FEAE7D5F8901F5C4B0A4492F8722100
:1012C000002A40F05681C3F8902F4FF0FF32C3F848
:1012D000942F03221CE0212300935A4B019303F126
:1012E0000C0202924920A3F10A02502102330AF0B3
:1012F0001CFB002840F03D81AA684C4B12F0800294
:101300004FF0FF3107D0C3F8900FC3F8941F0422A9
:1013100083F88D2F2DE1C3F8902FC3F8941F062278
:10132000F6E7494A022300210093019102914820E7
:1013300002F108030AF0F9FA002840F01A814FF090
:10134000FF33C5F8943FC5F8900F05230AE1072342
:1013500000933E4B019303F10C0202924720A3F14C
:101360000802002104330AF0E0FA002840F001816D
:101370004FF0FF33C5F8943FC5F8900F0623F1E016
:10138000334A05230021009301910291532002F179
:1013900008030AF0CAFA002840F0EB80C5F8900F65
:1013A0000723DFE0D5F8901F204A21B9C2F8941F27
:1013B0000121C2F8901F214A1678D5F8942F1644BF
:1013C000402EA8BF4026132EC5F8946F40F3D1805D
:1013D000164AD2F8902F0D2A00F22F86DFE802F08D
:1013E00088070B0E12184A4E52565A6C767C1948D2
:1013F0000EF02CFB79E0184818496AE018481949A2
:10140000194A70E0194895F8121995F813296AE0FD
:1014100095F8EC3816480C2202FB038393F8EE187B
:1014200057E000BF4116002038160020A00500201C
:10143000C00E002040160020683F0020060000205B
:10144000EC4C0108CA4E01084C50010864500108D8
:10145000B0500108B05D0108CD5D0108907601082B
:10146000E55D0108FC5D0108085E0108115E0108E8
:10147000255E0108B448B5F840132AE0B348B5F832
:10148000421326E0B248D5F8B41122E0B14BB2487D
:1014900059881EE0D5F8983FB04FDB0408D5B04816
:1014A00097F87A1306F00AFF301AC7F8940F1FE076
:1014B0000C23C7F8903F1BE095F87E1395F87F2327
:1014C00095F87D33A74806F0F9FE0EE0A648B5F87A
:1014D0009C1F06F0F3FE08E0180509D5A348B5F8EF
:1014E0008213B5F9802306F0E9FE301AC5F8940F8F
:1014F000D5F8903F0133C5F8903F3AE0D5F8AC3AC3
:10150000964E990114D5B6F8A03F8BB9D6F8A43FF2
:101510000B930E203B680C930BA90EF005FC4FF4C7
:101520008053A6F89E3F092386F88D3F08F07EFB86
:1015300005F0A0FB1DE095F8A82F884B002AF5D0F8
:10154000D3F8AC2A9201F1D4082283F88D2FEFE76B
:10155000874B1A68D5F8943FC8339A4205D90FF0E3
:10156000EBFE012385F88D3F03E00EF0F3FA00282F
:10157000F5D109F02DFB10B1012385F88D3F7D4B8E
:101580001E78002E7EF435AE744DAB685F057EF597
:1015900030AE95F8A93FB5F84E93DFF8D481002B13
:1015A00000F00F82D8F80030D5F8AC2F9A1A7C2AB8
:1015B00040F20782C5F8AC3F95F8B03F013385F89B
:1015C000B03F06F12400654FC0B204F0EDFD07F610
:1015D000B27333F9163007EE103A5E4B5B8807EEB4
:1015E000903AB8EEC77AF8EEE77A0136C7EE277A76
:1015F0009FED617A67EE877AFDEEE77A17EE900A43
:1016000000B204F0FDFD032EDBD1302004F0CCFD50
:10161000002004F0F5FD04F0D5FD97F8B06F16F04A
:10162000030620D1D7F8AC2F41F288339A420BD968
:10163000102004F0B9FD304604F0E2FD212004F052
:10164000B3FD304604F0DCFD142004F0ADFDB5F927
:10165000500904F0D5FD1C2004F0A6FD002004F084
:10166000CFFD04F0AFFD95F8B03F3C4E580740F079
:101670008281022004F098FDB6F9B80F0A2390FB8E
:10168000F3F004F0BDFD0320B6F94A7904F08CFDB7
:101690003A4B1B784FF0050A97FBFAF75907BFB290
:1016A0000CD506F56270494610F0C8FB20B9B36846
:1016B00013F0100F18BF002738B205E0D6F8BC3F72
:1016C0009B89B3FBFAF000B204F09AFDAB68234E9D
:1016D0009A0740F1AC80DFF8A890B6F8C03F99F8BF
:1016E0000020B6F8C2AF642707FB03234FEA0A1AAB
:1016F0005200B3FBF2F31FFA8AFA4AEA032A1FFAEE
:101700008AFAC3F303234AEA030A062004F04CFDD5
:101710000FFA8AF004F074FDB6F8C22F99F8003081
:10172000013292B292FBF3F103FB1123A6F8C23F00
:10173000D6F8C43F9B7B012B24D1392004F034FD23
:10174000B6F9C00F3AE000BF325E0108445E0108FE
:10175000565E010800000020695E0108A005002017
:10176000765E0108865E0108A25E0108B05E01088F
:10177000683F00204016002000007A4441160020F7
:101780000C000020B6F8C03F6E265E43152396FB82
:10179000F3F6B6B23A2004F007FDB6FBF7F90FFAFC
:1017A00089F004F02DFD3B2004F0FEFC07FB1960DE
:1017B00080B205300A2390FBF3F000B204F020FD64
:1017C000282004F0F1FCD5F8C83FAB4E0A2293FB69
:1017D000F2F000B204F014FD042004F0E5FCD5F8AA
:1017E000BC3FD6F8CC0F9B894FF6FF729042A8BF42
:1017F000104620EAE070BBB1181A07EE900A9FED80
:101800009F7AF8EEE77A06EE903A67EE877AB8EEBE
:10181000E67AC7EE877AFDEEE77A17EE900A64283B
:10182000A8BF642020EAE07000B204F0E9FCD5F81B
:10183000A031914E9B0640F1938096F89D319F0711
:101840001DD5112004F0B0FCB6F8D00F8C4B4FF42E
:10185000F367784390FBF3F000B204F0D1FC192059
:1018600004F0A2FCB6F8D03F5F43642397FBF3F784
:1018700097FBF3F203FB127000B204F0C1FC95F881
:101880009D31B5F8D26F13F0020F08BF002601207A
:1018900004F08AFC30B204F0B3FC092004F084FCAC
:1018A000002004F0ADFC774B95F89C611B88B3F5E4
:1018B000967F0BD9704A92F8B02F02F00F02072AD8
:1018C00004D842F20F76B342B8BF1E46052004F09A
:1018D0006BFCD5F8C43F5B7B0BB930B21AE0203EFD
:1018E00007EE906A9FED687AF8EEE77AFEEE006AFE
:1018F000C7EE877AB6EE007AF5EEC07AF1EE10FA0E
:1019000048BFB0EE667A77EE877AFDEEE77A17EE9B
:10191000900A00B204F074FC95F89D21564B96078E
:1019200003D493F8D42F012A04D1012385F8D43F9E
:1019300056481CE0D3F8C43FDFED557A93ED017AA9
:1019400027EE277A0BA8BDEEC77A8DED0B7A93EDC3
:10195000027A67EE277AFDEEE77ACDED0C7A06E0A3
:101960004C4A92E803000BAB83E80300184604F0EE
:1019700052FC04F027FC95F8B03F282B21D13E4BB8
:10198000D8F80060002283F8B02F4FF47A73B6FBCA
:10199000F3F917203C2604F007FCB9FBF6F7B7FB78
:1019A000F6F006FB1070000200B204F029FC1820CB
:1019B00004F0FAFB06FB179000B204F021FC04F0DF
:1019C00001FC95F8E03F2C4E002B00F06A8104F0FA
:1019D000C6FAD6F8E43F304AC31A9342074640F2AB
:1019E000E480002386F8EA3F86F8EC3FB6F8C03F73
:1019F0002A49D8F80000DAB21B0A4B7086F8FD3F7E
:101A0000274B0A7086F8FC2F53F8E42C801A53F801
:101A1000E02CD27B4FF47A71514388420ED3214A95
:101A2000126843F8E42C13F8DC2C013A012A05D89B
:101A3000102286F8EA2F022286F8EC2FD5F8C80F7C
:101A4000194A0A2190FBF1F0107000125070D5F87D
:101A5000CC0F90FBF1F111710912517195F89C11A5
:101A600003F8C11C95F89D310D4A9D071ED42D2306
:101A700002F8C03C96E000BFA00500200000C8426C
:101A8000A08601000E0000206666E63F7815002063
:101A90008096184BD85001083F0D0300A615002072
:101AA00098160020683F0020A41500200429D4F8CF
:101AB000D86FD14DDFF85CE3D4F8DC0F8CBF332353
:101AC000322302F8C03C96FBF5F30EFB036803EBF0
:101AD000830390FBF5F503EB8303C84A0EFB050E69
:101AE0004FF0060C4FEA8309C54B0CFB08F8F60FC4
:101AF0000CFB0EFE98FBF2FA03F8D26C9EFBF2F69A
:101B0000642102FB1A8802FB16E292FBF1F203F851
:101B1000CA2C1212C00F03F8C92CB4F8D02F03F846
:101B2000CD0C2420424398FBF1F892FBF1F133F8FD
:101B3000AE2C03F8D41CC1F3072103F8D31C03F81F
:101B4000C82CB4F8D21F03F8CF8C120A05EB850518
:101B500003F8C72C0A2205EB8505B1FBF2F2AD00B4
:101B600002F5FA7292B249FA8AF945FA86F51FFA35
:101B700089F9ADB203F8C62C120A03F8D19C4FEADA
:101B800028284FEA192903F8CC5C03F8C52C2D0A44
:101B900033F8AC2C03F8D09C03F8CE8C03F8CB5C64
:101BA00003F8BF2C974BC3F8E47F954D15F8AA6C4A
:101BB000A8466EB955F8A40C04F087FA012807D995
:101BC0000228914C00F0458204F084FA012323712D
:101BD00055F8A03C8A4C002B63D014F8AA6C3EB197
:101BE00054F8982C40F6B731BA1A8A4219D858E0FE
:101BF000012354F8A40C04F8AA3C0BF064F854F840
:101C0000943C93F9000002238DE8480008213246F5
:101C10004FF4964310F02CFA04F8906C44F8A40C9E
:101C20003DE014F89C6CCEB954F8A40C44F8A06CB8
:101C300004F8AA6C0BF047F854F8943C93F90000B0
:101C400001238DE84800082132464FF4964310F0F6
:101C50000FFA44F8A40C04F03DFA20E0013EF6B27D
:101C600004F89C6C14F8901C14F88F0C46B90130E1
:101C70004B1C04F88F0C04F8903C54F8A40C0CE0B6
:101C800013F8012B44F8A03C0130114404F88F0CE8
:101C900054F8A40C04F8901C114604F029FA45F8F5
:101CA000987C574C14F88E3C2546FBB154F88C3C7C
:101CB000E3B154F8883CCBB144F8843C1B68534AE8
:101CC00044F8803C54F87C3C134493F8F40305F04A
:101CD000B1F954F8843C98790AF06EFF54F87C3CD2
:101CE0000133092B88BF002344F87C3CDFF82881AE
:101CF00014F8783CD8F80060414A4746002B3EF47F
:101D000078AA52F8743C33B112F8703C013B012BB5
:101D10008CBF00230123D9077EF56BAA55F8740CFC
:101D2000374C04F0D2F9E0B154F8740C04F0C8F95F
:101D300014F86F3CD7F800A07E2B81460ED1022309
:101D40001B2804F8703C09D154F8740C04F0BDF958
:101D500020B9012344F86CAC04F8683C05F86F9C8A
:101D6000DCE7D8F8002054F86C3CD31A41F658321E
:101D7000934225D9032304F8703CFEF73ABA13F8CE
:101D8000671C234A32F8110018B903F8670C4FF4A6
:101D9000036015F8672C1A4C0132D2B2B0F5C06F4F
:101DA00005F8672C77D039D8B0F5007F69D016D800
:101DB000B0F5807F00F0A580B0F5887F00F0A180AD
:101DC00015F8682C0E4B002A3EF413AA3A68921BB1
:101DD000012AD4D9002203F8682CFEF70ABAB0F51C
:101DE000806F00F0A480B0F5826F00F0E180B0F564
:101DF000047FE5D13DE000BF8096980040420F008F
:101E000098160020A005002000000020EC4C0108DE
:101E1000905D0108806967FF683F0020B0F5006FA2
:101E200040D00CD8B0F5E26F78D0B0F5E46F7AD03E
:101E3000B0F5E06FC4D1A74BB3F9B21F71E0B0F5B4
:101E4000036F06D0B0F5046F63D0B0F5026FB7D161
:101E5000D6E0A04BD3F8A0219206B1D593F89D21EE
:101E60009107ADD5B3F8D03F2421594312316423F3
:101E70000EE0984B9A689207A2D5B3F8C03F0A21AA
:101E8000CCE0944B9A6811059AD5D3F8C81F0A2361
:101E900091FBF3F1C3E08F4B9A68120590D5D3F80C
:101EA000CC1FBCE08B4BD3F8A011890688D593F8E2
:101EB0009D118C0784D5D00711D5D3F8DC2F82EA89
:101EC000E273A3EBE273192103EB5303B3FBF1F3CA
:101ED000002A43F0004111DA43F040410EE0D3F80C
:101EE000D83F83EAE371A1EBE37101EB51011922C1
:101EF000B1FBF2F1002BB8BF41F080414FF400601C
:101F00006EE0744BD3F8A03159077FF559AF00212B
:101F100085E0704BB3F9501964237FE06D4BB3F942
:101F2000B41F2C23B4E76B4BB3F9B61FF9E714F8D1
:101F3000663C0133DBB2032B88BF012304F8663C07
:101F400015F8663C42F210715943634B1B78DA076F
:101F500048BF01319C0748BF023158075D4BB3F8B9
:101F6000BC3148BF0431DA0748BF0A319C0748BF7B
:101F70001431180648BF2831DA0548BF28315C07FC
:101F800048BF6431180748BFC8319A0548BF01F5FA
:101F9000C8719C0648BF01F57A71D80648BF01F5A3
:101FA000FA615A0648BF01F57A614FF4806017E084
:101FB000484BD3F8A01111F0200817D093F89D21B9
:101FC00093F89C3112F0020F0CBF00214FF47A718C
:101FD00012F0010F0CBF00224FF4FA6211441944B1
:101FE00004F0AEF8002305F8683CE9E69B681B06A0
:101FF0007FF5E6AE414604F0A3F804F8688CDFE60E
:10200000344BD3F8A02191067FF5DAAE93F89D21E9
:1020100092077FF5D5AEB3F8D23F6421594304F05F
:102020008FF8002304F8683CCAE60123037002F528
:10203000C333A0334360FEF7B5BA0DF08BFD002823
:102040003FF497AA4FF48053A5F89E3F0923FFF76A
:1020500089BA23791BB145F8A87C2671B8E555F8F3
:10206000A83CFB1AB3F57A6FFFF4B2AD012355F823
:10207000A40C237104F024F8044655F8A40C04F0D1
:102080001FF864067FF4A4AD8A2802D08E280ED0F3
:102090009EE5104BD3F8A03198067FF599AD15F861
:1020A000AA3C002B7FF494ADA8F1DB0305E015F802
:1020B000AA3C002B7FF48CAD084B45F8A03C2D23A7
:1020C00005F89C3C84E5B9F1000F3FF48FA8FFF7B9
:1020D00080B800BFA0050020411600208815002010
:1020E0002DE9F04F2DED068BC74CC84B236093B004
:1020F0000023636008F082FD18B90EF00FFB08F0B2
:10210000A1FDC34EDFF86483C24DDFF864B3DFF88E
:1021100064A307F037FA337843F00103337004F017
:102120004FFDBD4BC8F80C306B6FA360BB4BC8F8BC
:1021300008306B6BBA4823F080036B636B6F43F01E
:1021400080736B672B6B43F03F0312AF2B6303234A
:102150008DF82E3041F6FF7327F81C3D39460AF002
:1021600039FB4FF6FF73AF48ADF82C3039460AF013
:1021700031FBAD4839460AF02DFBDFF8FCC2CDF843
:102180000CC0604639460AF025FBA84839460AF0DB
:1021900021FB3946A6480AF01DFB38460AF086FAAC
:1021A0000B9BA44AB3FBF2F3E360A34BA34A4FF0AB
:1021B0000009C3F80090A24B5A60F02288F823204F
:1021C0000722DFF8A082C3F808901A60D8F8083018
:1021D000CBF800309AE80F0087E80F002B6BDDF892
:1021E0000CC00B9843F008032B632B6B43F00803E0
:1021F0002B634FF48043ACF818304FF40043ACF835
:1022000018300CA90AF0E6FA0EA90D980AF0E2FAC5
:10221000642003F0CAFE49468A48A02211F0F6FD68
:102220002B6C43F013032B646B6C43F001136B6452
:10223000854BB14603F1C00046469A7A93F80BE00D
:1022400053F8105B02F00701D20805EB8202890007
:10225000156A4FF00F0C0EFA01FE0CFA01F125EA97
:1022600001011162156A83424EEA05011162E4D14F
:102270000023DFF8948108F1100200219954013302
:102280000C2BF6D1FF2388F81C3088F81D3088F815
:102290001E3088F81F306D4BDFF8E0C1C3F800C076
:1022A0006B4D6C4B04221A7028463022CDF80CC0BE
:1022B00011F0ACFD14232B700223DDF80CC02B763B
:1022C000654A052385F8243073791370ACF5F172F3
:1022D000C8F82020ACF59172C8F824205F4ADBF8DA
:1022E000005002EBC3025278C8F82820AA0644BF67
:1022F0000122C8F828200022594940F2DC505052EF
:102300000232102AF8D1384600211C22049311F021
:102310007DFD049B0E2B03D003F0EF03082B02D1AD
:1023200001238DF83E3005200AF0FEFC18B14088EC
:10233000003018BF0120C5F340038DF83330C5F3DA
:1023400080138DF83630C5F340338DF82C30C5F34B
:10235000C03300F001008DF82F3015F400638DF8C4
:10236000320004D096F884315F1E7B427B418DF8A9
:102370003030C5F300438DF83730A36AB6F84471A6
:10238000ADF84270003318BF01238DF83830C5F323
:1023900000538DF83930B6F84631ADF83C30B6F818
:1023A0005231ADF83A30C5F380438DF8343096F8A9
:1023B0005431181C18BF012005F00101C5F3C002FB
:1023C0008DF83500ED04B6F850018DF82D108DF81C
:1023D0002E20ADF8400004D5224DB5F84C51ADF893
:1023E0004250B0F5FA7F02D90BB9ADF8423096F8F9
:1023F000D4311D4884F82C30002384F82D304370EC
:102400009DF83E30002B3BE044160020FB600008A6
:10241000703F0020003802400005FA050000000867
:102420000000024000040240000802400010024088
:102430000014024040420F006C3F00203F90020019
:1024400010E000E0A43D002078700108C01B0020CF
:102450008C1C0020881C00201C10002034710108F6
:102460003A100020A00700207116002000ED00E0C7
:10247000A805002078690108000C0240920900209C
:1024800014BF0223002301B902B101330AEB830315
:102490004FF000081B690593C246059A32F80830D0
:1024A0004FF6FF72934200F01B81190A022902D1F4
:1024B0009DF82C2003E0012904D19DF82D20002A4D
:1024C00000F00881DBB2BC4D9DF839004FEA031CD7
:1024D000654430B19DF83E0018B9043B032B40F22F
:1024E000E28001294DD19DF8343023B9BDF8403048
:1024F000B3F5FA7F08D9B04951F80C30AF498B4297
:1025000004BF032384F82F30FF230027298984F890
:10251000743084F875306B7B686884F87870C4F820
:102520008450ADF81C108DF81E3007A902238DF8D9
:102530001F3084F830706763A763E763276784F808
:10254000767084F87770CDF80CC00AF043F9DDF8A6
:102550000CC0994AA97A52F80C003A4608F008FAD9
:1025600028460FF049FD964B9649C4F88830964BA3
:10257000C4F88C30C4F8907028460A1D0EF07CFC1C
:10258000A8E002293CD1914A8DF81F105FFA8AF326
:102590001C205843171800234FF0010EBB70BB726C
:1025A00087F801A007A902F800E095F80DE02A8954
:1025B0006868FD608DF81EE0ADF81C200493CDF82E
:1025C0000CC00AF007F9DDF80CC0049B7A491A46E2
:1025D00051F80C00A97A08F0CBF928460FF00CFD51
:1025E0007B4A3A61049B7B4A7A61BB61284607F1CA
:1025F000100107F114020EF03FFC0AF1010A69E034
:1026000003294ED19DF8343003B39DF83530724F15
:1026100094F82EC053B1BDF84030704AB2FBF3F2CB
:102620002846082192B2BDF8423003E0284608212E
:102630004FF6FF72CDF80CC005F08CFCDDF80CC035
:1026400004EB8C03C3F85801C76024E0BDF84020B8
:1026500094F82E70BDF84230B2F5FA7F0DD95F497B
:10266000B1FBF2F22846082192B205F073FC04EBAC
:1026700087075B4BC7F858010CE05A49B1FBF2F2EF
:102680002846012192B205F065FC04EB8707524B06
:10269000C7F85801C36094F82E30013384F82E3007
:1026A00018E0042916D1BDF83A304E4A94F82D703E
:1026B00092FBF3F22846BDF83C30012192B205F0BE
:1026C00049FC94F82D3004EB87070133C7F88801E3
:1026D00084F82D3008F10208B8F1180F7FF4DDAE50
:1026E00094F82D2084F8A8213F4A404B1578A5F195
:1026F00017020027022A1F709E461AD8236A3B44FD
:10270000D3ED007AF5EE407AF1EE10FA02D1A36A29
:1027100063BB26E0364A07EB020C0FCB8CE80F00B8
:102720009EF8003010370133C02F8EF80030E5D10D
:10273000EDE7304B13F835808EF8008003EBC503CE
:10274000D3F804A0BAF1000FE1D04745DFDA284AF8
:102750003B0103EB020C53440FCB01378CE80F0015
:10276000F3E7DBF80030D8044ED41FE0224B234AB5
:1027700003EBC5035F6A93F820001070002FF0D0C0
:1027800000238342EDDAC3EBC3017A18DFF87480CB
:10279000D2F800A041F808A001EB080C9188ACF831
:1027A000041092798CF806200133EAE705F0EF0374
:1027B000082B134B48D149E0747001080000014018
:1027C000155D0008CC160020215E0008BC16002014
:1027D0008DAA0008F95D0008315E000800127A0039
:1027E000415E000840420F001C100020040F002032
:1027F000140F002034710108786901084A10002084
:102800003D070020541000209EF800100129CDD96A
:10281000864B00228A4203F11003C7DA13ED047AD3
:10282000F6EE007A27EE277A013203ED047A13EDF3
:10283000057A27EE277A03ED057A13ED037A67EE22
:10284000277A43ED037AE5E70E2D08D11A7842F096
:1028500010021A70182D08D103F019FD05E01A783E
:1028600022F010021A70192DF5E70FF005FBDBF8C6
:102870000030590302D46E4B01221A7099F80030CF
:1028800043F0040389F8003009F09CFB10F0BEF817
:102890000CF032FAB6F85821664B4AB9B3F95A111E
:1028A00041B9B3F95C31D3F1010338BF002302E031
:1028B000002300E0134613F001036AD112B25E490F
:1028C000DFED5E7A0B7008EE902AB6F95A31B6F950
:1028D0005C11F8EEE88A08EE103A0AEE901A68EEFB
:1028E000A78AB8EEC88AF8EEEAAAB0EE680A28EE1F
:1028F000278A6AEEA7AA03F0DBFFB0EE409AB0EE9B
:10290000680A03F075FFF0EE409AB0EE480A03F053
:10291000CFFFF0EE408AB0EE480A03F069FFB0EE58
:10292000408AB0EE6A0A03F0C3FFB0EE40AAB0EEF0
:102930006A0A03F05DFF20EE097A69EE8A7AF0EE0A
:10294000475AE7EE885A2AEE096A69EE806AC4EDB2
:102950006E5AF0EE465AE6EEC85AE7EE087AE6EE10
:10296000486A2AEE28AA28EEC00A69EEE89A68EEBC
:10297000898A84ED6BAA84ED6C0A84ED6D8AC4EDBE
:102980006F5AC4ED709AC4ED716AC4ED727AC4EDE9
:10299000738A2B4D2B482B6896F85FB1B3F856A07D
:1029A00000210C2211F032FA00211422264811F0E5
:1029B0002DFA2648002184F8DC110C2241700430E5
:1029C00011F024FA224B234A1A60232003F0EDFA77
:1029D000214B1A8822F040021204120C1A801A8825
:1029E00022F038021204120C42F030021A801A88C7
:1029F00092B242F040021A806B20802108F0DFFB87
:102A00004FF00608962007AF03F0CFFA3A4675203C
:102A1000012108F0EBFB9DF81C20682A1ED008F16C
:102A2000FF3313F0FF08EDD132E000BF1C0F002090
:102A30002C150020A00700201000002035FA8E3C45
:102A400060070020141800204407002020180020F0
:102A5000583F0020686A0108003800400C2001211E
:102A60003A4608F0C3FB9DF81C30142B10D3182BEA
:102A700002D9543B062B0BD8032384F8DC314323C3
:102A800084F8E031484BC4F8E431484BC4F8E831ED
:102A9000002384F8EC3194F8DC31454D032B40F0F1
:102AA000E084444B444A1A60444A5A60444ADA601B
:102AB000444A1A614449042285F8EC2106220A702E
:102AC000424A1068BBF1090F40F0010EC2F800E065
:102AD0000B46904600F2C1844FF0010C0CFA0BFC3F
:102AE00040F202310CEA0101002940F0AE841CF0F2
:102AF000FD0F00F0AA843649C5F8D0113549C5F854
:102B0000D41135494FF0040C81F800C040F00300A7
:102B100007215970C8F80000D8F800108A0702D5BC
:102B2000D5F8D01188472D49224A4FF0000B4FF4B9
:102B30007A700860136885F8EDB1BC209847284981
:102B400096F8553181F800B0084613B1184981F85C
:102B5000EC31244991F856310BB11F4E337091F886
:102B6000573103B10370D8F800301B073ED50FFA78
:102B70008AFA64239AFBF3F203FB12AA0FFA8AFA89
:102B800007EE10AAF8EEC76A07EE102AF8EEC77A29
:102B90009FED157AE6EE877AB2EE047A67EE877AD1
:102BA000C5ED7C7A25E000BFEDB10008BFB100089B
:102BB0004416002044070020ADF800086D8C000882
:102BC000615E000890C1793D180000204007002098
:102BD000E51F0108E18C0008D818002058070020E4
:102BE000D9180020A00700208988883C0023C5F858
:102BF000F03199F8003043F0020389F80030C64BF9
:102C00004FF400425A834FF480421A834FF00A096E
:102C1000C14E736983F400437361736983F4804325
:102C20007361192003F0C1F909F1FF39192003F08C
:102C3000BCF919F0FF09EBD14FF4804333834FF413
:102C400000433383D4F8F4619FEDB48A317BDFED28
:102C5000B48A00EE101AB8EEC00A20EE080A03F09B
:102C600027FEB04B84ED7E0A1B8807EE103AB8EEC3
:102C7000C77AF7EE007A87EE877AAB4BB0EE680A38
:102C800084ED7F7A93ED047A27EE088A84ED808ABA
:102C90003678C4ED857A07EE106AB8EEC77AC4EDCF
:102CA000887A87EE877AC4ED838A84ED817A37EE5D
:102CB000C77AC4ED848A84ED827AC4ED868AC4ED35
:102CC000878A03F0F5FDB0EE408AB0EE680A03F0A3
:102CD0008FFD60EE006A28EE087A66EE807A84F84E
:102CE0003492E7EE087AFF211B22C4ED897A60EE68
:102CF000087A27EE806AF0EE465AD7EE885AA7EE99
:102D0000886A28EE668AC4ED8A5AA7EE008A84EDA6
:102D10008B6A84ED8C8A854C204611F077F8844AC2
:102D2000844B126884F80090012112F0020F197090
:102D3000204604D06170032119700221A17056074A
:102D400004D519784C1C1C700324445412F00A0F4B
:102D50000CD01A7804218154511CC9B20524445462
:102D6000D11C0232D2B2197006218154724E3268DF
:102D7000940604D519784C1C1C7007244454110681
:102D800008D51978092444548C1C0131C9B21C702F
:102D90000A244454694C6179082901D00E2909D1CB
:102DA00093F800E00EF1010C83F800C04FF00B0C1B
:102DB00000F80EC093F800E00EF1010C5FFA8CFCF5
:102DC0004FF00C0912F0040F83F800C000F80E90C9
:102DD0000BD0DFF860910EF1020E89F800E0DFF809
:102DE0004CE14FF010090EF80C9093F800E00EF152
:102DF000010C5FFA8CFC4FF0120912F4806F83F81B
:102E000000C000F80E9010D094F81492B9F1000FA1
:102E10000BD0DFF820910EF1020E89F800E0DFF808
:102E20000CE14FF013090EF80C9012F4007F09D05A
:102E300093F800E00EF1010C83F800C04FF0150C80
:102E400000F80EC0182917D193F800E04FF0160CC7
:102E500000F80EC00EF1010C5FFA8CFC4FF0170960
:102E600000F80C900EF1030C0EF1020E5FFA8EFECC
:102E700083F800C000F80E10110308D5197801F18D
:102E8000010E83F800E04FF0190E00F801E0D205C2
:102E900004D51A78511C19701A23835400219822E2
:102EA000274810F0B3FF0EF009FA2649B4F84E3166
:102EB000A5F83C3200230B808B702349234A0A601B
:102EC000B4F89611C5F8382285F83E328AB2204807
:102ED0001A520233242BFAD1336813F4805F08BFEF
:102EE000B4F89C21C2801B0740F1ED8094F890213A
:102EF000062A00F2E280DFE802F0040731607B9BE3
:102F00009B0045F2F05301E042F6F823A5F8403269
:102F10000EF05EFAD0E000BF000C024035FA8E3CA5
:102F20000000000002000020440700201D1C0020BB
:102F3000400700201C1C0020A8050020A00700203E
:102F4000241B0020EC0F0020B005002028090020E1
:102F5000C00E00200000B0C4CDCCCC3F07EE101A4C
:102F60005FED047AF8EEC76A1FED057AE6EE877A20
:102F700042F6F823A5F840320023FCEEE77A7D4ABA
:102F800017EE901A99500433482BF8D17A4B7B4AAC
:102F90005A607B4B122240201A7009F003FF002870
:102FA00000F08B8001234FF0070890F90000754A6C
:102FB0008DE808014021744B79E042F6F823A5F82A
:102FC00040326D4B714A5A606D4B102240201A708E
:102FD00009F0E8FE002870D001234FF0000C90F9B2
:102FE00000006B4A8DE8081040214FF4E1335EE0A9
:102FF00042F6F823A5F840325F4B664A5A60604BB0
:10300000082240201A7009F0CDFE002855D0012377
:103010004FF0000E90F900005F4A8DE80840402113
:103020004FF4E1330FF024F85C4BC3F8440240E066
:1030300042F6F8215248A5F84012062A4FF00C013A
:10304000564BDFF878E1017011D000228EF8002095
:1030500083F8482283F849221B2283F84A2205225A
:1030600083F84B1283F84C224FF4E1390FE0002033
:103070008EF8000083F8480283F84902DFF8409197
:1030800083F84B12212083F84A0283F84C223A4BF2
:10309000434A5A60402009F085FE70B101210023A7
:1030A000404A90F900008DE80A0040214B460EF09E
:1030B000DFFF003018BF012028B9082003F078FD99
:1030C0002D4B394A5A6033682D4A13F4804F04D08F
:1030D0001221117028493548486042F20101194017
:1030E00003F0010003F4005E99B144F62061A5F8F5
:1030F0004012BEF1000F06D0082111701E49DFF802
:10310000C4E0C1F804E020B10C2111701A4928482C
:1031100048601178043951701A0640F19180DFF847
:10312000A890DFF8A8B0DFF8A8802248C5F850B210
:103130004FF0000A5146152289F801A0C9F804A0F1
:10314000C9F808A010F062FEABF105035046C8F8BC
:1031500000300EF06FF8184B02201B68C9F80C30D5
:1031600009F020FE4B46C646A0BB802003F020FDA0
:103170005EE000BF040600201000002099C1000896
:10318000381C002005C40008A086010089C1000881
:1031900055C3000875C1000809C300084416002083
:1031A00035C10008F1C10008EDC10008C9C100081F
:1031B000E1C1000898180020683F0020E8060020C0
:1031C00090D00300D5C10008180700209209002004
:1031D0003807002090F805C05A78A6494FF00C092E
:1031E00009FB021999F80190E14504D00132D2B2ED
:1031F000042AF2D900225A70DEF800205B78127897
:1032000090F90000002A4FF00C0E0CBF012203229F
:103210000EFB0311009200224B78019202210EF066
:1032200027FF954B186000289FD001200EF002F870
:10323000924A934B106800F5C5721A6003F0BEFD08
:1032400033685B055BD58F4BD5F86C92C3F8009063
:10325000042009F0A7FD0421C5F8700209F078FDEB
:10326000894B85F874020820C3F8009009F09AFD94
:10327000864BDFF85C821860082109F069FD0021A7
:1032800085F875022C22404610F0C0FD8E2388F888
:1032900001304FF07C0BE0234FF07D0A88F80330BB
:1032A00088F800B088F82BA0DFF828822C220021B3
:1032B000404610F0ABFD8A2388F801301020A0238F
:1032C00088F8033088F800B088F82BA0C5F8789209
:1032D00009F068FD1021C5F87C0209F039FD85F878
:1032E00080022020C5F8849209F05CFD2021C5F8F9
:1032F000880209F02DFD85F88C020EF05DFADFF8EA
:10330000D881DFF8D8A1B8F8003023F040031B04BF
:103310001B0CA8F80030B8F8003023F038031B0469
:103320001B0C43F00803A8F80030B8F800309BB23B
:1033300043F04003A8F800304FF000099F234FF4FA
:10334000004B32208DF818308DF819908DF81A90B6
:103350008DF81B9002F029FE8DF81D904046AAF8CA
:103360001AB0394606AA04230EF086FC484BAAF888
:1033700018B001224FF480414FF008081A805A809B
:1033800099809960D96085F88D22C34609EB0B0AB4
:103390004FEA6A0A4FEACA203946102207F07AFF3C
:1033A0000F280ADD0023FA5801325FD10433102BB5
:1033B000F9D1D046D346D945E8DB0CF0B3FB4FEA50
:1033C000C823C5F890323368324A13F4002318BF7B
:1033D0000123137002F0C3FD2F4B18606379052B96
:1033E00003D12E4B4FF4C8721A802D4B4FF47A72D2
:1033F0001A802C4B1A7842F008021A702A4B1A785D
:1034000022F002021A70326840F6020313406BB1D8
:10341000264B274A1A60274B03221A70264B01229B
:103420001A70264A00231380254A1380A36833604C
:10343000244B01221A70244B1A7862F07F021A7012
:1034400013B0BDEC068BBDE8F08FBBF1010F04D8C3
:103450001E4900200870FFF75FBB4FF0000BFFF71D
:103460003BBB012002F0ABFDFFF7C3BB0AF1010932
:10347000A1E700BF0C4D01081407002060070020E1
:10348000F40E002064150020B8150020041600205A
:103490001C0000202D15002068070020E41A0020E1
:1034A000181C00203D070020411600205C1500205C
:1034B0001A090020BC1500200C0000209A1A0020D8
:1034C0009C1A00202C150020703F0020D8180020E6
:1034D00088150020BD150020003C0040001002406F
:1034E000834984480A682DE9F04F02F59C43203354
:1034F0000360814B1E7889B01D46BEB15B689A425D
:1035000040F21C81013E2E7018E1DAF800307B4851
:10351000072C98BF195D7A4B88BF21461B689847D6
:10352000032C0BD905EB440401362081734BDFF8E3
:10353000FCA11A78F4B2A242E7D81FE0DAF8003012
:1035400004F10E0203EB82029388D2880028E9D0AE
:10355000C01A4FF47A71D31A484390FBF3F0084431
:1035600040F6C903984205DC40F2EE239842B8BF0A
:10357000184601E040F6CA0080B2D3E7614A1268FB
:1035800042F2010802EA08085F4A1278D8F10108FD
:1035900038BF4FF000082AB9B8F1000F04D05B4AD9
:1035A000177802E0012700E0474693F80090584B57
:1035B000DAF800B093F800A0DFF874C10F2285F8A4
:1035C0002C200322BAFBF2F202EB4202C2EB0A0207
:1035D0004FEA4901D2B20024049152002646049BCE
:1035E0009C4251D017B14B4BE05A00E03846BBF833
:1035F0001430834206D8BBF81630834234BF002310
:10360000012300E0002353B9F0B201920393CDF8F7
:1036100008C00EF0EBFBDDF808C0039B019AF1B285
:1036200003290BD853B9344B4FF0010E93F82C10EB
:103630000EFA06FE21EA0E0183F82C10B8F1000FF5
:103640001BD12D4B2CF8020093F8761029B9BAF152
:10365000020F12D9012183F87610BCF80230BCF8B1
:1036600000001844BCF8043018442B4B80B2E052E0
:1036700000B2032390FBF3F080B2284B0136E052F6
:103680000CF1060C0234AAE795F82C202449254BAE
:10369000B2F10F077A427A4185F890206AB1224A46
:1036A0001268560109D40A68D9689A60521AC82A61
:1036B00040D9012283F821203CE013480968D960F1
:1036C0000022027098685B68091A994288BF154BFE
:1036D0004FF0000488BF83F821204C452ADAE0B27D
:1036E0000EF084FB0D4B23F814000134F5E700BF06
:1036F0003816002004070020DC180020381C0020A9
:1037000014000020A8050020A0050020AC05002022
:1037100082180020E418002054190020C00E002058
:10372000683F0020EC0F00204C100020B005002066
:103730000A190020884B1A7801321A70874B1A68D0
:10374000D40405D5864B1B68D80701D40DF00AFEBA
:10375000844B1A68937A2BB3013B8349127B31F86F
:1037600013301AB1C3F53B6308339BB21BB2A3F508
:103770007A73B3F57A7FA8BF4FF47A7323EAE373C1
:1037800007EE903AB8EEE77ADFED787A784BC7EE3D
:10379000277A9FED787A67EE877AFCEEE77A17EE64
:1037A000902A1A806D49DFF8F0810B6813F4807F4E
:1037B00000F0FC80704B714E1A68714B9A4203D92D
:1037C000B3780BB90123B370B378002B00F0EE800F
:1037D0006C4B98F800701C78614B1A68002CC2F38F
:1037E00080690CBF03220022C7F380079A46049227
:1037F00096F82030052B00F2D480DFE803F0034B6D
:103800005071809B002F38D05F4B18685F4B198830
:103810000EF014FB012808D15D4B1A68D5F89430DE
:10382000DB88642101FB03233361B9F1000F0CD065
:10383000D5F894301B7943B10DF0C6FC032386F80C
:1038400020304FF47A73F361D2E7002C40F0A98066
:103850004F4B32691968DFF824B1914209D90DF054
:10386000B3FC03228BF8202040F6B832CBF81C20A2
:10387000BEE701228BF82020BAE74FF48060B9F14F
:10388000000F02D009F078F901E009F085F9002372
:10389000336186E0002C45D10DF096FCA8E724B1F9
:1038A000052386F82030012100E0214667B1364B20
:1038B0001B68DA892C4B1A805A809A80D5F894209C
:1038C0005288DA8002220492314B1A6873699A4254
:1038D00001D8002F62D147F23053F361032322E075
:1038E00098F8003043F0020388F800300DF03AFDFC
:1038F000274B1A68F3691344B361042313E0244B84
:103900001A689CB1B3699A424BD9224B1B781BB9F8
:10391000DAF80030D90744D498F8003023F00203D5
:1039200088F80030052386F8203061E7F3691344F6
:10393000B36136E0164B1A68D5F89430DB88642101
:1039400001FB032333614FF48060002386F82030AD
:10395000F37009F021F94BE782180020A805002038
:103960004C100020B0050020C00E002000007A445A
:103970003A1C002000C07F4438160020EC0F0020C5
:10398000404B4C00A00500207C180020801800202F
:10399000683F0020000000204116002000297FF42D
:1039A00027AF049B13B1184609F0ACF88E4E06F50C
:1039B000C470B6F84E110EF041FA074670B902F025
:1039C00015FD0023C5F89870C5F89C70C5F8A07067
:1039D000C5F8A430C5F8A830C5F8AC3098F8003068
:1039E0005A073ED581490B68DB063AD5804B1B78D8
:1039F000DC0636D47F4B1C7884B196F8E031AFB941
:103A00006BB17D4B1A68D5F8B0309B1A002B06DAE3
:103A10000DF0A8FC794B83F8B47022E0CFB91020E8
:103A200009F070F8012385F8B4301AE03BB1724A0E
:103A300012684FF47A7101FB0323C5F8B03095F892
:103A4000B43073B109F044F86C4B002283F8B42011
:103A500007E095F8B43023B109F03AF8674B83F8E2
:103A6000B440002296F8DE9196F8DF11B6F898E19E
:103A7000B6F89AC11346624C105F9B087045C4BFEC
:103A800063F07F03DBB202326045B8BF43F040030E
:103A9000082AF0D195F8B500584A984205D192F815
:103AA000B600F92804D8013000E0002082F8B60002
:103AB00085F8B5304F4B534C1A789A46D2B92368E3
:103AC000D80707D5B7B998F80030DA0712D50DF046
:103AD000C9FC0FE098F800305B070BD54A4B1B7808
:103AE00043B14A4BDB782BB911B10DF03BFC01E03F
:103AF000002FFAD095F8B620DFF800B1444F142A11
:103B000040F0AA809AF8002019F1000918BF4FF080
:103B100001095AB39BF8B5205F2A10D198F800200C
:103B200002F0040202F0FF0112B10DF01BFC06E0EE
:103B30000B20039108F0E6FF03998BF8B610B9F15A
:103B4000000F13D095F8B5307D2B0FD198F80030C9
:103B500003F0040303F0FF0B13B10DF003FC05E0C9
:103B60000B2008F0CFFF254B83F8B6B098F8003053
:103B700003F0040303F0FF00002B6DD195F8B5B0FE
:103B80001E4ABBF1570F11D1224B4FF47A721A80A3
:103B9000164A1368180601D502F0E4FF1E4B1B6895
:103BA00013F0080358D11D4A138055E00F4B1968D4
:103BB000490735D5BBF15A0F32D192F8B7302BB146
:103BC000012382F8B70082F8B83045E092F8B930A6
:103BD00083F0010382F8B9300BB10C2000E00D2016
:103BE00008F090FF38E000BFA0070020A8050020E3
:103BF0003D07002000000020683F0020DC18002066
:103C0000C00E00204C100020A0050020EC0F00206A
:103C100060070020181C002040070020F00E002044
:103C2000BBF15D0F00F02885BBF15B0F00F026852E
:103C3000BBF15E0F00F02485BBF1560F01D10BF0F4
:103C4000E1F89AF80020002A00F0E684BBF16F0F3B
:103C500040F0DB840DF006FCB3490B685B0738D5F8
:103C600095F8B930B14A9BB198F8003058070FD594
:103C7000AF4BB3F90610B6F89831994208DD2368C6
:103C800013F0010304D13221A2F8BA1082F8B9303E
:103C9000236813F4803FA54B0CD095F8BC202AB9BB
:103CA00093F8B72012B93222A3F8BA20012385F87D
:103CB000BC300EE095F8B7205AB198F8002002F019
:103CC000040202F0FF0122B9012283F8B71083F841
:103CD000B820D7F800A000270AF1790B27600AF175
:103CE0007B090BF10203D919DA5D4B7819F8010C45
:103CF0009A420AD249460AF08CF830B119F8023CCF
:103D000001229A402368134323600437502F09F19E
:103D10000409E6D1874B1F7857B1874FDFF830A2EF
:103D20003B68DFF8309213F0020F40F033832AE350
:103D30000AF1C90B0AF1CA040BF10103D919DA5DC2
:103D40004B7814F8010C9A4229D221460AF061F806
:103D500028B394F802E0794B207994F803A00EF18F
:103D6000FF3E0EEB4E0E9E44704B4FF00C0C03F1D9
:103D7000C0090CFB00FC09EB0C014A6872450ED02F
:103D8000002209F80CA08A60012202FA00F093F8E0
:103D9000F020C1F804E022EA000083F8F0000637C2
:103DA000482F04F10604C7D1654BDFF8ACA11C68AD
:103DB000644B1B680493644B1B7805934FF0000918
:103DC000DAF80030002B00F0D5821F78002F00F0C9
:103DD000D182DAF8042004998A1A002A0CDB01F552
:103DE000FA72CAF8042095F8F010012202FA09F2DA
:103DF00021EA020285F8F020059A002A00F0BA8232
:103E00001AF8042C59780432D2B2002940F070829A
:103E1000474931F91220B6F8961101F1C8008242E3
:103E200002DD93F802B015E0C8398A4203DA9B78C4
:103E3000C3F1000B0EE095F8F020012303FA09F31B
:103E400022EA0303049A85F8F03002F5FA73CAF8FF
:103E500004308FE295F8F03043FA09F3D90700F106
:103E60008982BBF1000FCCBF0220012008F06CFE5C
:103E70007B1E132B00F27682DFE813F01400210082
:103E80002E003E0070007700D9003B01A101CF0158
:103E9000080274023E004C007700D9003B01AB00E1
:103EA0000D01710127785F44FA2FA8BFFA2727EA8E
:103EB000E7772046277002F027F801201AE067789C
:103EC0005F44642FA8BF642727EAE777204667701E
:103ED00002F01AF802200DE0E7781C4B5F44642FD3
:103EE000A8BF642727EAE777E7702046196801F042
:103EF000C5FF03203946BDE1617959446429A8BF53
:103F0000642121EAE17161710D2007F097FD0D2F09
:103F100000F02882217959446429A8BF642121EA4C
:103F2000E17121710E20A5E1A8050020DC18002018
:103F3000C00E0020401600204C1000200472010822
:103F4000000F0020683F0020A0050020EC1B00208F
:103F5000400700205C070020A0190020A1795944E7
:103F600081F30801A171052084E1C44B1B681A7814
:103F7000022A20D107EE90BAB8EEE70ADFEDC07A48
:103F800093ED097A80EE270A30EE070AB5EEC00AF3
:103F9000F1EE10FA07D4B4EE670AF1EE10FAC8BFDA
:103FA000B0EE670A01E09FEDB70A83ED090A0F2022
:103FB00007F058FD0AE099785944C829A8BFC821DC
:103FC00021EAE17199700F2007F038FD0F2F00F002
:103FD000C981AA4B1B681A78022A1ED107EE90BA33
:103FE000B8EEE70ADFEDA67A93ED087A80EE270AAD
:103FF00030EE070AB5EEC00AF1EE10FA07D4B4EEBF
:10400000670AF1EE10FAC8BFB0EE670A01E09FED53
:104010009D0A83ED080A12205DE159785944C829A8
:10402000A8BFC82121EAE1715970122022E1934B07
:104030001B681A78022A20D107EE90BAB8EEE70A78
:10404000DFED8F7A93ED0C7A80EE270A30EE070AC7
:10405000B5EEC00AF1EE10FA07D4B4EE670AF1EE3D
:1040600010FAC8BFB0EE670A01E09FED860A83ED43
:104070000C0A102007F0F6FC0AE0197B5944C82905
:10408000A8BFC82121EAE1711973102007F0D6FCFE
:10409000102F00F06781794B1B681A78022A1ED115
:1040A00007EE90BAB8EEE70ADFED757A93ED0B7A7A
:1040B00080EE270A30EE070AB5EEC00AF1EE10FADC
:1040C00007D4B4EE670AF1EE10FAC8BFB0EE670A83
:1040D00001E09FED6C0A83ED0B0A1320FBE0D97A17
:1040E0005944C829A8BFC82121EAE171D972132017
:1040F000C0E0624B1B681A78022A22D107EE90BA00
:10410000B8EEE70ADFED607A80EE270AD3ED0F7A8A
:1041100030EE270AB5EEC00AF1EE10FA09D4DFED51
:10412000587AB4EE670AF1EE10FAC8BFB0EE670A2B
:1041300001E09FED540A83ED0F0A112007F092FC75
:104140000AE0997D5944C829A8BFC82121EAE17134
:104150009975112007F072FC112F00F00381474B75
:104160001B681A78022A20D107EE90BAB8EEE70A47
:10417000DFED457A80EE270AD3ED0E7A30EE270A7E
:10418000B5EEC00AF1EE10FA09D4DFED3D7AB4EED7
:10419000670AF1EE10FAC8BFB0EE670A01E09FEDC2
:1041A000390A83ED0E0A142095E0597D5944C82937
:1041B000A8BFC82121EAE171597514205AE02F4B9C
:1041C0001B681A78022A1ED107EE90BAB8EEE70AE9
:1041D000DFED2B7A93ED0A7A80EE270A30EE070A9C
:1041E000B5EEC00AF1EE10FA07D4B4EE670AF1EEAC
:1041F00010FAC8BFB0EE670A01E09FED220A83ED16
:104200000A0A092067E0D9785944C829A8BFC821FB
:1042100021EAE171D97009202CE0184B1B681A784B
:10422000022A1ED107EE90BAB8EEE70ADFED147A43
:1042300093ED0D7A80EE270A30EE070AB5EEC00A3C
:10424000F1EE10FA07D4B4EE670AF1EE10FAC8BF27
:10425000B0EE670A01E09FED0B0A83ED0D0A0A201C
:1042600039E0597B5944C829A8BFC82121EAE17126
:1042700059730A2007F0E2FB74E000BFF01B002036
:104280000000C8420000000000007A44B24B1B68E6
:104290001A78022A22D107EE90BAB8EEE70ADFEDCB
:1042A000AF7A80EE270AD3ED107A30EE270AB5EE0A
:1042B000C00AF1EE10FA09D4DFEDA97AB4EE670A6C
:1042C000F1EE10FAC8BFB0EE670A01E09FEDA50A53
:1042D00083ED100A0B2007F0C5FB43E0D97D59445C
:1042E000C829A8BFC82121EAE171D9750B20C1E70F
:1042F000012937D199789C4B33F91220B2F5617FAF
:1043000005DB40F633039A42B8BF134601E04FF491
:1043100061730C2F26D14FF4966292FBF1F2A3F554
:10432000617393FBF2F395F8F1205FFA83FB5A4532
:1043300018D0BBF1030F8D4994BF5A46022281F871
:10434000F1208B4907FB026202F2EE620A6008F07C
:1043500031FD3846594607F071FB0BF10100C0B240
:1043600008F0F2FB95F8F020012303FA09F3134358
:1043700085F8F03009F10109B9F1040F0AF10C0ACE
:104380007FF41EADC9E47B490B68DA0511D57A4B81
:10439000DB7873B1DAF800309B070AD5B9F8003042
:1043A00013F001040AD102F021F8012008F0E4FB27
:1043B00004E0012008F0F0FB012300E000233A684C
:1043C00054070DD563B1012008F0E6FBB9F80030C1
:1043D000980708D402F00AF8022008F0CDFB02E0AA
:1043E000022008F0D9FBB9F80040644B14F0030F29
:1043F0004FF4004214BF5A831A83DAF8003099064A
:1044000008D43B681A0540F1D3804FF4807008F05F
:10441000B3FBD1E05A4B1B789B0766D5594B1B78F1
:10442000042B62D93B6813F4007A04F010040DD019
:10443000002C4ED1102008F09FFB202008F0ACFB90
:104440005148011D04F0F6FF02223EE0A4B234B14F
:10445000102008F0A1FB4D4B012483F800A03B681D
:1044600058052AD54A4B1B685A894A4BB3F90010A4
:104470000029B8BF4942914209DAB3F90230002B52
:10448000B8BF5B429342ACBF0023012300E000238E
:104490009BB1B9F8003099061CD4202008F06CFBC1
:1044A0003D483E4B011D1A685B684360026004F0A2
:1044B000C1FF364B01241C700CE0B9F800309A069D
:1044C00008D5202008F068FB0022304B01241A7028
:1044D00000E0002495F8F230A3B90E2008F012FB9A
:1044E000224B012283F8F2200CE014F0300F88D028
:1044F000102008F051FB202008F04EFB234B002237
:104500001A7002E0002C3FF47CAF002213462448CE
:10451000244C0021195224481952244804EB020E5D
:1045200019520020CEF80000CEF80410CEF8080092
:1045300004F1280E5034964414440233042BCEF870
:104540000000CEF80410CEF8080020606160A06082
:1045500002F11402DBD154E7F01B002000007A4482
:104560000000C84200000000C00E0020DC1800203F
:10457000000F0020A8050020EC0F0020000C0240D6
:104580003D0700203C070020F81B00200C1C0020E9
:10459000F40E0020E40E0020041C002078150020FA
:1045A0003C160020D0190020F80E0020FC0E002040
:1045B0004FF4807008F0F0FA7379082B01D00E2BBD
:1045C00002D1402008F0E8FA444A13685B0540F144
:1045D000828096F8143223B998F8003013F0040F53
:1045E00002E03B6813F4002F0AD0002385F86C31F9
:1045F0003C2006F05DF800286DD008F075FBF7E769
:104600000DF0DAF80CF05AFE65E0B9F1000F03D0B6
:10461000BBF17E0F3FF41EABBBF1970F05D1304BC2
:104620004FF4C8721A80FFF717BBBBF1A70F06D172
:104630002C4B1A7842F004021A70FFF70DBB0022CF
:10464000BBF1BB0F079201D1022304E0BBF1B70F0E
:1046500004D14FF6FE73ADF81E3021E0BBF1BE0F62
:1046600001D1022305E0BBF1BD0F7FF4F5AA4FF69F
:10467000FE73ADF81C3013E0012002E0022000E0E0
:1046800003205FFA80F909F1FF3386F8EC3606F073
:10469000D9FA04F077FF484608F056FAFFF7DCBA7B
:1046A0003B68BDF81C10B3F858200A44A3F8582002
:1046B000BDF81E10B3F85A200A44A3F85A2006F099
:1046C000C1FA04F05FFF012008F03EFA002385F8EC
:1046D000B630FFF7C1BA09B0BDE8F08FA8050020D9
:1046E000E41A00203D070020CB4B2DE9F04FB3F931
:1046F0000600CA4BD3F800E02DED028BBEF80A305D
:10470000984291B00FDBB0F5FA6F9EF8077007DAA8
:10471000C21A5743A3F5FA6397FBF3F7643703E034
:10472000C7F1640700E06427BD4BB3F896210492FB
:10473000BC4A93F95E31D2F800C09BB200210593C8
:1047400064460A46B44B049DCB5E03935B1B03F2A5
:10475000F31640F2E635AE4203D8002BB8BF5B42F9
:1047600001E04FF4FA73022A4FF06406AE4DDFF811
:10477000C0922DD09CF81181B8F1000F04D04345B0
:10478000CCBFC8EB0303002393FBF6F86FF0630B79
:1047900035F818A00BFB083B08F1010835F9188023
:1047A0000FFA8AF5C5EB080505FB0BF595FBF6F549
:1047B000554429F801500EEB02052D796B439B4DB2
:1047C00093FBF5F364339BB27B4393FBF6F62FE048
:1047D0009CF81281B8F1000F04D04345CCBFC8EB60
:1047E0000303002393FBF6F66FF0630A05EB46081C
:1047F0000AFB063B05EB4606B8F90E80B6F91050E9
:10480000059EC8EB050505FB0BFB9BFBFAFBC8EB04
:104810000B0808FB06F8A9F804809EF8065083EA06
:10482000E376A6EBE3766E43804D96FBF5F66436B1
:104830000CEB02087C4B98F8019003F11C054FF03B
:10484000640806FB09F999FBF8F902F8059094F859
:104850000B9003F11F0506FB09F999FBF8F902F823
:10486000059094F8159003F1220506FB09F6022A3B
:1048700096FBF8F656551D4616BF253383F827805C
:10488000D754049E039BB342694E02DA735A5B42CB
:1048900073520231062902F1010204F101047FF48E
:1048A00051AF5F4CB4F89831984205DBB0F5FA6F20
:1048B000A8BF4FF4FA6000E01846C01A4FF47A72AD
:1048C0005043C3F5FA63B0FBF3F34FF0640E93FB70
:1048D000FEF205EB42016FF0630000FB023305EBD3
:1048E0004202098DB2F92A00514F0AB2821A53438B
:1048F00093FBFEFE4F4B1B887144F180590636D561
:104900004D4BDFED4E7A1A88474BB3F84030D31A3F
:104910001BB208EE903AF8EEE88A68EEA78AB0EE8D
:10492000680A01F0C5FFB0EE408AB0EE680A01F0F7
:104930005FFFB7F90220B7F9003006EE902A07EEC4
:10494000903AF8EEE66AF8EEE77A20EE667AA7EE9D
:10495000887A67EE807ABDEEC77AE6EE887A17EE3F
:10496000103AFDEEE77A3B8017EE903A7B80344BAD
:104970001A6812F0020F9A4600F09680314B6A6C6A
:104980001B68294F9A1A45F207218A4240F38C800E
:104990007B640CF05DFC2C4BDFF8B8801A78032A9E
:1049A0009946B8F8003022D10A2B2CD900232820B0
:1049B00089F8003001F0F9FA0CF04AFCB7F8480029
:1049C00007F0D2FF214B22491B68DA7890FBF2F006
:1049D000421C082A28BF08220A7059791B7992B212
:1049E00051435A43A7F84A10A7F84C200BE00A2B72
:1049F00009D80323164A89F8003000231370A7F85A
:104A00004A30A7F84C3099F800200F4B012A2DD0DE
:104A100022D3022A3ED047E0C00E0020000F002023
:104A2000A007002060070020501A00200CFEFFFFA6
:104A3000E40E00205C070020F00E002035FA8E3CCA
:104A4000A805002038160020BC1500205C150020A9
:104A50000C00002060150020B5F84A20B8F800309E
:104A60009A4221DD012389F8003011E0B8F80020D6
:104A7000B5F84C10914202DD02221A7011E09849FB
:104A8000B1F84A1001318A4202DD00221A700BE0AF
:104A9000082007E0B5F84C30B8F8002001339A42FE
:104AA000E0DC072008F02EF8DAF800703A056FD540
:104AB0008C4B296D1A688A4BC1EB020A45F207211B
:104AC0008A4565DD1A65884AB6F90690D2F80080F5
:104AD000B4F84E1198F80A20844E012AA9F57A7983
:104AE00003D03ED3022A1BD03DE0596D082291FB32
:104AF000F2F0091A91FBF2F20020A3F8580092B2EA
:104B00005965B8F8080040F6E4435343C0EB13334B
:104B10004FF47A725343B8F9062093FBF2F321E085
:104B2000734BB8F808B01B78C6F800B05B071AD50D
:104B300070480DF083F920B917F0100F18BF4FF02F
:104B4000000909FB09F2322392FBF3F39944B8F907
:104B500006304FF47A7203FB09F393FBF2F35B44E4
:104B600000E0002333603368634AD5E9180103FB92
:104B70000AFA4FF47A739AFBF3FA10EB0A0041EB4E
:104B8000EA710023C5E918010EF0E0FB5B4B1860E9
:104B90005B4B1A6812F4805F984626D03E0621D5FA
:104BA000584B1B7898071DD5574B1978042919D9EC
:104BB0000023564E05229A551E44981C0A27122B94
:104BC000C2B2777004D0B1EB520F0346F1D800E0C7
:104BD00014222A44322382F86730FF2382F8683097
:104BE0000F2000E00A2007F08DFFD5F880703C4EC2
:104BF000002F46D0464BD6F8842019688A429A4640
:104C00003FD896F88830B6F88A907A68ABB9012315
:104C100086F8883012F80920CAB186F88C3007F07F
:104C200031FFB9F1000F12D13B78053B012B0ED8B3
:104C300001F095F9C6F8900009E0002386F8883065
:104C400012F809201AB186F88C3007F01BFFB5F86E
:104C50008A107A68224B525CFE2A03D10022A3F804
:104C60008A200EE0FF2A02D107F032FF09E0DAF8CD
:104C700000000A2616FB02020131C3F88420A3F8C3
:104C80008A101B4E3378590704D5224B4FF48042CB
:104C90005A8354E0D8F80020D2075CBF43F00103E8
:104CA0003370184B1B781F0703D4337823F00103AC
:104CB0003370B5F894301BB1174B1B68980705D4B7
:104CC000164B1B88003318BF012300E001233BB3C0
:104CD000022385F88C30337823F00103337025E00C
:104CE000501A0020381600205C150020681500209E
:104CF0004116002028090020407E05006C15002088
:104D00004C1000203D0700203C070020B81A00206E
:104D1000683F0020000C024040070020181C0020C3
:104D20003278D10758BF022385F88C3001F017F98B
:104D3000D5F89830C01A002801DB07F0A3FE0CF06C
:104D40003BFDC04B1A789946002A78D0D5F89C30A4
:104D5000002B00F0A386D5F89C00BB4C01F0B5F900
:104D6000002800F09B86D4F89C0001F0A9F90928DE
:104D700001D03F2855D14FF00008D5F8A060B34FBF
:104D800044462EB1B248396832460FF087F810B960
:104D9000B84604B93C46AF4B10379F42F1D304B339
:104DA000D4F800E0D8F800C0D5F8A030A6481EF826
:104DB00003701CF80310B94213D15A1C59B92D2B9A
:104DC00009D8C0F8A02003440244202783F8A47027
:104DD00082F8A41005E02B44C5F8A02083F8A47045
:104DE000E2E7D5F8A0300BB1444510D09A4807F05F
:104DF0004DFF444507D854F8100B07F047FF092032
:104E000007F03DFFF5E7954807F040FF0026D5F88D
:104E1000A0309E429FD28E4B985D07F030FF013646
:104E2000F5E7D4F8A030002B40F06486042840F069
:104E30005B8604F1A4000DF03BF800F02FBE884F14
:104E400097F84A30012B40F02486DFF83482854BF6
:104E50003A68C8F800701A60C346DFF808A25246E4
:104E6000106801F032F9002800F0F185DAF800004E
:104E700001F026F9DBF8003093F84810024619B922
:104E800024283DD1012238E0012904D14D280CBF4E
:104E90000222002231E0022904D13C280CBF032267
:104EA00000222AE003290CD140284FF0000102D94A
:104EB00083F848104CE058711971D9719871042227
:104EC0001BE0042907D1997983F8490080EA01029F
:104ED0009A71052211E005293AD158791979884249
:104EE000987906D950409871481C18710B441A7271
:104EF0002EE090420CBF0622002283F8482027E0D3
:104F00003178594B490723D4232ADAF8001014D1F9
:104F1000012089F800005548C5F89C10C5F86C11AF
:104F20000292019307F0B2FE4C4807F0AFFE019BDE
:104F3000197841F002011970029AD5F870311B7886
:104F4000934205D14A4B4B4A1A604B4B4B4ADA60AD
:104F5000DBF80030DFF828A193F84820062A7FF418
:104F60007CAF93F8490002F065F8002840F06585B1
:104F7000DAF8002092F849304C2B00F0D58400F28A
:104F80008980372B00F01C8521D8292B00F09884CC
:104F900009D8252B00F06F84272B00F07384232B76
:104FA00040F09F8513E12D2B00F09B8407D82B2B1D
:104FB00040F0978507F045FE607100F03BBD332B54
:104FC00000F0EC84352B00F0B78200F08ABD412B55
:104FD00000F0E9840AD83C2B00F055813E2B00F00C
:104FE0004981392B40F07D8500F059BC442B00F0FD
:104FF0001E8547D8432B40F0748507F022FE00231E
:10500000A360607107F032FEA3681843A06007F048
:1050100018FE84F8900107F01FFEA4F8580107F06D
:105020001BFEA4F85A0107F017FEA4F85C0107F074
:1050300013FEA4F8800107F00FFEA4F8820100F02F
:10504000F9BC00BF40160020501A00204072010831
:10505000F41A0020F07301085C76010861760108FB
:10506000241B00201816002041160020917601080C
:10507000FCFF0120EFBEADDE00ED00E00400FA050C
:1050800014160020482B00F08D834A2B00F0D284A8
:1050900000F027BDD02B00F0578356D8CA2B00F064
:1050A000008109D8C82B00F0888000F27E834E2B47
:1050B00000F0478400F015BDCD2B00F0508304D8DC
:1050C000CC2B00F0638200F00CBDCE2B00F05C8393
:1050D000CF2B40F0068507F0BFFD6FF4AF6E00EBFD
:1050E0000E039BB2C62B98BFA4F8960107F0B4FD3F
:1050F000A4F8400107F0B0FDA4F8420107F0ACFDB0
:10510000A4F8440107F0A8FDA4F8D80107F099FD20
:1051100084F8ED0107F095FD07F093FD84F8EE01AA
:1051200007F08FFD84F8850107F08BFD84F892016C
:1051300007F087FDAC4BD3F800A007F08DFD00EB26
:1051400080004000AAF85600A9E3D62B00F06E823A
:105150000AD8D22B1BD0C0F05083D32B27D0D42B0E
:1051600000F0708200F0BDBCEF2B74D007D8D82BB4
:1051700008BF4FF0000B00F0458100F0B2BCF22BED
:1051800000F0B782FA2B00F0098300F0AABC337854
:105190005B0700F14F8407F054FD022884F8EC0609
:1051A00040F2D882914B002283F8EC26D2E207F03D
:1051B00053FDA5F8740100F03DBC92F805A04FEA3C
:1051C0005A0ABAF1120F1FD84FF0000B20E007F077
:1051D00038FD132818D8DFF810B2DBF8003000F1E2
:1051E0001E0203EB820202F1010A029207F029FD7E
:1051F0007F4B029A03F5A87193F808E0864500F00A
:105200007D810C338B42F7D105F04EFA00F012BCD1
:10521000D34507D207F020FD07AB23F81B000BF1A5
:10522000010BF5E700235345724A06DA07A931F866
:10523000131022F813100133F5E70AF1FF3A02EBDD
:105240004A032232934203D0002123F8021FF9E7D8
:105250000122694BA0E2DFF890A1DAF800B007F074
:10526000FBFCABF85A00DAF800A007F0F5FCAAF84E
:105270005800DFE307F0E5FC84F8E00107F0E1FC0B
:1052800084F8DF01D6E3DFF860A1DAF800B007F0B8
:10529000D8FC8BF80000DAF80030187801F081F8BB
:1052A000C8E3514B1A681278022A83469A467DD188
:1052B000DAF80030019307F0C4FC07EE100AF8EEAC
:1052C000477AB2EE048AC7EE887A019B03EB8B0320
:1052D000C3ED087ADAF80030019307F0B2FC07EE6C
:1052E000900AB8EE677ADFED457A019BC7EE277A20
:1052F00003EB8B03C3ED0B7ADAF80030019307F070
:10530000A0FC07EE900AB8EE677ADFED3D7A019BCC
:10531000C7EE277A03EB8B030BF1010BBBF1030FF5
:10532000C3ED0E7AC4D1DAF800300193BBF1070F58
:1053300021D107F086FC07EE100AF8EE477A019BB0
:10534000C7EE887AC3ED117ADAF80030019307F0DE
:1053500078FC07EE100AF8EE477A019BC7EE887AD0
:10536000C3ED127ADAF80030019307F06AFC019B72
:1053700083F84C0014E007F064FC019B5B44587018
:10538000DAF80030019307F05CFC019B5B44D872B3
:10539000DAF80030019307F054FC019B5B44587528
:1053A0000BF1010BBBF10A0FBDD143E3DAF800307A
:1053B000019307F046FC019B5B445870DAF800301B
:1053C000019307F03EFC019B5B44D872DAF8003091
:1053D000019307F036FC019B5B440BF1010BBBF121
:1053E0000A0F5875E2D125E360070020A0070020CE
:1053F000F0730108C61B0020E90600200000C84227
:1054000000007A44DFF874A39FEDD98ADAF80030FF
:10541000019307F021FC07EE100AF8EE477A019B92
:10542000C7EE887A03EB8B03C3ED087ADAF8003015
:10543000019307F011FC07EE100AF8EE477A019B82
:10544000C7EE887A03EB8B03C3ED0B7ADAF80030F2
:10545000019307F001FC07EE100AF8EE477A019B72
:10546000C7EE887A03EB8B030BF1010BBBF1030F43
:10547000C3ED0E7AC6D1DAF800300193BBF1070F05
:1054800021D107F0E9FB07EE100AF8EE477A019BFD
:10549000C7EE887AC3ED117ADAF80030019307F08D
:1054A000DBFB07EE100AF8EE477A019BC7EE887A1D
:1054B000C3ED127ADAF80030019307F0CDFB019BBF
:1054C00083F84C0014E007F0C7FB019B5B44587065
:1054D000DAF80030019307F0BFFB019B5B44D87200
:1054E000DAF80030019307F0B7FB019B5B44587575
:1054F0000BF1010BBBF10A0FBDD19BE21B7853707E
:1055000007F09FFB8AF8010007F09BFB8AF8020076
:1055100007F097FB8AF80300DBF80000954BC5F80D
:10552000A00100217930C5F89C3100F007FD924BB5
:1055300080F0010018707DE207F083FB0B283FF636
:1055400063AE8E4B4FF0060B0BFB00F01B68C830B0
:1055500003EB000B07F075FB03283FF655AE8BF805
:10556000060007F06EFB8BF8010007F06AFB8BF872
:10557000020007F066FB8BF8030007F062FB8BF874
:10558000040007F05EFB8BF8050053E25379092B0A
:105590007FF63AAEDFF8ECA1DAF800B007F051FB85
:1055A0008BF80000DAF800B007F04BFB8BF8010035
:1055B00007F047FBDAF800306428A8BF64201871B0
:1055C00007F03FFBDAF800306428A8BF6420587168
:1055D00007F037FBDAF80030FF28A8BFFF209871EA
:1055E00007F02FFBDAF800B0642828BF64208BF89E
:1055F000070007F026FB8BF80200DAF800B007F08E
:1056000020FB8BF80300DAF800B007F025FBD8F890
:105610000030ABF80A005B790A2B40F20B82DAF813
:1056200000A007F00EFB8AF8080003E2834607F0AB
:1056300013FB534B23F80B000BF1020BBBF1100FC4
:10564000F5D1F7E153790F2B7FF4DEAD07F0F9FACE
:10565000072882463FF6D8ADDFF820B1DBF80030EE
:10566000019307F0F9FA0E22019B02FB0AFA534458
:10567000A3F81901DBF80030019307F0EDFA019B64
:105680005344A3F81B01DBF80030019307F0E4FA60
:10569000019B5344A3F81D01DBF80030019307F090
:1056A000D0FA019B534483F81F01DBF800300193CB
:1056B00007F0C7FA019B534483F82001DBF8003060
:1056C000019307F0BEFA019B534483F82101DBF8F4
:1056D0000030019307F0B5FA019BDBF800B05344AA
:1056E00083F8220107F0C2FA0BEB0A03C3F8230187
:1056F000A0E107F0A6FA0F2882463FF685ADCAEB77
:10570000CA0A07F09EFA04EB0A0303F1D00A83F8F1
:10571000D00007F096FA8AF8010007F092FA8AF8AA
:10572000020007F08EFA8AF8030007F08AFA8AF876
:10573000040007F086FA8AF8050007F082FA8AF872
:10574000060000F0A4FD75E13378580700F172817E
:105750000AF0E4FF05F076FA03F014FF6AE133780B
:10576000590700F167814FF4C873A5F8943061E1DF
:1057700000007A44E00800200000002060070020BC
:105780001E100020000F002033785A0700F15281CC
:10579000B44B1A7842F004021A704BE133785B077D
:1057A000D8D59EE106F03CF844E107F04AFAAD4B4B
:1057B0001A7810B142F0020201E022F002021A70DF
:1057C00007F03FFAA84BDFF8B4A2187007F04EFAC2
:1057D000CAF8000007F04AFACAF8040007F03CFAD9
:1057E000A24B188007F038FAA14B188095F8A43125
:1057F00043F0020385F8A4311CE107F022FA02907D
:1058000007F034FA019007F031FA834607F02EFAD8
:10581000824607F021FA07F01FFA07F012FA029AFF
:10582000019B9AB91020C5F8A831C5F8ACB107F0B2
:10583000B3F98C4B1A7842F001021A70BAF1000FDA
:1058400000F0F8808B4BC3F8B0A1F3E0102A40F0D1
:10585000F180C5F8B431C5F8B8B1BAF1000F02D083
:10586000844BC3F8B0A184480223011D85F8BC31E4
:1058700003F0E0FDDEE0A06007F0F8F9A36818434C
:10588000A060D7E007F0E8F9A4F8580107F0E4F9C0
:10589000A4F85A0107F0E0F9A4F85C01CAE007F0A7
:1058A000D0F984F87A0107F0CCF984F87E0107F08A
:1058B000C8F984F87D0107F0C4F984F87F01B9E0E4
:1058C00007F0CAF9A4F8800107F0C6F9A4F882012C
:1058D00007F0B7F984F8840107F0BEF9A4F886014F
:1058E000A8E007F0AEF984F8900107F0B5F9A4F844
:1058F0009A0107F0B1F9A4F8960107F0ADF9A4F800
:10590000980107F09EF9DAF8003084F891015B798C
:10591000082B40F28F8007F09FF9A4F89C0107F054
:105920009BF9A4F89E0185E007F08BF984F8D60175
:1059300007F087F984F8D70107F08EF9A4F8D801A9
:1059400078E052790323B2FBF3F3122B3FF65CAC01
:10595000DFF82CA14FF0000B9B456BD2019307F0B1
:1059600070F98AF8A00107F077F940F2ED22904231
:10597000019B05DD40F6CA029042A8BF104601E037
:1059800040F2EE20A0F2EE20192290FBF2F08AF80D
:10599000A1010BF1010B0AF1020ADDE707F051F951
:1059A00084F8920146E0834607F04BF904EB0B03C1
:1059B0000BF1010BBBF1080F83F88801F4D139E03A
:1059C00053794FF0070BB3FBFBFBCBEBCB029B1ADE
:1059D00013F0FF0F7FF418AC5FFA8BFBBBF1000FE5
:1059E00028D007F02EF9C3B258B2019307F09CF902
:1059F0000BF1FF3B5FFA8BFB8246019B00283FF4D3
:105A000003AC037007F028F9AAF8020007F019F9AF
:105A10008AF8040007F015F98AF8050007F011F973
:105A20008AF8070007F00DF98AF80600D6E7012387
:105A300085F8BD31002007F0EFF8D8F800309879EC
:105A400007F0BAF8D8F80030002283F8482095F81B
:105A5000BD31F3B1386800F029FB98B9322000F06D
:105A6000A4FAF7E73D0700203C070020721500204C
:105A700070150020501A0020041C0020781500200A
:105A8000A00700200CF074F900F0E8FA5F4B604AC0
:105A9000DA60604B4C379F427FF4D2A95E4B1B68A3
:105AA000980616D55D4BD5F8C0211B689A1A002AB6
:105AB0000FDB5B4A1278042A0BD95A4A03F51233DA
:105AC00003F5F873C2F8C031574B5A6982F40042AB
:105AD0005A61564B9B68002B00F0938054489847BE
