:020000040800F2
:10000000B005002089010008D14F0108F14F010817
:10001000CF4F0108CD4F0108CB4F01080000000071
:10002000000000000000000000000000C94F0108AF
:10003000C74F010800000000C54F0108D34F010859
:10004000E5010008E5010008E5010008E5010008F8
:10005000E5010008E5010008E5010008E5010008E8
:10006000E5010008E5010008E5010008E5010008D8
:10007000E5010008554D0108194C0108E50100088B
:10008000E5010008E5010008E5010008E5010008B8
:10009000E5010008E5010008E5010008E5010008A8
:1000A000194B0108494B0108E5010008594B0108AB
:1000B000394B0108E5010008294B0108BB4D010837
:1000C000A94D0108B54D0108A34D0108E50100083F
:1000D000E5010008B14C0108E50100080D4C0108DC
:1000E000E14F0108E50100080D500108E501000895
:1000F000E5010008E5010008E5010008E501000848
:10010000E5010008E5010008E5010008E501000837
:10011000E5010008E5010008E5010008E501000827
:10012000E5010008E5010008E5010008E501000817
:10013000E5010008E5010008E5010008E501000807
:10014000E5010008E5010008E50100089D400108FF
:10015000E5010008754B0108BD4C0108694B010819
:10016000AF4D01089D4D0108E5010008E5010008BB
:10017000E5010008E5010008E5010008E5010008C7
:10018000E5010008E5010008002100F004B80F4B6C
:100190005B58435004310E480E4B42189A42FFF40C
:1001A000F6AF0D4A00F003B8002342F8043B0B4BB6
:1001B0009A42FFF4F9AF0A48016841F47001016006
:1001C00014F082FC00F010F87047000068C50108C8
:1001D00000000020B0010020B00500206451002084
:1001E00088ED00E0FFF7FEBF2DE980489BB002F0EC
:1001F00079F9BF4CBF4DDFF814B301222A70627841
:10020000DBF8009000232370A0462AB16268C2EB9D
:1002100009029A42A8BF6370A668330740F179814A
:10022000B34BDB681B7A062B00F24F81DFE813F03B
:10023000070007003100E800170144014401237C56
:10024000AB4A002B00F04281002313745369577CA2
:1002500092F818C093F800E0022308EB030003F1C2
:10026000010A427EA2493A4102F00F0272450CD2C5
:100270000B2A0AD88A44407E9AF819A001EB820220
:1002800000EA0C000AEB0020D0620233102BE4D10C
:1002900019E194F85C20964B002A00F0AF8093F8A7
:1002A000AA10002283F85C2093F8A92001F007002F
:1002B00042EA00221A6693F8AB2002F03F004001A8
:1002C00040EAD101596693F8AC10890041EA9211D5
:1002D00093F8AD2002F0010041EA8021996693F87D
:1002E000AE1001F00F00C00140EA5202DA6693F846
:1002F000AF2002F07F00000140EA1111196793F866
:10030000B010490041EAD21293F8B11001F0030095
:1003100042EA40225A6793F8B22002F01F0080019F
:1003200040EA9101996793F8B310C90041EA52126B
:1003300093F8B510DA6793F8B42001F0070042EAA9
:100340000022C3F8802093F8B62002F03F0040015D
:1003500040EAD101C3F8841093F8B710890041EA4C
:10036000921193F8B82002F0010041EA8021C3F80D
:10037000881093F8B91001F00F00C00140EA520252
:10038000C3F88C2093F8BA2002F07F00000140EA05
:100390001111C3F8901093F8BB10490041EAD21232
:1003A00093F8BC1001F0030042EA4022C3F8942005
:1003B00093F8BD2002F01F00800140EA9101C3F8CC
:1003C000981093F8BE10C90041EA5212C3F89C205D
:1003D00093F8BF20D7074CBF40F21471AD219007AE
:1003E000C3F8A0104CBF40F21473AD2312F0080FF5
:1003F000C4F8A4300CBF0123032367E0134665E073
:1004000094F8C1303A4A0021002B5FD082F8C11025
:1004100092F8C320012A03D0812A1ED1032300E0D1
:10042000134694F8E720102A03D9314A102182F8A4
:10043000E71094F8E70030490022D7B2874201F173
:10044000020143D211F8017C11F802EC47EA0E2EAA
:100450002A4F47F822E00132EFE70B4636E094F8E6
:100460002821234B8AB3002283F8282193F82921DD
:10047000A82A2AD193F83C313BBB08EB43029FEDFD
:10048000207A92F82C1192F82D2102EB012207EE2E
:10049000902AF8EEE77A1B4AC7EE877A9FED1A7A20
:1004A00077EEC77AFCEEE77A17EE901A42F823103F
:1004B0000133082BE1D106E094F8603133B10C4BE5
:1004C000002283F86021012300E0002313F00102E1
:1004D0001ED083F002030122C3F340032270637035
:1004E000BBB1F10515D500232B7007F0FBFB10E025
:1004F000B0050020000000207506002098060020AE
:10050000CDCCCC40F00600200080BB435C1900201D
:100510002A7072040DD594F8613123B1A14B0022E9
:1005200083F86121012323701BB1F30501D507F086
:10053000D9FB44F2080333400BB123780BB9B7045D
:1005400003D509F5C333A0336360F60710D594F8DB
:10055000621194F86321934B8A4207D001225A70AA
:1005600009F5C332A0325A6083F8631163782B70A7
:1005700023783BB98B4BD3F86401C0EB0900C0432F
:10058000C00F00E0012078B304F0D2FD012384F80D
:10059000683194F86931834E002B00F0EF82D6F871
:1005A0006C31580740F1EA82D6F87031190703D44C
:1005B00008200AF03FFFE1E2B6F8747107F008077F
:1005C000BFB2002F40F0DA8208200AF023FFD6F8ED
:1005D0007C31C6F87831B6F88831A6F88031C6F893
:1005E000A871C6F8AC71C9E2D4F8B0716D4E7B1C2D
:1005F000012FC4F8B03100F09780022F00F0318154
:10060000002F40F03881D6F86C311A0740F1338161
:10061000D6F8B431C3EB0903002BC0F22C8109F5E5
:10062000C333A033C6F8B43106F5DC70B8475E4B6F
:1006300006F5DC7001461A7808F047FF96F8BE21EF
:1006400012F0040F06F5DC7018D0D6F8B431C6F8F5
:10065000C031544B03F5E27139440026A1F87661AC
:1006600003F69416C15BB95303F69A16B9530237D1
:10067000062FEED122F0040283F8BE2194F8A029BF
:10068000484BA2B1B3F8B811B3F83A238A1AA3F8C9
:10069000B821B3F8BA11B3F83C238A1AA3F8BA21E7
:1006A000B3F8BC11B3F83E238A1AA3F8BC21D4F8DE
:1006B000C0313C4A002B00F0DE80D2F8B4113B4E32
:1006C000CB1AB34202F69A1102F6941619D8384B97
:1006D0005A6982F480425A610023C25A36F903E013
:1006E00017B2BE45C4BFDFF8D4E023F80E2031F9BD
:1006F00003E0BE45BCBF2F4FDA530233062BECD1CB
:10070000B9E00023C2F8C031F75EC85E2A4A384417
:1007100002271A443B4490FBF7F0062BA2F876011F
:10072000F2D114F0C7F9A6E0D6F86C315B0740F1BE
:10073000A280D6F8A439C3EB0903002BC0F29B803A
:1007400096F8A839C6F8A409012B13D002D3022BBE
:1007500036D07EE0D6F8B4399847D6F8B8399847FD
:10076000D6F8A439B6F8AE2986F8A8791344C6F8A5
:10077000A4396EE0D6F8BC399847D6F8B039984716
:10078000D6F8A439B6F8AC291344C6F8A43906F64D
:10079000C410D6F8C03906F6C8119847022386F867
:1007A000A83956E0B0050020711900207FC3C901A7
:1007B000000C02404A0F002074070020440F002064
:1007C000D6F8D419D6F8D0E991F80090D4F8DC190D
:1007D00086F8A8090EF101034B4508BF86F8D879C1
:1007E000D6F8CCC9D6F8C42901F1010608BF0346E2
:1007F000032E04D1B848012680F8E069002608EBF2
:100800008101B548C1F8E42994F8E019C4F8DC691D
:1008100081B1D0F8E429D0F8E819D0F8EC098A427F
:1008200002DD16460A4631468142A8BF0146914282
:10083000A8BF0A4608EB8E01C4F8D039C1F8F029E8
:1008400008EB8301D1F8F019C1EB0C0C6244C4F839
:10085000CC29D4F8A46906F080FD3044C4F8A4097A
:1008600009E0D6F86C315F0705D596F8D83913B191
:1008700048460AF027FFD4F8B031032B03DD964B2E
:100880000022C3F8B021A368180640F17781924B8B
:10089000D3F8B03ABBB994F8B43A013B052B00F257
:1008A0006D81DFE813F017001700170017005801DB
:1008B0003301894BD3F8B00A06F0C8FE0BF074FF81
:1008C00008B113F03FF8D8F8B00A06F0C4FE0028CB
:1008D000EFD1E0E7D4F8D42A7F4E1278012A05D070
:1008E000C0F00281022A00F0FF8047E1D6F8B00A8A
:1008F00006F097FE002800F0418196F8B43A013BDB
:10090000032B00F23B81DFE803F00246568A734B6B
:10091000D4F8CC2A1968704B8A1AC72A40F22E8163
:10092000D3F8C80A042834D86D4AC3F8CC1A0C2668
:1009300006FB0020D3F8B06A90F82170D6F808C002
:100940000023104650F8231061455FFA83FE04D05F
:100950000133082BF6D1002300E07346BB4205D0DB
:10096000304652F8271006F06CFE07E194F8B53ACD
:100970000C2202FB0300476A17F8011B19B130462D
:1009800006F07CFEF8E7D4F8C83A0133C4F8C83A58
:10099000F4E00220F0E0524B94F8B52AD4F8B00A03
:1009A0000C2101FB023292F8212053F8221006F0AC
:1009B00048FE0320E0E094F8D03A1BB9464B0122F0
:1009C00083F8D02A94F8D03A434E012B17D1D6F8A9
:1009D000C83A072B0DD8424AD6F8B00A134493F808
:1009E0005C1006F04BFED6F8C83A0133C6F8C83A98
:1009F00005E00023C6F8C83A032386F8D03A94F8F5
:100A0000D02A354B022A40F2B980D3F8D82A002ADE
:100A100000F0B480002283F8D02A0420ACE0D4F89F
:100A2000D42A2D4B9278002A6ED093F8D02A12B98E
:100A3000012283F8D02A94F8D03A274E012B25D1F1
:100A4000D6F8D83A274A9342D6F8C83A0FD8E22BBC
:100A500006D8234AD6F8B00A134493F864100EE07F
:100A60000023C4F8C83A022384F8D03A0EE0DB2B06
:100A7000F6D81B4AD6F8B00A134493F8471106F08B
:100A8000FDFDD6F8C83A0133C6F8C83A94F8D03A12
:100A9000114E022B1AD1D6F8C83A0F2B13D8D6F81C
:100AA000D42A0F495278D6F8B00A02EB02120A444F
:100AB000134493F8241206F0E1FDD6F8C83A013346
:100AC000C6F8C83A02E0032386F8D03A94F8D03A40
:100AD000022B53D918E000BFB00500204851002078
:100AE000A48301086F110100012B47D88B4B96F8A6
:100AF000B52AD6F8B00A0C2101FB023292F8212067
:100B000053F8221006F09DFD052035E0D4F8BC2AEC
:100B1000834B0132C4F8BC2AD4F8D42AD2785AB113
:100B200093F8B52A0132D2B20521B2FBF1F101EB03
:100B30008101521A83F8B52A7A4B1B68C4F8C03A6F
:100B4000002384F8DC3A94F8BE3123F0020384F8E1
:100B5000BE31012010E0734BD4F8C02A1968704BE5
:100B60008A1A40F6C4118A4208D9D3F86C2122F0BF
:100B70002002C3F86C2106200EF050F906F0EDFBC0
:100B800094F8D331CBF80000D4F8E06A002B3AD0C7
:100B9000654B1B78590736D5614B13A8D3F8F03A4B
:100BA00098479DF84C3033B3D4F8F82ADBF800307E
:100BB0005B4ED4F8FC7A1344C4F8E03A06F5306092
:100BC000D4F8E83A984706F53060014694F8062BC9
:100BD00008F07BFC55490B8806F53069002B00F0C6
:100BE000BA80D6F8083B1B78002008EE103A06F6CB
:100BF0000C36824634E04E4B1B689E1BB6F5FA7FDE
:100C0000D2D501F01BBC861B002ECDDA01F016BC3C
:100C100039F90AC05EF8002062444EF800203269BB
:100C200005EE90CA0132012AF8EEE57A326123D14D
:100C30000022C6ED017AC6ED007AB2603D4A4FF05F
:100C4000000E012B29F80AE02AF802E02FD00AF161
:100C5000020ABAF1060F00F1040006F114066FD083
:100C6000324ADFF8D8E01388B3F57A7FD0D100227A
:100C70004EF800203261CBE796ED006A05EE902A2F
:100C800077EEC66AB8EEE57A86EE877A36EE077AB0
:100C900037EEC76AD6ED027A86ED017AE6EE867AFD
:100CA00086ED007AC6ED037AC6ED027AC6E7D6F87D
:100CB00010E0BEF1010F0ADD0EF1FF3E00EE10EA7A
:100CC000D6ED037AB8EEC00A87EE800A01E09FED08
:100CD0001A0A08900691079315F09AFD18EE102A4B
:100CE00008980699079B4AB1F8EEC87AB4EEE70A6D
:100CF000F1EE10FA02DD4FF47A732BE0DFF83CE0FE
:100D000050F80EC04FF47A7E0CF5FA7C9CFBFEFE88
:100D1000DFF820C02CF80AE099E700BFA48301089F
:100D2000B0050020485100207219002068190020E9
:100D30005C1900200411002000000000F8100020C1
:100D4000012B06D11846069107930AF0DBFA079BA0
:100D50000699013B0B800023C54E39F8031006F6B7
:100D600054329A5A8A1A29F803200233062BF3D1F7
:100D7000D6F86C3113F0020300F0BF82D6F8603B66
:100D800006F668309847BB4B06F668301A7801467D
:100D900008F09BFBB6F86E3B06F6683A002B43D092
:100DA0000022D6F8700B1346B8F86E1BDFF8D0E2BD
:100DB0003AF902C0AE4EB1F5C87F04BF00214EF82B
:100DC00003105EF8031061444EF803100433002151
:100DD0000C2B2AF80210815202F10202E4D1B6F87B
:100DE0006E3B012B1BD1D6F8743B4FF4C872C8334D
:100DF00093FBF2F30380D6F8783BC83393FBF2F30E
:100E00004380D6F87C3BC83393FBF2F26B88D21A4E
:100E10008280A7F85810A7F85A1013F04BFEB4F8C8
:100E20006E3B013BA4F86E3BA268914B52077BD509
:100E3000B3F8802B322A13D1D3F8702B1188A3F882
:100E4000821B51889288A3F8862BB7F85820A3F804
:100E5000882BB7F85A20A3F8841BA3F88A2B01E04B
:100E6000002A40D00022D4F8701B1046B8F8803B0E
:100E7000DFF810E23AF902C07D4E322B04BF0023A6
:100E80004EF800305EF8003063444EF80030043015
:100E900000230C282AF802309E468B5202F10202EF
:100EA000E4D1B6F8803B012B18D186F8993B86F83F
:100EB00098EB06910AF026FA0699B6F8823B0B8069
:100EC000B6F8843B4B80B6F8863B8B80B6F8883BFF
:100ED000A7F85830B6F88A3BA7F85A30B4F8803BE8
:100EE000013BA4F8803B94F89A2B614BE2B1D3F814
:100EF0008C1BD3F8700B3226002291FBF6F183F89D
:100F00009A2B0180D3F8901B91FBF6F14180D3F826
:100F1000943B93FBF6F66B88F61A8680A7F8582068
:100F2000A7F85A2013F0C6FDD4F8703BB4F8681B3C
:100F30001A888A1AA4F8682B5A88B4F86A1B8A1A85
:100F4000A4F86A2B9B88B4F86C2BD31AA4F86C3BDA
:100F500006F003FAD4F89C3B474AD4F8A47BC4F8C3
:100F60009C0BC31A0AEE103A114691ED006A3E78C6
:100F7000B8EE4A9A002329EE066A0832194639F972
:100F800003E0DFF8048107EE90EAF8EEE77A0DF16E
:100F9000340C67EE867A0CEB4300C0ED007AE6B1C4
:100FA00005EE906AB8EEE57AF7EE006A86EE877A8B
:100FB0003AF9030007EE900AF8EEE77A67EE877ACF
:100FC00036EEC77AD2ED006AE6EE877AC2ED007A95
:100FD000FDEEE77A17EE900A01E03AF8030028F8F0
:100FE000030038F803000233062B10FB001102F156
:100FF0000402C4D16B882148642671435B4391FB92
:10100000F3F6493EB6B20DA90FF066FE3B2E97ED02
:10101000017A1A4E12D9B4F9C81BD6ED020A144B44
:1010200094F8BE2107EE901AF8EEE77AF4EEE70A9C
:10103000F1EE10FA2ADD42F0080229E0F7EE007A1C
:1010400037EE276A324687EE866A002338F903C0F6
:101050000233062B07EE90CAD2ED006AF8EEE77A6B
:10106000E6EE877A67EE866AE2EC016AEED1D2E7B5
:10107000B005002058190020501100206C110020EC
:10108000241100203C1100206411002022F00802ED
:1010900096ED010A83F8BE2115F014FADFF8B48347
:1010A00096ED027AD6ED017A88ED000AF0EE408ADC
:1010B00027EE070A96ED008ADFEDDC9AA7EEA70A75
:1010C00015F0A6FBB1EE488AF0EE400AB0EE480AF1
:1010D00015F0F8F9B0EE408A88ED010A28EEA90A69
:1010E00015F0F0F828EE290AA4F8D40B15F0EAF868
:1010F000D4F86C31A4F8D60B1E0729D508F10C00E2
:101100000DA90FF0E9FD97ED027AF7EE007A37EEC0
:10111000276A08F10C0287EE866A0023C44E06F5A2
:10112000DC71595E0233062B07EE901AD2ED006A8D
:10113000F8EEE77AE6EE877A67EE866AE2EC016A15
:10114000ECD106F6D83006F02DFDA6F8E40B2EE023
:10115000B84E0DA9301D0FF0BFFD95ED020A95EDBB
:10116000017AD5ED037A20EE000AA7EE070AA7EE72
:10117000A70A15F04DFBB5EE400AF1EE10FA11D0BA
:1011800096ED017A87EE007A86ED017A96ED027A85
:1011900087EE007A86ED027A96ED037AC7EE007A42
:1011A000C6ED037AA44806F0FDFCA4F8E40BDFEDDD
:1011B000A37AB4F9E4EB9FEDA27AB4F9B40BB4F9D5
:1011C000B61BB4F9B82B9A4E29EE279A07EE90EA8F
:1011D000F8EEE77AF1EE688A67EEC77AB1EE488AF0
:1011E000CDED127A07EE900AF8EEE77A13A8CDED6E
:1011F000137A07EE901AF8EEE77A10A9CDED147A7B
:1012000007EE902AF8EEE77ACDED108ACDED157A4B
:101210008DED118A0FF060FD7B78DDED157A012BE5
:101220001FD1884B1B78580711D4D6F8E83B4022D1
:1012300093FBF2F29A1A07EE102AB8EEC77A37EE4D
:10124000277ABDEEC77A17EE103AC6F8E83BD4F815
:10125000E83B402293FBF2F305EE903AB8EEE57AD4
:1012600004E0688807EE100AB8EEC77A764B9DED69
:10127000130A93ED008AD4F8F47B77EEC77ACDEDAC
:10128000157AD3ED017A79EE277A89EE279ADDED8A
:10129000157A77EEC87AA9EE278A83ED008A15F0D1
:1012A00011F8D4F8006C31780FF03FFC9DED140A72
:1012B0003844C4F8F40BD4F8F87B15F003F831780F
:1012C0000FF033FCB0EE480A3844C4F8F80BD4F8F9
:1012D000FC7B14F0F7FF71780FF027FC5B4B1AEEE4
:1012E000101A1A680A441A60D4F8043C38440133CE
:1012F000C4F8FC0BC4F8043C05E0A6F8683BA6F86B
:101300006A3BA6F86C3B06F028F8D4F8083CDFED01
:101310004B7A474AD4F8FC7ACBF80000C31A9BB248
:1013200005EE903AF8EE658AA4F80C3C28EEA78A00
:1013300002F5416383ED008A97F85230C4F8080C37
:1013400033B994F8D4313A4E002B00F0A6802DE04A
:1013500002F6144393ED007AB5EE407AF1EE10FAFE
:10136000984609D1D2F8F82A07EE102AB8EE477A43
:1013700067EE277AC3ED007A002639F9060097F860
:101380005210D8ED000A00EE100A3148B8EEC00A3B
:1013900000EB860006F0B2FCBDEEC00A10EE103A7B
:1013A00029F806300236062EE7D1CAE70121B0EE51
:1013B000680A06F63440F0EE480AB6F8307C06F0CB
:1013C0009DFCBCEEC00A96F8683110EE101A89B286
:1013D000B7FBF1F101F1010E1FFA8EFEA6F83CEC0D
:1013E000002B39D0B6F83EAC0023114A02F5C1708B
:1013F00002F544671E5A33F807C002F648401CFB4A
:101400000AFC33F800801E520FFA8EF9C8EB06086A
:101410009CFBF9FCC44423F807C00233082BE4D139
:10142000002382F86831A2F83E1C1AE04C3D0F44BC
:10143000B00500200000002004000020BD378635E4
:1014400035FA8E3C721900209C110020641900208E
:10145000C81100207C110020B6F83E3C013BA6F8E4
:101460003E3CB4F83E1CC74A0BB2002B4FF00003C1
:1014700011DDB2F93C7CC44A9E5AA2F6BE20083265
:1014800016FB01F69A5A96FBF7F6921B1A52023394
:10149000082BF0D101E0A2F83E3C02F041FBD4F869
:1014A0007031B84E012713F4801384F8697100F08D
:1014B0009980B6F87431190600F1E380B34B1B78BC
:1014C00003F0040303F0FF09002B79D096F8503C99
:1014D00013B196F8513C3BB1AD4B00221A60012389
:1014E0002B74002384F8513C2B7CA64FD4F8FC6A63
:1014F00084F8503C032B06D1304607F6584154225D
:1015000014F0C7FC55E0012B07D107F658403146CF
:10151000542214F0BEFC002302E0022B02D101236E
:1015200087F8AC3C012384F8AD3C84F8AE3C994B81
:10153000C4F8B86C00221A605A603278964984F870
:10154000BC2C94F8AC2C0A44B2EE047A92F87812CF
:10155000924A43F85C2C0E4484F8BD1C717896F8CE
:1015600015C007EE901AF8EEE77A03F11002C7EE05
:10157000877A9FED8B7AC3ED047AF37A07EE903A7F
:10158000F8EEE77AC7EE877A9FED867AC2ED017AA8
:1015900007EE90CAF8EEE77A67EE877AC2ED027A34
:1015A000FCEEE77A17EE903A73750023F37208F0B9
:1015B0006BF8802009F02EFF012384F8CC3C60E01A
:1015C00006F65448D8ED007AF5EE407AF1EE10FABE
:1015D00057D013F06FFA0023C8F8003086F8509CFB
:1015E0002F744EE0B6F8742112063FD596F8502CB1
:1015F000511E01292ED8D6F8B83C96F8BD2CDFED47
:10160000687A93F801E006F54C6696ED017A67EE8C
:10161000277A1A44FCEEE77A17EE901AD17296ED0B
:10162000027ADFED617A67EE277AFCEEE77A17EE51
:10163000901A07EE90EAF8EEE77A517577EEA77AFE
:10164000FCEEE77A17EE902ADA70DA7A5A735A7D4E
:10165000DA7505E0032A03D186F8503C2F7402E0C6
:101660002B7C01332B74802009F0E4FE474B1B7860
:10167000580706D494F8CC3C1BB1424B012283F8A6
:10168000512CD4F86C613F4A310739D5B2F8D21CDD
:1016900001F145039BB28A2B2ED8B2F874315B0757
:1016A0002AD5B2F8E40BB2F8D63C94F8BE71C21A4F
:1016B00092B293B218B2B330BCBF02F5B4739BB20E
:1016C0001AB2B32AC4BFA3F5B4739BB23F072D4A25
:1016D00094F8260314D540B240424343D2F8FC0AA2
:1016E000407A9BB213FB00F36FF01D0093FBF0F305
:1016F0001944A2F8D21C03E0B4F8E43BA4F8D63CA9
:1017000016F0140F00F09480B4F874211D4B02F40D
:101710000272002A00F08C8093F8BE2102F01002C1
:1017200002F0FF0052B1B3F8D01C93F9A603D3F82E
:10173000AC2100FB0212A3F8D02C79E0D3F8D82C0E
:10174000D1789278002943D0B3F98011B3F9887128
:10175000C1EB070EBEF1000FB8BFCEF1000E9645EB
:1017600024DDC3F8A8018F424FF00100C8BF5242E8
:1017700083F8DC0CB3F8D43CC8BF92B21A44A4F886
:10178000D42C55E0B0050020F01100207219002083
:101790000412002060120020A48301080000A04170
:1017A00000007A445555553F9A99993F93F8DC2C9F
:1017B0002AB1D3F87C21C3F8782183F8DC0CD4F863
:1017C000AC31D4F8E02C194413885288994228E0AF
:1017D000B3F98001B3F988713F1A87EAE77EAEEB6F
:1017E000E77E96450ADD022297FBF2F7C84A1760AA
:1017F000012283F8E42C83F8DC2C0AE093F8DC2C3B
:101800003AB1D3F87C21C3F8782183F8E41C83F83B
:10181000DC1CD4F8E01CD4F8AC210B8849880244C5
:101820009A4203DB8A42B4BF13460B46A4F8D43C69
:101830006B7CB3B1B4F98821B4F85E339A4210DC02
:10184000B44B93F8C931012B01D0192B02D194F874
:10185000A02332B90E2B04D0082B1CBF0023A4F800
:10186000D23CD4F8FC8AAB4D98F81871002F45D0C3
:10187000B5F874319B0741D005F6BC3393ED010AEE
:10188000D3ED007A93ED028AB5F8D49C20EE000ADD
:10189000A7EEA70AA8EE080A14F0BAFF88EE000A1D
:1018A000DFED9D7AB4EEE70AF1EE10FA22D914F0DA
:1018B000ABFD05F6E845D5ED007A20EE270A14F0D9
:1018C00001FDB0F5617FA8BF4FF4617005EE900A8D
:1018D000DFED927AB8EEE50A80EE270A0FF034F9D0
:1018E00006EE907AF8EEE67A27EE800A14F0EAFC2B
:1018F00080B200E000204844A4F8D40CB7067ED59E
:10190000B4F87431834D03F03003002B77D095F891
:10191000BE31DE0773D5B5F9E40BDFED817A814E78
:1019200008EE100AB8EEC88A28EE278AB0EE480AF8
:101930000FF00AF9F0EE408AB0EE480A0FF066F9AF
:10194000D5F8EC3CB5F9F60CDF78B0EE409AB2EE83
:10195000048AA7B3B5F8F23C1FFA83F91BB2C01A88
:101960000FF0A2FC7D42A84203DBB842A8BF384674
:1019700000E02846B4F8F03C8144B4F9F40C1FFAB6
:1019800083FA1BB21FFA89F9C01AA4F8F29C0FF06F
:101990008BFCA84203DBB842B4BF05463D46554424
:1019A000ADB2A4F8F05C0FFA89F92DB205EE909A69
:1019B00007EE905AB8EEE57AF8EEE76A09E0B5F975
:1019C000F45C05EE900A06EE905AB8EEE57AF8EE71
:1019D000E66A68EEE67AE7EE097A26EE899AC7EEBD
:1019E000887AA7EE289AFDEEE77A89EE089A17EE34
:1019F000903ABDEEC99A338019EE103A7380454D86
:101A0000B4F8322305F24E330093474BD4F8F81C58
:101A10001E68404608F15803B04794F8FC1C03299F
:101A200016D9D5F8003D5A88B2F5FA7F10D2B5F92B
:101A3000080DB5F9D25C5342002DB8BF6D425B1B57
:101A4000984203DB53198342A8BF0346A4F8083D1C
:101A5000B4F8D40CB4F8065DB4F8046DD4F8007D85
:101A6000B4F908ED314B00228A4203F1100335D25C
:101A700097F901C0CCF1000C0EFB0CFC07EE10CA6C
:101A80000FFA86FC06EE10CA0FFA80FC05EE90CA2B
:101A90000FFA85FC07EE90CAF8EEC76AF8EEE77A0F
:101AA00013ED027ADFF88CC067EE877AF8EEE55A1C
:101AB00013ED047AE5EE877AB8EEC66A13ED037A81
:101AC000E6EE077A13ED017AE6EE877AFDEEE77A25
:101AD00017EE908A2CF812800132C5E7144B1A7861
:101AE00002F0040202F0FF03002A00F0878094F85D
:101AF000E99DB4F8CC5D01238B420E482EB21BD277
:101B000030F91350B542B8BF3546ADB20133F3E7F3
:101B10006C190020B00500208FC2753CEFB6B044B0
:101B200035FA8E3C6019002018000020BC120020FD
:101B3000721900207C130020D4F8EC2DD4F8F07D2D
:101B40005388D4F8F4ED9E42C8BFC3EB0505A368E3
:101B5000B4F9886103F4805A03F0100BD4F8003D07
:101B60000993BC4BCCBFADB2002500EB4108434507
:101B70003BD01988491B89B223F8021B09B2BAF17C
:101B8000000F0AD0F8898642C7BFBEF80200B2F83B
:101B900002C09088BEF800C005E0B2F802C0B9F1FA
:101BA000000F09D09088814203DB6145B4BF08462D
:101BB000604623F8020CDAE71088814203DB6145B6
:101BC000B4BF0846604623F8020C398A8E42CEDA4A
:101BD000BBF1000F01D0918804E009980178002939
:101BE000C5D1118823F8021CC1E794F8F82D9A4B4F
:101BF000013AD2B2182A00F250810AE08B42F4D2A4
:101C0000944A02F12E0030F8130022F81300013339
:101C1000F4E701219140914A0A40002A00F03D81F9
:101C2000B3F87421D0050CD5B3F8CE2CADF84C2008
:101C3000B3F8D02CB3F8D23CADF84E20ADF850300C
:101C400018E0B3F8042D9968ADF84C20B3F8062DD0
:101C5000ADF84E20C904B3F8082DADF8502009D5D1
:101C6000B3F98811D3F8F03DDB899942BCBF5242E9
:101C7000ADF85020B4F9D61B4FF47A7201F5E1614A
:101C800051434FF4616391FBF3F1A1F5FA71ADF8A3
:101C90006410B4F9D41B01F5E1614A4392FBF3F3FC
:101CA000A3F5FA73ADF86630B4F8CC3DB4F88221F0
:101CB000A3F2DC53ADF85230D4F8F03DDB89D21AF0
:101CC000ADF85420B4F88421D21AADF85620B4F8F7
:101CD0008621D21AADF85820B4F88821D21AADF86E
:101CE0005A20B4F88A21D21AADF85C20B4F88C21BD
:101CF000D21AADF85E20B4F88E21D21AADF8602069
:101D0000B4F89021D31AADF862300022524B03F69A
:101D10001260002111520232102AF7D1D3F870213B
:101D2000D3F8244E93F8223E09925B000B930A9459
:101D30000B460B9E4848B34200F0948000F628649E
:101D40006218957935B10126153506FA05F5099E13
:101D5000354078D0675C0A9892F904B092F8019007
:101D600092F803C092F805A0C7EBC70600EB460641
:101D70004FEA490EB6F90000B6F902502D1AADB27D
:101D8000642005FB0BFB9BFBF0FB4FEA5508C8EBFF
:101D90000B0B1FFA8BFB32481AACBCF1000F03D1BE
:101DA000744434F81C4C0CE0A644C45E3EF91CECB0
:101DB000744508DAA444A44503DBE645B4BF744681
:101DC0006446C4520AE009DDCCEB040CF44503DBA5
:101DD000A445B4BFE646A64620F803E04FF0010E46
:101DE000D6F80A601C4892F902200EFA09F919EA9D
:101DF000060F0CBF76464FF0FF3600F6986E7F0058
:101E000033F80EE012FB0EF24FF0640EC41992FB91
:101E1000FEF20FFA8BFB5A45B4F8124EB6B20CDB49
:101E20004FFA8AFB05FB0BFB9BFBFEFBC8EB0B0B86
:101E30000FFA8BFB9345A8BF934607440BFB064B59
:101E4000A7F812BE02E000F698601D520233073177
:101E50006FE700BF7C130020B00500209920980197
:101E6000481400200024D0F8248E25460E2202FBC0
:101E70000582A54E92F90670A35B17FB03F7642356
:101E800097FBF3F7A753E8B205F072FE013538442B
:101E9000082DA05304F10204E8D19C4DAE6816F061
:101EA00020082F4634D0002005F062FEA5F8120E5F
:101EB0000446012005F05CFED5F87031A5F8140E3B
:101EC0001B0625D5D5F8B83EB5F8D42B1B78012BC9
:101ED00022D1D5F8243EB5F9D6EB93F9141093F935
:101EE000063011FB02F25B4232210EFB03F392FB40
:101EF000F1F26FF0310E92B293FBFEFE964493FB2B
:101F0000F1F174440A44A5F8124E1044A5F8140ED9
:101F1000D5F824AE002319E0D5F8241EB5F8D63B39
:101F200091F906E091F914101EFB03FE32239EFB8B
:101F3000F3FE11FB02F2744492FBF3F3A5F8124E88
:101F40001844E3E7D1520233102B10D0C3EBC30483
:101F50006D4A5444985EB4F90010B4F902408842C6
:101F60009146EFDB21B28842B8BF0146EAE7674BF2
:101F7000D3F800BD9BF90830A3B995F8F8AD0AF184
:101F8000FF33182B6FD8DFE803F02F6E6E4C6E6EA8
:101F90006E436E6E6E6E6E586E6E6E6E6E4C636ECF
:101FA0006E582F0000245A4BBBF9062039F9041053
:101FB000442000FB043005F08EFCC4EBC40280B268
:101FC00029F80400524400B2B2F90030B2F90220FC
:101FD000984203DB13B29842B8BF034629F8043095
:101FE0000234102CDFD1C8E79BF804301BB100206D
:101FF000B5F81C1E08E0474B1B7803F0040303F000
:10200000FF00002BF3D101460FF0F4F901242BE07F
:102010000020B5F8181E0FF0EDF90120B5F81A1ED2
:1020200007E00020B5F81A1E0FF0E4F9B5F81C1E01
:1020300001200FF0DFF9022440E2002409EB440301
:10204000E0B2998801340FF0D5F9062CF6D10BE0F7
:10205000002409EB4403E0B2D98801340FF0CAF937
:10206000042CF6D12AE20024B8F1000F02D1BAF113
:10207000050F0CD12046B5F8121E0FF0BBF9601CFD
:10208000C0B2B5F8141E0FF0B5F90234E4B2F00294
:1020900009D4214C214ED4F8082233689A1A002A18
:1020A000A0460DDACAE100261D4B03EB4603A0193A
:1020B000C0B219890FF09EF90D2EEAD00136F3E770
:1020C00003F5F573C4F8083294F80C320BB109F03B
:1020D000E7FD144B1B78002B40F0B081AA68110378
:1020E00040F1AC8194F80D120239082900F2A08168
:1020F000DFE811F01A004B006B0081009A00AE007F
:1021000031014E015B0100BFC2130020B005002069
:102110007014002072190020A81600205C190020FD
:102120003207002070190020A54B1A68D4F8143229
:1021300064339A4240F27C810025A24BA24A1B786C
:102140009D420FDAD8F81032A04E134493F87A0269
:1021500040B111F0F3F9D6F8103201330135C6F869
:102160001032EAE7D4F81012984B0A4492F87A2217
:10217000002A40F05D81C3F810224FF0FF32C3F80F
:102180001422032283F80D2252E125230093904B61
:10219000019303F10C0202924920A3F10A0250219B
:1021A000023308F0F1FE002840F04281AB6813F0E2
:1021B00080024FF0FF3305D0C4F81432C4F8100287
:1021C000042342E0C4F810222AE002228DE80C0029
:1021D000804A02934820002102F1080308F0D4FE4F
:1021E000002840F025814FF0FF33C4F81432C4F8C2
:1021F0001002052329E007230093774B019303F195
:102200000C0202924720A3F108020021043308F0D7
:10221000BBFE002840F00C81C4F810024FF0FF33E1
:10222000C4F81432062310E003228DE80C006B4A38
:1022300002935320002102F1080308F0A5FE0028B4
:1022400040F0F680C4F81002072384F80D32EFE066
:10225000D4F810125D4B21B9C3F814120121C3F850
:102260001012584B1E78D4F814321E44402EA8BFCA
:102270004026132EC4F8146240F3DA80534BD3F88F
:1022800010320D2B00F21481DFE803F05F070B0E14
:1022900012182125292D31434D53514811F0B8F81A
:1022A00050E05048504941E050485149514A47E0B8
:1022B000514895F88E1995F88F2941E095F86839BD
:1022C0004E480C2202FB037797F86A192EE04C481F
:1022D000B5F808132AE04B48B5F80A1326E04A4B34
:1022E0004A48196922E04A4B4A4859881EE0D4F806
:1022F0001832364FDB0408D5474895F840130AF0EA
:10230000FFFE301AC7F814021FE00C23C7F8103282
:102310001BE095F8441395F8452395F843333F485F
:102320000AF0EEFE0EE03E48B4F81C120AF0E8FE99
:1023300008E0170509D53B48B5F84813B5F9462319
:102340000AF0DEFE301AC4F81402D4F81032013359
:10235000C4F810326CE0D5F87031980115D5B4F896
:102360001E321A4D8BB9D5F8203213930E203368E4
:10237000149313A911F074F94FF48053A5F8243283
:10238000092385F80D320FF069F80EF08BFD4FE050
:1023900094F82632002BF6D0D5F870319901F2D49A
:1023A0000A4B082283F80D22EFE7054B1A68D4F890
:1023B0001432C8339A4237D90FF0F8FB012344E7AF
:1023C0004851002014000020A4830108A816002012
:1023D0008A8601083C88010854880108A088010801
:1023E000C8950108E595010828AE0108FD9501088A
:1023F0001496010820960108299601083D960108C7
:102400004A9601085C960108941000206E96010817
:1024100000000020819601088E9601089E96010812
:10242000BA960108C896010811F076F80028C3D1C1
:102430000DF0F8FB10B1012384F80D32224B234C30
:102440001B7833B9A3685A0503D5B4F8160305F011
:1024500093FDA368DB037DF5CCAE1D4B93F82732CB
:10246000002B3DF4C6AE1B4B1A7802F0FF03002A86
:102470007DF4BFAE154A184CD2F8702112F4804F8B
:102480000CD0A27C62B1154A1168154A99500433E8
:10249000802BF8D110F07AFD002300E00123A37413
:1024A000A37C002B3DF4A5AE0BF034FCFDF7A1BEE0
:1024B0004FF48053A4F824320923C6E6B8F1000F84
:1024C0003FF4E5ADD6E500BF70190020B00500204F
:1024D000A81600206A19002000000020C4950108F9
:1024E000D01800202DE9F04F2DED028BC04CC14BD0
:1024F0002360A1B0002363600DF0AAFB18B90BF0B4
:10250000C3F80DF0C9FBDFF85493BB4FBB4EDFF8A7
:102510004483DFF84CA310F039FA99F8003043F007
:10252000010389F800300EF063FCB54BFB60736F5C
:10253000A360B44BBB60736BB34823F08003736339
:10254000736F43F080737367336B43F03F0320ADC9
:10255000336303238DF8463041F6FF7325F83C3D85
:10256000294606F087FF4FF6FF73A848ADF84430C0
:10257000294606F07FFFA648294606F07BFFDFF8D4
:10258000E4C2CDF810C06046294606F073FFA148AA
:10259000294606F06FFF29469F4806F06BFF284644
:1025A00006F0D0FE119B9D4AB3FBF2F3E3609C4B17
:1025B0009C4A4FF0000BC3F800B09B4B5A60F022CE
:1025C00087F823200722C3F808B0984F1A60D8F87C
:1025D0000830CAF8003097E80F0085E80F00336B29
:1025E000DDF810C0119843F008033363336B43F0F8
:1025F000080333634FF48043ACF818304FF40043C2
:10260000ACF8183012A906F035FF14A9139806F09B
:1026100031FF642004F09BFF85485946A02213F047
:1026200041FC336C43F013033364736C43F00113C8
:102630007364804BB94603F1C0009A7ADF7A53F88D
:10264000106B02F00701D20806EB82028900166ABD
:102650004FF00F0E8F400EFA01F126EA01011162D0
:10266000166A834247EA06011162E6D10023604FF1
:1026700007F110020021995401330C2BF7D1FF23ED
:102680006D4A3B777B77BB77FB776C4B13606C4E67
:102690006C4A0420107030463022049313F002FC80
:1026A00014223270022232760522049B86F82420FE
:1026B000654A98F805B082F800B0A3F5EA72A3F570
:1026C0008A737B62614BDAF800603A6203EBCB03FA
:1026D0005B78BB62B30644BF0123BB6200235C4A44
:1026E00040F2DC5199520233102BF8D10AA8002194
:1026F0001C2213F0D7FBBBF10E0F04D00BF0EF0B35
:10270000BBF1080F02D101238DF83A30052004F007
:1027100051FD18B14088003018BF0120C6F34003B6
:102720008DF82F30C6F380138DF83130C6F3403367
:102730008DF82830C6F3C03300F001008DF82B303F
:1027400016F400638DF82E0004D098F886315F1ED1
:102750007B427B418DF82C30C6F300438DF832303C
:10276000A36AB8F84801ADF83E00003318BF012352
:102770008DF83330C6F300538DF83430B8F84A3151
:10278000ADF83830B8F85631ADF83630C6F380437E
:1027900006F00101C6F3C0028DF83030F004B8F83D
:1027A00054318DF829108DF82A20ADF83C3004D52D
:1027B0002848B0F85001ADF83E00B3F5FA7F84BF69
:1027C0000023ADF83E30244898F8CE3184F82C3000
:1027D000002384F82D3043709DF83A30002B14BF4D
:1027E0000223002300293FD1002A3ED03CE000BF55
:1027F000741900204177000800ED00E00038024025
:102800000005FA0500000008000002400004024034
:1028100000080240001002400014024040420F0035
:102820004C5100203F90020010E000E050A1010850
:10283000944F002038A80108E42900205C090020FA
:102840005C2B00205A2B0020A8130020F4A80108BC
:10285000C213002074070020A1190020505100204D
:10286000B8050020000C0240013309EB83034FF050
:1028700000081B690593C146059931F808304FF6E9
:10288000FF72934200F0FE80D8B2C44A9DF8321025
:102890004FEA001C1B0A02EB0C0629B152F80C107F
:1028A000BF4FB94200F0E880022B02D19DF82810FA
:1028B00003E0012B04D19DF82910002900F0DC80F1
:1028C0009DF8341031B19DF83A1019B90438032835
:1028D00040F2BB80012B3DD1FF230027318984F8D2
:1028E000743084F87530737B706884F87870C4F83D
:1028F0008460ADF844108DF84630294602238DF8E7
:10290000473084F830706763A763E763276784F80C
:10291000767084F877700392CDF810C006F0AAFDA7
:10292000039ADDF810C0B17A52F80C003A4606F06E
:102930002FFB304609F054FC9A4B9B49C4F8883071
:102940009A4BC4F88C30C4F8907030460A1D0CF0D5
:1029500027FB91E0022B3ED195488DF847305FFA76
:1029600089F11C27794347184FF0000B4FF0010EF7
:1029700087F8019087F802B087F80AB000F801E004
:10298000717BB6F808E07068FE608DF84610294645
:10299000ADF844E00392CDF810C006F06BFDDDF811
:1029A00010C0039AB17A52F80C005A4606F0F0FAB9
:1029B000304609F015FC7F4B3B617F4B7B61C7F8CC
:1029C00018B0304607F1100107F114020CF0E8FAD4
:1029D00009F1010950E0032B35D19DF830303BB1AE
:1029E00094F82E70304608214FF6FF7200231CE049
:1029F000BDF83C2094F82E70BDF83E30B2F5FA7F59
:102A00000DD96E49B1FBF2F23046082192B208F0BE
:102A100021FD04EB87076A4BC7F858010CE06949B0
:102A2000B1FBF2F23046012192B208F013FD04EB43
:102A30008707654BC7F85801C36094F82E300133FF
:102A400084F82E3018E0042B16D1BDF836305D4ADC
:102A500094F82D7092FBF3F23046BDF83830012126
:102A600092B208F0F7FC94F82D3004EB870701339D
:102A7000C7F8880184F82D3008F10208B8F1180F62
:102A80007FF4FAAE94F82D2084F8A8214F4A504BD9
:102A90001678A6F117020027022A1F709E461AD840
:102AA000236A3B44D3ED007AF5EE407AF1EE10FA5A
:102AB00002D1A36A63BB26E0464A07EB020C0FCBA8
:102AC0008CE80F009EF8003010370133C02F8EF8CD
:102AD0000030E5D1EDE7404B13F836808EF80080EA
:102AE00003EBC603D3F80490B9F1000FE1D04745DA
:102AF000DFDA384A3B0103EB020C4B440FCB0137C2
:102B00008CE80F00F3E7DAF80030D90426D41FE090
:102B1000324B334A03EBC6035F6A93F82000107010
:102B2000002FF0D000238342EDDAC3EBC3017A1803
:102B3000DFF8B880D2F8009041F8089001EB080C5B
:102B40009188ACF8041092798CF806200133EAE7FA
:102B500006F0EF03082B234B4AD14BE09EF8001000
:102B60000129F5D9204B00228A4203F11003EFDA44
:102B700013ED047AF6EE007A27EE277A013203EDA0
:102B8000047A13ED057A27EE277A03ED057A13ED23
:102B9000037A67EE277A43ED037AE5E734A8010864
:102BA000000C004029080108FC1900202D0901082B
:102BB000EC190020AD9000080509010800127A0008
:102BC0004D09010840420F003D090108A8130020EB
:102BD000AC120020BC120020F4A8010850A101088A
:102BE000D21300206E070020C4120020D81300204A
:102BF0000E2E08D11A7842F010021A70182E08D141
:102C000004F090FF05E01A7822F010021A70192ED5
:102C1000F5E709F029F8DAF800305A0302D4BD4B81
:102C200001221A70BC4A137843F00403137011F0A8
:102C3000D7FE0CF0F3FC0BF047FD002009F0DEF8A6
:102C4000022004F0B7FA18B14088003018BF012004
:102C5000C30702D4012009F0D1F8B04EB6F85C21C8
:102C60004AB9B6F95E3143B9B6F96031D3F101031F
:102C700038BF002302E0002300E0134613F00103F5
:102C800024D112B207EE102ADFEDA57AA549B8EEDD
:102C9000C77A0B7027EE277AB6F95E318DED117A7F
:102CA00007EE103AB8EEC77AB6F9601127EE277A28
:102CB00028468DED127A07EE101AB8EEC77A9A49B7
:102CC00067EE277ACDED137A0DF0A8FF974B984861
:102CD0001A68B6F86471B2F85620059200210C22E9
:102CE00096F863B196F86C81B6F80C9096F80FA040
:102CF000049313F0D7F8002114228E4813F0D2F871
:102D00008D4A0021117094F8D0212AB904910392C0
:102D10000CF04CFF039A0499A4F8D2110AB909F0F7
:102D200025FBB7F5807F0ED0BB2F0ED8612F0ED8B4
:102D3000292F0ED8132F0ED8092F0ED8002F0CBF15
:102D4000002106210AE0002108E0012106E002211D
:102D500004E0032102E0042100E00521774B1A88FA
:102D600022F040021204120C1A801A8822F0380253
:102D70001204120C42F030021A801A8892B242F009
:102D800040021A801A200BF0A0FF012004F0D4FBAF
:102D900028460CF01DFD9DF94630694D013303D1E5
:102DA0009DF94430013303D0B4F8D2319BB233B132
:102DB00000230320A4F8D23104F0D3FB6DE15D4B76
:102DC000604A1A60604A5A60604ADA606420604A69
:102DD0001A6104F0BCFB584B5E4C04221A700623A7
:102DE00023705D4B1A68BBF1090F42F001021A60B3
:102DF00000F24D86012202FA0BF240F20233134038
:102E0000002B40F03C8612F0FD0F00F03886534A4C
:102E1000137095F8D03193461BB904930CF0C6FE9D
:102E2000049B0022A5F8D2210BB909F09FFA404B70
:102E30004B4A1A6064204B4A5A6004F088FB042312
:102E40008BF8003007236370434B1A6842F002028C
:102E50001A60B8F1040F00F2A280012404FA08F30A
:102E600013F0160B40F0A38013F0090F00F09480CC
:102E700020A91E2001F8654D12F044F84FF42F6090
:102E800004F05AFB142004F062FBA020214608AA9B
:102E900008F006F8002800F08A80D846A8F1600003
:102EA0000024022111AAC0B28DF844408DF845409B
:102EB00007F0F6FF9DF845309DF8441043EA0121E4
:102EC0001F4B03F5EA7228F8021008F10208B8F166
:102ED000100FE3D1B3F8E2E10EF00F000EF47F4ED5
:102EE000A3F8E2E1012123462246DFF854C022F094
:102EF00001046444B4F8D441002C18BF002112F03E
:102F0000010F03D0E4B2634008242DE083EA1423C8
:102F1000FAE700BFB41800205051002074070020C9
:102F200035FA8E3C1C000020201B0020AC10002035
:102F30000C11002094100020B61000200038004032
:102F400074190020290B0108D1F7000839F800088E
:102F500090C1793D1D0000201C0700205819002059
:102F6000190B010869F7000813F4004F18BF83F428
:102F7000C053013C4FEA4303F6D10132102AB4D1C9
:102F80003A4A40EA0E0EA2F8E2E181B9C3F30333F4
:102F9000984200F080850AE0B8F1010F07D0344B69
:102FA00083F80280334B1A6842F004021A60314CF5
:102FB00023689A0702D5304B1B689847DFF8AC802E
:102FC0002E4ABAF1000F1AD0FFB2002F14BF4FF4EF
:102FD0007A737D23994505DBB9F57A6FA8BF4FF465
:102FE0007A6900E09946591E8944B9FBF3F1013929
:102FF000C9B201FB033388F8E411136003E088F8D9
:10300000E4A1C2F800901E4B1B6898471D4A00239C
:10301000137096F858310BB11B490B7096F8593163
:103020000BB11A490B7096F85A3103B1137023682B
:103030001B072FD5059B1AB2642392FBF3F103FB08
:1030400011231BB207EE103AF8EEC76A07EE101A0A
:10305000F8EEC77A9FED0E7AE6EE877AB2EE047A42
:1030600067EE877AC5ED7A7A17E000BF7419002001
:103070001D0000201C0700200C110020A8100020BB
:103080009410002071190020B6100020581900205B
:103090008988883C0023C8F8E831AF490B7843F0B1
:1030A00002030B70AD4B4FF400425A834FF4804241
:1030B0001A830A27A94C636983F400436361636937
:1030C00083F480436361192004F041FA013F192021
:1030D00004F03DFA17F0FF07ECD14FF4804323834F
:1030E0009F4B1A684FF4004712F0080F2783984649
:1030F00007D09C4B67831B6898479B4B2783012213
:103100001A709A4B9FED9A8A1B689A4C1B7B00EEB3
:10311000103AB8EEC00A20EE080A0DF077FD2288BA
:1031200007EE902AF8EEE77A27EE800A13F0CAF845
:1031300024889FED917A914B07EE904AF8EEE77A5A
:103140001880C7EE277A8E4B8E4CFF211A2220461C
:103150009FED8D7AC7EE877AC5ED7B7AD3ED047A41
:103160008A4B27EE888ADFED8A7A28EE278A83ED5C
:10317000008A12F097FE00222270D8F80020854BBA
:10318000012112F0020F1970204604D06170032152
:1031900019700221A170570704D519784C1C1C70B6
:1031A0000324445412F00A0F0CD01A7804218154DD
:1031B000511CC9B205244454D11C0232D2B2197038
:1031C00006218154744F3A68940604D519784C1C32
:1031D0001C7007244454110608D519780924445456
:1031E0008C1C0131C9B21C700A244454717908291D
:1031F00001D00E2908D11C7804F1010E83F800E0FB
:103200004FF00B0E00F804E01C7804F1010E5FFA99
:103210008EFE4FF00C0C12F4803F83F800E000F8B3
:1032200004C009D004F1020C5A4C84F800C0554C7B
:103230004FF00E0C04F80EC0540708D51C7804F1AA
:10324000010E83F800E04FF0100E00F804E01C7847
:1032500004F1010E5FFA8EFE4FF0120C12F4806F33
:1032600083F800E000F804C00ED096F80CC2BCF160
:10327000000F09D004F1020C464C84F800C0414C08
:103280004FF0130C04F80EC01C7804F1010E5FFA25
:103290008EFE4FF0140C12F4007F83F800E000F86B
:1032A00004C009D004F1020C3A4C84F800C0354C3B
:1032B0004FF0150C04F80EC0182913D11C784FF0EC
:1032C000160E00F804E004F1010E5FFA8EFE4FF0D6
:1032D000170C00F80EC004F1030E0234E4B283F8B8
:1032E00000E00155120304D51A78511C19701923F6
:1032F0008354002198222948294C12F0D3FD0EF066
:1033000017FC2849284AC4F8F02100234B800B7190
:1033100026490A60B6F8982190B2254958520233DE
:10332000242BFAD13B681B0740F1F68096F89231C6
:10333000062B00F2EB80DFE803F0040741708BAA54
:10334000AA0045F2F05201E042F6F822194B1A8029
:103350000EF078FCD9E000BF50510020000C024074
:103360001C07002050190020500F0020541100208D
:1033700035FA8E3C020000200AE81C41781100203A
:1033800094100020EF2A002000401C46501100201D
:10339000BD378635EE2A0020B805002048290020D8
:1033A0007419002094130020FE080020BC050020A2
:1033B00032070020E01100200000B0C407EE102A00
:1033C0005FED037A7B4BF8EEC76A9FED7B7AE6EE02
:1033D000877A42F6F82119800023FCEEE77A774AD3
:1033E00017EE901A99500433482BF8D1744BC4F857
:1033F000F431744B122240201A7003F015FF00289C
:1034000000F0848001234FF0070C90F900006E4A11
:103410008DE8081040216D4B72E0664B42F6F822B1
:103420001A806B4BC4F8F431664B102240201A709E
:1034300003F0FAFE002869D001234FF0000E90F946
:103440000000644A8DE8084040214FF4E13357E022
:10345000584B42F6F8221A805F4BC4F8F431594BAE
:10346000082240201A7003F0DFFE00284ED001230E
:10347000002690F90000594A8DE8480040214FF499
:10348000E1330BF04BFE564BC3F8F8013AE0494AE2
:10349000544842F6F82111804A490C22062B0A7042
:1034A00010D00023037084F8FC3184F8FD311B2315
:1034B00084F8FE31052384F8FF2184F800324FF4AC
:1034C000E1360DE00021017084F8FC1184F8FD1153
:1034D000454E84F8FF21212184F8FE1184F8003242
:1034E000424BC4F8F431402003F09EFE70B101213C
:1034F00000233F4A90F900008DE80A00402133463E
:103500000BF00CFE003018BF012028B908200DF088
:1035100067FC0023C4F8F4313B682A4A13F4804F57
:1035200004D0082111703349C4F8F41142F20101AA
:10353000194003F0010003F4005669B11D4944F637
:10354000206EA1F800E02C49C4F8F4110EB1082156
:10355000117008B10C2111701178043951701A06DC
:1035600040F18C804FF00008244EDFF89C90DFF88B
:103570009CA02348C5F804924146152286F8018094
:10358000C6F80480C6F8088012F08CFCA9F1050387
:103590004046CAF800300BF041FC1A4B02201B6871
:1035A000F36003F041FE514690BB80200DF018FC03
:1035B0005CE000BFE0110020CDCCCC3F1006002025
:1035C00021700008092B00209D740008A0860100CE
:1035D0001170000829740008FD6F0008DD730008F1
:1035E000741900201007002090D00300C16F00085C
:1035F000218C0008517000085D70000864100020E4
:103600007C1B0020485100205C0900208410002011
:1036100090F805E07378CC4A4FF00C0C0CFB032CAF
:103620009CF801C0F44504D00133DBB2042BF2D97D
:10363000002373700B6890F900001B7813F0FD0FE6
:1036400073784FF00C0606FB03220CBF0121032107
:10365000537800910022019202210BF05FFDBB4BD9
:1036600018600028A1D001200BF0D8FBB84AB94B54
:10367000106800F5C5721A600DF0B4FDB64BC4F8C1
:1036800020328033C4F824323B68DFF800A30026E0
:1036900013F4803F8AF800600DF1440900F0C78000
:1036A0000DF0E0FCDFF8E8C240F22A3B4FF00108E1
:1036B000604631465A468AF80080CDF810C012F0B4
:1036C000F1FBA64BDFF8CCA21A6B42EA08021A63A0
:1036D0001A6C42F008021A641A6B42F400121A6360
:1036E000022350468DF8243008A903238DF8253095
:1036F000CDF820808DF827808DF8266005F07AFEC1
:10370000DAF8203023F00F03CAF82030DAF820303E
:1037100043F00203CAF82030914B1A8822F00102CC
:103720001204120C1A801A8822F45C721204120C11
:103730001A806822DA621E85A3F814801A8C22F09F
:1037400001021204120C1A841A8C9888198B22F028
:10375000020221F0730109041204090C120C41F059
:10376000600180B242EA0802988019835E631A847D
:103770001A8B22F008021204120C42F008021A837B
:103780001A880AF5C04A92B20AF1400A42EA0802CF
:103790001A80DAF8003023F00103CAF800305046EE
:1037A00005F04AFD4FF0406311936E4B1293402396
:1037B00014934FF4806317934FF4805318934FF48E
:1037C000804319934FF44033DDF810C01B935046EB
:1037D000042349461C9316961A961D961E961F960C
:1037E000CDF84CC0CDF854B005F0FCFCDAF8003050
:1037F00043F01003CAF800305B4B4FF400129A609C
:1038000007A80D238DF81C308DF81D808DF81E60E3
:103810008DF81F800FF0A4FC544B1A68544BF250E3
:103820000436802EF8D10FF0B1FB0FF0AFFB3B68F0
:103830005B0555D54F4BD5F8D08EC3F800800420DA
:1038400003F0F2FC0421C5F8D40E03F0C7FC4A4B88
:1038500085F8D80E0820C3F8008003F0E5FC0821A5
:10386000C5F8DC0E03F0BAFC444E85F8E00E0021EA
:1038700030462C2212F016FB8E2373704FF07C0B17
:10388000E0234FF07D0AF37086F800B086F82BA095
:103890003B4E2C220021304612F004FB8A23737029
:1038A0001020A023F37086F800B086F82BA0C5F88E
:1038B000E48E03F0B9FC1021C5F8E80E03F08EFC8D
:1038C00085F8EC0E2020C5F8F08E03F0ADFC202129
:1038D000C5F8F40E03F082FC85F8F80E0EF0A4FB98
:1038E000284DDFF8B4802B8823F040031B041B0C09
:1038F0002B802B8823F038031B041B0C2B802B8878
:103900009BB243F040032B8000269F2332204FF4CC
:10391000004A8DF820308DF821608DF822608DF8F6
:10392000236003F014FE8DF84560494608AA04237D
:10393000A8F81AA0284608F070FC134BA8F818A0A5
:1039400040221A802AE000BFC483010860100020D2
:10395000AC1000209C12002090090020003802408A
:10396000000C0040340C004000600240E888010870
:10397000D0180020EC2B0020402C0020102C002020
:10398000452C0020003C004024000020CF180020DF
:103990009C1B002000000240001002404FF4807287
:1039A0005A809A88110292039960DA60012384F8A0
:1039B000F93EEAB14FEA1248C246464512DA06EB32
:1039C00008056D1028044946102208F089FC0023E0
:1039D00059F80320013271D10433102BF8D1AA46D3
:1039E000A846EAE70FF080FD4FEA0A43C4F8FC3E20
:1039F0003B68344A13F4002318BF0123137003F00B
:103A0000ACFC314B1860314B5A79052A194603D169
:103A10002F4B4FF4C8721A802E4B4FF47A721A80D3
:103A20002D4BC8221A802D4B1A7842F008021A70CA
:103A30002B4B1A7822F002021A703A6840F6020301
:103A400013406BB1274B284A1A60284B03221A7087
:103A5000274B01221A70274A00231380264A13801D
:103A60008B683B60254B01221A70254B1A7862F057
:103A70007F021A7021B0BDEC028BBDE8F08FBBF164
:103A8000010F04D81F4B00221A70FFF7E2B94FF064
:103A9000000BFFF7AFB91C4B42F210721A805A802C
:103AA0001A4A5A601A4A9A601A4ADA601A4A1A611D
:103AB0001A4A5A614FF00308FFF771BA6E1C454667
:103AC0008EE700BFB5180020B81100207407002051
:103AD0001E11002068190020102A00206E07002007
:103AE00072190020E42B0020F0080020442C002054
:103AF00035000020C2280020C4280020B41800206F
:103B000050510020581900205C0F0020E5330108B7
:103B100067AF0008FB33010879AF00086D090108A1
:103B2000CB4B2DE9F04FB3F90600CA4BD3F800E0B8
:103B30002DED028BBEF80A30984287B00FDBB0F54E
:103B4000FA6F9EF8077007DAC21A5743A3F5FA63B3
:103B500097FBF3F7643703E0C7F1640700E06427DD
:103B6000BD4BB3F898210492BC4A93F96231D2F864
:103B700000C09BB20021059364460A46B44B049DE5
:103B8000CB5E03935B1B03F2F31640F2E635AE42C5
:103B900003D8002BB8BF5B4201E04FF4FA73022A4E
:103BA0004FF06406AE4DDFF8C0922DD09CF8118125
:103BB000B8F1000F04D04345CCBFC8EB030300238A
:103BC00093FBF6F86FF0630B35F818A00BFB083B7E
:103BD00008F1010835F918800FFA8AF5C5EB0805D8
:103BE00005FB0BF595FBF6F5554429F801500EEB56
:103BF00002052D796B439B4D93FBF5F364339BB228
:103C00007B4393FBF6F62FE09CF81281B8F1000F8E
:103C100004D04345CCBFC8EB0303002393FBF6F667
:103C20006FF0630A05EB46080AFB063B05EB460608
:103C3000B8F90E80B6F91050059EC8EB050505FBD6
:103C40000BFB9BFBFAFBC8EB0B0808FB06F8A9F87B
:103C500004809EF8065083EAE376A6EBE3766E4393
:103C6000804D96FBF5F664360CEB02087C4B98F819
:103C7000019003F11C054FF0640806FB09F999FB5C
:103C8000F8F902F8059094F80B9003F11F0506FB74
:103C900009F999FBF8F902F8059094F8159003F1E9
:103CA000220506FB09F6022A96FBF8F656551D4634
:103CB00016BF253383F82780D754049E039BB34255
:103CC000694E02DA735A5B4273520231062902F1DD
:103CD000010204F101047FF451AF5F4CB4F89A3152
:103CE000984205DBB0F5FA6FA8BF4FF4FA6000E028
:103CF0001846C01A4FF47A725043C3F5FA63B0FB0A
:103D0000F3F34FF0640E93FBFEF205EB42016FF00C
:103D1000630000FB023305EB4202098DB2F92A0071
:103D2000514F0AB2821A534393FBFEFE4F4B1B883E
:103D30007144F180590636D54D4BDFED4E7A1A8825
:103D4000474BB3F84030D31A1BB208EE903AF8EE66
:103D5000E88A68EEA78AB0EE680A0CF057FFB0EE6A
:103D6000408AB0EE680A0CF0EFFEB7F90220B7F90E
:103D7000003006EE902A07EE903AF8EEE66AF8EE8A
:103D8000E77A20EE667AA7EE887A67EE807ABDEE53
:103D9000C77AE6EE887A17EE103AFDEEE77A3B80B6
:103DA00017EE903A7B80344B1A6812F0020F9A4655
:103DB00000F09680314B6A6C1B68294F9A1A45F2C5
:103DC00007218A4240F38C807B640FF0B5F92C4BBD
:103DD000DFF8B8801A78032A9946B8F8003022D163
:103DE0000A2B2CD90023282089F8003003F0AFFBE0
:103DF0000FF0A2F9B7F8480005F006FC214B224964
:103E00001B68DA7890FBF2F0421C082A28BF0822CF
:103E10000A7059791B7992B251435A43A7F84A1054
:103E2000A7F84C200BE00A2B09D80323164A89F87F
:103E3000003000231370A7F84A30A7F84C3099F8E7
:103E400000200F4B012A2DD022D3022A3ED047E07A
:103E500032070020A812002074070020AC100020B8
:103E6000782800200CFEFFFF7E120020240700208F
:103E70009411002035FA8E3CB80500205C19002012
:103E8000442C0020E42B002035000020E82B0020EB
:103E9000B5F84A20B8F800309A4221DD012389F8AC
:103EA000003011E0B8F80020B5F84C10914202DD66
:103EB00002221A7011E0A049B1F84A1001318A4279
:103EC00002DD00221A700BE0082007E0B5F84C3044
:103ED000B8F8002001339A42E0DC072007F012FA1C
:103EE000DAF800703A0573D5944B296D1A68924B35
:103EF000C1EB020B45F207218B4569DD9049B6F90C
:103F00000690D1F800801A6598F80A10B4F85201AA
:103F10008C4E4FF47A7201299BFBF2FBA9F57A795A
:103F200003D03ED302291CD03DE0586D082190FB00
:103F3000F1FECEEB000090FBF1F14FF0000E586562
:103F4000A3F858E089B2B8F8083040F6E44041439D
:103F5000C3EB1131B8F906304A4392FBF3F23260F9
:103F600021E0794BB8F808A01B78C6F800A05B07E1
:103F700019D50AF0C1FE20B917F0100F18BF4FF085
:103F8000000909FB09F2322392FBF3F39944B8F9D3
:103F900006304FF47A7203FB09F393FBF2F35344B8
:103FA00000E0002333603368684AD5E9180103FB59
:103FB0000BFB4FF47A739BFBF3FB10EB0B0041EB15
:103FC000EB710023C5E9180111F054F8604B18603B
:103FD000604B1A6812F4805F984626D03F0621D5C0
:103FE0005D4B1B789E071DD55C4B1978042919D9A8
:103FF00000235B4E05229A551E44981C0A27122B5B
:10400000C2B2777004D0B1EB520F0346F1D800E092
:1040100014222A44322382F86730FF2382F8683062
:104020000F2000E00A2007F06DF9D5F88070424EAD
:10403000002F46D04B4BD6F8842019688A429A4606
:104040003FD896F88830B6F88A907A68ABB90123E1
:1040500086F8883012F80920CAB186F88C3003F04F
:1040600045FAB9F1000F12D13B78053B012B0ED870
:1040700003F073F9C6F8900009E0002386F8883051
:1040800012F809201AB186F88C3003F02FFAB5F82F
:104090008A107A68284B525CFE2A03D10022A3F8CA
:1040A0008A200EE0FF2A02D107F012F909E0DAF8BF
:1040B00000000A2616FB02020131C3F88420A3F88F
:1040C0008A10214E3278500704D5274B4FF4804296
:1040D0005A8362E0D8F80030D9075CBF42F0010291
:1040E00032701D4A1278120703D4327822F001028E
:1040F0003270DB0203D5337823F0010333701B4B9E
:104100001B685F0702D51A4A128862B9194A1288D9
:104110000AB1980705D4184B1B88003318BF012338
:1041200000E0012353B3022385F88C30337823F069
:104130000103337028E000BF782800205C190020BC
:10414000E42B0020F02B002072190020407E050097
:10415000F42B0020200700206E0700208C10002088
:10416000E028002048510020000C02401C070020DD
:10417000102A00201E110020681900203278D10773
:1041800058BF022385F88C3003F0E7F8D5F8943057
:10419000C01A002801DB03F0A9F90DF045FFBB4B65
:1041A0001A789946002A78D0D5F89830002B00F07C
:1041B000DE86D5F89800B64C03F04DFA002800F0E2
:1041C000D686D4F8980003F041FA092801D03F2898
:1041D00055D14FF00008D5F89C60AE4F44462EB143
:1041E000AD483968324611F0A5FE10B9B84604B999
:1041F0003C46AA4B10379F42F1D304B3D4F800E0F9
:10420000D8F800C0D5F89C30A1481EF803701CF8FF
:104210000310B94213D15A1C59B92D2B09D8C0F833
:104220009C2003440244202783F8A07082F8A01049
:1042300005E02B44C5F89C2083F8A070E2E7D5F890
:104240009C300BB1444510D0954803F067FA4445C3
:1042500007D854F8100B03F061FA092003F057FA5D
:10426000F5E7904803F05AFA0026D5F89C309E42B4
:104270009FD2894B985D03F04AFA0136F5E7D4F8EE
:104280009C30002B40F09986042840F0078704F109
:10429000A00007F097FD00F06ABE834F97F84A3000
:1042A000012B40F05F86DFF81C82804B3A68C8F82B
:1042B00000701A60C346DFF8F4A15246106803F09C
:1042C000CAF9002800F03C86DAF8000003F0BEF9D5
:1042D000DBF8003093F84810024619B924283DD184
:1042E000012238E0012904D14D280CBF022200220E
:1042F00031E0022904D13C280CBF032200222AE02D
:1043000003290CD140284FF0000102D983F848104E
:1043100045E058711971D971987104221BE0042984
:1043200007D1997983F8490080EA01029A71052240
:1043300011E0052933D1587919798842987906D93D
:1043400050409871481C18710B441A7227E0904233
:104350000CBF0622002283F8482020E033785B0758
:104360001DD4232ADAF800300ED10121504889F8F3
:104370000010C5F89830C5F86831029203F0CEF904
:10438000484803F0CBF9029AD5F86C311B78934278
:1043900005D1484B484A1A60484B494ADA60DBF875
:1043A0000030DFF820A193F84820062A83D193F843
:1043B000490001F07BFE8346002840F0B785DAF81B
:1043C000002092F849304A2B00F077817ED8332BB9
:1043D00000F0F28421D8292B00F08C8409D8252BF9
:1043E00000F04984272B00F06784232B40F0E285FE
:1043F0001BE12D2B00F08F8407D82B2B40F0DA85A2
:1044000002F08AFE607100F08EBD2F2B00F03F8518
:10441000312B00F0518500F0CDBD3E2B00F04381E3
:104420001DD8372B00F0FC8404D8352B00F0978280
:1044300000F0C0BD392B00F04C843C2B40F0BA8515
:10444000DFF884A0DAF800B002F066FE8BF8000016
:10445000DAF80030187803F001FC00F064BD432B5B
:1044600000F0BB8407D8412B08BF4FF0000A00F0D2
:10447000A88400F09FBD442B00F05285482B40F0EB
:1044800099850FF0CFFD00F04EBD00BF70190020E0
:1044900078280020C4A901081829002094AB01083D
:1044A000F4AD0108F9AD0108482900209C2C00203A
:1044B00029AE0108FCFF0120EFBEADDE00ED00E0FB
:1044C0000400FA05982C0020AC100020D02B00F03E
:1044D0004A8368D8CA2B00F0F5801CD84E2B00F018
:1044E0003D8410D84C2B40F0658502F015FE84F811
:1044F000D00102F011FE84F8D10102F017FEA4F8F9
:10450000D20100F010BDC82B00F08580C92B00F04F
:104510004C8300F04FBDCD2B00F0308304D8CC2B62
:1045200000F0478200F046BDCE2B00F03083CF2B49
:1045300040F0408502F0FAFD6FF4AF6143189BB282
:10454000C62B98BFA4F8980102F0F0FDA4F844012E
:1045500002F0ECFDA4F8460102F0E8FDA4F84801E1
:1045600002F0E4FDA4F8D20102F0D6FD84F8E301E4
:1045700002F0D2FD02F0D0FD84F8E40102F0CCFD9F
:1045800084F8870102F0C8FD84F8940102F0C4FDAC
:10459000CE4BD3F800A002F0C9FD00EB8000400034
:1045A000AAF8560095E3D62B00F053820AD8D22BF6
:1045B0001BD0C0F02283D32B27D0D42B00F0548201
:1045C00000F0F8BCEF2B5ED007D8D82B08BF4FF017
:1045D000000B00F0198100F0EDBCF22B00F09B8283
:1045E000FA2B00F0DE8200F0E5BC3378580700F1CA
:1045F0009A8402F091FD022884F8A40740F2B9825F
:10460000B34B002283F8A427B3E202F08FFDB14B35
:10461000188000F088BC92F805B04FEA5B0BBBF144
:10462000120F1FD84FF0000A20E002F075FD13288A
:1046300018D8DFF898B2DBF8003000F11E0203EB67
:10464000820202F1010A029202F066FDA24B029A76
:1046500003F5A27193F808E0864500F062810C33FF
:104660008B42F7D10CF038F800F05DBCDA4507D288
:1046700002F05CFD994B23F81A000AF1010AF5E7F4
:104680000122974B8BE2DFF844A2DAF800B002F087
:104690004DFDABF85A00DAF800A002F047FDAAF889
:1046A000580000F040BC02F037FD84F8D60102F05B
:1046B00033FD84F8D50100F036BC02F037FDA0814F
:1046C00000F031BC814B1A681278022A9A467DD1DB
:1046D000DAF80030019302F01FFD07EE100AF8EE41
:1046E000477AB2EE048AC7EE887A019B03EB8B030C
:1046F000C3ED087ADAF80030019302F00DFD07EE01
:10470000900AB8EE677ADFED777A019BC7EE277AD9
:1047100003EB8B03C3ED0B7ADAF80030019302F060
:10472000FBFC07EE900AB8EE677ADFED6F7A019B2B
:10473000C7EE277A03EB8B030BF1010BBBF1030FE1
:10474000C3ED0E7AC4D1DAF800300193BBF1070F44
:1047500021D102F0E1FC07EE100AF8EE477A019B46
:10476000C7EE887AC3ED117ADAF80030019302F0CF
:10477000D3FC07EE100AF8EE477A019BC7EE887A61
:10478000C3ED127ADAF80030019302F0C5FC019B08
:1047900083F84C0014E002F0BFFC019B5B445870AE
:1047A000DAF80030019302F0B7FC019B5B44D87249
:1047B000DAF80030019302F0AFFC019B5B445875BE
:1047C0000BF1010BBBF10A0FBDD1ACE3DAF80030FD
:1047D000019302F0A1FC019B5B445870DAF80030B1
:1047E000019302F099FC019B5B44D872DAF8003027
:1047F000019302F091FC019B5B440BF1010BBBF1B7
:104800000A0F5875E2D18EE3DFF8C0A09FED368A1B
:10481000DAF80030019302F089FC07EE100AF8EE96
:10482000477A019BC7EE887A03EB8B03C3ED087AC6
:10483000DAF80030019302F079FC07EE100AF8EE86
:10484000477A019BC7EE887A03EB8B03C3ED0B7AA3
:10485000DAF80030019302F069FC07EE100AF8EE76
:10486000477A019BC7EE887A03EB8B030BF1010BB0
:10487000BBF1030FC3ED0E7AC6D1DAF80030019315
:10488000BBF1070F32D102F051FC07EE100AF8EE2F
:10489000477A019BC7EE887AC3ED117ADAF80030C7
:1048A000019302F043FC07EE100AF8EE477A019BF1
:1048B000C7EE887AC3ED127ADAF80030019302F07D
:1048C00035FC019B83F84C0025E000BFAC100020B4
:1048D000740700208612002094AB010832070020E4
:1048E000110700200000C84200007A4402F01EFCBC
:1048F000019B5B445870DAF80030019302F016FC1B
:10490000019B5B44D872DAF80030019302F00EFC90
:10491000019B5B4458750BF1010BBBF10A0FACD145
:1049200001E31B78537002F0F7FB8AF8010002F0F4
:10493000F3FB8AF8020002F0EFFB8AF80300DBF8D1
:104940000000D04BC5F8740100217930C5F87031F2
:1049500002F0F2FCCC4B80F001001870E3E202F0B0
:10496000DBFB0B283FF67EAEC84B4FF0060B0BFB74
:1049700000F01B68C83003EB000B02F0CDFB0328EE
:104980003FF670AE8BF8060002F0C6FB8BF8010014
:1049900002F0C2FB8BF8020002F0BEFB8BF80300B2
:1049A00002F0BAFB8BF8040002F0B6FB8BF80500AE
:1049B000B9E25379092B7FF655AEDFF8F4A2DAF8A5
:1049C00000B002F0A9FB8BF80000DAF800B002F0AA
:1049D000A3FB8BF8010002F09FFBDAF8003064289B
:1049E000A8BF6420187102F097FBDAF80030642841
:1049F000A8BF6420587102F08FFBDAF80030FF285E
:104A0000A8BFFF20987102F087FBDAF800B0642895
:104A100028BF64208BF8070002F07EFB8BF80200B1
:104A2000DAF800B002F078FB8BF80300DAF800B097
:104A300002F07CFBD8F80030ABF80A005B790A2B57
:104A400040F27182DAF800A002F066FB8AF80800F2
:104A500069E202F06BFB8E4B23F80B000BF1020BAB
:104A6000BBF1100FF5D15EE253790F2B7FF4FAAD55
:104A700002F052FB072882463FF6F4ADDFF80CB295
:104A8000DBF80030019302F051FB0E22019B02FB88
:104A90000AFA5344A3F81901DBF80030019302F03D
:104AA00045FB019B5344A3F81B01DBF80030019345
:104AB00002F03CFB019B5344A3F81D01DBF80030DE
:104AC000019302F029FB019B534483F81F01DBF89B
:104AD0000030019302F020FB019B534483F8200136
:104AE000DBF80030019302F017FB019B534483F87D
:104AF0002101DBF80030019302F00EFB019BDBF893
:104B000000B0534483F8220102F01AFB0BEB0A03B6
:104B1000C3F8230107E202F0FFFA0F2882463FF6AE
:104B2000A1AD02F0F9FACAEBCA0AA2448AF8D4008D
:104B300002F0F2FA8AF8D50002F0EEFA8AF8D6000E
:104B400002F0EAFA8AF8D70002F0E6FA8AF8D8000A
:104B500002F0E2FA8AF8D90002F0DEFA8AF8DA0006
:104B600002F0E0FFDFE133785A0700F1DC8108F062
:104B70008BFD0BF091F80DF009FFD4E133785B0762
:104B800000F1D181434B4FF4C8721A80CBE13378E6
:104B9000580700F1C881404B1A7842F004021A709D
:104BA000C1E133785907E4D504E202F0B5FA3A4B93
:104BB0001A7810B142F0020201E022F002021A70EB
:104BC00002F0AAFA354BDFF8ECA0187002F0B8FA40
:104BD000CAF8000002F0B4FACAF8040002F0A6FA1B
:104BE0002F4B188002F0A2FA2E4B188095F87831DE
:104BF00043F0020385F8783195E102F08DFA0290D6
:104C000002F09EFA019002F09BFA834602F098FAB5
:104C1000824602F08BFA02F089FA02F07DFA029ADB
:104C2000019B9AB91020C5F87C31C5F880B106F017
:104C300001FC194B1A7842F001021A70BAF1000F08
:104C400000F07181184BC3F800A06CE1102A40F00D
:104C50006A81C5F88431C5F888B1BAF1000F02D075
:104C6000114BC3F800A011480223011D85F88C31B7
:104C70000AF052FF57E1A06002F062FAA3681843FD
:104C8000A06050E1B808002011000020AC10002006
:104C9000AA1300201E1100206E0700208C10002097
:104CA000FA2B0020F82B002028070020FC290020E8
:104CB000A8120020002C002002F038FAA4F85C01B1
:104CC00002F034FAA4F85E0102F030FAA4F86001B0
:104CD00029E102F021FA84F87C0102F01DFA84F83F
:104CE000800102F019FA84F87F0102F015FA84F8C5
:104CF000810118E102F01AFAA4F8820102F016FA12
:104D0000A4F8840102F008FA84F8860102F00EFA91
:104D1000A4F8880107E102F0FFF984F8920102F09B
:104D200005FAA4F89C0102F001FAA4F8980102F037
:104D3000FDF9A4F89A0102F0EFF9DAF8003084F8EE
:104D400093015B79082B40F2EE8002F0EFF9A4F8B2
:104D50009E0102F0EBF9A4F8A001E4E052790323EC
:104D6000B2FBF3F30E2B3FF67DACDFF8C0A34FF0A0
:104D7000040B9B4580F0D780019302F0CDF98AF8AF
:104D8000A20102F0D3F940F2ED229042019B05DD31
:104D900040F6CA029042A8BF104601E040F2EE2061
:104DA000A0F2EE20192290FBF2F08AF8A3010BF199
:104DB000010B0AF1020ADCE702F0AEF984F8940173
:104DC000B1E002F0A9F904EB0A030AF1010ABAF111
:104DD000080F83F88A01F4D1A5E002F09DF9C4F828
:104DE00008B0607102F0ACF9A3681843A06002F04B
:104DF00093F984F8920102F099F9A4F85C0102F0A9
:104E000095F9A4F85E0102F091F9A4F8600102F0AE
:104E10008DF9A4F8820102F089F9A4F8840182E0F6
:104E200053794FF0070BB3FBFBF2C2EBC2029A1AA5
:104E300012F0FF0F7FF416ACB3FBFBFBBBF1000FCE
:104E400071D002F069F9C3B258B2019302F0B2F91D
:104E50000BF1FF3B5FFA8BFB8246019B00283FF47E
:104E600001AC037002F062F9AAF8020002F054F9F2
:104E70008AF8040002F050F98AF8050002F04CF9B3
:104E80008AF8070002F048F98AF80600D6E7DFF84A
:104E90009CA20AF1400B02F049F9AAF89C0202F028
:104EA0003BF98AF89E0202F037F90AF1040A8AF8FF
:104EB0009B02DA45EFD136E002F02EF91F283FF6CB
:104EC000D1ABD8F800305B79082B7FF4CBAB00F185
:104ED000860B02F02BF904EB8B0B00F03F00ABF8D4
:104EE000060002F023F9BBF80620800100F4FE530F
:104EF0001343ABF8063002F00FF900018BF8040001
:104F000002F00AF99BF8043000F00F0018438BF808
:104F1000040002F001F98BF805000CF0A3F802E0A0
:104F2000012385F88D31002002F0DCFBD8F8003039
:104F3000987902F0A8FBD8F80030002283F84820C6
:104F400095F88D3173B1386802F06BFB18B93220D7
:104F500002F0FDFAF7E706F0F7FE02F035FB604BD2
:104F6000604ADA60604B4C379F427FF497A95F4BF1
:104F70001B689A0616D55E4BD5F890211B689A1AC5
:104F8000002A0FDB5B4A1278042A0BD95A4A03F530
:104F9000123303F5F873C2F89031584B5A6982F412
:104FA00000425A61564B9B68002B00F09480554894
:104FB000984790E00BF090FBB8E70C2803D15248DB
:104FC00002F0ACFB5AE00A2801D00D2858D14A4C17
:104FD0004E4804F1A00602F0A1FB3046232110F058
:104FE00094FF10B1801BC4F89C00D5F89C30002BB6
:104FF00038D0591E404A705C202801D10B46F6E794
:10500000C2F89C301344002283F8A020404B414C4E
:10501000D3F800B0D4F800A0DFF8DC80504610F0E0
:1050200081FF08F1A007064651463846324610F087
:1050300081FF394B38B908EB060292F8A0205A4498
:105040005278520703D010349C42E3D306E09C42CE
:1050500004D2701CE3683844984702E02F4802F0FD
:105060005DFB00232E48C5F89C300021302210F053
:1050700019FF99F80030002B3FF479AF294809E077
:105080007F2811D1013BC4F89C30234400222648DC
:1050900083F8A02002F042FBFFF78BB80C288ED0DB
:1050A0007F2804D1FFF785B82F2B3FF682A8A0F107
:1050B0002002D2B25E2A3FF67CA813B920283FF422
:1050C00078A85A1C2B44C5F89C2083F8A00002F055
:1050D0001EFBFFF76EB807B0BDEC028BBDE8F08F8A
:1050E00000ED00E00400FA05E02900201C07002084
:1050F0005C1900208C10002078280020000C024051
:10510000941000200C2A0020FEAD01083AB90108D5
:1051100044010020C4A9010894AB010809AE0108AC
:1051200018290020F9AD010825AE010874070020F8
:105130002DE9F04FAA4EAB4A3368AB4C03F59C43C4
:10514000203313602388A94A01331168238042F277
:1051500001030B4087B093461BB1A54B1A7801326F
:105160001A7006F077FCDBF80030DD0405D5A14BA2
:105170001B68D80701D40CF02FFD9F4B9F4D1A6878
:10518000937A23B3013B127B35F813301AB1C3F580
:105190003B6308339BB21BB2A3F57A73B3F57A7FF6
:1051A000A8BF4FF47A7323EAE37307EE903AB8EEA0
:1051B000E77ADFED937A934BC7EE277A9FED927AE9
:1051C00067EE877AFCEEE77A17EE902A1A80DBF812
:1051D0000030D90540F1858032688C4B9A4204D961
:1051E000237913B9804B01221A71B4F900E0884980
:1051F0007D4B0E78BEF1140FCCBF4FF0000E4FF078
:10520000010EC6F38006BEF1000F03D000279F7188
:105210005F7100E00327764BB4F900C058687D4BFE
:1052200094F80680D3F800A0617963882A88B8F1E1
:10523000030F4DD8DFE808F0020E223BBEF1000F4D
:1052400002D02A80002230E0002E40F0AB862A8077
:10525000A67140E090F8009009EB8909CC45CCBFDD
:10526000B1464FF000094FF00108B9F1000F2FD0FF
:10527000013341469BB24FF00208D8E736B1BAF885
:105280000E206A80AA804788EF80022790F800905D
:1052900090F80180C84408EB8808C44500F386866E
:1052A000002E00F083862A800222A27113E02A8059
:1052B0000322A271617163807EB155490B7843F07E
:1052C00002030B70484B00225A710CF085FC04E07D
:1052D0002A8084F806806171638017B1384606F031
:1052E00011F84D4FB7F8520109F006FD814660B93B
:1052F00002F0EAFC3E4B0022C3F80890C3F80C9081
:10530000C3F810905A619A61DA61414A13785A07DA
:1053100042D5DBF80030DB063ED5404B1B78DE067D
:105320003AD43F4B324E93F80080B8F1000F10D0C2
:1053300097F8D631B9F1000F15D16BB1394B1A6816
:10534000336A9B1A002B07DA0CF046FC86F824908F
:1053500022E0B9F1000F18D1102005F0D3FF01238E
:1053600086F8243018E033B12E4A12684FF47A716F
:1053700001FB0323336296F824306BB105F0A8FFDC
:105380001B4B002283F8242006E096F824301BB142
:1053900005F09EFF86F82480002297F8D4A197F8A4
:1053A000D511B7F89A61B7F89CE11346A85E9B083F
:1053B000B042C4BF63F07F03DBB202327045B8BFB6
:1053C00043F04003082AF1D1094E96F825209A426D
:1053D0002AD196F82620F92A29D8013225E000BFE3
:1053E0005C1900201407002094130020B805002049
:1053F000142A002020070020BC05002032070020CE
:1054000000007A440C2B002000C07F44404B4C002D
:1054100072190020641B0020740700206E07002012
:105420001100002048510020002286F8262086F82E
:105430002530974BDFF890821A78EAB9D8F8003017
:10544000D80709D5B9F1000F16D192490B78D907C1
:1054500012D50CF041FC0FE08E4A13785A070BD599
:105460008D4B1B7843B1637933B911B10CF0B4FBA8
:1054700002E0B9F1000FF9D096F82620874BDFF84B
:105480005092142A40F09A8081490A781AF1000A51
:1054900018BF4FF0010A7AB393F825205F2A12D182
:1054A0007C490A7802F0040202F0FF0112B10CF00C
:1054B00093FB08E00B200191009305F023FF009B74
:1054C000019983F82610BAF1000F15D096F825300F
:1054D0007D2B11D16F4A137803F0040303F0FF0210
:1054E00013B10CF079FB07E00B20019205F00AFFE5
:1054F0006A4B019A83F8262066490B7803F004036F
:1055000003F0FF00002B59D196F82530634A572B42
:1055100016D1634B4FF47A721A80DBF800301B0609
:1055200001D50BF037FC5F4B1B68580702D55E4A6C
:105530000A21118013F0080340D15C4A13803DE03A
:10554000DBF80010490715D55A2B13D1584B1978A1
:1055500019B118700122574B1EE092F8273083F0E2
:10556000010382F827300BB10C2000E00D2005F07C
:10557000C9FE23E05D2B00F01D855B2B00F01C8530
:105580005E2B0BD1032000F018BDA72B40F0338514
:10559000494B1A7842F004021A700FE0562B03D1DF
:1055A00000930FF087FA009B39490A78002A00F02F
:1055B00019856F2B40F010850CF08EFBDBF8003066
:1055C0005B0734D596F82730A3B1324A13785807D1
:1055D00010D5B5F90620B7F89A319A420ADDD8F805
:1055E000003013F0010305D1344A322111802B4AD7
:1055F00082F82730D8F80030D9030AD5304B1A7812
:105600002AB92B4A127812B92C4A32211180012270
:105610000CE0274B1A7852B11E490A7802F00402B6
:1056200002F0FF011AB91970224B01221A70D9F841
:105630000090002709F1790AC8F8007009F17B068B
:105640000AF10203D919DA5D4B7816F8010C9A4277
:105650000CD2314609F0BDFB40B116F8023C0122E4
:105660009A40D8F800301343C8F800300437502F60
:1056700006F10406E4D1134B1F785FB3124E094FB5
:105680003368124D13F0020F40F0508348E300BF1F
:105690001100002072190020B1050020142A0020FA
:1056A000681900201C070020102A002094110020F7
:1056B000491100204A1100206E07002030110020FF
:1056C0004811002070190020200700202407002026
:1056D000AC10002009F1C90A09F1CA060AF1010358
:1056E000D919DA5D4B7816F8010C9A4229D2314665
:1056F00009F06FFB28B396F802E0BF4B307996F8BB
:1057000003900EF1FF3E0EEB4E0E9E44BB4B4FF04E
:105710000C0C03F128080CFB00FC08EB0C014A6898
:1057200072450ED0002208F80C908A60012202FA1D
:1057300000F093F85820C1F804E022EA000083F852
:1057400058000637482F06F10606C7D1AC4BDFF8E4
:10575000D0921E68AB4B1B680293AB4B1B78039334
:105760004FF00008D9F80030002B00F0D0821F78ED
:10577000002F00F0CC82D9F8042002998A1A002A5E
:105780000DDB01F5FA72C9F804209C4A012192F858
:10579000580001FA08F120EA010182F85810039A32
:1057A000002A00F0B48219F8041C5878934A043196
:1057B000C9B2002840F06A82944835F91110B0F857
:1057C000980100F1C80E714502DD93F802A015E0C2
:1057D000C838814203DA9B78C3F1000A0EE092F8E0
:1057E0005810012303FA08F321EA030382F8583022
:1057F000029A02F5FA73C9F8043088E292F8583038
:1058000043FA08F3DA0700F18282BAF1000FCCBF45
:105810000220012005F0E6FD7B1E132B00F26E82B4
:10582000DFE813F0140021002E003E0056005D005A
:10583000C3003C01A201D20102026C023E004C00F6
:105840005D00C3003C0193000E017201377857449C
:10585000FA2FA8BFFA2727EAE7773046377001F01A
:105860002FFD01201AE077785744642FA8BF6427E2
:1058700027EAE7773046777001F022FD02200DE03D
:10588000F778634B5744642FA8BF642727EAE7776C
:10589000F7703046196801F0CDFC03203946C0E1AD
:1058A000717951446429A8BF642121EAE1717171C1
:1058B0000D2003F0BFFE0D2F00F0208231795144FE
:1058C0006429A8BF642121EAE17131710E20A8E1A9
:1058D000B179514481F30801B1710520A1E14D4B2B
:1058E0001B681A78022A22D107EE90AAB8EEE70ABE
:1058F000F2EE047A80EE270AD3ED097A30EE270A19
:10590000B5EEC00AF1EE10FA09D4DFED437AB4EE39
:10591000670AF1EE10FAC8BFB0EE670A01E09FED2A
:105920003F0A83ED090A0F2003F098FE0AE09978F8
:105930005144C829A8BFC82121EAE17199700F20FC
:1059400003F078FE0F2F00F0D981324B1B681A78D4
:10595000022A20D107EE90AAB8EEE70AF2EE047A06
:1059600080EE270AD3ED087A30EE270AB5EEC00A9A
:10597000F1EE10FA09D4DFED287AB4EE670AF1EE01
:1059800010FAC8BFB0EE670A01E09FED240A83ED6C
:10599000080A12206DE159785144C829A8BFC821CE
:1059A00021EAE171597012203BE11A4B1B681A7809
:1059B000022A37D107EE90AAB8EEE70ADFED167A91
:1059C00093ED0C7A80EE270A30EE070AB5EEC00A96
:1059D000F1EE10FA07D4B4EE670AF1EE10FAC8BF80
:1059E000B0EE670A01E09FED0D0A83ED0C0A10206E
:1059F00003F034FE21E000BF43B30108142A002065
:105A0000A812002048510020B10500207407002092
:105A1000E8290020EC2900200000C8420000000016
:105A2000402A0020197B5144C829A8BFC82121EA77
:105A3000E1711973102003F0FDFD102F00F05E815D
:105A4000C34B1B681A78022A1ED107EE90AAB8EE43
:105A5000E70ADFEDC07A93ED0B7A80EE270A30EE8D
:105A6000070AB5EEC00AF1EE10FA07D4B4EE670AE1
:105A7000F1EE10FAC8BFB0EE670A01E09FEDB60A7A
:105A800083ED0B0A1320F4E0D97A5144C829A8BF4A
:105A9000C82121EAE171D9721320C2E0AC4B1B6826
:105AA0001A78022A22D107EE90AAB8EEE70ADFEDB3
:105AB000AB7A80EE270AD3ED0F7A30EE270AB5EEE7
:105AC000C00AF1EE10FA09D4DFEDA27AB4EE670A4B
:105AD000F1EE10FAC8BFB0EE670A01E09FED9E0A32
