:020000040800F2
:10000000B005002089010008453F0108653F01084F
:10001000433F0108413F01083F3F01080000000045
:100020000000000000000000000000003D3F01084B
:100030003B3F010800000000393F0108473F01082D
:10004000E5010008E5010008E5010008E5010008F8
:10005000E5010008E5010008E5010008E5010008E8
:10006000E5010008E5010008E5010008E5010008D8
:10007000E5010008893D0108E5010008E5010008E7
:10008000E50100084D3C0108E5010008E501000814
:10009000E5010008E5010008E5010008E5010008A8
:1000A0004D3B01087D3B0108E50100088D3B01083F
:1000B0006D3B0108E50100085D3B0108EF3D0108CB
:1000C000DD3D0108E93D0108D73D0108E5010008D3
:1000D000E5010008E53C0108413C0108E501000894
:1000E000553F0108E5010008813F0108E5010008CE
:1000F000E5010008E5010008E5010008E501000848
:10010000E5010008E5010008E5010008E501000837
:10011000E5010008E5010008E5010008E501000827
:10012000E5010008E5010008E5010008E501000817
:10013000E5010008E5010008E5010008E501000807
:10014000E5010008E5010008E5010008CD310108DE
:10015000E5010008A93B0108F13C01089D3B0108AD
:10016000E33D0108D13D0108E5010008E501000873
:10017000E5010008E5010008E5010008E5010008C7
:10018000E5010008E5010008002100F004B80F4B6C
:100190005B58435004310E480E4B42189A42FFF40C
:1001A000F6AF0D4A00F003B8002342F8043B0B4BB6
:1001B0009A42FFF4F9AF0A48016841F47001016006
:1001C00013F048FC00F010F870470000E0A80108A8
:1001D00000000020B0010020B0050020D84F002012
:1001E00088ED00E0FFF7FEBF2DE980489BB002F0EC
:1001F000E9F8BE4CBE4DDFF80CB301222A706278DC
:10020000DBF8007000232370A24622B16268BA1A9C
:100210009A42A8BF6370A668300740F17881B34B5B
:10022000DB681B7A062B00F24E81DFE813F0070033
:1002300007003300E500160143014301237CAB4A6C
:10024000002B00F0418100231374536992F811E0F0
:1002500092F8188093F800C002230AEB030003F120
:100260000109427EA14942FA0EF202F00F026245F4
:100270000CD20B2A0AD88944407E99F8199001EBD8
:10028000820200EA080009EB0020D0620233102B42
:10029000E3D116E194F85C20944B002A00F0AA8088
:1002A00093F8AA10002283F85C2093F8A92001F0AB
:1002B000070042EA00221A6693F8AB2002F03F00E2
:1002C000400140EAD101596693F8AC10890041EA37
:1002D000921193F8AD2002F0010041EA8021996665
:1002E00093F8AE1001F00F00C00140EA5202DA6646
:1002F00093F8AF2002F07F00000140EA1111196766
:1003000093F8B010490041EAD21293F8B11001F00D
:10031000030042EA40225A6793F8B22002F01F001D
:10032000800140EA9101996793F8B310C90041EA4E
:10033000521293F8B510DA6793F8B42001F0070071
:1003400042EA0022C3F8802093F8B62002F03F0072
:10035000400140EAD101C3F8841093F8B710890036
:1003600041EA921193F8B82002F0010041EA80219D
:10037000C3F8881093F8B91001F00F00C00140EAEB
:100380005202C3F88C2093F8BA2002F07F000001DB
:1003900040EA1111C3F8901093F8BB10490041EAEC
:1003A000D21293F8BC1001F0030042EA4022C3F8D5
:1003B000942093F8BD2002F01F00800140EA9101D3
:1003C000C3F8981093F8BE10C90041EA5212C3F85E
:1003D0009C2093F8BF20D1074CBF40F21471AD218F
:1003E0009207C3F8A0104CBF40F21473AD23C4F8B9
:1003F000A43066E0134667E094F8C1303B4A002120
:10040000002B61D082F8C11092F8C320012A03D0DA
:10041000812A20D1032300E0134694F8E720102A14
:1004200003D9324A102182F8E71094F8E7003149E5
:1004300000225FFA82FE864501F1020144D211F8E2
:1004400001EC11F802CC4EEA0C2CDFF8BCE04EF8BF
:1004500022C00132EDE70B4636E094F82821234B09
:100460008AB3002283F8282193F82921A82A2AD1C7
:1004700093F83C313BBB0AEB43029FED1F7A92F8A5
:100480002C1192F82D2102EB012207EE902AF8EEB2
:10049000E77A1A4AC7EE877A9FED197A77EEC77A1C
:1004A000FCEEE77A17EE901A42F823100133082B7E
:1004B000E1D106E094F8603133B10C4B002283F8AF
:1004C0006021012300E0002313F001021ED083F01D
:1004D00002030122C3F3400322706370BBB1F30532
:1004E00015D500232B7010F0F9FD10E0B0050020A9
:1004F0000000002075060020CDCCCC40F006002086
:100500000080BB4394190020980600202A707004D4
:100510000DD594F8613123B1B44B002283F86121E9
:10052000012323701BB1F10501D510F0D7FD44F272
:10053000080333400BB123780BB9B20403D507F598
:10054000C333A0336360F30710D594F8621194F8B5
:100550006321A64B8A4207D001225A7007F5C332A5
:10056000A0325A6083F8631163782B70237833B913
:100570009E4BD3F86431FF1AFF43FF0F00E00127C1
:100580002FB104F091FB012384F8683180E1D4F8A5
:100590006C31964A013303EAE3733006C2F86C31DA
:1005A00040F17681D4F87031BBB994F87431013BD5
:1005B000052B00F26D81DFE813F01700170017001C
:1005C000170058013301894BD3F8700107F0DAFFA7
:1005D0000AF018FE08B111F02BFBDAF8700107F0F1
:1005E000D6FF0028EFD1E0E7D4F894217F4E1278AF
:1005F000012A05D0C0F00281022A00F0FF8047E105
:10060000D6F8700107F0A9FF002800F0418196F8A4
:100610007431013B032B00F23B81DFE803F002461B
:10062000568A734BD4F88C211968704B8A1AC72AE2
:1006300040F22E81D3F88801042834D86D4AC3F8DB
:100640008C110C2606FB0020D3F8706190F8217005
:10065000D6F808C00023104650F8231061455FFA11
:1006600083FE04D00133082BF6D1002300E073464B
:10067000BB4205D0304652F8271007F07EFF07E155
:1006800094F875310C2202FB0300476A17F8011B2E
:1006900019B1304607F08EFFF8E7D4F888310133FE
:1006A000C4F88831F4E00220F0E0524B94F8752150
:1006B000D4F870010C2101FB023292F8212053F88A
:1006C000221007F05AFF0320E0E094F890311BB9A4
:1006D000464B012283F8902194F89031434E012B30
:1006E00017D1D6F88831072B0DD8424AD6F87001B9
:1006F000134493F85C1007F05DFFD6F8883101339E
:10070000C6F8883105E00023C6F88831032386F84F
:10071000903194F89021354B022A40F2B980D3F8F9
:100720009821002A00F0B480002283F89021042050
:10073000ACE0D4F894212D4B9278002A6ED093F837
:10074000902112B9012283F8902194F89031274E1C
:10075000012B25D1D6F89831274A9342D6F8883113
:100760000FD8E22B06D8234AD6F87001134493F829
:1007700064100EE00023C4F88831022384F890311D
:100780000EE0DB2BF6D81B4AD6F87001134493F821
:10079000471107F00FFFD6F888310133C6F88831CA
:1007A00094F89031114E022B1AD1D6F888310F2BC4
:1007B00013D8D6F894210F495278D6F8700102EB7D
:1007C00002120A44134493F8241207F0F3FED6F8F9
:1007D00088310133C6F8883102E0032386F890316E
:1007E00094F89031022B53D918E000BFB0050020D7
:1007F000BC4F0020B46701086F110100012B47D8DE
:10080000964B96F87521D6F870010C2101FB023247
:1008100092F8212053F8221007F0AFFE052035E0B2
:10082000D4F87C218E4B0132C4F87C21D4F8942179
:10083000D2785AB193F875210132D2B20521B2FBB8
:10084000F1F101EB8101521A83F87521854B1B6888
:10085000C4F88031002384F89C3194F89D3123F052
:10086000020384F89D31012010E07E4BD4F88021F2
:1008700019687B4B8A1A40F6C4118A4208D9D3F80A
:10088000A02122F02002C3F8A02106200BF0D8FD01
:1008900007F026FC94F8B731CBF80000D4F8A46137
:1008A0001BB3714B1B7859071FD56D4B13A8D3F899
:1008B000803998479DF84C309BB1D4F88829DBF8F3
:1008C0000030674ED4F88C891344C4F8A43106F57F
:1008D0001960D4F87839984706F51967002873D05D
:1008E00008E0624B1B689E1B00E0861B002EE4DACA
:1008F00001F008BD3946384696F896290AF005FAFF
:100900005B490B88002B56D0D6F898391B7800200D
:1009100008EE103A06F69C168146554ADFF85CE16F
:100920001388B3F57A7F03D100224EF8002032619C
:1009300037F909C05EF8002062444EF800203269A1
:1009400005EE90CA0132012AF8EEE57A326143D110
:100950000022C6ED017AC6ED007AB260454A4FF03A
:10096000000E012B27F809E029F802E060D1D6F843
:1009700010E0BEF1010F4ADD0EF1FF3E00EE10EA7D
:10098000D6ED037AB8EEC00A87EE800A0890079188
:10099000069314F053FD08980799069B18EE102A49
:1009A000C2B3F8EEC87AB4EEE70AF1EE10FA31DD20
:1009B0004FF47A730B8000232E4AF95A9A5A8A1AF6
:1009C000FA520233062BF7D1D4F8A031244E13F09B
:1009D000020300F01C8353E096ED006A05EE902AB6
:1009E00077EEC66AB8EEE57A86EE877A36EE077A53
:1009F00037EEC76AD6ED027A86ED017AE6EE867AA0
:100A000086ED007AC6ED037AC6ED027AA6E79FED81
:100A10001A0ABBE7DFF864E050F80EC04FF47A7EA4
:100A20000CF5FA7C9CFBFEFEDFF848C02CF809E0D0
:100A300009F10209B9F1060F00F1040006F11406EC
:100A40007FF46BAF012B06D118460791069307F090
:100A5000B5FC069B0799013BACE700BFB4670108F2
:100A6000B0050020BC4F0020A819002094190020D8
:100A7000A4190020940F002000000000880F00201F
:100A8000D6F8F03906F6F810984706F6F819002857
:100A900000F0E280BF4B48461A7849460AF035F923
:100AA000B6F8FE39002B43D00022D6F8000A1346D0
:100AB000BAF8FE19DFF8ECE239F902C0B64EB1F52A
:100AC000C87F04BF00214EF803105EF80310614494
:100AD0004EF80310043300210C2B29F80210815228
:100AE00002F10202E4D1B6F8FE39012B1BD1D6F88F
:100AF000043A4FF4C872C83393FBF2F30380D6F87C
:100B0000083AC83393FBF2F34380D6F80C3AC83363
:100B100093FBF2F26B88D21A8280A8F85810A8F8DA
:100B20005A1009F009FCB4F8FE39013BA4F8FE396B
:100B3000A268994B52077BD5B3F8102A322A13D1F9
:100B4000D3F8002A1188A3F8121A51889288A3F8C2
:100B5000162AB8F85820A3F8182AB8F85A20A3F88B
:100B6000141AA3F81A2A01E0002A40D00022D4F86F
:100B7000001A1046BAF8103ADFF82CE239F902C030
:100B8000854E322B04BF00234EF800305EF8003053
:100B900063444EF80030043000230C2829F802305A
:100BA0009E468B5202F10202E4D1B6F8103A012BB4
:100BB00018D186F8293A86F828EA079107F0FEFB53
:100BC0000799B6F8123A0B80B6F8143A4B80B6F88B
:100BD000163A8B80B6F8183AA8F85830B6F81A3A90
:100BE000A8F85A30B4F8103A013BA4F8103A94F837
:100BF0002A2A694BE2B1D3F81C1AD3F8000A32262C
:100C0000002291FBF6F183F82A2A0180D3F8201AFA
:100C100091FBF6F14180D3F8243A93FBF6F66B880A
:100C2000F61A8680A8F85820A8F85A2009F084FB04
:100C3000D4F8003AB4F8F8191A888A1AA4F8F829EE
:100C40005A88B4F8FA198A1AA4F8FA299B88B4F8D1
:100C5000FC29D31AA4F8FC3907F042FAD4F82C3A4C
:100C60004E4AD4F8346AC4F82C0AC31A0AEE103A71
:100C7000114691ED006A96F800E0B8EE4A9A00231A
:100C800029EE066A083219460DF1340C0CEB4300CC
:100C900037F903C007EE90CAF8EEE77ADFF80CC127
:100CA00067EE867AC0ED007ABEF1000F1CD005EE2B
:100CB00090EAB8EEE57AF7EE006A86EE877A39F9BF
:100CC000030007EE900AF8EEE77A67EE877A36EED1
:100CD000C77AD2ED006AE6EE877AC2ED007AFDEEC1
:100CE000E77A17EE900A01E039F803002CF80300C8
:100CF0003CF803000233062B10FB001102F1040242
:100D0000C2D16B882648CDF820C04FF0640808FB9C
:100D100001F15B4391FBF3F8A8F149081FFA88F849
:100D20000DA910F0D5FBB8F13B0F96ED017ADFF875
:100D30007080DDF820C012D9B4F9581AD8ED020A33
:100D4000154B94F89D2107EE901AF8EEE77AF4EE31
:100D5000E70AF1EE10FA2BDD42F008022AE0F7EE86
:100D6000007A37EE276A424687EE866A00233CF90E
:100D700003000233062B07EE900AD2ED006AF8EE6C
:100D8000E77AE6EE877A67EE866AE2EC016AEED1F0
:100D9000D2E700BF90190020B0050020E00F00202E
:100DA000FC0F0020B40F0020CC0F0020F40F002017
:100DB00022F0080298ED010A83F89D2114F03CFB13
:100DC000DFF88C9398ED027AD8ED017A89ED000A6C
:100DD000F0EE408A27EE070A98ED008ADFEDD09A00
:100DE000A7EEA70A14F02AFBB1EE488AF0EE400AFB
:100DF000B0EE480A14F020FBB0EE408A89ED010AFB
:100E000028EEA90A14F018FA28EE290AA4F8640AB0
:100E100014F012FAD4F8A031A4F8660A1B071ED504
:100E200009F110000DA910F053FB96ED027AF7EED0
:100E3000007A37EE276A09F1100387EE866A09F116
:100E40001C09D3ED006ADFEDB77AE6EE877A67EE2C
:100E5000866AE3EC016A4B45F3D1B3482CE0B34B0F
:100E60000693181D0DA910F033FB95ED020A95EDC0
:100E7000017AD5ED037A20EE000AA7EE070AA7EE65
:100E8000A70A14F0DBFAB5EE400AF1EE10FA069B61
:100E900011D093ED017A87EE007A83ED017A93ED1C
:100EA000027A87EE007A83ED027A93ED037AC7EE39
:100EB000007AC3ED037A9E4807F03CFEA4F8780A56
:100EC000B4F9781ADFED9B7A9FED9B7AB4F9442A46
:100ED000B4F9463AB4F948CADFF86C8229EE279A89
:100EE00007EE901AF8EEE77AF1EE688A67EEC77AB5
:100EF000B1EE488ACDED127A07EE902AF8EEE77A45
:100F000013A8CDED137A07EE903AF8EEE77A10A920
:100F1000CDED147A07EE90CAF8EEE77ACDED108A9F
:100F2000CDED157A8DED118A10F0D2FA7378DDEDE2
:100F3000157A012B1FD1814B1B785E0711D4D8F88D
:100F40007C3A402293FBF2F29A1A07EE102AB8EE8E
:100F5000C77A37EE277ABDEEC77A17EE100AC8F8BF
:100F60007C0AD4F87C3A402293FBF2F305EE903AE7
:100F7000B8EEE57A04E0688807EE100AB8EEC77AA2
:100F80006F4B9DED130A93ED008AD4F8888A77EEB3
:100F9000C77ACDED157AD3ED017A79EE277A89EE0D
:100FA000279ADDED157A77EEC87AA9EE278A83EDC8
:100FB000008A14F041F9D4F8946A317810F0B0F94D
:100FC0009DED140A4044C4F8880AD4F88C8A14F0C1
:100FD00033F9317810F0A4F9B0EE480A4044C4F86F
:100FE0008C0AD4F8908A14F027F9717810F098F9E7
:100FF000544B1AEE101A1A680A441A60D4F8983A38
:1010000040440133C4F8900AC4F8983A05E0A6F8C1
:10101000F839A6F8FA39A6F8FC3907F061F8D4F8DF
:101020009C3ADFED447A484AD4F88C99CBF800001A
:10103000C31A1FFA83F805EE908AB8EE657A02F6B5
:10104000A42327EE277AA4F8A08A83ED007A99F8E2
:101050005230C4F89C0A33B994F8B8213A4B002AAC
:1010600000F02B812BE002F6A82393ED007AB5EE79
:10107000407AF1EE10FA9B4609D1D2F8882907EEA2
:10108000102AB8EE477A67EE277AC3ED007A002679
:10109000B85F99F85210DBED000A00EE100A2B48F9
:1010A000B8EEC00A00EB860007F0B1FBBDEEC00A47
:1010B00010EE103ABB530236062EE9D1CCE7D3F836
:1010C000C40A00284DD1996842F201020A40C2B117
:1010D00044F62062C3F8C42A09F17909034619F8D5
:1010E000031009EB030241B99078D178884204D209
:1010F0005378043384F8C83A30E00433502BEED1EF
:101100002CE093F83823012A06D002D3022A03D018
:1011100020E045F2F0521FE042F6F8221CE000BF4A
:101120004C3D0F44000000001C1000200000002077
:1011300004000020BD37863535FA8E3CA819002002
:1011400030100020A0190020B00500205C10002005
:101150000C10002042F21072C3F8C42A0123A4F834
:10116000CA3AD4F8CC2AC44B0AEB42010132042A11
:10117000A1F8D08AC4F8CC2A27DDB3F9D01AB3F984
:10118000D22A0A44B3F9D41A0A44B3F9D61A0A4443
:10119000B3F9D81AB3F9DA3A0A44052192FBF1F20D
:1011A00091B203F5C870814203DCA3F5C87399427C
:1011B00008DAD4F8C43AA4F8DA2AB3FBF2F301331C
:1011C000A4F8CA3A0023C4F8CC3A94F86821AA4B90
:1011D000E2B3B3F8CA1AB3F8DC6A08B20022A64B2D
:1011E00003F6DE2703F6023C32F807E032F80C8003
:1011F00003F60A3718FB06F832F8079022F807E0E2
:10120000C9EB0E0998FBF0F8C84422F80C800232B2
:10121000082AE4D193F8C82A8AB103EB4202B3F852
:1012200012EBB2F8DE2AB3F8147BA3F8142B1EFBE2
:1012300006F6D71B96FBF0F03844A3F8120B0023F8
:10124000013984F86831A4F8DC1A04E0B3F8DC2A28
:10125000013AA3F8DC2AB4F8DC6A874B30B20028E4
:101260004FF0000227DDB3F9CA1A834B03F60237A9
:1012700003F60A3C32F807E032F80CC01EFB06FE0B
:1012800003F6DE279EFBF1FECEEB0C0E22F807E004
:101290000232082AE9D193F8C82A72B1B3F9126B65
:1012A000704390FBF1F1B3F8140B03EB4202411AC7
:1012B000A2F8DE1A01E0A3F8DC2A02F0BFFAD4F8A3
:1012C000183B6D4E13F4801300F09980B6F81C3B68
:1012D000180600F1F480694B1B7803F0040303F057
:1012E000FF08002B79D096F81E3B13B196F81F3BF0
:1012F0003BB1634B00221A6001232B74002384F856
:101300001F3B2B7C5C4FD4F88C6984F81E3B032B6D
:1013100006D1304607F62431542213F074FD55E00F
:10132000012B07D107F624303146542213F06BFD10
:10133000002302E0022B02D1012387F8783B01232E
:1013400084F8793B84F87A3B4E4BC4F8846B0022D6
:101350001A605A6032784C4984F8882B94F8782BBC
:101360000A44B2EE047A92F87812484A43F85C2CA8
:101370000E4484F8891B717896F815C007EE901A10
:10138000F8EEE77A03F11002C7EE877A9FED407A14
:10139000C3ED047AF37A07EE903AF8EEE77AC7EEF7
:1013A000877A9FED3C7AC2ED017A07EE90CAF8EE9B
:1013B000E77A67EE877AC2ED027AFCEEE77A17EEFB
:1013C000903A73750023F37207F070FC802007F0E9
:1013D0002FF8012384F8983B71E006F53267D7EDCA
:1013E000007AF5EE407AF1EE10FA68D008F0A4FF2A
:1013F00000233B60012386F81E8B2B745FE0B6F858
:101400001C2B110650D596F81E2B511E01292DD8E4
:10141000D6F8843B96F8892BDFED1D7A587806F6CE
:101420008C3696ED017A67EE277A1A44FCEEE77A5D
:1014300017EE901AD17296ED027ADFED177A67EE09
:10144000277AFCEEE77A17EE901A07EE900AF8EE8C
:10145000E77A517577EEA77AFCEEE77A17EE902AD5
:10146000DA70DA7A5A735A7DDA7517E0032A15D1E1
:1014700086F81E3B012313E0B0050020A8190020C8
:10148000D01000202C110020B46701080000A041FA
:1014900000007A445555553F9A99993F2B7C01336A
:1014A00080202B7406F0D4FFBE4B1B785A0706D45D
:1014B00094F8983B1BB1BC4B012283F81F2B6B7C2B
:1014C000B3B1B4F9E42AB4F840339A4210DCB64B15
:1014D00093F8AD31012B01D0192B02D194F882235E
:1014E00032B90E2B04D0082B1CBF0023A4F89E3B5E
:1014F000D4F88C89AC4D98F81861002E45D0B5F819
:101500001C3B9B0741D005F64C2393ED010AD3ED1C
:10151000007A93ED028AB5F8A07B20EE000AA7EED0
:10152000A70AA8EE080A13F089FF88EE000ADFED8B
:101530009F7AB4EEE70AF1EE10FA22D913F01EFFFB
:1015400005F6A435D5ED007A20EE270A13F074FED7
:10155000B0F5617FA8BF4FF4617005EE900ADFED32
:10156000947AB8EEE50A80EE270A0FF0E8FE06EE60
:10157000906AF8EEE67A27EE800A13F05DFE80B2FC
:1015800000E000203844A4F8A00BD4F8A031864D28
:101590009F067DD5B5F81C3B03F03003002B77D0B8
:1015A00095F89D31DE0773D5B5F9780ADFED817ABC
:1015B000814E08EE100AB8EEC88A28EE278AB0EEEF
:1015C000480A0FF0BCFEF0EE408AB0EE480A0FF079
:1015D00019FFD5F8A83BB5F9B20BDF78B0EE409A09
:1015E000B2EE048AA7B3B5F8AE3B1FFA83F91BB27B
:1015F000C01A10F0CBF97D42A84203DBB842A8BF65
:10160000384600E02846B4F8AC3B8144B4F9B00B4E
:101610001FFA83FA1BB21FFA89F9C01AA4F8AE9B0D
:1016200010F0B4F9A84203DBB842B4BF05463D460A
:101630005544ADB2A4F8AC5B0FFA89F92DB205EEB2
:10164000909A07EE905AB8EEE57AF8EEE76A09E06C
:10165000B5F9B05B05EE900A06EE905AB8EEE57A61
:10166000F8EEE66A68EEE67AE7EE097A26EE899AFF
:10167000C7EE887AA7EE289AFDEEE77A89EE089AF7
:1016800017EE903ABDEEC99A338019EE103A738086
:10169000454DB4F8142305F54C730093474BD4F82B
:1016A000B41B1E68404608F15803B04794F8B81BB5
:1016B000032916D9D5F8BC3B5A88B2F5FA7F10D267
:1016C000B5F9C40BB5F99E5B5342002DB8BF6D420E
:1016D0005B1B984203DB53198342A8BF0346A4F85F
:1016E000C43BB4F8A00BB4F8C25BB4F8C06BD4F838
:1016F000BC7BB4F9C4EB324B00228A4203F11003E5
:1017000035D297F901C0CCF1000C0EFB0CFC07EEB2
:1017100010CA0FFA86FC06EE10CA0FFA80FC05EE1E
:1017200090CA0FFA85FC07EE90CAF8EEC76AF8EE89
:10173000E77A13ED027ADFF88CC067EE877AF8EE6D
:10174000E55A13ED047AE5EE877AB8EEC66A13ED32
:10175000037AE6EE077A13ED017AE6EE877AFDEE7C
:10176000E77A17EE908A2CF812800132C5E70D4B0C
:101770001A7802F0040202F0FF03002A00F08680CB
:1017800094F8A59CB4F8885C01238B420D482EB2D6
:101790001AD230F91350B542B8BF3546ADB2013355
:1017A000F3E700BFA8190020B00500208FC2753CE8
:1017B000EFB6B04435FA8E3C98190020180000208E
:1017C0007811002038120020D4F8A82CD4F8AC7C72
:1017D0005388D4F8B0EC9E42C8BFC3EB0505A3689C
:1017E000B4F9E46A03F4805A03F0100BD4F8BC3B5C
:1017F0000993BC4BCCBFADB2002500EB410843457B
:101800003BD01988491B89B223F8021B09B2BAF1EF
:10181000000F0AD0F8898642C7BFBEF80200B2F8AE
:1018200002C09088BEF800C005E0B2F802C0B9F16D
:10183000000F09D09088814203DB6145B4BF0846A0
:10184000604623F8020CDAE71088814203DB614529
:10185000B4BF0846604623F8020C398A8E42CEDABD
:10186000BBF1000F01D0918804E0099801780029AC
:10187000C5D1118823F8021CC1E794F8B42C9A4B07
:10188000013AD2B2182A00F250810AE08B42F4D217
:10189000944A02F12E0030F8130022F813000133AD
:1018A000F4E701219140914A0A40002A00F03D816D
:1018B000B3F81C2BD0050CD5B3F89A2BADF84C20FF
:1018C000B3F89C2BB3F89E3BADF84E20ADF85030EA
:1018D00018E0B3F8C02B9968ADF84C20B3F8C22BD0
:1018E000ADF84E20C904B3F8C42BADF8502009D58B
:1018F000B3F9E41AD3F8AC3CDB899942BCBF52423D
:10190000ADF85020B4F9661A4FF47A7201F5E1612E
:1019100051434FF4616391FBF3F1A1F5FA71ADF816
:101920006410B4F9641A01F5E1614A4392FBF3F3E0
:10193000A3F5FA73ADF86630B4F8883CB4F8DE2A43
:10194000A3F2DC53ADF85230D4F8AC3CDB89D21AA8
:10195000ADF85420B4F8E02AD21AADF85620B4F805
:10196000E22AD21AADF85820B4F8E42AD21AADF817
:101970005A20B4F8E62AD21AADF85C20B4F8E82A66
:10198000D21AADF85E20B4F8EA2AD21AADF8602077
:10199000B4F8EC2AD31AADF862300022524B03F6A9
:1019A000CE40002111520232102AF7D1D3F8182B61
:1019B000D3F8E04C93F8DE3C09925B000B930A9459
:1019C0000B460B9E4848B34200F0948000F6E44476
:1019D0006218957935B10126153506FA05F5099E87
:1019E000354078D0675C0A9892F904B092F801907B
:1019F00092F803C092F805A0C7EBC70600EB4606B5
:101A00004FEA490EB6F90000B6F902502D1AADB2F0
:101A1000642005FB0BFB9BFBF0FB4FEA5508C8EB72
:101A20000B0B1FFA8BFB32481AACBCF1000F03D131
:101A3000744434F81C4C0CE0A644C45E3EF91CEC23
:101A4000744508DAA444A44503DBE645B4BF7446F4
:101A50006446C4520AE009DDCCEB040CF44503DB18
:101A6000A445B4BFE646A64620F803E04FF0010EB9
:101A7000D6F80A601C4892F902200EFA09F919EA10
:101A8000060F0CBF76464FF0FF3600F6545E7F001F
:101A900033F80EE012FB0EF24FF0640EC41992FB05
:101AA000FEF20FFA8BFB5A45B4F8CE4CB6B20CDB03
:101AB0004FFA8AFB05FB0BFB9BFBFEFBC8EB0B0BFA
:101AC0000FFA8BFB9345A8BF934607440BFB064BCD
:101AD000A7F8CEBC02E000F654501D520233073185
:101AE0006FE700BF38120020B00500209920980150
:101AF000041300200024D0F8E08C25460E2202FBBF
:101B00000582B34E92F90670A35B17FB03F76423BB
:101B100097FBF3F7A753E8B206F0F2FF013538441C
:101B2000082DA05304F10204E8D1AA4DAE6816F0C6
:101B300020082F4634D0002006F0E2FFA5F8CE0C96
:101B40000446012006F0DCFFD5F8183BA5F8D00CC0
:101B50001B0625D5D5F8743DB5F8642A1B78012BF2
:101B600022D1D5F8E03CB5F966EA93F9141093F95F
:101B7000063011FB02F25B4232210EFB03F392FBB3
:101B8000F1F26FF0310E92B293FBFEFE964493FB9E
:101B9000F1F174440A44A5F8CE4C1044A5F8D00CD9
:101BA000D5F8E0AC002319E0D5F8E01CB5F8663AAA
:101BB00091F906E091F914101EFB03FE32239EFBFF
:101BC000F3FE11FB02F2744492FBF3F3A5F8CE4C42
:101BD0001844E3E7D1520233102B10D0C3EBC304F7
:101BE0007B4A5444985EB4F90010B4F9024088422C
:101BF0009146EFDB21B28842B8BF0146EAE7754B58
:101C0000D3F8BCBB9BF90830A3B995F8B4AC0AF182
:101C1000FF33182B6FD8DFE803F02F6E6E4C6E6E1B
:101C20006E436E6E6E6E6E586E6E6E6E6E4C636E42
:101C30006E582F000024684BBBF9062039F90410B8
:101C4000442000FB043006F00DFEC4EBC40280B259
:101C500029F80400524400B2B2F90030B2F902206F
:101C6000984203DB13B29842B8BF034629F8043008
:101C70000234102CDFD1C8E79BF804301BB10020E0
:101C8000B5F8D81C08E0554B1B7803F0040303F0AB
:101C9000FF00002BF3D101460FF01EFF01242BE0C3
:101CA0000020B5F8D41C0FF017FF0120B5F8D61CA2
:101CB00007E00020B5F8D61C0FF00EFFB5F8D81CD1
:101CC00001200FF009FF022463E3002409EB440321
:101CD000E0B2998801340FF0FFFE062CF6D10BE03C
:101CE000002409EB4403E0B2D98801340FF0F4FE7C
:101CF000042CF6D14DE30024B8F1000F02D1BAF163
:101D0000050F0CD12046B5F8CE1C0FF0E5FE601C87
:101D1000C0B2B5F8D01C0FF0DFFE0234E4B2F1021D
:101D200009D42F4C2F4BD4F8C0201B689A1A002AD4
:101D3000A1460DDA15E000262B4B03EB4603A01954
:101D4000C0B219890FF0C8FE0D2EEAD00136F3E7B4
:101D500003F5FF73C4F8C03094F8C4300BB10AF037
:101D6000F5FA224B1B78002B40F0CC82AB681A03AB
:101D700040F1C88294F8C520023A072A00F2BC82DA
:101D8000DFE812F008004F006F008500A000B200ED
:101D90006601AB02164B1A68D4F8CC3064339A4211
:101DA00040F2AA820025134B134A1B789D4225DA84
:101DB000D9F8C8300A4E134493F87A02F0B10BF008
:101DC00093FED6F8C83001330135C6F8C830EAE7CB
:101DD0007E120020B005002028130020A819002042
:101DE000A8160020941900208E100020A7190020AA
:101DF000BC4F002014000020B4670108D4F8C810BC
:101E00007B4B0A4492F87A22002A40F07582C3F88C
:101E1000C8204FF0FF32C3F8CC20032283F8C5203E
:101E20006AE221230093734B019303F10C020292A7
:101E30004920A3F10A02502102330DF02FFF0028A0
:101E400040F05A82AB6813F080024FF0FF3305D0A8
:101E5000C4F8CC30C4F8C800042330E0C4F8C8206B
:101E60002AE0654A02230021009301910291482053
:101E700002F108030DF012FF002840F03D824FF000
:101E8000FF33C4F8CC30C4F8C800052317E007239B
:101E900000935A4B019303F10C0202924720A3F1E5
:101EA0000802002104330DF0F9FE002840F02482DE
:101EB000C4F8C8004FF0FF33C4F8CC30062384F8D0
:101EC000C53019E24E4A032300210093019102918B
:101ED000532002F108030DF0E1FE002840F00C82CF
:101EE000C4F8C8000723EAE7D4F8C810404A21B96B
:101EF000C2F8CC100121C2F8C810424A1678D4F8B2
:101F0000CC201644402EA8BF4026132EC4F8CC6027
:101F100040F3F281364AD2F8C8200D2A00F22C8212
:101F2000DFE802F05F070B0E12182125292D31433F
:101F30004D5335480BF042FD50E03448344941E000
:101F400034483549354A47E0354895F86E1995F8D3
:101F50006F2941E095F8483932480C2202FB03779B
:101F600097F84A192EE03048B5F8EC122AE02F48CD
:101F7000B5F8EE1226E02E4B2E48196922E02E4BC2
:101F80002E4859881EE0D4F8D030194FDB0408D50C
:101F90002B4895F8221309F0E1FD301AC7F8CC0060
:101FA0001FE00C23C7F8C8301BE095F8261395F8FE
:101FB000272395F82533234809F0D0FD0EE0224869
:101FC000B4F8D41009F0CAFD08E0180509D51F4877
:101FD000B5F82A13B5F9282309F0C0FD301AC4F862
:101FE000CC00D4F8C8300133C4F8C83084E100BF55
:101FF000A81600209A6A01081C6C0108346C0108BC
:10200000806C01081400002094790108B17901085E
:10201000D8910108C9790108E0790108EC79010833
:10202000F5790108097A0108167A0108287A010869
:10203000240F00203A7A0108000000204D7A0108A0
:102040005A7A01086A7A0108867A0108947A0108A6
:10205000B4F8D600DFF84483002840F0BB800BF0D2
:1020600086FD0FF0C1FAD8F8D86049200BF03CFD8E
:10207000D8F8E4000BF06CFD30680BF069FD706877
:102080000BF0C0FDB0680BF0BDFDF0680BF0BAFDC1
:1020900030690BF0B7FD70690BF0B4FDB0690BF05F
:1020A000B1FD4FF010080122D9F8D03002FA08F241
:1020B0001A4205D006EB880353F8240C0BF0A2FD5E
:1020C00008F10108B8F1130FEDD1B6F928000BF0B3
:1020D00099FDB6F92A000BF095FDB6F92C000BF02E
:1020E00091FDB5F8EC32B6F92E00C01A0BF030FDB8
:1020F000D4F8D030D90409D5A84BB3F8D400B6F839
:102100006430C01AC0F30D000BF022FDD4F8D030BB
:102110009A0403D5B6F866000BF01AFDD4F8D03057
:102120001B0403D5B6F868000BF012FDB6F93000B9
:102130000BF068FDB6F932000BF064FDB6F934001F
:102140000BF060FDB6F936000BF05CFDB6F9380017
:102150000BF058FDB6F93A000BF054FDB5F8EC322F
:10216000B6F93C00C01A0BF0F3FC012597F8B83B18
:102170009D420ADA06EB45030135B3F93C00B6F996
:102180003C30C01A0BF03EFDF0E7D4F8D0309D058E
:1021900008D5824BD3F8D830B3F95E00A0F2DC50FA
:1021A0000BF030FDD4F8D8307D4A7E49C4F8DC30DD
:1021B000C4F8E0309B1A9B104B430133032193FB7F
:1021C000F1F101EB41015B1A6C2101FB0322C4F820
:1021D000D82063E0D8F82C32D8F83022934207D0C8
:1021E0001AA9002041F81C3DC8F830320BF00EFD52
:1021F00095F86E39B4F8D61095F86F29194401395D
:10220000B1FBF2F002FB10129A4206D201200BF051
:10221000AEFC0FF0E9F90BF0AFFDAB6818063DD549
:10222000D4F83412D4F83C225C4B91420DD1D3F84F
:102230003812D3F84022914207D1B3F8D620102AA1
:1022400017D1B3F85032590613D148200BF04CFC8B
:10225000D4F834020BF0D6FCD4F838020BF0D2FCE0
:10226000D4F83432C4F83C32D4F83832C4F84032AE
:1022700012E095F89C1194F84C22484B91420BD1F6
:10228000D3F85412D3F84422914205D1D3F85822FE
:10229000D3F848329A4201D00BF028FD0BF012FC23
:1022A000B4F85C223D4B0132A4F85C22D4F8E4205F
:1022B0000132C4F8E420B4F8D620013292B2202AC8
:1022C00002D0A3F8D62017E00022A3F8D620B3F856
:1022D00050220132A3F850220EE0334B1A68D4F892
:1022E000CC30C8339A4203D910F0D6F80123E6E582
:1022F0000BF0E8FB0028F7D10BF0B6F910B1012381
:1023000084F8C530294B2A4C1B7833B9A3685A0589
:1023100003D5B4F8FA0204F057FBA368DB037DF59C
:1023200068AF1E4B93F85E32002B3DF462AF214B39
:102330001A7802F0FF03002A7DF45BAF1C4A1E4CA2
:10234000D2F8182B12F4804F0CD0A27C62B11B4A39
:1023500011681B4A99500433802BF8D10EF0A4FB6E
:10236000002300E00123A374A37C002B3DF441AFC4
:102370000BF02CFFFDF73DBF0023C4F8E430A4F8B8
:10238000D630A4F850324FF48053A4F85C320823BE
:1023900095E5B8F1000F3FF4C2ACB3E4A8160020F5
:1023A0009017002013DA4B68BC4F0020A7190020BB
:1023B000B0050020A6190020000000209079010837
:1023C000081900202DE9F04F2DED028BBD4CBE4BBE
:1023D0002360A1B0002363600BF05CF918B90AF028
:1023E00031FB0BF07BF9DFF84893B84FB84DDFF8BD
:1023F0003883DFF82CA30CF025FD99F80030B548A0
:1024000043F0010389F80030B34BFB606B6FA360AE
:10241000B24BBB606B6B23F080036B636B6F43F05D
:1024200080736B672B6B43F03F0320AE2B6303235A
:102430008DF8463041F6FF7326F83C3D314608F0F2
:1024400039FC4FF6FF73A648ADF84430314608F02A
:1024500031FCA448314608F02DFCDFF8D8C2CDF895
:1024600010C06046314608F025FC9F48314608F010
:1024700021FC31469D4808F01DFC304608F082FBE7
:10248000119B9B4AB3FBF2F3E3609A4B9A4A4FF0DD
:10249000000BC3F800B0994B5A60F02287F8232054
:1024A0000722C3F808B0964F1A60D8F80830CAF867
:1024B000003097E80F0086E80F002B6BDDF810C0A6
:1024C000119843F008032B632B6B43F008032B6335
:1024D0004FF48043ACF818304FF40043ACF8183098
:1024E00012A908F0E7FB14A9139808F0E3FB642095
:1024F00005F0C9FF83485946A02212F08DFC2B6CD1
:1025000043F013032B646B6C43F001136B647E4B3D
:10251000B94603F1C0009A7ADF7A53F8105B02F0F3
:102520000701D20805EB82028900156A4FF00F0EF1
:102530008F400EFA01F125EA01011162156A83420A
:1025400047EA05011162E6D100235E4F07F1100250
:102550000021995401330C2BF7D1FF233B777B7774
:10256000BB77FB77694BDFF8D0B1694DC3F800B09A
:10257000684B04221A702846302212F04DFC0522C6
:1025800085F82420644A98F805A082F800A0ABF5ED
:10259000E9723A62ABF589727A62604A6049142343
:1025A0002B7002EBCA0201232B760D685278BA62B7
:1025B000AA0648BFBB6200235A4A40F2DC51995236
:1025C0000233102BF8D10AA800211C2212F024FC9F
:1025D000BAF10E0F04D00AF0EF0ABAF1080F02D1D7
:1025E00001238DF83A30012005F0BCFC8DF82D0058
:1025F000052005F0B7FCC5F340038DF82F30C5F377
:1026000080138DF83130C5F340338DF82830C5F391
:10261000C0338DF82B3015F400638DF82E0004D0F4
:1026200098F884315F1E7B427B418DF82C30C5F3D6
:1026300000438DF83230A36AB8F84801ADF83E0087
:10264000003318BF01238DF83330C5F300538DF8E4
:102650003430B8F84A31ADF83830B8F85631ADF802
:102660003630C5F3804305F00101C5F3C0028DF893
:102670003030E804B8F854318DF829108DF82A204C
:10268000ADF83C3004D52848B0F85001ADF83E0014
:10269000B3F5FA7F84BF0023ADF83E30234898F8A5
:1026A000CC3184F82C30002384F82D3043709DF811
:1026B0003A30002B14BF0223002300293ED1002A08
:1026C0003DD03BE0AC1900207986000800ED00E029
:1026D00000380240000002400005FA050000000832
:1026E00000040240000802400010024000140240B2
:1026F00040420F00C04F00203F90020010E000E079
:1027000000850108084E0020E88B0108102A0020EF
:10271000802B00207E2B002064120020A48C010856
:10272000B80500207E12002058070020D91900208B
:10273000C44F0020000C02403E090020013309EB89
:1027400083034FF000081B690593C146059A32F8D0
:1027500008304FF6FF72934200F0F680D8B2C14ABB
:102760009DF832104FEA001B1B0A02EB0B0529B142
:1027700052F80B10BC4FB94200F0E080022B02D19E
:102780009DF8281003E0012B04D19DF829100029A1
:1027900000F0D4809DF8341031B19DF83A1019B989
:1027A0000438032840F2B380012B39D1FF230027DE
:1027B000298984F8743084F875306B7B686884F8F4
:1027C0007870C4F88450ADF844108DF84630314626
:1027D00002238DF8473084F830706763A763E7639E
:1027E000276784F8767084F87770039208F062FAAD
:1027F000039AA97A52F80B003A4607F0E9FF2846F7
:1028000004F057FF994B9A49C4F88830994BC4F8A3
:102810008C30C4F8907028460A1D10F0C7FF8DE078
:10282000022B3AD194488DF847305FFA89F11C2782
:10283000794347184FF0000A4FF0010E87F80190D6
:1028400087F802A087F80AA000F801E0697BB5F8D4
:1028500008E06868FD608DF846103146ADF844E048
:10286000039208F027FA039AA97A52F80B0052460D
:1028700007F0AEFF284604F01CFF804B3B61804B05
:102880007B61C7F818A0284607F1100107F1140270
:1028900010F08CFF09F1010950E0032B35D19DF8B0
:1028A00030303BB194F82E70284608214FF6FF7265
:1028B00000231CE0BDF83C2094F82E70BDF83E309B
:1028C000B2F5FA7F0DD96F49B1FBF2F22846082123
:1028D00092B209F0F9FA04EB87076B4BC7F858017D
:1028E0000CE06A49B1FBF2F22846012192B209F0EC
:1028F000EBFA04EB8707664BC7F85801C36094F8FE
:102900002E30013384F82E3018E0042B16D1BDF898
:1029100036305E4A94F82D7092FBF3F22846BDF8EB
:102920003830012192B209F0CFFA94F82D3004EB3F
:1029300087070133C7F8880184F82D3008F10208B1
:10294000B8F1180F7FF402AF94F82D2084F8A82175
:10295000504A514B1578A5F117020027022A1F7023
:102960009E461AD8236A3B44D3ED007AF5EE407AAE
:10297000F1EE10FA02D1A36A63BB26E0474A07EBE7
:10298000020C0FCB8CE80F009EF80030103701339B
:10299000C02F8EF80030E5D1EDE7414B13F83580BC
:1029A0008EF8008003EBC503D3F80490B9F1000F53
:1029B000E1D04745DFDA394A3B0103EB020C4B44D7
:1029C0000FCB01378CE80F00F3E736490B68DA04C8
:1029D00027D41FE0344B354A03EBC5035F6A93F8F5
:1029E00020001070002FF0D000238342EDDAC3EBFB
:1029F000C3017A18DFF8BC80D2F8009041F8089043
:102A000001EB080C9188ACF8041092798CF8062040
:102A10000133EAE705F0EF03082BDFF89C804DD186
:102A20004EE09EF800100129F4D9214B00228A4281
:102A300003F11003EEDA13ED047AF6EE007A27EED6
:102A4000277A013203ED047A13ED057A27EE277A0F
:102A500003ED057A13ED037A67EE277A43ED037AE7
:102A6000E5E700BFE48B0108000C00406F0F010890
:102A7000341A002071100108241A0020EDA8000863
:102A80004910010800127A009110010840420F001D
:102A900081100108641200206811002078110020C4
:102AA000A48C0108B8050020008501088E120020C2
:102AB00080110020941200204D0700200E2D0AD115
:102AC00098F8003043F0100388F80030182D0AD130
:102AD00005F0F0FF07E098F8003023F0100388F8C5
:102AE0000030192DF3E709F015FCA74A13685B03C2
:102AF00002D4A64B01221A70A5490B7843F00403B7
:102B00000B7007F0AFFB10F03DF80FF09BFF0020BB
:102B100004F020FE022005F025FA10B9012004F08F
:102B200019FE9C4DB5F85C214AB9B5F95E3143B93F
:102B3000B5F96031D3F1010338BF002302E000236F
:102B400000E0134613F0010324D112B207EE102A5D
:102B5000DFED917AB5F95E219049B8EEC77A0B7036
:102B600027EE277AB5F960318DED117A07EE102A3C
:102B7000B8EEC77A304627EE277A89498DED127A6A
:102B800007EE103AB8EEC77A67EE277ACDED137AE2
:102B90000EF040FC834B84481B68B5F86471B3F8B1
:102BA0005630059300210C2295F863B1B5F80C90CE
:102BB00095F80FA012F030F914227C48002112F091
:102BC0002BF97B4B00221A7094F8D03133B10022DC
:102BD000A4F8D22153B904F0DDFF07E0049309F013
:102BE000EFFE049B002800F0FD85F0E7B7F5807F3D
:102BF0000ED0BB2F0ED8612F0ED8292F0ED8132F31
:102C00000ED8092F0ED8002F0CBF002306230AE090
:102C1000002308E0012306E0022304E0032302E08E
:102C2000042300E00523634A118821F040010904D0
:102C3000090C1180118821F038010904090C41F0B8
:102C400030011180118889B241F04001118094F85F
:102C5000D4110493192004F086FF012005F008FC2C
:102C6000049B1A20194604F07EFF012005F000FCA9
:102C7000304609F043FC9DF94630013303D19DF9FC
:102C80004430013303D0B4F8D2319BB223B10023D6
:102C9000A4F8D23100F0A6BD444E474B3360474BF9
:102CA0007360474BF3606420464B336105F0EBFBE8
:102CB000454A01231370454B196841F00101196021
:102CC000434A0021BBF1090F117002D94FF0000BEC
:102CD000F6E7012101FA0BF140F202320A40002A24
:102CE00040F0858511F0FD0F00F08185394991F89C
:102CF000D02132B10023A1F8D23162B904F04AFFE9
:102D000009E00491039209F05BFE0499039A0028FC
:102D100000F06D85EEE7244B2F4A1A6064202F4A9D
:102D20005A6005F0B0FB284907234B70274B1A68FF
:102D300042F002021A60254B1A6812F0020F9B46FD
:102D400002D0194B1B689847224A2549BAF1000F57
:102D500048D0FFB2002F14BF4FF47A737D239945FA
:102D600005DBB9F57A6FA8BF4FF47A6900E09946A0
:102D7000581E8144B9FBF3F00138C0B200FB0333A5
:102D800082F8D4010B6031E0B80500206C170020F8
:102D9000C44F00205807002035FA8E3C1C0000204C
:102DA000581B00203C0F00209C0F0020240F002007
:102DB000460F002000380040C1100108FDC4000883
:102DC000797C000890C1793D1D000020500700204B
:102DD00090190020AC190020B11001085BD1000847
:102DE000380F002082F8D4A1C1F800903368039214
:102DF0009847B749039A00230B7095F858310BB1E7
:102E0000B448037095F859310BB1B348037095F885
:102E10005A3103B10B70DBF800301F071AD5059B40
:102E200019B2642391FBF3F003FB10131BB207EEFE
:102E3000103AF8EEC76A07EE100AF8EEC77A9FED6F
:102E4000A77AE6EE877AB2EE047A67EE877AC2ED69
:102E5000767A02E00023C2F8D831A1490B7843F01A
:102E600002030B709F4B4FF400425A834FF4804291
:102E70001A830A279B4E736983F400437361736955
:102E800083F480437361192005F0FDFA013F192096
:102E900005F0F9FA17F0FF07ECD14FF480433383C4
:102EA0004FF400433383904B9FED908A1B68904E04
:102EB0001B7B00EE103AB8EEC00A20EE080A0EF0B6
:102EC000A1FA328807EE902AF8EEE77A27EE800A18
:102ED00012F0B2F936889FED877A874B07EE906A39
:102EE000F8EEE77A1880C7EE277A844BFF211A2282
:102EF0009FED837AC7EE877AC4ED777AD3ED047AB3
:102F0000804C814B27EE888ADFED807A28EE278A75
:102F1000204683ED008A11F07FFF7D4A7D4B1268C9
:102F20002770012112F0020F1970204604D0617041
:102F3000032119700221A170560704D519784C1C81
:102F40001C700324445412F00A0F0CD01A78042188
:102F50008154511CC9B205244454D11C0232D2B24E
:102F60001970062181546C490A68940604D51978B1
:102F70004C1C1C7007244454110608D519780924E8
:102F800044548C1C0131C9B21C700A244454697920
:102F9000082901D00E2904D11C78661C1E700B264E
:102FA00006551C780C27661CF6B20755D7031E7011
:102FB00005D5584F02343C70524C0E27A755540784
:102FC00004D51C78661C1E70102606551C78122726
:102FD000661CF6B2075557051E7008D595F808729D
:102FE0002FB14C4F02343C70464C1327A7551C7828
:102FF000661CF6B2142792051E70075505D5454A82
:10300000023414703F4A1524945518290BD11A78AC
:1030100016248454541CE4B217260655D41C0232DC
:10302000D2B21C708154002198223C483C4C11F0D3
:10303000F3FE0FF0F3F93B493B4AC4F8E0210023CB
:103040004B800B7139490A60B5F8962190B2384926
:1030500058520233242BFAD12F4F3B681B0740F103
:10306000168195F89031062B00F20B81DFE803F012
:103070000404729CB3CECE002E492F4A0A60012B65
:103080002E482F4907D103260670072084F8E43123
:1030900008700C2307E00223037003230B70002346
:1030A00084F8E431072313704020264BC4F8E8313C
:1030B00004F08CFF002800F0E48001234FF00009A9
:1030C00090F90000204A8DE80802402180E000BF0E
:1030D000A4280020460F0020901900208988883CF1
:1030E000C44F0020000C0240E40F002035FA8E3C53
:1030F000020000200AE81C4108100020240F0020D4
:1031000000401C46132B0020E00F0020BD37863501
:1031100050070020122B0020B80500207429002041
:10312000AC19002050120020E0080020BC0500204F
:103130008E100020C40500202D2B0020C10500208A
:10314000C80500200D7E0008E18100080000B0C421
:10315000CDCCCC3F07EE102A5FED047AF8EEC76ABB
:103160001FED057AE6EE877A0023FCEEE77A6C4ADB
:1031700017EE901A99500433482BF8D1694BC4F8D4
:10318000E831694B122240201A7004F01FFF00281A
:1031900077D001234FF0070C90F90000634A8DE8C7
:1031A00008104021624B66E0624BC4F8E8315E4B88
:1031B000102240201A7004F009FF002861D001237A
:1031C0004FF0000E90F900005B4A8DE80840402166
:1031D0004FF4E1334FE0594BC4F8E831524B082229
:1031E00040201A7004F0F2FE00284AD00123002685
:1031F00090F90000524A8DE8480040214FF4E13335
:103200000FF064FD4F4BC3F8EC0136E046494E48E1
:103210000C22062B0A7010D00023037084F8F031C2
:1032200084F8F1311B2384F8F231052384F8F3216B
:1032300084F8F4314FF4E1360DE00021017084F898
:10324000F01184F8F111414E84F8F321212184F822
:10325000F21184F8F4313E4BC4F8E831402004F018
:10326000B5FE70B1012100233A4A90F900008DE8C3
:103270000A00402133460FF029FD003018BF01201D
:1032800028B908200EF0A8F90023C4F8E8313B68FB
:10329000254A13F4804F04D0082111702E49C4F838
:1032A000E81142F20101194003F0010003F4005655
:1032B00041B12A49C4F8E8110EB10821117008B1D2
:1032C0000C2111701178043951701A0640F1888070
:1032D0004FF00009224EDFF894A0DFF894B02148A7
:1032E000C4F8F8A14946152286F80190C6F8049062
:1032F000C6F8089011F090FDAAF105034846CBF8F6
:10330000003009F09DF8184B02201B68F36004F0B0
:103310005DFE594670BB80200EF05EF958E000BF9C
:1033200010060020597E00082D2B0020ED82000899
:10333000A0860100497E000879820008357E0008D9
:103340002D820008AC1900201007002090D0030047
:10335000F57D000815810008897E0008957E00082B
:1033600024070020A81B0020BC4F00203E0900209D
:103370004407002090F805E07378CB4A4FF00C0C1E
:103380000CFB032C9CF801C0F44504D00133DBB2E4
:10339000042BF2D9002373700B6890F900001B789E
:1033A00013F0FD0F73784FF00C0606FB03220CBFE1
:1033B00001210321537800910022019202210FF094
:1033C00085FCBA4B18600028A5D0012009F038F818
:1033D000B74B1868B74B00F5C5721A600EF074FA57
:1033E000B54BC4F814328033C4F818323B68DFF8A8
:1033F000FCB2002613F4803F8BF800600DF1440905
:1034000000F0C5800EF0A0F940F22A3C4FF0010A0E
:1034100062463146A9488BF800A0CDF810C011F0E3
:10342000FBFCA74BDFF8C8B21A6B42EA0A021A6328
:103430001A6C42F008021A641A6B42F400121A6302
:10344000022358468DF8243008A903238DF825302F
:10345000CDF820A08DF827A08DF8266007F0EAFBB4
:10346000DBF82020974B22F00F02CBF82020DBF86E
:10347000202042F00202CBF820201A8822F001021C
:103480001204120C1A801A8822F45C721204120CB4
:103490001A806822DA621E85A3F814A01A8C22F022
:1034A00001021204120C1A841A8C9888198B22F0CB
:1034B000020221F0730109041204090C120C41F0FC
:1034C000600180B242EA0A02988019835E631A841E
:1034D0001A8B22F008021204120C42F008021A831E
:1034E0001A880BF5C04B92B20BF1400B42EA0A026C
:1034F0001A80DBF8002022F00102CBF800205846A9
:1035000007F0BAFA4FF0406211926F4A12926B4A7A
:103510001392402214924FF4806217924FF480521B
:1035200018924FF4804219924FF44032DDF810C0E7
:103530001B925846042249461C9216961A961D96CE
:103540001E961F96CDF854C007F06CFADBF80020E9
:103550005E4B42F01002CBF800204FF400129A604C
:1035600007A80D238DF81C308DF81DA08DF81E6066
:103570008DF81FA010F0ECF9554B1A68554BF2501E
:103580000436802EF8D10DF08FFA0DF08DFA3B68DD
:103590005B0554D5504BD4F8C4AEC3F800A004204A
:1035A00004F014FD0421C4F8C80E04F0E6FC4B4BF3
:1035B00084F8CC0E0820C3F800A004F007FD082111
:1035C000C4F8D00E04F0D9FC454E84F8D40E002186
:1035D00030462C2211F020FC8E227C2372704FF09A
:1035E0007D0BE0223370F27086F82BB03D4E0493D1
:1035F0002C220021304611F00FFC049B33708A23EB
:1036000073701020A023F37086F82BB0C4F8D8AEE6
:1036100004F0DCFC1021C4F8DC0E04F0AEFC84F8ED
:10362000E00E2020C4F8E4AE04F0D0FC2021C4F861
:10363000E80E04F0A2FC84F8EC0E0FF001F92A4E1B
:10364000DFF8B0B0338823F040031B041B0C338039
:10365000338823F038031B041B0C43F03003338002
:1036600033889BB243F0400333804FF0000A9F231E
:1036700064208DF820308DF821A08DF822A08DF8DF
:1036800023A004F000FF4FF4004C8DF845A0642007
:10369000ABF81AC0CDF810C004F0F5FE494608AAF0
:1036A0000423304628E000BFD4670108200700202B
:1036B0003C0F00205811002070090020C81B00207A
:1036C00000380240000C0040340C00400060024012
:1036D000C86C010808190020C42B00200C2C002005
:1036E000DC2B0020122C0020003C0040061900209A
:1036F000000002400010024008F0BAFBDDF810C0E4
:10370000404AABF818C04FF48073138053809388FD
:1037100019021B049160D360012284F8ED2EF3B1ED
:103720001B0C9B469A4514DA0AEB0306761010220E
:1037300030044946049304F0E5FA049B002259F84A
:103740000210013159D10432102AF8D1B346334660
:10375000E8E70AF09FF94FEA0B43C4F8F03E3B68F4
:10376000294A13F4002318BF0123137004F0B8FC96
:10377000264B18606B79052B03D1254B4FF4C8728B
:103780001A80244B4FF47A721A8098F8003043F074
:10379000080388F80030204B1A7822F002021A70D1
:1037A0003A6840F6020313406BB11C4B1C4A1A6086
:1037B0001C4B03221A701C4B01221A701B4A002357
:1037C00013801B4A1380AB683B601A4B01221A70AE
:1037D000194B1A7862F07F021A7021B0BDEC028B8F
:1037E000BDE8F08F032004F058FEFFF736BBBBF1B5
:1037F000010F3FF66BAAFFF79EBA06F1010A1E46BB
:10380000A5E700BF240000206D1700204C10002009
:10381000AE0F0020A4190020A8190020BC2B002006
:10382000D2080020F028002035000020102C0020B5
:10383000F42800206C170020C44F00202DE9F04F21
:10384000C74AC84B1768B3F906007B892DED028B78
:10385000984285B00EDBB0F5FA6FFC7907DAC21A30
:103860005443A3F5FA6394FBF3F4643403E0C4F126
:10387000640400E06424BC4AB2F896310293BB4B66
:1038800092F96221D3F800E092B200210392F2464D
:103890000A46B44B029D31F903B0C5EB0B0303F2AA
:1038A000F31640F2E635AE4203D8002BB8BF5B42B8
:1038B00001E04FF4FA73022A4FF06406AC4D2DD0AC
:1038C0009EF811C1BCF1000F04D06345CCBFCCEB16
:1038D0000303002393FBF6FC6FF0630935F81C80AB
:1038E00009FB0C390CF1010C35F91CC00FFA88F5F5
:1038F000C5EB0C0505FB09F595FBF6F5A8449D4DB8
:1039000021F80580BD182D796B439B4D93FBF5F392
:1039100064339BB2634393FBF6F62FE09EF812C12B
:10392000BCF1000F04D06345CCBFCCEB03030023F4
:1039300093FBF6F66FF0630805EB460C08FB0639BF
:1039400005EB4606BCF90EC0B6F91050894ECCEB1B
:10395000050505FB09F999FBF8F9039DCCEB090C6A
:103960000CFB05FCA6F804C0BD7983EAE376A6EB60
:10397000E3766E43804D96FBF5F664360EEB020C53
:103980007B4B9CF8018003F11C054FF0640C06FB97
:1039900008F898FBFCF802F805809AF80B8003F110
:1039A0001F0506FB08F898FBFCF802F805809AF85A
:1039B000158003F1220506FB08F6022A96FBFCF6A9
:1039C00056551D4616BF253383F827C0D454029B95
:1039D000684E9B4502DA735A5B42735202310629E4
:1039E00002F101020AF1010A7FF453AF5E4CB4F810
:1039F0009831984205DBB0F5FA6FA8BF4FF4FA6032
:103A000000E01846C01A4FF47A725043C3F5FA63C7
:103A1000B0FBF3F34FF0640E93FBFEF205EB4201B3
:103A20006FF0630000FB023305EB4202098DB2F92F
:103A30002A00504F0AB2821A534393FBFEFE4F4BAB
:103A40001B8871445B06F18036D54D4BDFED4D7A16
:103A50001A88474BB3F84030D31A1BB208EE903A9D
:103A6000F8EEE88A68EEA78AB0EE680A0DF0CAFCA4
:103A7000B0EE408AB0EE680A0DF061FCB7F90220A2
:103A8000B7F9003006EE902A07EE903AF8EEE66AB3
:103A9000F8EEE77A20EE667AA7EE887A67EE807A0B
:103AA000BDEEC77AE6EE887A17EE103AFDEEE77AB9
:103AB0003B8017EE903A7B80334B1A6812F0020F6E
:103AC000994600F09680314B6A6C1B68284F9A1A11
:103AD00045F207218A4240F38C807B640FF024FF7B
:103AE00097F84830DFF8B480032BB8F8003022D1C3
:103AF0000A2B2CD90023282087F8483004F0C3FC77
:103B00000FF012FFB7F84A0007F09EF9204B214949
:103B10001B68DA7890FBF2F0421C082A28BF0822C2
:103B200058791B790A7092B21B4950435A43088056
:103B3000A7F84C200BE00A2B09D80323154A87F875
:103B4000483000231370144AA7F84C30138095F8BE
:103B50004820074B012A2DD022D3022A3FD048E02B
:103B6000641100208E100020580700203C0F002018
:103B7000A82800204A1100200CFEFFFFCC100020D6
:103B80002810002035FA8E3CB8050020941900203A
:103B9000BC2B002035000020102C0020C02B002062
:103BA000A64B1A88B8F800309A4222DD012385F826
:103BB000483012E0B8F80020B3F84C10914203DD11
:103BC000022283F8482011E09C49098801318A4289
:103BD00003DD002283F848200BE0082007E0B3F85B
:103BE0004C30B8F8002001339A42DFDC072004F0A3
:103BF000E5FBD9F80070380573D5914B296D1A682B
:103C0000904BC1EB020B45F207218B4569DD8E49D4
:103C1000B6F90690D1F800801A6598F80A10B4F841
:103C200052018A4E4FF47A7201299BFBF2FBA9F5EF
:103C30007A7903D03ED302291CD03DE0586D08218B
:103C400090FBF1FECEEB000090FBF1F14FF0000E87
:103C50005865A3F858E089B2B8F8083040F6E44057
:103C60004143C3EB1131B8F906304A4392FBF3F2FA
:103C7000326021E0764BB8F808A01B78C6F800A0A7
:103C8000590719D508F058FA20B917F0100F18BFC6
:103C90004FF0000909FB09F2322392FBF3F3994438
:103CA000B8F906304FF47A7203FB09F393FBF2F391
:103CB000534400E0002333603368664AD5E91801B5
:103CC00003FB0BFB4FF47A739BFBF3FB10EB0B0036
:103CD00041EBEB710023C5E9180110F085F95E4B4B
:103CE00018605E4B1A6812F4805F984626D03A0638
:103CF00021D55B4B1B789B071DD55A4B197804299E
:103D000019D90023584E05229A551E44981C0A279B
:103D1000122BC2B2777004D0B1EB520F0346F1D828
:103D200000E014222A44322382F86730FF2382F80D
:103D300068300F2000E00A2004F040FBD5F88060D6
:103D4000404B002E44D0494FD3F8842039688A4232
:103D50003ED893F88820B3F88A907168AAB90122F6
:103D600083F8882011F80910C9B183F88C2004F079
:103D7000E5FAB9F1000F12D13378053B012B0ED8CB
:103D800004F0AEF93A4B186009E0002283F888206D
:103D900011F8091019B183F88C2004F0CFFAB5F8A6
:103DA0008A107268274B525CFE2A03D10022A3F8C6
:103DB0008A200DE0FF2A02D104F0E6FA08E0386814
:103DC0000A2616FB02020131C3F88420A3F88A10E8
:103DD0001F4E3278570704D5264B4FF480425A8342
:103DE0005FE0D8F80030D8075CBF42F001023270C3
:103DF0001B4A1278110703D4327822F00102327084
:103E0000DA0203D5337823F0010333701A4B1B8891
:103E10001BB11A4B1B689B0705D4194B1B88003339
:103E200018BF012300E0012363B3022385F88C301F
:103E3000337823F0010333702AE000BF102C0020F8
:103E400094190020A8280020BC2B0020C82B00209B
:103E5000A8190020407E0500CC2B0020C8100020AF
:103E60004D0700204C07002010290020BC4F0020E7
:103E7000D4180020000C0240AE0F00205007002094
:103E8000A41900203278D70758BF022385F88C3058
:103E900004F026F9D5F89030C01A002801DB04F0B0
:103EA0004DFA0EF0CDFCBE4B1A78002A78D0D5F82A
:103EB0009430002B00F01586D5F89400B94C04F02E
:103EC00066FB002800F00D86D4F8940004F05AFB3D
:103ED000092801D03F2855D14FF00008D5F8986047
:103EE000B14F44462EB1B1483968324610F0DCFF7C
:103EF00010B9B84604B93C46AD4B10379F42F1D3D8
:103F000004B3D4F800E0D8F800C0D5F89830A5483C
:103F10001EF803701CF80310B94213D15A1C59B98A
:103F20002D2B09D8C0F8982003440244202783F899
:103F30009C7082F89C1005E02B44C5F8982083F80B
:103F40009C70E2E7D5F898300BB1444510D0994801
:103F500004F080FB444507D854F8100B04F07AFBBA
:103F6000092004F070FBF5E7934804F073FB00268A
:103F7000D5F898309E429FD28C4B985D04F063FB3D
:103F80000136F5E7D4F89830002B40F0D6850428A8
:103F900040F0CD8504F19C0003F0C0FB00F0A1BD12
:103FA000864F97F84A30012B40F09685DFF828823B
:103FB000834B3A68C8F800701A60C246DFF8009276
:103FC0004A46106804F0E3FA002800F07385D9F837
:103FD000000004F0D7FADAF8003093F8481083466E
:103FE00019B924283FD101223AE0012904D14D28F2
:103FF0000CBF0222002233E0022904D13C280CBF6E
:10400000032200222CE003290CD140284FF00001AC
:1040100002D983F8481046E058711971D971987126
:1040200004221DE0042907D1997983F8490080EA28
:1040300001029A71052213E0052934D158791979C2
:104040008842987908D98BEA00009871481C187149
:104050000B4483F808B026E058450CBF0622002226
:1040600083F848201FE033785B071CD4BBF1230F93
:10407000D9F800300CD14A4A5248C5F89430012191
:104080001170C5F8643104F0E5FA4B4804F0E2FA27
:10409000D5F868311B785B4505D14B4B4B4A1A600C
:1040A0004B4B4C4ADA60DAF80030DFF82C9193F889
:1040B0004820062A82D193F8490001F089FD0028A2
:1040C00040F0EE84D9F8002092F84930482B00F0F7
:1040D0004B834FD8332B00F0158421D8292B00F0C7
:1040E000D08309D8252B00F0A783272B00F0AB83C2
:1040F000232B40F01985C6E02D2B00F0D38307D881
:104100002B2B40F0118503F0CBFE607100F0C5BC95
:104110002F2B00F07A84312B00F08C8400F004BD4A
:104120003C2B00F0E98009D8372B00F03684392B7E
:1041300000F09683352B40F0F7849EE1412B00F090
:10414000E6830CD83E2B40F0EF8403F0A9FE84F800
:10415000D40103F0A5FE84F8D30100F09EBC432BEC
:1041600000F0F883442B40F0DF84012385F8893187
:1041700000F093BCCF2B00F0138240D8C92B00F085
:10418000F6822BD84C2B00F0B083C82B71D04A2B71
:1041900040F0CA8403F08EFEA08100F07EBC00BF18
:1041A000A7190020A8280020748D010844290020A8
:1041B000448F0108A4910108A991010874290020E5
:1041C000682C0020D9910108FCFF0120EFBEADDE74
:1041D00000ED00E00400FA05642C0020CC2B00F078
:1041E000768104D8CA2B00F0958000F09DBCCD2BC1
:1041F00000F0A382CE2B00F0A98200F095BCD42B56
:1042000000F012820FD8D12B00F0D982C0F08A8240
:10421000D22B1BD0D32B40F0878403F04BFEA5F8A4
:104220006C0100F03ABCEF2B57D007D8D62B08BF53
:104230004FF0000900F0ED8100F076BCF22B00F0A9
:104240004982FA2B00F08C8200F06EBC337803F0C8
:10425000040303F0FF09002B40F01F8403F020FE4D
:10426000022884F8A00740F26382C34B83F8A0972A
:104270005EE292F805A04FEA5A0ABAF1120F1CD872
:104280004FF000091CE003F00BFE132815D8DFF8EF
:10429000F8A2DAF8003000F11E0B03EB8B0B03F0F1
:1042A000FFFDB64B0BF1010903F5A272197A8142A9
:1042B00000F0C5800C339342F8D10CF0FBF9ECE32D
:1042C000D14507D203F0F6FDAD4B23F8190009F1F3
:1042D0000109F5E70122AB4B40E2DFF8AC92D9F8D7
:1042E00000A003F0E7FDAAF85A00D9F8009003F007
:1042F000E1FDA9F85800D0E3DFF88C92D9F800A0CE
:1043000003F0CEFD8AF80000D9F80030187804F0E8
:104310006DFCC2E39C4B1A681278022A4FF0000A27
:10432000994671D1DFF86092D9F800B003F0B8FD7A
:1043300007EE100AF8EE477AB2EE048AC7EE887AE2
:104340000BEB8A03D9F800B0C3ED087A03F0A8FD9F
:1043500007EE900AB8EE677ADFED8C7AC7EE277A1F
:104360000BEB8A03D9F800B0C3ED0B7A03F098FD8C
:1043700007EE900AB8EE677ADFED857AC7EE277A06
:104380000BEB8A030AF1010ABAF1030FC3ED0E7AAF
:10439000C8D1BAF1070FD9F800B01CD103F080FDE5
:1043A00007EE100AF8EE477AC7EE887ACBED117A5D
:1043B000D9F800B003F074FD07EE100AF8EE477A62
:1043C000C7EE887ACBED127AD9F800B003F068FD19
:1043D0008BF84C0012E003F063FD0BEB0A035870FE
:1043E000D9F800B003F05CFD0BEB0A03D9F800B07C
:1043F000D87203F055FD0BEB0A0358750AF1010A58
:10440000BAF10A0FC5D148E3D9F800B003F048FD6E
:104410000BEB0A035870D9F800B003F041FD0BEB29
:104420000A03D9F800B0D87203F03AFD0BEB0A0387
:104430000AF1010ABAF10A0F5875E5D12DE31B788C
:104440008BF8013003F02CFD89F8010003F028FD02
:1044500089F8020003F024FD89F80300DAF800006F
:104460004C4BC5F874017930C5F870310CF02EF85A
:10447000494B80F0010018700FE303F011FD0B2889
:104480003FF61BAF404B4FF0060A0AFB00F01B68DB
:10449000C83003EB000A03F003FD03283FF60DAF1D
:1044A0008AF8060003F0FCFC8AF8010003F0F8FC2F
:1044B0008AF8020003F0F4FC8AF8030003F0F0FC31
:1044C0008AF8040003F0ECFC8AF80500E5E2537971
:1044D000092B7FF6F2AE314AD2F8009003F0E0FCEF
:1044E0002E4B89F80000D3F8009003F0D9FC89F82E
:1044F000010003F0D5FC294A13686428A8BF642092
:10450000187103F0CDFC254A13686428A8BF642005
:10451000587103F0C5FC214A1368FF28A8BFFF208B
:10452000987103F0BDFC1D4BD3F80090642828BFA0
:10453000642089F8070003F0B3FC184A89F80200E8
:10454000D2F8009003F0ACFC144B89F80300D3F8C8
:10455000009003F0AFFCD8F80030A9F80A005B79AE
:104560000A2B40F29A820D4BD3F8009003F098FC8E
:1045700089F8080091E200BF58070020448F010825
:104580008E100020110700203C0F00200000C842C0
:1045900000007A449C0800201100002064110020D3
:1045A00003F088FC6FF4AF6143189BB2C62B98BF31
:1045B000A4F8960103F07EFCA4F8440103F07AFC11
:1045C000A4F8460103F076FCA4F8480103F072FC5D
:1045D000A4F8D00103F064FC84F8E10103F060FC6E
:1045E00003F05EFC84F8E20103F05AFC84F88501D4
:1045F00003F056FC84F8920103F052FCCA4BD3F846
:10460000009003F057FC00EB80004000A9F8560032
:1046100026E103F04FFCC54B23F8090009F102091C
:10462000B9F1100FF5D138E253790F2B7FF445AE75
:1046300003F036FC072881463FF63FAEBA4AD2F86F
:1046400000A003F037FC0E2303FB09F90AEB090372
:10465000A3F81901B44BD3F800A003F02BFC0AEB2C
:104660000903B14AA3F81B01D2F800A003F022FC11
:104670000AEB0903A3F81D01AB4BD3F800A003F02C
:104680000FFC0AEB0903A84A83F81F01D2F800A027
:1046900003F006FC0AEB090383F82001A24BD3F8D0
:1046A00000A003F0FDFB0AEB09039F4A83F82101F8
:1046B000D2F800A003F0F4FB0AEB090383F822010F
:1046C000994BD3F800A003F0FFFB0AEB0903C3F8F2
:1046D0002301E2E103F0E4FB0F2881463FF6EDAD54
:1046E00003F0DEFBC9EBC909A14489F8D40003F04B
:1046F000D7FB89F8D50003F0D3FB89F8D60003F087
:10470000CFFB89F8D70003F0CBFB89F8D80003F082
:10471000C7FB89F8D90003F0C3FB89F8DA0004F07D
:10472000C9F9BAE133785A0700F1B78108F08AF97C
:1047300008F0D4FF0AF086FBAFE133785B0700F1A5
:10474000AC817B4B4FF4C8721A80A6E133785807CE
:1047500000F1A381774B1A7842F004021A709CE1B1
:1047600033785907E4D5DFE10DF0D2FD95E103F090
:1047700097FB704B1A7810B142F0020201E022F070
:1047800002021A7003F08CFB6B4BDFF8C4911870B7
:1047900003F09AFBC9F8000003F096FBC9F8040087
:1047A00003F088FB654B188003F084FB644B188092
:1047B00095F8783143F0020385F878316DE103F024
:1047C0006FFB019003F080FB834603F07DFB824684
:1047D00003F07AFB814603F06DFB03F06BFB03F003
:1047E0005FFB019B9BB9574B1020C3F800B0C3F887
:1047F00004A003F02DFE4F4B1A7842F001021A700C
:10480000B9F1000F00F04981C5F87C9145E1102B0A
:1048100040F04381C5F880B1C5F884A1B9F1000F1B
:1048200002D0494BC3F87C9148480223011D85F80A
:10483000883108F0AFFE30E1A06003F045FBA368CB
:104840001843A06029E103F035FBA4F85C0103F0F4
:1048500031FBA4F85E0103F02DFBA4F860011CE11C
:1048600003F01EFB84F87A0103F01AFB84F87E0142
:1048700003F016FB84F87D0103F012FB84F87F013E
:104880000BE103F017FBA4F8800103F013FBA4F87D
:10489000820103F005FB84F8840103F00BFBA4F80C
:1048A0008601FAE003F0FCFA84F8900103F002FBC1
:1048B000A4F89A0103F0FEFAA4F8960103F0FAFABC
:1048C000A4F8980103F0ECFAD9F8003084F89101CB
:1048D0005B79082B40F2E18003F0ECFAA4F89C012C
:1048E00003F0E8FAA4F89E01D7E003F0D9FA84F8BF
:1048F000CE0103F0D5FA84F8CF0103F0DBFAA4F877
:10490000D001CAE003F0CCFA84F89201C5E08146F8
:1049100003F0C6FA04EB090309F10109B9F1080F24
:1049200083F88801F4D1B8E03C0F00206612002023
:10493000AE0F00204D0700204C070020D22B002096
:10494000D02B0020DC180020A8280020282A0020D6
:10495000FC18002003F0A4FA0023A360607103F0A8
:10496000B3FAA3681843A06003F09AFA84F89001A0
:1049700003F0A0FAA4F85C0103F09CFAA4F85E012D
:1049800003F098FAA4F8600103F094FAA4F8800107
:1049900003F090FAA4F882017FE053794FF0070A00
:1049A000B3FBFAF2C2EBC2029A1A12F0FF0F7FF4C5
:1049B00084ACB3FBFAFABAF1000F6ED003F070FAD0
:1049C0005FFA80FB4FFA8BF003F0B8FA0AF1FF3A76
:1049D0005FFA8AFA814600283FF46FAC80F800B095
:1049E00003F068FAA9F8020003F05AFA89F8040003
:1049F00003F056FA89F8050003F052FA89F8070027
:104A000003F04EFA89F80600D5E7DFF8989209F12D
:104A1000400A03F04FFAA9F8980203F041FA89F826
:104A20009A0203F03DFA09F1040989F89702D14589
:104A3000EFD132E003F034FA1F283FF63EACD8F84D
:104A400000305B79082B7FF438AC00F1860A03F064
:104A500031FA04EB8A0900F03F00A9F8020003F0E4
:104A600029FAB9F80220800100F4FE531343A9F893
:104A7000023003F015FA000104F82A0003F010FADE
:104A800014F82A3000F00F00184304F82A0003F04D
:104A900007FA89F801000CF057FE002003F0BEFD74
:104AA000D8F80030987903F08AFDD8F80030002259
:104AB00083F8482095F8893173B1386803F04DFDCB
:104AC00018B9322003F0DFFCF7E707F093FC03F09E
:104AD00017FD604B604ADA60604B4C379F427FF4B1
:104AE00060AA5F4B1B689A0616D55E4BD5F88C21E1
:104AF0001B689A1A002A0FDB5B4A1278042A0BD92A
:104B00005A4A03F5123303F5F873C2F88C31584B47
:104B10005A6982F400425A61564B9B68002B00F0A0
:104B20009380554898478FE00BF0C4FDB8E70C28F8
:104B300025D1524803F08EFD1FE00C28F9D00A2839
:104B400021D14A4C4E4804F19C0603F083FD3046C7
:104B5000232110F094F910B1801BC4F89800D5F807
:104B60009830BBBB30224748C5F89830002110F080
:104B700053F9454A1378002BB3D044480FE07F28FF
:104B800014D1FFF799B90D28DBD07F280BD1013B59
:104B9000C4F89830234400223D4883F89C2003F059
:104BA00059FDFFF789B92F2B3FF686A9A0F1200206
:104BB000D2B25E2A3FF680A913B920283FF47CA91F
:104BC0005A1C2B44C5F8982083F89C0003F03BFD49
:104BD000FFF772B9591E254A705C202801D10B4697
:104BE000BFE7C2F898301344002283F89C20294B79
:104BF000294CD3F800A0D4F80090DFF87080484624
:104C000010F04AF908F19C070646494638463246F4
:104C100010F04AF9214B38B908EB060292F89C20B3
:104C200052445278500703D010349C42E3D306E03C
:104C30009C4204D2701CE3683844984702E018484C
:104C400003F008FD00238DE705B0BDEC028BBDE845
:104C5000F08F00BF00ED00E00400FA050C2A0020F0
:104C600050070020941900204C070020A82800209D
:104C7000000C0240240F0020BA2B0020AE91010846
:104C8000AEA2010844290020A7190020A99101081B
:104C9000D591010844010020748D0108448F01085A
:104CA000B9910108580700202DE9F04F9A4E9B4A10
:104CB00033689B4C03F59C43203313602388994A47
:104CC00001331168238042F201030B4087B0934601
:104CD0001BB1954B1A7801321A7007F04FFADBF8C6
:104CE0000030DD0405D5914B1B68D80701D40DF0C9
:104CF000E9FB8F4B8F4D1A68937A23B3013B127BEC
:104D000035F813301AB1C3F53B6308339BB21BB2BD
:104D1000A3F57A73B3F57A7FA8BF4FF47A7323EAC9
:104D2000E37307EE903AB8EEE77ADFED837A834BD0
:104D3000C7EE277A9FED827A67EE877AFCEEE77AF4
:104D400017EE902A1A80DBF80030D90540F18F80E9
:104D500032687C4B9A4204D9237913B9704B0122F3
:104D60001A71B4F9000078496D4B0E781428CCBF45
:104D700000200120C6F3800630B14FF0000883F810
:104D8000068083F8058001E04FF00308664BB4F914
:104D900000E05F686D4B94F806C0D3F800A062791C
:104DA00063882988BCF1030F56D8DFE80CF0020CA9
:104DB000204410B1298000213BE0002E40F086867F
:104DC0002980A6714BE097F8009009EB8909CE4540
:104DD000CCBFB1464FF000094FF0010CB9F1000F04
:104DE0003AD0013362469BB24FF0020CDAE78EB143
:104DF000BAF80E106980A980DFF864C1B7F80280A4
:104E0000A5F80680ACF80280B7F80280ACF8048000
:104E10004FF0020897F8009097F801C0CC440CEBD3
:104E20008C0CE64500F35686002E00F05386298050
:104E30000221A17113E029800321A17162716380B5
:104E40007EB141490B7843F002030B70344B0022D2
:104E50005A710DF037FB04E0298084F806C06271B6
:104E60006380B8F1000F02D0404603F0A7FA384F34
:104E7000B7F8520107F060F9814660B90CF021F9EA
:104E8000294B0022C3F80890C3F80C90C3F8109087
:104E90005A619A61DA612C4A13785A0769D5DBF8AE
:104EA0000030DB0665D52B4B1B78DE0661D42A4B20
:104EB0001D4E93F80080B8F1000F10D097F8D43150
:104EC000B9F1000F15D16BB1244B1A68336A9B1AE4
:104ED000002B07DA0DF0F6FA86F8249049E0B9F1D4
:104EE000000F3FD1102003F069FA012386F8243027
:104EF0003FE033B1194A12684FF47A7101FB032382
:104F0000336296F82430A3B303F03EFA064B002236
:104F100083F824202DE000BF9419002014070020FE
:104F200050120020B8050020382A0020C8100020A8
:104F3000BC0500208E10002000007A44302B002099
:104F400000C07F44404B4C00A81900208C1B00205F
:104F5000580700204D07002011000020BC4F002002
:104F6000762B002096F824301BB103F00DFA86F85A
:104F70002480002297F8D2A197F8D311B7F898614E
:104F8000B7F89AE11346A85E9B08B042C4BF63F02D
:104F90007F03DBB202327045B8BF43F04003082AFA
:104FA000F1D19C4E96F825209A4205D196F82620FC
:104FB000F92A04D8013200E0002286F8262086F87B
:104FC0002530954BDFF880821A78EAB9D8F800309E
:104FD000D80709D5B9F1000F16D190490B78DA0737
:104FE00012D50DF0A3FA0FE08C4A13785B070BD5AE
:104FF0008B4B1B7843B1637933B911B10DF062FA71
:1050000002E0B9F1000FF9D096F82620814BDFF8C5
:105010004092142A40F095807F490A781AF1000ADC
:1050200018BF4FF0010A7AB393F825205F2A12D1F6
:105030007A490A7802F0040202F0FF0112B10DF081
:1050400041FA08E00B200191009303F0B7F9009BAF
:10505000019983F82610BAF1000F15D096F8253083
:105060007D2B11D16D4A137803F0040303F0FF0286
:1050700013B10DF027FA07E00B20019203F09EF91F
:10508000644B019A83F8262064490B7803F00403EB
:1050900003F0FF00002B54D196F825305D4A572BC2
:1050A00011D1604B4FF47A721A80DBF80030180689
:1050B00001D50CF06BFA5C4B1B6813F0080340D170
:1050C0005A4A13803DE0DBF80010490715D55A2BEA
:1050D00013D1574B197819B118700122554B1EE0A6
:1050E00092F8273083F0010382F827300BB10C20AF
:1050F00000E00D2003F062F923E05D2B00F0EE8468
:105100005B2B00F0ED845E2B0BD1032000F0E9BC9B
:10511000A72B40F00485484B1A7842F004021A701D
:105120000FE0562B03D1009305F006F9009B3A4996
:105130000A78002A00F0EA846F2B40F0E1840DF039
:10514000F5F9DBF800305B0734D596F82730A3B1CA
:10515000324A1378580710D5B5F90620B7F89831B8
:105160009A420ADDD8F8003013F0010305D1334A22
:1051700032211180274A82F82730D8F80030D9032D
:105180000AD52F4B1A782AB9294A127812B92B4A14
:105190003221118001220CE0254B1A7852B11F49AF
:1051A0000A7802F0040202F0FF011AB91970214BCB
:1051B00001221A70D9F80090002709F1790AC8F87D
:1051C000007009F17B060AF10203D919DA5D4B7808
:1051D00016F8010C9A420CD2314607F06AF940B138
:1051E00016F8023C01229A40D8F800301343C8F860
:1051F00000300437502F06F10406E4D1114B1F781C
:1052000047B3114D084F2B68104E13F0020F40F0BA
:105210004D8345E3382A002011000020A819002002
:10522000B1050020A41900205007002028100020FC
:10523000D90F0020DA0F00204D070020C00F0020FA
:10524000D80F0020A7190020C8100020CC10002083
:105250003C0F002009F1C90A09F1CA060AF101034D
:10526000D919DA5D4B7816F8010C9A4229D23146E9
:1052700007F01FF928B396F802E0BF4B307996F893
:1052800003900EF1FF3E0EEB4E0E9E44BB4B4FF0D3
:105290000C0C03F128080CFB00FC08EB0C014A681D
:1052A00072450ED0002208F80C908A60012202FAA2
:1052B00000F093F85820C1F804E022EA000083F8D7
:1052C00058000637482F06F10606C7D1AC4BDFF869
:1052D000D0921E68AB4B1B680293AB4B1B780393B9
:1052E0004FF00008D9F80030002B00F0D0821F7872
:1052F000002F00F0CC82D9F8042002998A1A002AE3
:105300000DDB01F5FA72C9F804209C4A012192F8DC
:10531000580001FA08F120EA010182F85810039AB6
:10532000002A00F0B48219F8041C5878934A04311A
:10533000C9B2002840F06A82944835F91110B0F8DB
:10534000960100F1C80E714502DD93F802A015E048
:10535000C838814203DA9B78C3F1000A0EE092F864
:105360005810012303FA08F321EA030382F85830A6
:10537000029A02F5FA73C9F8043088E292F85830BC
:1053800043FA08F3DA0700F18282BAF1000FCCBFCA
:105390000220012003F034F87B1E132B00F26E82F2
:1053A000DFE813F0140021002E003E0056005D00DF
:1053B000C3003C01A201D20102026C023E004C007B
:1053C0005D00C3003C0193000E0172013778574421
:1053D000FA2FA8BFFA2727EAE7773046377002F09E
:1053E00043FE01201AE077785744642FA8BF642752
:1053F00027EAE7773046777002F036FE02200DE0AC
:10540000F778634B5744642FA8BF642727EAE777F0
:10541000F7703046196802F0E1FD03203946C0E11B
:10542000717951446429A8BF642121EAE171717145
:105430000D2003F011FC0D2F00F020823179514432
:105440006429A8BF642121EAE17131710E20A8E12D
:10545000B179514481F30801B1710520A1E14D4BAF
:105460001B681A78022A22D107EE90AAB8EEE70A42
:10547000F2EE047A80EE270AD3ED097A30EE270A9D
:10548000B5EEC00AF1EE10FA09D4DFED437AB4EEBE
:10549000670AF1EE10FAC8BFB0EE670A01E09FEDAF
:1054A0003F0A83ED090A0F2003F0EAFB0AE099782E
:1054B0005144C829A8BFC82121EAE17199700F2081
:1054C00003F0CAFB0F2F00F0D981324B1B681A780A
:1054D000022A20D107EE90AAB8EEE70AF2EE047A8B
:1054E00080EE270AD3ED087A30EE270AB5EEC00A1F
:1054F000F1EE10FA09D4DFED287AB4EE670AF1EE86
:1055000010FAC8BFB0EE670A01E09FED240A83EDF0
:10551000080A12206DE159785144C829A8BFC82152
:1055200021EAE171597012203BE11A4B1B681A788D
:10553000022A37D107EE90AAB8EEE70ADFED167A15
:1055400093ED0C7A80EE270A30EE070AB5EEC00A1A
:10555000F1EE10FA07D4B4EE670AF1EE10FAC8BF04
:10556000B0EE670A01E09FED0D0A83ED0C0A1020F2
:1055700003F086FB21E000BFE9960108382A0020ED
:1055800064110020BC4F0020B10500205807002006
:10559000182A00201C2A00200000C8420000000039
:1055A000642A0020197B5144C829A8BFC82121EAD8
:1055B000E1711973102003F04FFB102F00F05E8192
:1055C000C34B1B681A78022A1ED107EE90AAB8EEC8
:1055D000E70ADFEDC07A93ED0B7A80EE270A30EE12
:1055E000070AB5EEC00AF1EE10FA07D4B4EE670A66
:1055F000F1EE10FAC8BFB0EE670A01E09FEDB60AFF
:1056000083ED0B0A1320F4E0D97A5144C829A8BFCE
:10561000C82121EAE171D9721320C2E0AC4B1B68AA
:105620001A78022A22D107EE90AAB8EEE70ADFED37
:10563000AB7A80EE270AD3ED0F7A30EE270AB5EE6B
:10564000C00AF1EE10FA09D4DFEDA27AB4EE670ACF
:10565000F1EE10FAC8BFB0EE670A01E09FED9E0AB6
:1056600083ED0F0A112003F00BFB0AE0997D5144F2
:10567000C829A8BFC82121EAE1719975112003F05A
:10568000EBFA112F00F0FA80914B1B681A78022A6E
:1056900020D107EE90AAB8EEE70ADFED907A80EE0F
:1056A000270AD3ED0E7A30EE270AB5EEC00AF1EEE6
:1056B00010FA09D4DFED877AB4EE670AF1EE10FA3A
:1056C000C8BFB0EE670A01E09FED830A83ED0E0AC2
:1056D00014208EE0597D5144C829A8BFC82121EA71
:1056E000E171597514205CE0794B1B681A78022A25
:1056F00020D107EE90AAB8EEE70AF2EE047A80EE27
:10570000270AD3ED0A7A30EE270AB5EEC00AF1EE89
:1057100010FA09D4DFED6F7AB4EE670AF1EE10FAF1
:10572000C8BFB0EE670A01E09FED6B0A83ED0A0A7D
:1057300009205EE0D9785144C829A8BFC82121EAD0
:10574000E171D97009202CE0614B1B681A78022A9C
:105750001ED107EE90AAB8EEE70ADFED5E7A93ED70
:105760000D7A80EE270A30EE070AB5EEC00AF1EE98
:1057700010FA07D4B4EE670AF1EE10FAC8BFB0EE23
:10578000670A01E09FED540A83ED0D0A0A2030E01C
:10579000597B5144C829A8BFC82121EAE171597336
:1057A0000A2003F059FA69E0494B1B681A78022A6B
:1057B00022D107EE90AAB8EEE70ADFED487A80EE34
:1057C000270AD3ED107A30EE270AB5EEC00AF1EEC3
:1057D00010FA09D4DFED3F7AB4EE670AF1EE10FA61
:1057E000C8BFB0EE670A01E09FED3B0A83ED100AE7
:1057F0000B2003F045FA41E0D97D5144C829A8BFE8
:10580000C82121EAE171D9750B20CAE7012835D1F9
:1058100035F911109878B1F5617F05DB40F6330357
:105820009942B8BF0B4601E04FF461730C2F25D1AC
:105830004FF4966191FBF0F1A3F5617393FBF1F3E3
:1058400092F859105FFA83FA514517D0BAF1030F55
:1058500094BF5146022182F85910214A07FB0121C9
:10586000204A0231116002F019FC3846514603F01B
:10587000F3F90AF10100C0B202F0C2FD1A4B012295
:1058800093F8581002FA08F20A4383F8582008F1F6
:105890000108B8F1040F09F10C097FF423ADB0E45D
:1058A000DBF80030DB050ED5637963B13B689C07FC
:1058B00009D5338813F0010418D10BF002FC012044
:1058C00002F0B6FD12E0012002F0C2FD01230EE05D
:1058D0001C2A00200000C8420000000000007A449A
:1058E000F80E002064110020382A002000232A68C6
:1058F00050070CD55BB1012002F0AAFD338899074F
:1059000008D40BF0DEFB022002F092FD02E0022040
:1059100002F09EFD34889D4B14F0030F4FF40042BB
:1059200014BF5A831A833B689A0608D42B681B0558
:1059300040F19D804FF4807002F07AFD9BE0944B23
:105940001B789F0763D5934B1B78042B5FD92B687B
:1059500013F4007704F010040DD0002C4BD110206C
:1059600002F066FD202002F073FD8B48011D07F058
:1059700011FE02223BE0A4B22CB1102002F068FD1F
:10598000864B01241F702B68580529D5844B1B6852
:105990005A89844BB3F900100029B8BF494291429B
:1059A00009DAB3F90230002BB8BF5B429342ACBFB7
:1059B0000023012300E0002393B1338899061BD410
:1059C000202002F035FD7848784B011D1A685B688D
:1059D0004360026007F0DEFD704B01241C700BE099
:1059E00033889A0608D5202002F032FD00226B4B46
:1059F00001241A7000E000246D4E96F85A309BB9CD
:105A00000E2002F0DBFC012386F85A300CE014F083
:105A1000300F8BD0102002F01BFD202002F018FD6B
:105A20005E4B00221A7002E0002C3FF47FAF002290
:105A300013466048604C0021195260481952604872
:105A4000A6181952002030607160B06004F1280679
:105A50005034164414440233042B30607160B0603B
:105A600020606160A06002F11402E2D15EE74FF4B1
:105A7000807002F0EDFC534A5379082B144601D094
:105A80000E2B02D1402002F0E3FCDBF800305B0576
:105A900079D594F8083223B94B490B7813F0040FE9
:105AA00002E02B6813F4002F0BD0414B002283F847
:105AB000D4203C200AF002FE002864D002F01EFA36
:105AC000F7E70CF0BDFE0CF0A9FC5CE04FF0010C18
:105AD000FFF768B94FF0030CFFF764B9012000E04D
