:020000040800F2
:10000000B405002089010008FD290108252A0108FE
:10001000FB290108F9290108F7290108000000005F
:10002000000000000000000000000000F5290108A9
:10003000F329010800000000F1290108FF29010847
:10004000E5010008E5010008E5010008E5010008F8
:10005000E5010008E5010008E5010008E5010008E8
:10006000E5010008E5010008E5010008E5010008D8
:10007000E5010008E501000891280108E5010008F4
:10008000E5010008E5010008E5010008E5010008B8
:10009000E5010008E5010008E5010008E5010008A8
:1000A00091270108C1270108E5010008D1270108AF
:1000B000B1270108E5010008A1270108EB29010883
:1000C000D9290108E5290108D3290108E50100081B
:1000D000E501000829290108E50100088528010833
:1000E0000D2A0108E5010008412A0108E501000880
:1000F000E5010008E5010008E5010008E501000848
:10010000E5010008E5010008E5010008E501000837
:10011000E5010008E5010008E5010008E501000827
:10012000E5010008E5010008E5010008E501000817
:10013000E5010008E5010008E5010008E501000807
:10014000E5010008E5010008E50100087921010842
:10015000E5010008ED27010835290108E12701081C
:10016000DF290108CD290108E5010008E5010008A3
:10017000E5010008E5010008E5010008E5010008C7
:10018000E5010008E5010008002100F004B80F4B6C
:100190005B58435004310E480E4B42189A42FFF40C
:1001A000F6AF0D4A00F003B8002342F8043B0B4BB6
:1001B0009A42FFF4F9AF0A48016841F47001016006
:1001C00012F0BEFA01F05AFB70470000AC83010840
:1001D00000000020B4010020B8050020A440002049
:1001E00088ED00E0FFF7FEBF2DE9F04F2DED068B07
:1001F000C74CC84B23609FB00023636009F020FC0C
:1002000018B90EF0ABFF09F03FFCDFF864B3DFF87C
:100210006483C14DDFF860A3DFF8609308F0A4F8B1
:100220009BF8003043F001038BF8003011F074FDAF
:10023000BA4BC8F80C306B6FA360B94BC8F80830E4
:100240006B6BB84823F080036B636B6F43F0807374
:100250006B672B6B43F03F031EAE2B6303238DF8BC
:100260003E3041F6FF7326F83C3D31460AF0AFFBC5
:100270004FF6FF73AC48ADF83C3031460AF0A7FBAF
:10028000AA4831460AF0A3FBDFF8F4C2CDF808C053
:10029000604631460AF09BFBA54831460AF097FBC1
:1002A0003146A4480AF093FB30460AF0BBFB0F9B93
:1002B000A14AB3FBF2F3E360A04BA14A00271F6001
:1002C0005F60A04B5A60F02288F823200722DFF8F5
:1002D00098829F601A60D8F80830CAF8003099E810
:1002E0000F0086E80F002B6BDDF808C00F9843F075
:1002F00008032B632B6B43F008032B634FF48043FD
:10030000ACF818304FF40043ACF8183010A90AF0DC
:100310005EFB12A911980AF05AFB64200BF037FC1F
:1003200039468948A02213F0D7FA2B6C43F0130307
:100330002B646B6C43F001136B64844B474603F1F1
:10034000C0009A7A93F80BE053F8105B02F00701B3
:10035000D20805EB82028900156A4FF00F0C0EFAE5
:1003600001FE0CFA01F125EA01011162156A8342CE
:100370004EEA05011162E4D10023DFF8948108F10F
:1003800010020021995401330C2BF6D1FF23704A3F
:1003900088F81C3088F81D3088F81E3088F81F3027
:1003A0006C4B13606C4D6D4A04201070284630224F
:1003B000039313F091FA14222A7002222A7605225E
:1003C000039B85F82420664A97F805B082F800B0B0
:1003D000A3F5F172A3F59173C8F8243009EBCB03B0
:1003E000DAF800505B7CC8F82830AB0644BF012324
:1003F000C8F82830C8F8202000235A4A40F2DC51BF
:1004000099520233102BF8D108A800211C2213F0B6
:1004100063FABBF10E0F04D00BF0EF0BBBF1080F2A
:1004200002D101238DF8323005200BF0BDFA18B14E
:100430004088003018BF0120C5F340038DF82730F5
:10044000C5F380138DF82A30C5F340338DF8203082
:10045000C5F3C03300F001008DF8233015F40063BC
:100460008DF8260007D097F88231B3F1010EDEF146
:10047000000353EB0E038DF82430C5F300438DF8D1
:100480002B30A36AB7F84411ADF83610003318BF0B
:1004900001238DF82C30C5F300538DF82D30B7F8BB
:1004A0004631ADF83030B7F85231ADF82E30C5F3E3
:1004B00080438DF8283097F854311A1C18BF012258
:1004C00005F0010BC5F3C0088DF82920ED04B7F83D
:1004D00050218DF821B08DF82280ADF8342004D55C
:1004E0002149B1F84C11ADF83610B2F5FA7F02D9B6
:1004F0000BB9ADF8363097F8D4311C4884F82C305D
:100500000021642213F0E8F99DF83230002B39E025
:10051000B805002023BD0008003802400005FA0598
:1005200000000008000002400004024000080240F1
:10053000001002400014024040420F00884000209A
:100540003F90020010E000E0D03E0020E44D0108A2
:10055000A01A00200A0D0020B01D0020AD1D0020B3
:10056000B8130020D2130020180B0020501B0020CD
:100570009040002000ED00E07808002014460108BB
:10058000000C024014BF02230023BBF1000F02D174
:10059000B8F1000F00D0013309EB83034FF00009DD
:1005A000D3F8E0300593CDF81090059A32F8093071
:1005B0004FF6FF72934200F09B81D8B2A44A9DF897
:1005C00027104FEA001C1B0A02EB0C0541B1DFF8B3
:1005D000B4E26968714503D12989012900F082815B
:1005E0009DF8231041B1DFF8A0E26968714503D19D
:1005F0002989042900F076819DF8241041B1DFF8A3
:100600008CE26968714503D12989202900F06A814B
:10061000022B02D19DF8201003E0012B04D19DF89C
:100620002110002900F05E819DF82D1031B19DF858
:10063000321019B90438032840F22C81012B52D111
:100640009DF8283023B9BDF83430B3F5FA7F07D9C7
:1006500052F80C307F498B4204BF032384F82D30BD
:10066000FF234FF00008298984F8743084F875302E
:100670006B7B686884F87880C4F88450ADF83C10CF
:100680008DF83E30314602238DF83F3084F83080BB
:10069000C4F83480C4F83880C4F83C80C4F8708052
:1006A00084F8768084F877800392CDF808C00AF049
:1006B0008EF9039ADDF808C0A97A52F80C00424678
:1006C00009F06EFF28460EF047FA634B6349C4F801
:1006D0008830634BC4F88C30C4F8908028460A1DDB
:1006E00007F00CFBFEE0022B49D1DDF810E05D487D
:1006F0008DF83F305FFA8EF14FF01C0E0EFB01F1CA
:1007000000EB0108DDF810E088F801E04FF0000B85
:100710004FF0010E88F802B088F80AB000F801E046
:10072000697BB5F808E06868C8F80C508DF83E1091
:100730003146ADF83CE00392CDF808C00AF047F925
:10074000DDF808C0039AA97A52F80C005A4609F05D
:1007500027FF28460EF000FA434BC8F81030434BF1
:10076000C8F8143008F11001C8F818B0284608F18C
:10077000140207F0C3FA049901310491B2E0032B8B
:1007800040F086809DF82830DFF8EC800BB39DF8B0
:10079000293098F8018053B1BDF83430344AB2FBA7
:1007A000F3F22846082192B2BDF8363003E028461D
:1007B00008214FF6FF7208F0E1FE04EB8803C3F84E
:1007C00058012C4BC3602C4B9A7803EBC2031922BF
:1007D00031E0BDF8343098F801B0B3F5FA7F15D99F
:1007E000234AB2FBF3F292B2BDF836302846082114
:1007F00008F0C4FE04EB8B030D22C3F858011F4B15
:10080000C36098F8023008EBC30314E01C4AB2FB43
:10081000F3F292B2BDF836302846012108F0AEFE60
:1008200004EB8B030922C3F85801124BC36098F8FC
:10083000023008EBC3035A710F4B9A78597803EBD7
:10084000C200013201710131856059709A7049E02E
:10085000E04D0108000001405D180108400600203D
:100860006919010830060020BDA6000841190108D9
:1008700000127A0079190108501B0020891901081B
:1008800040420F0000080240000402400000024005
:10089000042B27D1DFF85082924A98F8023098F85A
:1008A00000B008EBC303012183F804B0BDF82E307B
:1008B00092FBF3F292B2BDF83030284608F05EFEAB
:1008C00004EB8B030A21C3F8880198F8023008EB87
:1008D000C3020133517198F8002088F802300132C8
:1008E00088F8002009F10209B9F1180F7FF45DAE14
:1008F0007D4A7E4B127884F8A8217D4A1578A5F1AF
:1009000017024FF0000C022A83F800C09E461CD844
:10091000236A6344D3ED007AF5EE407AF1EE10FAE3
:1009200002D1A36A83BB2AE0724A0CEB02080FCB08
:1009300088E80F009EF800300CF1100C0133BCF178
:10094000C00F8EF80030E3D1EBE76B4B03EBC50330
:10095000D3F814B093F810908EF80090BBF1000F0C
:10096000DFD0CC45DDDA634A4FEA0C1303EB020813
:100970005B440FCB0CF1010C88E80F00F1E7DAF8CB
:100980000030D80427D420E05B4B5C4A03EBC5035E
:10099000D3F8F44093F8F0001070002CEFD000234F
:1009A0008342ECDAC3EBC3016218DFF87881D2F836
:1009B000009041F8089001EB080C9188ACF8041005
:1009C00092798CF806200133EAE705F0EF03082B53
:1009D0004B4B20D121E09EF800100129F5D9494B5D
:1009E00000228A4203F11003EFDA13ED047AF6EEE7
:1009F000007A27EE277A013203ED047A13ED057AA7
:100A000027EE277A03ED057A13ED037A67EE277A4E
:100A100043ED037AE5E70E2D08D11A7842F0100273
:100A20001A70182D08D10BF0B5FC05E01A7822F0E9
:100A300010021A70192DF5E70EF086F9DAF8003079
:100A4000590302D4304B01221A70304930480B78D8
:100A5000DFF8D4B043F004030B7011238DF83E305F
:100A600002238DF83F302B4B1A6B01252A43314668
:100A7000ADF83C501A6309F0AAFF274B274A1A60C9
:100A800000200BF0B7F80FF037FB11F0C3FD58460C
:100A900000211022DAF8004012F01EFF4FF6FF731B
:100AA000069303234FF0000A8DF81C3014F0020364
:100AB00004F4004904F400688DF81DA08DF81EA010
:100AC0008DF81FA05C4631D01EA9154841F8605D25
:100AD00009F03DFF0723257084F801A0A570E3709D
:100AE00025E000BF40420F00501B0020DC0A002020
:100AF000B8130020B012002014460108E2130020B1
:100B00000D0A0020B8120020C418002090400020D8
:100B100000000240003802406008002071B900085F
:100B200000080240E8130020741900201D46B9F1A6
:100B3000000F0FD01EA9042341F8603D814809F041
:100B400006FF0C2301222371A2716B1C0722657121
:100B5000E271DDB2B8F1000F0FD01EA9202341F8D9
:100B6000603D794809F0F3FE022301222373A2734A
:100B70006B1C07226573E273DDB2744B74481A6B09
:100B8000DFF8CC9142F480021A631A6B42F004023F
:100B90001A635A6C42F480725A6409F041FE6D4B3C
:100BA00010934FF00008022D6B4B119334BF434656
:100BB0004FF4806315934FF4006316934FF4005382
:100BC00017934FF48073189331464FF4003348461F
:100BD00013951993CDF83C80CDF84880CDF850801E
:100BE000CDF86880CDF86C80CDF87080CDF8748039
:100BF00009F0ECFDD9F80030584A43F00103C9F878
:100C000000305168564B0B4043F440335360554B12
:100C10005A68012D22F0407294BF0021012122F474
:100C2000807242EA01225A6099684F4A0A4042F0B3
:100C300002029A60DA6A013D22F47002EDB242EAE1
:100C40000555DD62012204EB0805A978002950D082
:100C500014F80810EE78501C0929C0B210D9A1F17F
:100C60000A0505EB4505D3F80CC04FF0070E0EFA48
:100C700005FE2CEA0E0EAE404EEA0605DD600DE0E4
:100C800001EB4105D3F810C04FF0070E0EFA05FE38
:100C90002CEA0E0EAE404EEA06051D61062A0CD85F
:100CA000013A02EB82025E6B1F25954026EA05059C
:100CB000914045EA01025A631CE00C2A0CD8073A1D
:100CC00002EB82021E6B1F25954026EA0505914026
:100CD00045EA01021A630DE00D3A02EB8202DE6A78
:100CE0001F25954026EA0505914045EA0102DA6292
:100CF00000E0104608F10408B8F1100F01D00246D8
:100D0000A1E79A68194D42F400729A609A6842F419
:100D100080729A609A6842F001029A609A6842F082
:100D200080429A60B5F858214AB9B5F95A31FBB9F1
:100D3000B5F95C31D3F1010338BF002319E000237A
:100D400017E000BF000402400000024000380240EB
:100D5000706402404C2001408419002000230140AF
:100D6000E030FCFF00200140FDF7FFC0180B002021
:100D7000134613F00103B04C6AD1B049DFEDB07AED
:100D80000B7012B208EE902AB7F95C31B7F95A210C
:100D9000F8EEE88A08EE102A0AEE903A68EEA78A82
:100DA000B8EEC88AF8EEEAAAB0EE680A28EE278AFA
:100DB0006AEEA7AA10F04EFFB0EE409AB0EE680AB5
:100DC00010F0E8FEF0EE409AB0EE480A10F042FF54
:100DD000F0EE408AB0EE480A10F0DCFEB0EE408A39
:100DE000B0EE6A0A10F036FFB0EE40AAB0EE6A0A22
:100DF00010F0D0FE20EE097A69EE8A7AF0EE475ABA
:100E0000E7EE885A2AEE096A69EE806AC4ED6E5AE6
:100E1000F0EE465AE6EEC85AE7EE087AE6EE486A81
:100E20002AEE28AA28EEC00A69EEE89A68EE898AB6
:100E300084ED6BAA84ED6C0A84ED6D8AC4ED6F5A63
:100E4000C4ED709AC4ED716AC4ED727AC4ED738A10
:100E5000DFF840A27B48DAF8003097F85F81B3F8FA
:100E6000626097F8619100210C2212F035FD00219B
:100E70001422754812F030FD7448002184F8DC110A
:100E80000C224170043012F027FD714BC4F8EC3194
:100E900023200AF07CFE6F4B1A8822F040021204D5
:100EA000120C1A801A8822F038021204120C42F036
:100EB00028021A801A8892B242F040021A806B20EF
:100EC00080210DF039FE4FF0060B574696200AF0B0
:100ED0005EFE752001210FAA08F061FD9DF83C30EF
:100EE000682B07D0712B05D00BF1FF3B1BF0FF0BDC
:100EF000ECD11CE00C2001210FAA08F050FD9DF858
:100F00003C305A2B05D8542B05D2143B042B0ED859
:100F100001E0EC2B0BD1032384F8DC31432384F86C
:100F2000E0314D4BC4F8E4314C4BC4F8E8314C4B44
:100F300000221A7094F8DC21032A9A4640F06C844F
:100F4000414B484A1A60484A5A60484ADA60484A5F
:100F50001A61484804228AF8002006220270464A94
:100F60001168B8F1090F41F0010EC2F800E0034624
:100F7000934600F24D84012000FA08F040F202325C
:100F80000240002A40F03C8410F0FD0F00F038844D
:100F90003A4AC4F8D0213A4AC4F8D421394A042044
:100FA000107041F0030107225A70CBF80010DBF8F3
:100FB0000020920702D5D4F8D0219047B9F1000F54
:100FC0000CBF0722002284F8F0212F4A4FF47A71D7
:100FD00011601D4948460B6898472C4A002313703E
:100FE00095F855310BB18AF8003095F856310BB1B0
:100FF00024490B7095F8573103B11370DBF80030BA
:101000001B0749D536B2642396FBF3F203FB126645
:1010100036B207EE106AF8EEC76A07EE102AF8EE4D
:10102000C77A9FED1B7AE6EE877AB2EE047A67EE16
:10103000877AC4ED7D7A32E0B805002000000020F8
:1010400035FA8E3C88070020140A002094070020FF
:10105000D4470108003800409F99000839EB000888
:101060006E0A002079F6000829C80008A9190108AD
:1010700090C1793D08000020100A002065F60008A4
:101080009DC800085C080020280A00206408002091
:101090008988883CC40A00200023C4F8F431C94B75
:1010A0001A7842F002021A70C74A4FF40041518385
:1010B0004FF4804111834FF00A099846C24E73697C
:1010C00083F400437361736983F48043736119206F
:1010D0000AF05DFD01200AF08DFD19200AF057FD90
:1010E00009F1FF3900200AF085FD19F0FF09E5D16B
:1010F0004FF4804333834FF400433383D4F8F83103
:101100009FEDB28A1B7BB24E00EE103AB8EEC00AD9
:1011100020EE080A10F09EFDAE4B9FEDAF7AD3EDA6
:10112000047AAE4B84ED7F0A1B8827EE888A07EE8F
:10113000903AF8EEE77A84ED808AC7EE277A9FED41
:10114000A87AC7EE877AC4ED817A0BF063F9FF21A4
:101150001C22304612F0C0FB1B227270A14AA24B27
:10116000126886F80090022112F0020F19703046C2
:1011700004D00126867004261E70C170560704D55F
:1011800019784E1C1E700326465412F00A0F0CD01C
:101190001A7804218154511CC9B205264654D11C29
:1011A0000232D2B2197006218154904E32689106F3
:1011B00008D5197801F1010E83F800E04FF0070E11
:1011C00000F801E011060ED519784FF0090E00F86D
:1011D00001E001F1020E0131C9B283F800E04FF0E5
:1011E0000A0E00F801E06979082901D00E2909D119
:1011F00093F800E00EF1010C83F800C04FF00B0CE7
:1012000000F80EC093F800E00EF1010C5FFA8CFCC0
:101210004FF00C0912F0040F83F800C000F80E9094
:101220000BD0DFF8C4910EF1020E89F800E0DFF870
:10123000A0E14FF010090EF80C9093F800E00EF1C9
:10124000010C5FFA8CFC4FF0120912F4806F83F8E6
:1012500000C000F80E9010D095F81492B9F1000F6C
:101260000BD0DFF884910EF1020E89F800E0DFF870
:1012700060E14FF013090EF80C9012F4007F09D0D2
:1012800093F800E00EF1010C83F800C04FF0150C4C
:1012900000F80EC0182917D193F800E04FF0160C93
:1012A00000F80EC00EF1010C5FFA8CFC4FF017092C
:1012B00000F80C900EF1030C0EF1020E5FFA8EFE98
:1012C00083F800C000F80E10110308D5197801F159
:1012D000010E83F800E04FF0190E00F801E0D2058E
:1012E00004D51A78511C19701A2181541A78511C8E
:1012F000197014238354002198223D4812F0ECFA0F
:101300000FF04AFA3B49B5F84E31A4F80C320023ED
:101310000B808B703968B5F89401374AC4F80822FD
:1013200001F1850C354984F80E320A6082B23449E5
:10133000DFF8D0A0D1F80090DFF8CCE023F80A2045
:1013400009F596794EF813900233242B8946EED195
:10135000D6F800E01EF4805F0CBFB5F89C31134650
:10136000AAF8063000231CF80320B2B90CEB0302E4
:10137000917892F803B059450FD209B1013901E0D3
:101380000BF10101527801EB810101EB810101F5C3
:101390006171043289B22AF812100433502BE2D161
:1013A0001EF0080F00F0DE8095F88E31062B00F25B
:1013B000D380DFE803F0042B32597492920045F297
:1013C000F05225E090400020000C024035FA8E3C9F
:1013D000491D0020140A00200AE81C4110000020CA
:1013E00000401C46100A0020481D002078080020FC
:1013F000041A00208C1300209E0C0020800800207E
:1014000084400020F20A0020C807002042F6F8229B
:101410007C4B1A800FF04CFA9DE07A4B42F6F82292
:101420001A8000010A2390FBF3F0A0F5B0600023BE
:10143000754A98500433482BFAD1744B744A5A6059
:10144000744B122240201A7009F0BCFC002800F0F6
:10145000838001234FF0070C90F900006E4A8DE85D
:10146000081040216D4B71E0664B42F6F8221A805D
:10147000664B6B4A5A60674B102240201A7009F085
:10148000A1FC002868D001234FF0000E90F9000065
:10149000644A8DE8084040214FF4E13356E0594B4F
:1014A00042F6F8221A80594B5F4A5A60594B08227B
:1014B00040201A7009F086FC00284DD00123002539
:1014C00090F90000594A8DE8280040214FF4E1339B
:1014D0000EF092FBC4F858023AE04A4A544842F6E9
:1014E000F82111804B490C22062B0A7010D00023E2
:1014F000037084F85C3284F85D321B2384F85E321A
:10150000052384F85F2284F860324FF4E1350DE062
:101510000021017084F85C1284F85D12454D84F856
:101520005F22212184F85E1284F86032374B424AF0
:101530005A60402009F046FC70B1012100233F4A67
:1015400090F900008DE80A0040212B460EF054FB74
:10155000003018BF012028B9082010F0CDFB2B4B1C
:10156000374A5A6033682B4A13F4804F04D0122153
:10157000117026493348486042F20101194003F0D6
:10158000010003F4005581B11E4944F6206EA1F814
:1015900000E025B1082111701C492B4D4D6020B190
:1015A0000C2111701949294848601178043951708B
:1015B0001A0640F189804FF0000A254DDFF89CB0F3
:1015C0002448C4F864B25146152285F801A0C5F834
:1015D00004A0C5F808A012F07FF91F4BABF105027B
:1015E00050461A60039306F07BFBD9F80020EA60AE
:1015F000022009F0E7FB039B194688BB802010F00E
:101600007BFB5AE042190020D40800200000002093
:10161000D5A20008651D002049A50008A08601008C
:10162000C5A2000899A40008B1A200084DA40008B2
:10163000B809002090D0030071A200082DA3000873
:1016400029A3000805A3000811A300081DA3000892
:10165000E809002020080020080A00200A0D0020C8
:1016600090F805E06B786E4A4FF00C0C0CFB032CE5
:101670009CF801C0F44504D00133DBB2042BF2D94D
:1016800000236B700B6890F900001B78002B6B78BF
:101690004FF00C0505FB03220CBF012103215378F9
:1016A00000910022019202210EF0A6FA5D4B186013
:1016B0000028A3D0012006F013FB38685A4B00F530
:1016C000CB721A6010F07AFC33685B0553D5574B28
:1016D000D4F880721F60042009F074FB0421C4F860
:1016E00084020AF075F9524B84F8880208201F60C2
:1016F00009F068FB4F4B504D186008210AF068F95B
:10170000002184F889022C22284612F0E5F88E2365
:101710006B704FF07C0AE0234FF07D09EB7085F889
:1017200000A085F82B90454D2C220021284612F070
:10173000D3F88A236B701020A023EB7085F800A0EB
:1017400085F82B90C4F88C7209F03CFB1021C4F88A
:1017500090020AF03DF984F894022020C4F89872AF
:1017600009F030FB2021C4F89C020AF031F984F81A
:10177000A0020FF089FA3368314A13F4002318BF2E
:10178000012313700AF0DDF92E4B18602E4B5A79A5
:10179000052A194603D12D4B4FF4C8721A802C4BE1
:1017A0004FF47A721A802B4B1A7842F008021A70A2
:1017B000294B1A7822F002021A70326840F60203AE
:1017C00013406BB1254B264A1A60264B03221A7030
:1017D000254B01221A70254A00231380244A1380C6
:1017E0008B683360234B01221A7098F8003063F045
:1017F0007F0388F800301FB0BDEC068BBDE8F08F8A
:10180000B8F1010F04D81C4A00211170FFF7CFBBBB
:101810004FF00008FFF7AFBB01200AF0F3F93EE4F8
:10182000C04E0108E409002094120020041E00208C
:10183000581E0020A41E0020281E00205D1E00202F
:10184000C5180020CC0A0020180B0020C419002065
:10185000F61800200D0A0020F0180020FC1D0020C2
:10186000900C00205C1E00201E0000206619002045
:1018700068190020C41800205C0800202DE9804869
:1018800093B0FEF7B1FCC04C23792268254633B1F2
:10189000A368D31A002B02DB002323712373216971
:1018A00042F201030B400BB9B74803750B0740F137
:1018B0008581A3691B7A062B00F27081DFE813F0A3
:1018C000070007003500EF002C015A015A01237F61
:1018D000AD48002B00F0638100230377036A90F882
:1018E0001DE090F8248093F800C00223EF1803F164
:1018F000010A97F82500A44E40FA0EF000F00F0000
:1019000060450ED20B280CD897F8259006EB0A07F5
:1019100006EB800097F8257009EA080607EB062613
:1019200086630233102BE1D12BE194F86800964BCB
:10193000002800F0B28093F8B660002083F86800B9
:1019400093F8B50006F0070740EA0720D86693F839
:10195000B70000F03F077F0147EAD6061E6793F8FD
:10196000B860B60046EA901693F8B90000F0010797
:1019700046EA87265E6793F8BA6006F00F07FF0114
:1019800047EA5000986793F8BB0000F07F073F01DB
:1019900047EA1616DE6793F8BC60760046EAD01078
:1019A00093F8BD6006F0030740EA4720C3F88000C3
:1019B00093F8BE0000F01F07BF0147EA9606C3F880
:1019C000846093F8BF60F60046EA501093F8C16057
:1019D000C3F8880093F8C00006F0070740EA072024
:1019E000C3F88C0093F8C20000F03F077F0147EA7C
:1019F000D606C3F8906093F8C360B60046EA901626
:101A000093F8C40000F0010746EA8726C3F8946003
:101A100093F8C56006F00F07FF0147EA5000C3F8CE
:101A2000980093F8C60000F07F073F0147EA1616BA
:101A3000C3F89C6093F8C760760046EAD01093F82C
:101A4000C86006F0030740EA4720C3F8A00093F8F7
:101A5000C90000F01F07BF0147EA9606C3F8A4605B
:101A600093F8CA60F60046EA5010C3F8A80093F84D
:101A7000CB00C7074CBF40F21476AD26C3F8AC606C
:101A800086074CBF40F21473AD2310F0080FC4F862
:101A9000B0300CBF0123032381E003467FE094F8BC
:101AA000CD6039480023AEB390F8CE60B0F8D0C016
:101AB00080F8CD304FF0020E03271EFB06788044DD
:101AC0000EFB060E98F8D2809EF8D6E04EEA082E5D
:101AD000F44564D190F8D300012803D081285ED169
:101AE0003B4600E00346102E84BF102084F8CE0051
:101AF00094F8CEE000204FEA4E0E70454FD0234FB1
:101B00003E18263796F803C0367946EA0C26C653A7
:101B10000230F2E7334642E094F818011A4B0028ED
:101B20003CD0002083F8180193F81901A82835D17A
:101B300093F82C3193BB05EB43009FED157A90F899
:101B40001C6190F81D0100EB062007EE900AF8EEEC
:101B5000E77A1048C7EE877A9FED0F7A77EEC77A5B
:101B6000FCEEE77A17EE906A40F823600133082B09
:101B7000E1D106E094F850318BB1034B002083F89B
:101B8000500101230BE000BF680800203A09002043
:101B9000CDCCCC40980900200080BB430023D8075F
:101BA0000CD501202075BD48C3F34003037083F0BA
:101BB0000103237102F5C333A033A3604F0414D58E
:101BC00094F8513123B1B64B002083F85101012321
:101BD000B34823754BB101230371B04B00261E702F
:101BE00002F5433303F5A0738360CE0711D594F853
:101BF000526194F85301AA4BB0420AD001201873E5
:101C0000A64883F853610027477002F5C330A0301F
:101C1000986088040AD50023A14800F5AA769E5B47
:101C2000002E41F045820233182BF5D1237D33B9C4
:101C30009B4BD3F86C31D31ADB43DB0F00E001235D
:101C40008BB1D4F87031D21A12F1500F03D4944BE7
:101C500093F874313BB102F00BFF012384F8753126
:101C600084F8743135E1D4F878218D4B0132002AA3
:101C7000C8BF00220906C3F8782140F12A81D4F8B0
:101C80007C31B3B994F88031013B042B00F22181FF
:101C9000DFE813F01600160016000C01DF00804B81
:101CA000D3F87C010AF021F806F014FD08B10CF01D
:101CB00095FBD5F87C010AF01DF80028EFD1E1E78B
:101CC000D4F8A021764D167816B1012E12D000E17D
:101CD000012B00F2FE80734B95F88121D5F87C0131
:101CE0000C2101FB023292F8212053F8221009F056
:101CF000F7FF65E0D5F87C0109F0DFFF002800F070
:101D0000E88095F88031022B46D0032B54D0012B6C
:101D100040F0DF80644BD5F898211B689A1AC72AD7
:101D200040F2D780D5F89411042933D85D4AC5F81C
:101D300098310C2000FB0121D5F87C5191F821103D
:101D4000D5F808E00023104650F823607645DFB24E
:101D500004D00133082BF7D1002300E03B468B422F
:101D600005D0284652F8211009F0BAFFB1E094F8E6
:101D700081310C2202FB0300466A16F8011B19B1DF
:101D8000284609F0C9FFF8E7D4F894310133C4F8C4
:101D900094319EE002209AE0424B95F88121D5F8DB
:101DA0007C010C2101FB023292F8212053F8221011
:101DB00009F096FF03208AE0D5F8A0319B780BB993
:101DC000042084E095F89C310BB985F89C6194F867
:101DD0009C31334D012B17D1D5F89431B22B0DD84E
:101DE000304AD5F87C01134493F85C1009F094FF55
:101DF000D5F894310133C5F8943105E00023C5F8D6
:101E00009431022385F89C3194F89C31244D022BA7
:101E10001AD1D5F894310F2B13D8D5F8A021214928
:101E20005278D5F87C0102EB02120A44134493F86D
:101E3000101109F071FFD5F894310133C5F89431D0
:101E400002E0032385F89C3194F89C31022B40D9A1
:101E5000B6E7D4F88821124B0132C4F88821D4F8AF
:101E6000A021D2785AB193F881210132D2B2052152
:101E7000B2FBF1F101EB8101521A83F881210A4B87
:101E80001B68C4F88C31002384F8A43194F8A53180
:101E900023F0020384F8A531012018E00C00002093
:101EA00068080020A04E010884400020C94BD4F8E7
:101EB0008C211968C84B8A1A40F6C4118A4208D985
:101EC000D3F8A82122F02002C3F8A821052005F0AC
:101ED00007FF09F036FE0BAE2060D4F8B831BE4DD6
:101EE000304698479DF82C3033B92A68D5F87031C0
:101EF000D31A642B01F1CC80D4F8C0212368B64DED
:101F00001344C4F87031002384F8743105F5E2708D
:101F1000D4F8B031984758B9B4F8CA31002B00F062
:101F2000D980AD4BD3F85C0264300EF0F1FFD1E004
:101F3000D5F8CCE1BEF1000F23D005F5E87205F528
:101F4000E17105F5E475002317461846B7F802C09D
:101F500027F802CB1EF903800133082B1CFB080075
:101F6000F4D14B8813829EF9087013FB07034FF4DA
:101F7000807793FBF7F321F8023FA94202F11202A6
:101F8000E1D1954DDFF8609294F8062205F5E270F4
:101F9000014608F09BFDB9F800304A4605F5E27AA3
:101FA00005F5157B002B00F08980D5F808321B78E9
:101FB0004FF0000808EE103A05F503754746108803
:101FC0008649B0F57A7F03D1002341F808302B61B0
:101FD0003AF907E051F80830734441F808302B69AA
:101FE00005EE90EA0133012BF8EEE57A2B6106D17C
:101FF0000023C5ED017AC5ED007AAB6019E095EDDF
:10200000006A05EE903A77EEC66AB8EEE57A86EE9B
:10201000877A36EE077A37EEC76AD5ED027A85ED14
:10202000017AE6EE867A85ED007AC5ED037AC5ED94
:10203000027A002301282AF807302BF807302DD127
:102040002B69012B09DD013B00EE103AD5ED037A37
:10205000B8EEC00A87EE800A01E09FED610A0690A3
:102060000491059211F0F2FE18EE103A06980499C8
:10207000059A4BB1F8EEC87AB4EEE70AF1EE10FA21
:1020800002DD4FF47A7317E051F808304FF47A719B
:1020900003F5FA7393FBF1F32BF807300237062FA1
:1020A00008F1040805F1140589D1012801D107F0D0
:1020B00097FFB9F80030013BA9F8003000233AF847
:1020C00003103BF803208A1A2AF803200233062B58
:1020D000F5D121E709F035FDD4F864322060C31A48
:1020E000A4F86032C4F8640201F026F8D4F868322B
:1020F000394DDA0240F1B480B5F8CA7107F40067CF
:10210000BFB2002F40F09880364B1B785B0740F140
:1021100093804FF4006007F0FFFFD5F85C32C5F8FC
:102120006C321A78B3F85A3094F874924FF47A7C7F
:102130000CFB03FCB4F86032022A08BF01229CFBAE
:10214000F3FC0CBF85F8702285F87072CCF1000C9E
:10215000D4F86C7294F870A21FFA8CFC0023A4F8D7
:1021600072C2384607F120011A4690F856E090F8FE
:102170005350BEF1000F01D0754507D8B9F1030FD8
:1021800008D85FFA82FEBEF1020F03D14FF0000EB5
:1021900080F856E0DFF85480BAF1000F28D005EE41
:1021A000905AD1ED006AF2EE047A66EEA76AB8EEB4
:1021B000E57AF4EEC76AF1EE10FA44BFC7EE277A6B
:1021C000C1ED007AD1ED007AFDEEE77A17EE905A74
:1021D00018E000BF8440002068080020B00A0020FA
:1021E00000000000F0180020F6180020DE0A002091
:1021F00007EB020E9EF801B0AB4538BF8EF80150D8
:102200009EF80150AD0128F80350AB4D05F51F7E37
:102210004FF0000823F80E80013205F2822E032AC7
:1022200023F80EC000F1010003F1020301F10401E3
:102230009BD1012385F88832B4F8CA319E4D1F0521
:102240001AD49E4B1B7803F0040303F0FF079BB9DD
:1022500095F8883283B10EF051FE85F888720BE054
:10226000B5F8CA311D0507D5944B1B78580703D51F
:102270004FF4006007F07EFF914B9B78B3B1B4F947
:102280009022B4F846349A4210DC8B4B93F8B53266
:10229000012B01D0192B02D194F8962432B90E2BC0
:1022A00004D0082B1CBF0023A4F8F839D4F85C92A2
:1022B000814D99F82471BFB3B5F8CA31990733D06D
:1022C00005F6FC1393ED080ADFED7E7AB5F8FA897E
:1022D000B4EEE70AF1EE10FA22D911F057FD05F538
:1022E0002265D5ED007A20EE270A11F005FDB0F544
:1022F000617FA8BF4FF4617006EE900ADFED727A3D
:10230000B8EEE60A80EE270A0FF044FC07EE107ADA
:10231000F8EEC77A27EE800A11F0EEFC80B200E0FA
:1023200000204044A4F8FA09D4F8A831624D9A0676
:1023300040F18580B5F8CA3103F03003002B7ED020
:1023400095F8A531DB077AD5B5F9282ADFED5F7A54
:102350005F4F0A2392FBF3F308EE103AB8EEC88AF7
:1023600028EE278AB0EE480A0FF014FCF0EE408AFF
:10237000B0EE480A0FF06EFCD5F82C3AB5F9360AE3
:1023800093F80380B0EE409AB2EE048AB8F1000FE1
:1023900035D0B5F8323A1FFA83FA1BB2C01A0FF0E3
:1023A0006FFEC8F10005A84203DB4045A8BF4046C8
:1023B00000E02846B4F8303A8244B4F9340A1FFAEF
:1023C00083FB1BB21FFA8AFAC01AA4F832AA0FF0D4
:1023D00057FEA84203DB4045B4BF054645465D4471
:1023E000ADB2A4F8305A0FFA8AFA2DB207EE90AACD
:1023F00005EE905AB8EEE77AF8EEE56A09E006EEE7
:10240000900AB5F9345AB8EEE67A06EE905AF8EE2C
:10241000E66A68EEE67AE7EE097A26EE899AC7EE72
:10242000887AA7EE289AFDEEE77A89EE089A17EEE9
:10243000903ABDEEC99A3B8019EE103A7B801E4D52
:10244000B4F81A2405F236430093224BD4F8381A14
:102450001F68484609F16403B84794F87492B9F1CB
:10246000030F16D9D5F83C3A5A88B2F5FA7F10D244
:10247000B5F9F809B5F9441A0028B8BF40425342EB
:102480001B1A994203DB13188B42A8BF0B46A4F812
:10249000443AD4F86822084B17011FD50023B4F83A
:1024A00042EAB4F840CAD4F83C8AB4F944AA0A49CA
:1024B00018461D468FE000BF68080020F018002075
:1024C0000C0000208FC2753CEFB6B04435FA8E3C4C
:1024D000F218002014000020B81200201A6912F42B
:1024E0008052DBD1B3F8FA19B3F8420AB3F8405A74
:1024F000D3F83C6AB3F9447A03F648234A4503F11A
:10250000100380F0FD8096F900E0CEF1000E07FB8D
:102510000EFE07EE10EA0FFA85FE06EE10EA0FFA3D
:1025200081FE05EE90EA0FFA80FE07EE90EAF8EEE3
:10253000C76AF8EEE77A13ED027ADFF8ACE467EEEB
:10254000877AF8EEE55A13ED047AE5EE877AB8EE6D
:10255000C66A13ED037AE6EE077A13ED017AE6EE2A
:10256000877AFDEEE77A17EE90CA2EF812C0013294
:10257000C4E798F9002011ED017A0FFA8CF7524266
:102580000AFB02F207EE907A05EE902A0FFA8EF21D
:1025900006EE102AF8EEE77AB8EEC66A67EE877A9A
:1025A00091ED007AE6EE077A0FFA80FBF8EEE56A25
:1025B00091ED017AE6EE877AFDEEE77A17EE902A42
:1025C00092B217B25F4526F8152007DD10461A466D
:1025D0000135103113464D45CBD305E00FFA83FB8F
:1025E0005F45F5DB0246F1E7D4F8202B57881588C4
:1025F000C5EB070EC31A1FFA8EFE19B20FFA8EF042
:10260000814214DD0DF12A0202EB49039A4207D000
:10261000578817FB0EF797FBF1F722F8027FF5E7D3
:10262000022290FBF2F22A4492B2154606E00223FF
:1026300091FBF3F3EA18FD1A92B2ADB2B4F8FA794D
:1026400000234B453CD236F913E006EE90EA0FFA30
:1026500087FE07EE90EADFF89CE30EEB031E9EED8B
:10266000007AF8EEE77A0FFA82FE67EE877A07EED5
:1026700010EAB8EEC77A4FEA430CF4EEC77AF1EEEF
:1026800010FAF8EEE66A0DD40FFA85FE07EE10EAAE
:10269000B8EEC77AF4EE477AF1EE10FAC8BFF0EE62
:1026A000477A01E0F0EE477A76EEA77ADFF838E372
:1026B000FDEEE77A013317EE908A2CF80E80C0E722
:1026C00005EE900A06EE901AB8EEE57AF8EEE67A94
:1026D000C7EE277A9FEDC07AF4EEC77AF1EE10FAD2
:1026E00009D4B7EE007AF4EE477AF1EE10FAC8BFDB
:1026F000F0EE477A01E0F0EE477AB84BC3ED007A8E
:10270000B74B1A7802F0040202F0FF03002A7CD0D3
:10271000D4F8683294F8270BB24A079013F0006C93
:102720001BD11369DE0416D4B2F8082B01234B45E4
:1027300011B208D2AC4A32F913208A42B8BF0A4615
:1027400092B20133F3E7D4F8203B5D88A94204DD5F
:10275000551BADB202E0654600E000252369D4F8C0
:10276000482B099203F48058B4F99012D4F84C0B1A
:10277000D4F8202B03F0100308934FEA49090023F3
:102780004B4539D0BCF1000F0BD1B8F1000F40F030
:102790009F84954E33F806E0C5EB0E0E23F806E055
:1027A00003E0B8F1000F40F09E848F4E079FB2F80F
:1027B00002A036F903B047B1B2F804E0F34517DBE5
:1027C000D345B4BFDE46D64612E0B2F800E0F3458A
:1027D00003DBD345B4BFDE46D646099F26F803E0A7
:1027E0003E8AB14206DA089E26B1B2F804E07E4E77
:1027F00023F806E00233C3E794F8502B794B013AF3
:10280000D2B2182A00F259810AE04B45F4D2764A36
:1028100002F14A0131F8131022F813100133F4E7E2
:1028200001219140714A0A40002A00F04681B3F824
:10283000CA21D5050CD5B3F8F429ADF82C20B3F88E
:10284000F629B3F8F839ADF82E20ADF8303018E09D
:10285000B3F8402A1969ADF82C20B3F8422AADF834
:102860002E20C804B3F8442AADF8302009D5B3F9B6
:102870009012D3F8483BDB899942BCBF5242ADF875
:102880003020B4F9261A4FF47A7201F5E161514310
:102890004FF4616391FBF3F1A1F5FA71ADF84410C7
:1028A000B4F9241A01F5E1614A4392FBF3F3A3F56D
:1028B000FA73ADF84630B4F8083BB4F88A22A3F2B4
:1028C000DC53ADF83230D4F8483BDB89D21AADF88E
:1028D0003420B4F88C22D21AADF83620B4F88E2207
:1028E000D21AADF83820B4F89022D21AADF83A20B6
:1028F000B4F89222D21AADF83C20B4F89422D21A3D
:10290000ADF83E20B4F89622D21AADF84020B4F8C3
:102910009822D31AADF842300022324B03F66A30C7
:10292000002111520232102AF7D1D3F86872D3F87D
:102930007C0B93F87A3B07975B00099308900B4652
:10294000099E2848B34200F09D8000F53864621863
:1029500095793DB10126153506FA05F5079E3540F6
:1029600000F08A80675C089892F904B092F80190B0
:1029700092F803C092F805A0C7EBC70600EB460625
:102980004FEA490EB6F90000B6F902502D1AADB261
:10299000642005FB0BFB9BFBF0FB4FEA5508C8EBE3
:1029A0000B0B1FFA8BFB124812ACBCF1000F03D1CA
:1029B000744434F81C4C0CE0A644C45E3EF91CEC94
:1029C000744519DAA444A44503DBE645B4BF744654
:1029D0006446C4521BE000BFCDCCCC3D18000020A3
:1029E000F01800206808002070130020992098013A
:1029F00058140020B012002009DDCCEB040CF44583
:102A000003DBA445B4BFE646A64620F803E04FF03A
:102A1000010ED6F80A60B24892F902200EFA09F9BE
:102A200019EA060F0CBF76464FF0FF3600F53F6EF1
:102A30007F0033F80EE012FB0EF24FF0640EC41963
:102A400092FBFEF20FFA8BFB5A45B4F86A4BB6B212
:102A50000CDB4FFA8AFB05FB0BFB9BFBFEFBC8EB79
:102A60000B0B0FFA8BFB9345A8BF934607440BFB58
:102A7000064BA7F86ABB02E000F53F601D52023327
:102A800007315DE70024D0F87C8B25460E2202FB3F
:102A90000582944E92F90670A35B17FB03F764233B
:102AA00097FBF3F7A753E8B209F09AFC01353844D5
:102AB000082DA05304F10204E8D1894C266916F0D0
:102AC0002008274634D0002009F08AFCA4F86A0BBD
:102AD0000546012009F084FCD4F86832A4F86C0B98
:102AE000190625D5D4F8103CB4F8242A1B78012BFC
:102AF00022D1D4F87C3BB4F926EA93F9141093F967
:102B0000063011FB02F25B4232210EFB03F392FB13
:102B1000F1F26FF0310E92B293FBFEFE964493FBFE
:102B2000F1F175440A44A4F86A5B1044A4F86C0BF4
:102B3000D4F87CAB002319E0D4F87C1BB4F8263A17
:102B400091F906E091F914101EFB03FE32239EFB5F
:102B5000F3FE11FB02F2754492FBF3F3A4F86A5BF7
:102B60001844E3E7D1520233102B10D0C3EBC30556
:102B70005C4A5544985EB5F90010B5F90250884298
:102B80009146EFDB29B28842B8BF0146EAE7544BD1
:102B9000D3F83CBA9BF90830A3B994F850AB0AF1CA
:102BA000FF33182B6FD8DFE803F02F6E6E4C6E6E7C
:102BB0006E436E6E6E6E6E586E6E6E6E6E4C636EA3
:102BC0006E582F000025484BBBF9062039F9051037
:102BD000442000FB053009F0ACFAC5EBC50280B219
:102BE00029F80500524400B2B2F90030B2F90220CF
:102BF000984203DB13B29842B8BF034629F8053068
:102C00000235102DDFD1C8E79BF804301BB100203E
:102C1000B4F8741B08E0354B1B7803F0040303F091
:102C2000FF00002BF3D101460FF09AFA01252BE0AB
:102C30000020B4F8701B0FF093FA0120B4F8721B57
:102C400007E00020B4F8721B0FF08AFAB4F8741B86
:102C500001200FF085FA022535E2002509EB450336
:102C6000E8B2998801350FF07BFA062DF6D10BE01A
:102C7000002509EB4503E8B2D98801350FF070FA59
:102C8000042DF6D11FE20025B8F1000F02D1BAF1F0
:102C9000050F0CD12846B4F86A1B0FF061FA681CC6
:102CA000C0B2B4F86C1B0FF05BFA0235EDB2F20261
:102CB00008D40F4D236855F8A02C9A1A002AA8466C
:102CC0001ADAE5E100260B4B03EB4603A819C0B264
:102CD00019890FF045FA0D2EEBD00136F3E700BF4E
:102CE00068080020D213002080140020F018002073
:102CF00060190020F20A002003F5FF7345F8A03C9C
:102D000015F89C3C0BB10CF03BF8B4F8CA312BB968
:102D1000A84BD3F85C0264300EF0FAF8A64B187892
:102D2000002840F0B58123691B0340F1B18115F8FB
:102D30009B3C023B052B19D89E4B93F8E8392BB9E5
:102D40009E4B53F8980C03689B68984755F8943C41
:102D500015F8902C1344B3F5807FA8BF4FF480730F
:102D60008342D4BF45F8943C45F8940C15F89B3C3D
:102D7000023B082B00F28C81DFE813F009004300CE
:102D8000630079009200A40050016E017B018C4B1E
:102D90001A6855F8883C64339A4240F279814020A1
:102DA0000FF014F8002840F073814026854B58F846
:102DB0008C2C824C1A441F4692F8640170B108F0C2
:102DC000B5FF54F8942C013A44F8942C54F88C2C08
:102DD000013E02F1010244F88C2CE7D155F88C2C0D
:102DE000764B174497F86421002A40F0518143F84C
:102DF0008C2C4FF0FF3243F8882C032203F89B2CD5
:102E000046E124230093704B019303F10C020292DC
:102E10004920A3F10A02502102330AF0A1F8002848
:102E200040F03681236913F080024FF0FF3305D064
:102E300045F8883C45F88C0C0423B7E045F88C2C09
:102E40002AE0624A02230021009301910291482066
:102E500002F108030AF084F8002840F019814FF0CD
:102E6000FF3345F8883C45F88C0C05239EE007238A
:102E70000093574B019303F10C0202924720A3F1F8
:102E80000802002104330AF06BF8002840F00081AA
:102E900045F88C0C4FF0FF3345F8883C062385E05D
:102EA0004C4A05230021009301910291532002F125
:102EB00008030AF055F8002840F0EA8045F88C0C29
:102EC000072373E040200EF081FF002840F0E080EF
:102ED00055F88C3C0C2B60D8DFE803F0070B0E1282
:102EE0001823272B2F33404A4E003B4806F0FCFCAA
:102EF0004DE03A483A4911E03A483B493B4A44E000
:102F00003B4894F8E61994F8E7293EE094F8C03974
:102F100038480C2202FB037797F8C21906F0E4FC4C
:102F200035E03548B4F8F013F8E73448B4F8F21354
:102F3000F4E73348D4F8BC11F0E7324B32489988B3
:102F4000ECE755F8843CDE0403D5304894F82814A7
:102F5000E4E71A4B0B2243F88C2C18E02C4894F829
:102F60002C1494F82D2494F82B3406F0BDFC0EE0BC
:102F7000284835F8801CD1E722690E4B140506D588
:102F80002548B3F83014B3F92E2406F0ADFC55F8FB
:102F90008C3C013345F88C3C7AE008F093FE002825
:102FA00076D04FF4805325F87E3C092305F89B3CEE
:102FB0006EE000BF68080020F818002060190020AB
:102FC00084400020A04E01086E50010814520108F0
:102FD0002C52010878520108E05F0108FA5F0108ED
:102FE000307001080F600108236001082F6001089C
:102FF00038600108496001085360010862600108F7
:10300000716001080C000020816001088B600108DC
:1030100098600108B1600108BC600108D4F868320A
:10302000980116D535F87C3C3D4C93B954F8783C62
:103030000B933C4B0E201B680C930BA908F05CFF14
:103040004FF4805324F87E3C092304F89B3C0AF09B
:10305000A5FB0EF0D9FE1BE015F8743C002BF6D052
:10306000D4F868329901F2D42D4B082203F89B2C36
:10307000EFE72D4B1A6855F8883CC8339A4203D9BC
:103080000DF0C8FB012391E708F01CFE0028F7D1E2
:10309000264B1B78002B7EF4F6AB224B1A695205A7
:1030A0007EF5F1ABB3F8FE0303F0B2FDFEF7EBBB28
:1030B000012303731E4B00265E7002F5C333A03359
:1030C0008360FEF7B3BDB8F1000F3FF4F0ADE1E56A
:1030D000099FB0F806E0FE89CEEB060A514502DDF5
:1030E000B644714512DB099FFE89B142114EC8BF3B
:1030F000B0F802E036F903A0D6BFB2F804E0B2F8A7
:1031000002B0B0F800B0F245FFF759BBB142C8BFFA
:10311000B0F802E0074ED8BFB0F800E0FFF768BB98
:10312000601900206808002084400020F818002062
:103130000C000020701300202DE9F04FC54AC64B4B
:10314000D2F800E0B3F90600BEF80A302DED028B8C
:1031500098428FB00FDBB0F5FA6F9EF8077007DA70
:10316000C21A5743A3F5FA6397FBF3F7643703E0FA
:10317000C7F1640700E06427B84BB3F894210292CA
:10318000B74A93F95E31D2F800C09BB20021039395
:1031900065460A46B04B029C31F903B0C4EB0B0301
:1031A00003F2F31640F2E634A64203D8002BB8BF70
:1031B0005B4201E04FF4FA73022A4FF06406A94C17
:1031C0002ED09CF81D81B8F1000F04D04345CCBF30
:1031D000C8EB0303002393FBF6F86FF0630A34F89F
:1031E00018900AFB083A08F1010834F918800FFA20
:1031F00089F4C4EB080404FB0AF494FBF6F4A1443C
:10320000994C21F804900EEB020424796343974C07
:1032100093FBF4F364339BB27B4393FBF6F630E00D
:103220009CF81E81B8F1000F04D04345CCBFC8EB19
:103230000303002393FBF6F66FF0630904EB4608E3
:1032400009FB063A04EB4606B8F90E80B6F91040C1
:10325000854EC8EB040404FB0AFA9AFBF9FA039CB6
:10326000C8EB0A0808FB04F8A6F804809EF806409C
:1032700083EAE376A6EBE37666437C4C96FBF4F6B2
:1032800064360CEB0208774B98F8019003F11C04AC
:103290004FF0640806FB09F999FBF8F902F804906D
:1032A00095F80B9003F11F0406FB09F999FBF8F957
:1032B00002F8049095F8159003F1220406FB09F634
:1032C000022A96FBF8F616551C4616BF253383F8DE
:1032D0002780D754029B644E9B4502DA735A5B42A7
:1032E00073520231062902F1010205F101057FF452
:1032F00051AF5A4DB5F89631984205DBB0F5FA6FEB
:10330000A8BF4FF4FA6000E01846C01A4FF47A7272
:103310005043C3F5FA63B0FBF3F34FF0640E93FB35
:10332000FEF204EB42016FF0630000FB023304EB9A
:103330004202098DB2F92A004B4F0AB2821A534356
:1033400093FBFEFE4A4B1B887144F18059063AD527
:10335000484BDFED497AB3F904200A2392FBF3F3DB
:10336000404AB2F840209B1A1BB208EE903AF8EEA1
:10337000E88A68EEA78AB0EE680A0EF06BFCB0EE41
:10338000408AB0EE680A0EF005FCB7F90220B7F9E2
:10339000003006EE902A07EE903AF8EEE66AF8EE74
:1033A000E77A20EE667AA7EE887A67EE807ABDEE3D
:1033B000C77AE6EE887A17EE103AFDEEE77A3B80A0
:1033C00017EE903A7B8095F89A31002B7BD02B4BEF
:1033D000244F1B88DFED2A0AB4F8428000EE103A31
:1033E0000121B8EE400A07F1440009F07BF8BCEE79
:1033F000C00A244B10EE101A89B2B8FBF1F101F1AA
:10340000010C1B781FFA8CFCA4F84CC0002B3BD09D
:10341000B7F84EB00023134AF75A02F1500E02F1EA
:10342000580033F80EA033F800801F521AFB0BFA35
:103430000FFA8CF9C8EB07089AFBF9F9C84423F88E
:103440000E800233082BE6D10E4BA2F84E1000205E
:1034500018701EE0A0120020F20A0020180B0020B5
:10346000C40A0020001900205C1200200CFEFFFF9F
:10347000320A00208C12002035FA8E3CC80A002047
:103480006F12833ADD090020B7F84E30013BA7F8F0
:103490004E30B4F84E10BB4A0BB2002B4FF0000375
:1034A0000FDDB2F94C70B84A985A083210FB01F09F
:1034B0009A5A90FBF7F0121AF2520233082BF2D10B
:1034C00001E0A2F84E30B14B1A6812F0020F9A4692
:1034D00074D0AF4B226E1B68AA4F9A1A45F207218F
:1034E0008A426BDD3B6605F0A9FFAA4BDFF8D88264
:1034F0001A78032A9946B8F8003022D10A2B2CD921
:103500000023282089F8003008F041FB05F096FFE1
:10351000B7F8640007F078FB9F4BA0491B68DA7886
:1035200090FBF2F0421C082A28BF08220A70597941
:103530001B7992B251435A43A7F86610A7F8682046
:103540000BE00A2B09D80323944A89F800300023A2
:103550001370A7F86630A7F8683099F800208D4BF3
:10356000012A0DD002D3022A1ED027E0B4F866202B
:10357000B8F800309A4221DD012389F8003011E0CB
:10358000B8F80020B4F86810914202DD02221A70E7
:1035900011E07C49B1F8661001318A4202DD002257
:1035A0001A700BE0082007E0B4F86830B8F8002083
:1035B00001339A42E0DC072006F012FDDAF80070D1
:1035C0003A0579D5724BE16E1A686E4BC1EB020A6F
:1035D00045F207218A456FDDDA666F4AB6F9069033
:1035E000D2F800806E4898F80A20B0F84E116D4E5F
:1035F000012AA9F57A7903D047D3022A23D046E0DD
:1036000093F88120196F03EB4202B2F8840008227C
:1036100091FBF2FE80B2CEEB0101014491FBF2F28C
:10362000A3F88C0092B21967B8F8080040F6E4439A
:103630005343C0EB13334FF47A725343B8F9062067
:1036400093FBF2F322E0584BB8F808B01B78C6F8A9
:1036500000B05B071BD500F5C3700BF057FB20B91A
:1036600017F0100F18BF4FF0000909FB09F23223C1
:1036700092FBF3F39944B8F906304FF47A7203FBE6
:1036800009F393FBF2F35B4400E0002333603368FB
:10369000464AD4E9240103FB0AFA4FF47A739AFBF1
:1036A000F3FA10EB0A0041EBEA710023C4E92401AC
:1036B0000FF0FAF93E4B18603E4B1A6812F4805F27
:1036C000984626D03E0621D53B4B1B7898071DD542
:1036D0003A4B1978042919D90023394E05229A55F5
:1036E0001E44981C0A27122BC2B2777004D0B1EB8B
:1036F000520F0346F1D800E014222244322382F80C
:103700009730FF2382F898300F2000E00A2006F05F
:1037100067FCD4F8B0301B4E002B7FD0294AD6F876
:10372000B41010688142914678D896F8B800B6F87F
:10373000BA205968002849D1012086F8B8008A5C6F
:10374000002A4FD01A78164B013AD3F83C3700FACA
:1037500002F21A4201D108F04DFA012384F8BC307C
:1037600007F068FAB4F8BA30064E002B3AD1D6F812
:10377000B0301B78053B012B34D808F0E2F9C6F8CD
:10378000C0002FE000190020501900207808002008
:10379000680800205C1E0020FC1D00201E00002088
:1037A000180B0020081E0020F0180020407E0500A5
:1037B0000C1E0020D00A00200D0A00200C0A002058
:1037C0009819002084400020001E0020002786F861
:1037D000B8708B5C33B1384608F00CFA86F8BC70D0
:1037E00007F028FAD4F8B020B4F8BA1052689C4B0D
:1037F000525CFE2A03D10022A3F8BA200EE0FF2A71
:1038000002D106F0D1FB09E0D9F800000A2616FB28
:1038100002020131C3F8B420A3F8BA10914E3378F4
:10382000590704D5904B4FF480425A8334E0D8F8BE
:103830000020D2075CBF43F0010333708B4B1B7831
:103840001F0703D4337823F001033370B4F8C43076
:103850001BB1874B1B68980705D4864B1B88003328
:1038600018BF012300E001233BB1022384F8BC30E0
:10387000337823F00103337005E03278D10758BF65
:10388000022384F8BC3008F05CF9D4F8C830C01AC0
:10389000002801DB07F0CEF9774F0DF0F5F93B7802
:1038A000002B7AD0D4F8CC30002B01F00180D4F872
:1038B000CC006B4D08F01EFA002800F0F987D5F80F
:1038C000CC0008F012FA092801D03F2857D14FF058
:1038D0000009D4F8D060DFF8B8814D4636B16748AA
:1038E000D8F80010324610F03FF810B9C14605B9BB
:1038F0004546634B08F110089845EFD3FDB1D4F865
:10390000D0302A68564812F803E0D9F80020D15C7C
:10391000714514D15A1C61B92D2B0AD8C0F8D0209A
:10392000034402444FF0200E83F8D4E082F8D41010
:1039300005E02344C4F8D02083F8D4E0DFE7D4F8CE
:10394000D0300BB14D4510D04E4807F029FA4D4507
:1039500007D855F8100B07F023FA092007F019FAD9
:10396000F5E7494807F01CFA0026D4F8D0309E420B
:103970009DD2424B985D07F00CFA0136F5E7D5F879
:10398000D030002B40F0BA87042841F0278005F1A1
:10399000D4000BF083FA00F08BBF3C4F97F84A300D
:1039A000012B40F08087DFF8EC80DFF8EC903B687B
:1039B000C8F80070C9F80030C346DFF8DCA05246F2
:1039C000106808F097F9002800F06087DAF8000026
:1039D00008F08BF9DBF8003093F84810024619B96B
:1039E00024285BD1012238E0012904D14D280CBFE5
:1039F0000222002231E0022904D13C280CBF03221C
:103A000000222AE003290CD140284FF0000102D9FE
:103A100083F848106CE058711971D97198710422BB
:103A20001BE0042907D1997983F8490080EA010253
:103A30009A71052211E005295AD1587919798842DD
:103A4000987906D950409871481C18710B441A7225
:103A50004EE090420CBF0622002283F8482047E047
:103A600000190020F0180020000C02400D0A002070
:103A7000100A0020F6180020F8180020D4190020A1
:103A8000806D0108FC6F010801700108041A002014
:103A9000F06B0108B41E0020B81E00203178C84B1E
:103AA000490725D4232ADAF8001016D1C548C4F8EE
:103AB000CC104FF0010E80F800E0C348C4F89C1110
:103AC0000192009307F06CF9C04807F069F9009B78
:103AD000197841F002011970019AD4F8A0311B78CD
:103AE000934205D1BA4BBB4A1A60BB4BBB4ADA6062
:103AF000DBF80030DFF808A393F84820062A7FF4AB
:103B00005CAF93F8490002F06DF9002840F0B786E9
:103B1000DAF8002092F849304E2B00F0E18475D895
:103B2000372B00F01D8522D8292B00F08E8409D870
:103B3000252B00F06384272B00F06784232B40F0B3
:103B4000DA86D6E02D2B00F0918408D82B2B40F09C
:103B5000D28607F000F9A24B587100F08DBE332BCE
:103B600000F0EB84352B00F0738200F0C4BE412BD3
:103B700000F0E9840AD83C2B00F008813E2B00F0CD
:103B8000F980392B40F0B78600F04EBC442B00F092
:103B9000208525D8432B40F0AE8607F0DCF80023C3
:103BA000AB60687107F0ECF80EF0AEF807F0D3F8F0
:103BB00085F88E0107F0DAF8A5F8580107F0D6F875
:103BC000A5F85A0107F0D2F8A5F85C0107F0CEF885
:103BD000A5F87E0107F0CAF8A5F8800100F04CBEF8
:103BE0004A2B00F049864C2B40F0858607F0B3F84D
:103BF000DFF8EC8188F8D60107F0ADF888F8D70136
:103C000007F0B4F8A8F8D80100F036BED12B00F0C8
:103C1000B6831AD8CC2B00F0458209D8C92B00F006
:103C20008683CA2B00F0EE80C82B40F0648656E0F5
:103C3000CE2B00F06E83C0F06383CF2B00F0948214
:103C4000D02B00F0528300F056BED82B00F06F81CD
:103C50000DD8D32B3DD029D3D42B00F0CB82D62B3B
:103C600008BF4FF0000800F0BA8200F044BEF22B0B
:103C700000F0108312D8EF2B40F03D86DFF87C81F6
:103C8000D8F8009007F072F8A9F86600D8F800801C
:103C900007F06CF8A8F8640000F0EEBDF32B00F01C
:103CA0009C84FA2B00F03F8300F025BE337803F0AC
:103CB000040303F0FF08002B40F0DE8507F04BF80B
:103CC000474B022883F8100740F2158383F81087CA
:103CD00011E307F04BF8A4F8A40100F0CDBD92F871
:103CE00005804FEA5808B8F1120F1CD84FF00009B0
:103CF0001DE007F030F8132815D8DFF80091D9F847
:103D0000003000F1200A03EB8A0A07F024F8354B53
:103D10000AF1050803F5AE72197A814200F0778145
:103D20000C339342F8D107F0B5FC00F0A5BDC145B6
:103D300007D207F01BF805AB23F8190009F10109B8
:103D4000F5E700234345284A06DA05A931F81310A0
:103D500022F813100133F5E708F1FF3802EB4803AE
:103D60002232934203D0002123F8021FF9E70122F7
:103D70001E4BD6E206F0EFFFDFF8648088F8E00122
:103D800006F0E9FF88F8DF0100F076BDDFF86C800F
:103D9000D8F8009006F0DFFF18B10228A8BF022073
:103DA00000E0012089F80000D8F800301B78022BD1
:103DB0000F4B14BF0F4A104A1A6000F05DBD00BFE0
:103DC000F0180020F8180020317001080170010877
:103DD000FCFF0120EFBEADDE00ED00E00400FA05BF
:103DE000180B0020806D0108A61A0020B9090020D8
:103DF000140000206DDC0008C9D00008C40A0020AF
:103E0000B41E0020D14B1A681278022A4FF0000825
:103E1000994670D1D9F800A006F09DFF07EE100A70
:103E2000F8EE477AB2EE048AC7EE887A0AEB880386
:103E3000D9F800A0C3ED087A06F08DFF07EE900ACE
:103E4000B8EE677ADFEDC27AC7EE277A0AEB88030D
:103E5000D9F800A0C3ED0B7A06F07DFF07EE900ABB
:103E6000B8EE677ADFEDBB7AC7EE277A0AEB8803F4
:103E700008F10108B8F1030FC3ED0E7ACAD1B8F109
:103E8000070FD9F800A01CD106F065FF07EE100A55
:103E9000F8EE477AC7EE887ACAED117AD9F800A011
:103EA00006F059FF07EE100AF8EE477AC7EE887A57
:103EB000CAED127AD9F800A006F04DFF8AF84C003E
:103EC00012E006F048FF0AEB08035870D9F800A08A
:103ED00006F041FF0AEB0803D9F800A0D87206F0FB
:103EE0003AFF0AEB0803587508F10108B8F10A0F08
:103EF000C5D100F0C1BCD9F800A006F02CFF0AEB38
:103F000008035870D9F800A006F025FF0AEB080353
:103F1000D9F800A0D87206F01EFF0AEB080308F1DA
:103F20000108B8F10A0F5875E5D100F0A5BC80462C
:103F3000DFF818929FED878AD9F800A006F016FFE7
:103F400007EE100AF8EE477A0AEB8803C7EE887A84
:103F5000D9F800A0C3ED087A06F008FF07EE100AB2
:103F6000F8EE477A0AEB8803C7EE887AD9F800A002
:103F7000C3ED0B7A06F0FAFE07EE100AF8EE477A68
:103F80000AEB8803C7EE887A08F10108B8F1030F3D
:103F9000C3ED0E7ACCD1B8F1070FD9F800A01CD12F
:103FA00006F0E4FE07EE100AF8EE477AC7EE887ACC
:103FB000CAED117AD9F800A006F0D8FE07EE100A73
:103FC000F8EE477AC7EE887ACAED127AD9F800A0DF
:103FD00006F0CCFE8AF84C0012E006F0C7FE0AEBB1
:103FE00008035870D9F800A006F0C0FE0AEB0803D9
:103FF000D9F800A0D87206F0B9FE0AEB080358758C
:1040000008F10108B8F10A0FC5D100F035BC1B78E2
:104010008AF8053006F09FFE88F8010006F09BFE46
:1040200088F8020006F097FE88F803004A4BD9F89A
:104030000000C3F8D001494AC3F8CC2185300021E3
:1040400007F06EFD464B80F00100187000F014BCC4
:1040500006F081FE0B283FF666AE3C4B4FF006099A
:1040600009FB00F01B68D03003EB000906F073FE7B
:1040700003283FF658AE89F80A0006F06CFE89F86E
:10408000050006F068FE89F8060006F064FE89F86F
:10409000070006F060FE89F8080006F05CFE89F86B
:1040A0000900E9E35379092B7FF63DAE2D4AD2F89A
:1040B000008006F050FE2B4B88F80000D3F80080FB
:1040C00006F049FE88F8010006F045FE254A13680F
:1040D0006428A8BF6420187106F03DFE214A1368C9
:1040E0006428A8BF6420587106F035FE1D4A136885
:1040F000FF28A8BFFF20987106F02DFE194BD3F8BA
:104100000080642828BF642088F8070006F023FE9A
:10411000144A88F80200D2F8008006F01CFE114B09
:1041200088F80300D3F8008006F020FEDAF80030AB
:10413000A8F80A005B790A2B40F29E83094BD3F85A
:10414000008006F008FE88F8080095E3C40A002005
:104150000000C84200007A4400190020580C0020DA
:104160000E000020A012002006F000FE6FF4AF6EDB
:1041700000EB0E039BB2C62B9CBFCF4BA3F8940160
:1041800006F0F4FDA5F8400106F0F0FDA5F84201A7
:1041900006F0ECFDA5F8440106F0E8FDA5F8D8010D
:1041A00006F0D9FD85F8ED0106F0D5FD06F0D3FD4A
:1041B00085F8EE0106F0CFFD85F8830106F0CBFD12
:1041C00085F8900106F0C7FDBC4BD3F8008006F0DF
:1041D000CDFD00EB80004000A8F8620024E106F06D
:1041E000C5FDB74B23F8080008F10208B8F1100F1D
:1041F000F5D141E353790F2B7FF495AD06F0ABFD7C
:10420000072880463FF68FADDFF8B092D9F800A0BE
:1042100006F0ACFD0E2303FB08F80AEB0803D9F8FF
:1042200000A0A3F8250106F0A1FD0AEB0803D9F8C8
:1042300000A0A3F8270106F099FD0AEB0803D9F8BE
:1042400000A0A3F8290106F086FD0AEB0803D9F8BF
:1042500000A083F82B0106F07EFD0AEB0803D9F8D5
:1042600000A083F82C0106F076FD0AEB0803D9F8CC
:1042700000A083F82D0106F06EFD0AEB0803D9F8C3
:10428000009083F82E0106F07BFD09EB0803C3F8CC
:104290002F01F1E206F05FFD0F2880463FF643ADA7
:1042A000C8EBC80806F057FD05EB080303F1D0087A
:1042B00083F8D00006F04FFD88F8010006F04BFDB2
:1042C00088F8020006F047FD88F8030006F043FD79
:1042D00088F8040006F03FFD88F8050006F03BFD75
:1042E00088F8060008F056F8C6E23378580700F15F
:1042F000C3820AF033FF05F0C7FB04F035F8BBE2D8
:104300003378590700F1B8824FF4C873A4F8C43069
:10431000B2E233785A0700F1AF826A4B1A7842F062
:1043200004021A70A8E233785B07E4D5E3E206F0F2
:1043300012FD644B1A7810B142F0020201E022F043
:1043400002021A7006F007FD5F4BDFF890811870CB
:1043500006F016FDC8F8000006F012FDC8F80400CB
:1043600006F004FD594B188006F000FD584B1880EC
:1043700094F8D43143F0020384F8D4317CE206F09F
:10438000EAFC834606F0FCFC824606F0F9FC814616
:1043900006F0F6FC804606F0E9FC06F0E7FC06F0C5
:1043A000DAFCBBF1000F13D11020C4F8D8A1C4F877
:1043B000DC9105F0DFFE434B1A7842F001021A70DF
:1043C000B8F1000F00F05882424BC3F8E08153E28D
:1043D000BBF1100F40F05082C4F8E4A1C4F8E8919A
:1043E000B8F1000F02D03B4BC3F8E0813A480223FA
:1043F000011D84F8EC3108F049FD3DE22E4B986038
:1044000006F0BEFC0DF080FC36E206F0AFFCDFF8F3
:10441000A880A8F8580106F0A9FCA8F85A0106F0EF
:10442000A5FCA8F85C0127E206F095FC85F8780168
:1044300006F091FC85F87C0106F08DFC85F87B0187
:1044400006F089FC85F87D0116E206F08FFCA5F8E0
:104450007E0106F08BFCA5F8800106F07CFC85F857
:10446000820106F083FCA5F8840105E206F073FCE6
:1044700085F88E0106F07AFCA5F8980106F076FC26
:10448000A5F8940106F072FCA5F8960106F063FC0D
:10449000DAF8003085F88F015B79082B40F2EC8167
:1044A00006F064FCDFF81080A8F89C0106F05EFCC2
:1044B000A8F89E01E0E100BF180B0020C40A00200C
:1044C000BA1300200D0A00200C0A0020121E002042
:1044D000101E002000190020E41A0020181E0020E1
:1044E00092F805A00323BAFBF3FABAF1120F3FF6D4
:1044F0001AACDFF848938046D04580F0BD8106F0C5
:104500002AFC89F8A00106F031FC40F2ED23984224
:1045100005DD40F6CA039842A8BF184601E040F204
:10452000EE20A0F2EE20192390FBF3F089F8A10110
:1045300008F1010809F10209DEE706F00CFCBF4BA7
:1045400083F8900198E1804606F005FCBB4B43449C
:1045500008F10108B8F1080F83F88601F4D18BE166
:1045600053794FF00709B3FBF9F9C9EBC9029B1A5C
:1045700013F0FF0F7FF4D7AB5FFA89F9B9F1000FA1
:1045800000F07A8106F0E7FB5FFA80FA4FFA8AF0D2
:1045900007F00AFA09F1FF395FFA89F98046002825
:1045A0003FF4C1AB80F800A006F0E0FBA8F80200E1
:1045B00006F0D1FB88F8040006F0CDFB88F8050072
:1045C00006F0C9FB88F8070006F0C5FB88F806006E
:1045D000D4E7012384F8ED314EE106F0BCFBFF285F
:1045E00082466FD14FF00008954884F8EE8141462D
:1045F00060220FF071F98DF813809DF8133094F854
:104600005222DFF844829A4254D99DF8133008EBC5
:10461000C30393F85532D80745D59DF8133008EBFE
:10462000C30393F85422874B33F91230002B3ADD41
:104630009DF8133098F8EE9108EBC3034FEAC901D7
:10464000D3F8583208EB01025B68C2F8F0319DF8EC
:10465000133008EBC303D3F858321889A2F8F601D7
:10466000002301229A40024003D10133102BF8D1DC
:1046700000E01A46DFF8D08108EB010309F10109D7
:10468000A3F8F421D3F8F001B3F8F631ADF8143003
:1046900004238DF8163005A901238DF8173006F094
:1046A00096F988F8EE919DF813300133DBB28DF85E
:1046B0001330A2E7012006F039FB98F8EE0106F06E
:1046C000FFFADCE094F8EE319842BFF42CAB002006
:1046D00006F02CFB06F006FBD8F80030186806F050
:1046E00079FBD9F8000006F0CBFA05F05DFC72B654
:1046F000DFF858814FF480634FF4007BA8F81A303C
:104700004FF00109A8F81AB04046ADF8143005A9D9
:1047100004238DF816308DF8179006F058F94046AE
:1047200005A9ADF814B08DF816908DF8179006F025
:104730004EF9454A02EBCA02D2F8F031B2F8F42140
:10474000186802FA09F109FA01F109FA02F292B2C3
:10475000014319601A83A8F818B042461369590535
:10476000FCD4394901EBCA034FF0010ED3F8F00134
:10477000B3F8F421D0F800804FEA420C0EFA0CFC9A
:104780004CEA080CC0F800C0D3F8F0C1B3F8F4311B
:104790000EFA03FE1FFA8EFE2C4BACF81AE04FF413
:1047A000007EA3F81AE04FF4804EA3F818EC4FF403
:1047B000004EA3F81AEC40F60558DFF890B0DBF88D
:1047C00010305B0505D4B8F1000FF6D008F1FF38C2
:1047D000F3E701234FEACA0903FA02F2494492B20D
:1047E0000283B1F8F621ADF8142005A904228DF852
:1047F00016208DF8173006F0EAF8154B4FF40042FA
:104800001A83B8F1000F25D0104B1A695205A8D5AC
:104810000D4949440120D1F8F021B1F8F411126991
:1048200000FA01F111420A4A4FF480414FF400703E
:1048300015BF1883588311835183E5E7180B0020B7
:10484000F01A002070130020001900200000024020
:10485000000C02404FF40072ABF818204FF4804275
:104860001A8362B60A2007F092F90BF095FF6C4BA1
:104870001B68F32283F84920002006F057FA06F05F
:1048800031FA674B1B68002283F8482094F8ED3119
:104890004BB1386806F09EFA0AF0C2FA07F081F9C7
:1048A000604B614ADA60614B4C379F427FF476A8D7
:1048B0005F4B1B68980616D55E4BD4F8B4221B6874
:1048C0009A1A002A0FDB5C4A1278042A0BD95B4A39
:1048D00003F5123303F5F873C2F8B432584B5A6932
:1048E00082F400425A61574B9B68002B00F0938082
:1048F000554898478FE006F0CDFEC0E70C2803D15D
:10490000524806F04DFA59E00A2801D00D2857D137
:104910004A4D4F4805F1D40606F042FA30462321AD
:104920000FF00DF810B1801BC5F8D000D4F8D030CE
:10493000002B38D0591E414A705C202801D10B460B
:10494000F6E7C2F8D0301344002283F8D420414B5C
:10495000414DD3F800B0D5F800A0DFF8E090504604
:104960000EF0FAFF09F1D408064651464046324699
:104970000EF0FAFF394B38B909EB060292F8D42051
:104980005A445278520703D010359D42E3D306E0D3
:104990009D4204D2701CEB684044984702E03048C6
:1049A00006F0FEF900232F48C4F8D0300021302251
:1049B0000EF092FF3B78002B3FF47AAF2A4809E0D3
:1049C0007F2811D1013BC5F8D0302B440022274865
:1049D00083F8D42006F0E4F9FEF769BF0C288FD0E5
:1049E0007F2804D1FEF763BF2F2B3EF660AFA0F106
:1049F0002002D2B25E2A3EF65AAF13B920283EF406
:104A000056AF5A1C2344C4F8D02083F8D40006F0D3
:104A1000C0F9FEF74CBF0FB0BDEC028BBDE8F08FC4
:104A2000B41E002000ED00E00400FA059C1A0020EE
:104A3000100A0020680800200C0A0020001900203D
:104A4000000C0240140A0020F81D00200670010826
:104A50004178010848010020F06B0108806D0108D1
:104A600011700108D4190020017001082D7001088F
:104A7000A449A5480A682DE9F04F02F59C4320336C
:104A80000360A24B1E7887B0C6B119465B689A4294
:104A900040F20C81013E0E7008E12B689C48072C07
:104AA00098BF195D9B4B88BF21461B689847032C14
:104AB0000CD9964A02EB440401362081944B964D62
:104AC0001A78F4B2A2421A46E7D81EE02B6804F125
:104AD0000E0203EB8202D38812890028E9D0C01AA3
:104AE0004FF47A71D31A484390FBF3F0084440F630
:104AF000C903984205DC40F2EE239842B8BF18463D
:104B000001E040F6CA0080B2D3E7844B1B6842F252
:104B1000010903EA0909D9F10109814B38BF4FF0B6
:104B20000009D3F800A07F4BB9F1000F06D17E49F0
:104B3000097819707D4908787D4908701E781EB182
:104B40007B4B1E7886F00106704992F80080D5F8FC
:104B500000B00F2381F82C30764B1F780322B7FB6F
:104B6000F2F202EB4202BA1AD2B201F12E0303EBC7
:104B7000420200244FEA480C0292254664455AD06E
:104B800016B16D4BE05A00E03046BBF81630834258
:104B900006D8BBF81810814234BF0021012100E083
:104BA0000021664BE9B953F825309A4502D2644B8F
:104BB000E05A1AE0EBB218468DE808100AF052F8F5
:104BC000009BDDF804C0032B0FD8504B4FF0010EB3
:104BD00093F82C100EFA05FE21EA0E0183F82C1032
:104BE00003E00AF5967143F81410B9F1000F1DD1D6
:104BF000029A464B04EB4401505293F8762022B9B6
:104C0000022F13D9012083F876004E4B581831F843
:104C100003E041887144B0F804E04A33714489B23A
:104C2000E15208B2032390FBF3F080B2444B01350C
:104C3000E0520234A2E7354B394A93F82C10B1F117
:104C40000F0EDEF1000151EB0E0183F890103E4B88
:104C500069B13E4909684F0109D41268D9689A6060
:104C6000521AC82A1ED9012283F821201AE02F489F
:104C70001268DA60012101702D48017099685B6843
:104C8000521A9A4203D9304B002283F82120002483
:104C9000444507DAE0B209F0E5FF294B23F8140098
:104CA0000134F5E7234B1A7801321A701B4F3B6829
:104CB000DE0405D5254B1B68DD0701D40BF0C2FDD2
:104CC000104B1968144B1868837A002B42D01C4A89
:104CD000013B32F81330027B1AB1C3F53B63083352
:104CE0009BB21BB2A3F57A73B3F57A7FA8BF4FF4DA
:104CF0007A7323EAE37307EE903AB8EEE77ADFEDD2
:104D0000147A5FE068080020D4090020B81B002056
:104D1000651D002004000020800800207808002085
:104D2000844000206C080020740800200D00002042
:104D30000C000020C6070020C01B0020C807002070
:104D4000F20A0020E61B00208C130020D00A00206D
:104D500000007A443A68140440D58F4AD2F894404F
:104D60000C1B002C3ADB01F59C442034C2F8944023
:104D70008A4CC07A65798A4C34F81540A4B294FB09
:104D8000F0F492F89800013000F00F0082F89800DB
:104D9000024482F899401A468248185C0133024462
:104DA000102B92B2F8D112B292FBF3F31BB2642B28
:104DB000A8BF642323EAE37307EE903AB8EEE77ADC
:104DC000DFED797AC7EE277A784B9FED797A67EE37
:104DD000877AFCEEE77A17EE902A1A803B68754CCA
:104DE00013F4807F00F00081734B744E994203D915
:104DF000B3780BB90123B370B378002B00F0F480C3
:104E00006E4B94F8008093F821506D4B681E45421C
:104E10001A684541002DC2F380690CBF03220022AD
:104E2000C8F380089A46029296F82030052B00F2CB
:104E3000D680DFE803F0034E5378859EB8F1000F6B
:104E40003AD0604B1868604B198809F05FFF012861
:104E500009D15E4B1A68504BD3F8AC30DB88642123
:104E600001FB03233361B9F1000F0DD04A4BD3F896
:104E7000AC301B7943B105F05FF9032386F820308D
:104E80004FF47A73F361CFE7002D40F0A8804F4BC9
:104E900032691968DFF824B1914209D905F04CF95B
:104EA00003228BF8202040F6B832CBF81C20BBE759
:104EB00001228BF82020B7E74FF48060B9F1000F92
:104EC00002D005F029F901E005F054F9002333611F
:104ED00085E0002D45D105F02FF9A5E725B1052383
:104EE00086F82030012100E02946B8F1000F0DD0EE
:104EF000344B1B68DA89364B1A805A809A80264ACE
:104F0000D2F8AC205288DA80022202922F4B1A6823
:104F100073699A4202D8B8F1000F5DD147F230535D
:104F2000F36103231EE0237843F0020323700BF0A8
:104F300089FC264B1A68F3691344B361042311E01A
:104F4000224B1A688DB1B3699A4248D9214B1B781C
:104F50001BB9DAF80030D90741D4237823F00203D3
:104F60002370052386F820305EE7F3691344B361AC
:104F700035E0164B08491A68D1F8AC30DB8864215B
:104F800001FB032333614FF48060002386F8203057
:104F9000F37005F0EFF847E7B81B00207419002004
:104FA00084190020511C00200000C842681D002008
:104FB00000C07F44F0180020404B4C008C130020B0
:104FC000D00A0020C0070020C40700208440002031
:104FD000F20A00200E00002000297FF425AF029A7B
:104FE00012B1104604F0FCFFA54E06F5C370B6F8EA
:104FF0004E1109F08BFE8146002832D1A14BA24D03
:105000001B6813F0006808D02B7833B909F006FE4E
:105010009E4B012818BF0020187023785A0708D526
:105020003A68D30605D4B8F1000F02D02B78002BD4
:1050300034D097490022C1F8BC20C1F8C020C1F883
:10504000C420944A126802F57A720023C1F8C8207D
:105050000122C1F8B030C1F8B430C1F8B8302A70BC
:105060001AE03B68DD0619D42378580716D5854B1E
:105070001B68190112D5844D2B786BB1854B1A68CA
:10508000834BD3F8C8309A4208D909F0C7FD28B934
:105090007E4B2870187001E07C4A137023785A0701
:1050A00043D53B68DB0640D57B4B1B78DD063CD403
:1050B0007A4B774D93F80080B8F1000F11D096F835
:1050C000E031B9F1000F16D173B1724B1A68D5F8FF
:1050D000CC309B1A002B07DA0BF0B4FB85F8D0908C
:1050E00023E0B9F1000F19D1102004F079FF01235A
:1050F00085F8D03019E03BB1664A12684FF47A71F6
:1051000001FB0323C5F8CC3095F8D0306BB104F027
:105110004BFF5F4B002283F8D02006E095F8D0309B
:105120001BB104F041FF85F8D080002296F8DEB173
:1051300096F8DF11B6F896E1B6F898C11346584DC7
:10514000505F9B087045C4BF63F07F03DBB202323F
:105150006045B8BF43F04003082AF0D14C4D95F8A4
:10516000D1209A4205D195F8D220F92A04D80132EB
:1051700000E0002285F8D220484885F8D130037835
:10518000434ADFF80081824633BBD8F80000C007ED
:105190000AD582F8D330B9F1000F1DD12378DA0790
:1051A0001AD50BF0CFFB17E023785B0714D53D4BE6
:1051B0001B788BB13C4BDB7873B992F8D330013359
:1051C000DBB2032B82F8D33006D911B10BF03AFBD6
:1051D00002E0B9F1000FF9D095F8D2202C4BDFF89E
:1051E000D090142A40F09C809AF800201BF1000B0C
:1051F00018BF4FF0010B6AB393F8D1205F2A11D189
:10520000227802F0040202F0FF0112B10BF01AFB47
:1052100008E00B200191009304F0E2FE009B01994D
:1052200083F8D210BBF1000F14D095F8D1307D2B4C
:1052300010D1237803F0040303F0FF0213B10BF045
:1052400001FB07E00B20019204F0CAFE104B019A0B
:1052500083F8D220237803F0040303F0FF00002B2F
:105260005ED195F8D1300A4A572B23D10F4B4FF41A
:105270007A721A803B68180652D50CF013FD4FE085
:10528000180B0020D00A00201C000020441D002024
:10529000B81B0020844000200D0A00200E000020D2
:1052A000F20A00206C0800208C130020F618002061
:1052B000C40A00203968490717D55A2B15D192F82E
:1052C000D4302BB1012382F8D40082F8D53027E006
:1052D00092F8D63083F0010382F8D6300BB10C205F
:1052E00000E00D2004F07CFE1AE05D2B00F012853A
:1052F0005B2B00F011855E2B02D1032000F00DBD69
:10530000562B01D10BF0FAFD9AF80030002B00F07B
:10531000198595F8D1306F2B40F00E850BF012FBFC
:105320003B685B0738D595F8D630B54A9BB12378F2
:10533000580710D5B34BB3F90610B6F89631994219
:1053400009DDD8F8003013F0010304D13221A2F8AE
:10535000D81082F8D630D8F8003013F4803FA84B2C
:105360000CD095F8DA202AB993F8D42012B9322259
:10537000A3F8D820012385F8DA300DE095F8D42081
:1053800052B1227802F0040202F0FF0122B9012298
:1053900083F8D41083F8D520D9F800A000230AF1AF
:1053A000850BC8F800300AF1870599460BF1020316
:1053B00003EB090113F809204B7815F8010C9A4208
:1053C0000CD2294609F0A5FE40B115F8023C012295
:1053D0009A40D8F800301343C8F8003009F10409A6
:1053E000B9F1500F05F10405E0D1874B1B785BB193
:1053F000864BDFF830A21A68DFF82C9212F0020F09
:10540000984640F04D8345E30AF1D5090AF1D605E7
:10541000984609F1010303EB080113F808204B78C3
:1054200015F8010C9A4229D2294609F072FE28B3D8
:1054300095F802E0764B287995F803B00EF1FF3E1F
:105440000EEB4E0E9E446E4B4FF00C0C03F1DC0A3B
:105450000CFB00FC0AEB0C02516871450ED00021D8
:105460000AF80CB0C2F804E09160012202FA00F0E0
:1054700093F80C2122EA000083F80C0108F10608D9
:10548000B8F1480F05F10605C3D1624BDFF89CA1C6
:105490001D68614B1B680293604B1B7803934FF0B0
:1054A0000009DAF80030002B00F0EB8293F800805E
:1054B000B8F1000F00F0E582DAF8042002998A1AA8
:1054C000002A0DDB01F5FA72CAF804204C4A0121CA
:1054D00092F80C0101FA09F120EA010182F80C119D
:1054E000039A002A00F0CD821AF8041C5878444A26
:1054F0000431C9B2002840F08182424830F91110CD
:10550000B6F8940100F1C80E714502DD93F802B0BF
:1055100016E0C838814203DA9B78C3F1000B0FE034
:105520003749012391F80C2103FA09F322EA030316
:10553000029A81F80C3102F5FA73CAF80430A0E23D
:1055400092F80C3143FA09F3D90700F19A82BBF1C2
:10555000000FCCBF0220012004F0C6FD08F1FF338C
:10556000132B00F28582DFE813F0140025003600CB
:1055700063007C008300E6004901B001DE011702F0
:105580008302630072008300E6004901B8001B013A
:10559000800195F80080D844B8F1FA0FA8BF4FF009
:1055A000FA0828EAE878284685F8008006F07CFAB0
:1055B000012022E095F80180D844B8F1640FA8BF1B
:1055C0004FF0640828EAE878284685F8018006F05C
:1055D0006BFA022011E095F80380114BD844B8F122
:1055E000640FA8BF4FF0640828EAE87885F80380C4
:1055F0002846196806F012FA03204146C0E100BFB0
:10560000B81B0020F20A0020F8180020D00A002061
:10561000F9740108A0120020844000206C080020CA
:10562000CC1A0020100A0020320A0020981C00200A
:10563000697959446429A8BF642121EAE17169713B
:105640000D2009F039FBB8F10D0F00F01182297916
:1056500059446429A8BF642121EAE17129710E200F
:105660008EE1A979594481F30801A971052087E1E8
:10567000C54B1B681A78022A20D107EE90BAB8EE03
:10568000E70ADFEDC27A93ED097A80EE270A30EE61
:10569000070AB5EEC00AF1EE10FA07D4B4EE670AB5
:1056A000F1EE10FAC8BFB0EE670A01E09FEDB80A4C
:1056B00083ED090A0F2009F013FB0AE09978594499
:1056C000C829A8BFC82121EAE17199700F2009F00B
:1056D000F3FAB8F10F0F00F0CB81AB4B1B681A78CF
:1056E000022A1ED107EE90BAB8EEE70ADFEDA77ADC
:1056F00093ED087A80EE270A30EE070AB5EEC00A6D
:10570000F1EE10FA07D4B4EE670AF1EE10FAC8BF52
:10571000B0EE670A01E09FED9E0A83ED080A1220B1
:105720005FE159785944C829A8BFC82121EAE1712D
:105730005970122024E1944B1B681A78022A20D158
:1057400007EE90BAB8EEE70ADFED907A93ED0C7AA7
:1057500080EE270A30EE070AB5EEC00AF1EE10FA25
:1057600007D4B4EE670AF1EE10FAC8BFB0EE670ACC
:1057700001E09FED870A83ED0C0A102009F0B0FAD2
:105780000AE0197B5944C829A8BFC82121EAE17160
:105790001973102009F090FAB8F1100F00F0688129
:1057A000794B1B681A78022A1ED107EE90BAB8EE20
:1057B000E70ADFED767A93ED0B7A80EE270A30EE7A
:1057C000070AB5EEC00AF1EE10FA07D4B4EE670A84
:1057D000F1EE10FAC8BFB0EE670A01E09FED6C0A67
:1057E00083ED0B0A1320FCE0D97A5944C829A8BFDD
:1057F000C82121EAE171D9721320C1E0624B1B6814
:105800001A78022A22D107EE90BAB8EEE70ADFED45
:10581000617A80EE270AD3ED0F7A30EE270AB5EED3
:10582000C00AF1EE10FA09D4DFED587AB4EE670A37
:10583000F1EE10FAC8BFB0EE670A01E09FED540A1E
:1058400083ED0F0A112009F04BFA0AE0997D5944C3
:10585000C829A8BFC82121EAE1719975112009F072
:105860002BFAB8F1110F00F00381474B1B681A782F
:10587000022A20D107EE90BAB8EEE70ADFED457AAA
:1058800080EE270AD3ED0E7A30EE270AB5EEC00A75
:10589000F1EE10FA09D4DFED3D7AB4EE670AF1EECD
:1058A00010FAC8BFB0EE670A01E09FED390A83ED38
:1058B0000E0A142095E0597D5944C829A8BFC82173
:1058C00021EAE171597514205AE02F4B1B681A78B0
:1058D000022A1ED107EE90BAB8EEE70ADFED2B7A66
:1058E00093ED0A7A80EE270A30EE070AB5EEC00A79
:1058F000F1EE10FA07D4B4EE670AF1EE10FAC8BF61
:10590000B0EE670A01E09FED220A83ED0A0A092042
:1059100067E0D9785944C829A8BFC82121EAE171B4
:10592000D97009202CE0184B1B681A78022A1ED166
:1059300007EE90BAB8EEE70ADFED147A93ED0D7A30
:1059400080EE270A30EE070AB5EEC00AF1EE10FA33
:1059500007D4B4EE670AF1EE10FAC8BFB0EE670ADA
:1059600001E09FED0B0A83ED0D0A0A2039E0597B17
:105970005944C829A8BFC82121EAE17159730A20F6
:1059800009F09AF974E000BFD01A00200000C84264
:105990000000000000007A44B34B1B681A78022A0A
:1059A00022D107EE90BAB8EEE70ADFEDB07A80EECA
:1059B000270AD3ED107A30EE270AB5EEC00AF1EED1
:1059C00010FA09D4DFEDAA7AB4EE670AF1EE10FA04
:1059D000C8BFB0EE670A01E09FEDA60A83ED100A8A
:1059E0000B2009F07DF943E0D97D5944C829A8BFAF
:1059F000C82121EAE171D9750B20C1E7012837D10F
:105A000098789D4B33F91110B1F5617F05DB40F6B5
:105A100033039942B8BF0B4601E04FF46173B8F10C
:105A20000C0F25D14FF4966191FBF0F1A3F5617352
:105A300093FBF1F392F80D115FFA83FB594517D0F0
:105A4000BBF1030F94BF5946022182F80D118B4A16
:105A500008FB016101F21271116006F03FF8404647
:105A6000594609F029F90BF10100C0B204F03CFBE2
:105A7000834B012293F80C1102FA09F20A4383F8CE
:105A80000C2109F10109B9F1040F0AF10C0A7FF4A4
:105A900008ADADE43B68DA050FD57A4BDB7863B12E
:105AA000DAF800309B0708D5B9F8003013F001058B
:105AB00008D1012004F030FB04E0012004F05AFB7F
:105AC000012300E00023D8F8002055070BD553B17F
:105AD000012004F04FFBB9F80030980706D40220EB
