:020000040800F2
:10000000A40500208901000839230108E123010823
:1000100037230108352301083323010800000000BD
:100020000000000000000000000000003123010873
:100030002F230108000000002D230108B923010827
:10004000E5010008E5010008E5010008E5010008F8
:10005000E5010008E5010008E5010008E5010008E8
:10006000E5010008E5010008E5010008E5010008D8
:10007000E5010008E5010008CD210108E5010008BF
:10008000E5010008E5010008E5010008E5010008B8
:10009000E5010008E5010008E5010008E5010008A8
:1000A000CD200108FD200108E50100080D2101080F
:1000B000ED200108E5010008DD20010827230108E3
:1000C00015230108212301080F230108E501000879
:1000D000E501000865220108E5010008C1210108C9
:1000E000C9230108E5010008FD230108E501000816
:1000F000E5010008E5010008E5010008E501000848
:10010000E50100083B230108E5010008E5010008BE
:10011000E5010008E5010008E5010008E501000827
:10012000E5010008E5010008E5010008E501000817
:10013000E5010008E5010008E5010008E501000807
:10014000E5010008E5010008E50100080D190108B6
:10015000E501000829210108712201081D2101087B
:100160001B23010809230108E5010008E501000837
:10017000E5010008E5010008E5010008E5010008C7
:10018000E5010008E5010008002100F004B80F4B6C
:100190005B58435004310E480E4B42189A42FFF40C
:1001A000F6AF0D4A00F003B8002342F8043B0B4BB6
:1001B0009A42FFF4F9AF0A48016841F47001016006
:1001C00011F05CFF00F010F870470000F07A0108B1
:1001D00000000020A4010020A8050020B43F00205A
:1001E00088ED00E0FFF7FEBF2DE9804893B001F0F5
:1001F00059FFC74CC74E23783268254633B1636830
:10020000D31A002B02DB002323702372E16842F231
:1002100001030B400BB9BE4803740B0740F19481F6
:1002200063691B7A062B00F27F81DFE813F0070079
:1002300007003600F700390167016701237EB448E3
:10024000002B00F0728100230376C36990F819C077
:1002500090F8209093F80080022305EB030E03F141
:10026000010B9EF82100AA4F40FA0CF000F00F009D
:1002700040450ED20B280CD89EF821A007EB0B0EA0
:1002800007EB80009EF821E00AEA09070EEB07273A
:1002900047630233102BE0D137E194F864009C4BA4
:1002A000002800F0B98093F8B270002083F8640051
:1002B00093F8B10007F0070E40EA0E20986693F815
:1002C000B30000F03F0E4FEA4E1E4EEAD707DF663E
:1002D00093F8B470BF0047EA901793F8B50000F0A8
:1002E000010E47EA8E271F6793F8B67007F00F0ECE
:1002F0004FEACE1E4EEA5000586793F8B70000F060
:100300007F0E4FEA0E1E4EEA17179F6793F8B870DC
:100310007F0047EAD01093F8B97007F0030E40EA67
:100320004E20D86793F8BA0000F01F0E4FEA8E1ED9
:100330004EEA9707C3F8807093F8BB70FF0047EA56
:10034000501093F8BD70C3F8840093F8BC0007F018
:10035000070E40EA0E20C3F8880093F8BE0000F0B4
:100360003F0E4FEA4E1E4EEAD707C3F88C7093F843
:10037000BF70BF0047EA901793F8C00000F0010E6D
:1003800047EA8E27C3F8907093F8C17007F00F0EFC
:100390004FEACE1E4EEA5000C3F8940093F8C20014
:1003A00000F07F0E4FEA0E1E4EEA1717C3F8987042
:1003B00093F8C3707F0047EAD01093F8C47007F039
:1003C000030E40EA4E20C3F89C0093F8C50000F0ED
:1003D0001F0E4FEA8E1E4EEA9707C3F8A07093F8DF
:1003E000C670FF0047EA5010C3F8A40093F8C70096
:1003F000C7074CBF40F21477AD27C3F8A870870732
:100400004CBF40F21473AD2310F0080FC4F8AC30A9
:100410000CBF0123032388E0034686E094F8C970EB
:100420003B480023D7B390F8CA70B0F8CC8080F86E
:10043000C9304FF0020C4FF0030E1CFB07E981445A
:100440000CFB070C99F8CE909CF8D2C04CEA092C12
:10045000E0456AD190F8CF00012803D0812864D10B
:10046000734600E00346102F84BF102084F8CA00B2
:1004700094F8CAC000204FEA4C0C604555D0DFF814
:10048000A4E00EEB00070EF1260E97F803803F79EB
:1004900047EA082720F80E700230EEE73B4644E0BA
:1004A00094F814011A4B00283ED0002083F8140160
:1004B00093F81501A82837D193F82831A3BB05EB91
:1004C00043009FED157A90F8187190F8190100EB30
:1004D000072007EE900AF8EEE77A1048C7EE877A11
:1004E0009FED0F7A77EEC77AFCEEE77A17EE907AF7
:1004F00040F823700133082BE1D106E094F84C3129
:100500009BB1034B002083F84C0101230DE000BF99
:10051000A805002030160020CDCCCC40D406002009
:100520000080BB43760600200023D8070CD50120AD
:100530002074AC48C3F34003037083F001032370BD
:1005400002F5C333A03363604B0414D594F84D31E6
:1005500023B1A54B002083F84D010123A248237449
:100560004BB1012303709F4B00271F7002F54333EB
:1005700003F5A0734360CF0713D594F84E7194F838
:100580004F01994BB8420CD001201872954883F85E
:100590004F714FF0000E80F801E002F5C330A0303B
:1005A000586088040AD500238F4800F5A877DF5BE0
:1005B000002F41F024850233182BF5D1237C33B969
:1005C000894BD3F86831D31ADB43DB0F00E00123FA
:1005D0008BB1D4F86C31D21A12F1500F03D4824B84
:1005E00093F870313BB102F047FF012384F8713179
:1005F00084F8703136E1D4F874217B4B0132002A43
:10060000C8BF0022C3F874210A0640F12B81D4F838
:100610007831B3B994F87C31013B042B00F222818C
:10062000DFE813F01600160016000D01E8006E4B0F
:10063000D3F8780108F077F90DF0F8FD08B10DF066
:1006400003F9D5F8780108F073F90028EFD1E1E754
:10065000D4F89C21644D177817B1012F12D001E115
:10066000012B00F2FF80614B95F87D21D5F87801D0
:100670000C2101FB023292F8212053F8221008F0DD
:100680004DF966E0D5F8780108F038F9002800F057
:10069000E98095F87C31022B47D0032B55D0012BF4
:1006A00040F0E080524BD5F894211B689A1AC72A73
:1006B00040F2D880D5F89011042934D84B4AC5F8B7
:1006C00094310C2000FB0121D5F8785191F82110CC
:1006D000D5F808C00023104650F8237067455FFA2C
:1006E00083FE04D00133082BF6D1002300E07346CB
:1006F0008B4205D0284652F8211008F00FF9B1E0DE
:1007000094F87D310C2202FB0300476A17F8011BA5
:1007100019B1284608F0AEFAF8E7D4F89031013361
:10072000C4F890319EE002209AE0304B95F87D218C
:10073000D5F878010C2101FB023292F8212053F800
:10074000221008F0EBF803208AE0D5F89C319B7862
:100750000BB9042084E095F898310BB985F89871AD
:1007600094F89831204D012B17D1D5F89031B22B48
:100770000DD81E4AD5F87801134493F85C1008F0A0
:1007800079FAD5F890310133C5F8903105E00023AE
:10079000C5F89031022385F8983194F89831124DBC
:1007A000022B1AD1D5F890310F2B13D8D5F89C21F4
:1007B0000E495278D5F8780102EB02120A4413442C
:1007C00093F8101108F056FAD5F890310133C5F8B6
:1007D000903102E0032385F8983194F89831022B88
:1007E00040D9B6E700000020A8050020CC3F010852
:1007F000943F0020D4F88421944B0132C4F8842122
:10080000D4F89C21D2785AB193F87D210132D2B22A
:100810000521B2FBF1F101EB8101521A83F87D2130
:100820008B4B1B68C4F88831002384F8A03194F8FE
:10083000A13123F0020384F8A131012010E0844BA0
:10084000D4F888211968814B8A1A40F6C4118A426B
:1008500008D9D3F8A42122F02002C3F8A42105204E
:100860000EF084FB07F031FED4F8B43130600BA8F1
:1008700098479DF82C3043B9764B1A68734BD3F8E0
:100880006C31D31A642B00F15586D4F8BC116F4B30
:100890003268D3F8C4010A44B4F8C011C4F86C211A
:1008A000002284F87021543001B1022109F0DAFAF3
:1008B00007F00BFED4F8CC313060C31AA4F8C8316D
:1008C000C4F8CC0103F008FF634B604D9B78ABB1DB
:1008D000B5F9D621B5F88C339A420FDC95F8F93189
:1008E000012B01D0192B02D194F8DA2332B90E2B47
:1008F00004D0082B1CBF0023A4F80C39D4F8C48101
:10090000524D98F81461BEB3B5F8C0319B0733D08F
:1009100005F5116393ED080ADFED507AB5F80E790D
:10092000B4EEE70AF1EE10FA22D912F00DFF05F647
:100930003415D5ED007A20EE270A12F0BBFEB0F593
:10094000617FA8BF4FF4617006EE900ADFED447A34
:10095000B8EEE60A80EE270A08F056FC07EE106AA9
:10096000F8EEC77A27EE800A12F0A4FE80B200E00B
:1009700000203844A4F80E09D4F8A431334D9F0662
:1009800040F19480B5F8C03103F03003002B00F043
:100990008D8095F8A131DE0740F18880B5F93C29BA
:1009A000DFED307A304E0A2392FBF3F308EE103A73
:1009B000B8EEC88A28EE278AB0EE480A08F024FC70
:1009C000F0EE408AB0EE480A08F07EFCD5F84039D7
:1009D000B5F94A09DF78B0EE409AB2EE048A002FEA
:1009E00044D0B5F846391FFA83F91BB2C01A08F093
:1009F00081FF7D42A84203DBB842A8BF384600E031
:100A00002846B4F844398144B4F948091FFA83FAF6
:100A10001BB21FFA89F9C01AA4F8469908F06AFFB8
:100A2000A84203DBB842B4BF05463D4655440FFA21
:100A300089F9ADB207EE909AA4F844592DB2B8EEF8
:100A4000E77A07EE905AF8EEE76A19E0A805002069
:100A5000943F002030160020000000208FC2753C1B
:100A6000EFB6B04435FA8E3C3416002006EE900AFC
:100A7000B5F94859B8EEE67A06EE905AF8EEE66A0D
:100A800068EEE67AE7EE097A26EE899AC7EE887A6A
:100A9000A7EE289AFDEEE77A89EE089A17EE903ACB
:100AA000BDEEC99A338019EE103A7380964DB4F8B2
:100AB000602305F55F730093944BD4F84C191E68BE
:100AC000404608F15403B04794F85069032E16D9F4
:100AD000D5F854395A88B2F5FA7F10D2B5F90C0915
:100AE000B5F95C190028B8BF404253421B1A99421D
:100AF00003DB13188B42A8BF0B46A4F85C39B4F88B
:100B00000E19B4F85A09B4F85859D4F85479B4F90C
:100B10005CE97F4B0022B24203F1100335D297F912
:100B200001C00FFA85FACCF1000C0EFB0CFC06EEAE
:100B300010AA0FFA80FA07EE10CA07EE90AA0FFA71
:100B400081FCF8EEC76A05EE90CA13ED027ADFF871
:100B5000C8C1F8EEE77AF8EEE55A67EE877A13ED4A
:100B6000047AE5EE877AB8EEC66A13ED037AE6EE0C
:100B7000077A13ED017AE6EE877AFDEEE77A17EE53
:100B8000908A2CF812800132C5E7624B1A7802F085
:100B9000040202F0FF03002A00F0928094F83B0A5E
:100BA000B4F8201A06900123B3425B4F08B207D273
:100BB00037F913108142B8BF014689B20133F3E718
:100BC000D4F85C2AE368B2F802E0D4F854C9D4F847
:100BD000605A7045C8BFCEEB010E03F480510791F7
:100BE00003F0100AB4F9D611D4F8640A4A4BCCBF0A
:100BF0001FFA8EFE4FF0000E07EB46094B4556D00C
:100C00001E88079FCEEB0606B6B223F8026B27B309
:100C10009CF800704FB9EF89B0F80680C8EB070B5D
:100C2000594502DDB844414512DBEF89B942CBBFDB
:100C300047889788B2F80280B0F8008036B2BE428A
:100C400003DB4645B4BF3746474623F8027CD5E769
:100C5000B942CCBF4688068826E0069FB2F802B0AB
:100C600036B257B1B2F80480464503DB5E45B4BFE7
:100C7000B046D84623F8028CC0E7B2F8008046455B
:100C800003DB5E45B4BFB046D84623F8028C2E8AFB
:100C9000B142B3DABAF1000F01D0968804E09CF8B3
:100CA0000060002EAAD1168823F8026CA6E794F8FB
:100CB000682A154B013AD2B2182A00F25A810AE08A
:100CC000B342F4D2144A02F14A0131F8131022F867
:100CD00013100133F4E701219140104A0A40002A21
:100CE00000F04781B3F8C021D00519D5B3F8082921
:100CF000ADF82C20B3F80A29B3F80C39ADF82E2042
:100D0000ADF8303025E000BFA80500200800002025
:100D1000080F002039160020C80F002099209801E4
:100D2000B3F85829D968ADF82C20B3F85A29ADF892
:100D30002E20C904B3F85C29ADF8302009D5B3F9E9
:100D4000D611D3F8603ADB899942BCBF5242ADF864
:100D50003020B4F93A194FF47A7201F5E161514348
:100D60004FF4616391FBF3F1A1F5FA71ADF8441012
:100D7000B4F9381901F5E1614A4392FBF3F3A3F5A5
:100D8000FA73ADF84630B4F8203AB4F8D021A3F2A3
:100D9000DC53ADF83230D4F8603ADB89D21AADF8C2
:100DA0003420B4F8D221D21AADF83620B4F8D421C8
:100DB000D21AADF83820B4F8D621D21AADF83A20BC
:100DC000B4F8D821D21AADF83C20B4F8DA21D21AFE
:100DD000ADF83E20B4F8DC21D21AADF84020B4F8CA
:100DE000DE21D31AADF842300022B94B03F682203F
:100DF000002111520232102AF7D1D3F8940AD3F805
:100E0000982A93F8923A06905B00099307920B4652
:100E1000DDF824C0AE48634500F08F8000F69C25C5
:100E20006A18967936B10127153607FA06F6069F35
:100E30003E407CD0685C079D92F904B092F801A016
:100E400092F803805679C0EBC00E05EB4E0E4FEAC8
:100E50004A0CBEF90270BEF9005008967F1BBFB263
:100E6000642507FB0BFB9BFBF5FB4FEA5709C9EB1E
:100E70000B0B1FFA8BFB974D12AEB8F1000F03D18D
:100E8000664436F81C6C0CE0B444EE5E3CF91CCCB5
:100E9000664508DAB044B04503DBC445B4BF6646D6
:100EA0004646EE520AE009DDC8EB0608E04503DBE2
:100EB000B045B4BFC446B44625F803C04FF0010C9A
:100EC000DEF80AE0824D92F902200CFA0AFA1AEAD8
:100ED0000E0F0CBFE6464FF0FF3E05F60C3C05EB4F
:100EE000400633F80CC0B6F8826A12FB0CF24FF0E1
:100EF000640C92FBFCF20FFA8BFB5A451FFA8EFE34
:100F00000EDBDDF820A04FFA8AF807FB08FB9BFBFD
:100F1000FCFBC9EB0B0B0FFA8BFB9345A8BF934669
:100F200005EB40050BFB0E6BA5F882BA02E000F65C
:100F30000C301E52023307316AE70025D0F8989A28
:100F40002E460E2202FB0692634F92F90680EB5B5F
:100F500018FB03F8642398FBF3F825F80780F0B238
:100F600007F0CAFE01364044082EE85305F1020599
:100F7000E7D1574DEF6817F02009A84634D000207C
:100F800007F0BAFEA5F8820A0646012007F0B4FE73
:100F9000D5F8943AA5F8840A1B0625D5D5F82C3B3C
:100FA000B5F838291B78012B22D1D5F8983AB5F934
:100FB0003AE993F9141093F9063011FB02F25B42FF
:100FC00032210EFB03F392FBF1F26FF0310E92B27D
:100FD00093FBFEFE964493FBF1F176440A44A5F898
:100FE000826A1044A5F8840AD5F898BA002319E05B
:100FF000D5F8981AB5F83A3991F906E091F9141034
:101000001EFB03FE32239EFBF3FE11FB02F276442D
:1010100092FBF3F3A5F8826A1844E3E7D152023356
:10102000102B10D0C3EBC3062B4A5E44985EB6F972
:101030000010B6F9026088429246EFDB31B2884276
:10104000B8BF0146EAE7224BD3F8543993F9082098
:10105000A2B995F868BA0BF1FF32182A7AD8DFE8FE
:1010600002F0317979557979794C797979797962A0
:101070007979797979556D79796231000026174A45
:101080003AF90610442000FB0620B3F90620059328
:1010900008F022F9C6EBC60180B22AF806005944CE
:1010A00000B2B1F90020059BB1F90210904203DBB8
:1010B0000AB29042B8BF02462AF806200236102E25
:1010C000DDD1C6E71B795BB10020B5F88C1A10E0C2
:1010D000A8050020B41000202A100020D8100020FD
:1010E000B84B1B7803F0040303F0FF00002BEBD197
:1010F000014608F0B5FC01262DE00020B5F8881A5D
:1011000008F0AEFC0120B5F88A1A07E00020B5F817
:101110008A1A08F0A5FCB5F88C1A012008F0A0FC8A
:10112000022600F0B1BF00260AEB4603F0B2998810
:10113000013608F095FC062EF6D10CE000260AEBED
:101140004603F0B2D988013608F08AFC042EF6D1A5
:1011500000F09ABF0026B9F1000F02D1BBF1050FD4
:101160000CD13046B5F8821A08F07AFC701CC0B277
:10117000B5F8841A08F074FC0236F6B2F90208D405
:10118000914FD5F8701F3A68904B511A00290DDA2B
:1011900015E000278E4B03EB4703F019C0B2198905
:1011A00008F05EFC0D2FEBD00137F3E702F5FF727C
:1011B000C3F8702F93F8743F0BB10FF0A3FFB5F88D
:1011C000C03133B9814BD3F8C4010121543008F048
:1011D00049FE804B1878002840F0AC81EA687B4BD0
:1011E000120340F1A78193F8752F023A052A1ED801
:1011F00093F8FC2832B1012A09D108F0B9FBC0F1FB
:101200007F0004E0D3F8780F03689B689847D5F80F
:101210007C3F95F8802F1344B3F5807FA8BF4FF42F
:1012200080738342D4BFC5F87C3FC5F87C0F95F826
:10123000753F023B082B00F27781DFE813F00900CD
:10124000410067007D009600A8003C01590166013D
:10125000614B1A68D5F8883F64339A4240F2648142
:10126000402010F08FF9002840F05E8140275B4B52
:10127000D8F8842F554E1A44994692F8640170B1FB
:1012800010F0C2F9D6F87C1F0139C6F87C1FD6F8D9
:10129000841F013F01F10101C6F8841FE7D1D5F891
:1012A000842F4A4B4A4492F86421002A40F03C8142
:1012B000C3F8842F4FF0FF32C3F8882F03221CE0BD
:1012C00021230093464B019303F10C020292492023
:1012D000A3F10A02502102330AF0C5FB002840F0B6
:1012E0002381EA68394B12F080024FF0FF3107D0BA
:1012F000C3F8840FC3F8881F042283F8752F13E105
:10130000C3F8842FC3F8881F0622F6E7354A022364
:101310000021009301910291482002F108030AF094
:10132000A2FB002840F000814FF0FF33C5F8883F52
:10133000C5F8840F0523BBE0072300932A4B0193D4
:1013400003F10C0202924720A3F1080200210433AA
:101350000AF089FB002840F0E7804FF0FF33C5F822
:10136000883FC5F8840F0623A2E0204A0523002108
:10137000009301910291532002F108030AF073FBDC
:10138000002840F0D180C5F8840F072390E040206A
:1013900010F0F8F8002840F0C780D5F8843F0C2BF7
:1013A0007DD8DFE803F0070B2B2F354044484C5025
:1013B0005D676B000E4810F07FFA6AE00D480E4939
:1013C0002EE000BF3916002030160020A8050020AE
:1013D0007807002038160020943F0020CC3F0108F9
:1013E0009A4101081C430108344301088043010865
:1013F000445001085E500108CC680108C148C24948
:10140000C24A44E0C24895F8FA1895F8FB283EE035
:1014100095F8D438BF480C2202FB038393F8D61802
:1014200010F04AFA35E0BC48B5F83413F8E7BB4889
:10143000B5F83613F4E7BA48D5F8B811F0E7B94B68
:10144000B9489988ECE7D5F88C2FB84BD60403D56A
:10145000B74893F86E13E3E70B22C3F8842F18E024
:10146000B44895F8721395F8732395F8713310F01A
:1014700023FA0EE0B048B5F8901FD1E7EA68AB4B0D
:10148000100506D5AD48B3F87613B3F9742310F000
:1014900013FAD5F8843F0133C5F8843F44E010F0D7
:1014A000A1F8002840D04FF48053A5F8923F0923BB
:1014B00085F8753F38E0D5F8943A9C4E990114D5DB
:1014C000B6F8943F8BB9D6F8983F0B930E203B6843
:1014D0000C930BA90AF07AFB4FF48053A6F8923FC5
:1014E000092386F8753F09F0EFFD08F0D3F81BE0FB
:1014F00095F89C2F8D4B002AF5D0D3F8942A9201B1
:10150000F1D4082283F8752FEFE78D4B1A68D5F8D0
:10151000883FC8339A4203D90EF0E4FB0123C7E7A2
:1015200010F060F80028F7D105F0D1FB10B10123CD
:1015300085F8753F834B1E78002E7EF45AAE7B4DA6
:10154000EB685F057EF555AE95F89D3FB5F8429383
:10155000DFF8EC81002B00F01C82D8F80030D5F8C1
:10156000A02F9A1A7C2A40F21482C5F8A03F95F861
:10157000A43F013385F8A43F06F124006B4FC0B2AD
:1015800007F01CFA07F6A67333F9163007EE103A87
:10159000644B9B8807EE903AB8EEC77AF8EEE77A8C
:1015A0000136C7EE277A9FED687A67EE877AFDEEFF
:1015B000E77A17EE900A00B207F018FA032EDBD193
:1015C000302007F0FBF9002007F010FA07F006FAC8
:1015D00097F8A46F16F0030623D1D7F8A02F41F295
:1015E00088339A420BD9102007F0E8F9304607F00B
:1015F000FDF9212007F0E2F9304607F0F7F9142051
:1016000007F0DCF9B5F93C090A2390FBF3F007F089
:10161000EDF91C2007F0D2F9002007F0E7F907F0F8
:10162000DDF995F8A43F414E580740F08C81022027
:1016300007F0C4F9B6F9AC0F0A2390FBF3F007F0FA
:10164000D5F90320B6F90E7907F0B8F93F4B1B78AE
:101650004FF0050A97FBFAF75907BFB20CD506F50C
:101660005F7049460FF08CFC20B9F36813F0100F3F
:1016700018BF002738B205E0D6F8B03F9B89B3FB0E
:10168000FAF000B207F0B2F9EB68284E9A0740F181
:10169000B680DFF8BC90B6F8B43F99F80020B6F8F1
:1016A000B6AF642707FB03234FEA0A1A5200B3FBC5
:1016B000F2F31FFA8AFA4AEA032A1FFA8AFAC3F3F4
:1016C00003234AEA030A062007F078F90FFA8AF0A2
:1016D00007F08CF9B6F8B62F99F80030013292B2C3
:1016E00092FBF3F103FB1123A6F8B63FD6F8B83FFF
:1016F0009B7B012B2ED1392007F060F9B6F9B40F8E
:1017000044E000BF7350010887500108935001085E
:101710009C500108AD500108B7500108C65001089F
:10172000D550010800000020E5500108A805002060
:10173000EF500108FC500108155101082051010823
:10174000943F00203816002000007A44391600200B
:101750000C000020B6F8B43F6E265E43152396FBBE
:10176000F3F6B6B23A2007F029F9B6FBF7F90FFA0B
:1017700089F007F03BF93B2007F020F907FB1960DF
:1017800080B205300A2390FBF3F000B207F02EF987
:10179000282007F013F9D5F8BC3FAD4E0A2293FB81
:1017A000F2F000B207F022F9042007F007F9D5F8AB
:1017B000B03FD6F8C00F9B894FF6FF729042A8BF8A
:1017C000104620EAE070BBB1181A07EE900A9FEDB0
:1017D000A17AF8EEE77A06EE903A67EE877AB8EEED
:1017E000E67AC7EE877AFDEEE77A17EE900A64286C
:1017F000A8BF642020EAE07000B207F0F7F8D5F83F
:10180000A431934E9B0640F1938096F8A1319F0737
:101810001DD5112007F0D2F8B6F8C40F8E4B4FF447
:10182000F367784390FBF3F000B207F0DFF819207C
:1018300007F0C4F8B6F8C43F5F43642397FBF3F79F
:1018400097FBF3F203FB127000B207F0CFF895F8A4
:10185000A131B5F8C66F13F0020F08BF00260120B2
:1018600007F0ACF830B207F0C1F8092007F0A6F88D
:10187000002007F0BBF8794B95F8A0611B88B3F501
:10188000967F0BD9724A92F8A42F02F00F02072A12
:1018900004D842F20F76B342B8BF1E46052007F0C7
:1018A0008DF8D5F8B83F5B7B0BB930B21AE0203E1B
:1018B00007EE906A9FED6A7AF8EEE77AFEEE006A2C
:1018C000C7EE877AB6EE007AF5EEC07AF1EE10FA3E
:1018D00048BFB0EE667A77EE877AFDEEE77A17EECC
:1018E000900A00B207F082F895F8A121584B9607AC
:1018F00003D493F8C82F012A04D1012385F8C83FE7
:1019000058481CE0D3F8B83FDFED577A93ED017AE1
:1019100027EE277A0BA8BDEEC77A8DED0B7A93EDF3
:10192000027A67EE277AFDEEE77ACDED0C7A06E0D3
:101930004E4A92E803000BAB83E80300184607F019
:1019400060F807F04BF895F8A43F282B21D1404BC5
:10195000D8F80060002283F8A42F4FF47A73B6FB06
:10196000F3F917203C2607F029F8B9FBF6F7B7FB87
:10197000F6F006FB1070000200B207F037F81820EE
:1019800007F01CF806FB179000B207F02FF807F0DD
:1019900025F895F8D43F2E4E002B00F06A8106F012
:1019A00094FDD6F8D83F324AC31A9342074640F214
:1019B000E480002386F8DE3F86F8E03FB6F8B43FC7
:1019C000D8F80000DAB21B0A86F8FB3F86F8F13F30
:1019D000284B86F8FA2F86F8F02F53F8F02C801A4F
:1019E00053F8EC2CD27B4FF47A71514388420ED3DA
:1019F000214A126843F8F02C13F8E82C013A012A26
:101A000005D8102286F8DE2F022286F8E02FD5F8BE
:101A1000BC1F0A2291FBF2F185F8F81F091285F824
:101A2000F91FD5F8C01F91FBF2F295F8A01103F849
:101A3000CD1C95F8A13185F8FC2F121285F8FD2FE9
:101A40009D070C4A1AD42D2302F8CC3C92E000BF2B
:101A5000A80500200000C842A08601000E0000205A
:101A60006666E63F741500208096184BA84301086F
:101A70003F0D0300A0160020943F00200429D4F855
:101A8000CC6FD14DDFF85CE3D4F8D00F8CBF33239B
:101A9000322302F8CC3C96FBF5F30EFB036803EB14
:101AA000830390FBF5F503EB8303C84A0EFB050E99
:101AB0004FF0060C4FEA8309C54B0CFB08F8F60FF4
:101AC0000CFB0EFE98FBF2FA03F8DE6C9EFBF2F6BE
:101AD000642102FB1A8802FB16E292FBF1F203F882
:101AE000D62C1212C00F03F8D52CB4F8C42F03F86B
:101AF000D90C2420424398FBF1F892FBF1F133F822
:101B0000BA2C03F8E01CC1F3072103F8DF1C03F82B
:101B1000D42CB4F8C61F03F8DB8C120A05EB85053C
:101B200003F8D32C0A2205EB8505B1FBF2F2AD00D8
:101B300002F5FA7292B249FA8AF945FA86F51FFA65
:101B400089F9ADB203F8D22C120A03F8DD9C4FEAF2
:101B500028284FEA192903F8D85C03F8D12C2D0A5C
:101B600033F8B82C03F8DC9C03F8DA8C03F8D75C64
:101B700003F8CB2C974BC3F8D87F954D15F8B66C6E
:101B8000A8466EB955F8B00C06F0D2FE012807D968
:101B90000228914C00F03E8206F0CFFE0123A37193
:101BA00055F8AC3C8A4C002B63D014F8B66C3EB1AF
:101BB00054F8A42C40F6B731BA1A8A4219D858E022
:101BC000012354F8B00C04F8B63C06F073FB54F84B
:101BD000A03C93F9000002238DE84800082132461A
:101BE0004FF496430BF0DAF804F89C6C44F8B00C10
:101BF0003DE014F8A86CCEB954F8B00C44F8AC6CC5
:101C000004F8B66C06F056FB54F8A03C93F90000BB
:101C100001238DE84800082132464FF496430BF02B
:101C2000BDF844F8B00C06F088FE20E0013EF6B2A4
:101C300004F8A86C14F89C1C14F89B0C46B90130ED
:101C40004B1C04F89B0C04F89C3C54F8B00C0CE0C2
:101C500013F8012B44F8AC3C0130114404F89B0C00
:101C600054F8B00C04F89C1C114607F003F845F832
:101C7000A47C574C14F89A3C2546FBB154F8983C88
:101C8000E3B154F8943CCBB144F8903C1B68534A00
:101C900044F88C3C54F8883C134493F8E40304F073
:101CA00057F854F8903C987906F088FA54F8883C34
:101CB0000133092B88BF002344F8883CDFF82881D2
:101CC00014F8843CD8F80060414A4746002B3EF4A3
:101CD00090AA52F8803C33B112F87C3C013B012BB6
:101CE0008CBF00230123D9077EF583AA55F8800C09
:101CF000374C06F01DFEE0B154F8800C06F013FEE0
:101D000014F87B3CD7F800A07E2B81460ED102232D
:101D10001B2804F87C3C09D154F8800C06F008FE1E
:101D200020B9012344F878AC04F8743C05F87B9C96
:101D3000DCE7D8F8002054F8783CD31A41F6583242
:101D4000934225D9032304F87C3CFEF752BA13F8DA
:101D5000731C234A32F8110018B903F8730C4FF4BE
:101D6000036015F8732C1A4C0132D2B2B0F5C06F73
:101D700005F8732C77D039D8B0F5007F69D016D824
:101D8000B0F5807F00F0A580B0F5887F00F0A180DD
:101D900015F8742C0E4B002A3EF42BAA3A68921BBD
:101DA000012AD4D9002203F8742CFEF722BAB0F528
:101DB000806F00F0A680B0F5826F00F0E380B0F590
:101DC000047FE5D13DE000BF8096980040420F00BF
:101DD000A0160020A805002000000020CC3F01082C
:101DE00024500108806967FF943F0020B0F5006F20
:101DF00040D00CD8B0F5E26F7AD0B0F5E46F7BD06C
:101E0000B0F5E06FC4D1A34BB3F9A61F77E0B0F5EE
:101E1000036F06D0B0F5046F63D0B0F5026FB7D191
:101E2000D8E09C4BD3F8A4219206B1D593F8A12118
:101E30009107ADD5B3F8C43F24215943123164232F
:101E40000EE0944BDA689207A2D5B3F8B43F0A21AA
:101E5000CEE0904BDA6811059AD5D3F8BC1F0A235F
:101E600091FBF3F1C5E08B4BDA68120590D5D3F8FE
:101E7000C01FBEE0874BD3F8A411890688D593F81C
:101E8000A1118C0784D5D00711D5D3F8D03F83EAB0
:101E9000E371A1EBE37101EB51011922B1FBF2F106
:101EA000002BACBF41F0004141F040410EE0D3F8BF
:101EB000CC3F83EAE371A1EBE37101EB51011922FD
:101EC000B1FBF2F1002BB8BF41F080414FF400604C
:101ED00070E0704BD3F8A43159077FF559AF00215A
:101EE00087E06C4BB3F93C1901EB8101490080E0BC
:101EF000684BB3F9A81F02E0664BB3F9AA1F2C2365
:101F0000AEE714F8723C0133DBB2032B88BF012328
:101F100004F8723C15F8723C42F2107159435E4B62
:101F20001B78DA0748BF01319C0748BF02315807C8
:101F3000584BB3F8C03148BF0431DA0748BF0A3103
:101F40009C0748BF1431180648BF2831DA0548BF3E
:101F500028315C0748BF6431180748BFC8319A056B
:101F600048BF01F5C8719C0648BF01F57A71D806D3
:101F700048BF01F5FA615A0648BF01F57A614FF48E
:101F8000806017E0434BD3F8A41111F0200817D05C
:101F900093F8A12193F8A03112F0020F0CBF002199
:101FA0004FF47A7112F0010F0CBF00224FF4FA6265
:101FB0001144194406F0CEFC002305F8743CE7E612
:101FC000DB681B067FF5E4AE414606F0C3FC04F86F
:101FD000748CDDE62F4BD3F8A42191067FF5D8AEA3
:101FE00093F8A12192077FF5D3AEB3F8C63F6421E1
:101FF000594306F0AFFC002304F8743CC8E6012303
:102000000372264B00275F7002F5C333A033436091
:10201000FEF7D4BAA3791BB145F8B47CA671BFE52D
:1020200055F8B43CFB1AB3F57A6FFFF4B9AD012350
:1020300055F8B00CA37106F076FC044655F8B00CC8
:1020400006F071FC64067FF4ABAD8A2802D08E28BE
:102050000ED0A5E50F4BD3F8A43198067FF5A0ADBF
:1020600015F8B63C002B7FF49BADA8F1E70305E023
:1020700015F8B63C002B7FF493AD094B45F8AC3C0A
:102080002D2305F8A83C8BE5B9F1000F3FF476A8A5
:10209000FFF767B8A80500203916002000000020CF
:1020A000841500202DE9F04F2DED068BC74CC84B51
:1020B000236093B00023636004F020FE18B90CF095
:1020C000DFFB04F03FFEDFF86493DFF86483C14D6B
:1020D000DFF860B3DFF860A308F04CFE99F8003039
:1020E00043F0010389F8003007F07AFABA4BC8F8D8
:1020F0000C306B6FA360B94BC8F808306B6BB848F5
:1021000023F080036B636B6F43F080736B672B6B03
:1021100043F03F0312AF2B6303238DF82E3041F6BB
:10212000FF7327F81C3D39460DF073FD4FF6FF7322
:10213000AC48ADF82C3039460DF06BFDAA48394655
:102140000DF067FDDFF8F4C2CDF80CC060463946EB
:102150000DF05FFDA54839460DF05BFD3946A448FA
:102160000DF057FD384605F033FF0B9BA14AB3FB3A
:10217000F2F3E360A04BA14A00261E605E60A04B14
:102180005A60F02288F823200722DFF898829E60A8
:102190001A60D8F80830CBF800309AE80F0087E8CA
:1021A0000F002B6BDDF80CC00B9843F008032B637A
:1021B0002B6B43F008032B634FF48043ACF81830CB
:1021C0004FF40043ACF818300CA90DF022FD0EA915
:1021D0000D980DF01EFD642006F00FFB3146894876
:1021E000A02211F057F82B6C43F013032B646B6C97
:1021F00043F001136B64844B464603F1C0009A7AA6
:1022000093F80BE053F8105B02F00701D20805EBDE
:1022100082028900156A4FF00F0C0EFA01FE0CFACB
:1022200001F125EA01011162156A83424EEA0501B6
:102230001162E4D10023DFF8948108F1100200213B
:10224000995401330C2BF6D1FF2388F81C3088F801
:102250001D3088F81E3088F81F306C4BDFF8E0C165
:10226000C3F800C06A4D6B4B04221A702846302216
:10227000CDF80CC011F00EF814232B700223DDF8FA
:102280000CC02B76644A052385F8243073791370CB
:10229000ACF5F172C8F82020ACF59172C8F8242092
:1022A0005E4ADBF8005002EBC3025278C8F82820DF
:1022B000AA0644BF0122C8F828200022584940F24B
:1022C000DC5050520232102AF8D1384600211C222C
:1022D000049310F0DFFF049B0E2B03D003F0EF03F9
:1022E000082B02D101238DF83E30052006F014F8AA
:1022F00018B14088003018BF0120C5F340038DF8A5
:102300003330C5F380138DF83630C5F340338DF884
:102310002C30C5F3C03300F001008DF82F3015F4D8
:1023200000638DF8320004D096F884315F1E7B4242
:102330007B418DF83030C5F300438DF83730A36A08
:10234000B6F84471ADF84270003318BF01238DF820
:102350003830C5F300538DF83930B6F84631ADF852
:102360003C30B6F85231ADF83A30C5F380438DF8C1
:10237000343096F85431181C18BF012005F00101C3
:10238000C5F3C0028DF83500ED04B6F850018DF8A4
:102390002D108DF82E20ADF8400004D5214DB5F854
:1023A0004C51ADF84250B0F5FA7F02D90BB9ADF8F7
:1023B000423096F8D4311C4884F82C30002384F83D
:1023C0002D3043709DF83E30002B3BE03C16002042
:1023D000097F0008003802400005FA0500000008E7
:1023E00000000240000402400008024000100240C9
:1023F0000014024040420F00983F00203F9002002E
:1024000010E000E0D83D0020B0620108E01B002091
:10241000A81C0020A51C0020101000206C630108DF
:102420002A1000209C07002069160020A03F0020F1
:1024300000ED00E0B4050020B05B0108000C024094
:102440008E09002014BF0223002301B902B1013319
:102450000AEB83034FF000081B690593C246059AF7
:1024600032F808304FF6FF72934200F01B81190AD0
:10247000022902D19DF82C2003E0012904D19DF806
:102480002D20002A00F00881DBB2BC4D9DF83900F8
:102490004FEA031C654430B19DF83E0018B9043B77
:1024A000032B40F2E28001294DD19DF8343023B94D
:1024B000BDF84030B3F5FA7F08D9B04AB04952F8B8
:1024C0000C308B4204BF032384F82F30FF230027F6
:1024D000298984F8743084F875306B7B686884F8D7
:1024E0007870C4F88450ADF81C108DF81E3007A920
:1024F000022384F830706763A763E763276784F873
:10250000767084F877708DF81F30CDF80CC00DF020
:1025100080FBDDF80CC0994BA97A53F80C003A46C1
:102520000DF0A0F9284604F0A5FE964B9649C4F894
:102530008830964BC4F88C30C4F8907028460A1D39
:102540000CF0C4FDA8E002293CD1914A8DF81F107F
:102550005FFA8AF31C205843171800234FF0010E2E
:10256000BB70BB7287F801A007A902F800E095F8DC
:102570000DE02A896868FD608DF81EE0ADF81C202A
:102580000493CDF80CC00DF044FBDDF80CC0049BA7
:102590007A4AA97A52F80C001A460DF063F92846D7
:1025A00004F068FE7B4A3A61049B7B4A7A61BB6116
:1025B000284607F1100107F114020CF087FD0AF11B
:1025C000010A69E003294ED19DF8343003B39DF828
:1025D0003530724F94F82EC053B1BDF84030704A78
:1025E000B2FBF3F22846082192B2BDF8423003E074
:1025F000284608214FF6FF72CDF80CC009F024FFE1
:10260000DDF80CC004EB8C03C3F85801C76024E06C
:10261000BDF8402094F82E70BDF84230B2F5FA7F34
:102620000DD95F49B1FBF2F22846082192B209F0B8
:102630000BFF04EB87075B4BC7F858010CE05A49C6
:10264000B1FBF2F22846012192B209F0FDFE04EB43
:102650008707524BC7F85801C36094F82E300133F6
:1026600084F82E3018E0042916D1BDF83A304E4ACD
:1026700094F82D7092FBF3F22846BDF83C3001210E
:1026800092B209F0E1FE94F82D3004EB8707013394
:10269000C7F8880184F82D3008F10208B8F1180F46
:1026A0007FF4DDAE94F82D2084F8A8213F4A404BFA
:1026B0001578A5F117020027022A1F709E461AD826
:1026C000236A3B44D3ED007AF5EE407AF1EE10FA3E
:1026D00002D1A36A63BB26E0364A07EB020C0FCB9C
:1026E0008CE80F009EF8003010370133C02F8EF8B1
:1026F0000030E5D1EDE7304B13F835808EF80080DF
:1027000003EBC503D3F804A0BAF1000FE1D04745AD
:10271000DFDA284A3B0103EB020C53440FCB0137AD
:102720008CE80F00F3E7DBF80030D9044ED41FE04B
:10273000224B234A03EBC5035F6A93F82000107015
:10274000002FF0D000238342EDDAC3EBC3017A18E7
:10275000DFF87480D2F800A041F808A001EB080C63
:102760009188ACF8041092798CF806200133EAE7DE
:1027700005F0EF03082B134B48D149E0AC62010888
:10278000000001400D8B0008C4160020198C0008C1
:10279000B416002081F90008F18B0008298C00088C
:1027A00000127A00398C000840420F0010100020FF
:1027B000F80E0020080F00206C630108B05B0108D0
:1027C0003A10002049070020441000209EF8001015
:1027D0000129CDD9844B00228A4203F11003C7DAC4
:1027E00013ED047AF6EE007A27EE277A013203ED34
:1027F000047A13ED057A27EE277A03ED057A13EDB7
:10280000037A67EE277A43ED037AE5E70E2D08D1C8
:102810001A7842F010021A70182D08D106F046FA04
:1028200005E01A7822F010021A70192DF5E70EF063
:102830004DFCDBF800305A0302D46C4B01221A70B5
:1028400099F8003043F0040389F800300FF0ACFB36
:102850000AF024FD0FF022FBB6F85821644B4AB968
:10286000B3F95A1141B9B3F95C31D3F1010338BF5F
:10287000002302E0002300E0134613F001036AD1B5
:102880005C49DFED5D7A0B7012B208EE902AB6F962
:102890005A31B6F95C21F8EEE88A08EE103A0AEEF1
:1028A000902A68EEA78AB8EEC88AF8EEEAAAB0EED7
:1028B000680A28EE278A6AEEA7AA06F005FDB0EEA0
:1028C000409AB0EE680A06F09FFCF0EE409AB0EE37
:1028D000480A06F0F9FCF0EE408AB0EE480A06F02D
:1028E00093FCB0EE408AB0EE6A0A06F0EDFCB0EE62
:1028F00040AAB0EE6A0A06F087FC20EE097A69EE7B
:102900008A7AF0EE475AE7EE885A2AEE096A69EEAB
:10291000806AC4ED6E5AF0EE465AE6EEC85AE7EE0B
:10292000087AE6EE486A2AEE28AA28EEC00A69EE7E
:10293000E89A68EE898A84ED6BAA84ED6C0A84EDCE
:102940006D8AC4ED6F5AC4ED709AC4ED716AC4ED1E
:10295000727AC4ED738A294F29483B6896F85FA1C3
:10296000B3F8528000210C2210F094FC00211422B4
:10297000244810F08FFC2448002184F8DC110C223C
:102980004170043010F086FC204BC4F8EC31232059
:1029900005F033FF1E4B1A8822F040021204120C7D
:1029A0001A801A8822F038021204120C42F0300207
:1029B0001A801A8892B242F040021A806B2080215D
:1029C00004F0D1FC0625962005F017FF75200121A3
:1029D00007AA04F0DFFC9DF81C30682B1AD0013DDB
:1029E00015F0FF05EFD12FE0100F00201C1500207F
:1029F0009C0700201000002035FA8E3C6C07002058
:102A00000C1800205007002018180020A05C0108B6
:102A1000003800400C20012107AA04F0BBFC9DF8FF
:102A20001C30142B10D3182B02D9543B062B0BD877
:102A3000032384F8DC31432384F8E031464BC4F8A7
:102A4000E431464BC4F8E831002384F8F03194F8BF
:102A5000DC31434D032B40F0CE84424B424A1A6096
:102A6000424A5A60424ADA60424A1A6142480422A3
:102A700085F8F02106220270404A1168BAF1090F68
:102A800041F0010EC2F800E00346934600F2AF8425
:102A9000012000FA0AF040F202320240002A40F01F
:102AA0009E8410F0FD0F00F09A84354AC5F8D021BD
:102AB000344AC5F8D421344A0420107041F003018F
:102AC00007225A70CBF80010DBF80020930702D5DC
:102AD000D5F8D02190472D4A4FF47A711160214AE0
:102AE0004FF0000A136885F8F1A1BC209847284AE6
:102AF00096F8553182F800A0114613B1184A82F8B1
:102B0000F031244A92F856310BB11F48037092F805
:102B1000573103B10B70DBF800301E073ED50FFABA
:102B200088F8642398FBF3F203FB12880FFA88F805
:102B300007EE108AF8EEC76A07EE102AF8EEC77A99
:102B40009FED157AE6EE877AB2EE047A67EE877A21
:102B5000C5ED7D7A25E000BF957300086773000816
:102B60003C16002050070020C9C700083D7500082A
:102B7000598C000890C1793D180000204C070020B6
:102B8000B5C70008B1750008E418002064070020EC
:102B9000E51800209C0700208988883C0023C5F8A0
:102BA000F43199F8003043F0020389F80030B64B55
:102BB0004FF400425A834FF480421A834FF00A08C0
:102BC000B14E736983F400437361736983F4804386
:102BD0007361192005F011FE08F1FF38192005F086
:102BE0000CFE18F0FF08EBD14FF4804333834FF411
:102BF00000433383D4F8F8319FEDA48A1B7B00EEA9
:102C0000103AB8EEC00A20EE080A06F05DFBA04BB1
:102C10009FEDA07AD3ED047A9F4B84ED7F0A1B8849
:102C200027EE888A07EE903AF8EEE77A84ED808AFC
:102C3000C7EE277A9FED997AC7EE877AC4ED817A3D
:102C4000974C06F073F8FF211B22204610F022FB60
:102C5000944A954B126884F80080012112F0020F0B
:102C60001970204604D06170032119700221A170EF
:102C7000540704D519784C1C1C700324445412F0DA
:102C80000A0F0CD01A7804218154511CC9B20524B2
:102C90004454D11C0232D2B21970062181548349A6
:102CA0000A6812F0200F884604D019784C1C1C705A
:102CB00007244454110608D51978092444548C1C5F
:102CC0000131C9B21C700A244454794C6179082935
:102CD00001D00E2908D11E7806F1010E83F800E01C
:102CE0004FF00B0E00F806E01E7806F1010E5FFAB9
:102CF0008EFE4FF00C0C12F0040F83F800E000F889
:102D000006C009D006F1020C674E86F800C0644E7A
:102D10004FF0100C06F80EC01E7806F1010E5FFA97
:102D20008EFE4FF0120C12F4806F83F800E000F872
:102D300006C00ED094F814C2BCF1000F09D006F101
:102D4000020C594E86F800C0554E4FF0130C06F891
:102D50000EC0960508D51E7806F1010E83F800E036
:102D60004FF0150E00F806E0182913D11E784FF029
:102D7000160E00F806E006F1010E5FFA8EFE4FF027
:102D8000170C00F80EC006F1030E0236F6B283F8F7
:102D900000E08155110304D519784E1C1E701926C8
:102DA0004654D60504D51A78511C19701A23835439
:102DB000002198223F4810F06DFA0CF055FF3E4973
:102DC000B4F84E31A5F80C3200230B808B703968B3
:102DD000B4F89601394AC5F8082201F1750E384950
:102DE00085F80E320A6082B23649374ED1F800902B
:102DF000DFF8DCC09A5309F596794CF8139002334A
:102E0000242BB4468A46EFD1D8F80060F10454BFB1
:102E1000B4F89C311346ACF8063000231EF80320AA
:102E2000B2B90EEB0302917892F8039049450FD2A4
:102E300009B1013901E009F10101527801EB810189
:102E400001EB810101F56171043289B22CF8121095
:102E50000433502BE2D1330740F1E18094F89031F4
:102E6000062B00F2D680DFE803F00407355C779587
:102E7000950045F2F05201E042F6F822134B1A8019
:102E80000CF07EFFC4E000BF000C024035FA8E3C1F
:102E9000500700200AE81C410400002000401C46A6
:102EA0003D1C00204C0700203C1C0020B4050020E5
:102EB0009C070020441B0020E00F00202409002074
:102EC000BC050020943F0020780700209A1A0020BB
:102ED0004C1800207A4B42F6F8221A8000010A238F
:102EE00090FBF3F0A0F5B0600023764A98500433CD
:102EF000482BFAD1744B754A5A60754B1222402008
:102F00001A7005F047FA002800F0838001234FF083
:102F1000070C90F900006F4A8DE8081040216E4BB5
:102F200071E0674B42F6F8221A80674B6B4A5A6091
:102F3000674B102240201A7005F02CFA002868D048
:102F400001234FF0000E90F90000654A8DE808401B
:102F500040214FF4E13356E0594B42F6F8221A80F3
:102F6000594B604A5A605A4B082240201A7005F0AB
:102F700011FA00284DD00123002690F900005A4A8A
:102F80008DE8480040214FF4E13309F007FFC5F810
:102F900058023AE04A4A554842F6F82111804C4915
:102FA0000C22062B0A7010D00023037085F85C32C7
:102FB00085F85D321B2385F85E32052385F85F2294
:102FC00085F860324FF4E1360DE00021017085F89C
:102FD0005C1285F85D12464E85F85F22212185F846
:102FE0005E1285F86032384B424A5A60402005F044
:102FF000D1F970B1012100233F4A90F900008DE81A
:103000000A004021334609F0C9FE003018BF0120F4
:1030100028B9082006F0DCFA2B4B384A5A60D8F859
:1030200000302B4A13F4804F04D01221117026492E
:103030003348486042F20101194003F0010003F4F3
:10304000005681B11E4944F6206EA1F800E026B179
:10305000082111701C492B4E4E6020B10C211170BB
:103060001949294848601178043951701A0640F10D
:1030700089804FF00009254EDFF89CB02448C5F840
:1030800064B24946152286F80190C6F80490C6F845
:10309000089010F0FFF81F4BABF1050248461A608C
:1030A00004930BF063FFDAF80020F260022005F0D1
:1030B00071F9049B194688BB802006F089FA5AE012
:1030C0009A1A00201006002010000020B17E00088F
:1030D0005E1C002015870008A0860100A17E000864
:1030E000658600088D7E000819860008F406002019
:1030F00090D003004D7E000801850008057F000880
:10310000E17E0008ED7E0008F97E0008240700201B
:10311000A4180020440700208E09002090F805E044
:103120007378B94A4FF00C0C0CFB032C9CF801C0CF
:10313000F44504D00133DBB2042BF2D900237370C1
:103140000B6890F900001B78002B73784FF00C0689
:1031500006FB03220CBF01210321537800910022BA
:103160000192022109F01AFEA84B18600028A3D092
:1031700001200BF0FBFE3868A54B00F5C3721A6006
:1031800006F056FBD8F800305B0553D5A14BD5F8B7
:1031900080721F60042005F0FDF80421C5F8840248
:1031A00005F0CEF89C4B85F8880208201F6005F0DA
:1031B000F1F89A4B9A4E1860082105F0C1F80021E9
:1031C00085F889022C22304610F064F88E23737043
:1031D0004FF07C0AE0234FF07D09F37086F800A0E1
:1031E00086F82B908F4E2C220021304610F052F89A
:1031F0008A2373701020A023F37086F800A086F84D
:103200002B90C5F88C7205F0C5F81021C5F8900216
:1032100005F096F885F894022020C5F8987205F01C
:10322000B9F82021C5F89C0205F08AF885F8A002BB
:103230000CF0A4FF7C4E338823F040031B041B0CCE
:103240003380338823F038031B041B0C338033880E
:103250009BB243F04003338000279F2332208DF838
:1032600018308DF819708DF81A708DF81B7005F0F4
:10327000C4FA8DF81D7007F1804707F504374FF445
:10328000004906AA0423A7F81A90304607A90DF0B2
:10329000E9FDA7F818909DF81E209DF81D30120238
:1032A00042EA03429DF81F301A43604B9A42604B3A
:1032B00017D008D85F498A420CD001F51A41023173
:1032C0008A4209D01BE05C498A4205D001318A421A
:1032D00007D014E0202200E080221A804FF4807290
:1032E00002E04FF480721A805A809A88198812027C
:1032F0009A604A43DA60012285F8A12204E00022A4
:103300001A805A809A60DA60DF681FB3FF0ABA46F3
:103310004FF00009B9450BDA09EB070676100DF1FD
:103320001C0BF0025946102204F050F80F2806DC5E
:103330000EF010F94FEACA23C5F8A4320AE00023C0
:103340005BF8032001325BD10433102BF8D1B24675
:103350003746DFE7D8F80030384A13F4002318BFA7
:103360000123137005F0B1F8354B18606379052B14
:1033700003D1344B4FF4C8721A80334B4FF47A7236
:103380001A80324B1A7842F008021A70304B1A78C1
:1033900022F002021A70D8F8002040F6020313400F
:1033A0006BB12C4B2C4A1A602C4B03221A702C4BFD
:1033B00001221A702B4A002313802B4A1380A36822
:1033C000C8F80030294B01221A70294B1A7862F094
:1033D0007F021A7013B0BDEC068BBDE8F08FBAF116
:1033E000010F04D8234A00211170FFF76DBB4FF085
:1033F000000AFFF74DBB012005F009FAFFF7D1BB2A
:1034000006F101093E46A3E7EC3F01082007002032
:10341000E80E002060150020B415002000160020E2
:1034200084150020B9150020003C004018BA200087
:103430001C000020152020001740EF001D15002063
:1034400074070020041B0020381C002049070020BE
:10345000391600205815002016090020B815002044
:103460000C000020BE1A0020C01A00201C150020ED
:10347000A03F0020E41800208B498C480A682DE901
:10348000F04F02F59C4320330360894B1E7887B0D0
:10349000C6B119465B689A4240F23081013E0E7017
:1034A0002CE12B688348072C98BF195D824B88BF9D
:1034B00021461B689847032C0CD97D4A02EB440433
:1034C000013620817B4B7D4D1A78F4B2A2421A4618
:1034D000E7D81EE02B6804F10E0203EB820293880A
:1034E000D2880028E9D0C01A4FF47A71D31A484321
:1034F00090FBF3F0084440F6C903984205DC40F223
:10350000EE239842B8BF184601E040F6CA0080B2E8
:10351000D3E76B4B1B6842F2010903EA0909D9F1B1
:103520000109684B38BF4FF00009D3F800A0664B83
:10353000B9F1000F06D16549097819706449087816
:10354000644908701E781EB1624B1E7886F0010631
:10355000574992F80080D5F800B00F2381F82C303D
:103560005D4B1F780322B7FBF2F202EB4202BA1A5C
:10357000D2B201F12E0303EB420200244FEA480CC1
:103580000292254664455AD016B1544BE05A00E0E9
:103590003046BBF81430834206D8BBF8161081427F
:1035A00034BF0021012100E000214D4BE9B953F85F
:1035B00025309A4502D24B4BE05A1AE0EBB218463E
:1035C0008DE808100DF0B2FC009BDDF804C0032B61
:1035D0000FD8374B4FF0010E93F82C100EFA05FE62
:1035E00021EA0E0183F82C1003E00AF5967143F8E6
:1035F0001410B9F1000F1DD1029A2D4B04EB4401B8
:10360000505293F8762022B9022F13D9012083F863
:103610007600354B581831F803E041887144B0F812
:1036200004E04A33714489B2E15208B2032390FBAB
:10363000F3F080B22B4B0135E0520234A2E71C4B71
:10364000204A93F82C10B1F10F077942794183F8A1
:103650009010264B69B1264909684E0109D41268B9
:10366000D9689A60521AC82A44D9012283F82120C5
:1036700040E017481268DA600121017015480170B6
:1036800099685B68521A9A4203D9184B002283F852
:103690002120002444452DDAE0B20DF047FC114B07
:1036A00023F814000134F5E730160020100700203D
:1036B000E81800205E1C002014000020BC0500203B
:1036C000B4050020943F0020A8050020B00500208C
:1036D00001000020000000204A180020F0180020FF
:1036E0004C1800207807002016190020E00F002059
:1036F0003C1000208B4B1A7801321A708A4F3B68BD
:10370000DD0405D5894B1B68DC0701D40CF002FBF6
:10371000874B1A68937A2BB3013B8649127B31F8A9
:1037200013301AB1C3F53B6308339BB21BB2A3F548
:103730007A73B3F57A7FA8BF4FF47A7323EAE37301
:1037400007EE903AB8EEE77ADFED7B7A7B4BC7EE77
:10375000277A9FED7B7A67EE877AFCEEE77A17EEA1
:10376000902A1A803B68774C13F4807F00F0048124
:103770007549764B0A68764E9A4203D9B3780BB9ED
:103780000123B370B378002B00F0F680704B94F8EF
:10379000008093F82150654B681E45421A684541E8
:1037A000002DC2F380690CBF03220022C8F38008F9
:1037B0009A46029296F82030052B00F2D880DFE876
:1037C00003F0034E5378859EB8F1000F3AD0614B59
:1037D0001868614B19880DF0D3FB012809D15F4BA4
:1037E0001A685F4BD3F89430DB88642101FB032314
:1037F0003361B9F1000F0DD0594BD3F894301B79D8
:1038000043B10DF035FC032386F820304FF47A7372
:10381000F361CFE7002D40F0AA80504B3269196860
:10382000DFF82CB1914209D90DF022FC03228BF86C
:10383000202040F6B832CBF81C20BBE701228BF8E1
:103840002020B7E74FF48060B9F1000F02D00DF0EF
:10385000FFFB01E00DF02AFC0023336187E0002D1F
:1038600045D10DF005FCA5E725B1052386F82030EC
:10387000012100E02946B8F1000F0DD0354B1B683F
:10388000DA892C4B1A805A809A80354AD2F89420D3
:103890005288DA8002220292304B1A6873699A4287
:1038A00002D8B8F1000F5FD147F23053F361032320
:1038B0001EE0237843F0020323700CF02BFA274B11
:1038C0001A68F3691344B361042311E0234B1A68A7
:1038D0008DB1B3699A424AD9224B1B781BB9DAF8E9
:1038E0000030D90743D4237823F002032370052343
:1038F00086F820305EE7F3691344B36137E0174B75
:1039000017491A68D1F89430DB88642101FB03233E
:1039100033614FF48060002386F82030F3700DF09F
:10392000C5FB47E74A180020B40500203C100020E2
:10393000BC0500207807002000007A44601C0020AD
:1039400000C07F443916002030160020404B4C0048
:10395000E00F00204418002048180020943F002069
:10396000E81800200200002000297FF423AF029A0B
:1039700012B110460DF022FB924E06F5C470B6F857
:103980004E110DF0FDFA814678B905F037FA8E4BED
:103990000022C3F89890C3F89C90C3F8A090C3F895
:1039A000A420C3F8A820C3F8AC2023785A0743D535
:1039B0003B68DB0640D5854B1B78DD063CD4844B49
:1039C000814D93F80080B8F1000F11D096F8E031E6
:1039D000B9F1000F16D173B17E4B1A68D5F8B0302B
:1039E0009B1A002B07DA0CF095F985F8B49023E0C8
:1039F000B9F1000F19D110200DF0E0FA012385F87C
:103A0000B43019E03BB1734A12684FF47A7101FB8C
:103A10000323C5F8B03095F8B4306BB104F0C8FE9C
:103A2000694B002283F8B42006E095F8B4301BB14E
:103A300004F0BEFE85F8B480002296F8DEA196F868
:103A4000DF11B6F898E1B6F89AC11346624D505F9F
:103A50009B087045C4BF63F07F03DBB20232604550
:103A6000B8BF43F04003082AF0D1574D95F8B52070
:103A70009A4205D195F8B620F92A04D8013200E01F
:103A8000002285F8B62085F8B530514BDFF8588113
:103A90001A789B46E2B9D8F80030D80708D5B9F1B2
:103AA000000F15D12378DA0712D50CF0B3F90FE027
:103AB00023785B070CD5494B1B784BB1484BDB781F
:103AC00033B911B10CF026F902E0B9F1000FF9D0C9
:103AD00095F8B6203C4BDFF81491142A40F09880FA
:103AE0009BF800201AF1000A18BF4FF0010A6AB3D0
:103AF00093F8B5205F2A11D1227802F0040202F077
:103B0000FF0112B10CF006F908E00B2001910093BF
:103B10000DF054FA009B019983F8B610BAF1000F2A
:103B200014D095F8B5307D2B10D1237803F0040321
:103B300003F0FF0213B10CF0EDF807E00B20019247
:103B40000DF03CFA204B019A83F8B620237803F05D
:103B5000040303F0FF00002B5AD195F8B5301A4A40
:103B6000572B09D11F4B4FF47A721A803B68180605
:103B70004ED505F003FD4BE03968490717D55A2BA0
:103B800015D192F8B7302BB1012382F8B70082F833
:103B9000B8303DE092F8B93083F0010382F8B930D3
:103BA0000BB10C2000E00D200DF008FA30E05D2B89
:103BB00000F02C855B2B00F02B855E2B18D10320A9
:103BC00000F027BD9C070020E818002049070020CE
:103BD00002000020943F002078070020A805002064
:103BE000E00F0020381C00203C1000206C07002053
:103BF000562B03D1009306F02BF9009B9BF8002075
:103C0000002A00F01B856F2B40F012850CF002F9A2
:103C10003B685B0738D595F8B930B54A9BB1237836
:103C2000580710D5B34BB3F90610B6F8983199423E
:103C300009DDD8F8003013F0010304D13221A2F8D5
:103C4000BA1082F8B930D8F8003013F4803FA84B8E
:103C50000CD095F8BC202AB993F8B72012B93222BB
:103C6000A3F8BA20012385F8BC300DE095F8B72001
:103C700052B1227802F0040202F0FF0122B90122BF
:103C800083F8B71083F8B820D9F800A000230AF110
:103C9000750BC8F800300AF1770599460BF102035D
:103CA00003EB090113F809204B7815F8010C9A422F
:103CB0000CD229460DF0C7FA40B115F8023C01229A
:103CC0009A40D8F800301343C8F8003009F10409CD
:103CD000B9F1500F05F10405E0D1874B1B785BB1BA
:103CE000864BDFF830A21A68DFF82C9212F0020F30
:103CF000984640F04D8345E30AF1C5090AF1C6052F
:103D0000984609F1010303EB080113F808204B78EA
:103D100015F8010C9A4229D229460DF094FA28B3DD
:103D200095F802E0764B287995F803B00EF1FF3E46
:103D30000EEB4E0E9E446E4B4FF00C0C03F1C00A7E
:103D40000CFB00FC0AEB0C02516871450ED00021FF
:103D50000AF80CB0C2F804E09160012202FA00F007
:103D600093F8F02022EA000083F8F00008F106083A
:103D7000B8F1480F05F10605C3D1624BDFF89CA1ED
:103D80001D68614B1B680293604B1B7803934FF0D7
:103D90000009DAF80030002B00F0EB8293F8008085
:103DA000B8F1000F00F0E582DAF8042002998A1ACF
:103DB000002A0DDB01F5FA72CAF804204C4A0121F1
:103DC00092F8F00001FA09F120EA010182F8F010FE
:103DD000039A002A00F0CD821AF8041C5878444A4D
:103DE0000431C9B2002840F08182424830F91110F4
:103DF000B6F8960100F1C80E714502DD93F802B0E5
:103E000016E0C838814203DA9B78C3F1000B0FE05B
:103E10003749012391F8F02003FA09F322EA03035A
:103E2000029A81F8F03002F5FA73CAF80430A0E281
:103E300092F8F03043FA09F3D90700F19A82BBF106
:103E4000000FCCBF022001200DF0EAF808F1FF338B
:103E5000132B00F28582DFE813F0140025003600F2
:103E600063007C008300E6004901B001DE01170217
:103E70008302630072008300E6004901B8001B0161
:103E8000800195F80080D844B8F1FA0FA8BF4FF030
:103E9000FA0828EAE878284685F8008004F0C8FA8D
:103EA000012022E095F80180D844B8F1640FA8BF42
:103EB0004FF0640828EAE878284685F8018004F085
:103EC000B7FA022011E095F80380114BD844B8F1FD
:103ED000640FA8BF4FF0640828EAE87885F80380EB
:103EE0002846196804F05EFA03204146C0E100BF8D
:103EF000E818002078070020381600203C10002029
:103F00003C640108F40E0020943F0020A805002026
:103F10000C1C00204C07002068070020AC19002072
:103F2000697959446429A8BF642121EAE171697162
:103F30000D2007F0A5FEB8F10D0F00F011822979D0
:103F400059446429A8BF642121EAE17129710E2036
:103F50008EE1A979594481F30801A971052087E10F
:103F6000C54B1B681A78022A20D107EE90BAB8EE2A
:103F7000E70ADFEDC27A93ED097A80EE270A30EE88
:103F8000070AB5EEC00AF1EE10FA07D4B4EE670ADC
:103F9000F1EE10FAC8BFB0EE670A01E09FEDB80A73
:103FA00083ED090A0F2007F07FFE0AE09978594453
:103FB000C829A8BFC82121EAE17199700F2007F034
:103FC0005FFEB8F10F0F00F0CB81AB4B1B681A7886
:103FD000022A1ED107EE90BAB8EEE70ADFEDA77A03
:103FE00093ED087A80EE270A30EE070AB5EEC00A94
:103FF000F1EE10FA07D4B4EE670AF1EE10FAC8BF7A
:10400000B0EE670A01E09FED9E0A83ED080A1220D8
:104010005FE159785944C829A8BFC82121EAE17154
:104020005970122024E1944B1B681A78022A20D17F
:1040300007EE90BAB8EEE70ADFED907A93ED0C7ACE
:1040400080EE270A30EE070AB5EEC00AF1EE10FA4C
:1040500007D4B4EE670AF1EE10FAC8BFB0EE670AF3
:1040600001E09FED870A83ED0C0A102007F01CFE8B
:104070000AE0197B5944C829A8BFC82121EAE17187
:104080001973102007F0FCFDB8F1100F00F06881E3
:10409000794B1B681A78022A1ED107EE90BAB8EE47
:1040A000E70ADFED767A93ED0B7A80EE270A30EEA1
:1040B000070AB5EEC00AF1EE10FA07D4B4EE670AAB
:1040C000F1EE10FAC8BFB0EE670A01E09FED6C0A8E
:1040D00083ED0B0A1320FCE0D97A5944C829A8BF04
:1040E000C82121EAE171D9721320C1E0624B1B683B
:1040F0001A78022A22D107EE90BAB8EEE70ADFED6D
:10410000617A80EE270AD3ED0F7A30EE270AB5EEFA
:10411000C00AF1EE10FA09D4DFED587AB4EE670A5E
:10412000F1EE10FAC8BFB0EE670A01E09FED540A45
:1041300083ED0F0A112007F0B7FD0AE0997D59447D
:10414000C829A8BFC82121EAE1719975112007F09B
:1041500097FDB8F1110F00F00381474B1B681A78E7
:10416000022A20D107EE90BAB8EEE70ADFED457AD1
:1041700080EE270AD3ED0E7A30EE270AB5EEC00A9C
:10418000F1EE10FA09D4DFED3D7AB4EE670AF1EEF4
:1041900010FAC8BFB0EE670A01E09FED390A83ED5F
:1041A0000E0A142095E0597D5944C829A8BFC8219A
:1041B00021EAE171597514205AE02F4B1B681A78D7
:1041C000022A1ED107EE90BAB8EEE70ADFED2B7A8D
:1041D00093ED0A7A80EE270A30EE070AB5EEC00AA0
:1041E000F1EE10FA07D4B4EE670AF1EE10FAC8BF88
:1041F000B0EE670A01E09FED220A83ED0A0A09206A
:1042000067E0D9785944C829A8BFC82121EAE171DB
:10421000D97009202CE0184B1B681A78022A1ED18D
:1042200007EE90BAB8EEE70ADFED147A93ED0D7A57
:1042300080EE270A30EE070AB5EEC00AF1EE10FA5A
:1042400007D4B4EE670AF1EE10FAC8BFB0EE670A01
:1042500001E09FED0B0A83ED0D0A0A2039E0597B3E
:104260005944C829A8BFC82121EAE17159730A201D
:1042700007F006FD74E000BF101C00200000C842DB
:104280000000000000007A44B54B1B681A78022A2F
:1042900022D107EE90BAB8EEE70ADFEDB27A80EEEF
:1042A000270AD3ED107A30EE270AB5EEC00AF1EEF8
:1042B00010FA09D4DFEDAC7AB4EE670AF1EE10FA29
:1042C000C8BFB0EE670A01E09FEDA80A83ED100AAF
:1042D0000B2007F0E9FC43E0D97D5944C829A8BF69
:1042E000C82121EAE171D9750B20C1E7012837D136
:1042F00098789F4B33F91110B1F5617F05DB40F6DB
:1043000033039942B8BF0B4601E04FF46173B8F133
:104310000C0F25D14FF4966191FBF0F1A3F5617379
:1043200093FBF1F392F8F1105FFA83FB594517D034
:10433000BBF1030F94BF5946022182F8F1108D4A58
:1043400008FB016101F2E261116004F08BF8404664
:10435000594607F095FC0BF10100C0B20CF060FE6D
:10436000854B012293F8F01002FA09F20A4383F810
:10437000F02009F10109B9F1040F0AF10C0A7FF4E8
:1043800008ADADE43B68DA0511D57C4BDB7873B141
:10439000DAF800309B070AD5B9F8003013F00105B0
:1043A0000AD104F02BFD01200CF052FE04E00120A4
:1043B0000CF07CFE012300E00023D8F80020550714
:1043C0000DD563B101200CF071FEB9F800309807EB
:1043D00008D404F013FD02200CF03AFE02E00220A3
:1043E0000CF064FEB9F80050654B15F0030F4FF464
:1043F000004214BF5A831A83DAF80030990609D4B0
:10440000D8F800301A0540F1D5804FF480700CF0D8
:104410001FFED3E05B4B1B789B0769D55A4B1B787B
:10442000042B65D9D8F8003013F4007A05F0100594
:104430000DD0002D4FD110200CF00AFE20200CF0E2
:1044400035FE5248011D03F037FC02223FE0ADB2B9
:1044500035B110200CF02AFE4D4B012583F800A049
:10446000D8F8003058052AD54A4B1B685A894A4B60
:10447000B3F900100029B8BF4942914209DAB3F9F3
:104480000230002BB8BF5B429342ACBF0023012334
:1044900000E000239BB1B9F8003099061CD420201D
:1044A0000CF0D6FD3D483E4B011D1A685B68436029
:1044B000026003F001FC364B01251D700CE0B9F8D9
:1044C00000309A0608D520200CF0F0FD0022304B79
:1044D00001251A7000E00025DFF89C9099F8F23071
:1044E0009BB90E200CF06AFD012389F8F2300CE034
:1044F00015F0300F84D010200CF0D8FD20200CF0E7
:10450000D5FD234B00221A7002E0002D3FF478AF56
:10451000002213462348244D0021195223481952E2
:10452000234805EB020E19520020CEF80000CEF809
:104530000410CEF8080005F1280E503596441544B5
:104540000233042BCEF80000CEF80410CEF8080099
:1045500028606960A86002F11402DBD150E700BF57
:10456000101C002000007A440000C8420000000037
:1045700078070020F40E0020E8180020E00F00204B
:10458000000C02404907002048070020181C0020AA
:104590002C1C0020E80E0020B00E0020241C00205F
:1045A0007415002034160020DC190020EC0E0020C9
:1045B000F00E00204FF480700CF078FD7379082B1A
:1045C00001D00E2B02D140200CF070FD3B685B0542
:1045D00079D596F814321BB9237813F0040F03E051
:1045E000D8F8003013F4002F0BD0384B002283F89A
:1045F0006C213C200CF050FA002864D003F06CFED3
:10460000F7E70BF0BBFD0BF02FFB5CE0012000E0B7
:1046100002205FFA80FA0AF1FF3386F8E03602F0F2
:1046200091FB06F0A7FB50460CF0FAFCFFF7F0BA3E
:10463000BAF1000F02D07E2B3FF4E8AA972B05D1E8
:10464000234B4FF4C8721A80FFF7E2BAA72B06D1AA
:10465000204B1A7842F004021A70FFF7D9BA0022F0
:10466000BB2B059201D1022303E0B72B04D14FF6F7
:10467000FE73ADF816300AE0BE2B01D1022304E030
:10468000BD2B7FF4C5AA4FF6FE73ADF81430D9F8F0
:104690000030BDF81410B3F854200A44A3F8542095
:1046A000BDF81610B3F856200A44A3F8562002F0BD
:1046B00049FB06F05FFB01200CF0B2FC002385F8FB
:1046C000B630FFF7A5BA07B0BDE8F08FE8180020B4
:1046D000041B002049070020C44B2DE9F04FB3F91B
:1046E0000600C34BD3F800E02DED028BBEF80A3074
:1046F000984291B00FDBB0F5FA6F9EF8077007DAB9
:10470000C21A5743A3F5FA6397FBF3F7643703E044
:10471000C7F1640700E06427B64BB3F89621049212
:10472000B54A93F95E31D2F800C09BB200210593DF
:1047300064460A46AD4B049DCB5E03935B1B03F2BC
:10474000F31640F2E635AE4203D8002BB8BF5B4209
:1047500001E04FF4FA73022A4FF06406A74DDFF828
:10476000A4922DD09CF80D81B8F1000F04D04345E0
:10477000CCBFC8EB0303002393FBF6F86FF0630B89
:1047800035F818A00BFB083B08F1010835F9188033
:104790000FFA8AF5C5EB080505FB0BF595FBF6F559
:1047A000554429F801500EEB02052D796B43944DC9
:1047B00093FBF5F364339BB27B4393FBF6F62FE058
:1047C0009CF80E81B8F1000F04D04345CCBFC8EB74
:1047D0000303002393FBF6F66FF0630A05EB46082C
:1047E0000AFB063B05EB4606B8F90E80B6F91050F9
:1047F000059EC8EB050505FB0BFB9BFBFAFBC8EB15
:104800000B0808FB06F8A9F804809EF8065083EA16
:10481000E376A6EBE3766E43794D96FBF5F66436C8
:104820000CEB0208754B98F8019003F11C054FF052
:10483000640806FB09F999FBF8F902F8059094F869
:104840000B9003F11F0506FB09F999FBF8F902F833
:10485000059094F8159003F1220506FB09F6022A4B
:1048600096FBF8F656551D4616BF253383F827806C
:10487000D754049E039BB342624E02DA735A5B42E2
:1048800073520231062902F1010204F101047FF49E
:1048900051AF584CB4F89831984205DBB0F5FA6F37
:1048A000A8BF4FF4FA6000E01846C01A4FF47A72BD
:1048B0005043C3F5FA63B0FBF3F34FF0640E93FB80
:1048C000FEF205EB42016FF0630000FB023305EBE3
:1048D0004202098DB2F92A004A4F0AB2821A5343A2
:1048E00093FBFEFE484B1B887144F18059063AD574
:1048F000464BDFED477AB3F904200A2392FBF3F32A
:104900003E4AB2F840209B1A1BB208EE903AF8EEED
:10491000E88A68EEA78AB0EE680A04F0D5FCB0EE2B
:10492000408AB0EE680A04F06FFCB7F90220B7F9CC
:10493000003006EE902A07EE903AF8EEE66AF8EEBE
:10494000E77A20EE667AA7EE887A67EE807ABDEE87
:10495000C77AE6EE887A17EE103AFDEEE77A3B80EA
:1049600017EE903A7B802B4B244F1B88DFED2A0AF1
:10497000B5F8428000EE103A0121B8EE400A07F186
:10498000440004F045FABCEEC00A244B10EE101AA5
:1049900089B2B8FBF1F101F1010C1B781FFA8CFC14
:1049A000A5F84CC0002B3BD0B7F84EA00023134A0B
:1049B000F75A02F1500E02F1580033F80E8033F826
:1049C00000901F5218FB0AF80FFA8CFBC9EB07097D
:1049D00098FBFBF8C84423F80E800233082BE6D17D
:1049E0000E4BA2F84E10002018701EE07807002031
:1049F000F40E00209C0700206C070020581A0020AD
:104A00000CFEFFFFB00E002068070020E00E002023
:104A100035FA8E3C700700206F12833A1907002088
:104A2000B7F84E30013BA7F84E30B5F84E10BB4AF0
:104A30000BB2002B4FF000030FDDB2F94C70B84AF7
:104A4000985A083210FB01F09A5A90FBF7F0121AAC
:104A5000F2520233082BF2D101E0A2F84E30B14BF2
:104A60001A6812F0020F9A4674D0AF4B2A6E1B6878
:104A7000AA4F9A1A45F207218A426BDD3B6607F07E
:104A80004CFCAA4BDFF8D8821A78032A9946B8F86A
:104A9000003022D10A2B2CD90023282089F800309D
:104AA00003F0ABFE07F039FCB7F8640003F070FBCD
:104AB0009F4BA0491B68DA7890FBF2F0421C082A51
:104AC00028BF08220A7059791B7992B251435A4380
:104AD000A7F86610A7F868200BE00A2B09D8032373
:104AE000944A89F8003000231370A7F86630A7F8BD
:104AF000683099F800208D4B012A0DD002D3022A8C
:104B00001ED027E0B5F86620B8F800309A4221DDC3
:104B1000012389F8003011E0B8F80020B5F86810DA
:104B2000914202DD02221A7011E07C49B1F8661050
:104B300001318A4202DD00221A700BE0082007E0F2
:104B4000B5F86830B8F8002001339A42E0DC07205D
:104B50000CF034FADAF800703A056FD5724BE96E52
:104B60001A686E4BC1EB020A45F207218A4565DDE2
:104B7000DA666F4AB6F90690D2F80080B4F84E11A2
:104B800098F80A206C4E012AA9F57A7903D03ED311
:104B9000022A1BD03DE0196F082291FBF2F0091A9E
:104BA00091FBF2F20020A3F8740092B21967B8F8F2
:104BB000080040F6E4435343C0EB13334FF47A72DA
:104BC0005343B8F9062093FBF2F321E05B4BB8F8AE
:104BD00008B01B78C6F800B05B071AD558480CF02F
:104BE000CFF920B917F0100F18BF4FF0000909FBDB
:104BF00009F2322392FBF3F39944B8F906304FF4EB
:104C00007A7203FB09F393FBF2F35B4400E00023A9
:104C1000336033684B4AD5E91E0103FB0AFA4FF4AF
:104C20007A739AFBF3FA10EB0A0041EBEA71002366
:104C3000C5E91E010DF016FC434B1860434B1A6882
:104C400012F4805F984626D03E0621D5404B1B7853
:104C500098071DD53F4B1978042919D900233E4EDA
:104C600005229A551E44981C0A27122BC2B277704F
:104C700004D0B1EB520F0346F1D800E014222A44CD
:104C8000322382F87F30FF2382F880300F2000E04B
:104C90000A200CF093F9D5F89870204E002F6BD0B5
:104CA0002E4BD6F89C2019688A429A4664D896F80A
:104CB000A030B6F8A2907A68ABB9012386F8A0308C
:104CC00012F80920CAB186F8A43003F04BFDB9F1FF
:104CD000000F12D13B78053B012B0ED803F0F5FBFA
:104CE000C6F8A80009E0002386F8A03012F80920D1
:104CF0001AB186F8A43003F035FDB5F8A2107A6831
:104D0000064B525CFE2A03D10022A3F8A22033E016
:104D1000FF2A27D103F04CFD2EE000BF581A0020D7
:104D2000A81A0020B405002030160020B815002075
:104D3000581500200C0000206415002039160020B2
:104D400024090020407E0500681500203C1000204A
:104D50004907002048070020D81A0020943F00206F
:104D60005C150020DAF800000A2616FB0202013169
:104D7000C3F89C20A3F8A2108D4E3378590704D5B0
:104D80008C4B4FF480425A8334E0D8F80020D2078D
:104D90005CBF43F001033370874B1B781F0703D4BC
:104DA000337823F001033370B5F8AC301BB1834B7B
:104DB0001B68980705D4824B1B88003318BF01235A
:104DC00000E001233BB1022385F8A430337823F0BF
:104DD0000103337005E03278D10758BF022385F80C
:104DE000A43003F072FBD5F8B030C01A002801DB04
:104DF00003F0B8FC0BF0C2F9724B1A789946002AFE
:104E000075D0D5F8B430002B00F0C486D5F8B400C6
:104E10006D4C03F08DFD002800F0BC86D4F8B40082
:104E200003F081FD092801D03F2852D14FF000083E
:104E3000D5F8B860654F44462EB1654839683246AA
:104E40000EF070FA10B9B84604B93C46614B103701
:104E50009F42F1D3ECB1D5F8B83022685A48D75CFC
:104E6000D8F80020D15CB94213D15A1C59B92D2B66
:104E700009D8C0F8B82003440244202783F8BC7046
:104E800082F8BC1005E02B44C5F8B82083F8BC704C
:104E9000E1E7D5F8B8300BB1444510D04E4803F0E7
:104EA000F7F9444507D854F8100B03F0F1F909203D
:104EB00003F0E7F9F5E7494803F0EAF90026D5F8E9
:104EC000B8309E42A2D2424B985D03F0DAF9013627
:104ED000F5E7D4F8B830002B40F08886042840F07D
:104EE0007F8604F1BC0002F007FA00F053BE3C4F8D
:104EF00097F84A30012B40F04886DFF8EC80394BB8
:104F00003A68C8F800701A60C346DFF8D8A0524665
:104F1000106803F00DFD002800F02586DAF8000087
:104F200003F001FDDBF8003093F84810024619B990
:104F300024285BD1012238E0012904D14D280CBF7F
:104F40000222002231E0022904D13C280CBF0322B6
:104F500000222AE003290CD140284FF0000102D999
:104F600083F848106AE058711971D9719871042258
:104F70001BE0042907D1997983F8490080EA0102EE
:104F80009A71052211E0052958D15879197988427A
:104F9000987906D950409871481C18710B441A72C0
:104FA0004CE090420CBF0622002283F8482045E0E6
:104FB00039160020000C0240490700204C07002051
:104FC000381C002038160020581A00207864010888
:104FD000141B002028660108986801089D680108D4
:104FE000441B002014160020101600203178D64BE8
:104FF000490723D4232ADAF8001014D1012089F8B4
:105000000000D248C5F8B410C5F88411029201938B
:1050100003F03EF9CE4803F03BF9019B197841F0CB
:1050200002011970029AD5F888311B78934205D194
:10503000C84BC94A1A60C94BC94ADA60DBF800306C
:10504000DFF834A393F84820062A7FF45EAF93F884
:10505000490000F07DFE002840F07B85DAF8002052
:1050600092F849304C2B00F0D68467D8372B00F0EB
:10507000338521D8292B00F09A8409D8252B00F0FC
:105080007184272B00F07584232B40F0A685F2E075
:105090002D2B00F09D8407D82B2B40F09E8503F02C
:1050A000D2F8607100F052BD332B00F00385352B30
:1050B00000F0AF8200F091BD412B00F000850AD8CE
:1050C0003C2B00F036813E2B00F02981392B40F03B
:1050D000848500F05BBC442B00F0358526D8432B3B
:1050E00040F07B8503F0AFF80023A360607103F00C
:1050F000BFF8A3681843A06003F0A5F884F89001F6
:1051000003F0ACF8A4F8580103F0A8F8A4F85A0189
:1051100003F0A4F8A4F85C0103F0A0F8A4F880015F
:1051200003F09CF8A4F8820100F010BD482B00F0B9
:10513000AD834A2B00F00A8500F04FBDD02B00F064
:10514000838356D8CA2B00F0268109D8C82B00F0DB
:10515000888000F29E834E2B00F06A8400F03DBDF3
:10516000CD2B00F07C8304D8CC2B00F08F8200F094
:1051700034BDCE2B00F07C83CF2B40F02E8503F086
:105180006DF86FF4AF6E00EB0E039BB2C62B98BFA9
:10519000A4F8960103F062F8A4F8400103F05EF869
:1051A000A4F8420103F05AF8A4F8440103F056F8B9
:1051B000A4F8D80103F047F884F8ED0103F043F8B0
:1051C00003F041F884F8EE0103F03DF884F885011E
:1051D00003F039F884F8920103F035F8614BD3F805
:1051E00000A003F03BF800EB80004000AAF852005A
:1051F000CCE3D62B00F09A820AD8D22B1BD0C0F079
:105200007083D32B27D0D42B00F09C8200F0E5BC18
:10521000EF2B74D007D8D82B08BF4FF0000B00F04D
:105220005D8100F0DABCF22B00F0E382FA2B00F093
:10523000298300F0D2BC33785B0700F1878403F048
:1052400002F8022884F8E00640F20483464B00226C
:1052500083F8E026FEE203F001F8A5F88C0100F0E7
:1052600075BC92F805A04FEA5A0ABAF1120F1FD87E
:105270004FF0000B20E002F0E6FF132818D8DFF80B
:10528000E4B0DBF8003000F11C0203EB820202F113
:10529000050A029202F0D7FF344B029A03F5A87177
:1052A00093F808E0864500F095810C338B42F7D1E6
:1052B0000BF0EEFB00F04ABCD34507D202F0CEFF64
:1052C00007AB23F81B000BF1010BF5E70023534557
:1052D000274A06DA07A931F8131022F81310013310
:1052E000F5E70AF1FF3A02EB4A032232934203D078
:1052F000002123F8021FF9E701221E4BC0E2DFF86C
:1053000064A0DAF800B002F0A9FFABF85600DAF8B2
:1053100000A002F0A3FFAAF8540000F017BC02F0AE
:1053200092FF84F8E00102F08EFF84F8DF0100F0C4
:105330000DBCDFF830A0DAF800B002F084FFE8B16D
:105340000228A8BF02201AE039160020CD68010803
:105350009D680108FCFF0120EFBEADDE00ED00E01E
:105360000400FA056C0700209C070020286601084D
:10537000E61B0020F50600201016002001208BF807
:105380000000DAF800301B78022BB74B14BFB74A85
:10539000B74A1A60DAE3B74B1A681278022A8346D2
:1053A0009A467DD1DAF80030019302F04CFF07EE07
:1053B000100AF8EE477AB2EE048AC7EE887A019BAB
:1053C00003EB8B03C3ED087ADAF80030019302F0A7
:1053D0003AFF07EE900AB8EE677ADFEDA77A019BF5
:1053E000C7EE277A03EB8B03C3ED0B7ADAF80030B4
:1053F000019302F028FF07EE900AB8EE677ADFED1E
:105400009F7A019BC7EE277A03EB8B030BF1010B0D
:10541000BBF1030FC3ED0E7AC4D1DAF8003001936B
:10542000BBF1070F21D102F00EFF07EE100AF8EED4
:10543000477A019BC7EE887AC3ED117ADAF800301B
:10544000019302F000FF07EE100AF8EE477A019B85
:10545000C7EE887AC3ED127ADAF80030019302F0D1
:10546000F2FE019B83F84C0014E002F0ECFE019B7D
:105470005B445870DAF80030019302F0E4FE019BBF
:105480005B44D872DAF80030019302F0DCFE019B35
:105490005B4458750BF1010BBBF10A0FBDD155E30D
:1054A000DAF80030019302F0CEFE019B5B445870A5
:1054B000DAF80030019302F0C6FE019B5B44D8721B
:1054C000DAF80030019302F0BEFE019B5B440BF161
:1054D000010BBBF10A0F5875E2D137E3DFF894A155
:1054E0009FED668ADAF80030019302F0B7FE07EE0E
:1054F000100AF8EE477A019BC7EE887A03EB8B031C
:10550000C3ED087ADAF80030019302F0A7FE07EE47
:10551000100AF8EE477A019BC7EE887A03EB8B03FB
:10552000C3ED0B7ADAF80030019302F097FE07EE34
:10553000100AF8EE477A019BC7EE887A03EB8B03DB
:105540000BF1010BBBF1030FC3ED0E7AC6D1DAF8F4
:1055500000300193BBF1070F21D102F07FFE07EE6F
:10556000100AF8EE477A019BC7EE887AC3ED117AEC
:10557000DAF80030019302F071FE07EE100AF8EE3F
:10558000477A019BC7EE887AC3ED127ADAF80030C9
:10559000019302F063FE019B83F84C0014E002F0DB
:1055A0005DFE019B5B445870DAF80030019302F015
:1055B00055FE019B5B44D872DAF80030019302F08B
:1055C0004DFE019B5B4458750BF1010BBBF10A0FBB
:1055D000BDD1BBE21B78537102F035FE8AF80100A1
:1055E00002F031FE8AF8020002F02DFE8AF8030074
:1055F000234BDBF80000C3F8B801224AC3F8B421FA
:105600007530002102F050FF1F4B80F00100187030
:105610009CE202F018FE0B283FF64AAE154B4FF005
:10562000060B0BFB00F01B68C03003EB000B02F015
:105630000AFE03283FF63CAE8BF80A0002F003FE98
:105640008BF8050002F0FFFD8BF8060002F0FBFD71
:105650008BF8070002F0F7FD8BF8080002F0F3FD6D
:105660008BF8090072E200BF08000020C9D30008CF
:105670002DA900086C0700200000C84200007A44F1
:10568000581A0020DC080020020000205379092B62
:105690007FF60EAEDFF8F0A3DAF800B002F0D3FD2B
:1056A0008BF80000DAF800B002F0CDFD8BF80100B5
:1056B00002F0C9FDDAF800306428A8BF6420187130
:1056C00002F0C1FDDAF800306428A8BF64205871E8
:1056D00002F0B9FDDAF80030FF28A8BFFF2098716A
:1056E00002F0B1FDDAF800B0642828BF64208BF81E
:1056F000070002F0A8FD8BF80200DAF800B002F013
:10570000A2FD8BF80300DAF800B002F0A7FDD8F88C
:105710000030ABF80A005B790A2B40F21782DAF806
:1057200000A002F090FD8AF808000FE2834602F024
:1057300095FDCF4B23F80B000BF1020BBBF1100FC3
:10574000F5D103E253790F2B7FF4B2AD02F07BFD6C
:10575000072882463FF6ACADDFF830B3DBF8003007
:10576000019302F07BFD0E22019B02FB0AFA5344D7
:10577000A3F81501DBF80030019302F06FFD019BE7
:105780005344A3F81701DBF80030019302F066FDE3
:10579000019B5344A3F81901DBF80030019302F098
:1057A00052FD019B534483F81B01DBF80030019349
:1057B00002F049FD019B534483F81C01DBF80030E3
:1057C000019302F040FD019B534483F81D01DBF877
:1057D0000030019302F037FD019BDBF800B0534429
:1057E00083F81E0102F044FD0BEB0A03C3F81F010E
:1057F000ACE102F028FD0F2882463FF659ADCAEB16
:10580000CA0A02F020FD04EB0A0303F1D00A83F870
:10581000D00002F018FD8AF8010002F014FD8AF8A9
:10582000020002F010FD8AF8030002F00CFD8AF875
:10583000040002F008FD8AF8050002F004FD8AF871
:10584000060003F033FA81E13378580700F17E81D6
:1058500009F016F801F076FA05F08CFA76E1337863
:10586000590700F173814FF4C873A5F8AC306DE1AE
:1058700033785A0700F16A817E4B1A7842F00402AD
:105880001A7063E133785B07E4D5A6E108F09EFB6C
:105890005CE102F0D8FC774B1A7810B142F00202BA
:1058A00001E022F002021A7002F0CDFC724BDFF828
:1058B000E0A1187002F0DCFCCAF8000002F0D8FC8D
:1058C000CAF8040002F0CAFC6C4B188002F0C6FC57
:1058D0006B4B188095F8BC3143F0020385F8BC315E
:1058E00034E102F0B0FC029002F0C2FC019002F040
:1058F000BFFC834602F0BCFC824602F0AFFC02F023
:10590000ADFC02F0A0FC029A019B9AB91020C5F8E8
:10591000C031C5F8C4B10BF0C9FB564B1A7842F040
:1059200001021A70BAF1000F00F01081554BC3F854
:10593000C8A10BE1102A40F00981C5F8CC31C5F8A7
:10594000D0B1BAF1000F02D04E4BC3F8C8A14D49F7
:10595000022381F8D43101F5E67001F5E87102F017
:10596000ABF9F3E0A06002F083FCA3681843A060E9
:10597000ECE002F073FCA4F8580102F06FFCA4F80C
:105980005A0102F06BFCA4F85C01DFE002F05BFC62
:1059900084F87A0102F057FC84F87E0102F053FC8F
:1059A00084F87D0102F04FFC84F87F01CEE002F024
:1059B00055FCA4F8800102F051FCA4F8820102F029
:1059C00042FC84F8840102F049FCA4F88601BDE0A1
:1059D00002F039FC84F8900102F040FCA4F89A012E
:1059E00002F03CFCA4F8960102F038FCA4F89801FF
:1059F00002F029FCDAF8003084F891015B79082B79
:105A000040F2A48002F02AFCA4F89C0102F026FCDB
:105A1000A4F89E019AE002F016FC84F8D60102F088
:105A200012FC84F8D70102F019FCA4F8D8018DE02B
:105A300052790323B2FBF3F3122B3FF639ACDFF8B4
:105A400054A04FF0000B9B4580F08080019302F042
:105A5000FAFB8AF8A00102F001FC40F2ED2290422C
:105A6000019B19DD40F6CA029042A8BF104615E01E
:105A70001210002049070020480700206E15002062
:105A80006C150020581A0020F40E00206C0700202E
:105A9000741500209C07002040F2EE20A0F2EE20BA
:105AA000192290FBF2F08AF8A1010BF1010B0AF127
:105AB000020AC8E702F0C7FB84F8920146E0834679
:105AC00002F0C1FB04EB0B030BF1010BBBF1080F60
:105AD00083F88801F4D139E053794FF0070BB3FB19
