:020000040800F2
:100000009C05002089010008B9280108D9280108A9
:10001000B7280108B5280108B3280108000000002E
:10002000000000000000000000000000B1280108EE
:10003000AF28010800000000AD280108BB28010816
:10004000E5010008E5010008E5010008E5010008F8
:10005000E5010008E5010008E5010008E5010008E8
:10006000E5010008E5010008E5010008E5010008D8
:10007000E5010008E50100084D270108E501000839
:10008000E5010008E5010008E5010008E5010008B8
:10009000E5010008E5010008E5010008E5010008A8
:1000A0004D2601087D260108E50100088D2601087E
:1000B0006D260108E50100085D260108A728010852
:1000C00095280108A12801088F280108E5010008EA
:1000D000E5010008E5270108E501000841270108BE
:1000E000C9280108E5010008F5280108E501000814
:1000F000E5010008E5010008E5010008E501000848
:10010000E5010008E5010008E5010008E501000837
:10011000E5010008E5010008E5010008E501000827
:10012000E5010008E5010008E5010008E501000817
:10013000E5010008E5010008E5010008E501000807
:10014000E5010008E5010008E50100089119010832
:10015000E5010008A9260108F12701089D260108EC
:100160009B28010889280108E5010008E50100082D
:10017000E5010008E5010008E5010008E5010008C7
:10018000E5010008E5010008002100F004B80F4B6C
:100190005B58435004310E480E4B42189A42FFF40C
:1001A000F6AF0D4A00F003B8002342F8043B0B4BB6
:1001B0009A42FFF4F9AF0A48016841F47001016006
:1001C00012F01CFA00F010F870470000EC8F0108E4
:1001D000000000209C010020A00500201C41002000
:1001E00088ED00E0FFF7FEBF2DE980489BB001F0ED
:1001F00015FFC14CC14DDFF818B301222A70627897
:10020000DBF8007000232370A24622B16268BA1A9C
:100210009A42A8BF6370A668330740F17E81B64B4F
:10022000DB681B7A062B00F25381DFE813F007002E
:1002300007003300EA001B0148014801237CAE4A55
:10024000002B00F0468100231374536992F811E0EB
:1002500092F8188093F800C002230AEB030003F120
:100260000109427EA44942FA0EF202F00F026245F1
:100270000CD20B2A0AD88944407E99F8199001EBD8
:10028000820200EA080009EB0020D0620233102B42
:10029000E3D11BE194F85C20974B002A00F0AF807B
:1002A00093F8AA10002283F85C2093F8A92001F0AB
:1002B000070042EA00221A6693F8AB2002F03F00E2
:1002C000400140EAD101596693F8AC10890041EA37
:1002D000921193F8AD2002F0010041EA8021996665
:1002E00093F8AE1001F00F00C00140EA5202DA6646
:1002F00093F8AF2002F07F00000140EA1111196766
:1003000093F8B010490041EAD21293F8B11001F00D
:10031000030042EA40225A6793F8B22002F01F001D
:10032000800140EA9101996793F8B310C90041EA4E
:10033000521293F8B510DA6793F8B42001F0070071
:1003400042EA0022C3F8802093F8B62002F03F0072
:10035000400140EAD101C3F8841093F8B710890036
:1003600041EA921193F8B82002F0010041EA80219D
:10037000C3F8881093F8B91001F00F00C00140EAEB
:100380005202C3F88C2093F8BA2002F07F000001DB
:1003900040EA1111C3F8901093F8BB10490041EAEC
:1003A000D21293F8BC1001F0030042EA4022C3F8D5
:1003B000942093F8BD2002F01F00800140EA9101D3
:1003C000C3F8981093F8BE10C90041EA5212C3F85E
:1003D0009C2093F8BF20D0074CBF40F21471AD2190
:1003E000C3F8A01091074CBF40F21473AD2312F074
:1003F000080FC4F8A4300CBF0123032369E013469F
:1004000067E094F8C1303C4A0021002B61D082F8AB
:10041000C11092F8C320012A03D0812A20D10323DE
:1004200000E0134694F8E720102A03D9324A10213D
:1004300082F8E71094F8E700314900225FFA82FE63
:10044000864501F1020144D211F801EC11F802CC09
:100450004EEA0C2CDFF8BCE04EF822C00132EDE78A
:100460000B4636E094F82821234B8AB3002283F808
:10047000282193F82921A82A2AD193F83C313BBBA3
:100480000AEB43029FED1F7A92F82C1192F82D216E
:1004900002EB012207EE902AF8EEE77A1A4AC7EE3D
:1004A000877A9FED1A7A77EEC77AFCEEE77A17EE35
:1004B000901A42F823100133082BE1D106E094F89A
:1004C000603133B10C4B002283F86021012300E03E
:1004D000002313F001021FD083F002030122C3F3B3
:1004E000400322706370C3B1F30516D500232B704F
:1004F00009F080F811E000BFA005002000000020F6
:1005000065060020CDCCCC40E00600200080BB4337
:10051000CC160020880600202A7070040DD594F8AF
:10052000613123B1B44B002283F861210123237090
:100530001BB1F10501D509F05DF844F20803334021
:100540000BB123780BB9B20403D507F5C333A0333D
:100550006360F30710D594F8621194F86321A64BF9
:100560008A4207D001225A7007F5C332A0325A607E
:1005700083F8631163782B70237833B99E4BD3F8DB
:100580006431FF1AFF43FF0F00E001272FB104F091
:10059000A5F8012384F8683180E1D4F86C31964ADB
:1005A000013303EAE3733006C2F86C3140F176811F
:1005B000D4F87031BBB994F87431013B052B00F2CB
:1005C0006D81DFE813F017001700170017005801BE
:1005D0003301894BD3F8700107F01FFF0BF0B8F817
:1005E00008B111F09BFCDAF8700107F01BFF00283E
:1005F000EFD1E0E7D4F894217F4E1278012A05D09C
:10060000C0F00281022A00F0FF8047E1D6F87001B5
:1006100007F0E1FE002800F0418196F87431013BBB
:10062000032B00F23B81DFE803F00246568A734B4E
:10063000D4F88C211968704B8A1AC72A40F22E818F
:10064000D3F88801042834D86D4AC3F88C110C26DD
:1006500006FB0020D3F8706190F82170D6F808C02E
:100660000023104650F8231061455FFA83FE04D042
:100670000133082BF6D1002300E07346BB4205D0BE
:10068000304652F8271007F0C3FE07E194F87531A1
:100690000C2202FB0300476A17F8011B19B1304610
:1006A00007F0D2FEF8E7D4F888310133C4F8883176
:1006B000F4E00220F0E0524B94F87521D4F8700178
:1006C0000C2101FB023292F8212053F8221007F08E
:1006D0009FFE0320E0E094F890311BB9464B0122C5
:1006E00083F8902194F89031434E012B17D1D6F81E
:1006F0008831072B0DD8424AD6F87001134493F87D
:100700005C1007F0A1FED6F888310133C6F88831B5
:1007100005E00023C6F88831032386F8903194F869
:100720009021354B022A40F2B980D3F89821002A53
:1007300000F0B480002283F890210420ACE0D4F8CB
:1007400094212D4B9278002A6ED093F8902112B903
:10075000012283F8902194F89031274E012B25D166
:10076000D6F89831274A9342D6F888310FD8E22B31
:1007700006D8234AD6F87001134493F864100EE0AB
:100780000023C4F88831022384F890310EE0DB2B7B
:10079000F6D81B4AD6F87001134493F8471107F0B6
:1007A00053FED6F888310133C6F8883194F8903179
:1007B000114E022B1AD1D6F888310F2B13D8D6F848
:1007C00094210F495278D6F8700102EB02120A44C4
:1007D000134493F8241207F037FED6F8883101331A
:1007E000C6F8883102E0032386F8903194F89031FE
:1007F000022B53D918E000BFA005002000410020C3
:100800002C5101086F110100012B47D88B4B96F832
:100810007521D6F870010C2101FB023292F82120DB
:1008200053F8221007F0F4FD052035E0D4F87C21C0
:10083000834B0132C4F87C21D4F89421D2785AB188
:1008400093F875210132D2B20521B2FBF1F101EB2F
:100850008101521A83F875217A4B1B68C4F88031E4
:10086000002384F89C3194F89D3123F0020384F82E
:100870009D31012010E0734BD4F880211968704B32
:100880008A1A40F6C4118A4208D9D3F8A02122F06E
:100890002002C3F8A02106200BF070FF07F05DFBDB
:1008A00094F8B731CBF80000D4F8A461002B3CD009
:1008B000654B1B78590734D5614B13A8D3F8C4385E
:1008C00098479DF84C3033B3D4F8CC28DBF800308F
:1008D0005B4ED4F8D0781344C4F8A43106F6D400A3
:1008E000D4F8BC38984706F6D400014694F8DA28C4
:1008F0000AF0B1FC55490B8806F6D408002B00F02D
:10090000BA80D6F8DC381B78002008EE103A06F5DD
:100910000E66814636E04E4B1B68B342D4D801F0D8
:100920002ABBB042D0D201F026BB861B002ECBDA08
:1009300001F021BB38F909C05EF8002062444EF88E
:100940000020326905EE90CA0132012AF8EEE57AFC
:10095000326123D10022C6ED017AC6ED007AB26081
:100960003C4A4FF0000E012B28F809E029F802E07C
:100970002FD009F10209B9F1060F00F1040006F1C8
:1009800014066DD0314ADFF8D4E01388B3F57A7FCE
:10099000D0D100224EF800203261CBE796ED006AFC
:1009A00005EE902A77EEC66AB8EEE57A86EE877A8B
:1009B00036EE077A37EEC76AD6ED027A86ED017A0F
:1009C000E6EE867A86ED007AC6ED037AC6ED027A07
:1009D000C6E7D6F810E0BEF1010F0ADD0EF1FF3ECA
:1009E00000EE10EAD6ED037AB8EEC00A87EE800A70
:1009F00001E09FED190A08900691079313F0D8F9CA
:100A000018EE102A08980699079B4AB1F8EEC87AA2
:100A1000B4EEE70AF1EE10FA02DD4FF47A7329E042
:100A2000DFF838E00B4A50F80EC04FF47A7E0CF530
:100A3000FA7C9CFBFEFE22F809E09AE72C510108A3
:100A4000A005002000410020DB160020D816002061
:100A5000CC160020C80E002000000000BC0E0020B4
:100A6000012B06D118460691079307F0E5FB079B7B
:100A70000699013B0B800023C54E38F8031006F69B
:100A800028129A5A8A1A28F803200233062BF3D127
:100A9000D6F8A03113F0020300F0B482D6F834394E
:100AA00006F63C109847BB4B06F63C101A780146F8
:100AB0000AF0D1FBB6F8423906F63C19002B43D0B8
:100AC0000022D6F844091346BAF84219DFF8D0E2FA
:100AD00039F902C0AE4EB1F5C87F04BF00214EF80F
:100AE00003105EF8031061444EF803100433002134
:100AF0000C2B29F80210815202F10202E4D1B6F85F
:100B00004239012B1BD1D6F848394FF4C872C8338B
:100B100093FBF2F30380D6F84C39C83393FBF2F31E
:100B20004380D6F85039C83393FBF2F26B88D21A5F
:100B30008280A7F85810A7F85A100EF0B3FAB4F84C
:100B40004239013BA4F84239A268914B52077BD548
:100B5000B3F85429322A13D1D3F844291188A3F8C1
:100B6000561951889288A3F85A29B7F85820A3F843
:100B70005C29B7F85A20A3F85819A3F85E2901E0B8
:100B8000002A40D00022D4F844191046BAF854394B
:100B9000DFF810E239F902C07D4E322B04BF00238A
:100BA0004EF800305EF8003063444EF800300430F8
:100BB00000230C2829F802309E468B5202F10202D3
:100BC000E4D1B6F85439012B18D186F86D3986F87E
:100BD0006CE9069107F030FB0699B6F856390B80A0
:100BE000B6F858394B80B6F85A398B80B6F85C396C
:100BF000A7F85830B6F85E39A7F85A30B4F8543927
:100C0000013BA4F8543994F86E29614BE2B1D3F852
:100C10006019D3F844093226002291FBF6F183F8DB
:100C20006E290180D3F8641991FBF6F14180D3F865
:100C3000683993FBF6F66B88F61A8680A7F8582079
:100C4000A7F85A200EF02EFAD4F84439B4F83C191B
:100C50001A888A1AA4F83C295A88B4F83E198A1AC4
:100C6000A4F83E299B88B4F84029D31AA4F8403947
:100C700007F073F9D4F87039474AD4F87879C4F892
:100C80007009C31A0AEE103A134693ED006A3E78D3
:100C9000B8EE4A9A002329EE066A083219460DF189
:100CA000340E0EEB430038F903E0DFF8FCA007EE4A
:100CB00090EAF8EEE77A67EE867AC0ED007AE6B160
:100CC00005EE906AB8EEE57AF7EE006A86EE877A6E
:100CD00039F9030007EE900AF8EEE77A67EE877AB3
:100CE00036EEC77AD2ED006AE6EE877AC2ED007A78
:100CF000FDEEE77A17EE900A01E039F803002AF8D2
:100D000003003AF803000233062B10FB001102F136
:100D10000402C4D16B882148642671435B4391FB74
:100D2000F3F6493EB6B20DA908F0E2FE3B2E97ED70
:100D3000017A1A4E12D9B4F99C19D6ED020A144B55
:100D400094F89D2107EE901AF8EEE77AF4EEE70AA0
:100D5000F1EE10FA2ADD42F0080229E0F7EE007AFF
:100D600037EE276A324687EE866A00233AF903E0B7
:100D70000233062B07EE90EAD2ED006AF8EEE77A2E
:100D8000E6EE877A67EE866AE2EC016AEED1D2E798
:100D9000A0050020C8160020140F0020300F0020EE
:100DA000E80E0020000F0020280F002022F008028B
:100DB00096ED010A83F89D2112F0F8FFDFF86893A1
:100DC00096ED027AD6ED017A89ED000AF0EE408ABE
:100DD00027EE070A96ED008ADFEDC79AA7EEA70A6D
:100DE00012F0E6FFB1EE488AF0EE400AB0EE480A93
:100DF00012F0DCFFB0EE408A89ED010A28EEA90A64
:100E000012F0D4FE28EE290AA4F8A80912F0CEFEAA
:100E1000D4F8A031A4F8AA091E071ED509F10C00C8
:100E20000DA908F065FE97ED027AF7EE007A37EE2D
:100E3000276A09F10C0387EE866A09F11809D3EDD8
:100E4000006ADFEDAE7AE6EE877A67EE866AE3EC5B
:100E5000016A4B45F3D1AA482AE0AA4E0DA9301DDC
:100E600008F046FE95ED020A95ED017AD5ED037A7C
:100E700020EE000AA7EE070AA7EEA70A12F098FFD5
:100E8000B5EE400AF1EE10FA11D096ED017A87EE38
:100E9000007A86ED017A96ED027A87EE007A86ED89
:100EA000027A96ED037AC7EE007AC6ED037A964889
:100EB00008F064FDA4F8B809B4F9B809DFED937A35
:100EC0009FED937AB4F98819B4F98A29B4F98C3969
:100ED000904E29EE279A07EE900AF8EEE77AF1EEA7
:100EE000688A67EEC77AB1EE488ACDED127A07EECE
:100EF000901AF8EEE77A13A8CDED137A07EE902A50
:100F0000F8EEE77A10A9CDED147A07EE903AF8EEF4
:100F1000E77ACDED108ACDED157A8DED118A08F0C6
:100F2000E7FD7B78DDED157A012B1FD17A4B1B781D
:100F3000580711D4D6F8BC39402293FBF2F29A1A22
:100F400007EE102AB8EEC77A37EE277ABDEEC77AD9
:100F500017EE100AC6F8BC09D4F8BC39402293FB3E
:100F6000F2F305EE903AB8EEE57A04E0688807EE11
:100F7000100AB8EEC77A694B9DED130A93ED008A0B
:100F8000D4F8C87977EEC77ACDED157AD3ED017A2A
:100F900079EE277A89EE279ADDED157A77EEC87A11
:100FA000A9EE278A83ED008A12F000FED4F8D469F6
:100FB000317808F069FC9DED140A3844C4F8C8097A
:100FC000D4F8CC7912F0F2FD317808F05DFCB0EE87
:100FD000480A3844C4F8CC09D4F8D07912F0E6FDB8
:100FE000717808F051FC4E4B1AEE101A1A680A4438
:100FF0001A60D4F8D83938440133C4F8D009C4F899
:10100000D83905E0A6F83C39A6F83E39A6F84039AB
:1010100006F0A3FF404FD4F8DC393978CBF8000054
:10102000C31A9BB249073B4AA4F8E039C4F8DC096B
:1010300017D5B2F8E219994238BFA2F8E239B4F8EC
:10104000E219344A0A20B1FBF0F0A4F8E4094FF6A3
:101050009440814205D90121A2F8E6190021A2F8A5
:10106000E21905EE903ADFED297A2A4AD4F8D098B1
:10107000F8EE658A02F6EC1328EEA78A83ED008A63
:1010800099F8523053B906F068FF94F8B831214E00
:10109000C4F8F009002B00F0A98047E002F6F41331
:1010A00093ED007AB5EE407AF1EE10FA9A4609D146
:1010B000D2F8CC2807EE102AB8EE477A67EE277AE6
:1010C000C3ED007A002638F9060099F85210DAEDDF
:1010D000000A00EE100A1348B8EEC00A00EB8600C2
:1010E00008F094FABDEEC00A10EE103A28F8063067
:1010F0000236062EE7D1C6E74C3D0F440000000043
:101100004C0F00200000002004000020BD37863571
:1011100035FA8E3CA0050020DB160020600F002071
:10112000D4160020980F0020400F00200121B0EEBF
:10113000680A06F61420F0EE480AB6F8108A08F09D
:1011400065FABCEEC00A96F8683110EE101A89B242
:10115000B8FBF1F101F1010C1FFA8CFCA6F81CCAD6
:101160001BB3B6F81EAA00239E4A02F5226002F6BF
:10117000442E1E5A33F80E8002F64C2018FB0AF853
:1011800033F800901E520FFA8CFBC9EB060998FB4E
:10119000FBF8C84423F80E800233082BE4D1002367
:1011A00082F86831A2F81E1A04E0B6F81E3A013B34
:1011B000A6F81E3AB4F81E1A8A4A0BB2002B4FF05A
:1011C000000311DDB2F91CEA874A9E5AA2F12400FD
:1011D000083216FB01F69A5A96FBFEF6921B1A523B
:1011E0000233082BF0D101E0A2F81E3A06F0B5FE5A
:1011F0003A787C4BC4F8540A520708D5D3F8F02942
:10120000D3F8581A821A8A4288BFC3F8582AD4F8E9
:10121000F039744EC01AD4F8583AA4F8EA39A4F850
:10122000E80901F0DFFFD4F85C3A13F4801300F012
:101230009A80B6F8603A1B0600F1F6803B7803F01E
:10124000040303F0FF09002B7AD096F8623A13B139
:1012500096F8633A3BB1654B00221A6001232B7468
:10126000002384F8633A2B7CDFF87881D4F8D068C7
:1012700084F8623A032B06D1304608F668215422DE
:1012800012F07BFA55E0012B07D108F668203146B1
:10129000542212F072FA002302E0022B02D1012341
:1012A00088F8BC3A012384F8BD3A84F8BE3A504B22
:1012B000C4F8C86A00221A605A6032784D4984F82E
:1012C000CC2A94F8BC2A0A44B2EE047A92F8781236
:1012D000494A43F85C2C0E4484F8CD1A717896F88C
:1012E000158007EE901AF8EEE77A03F11002C7EEC8
:1012F000877A9FED427AC3ED047AF37A07EE903A4B
:10130000F8EEE77AC7EE877A9FED3D7AC2ED017A73
:1013100007EE908AF8EEE77A67EE877AC2ED027AF6
:10132000FCEEE77A17EE903A73750023F3720AF039
:10133000FDFF802006F0BAFF012384F8DC3A73E059
:1013400006F66428D8ED007AF5EE407AF1EE10FA50
:101350006AD00DF0A7FE0023C8F80030012386F8FC
:10136000629A2B7460E0B6F8602A100652D596F89F
:10137000622A511E01292ED8D6F8C83A96F8CD2AED
:10138000DFED1E7A93F801E006F52D6696ED017A01
:1013900067EE277A1A44FCEEE77A17EE901AD172BC
:1013A00096ED027ADFED177A67EE277AFCEEE77AA0
:1013B00017EE901A07EE90EAF8EEE77A517577EE9D
:1013C000A77AFCEEE77A17EE902ADA70DA7A5A7387
:1013D0005A7DDA7518E0032A16D186F8623A01239D
:1013E00014E000BFA0050020E40F0020041000203E
:1013F000601000202C5101080000A04100007A4438
:101400005555553F9A99993F2B7C013380202B7479
:1014100006F05CFF3B78590706D494F8DC3A1BB120
:10142000BC4B012283F8632A6B7CB3B1B4F9262A42
:10143000B4F842339A4210DCB64B93F8AD31012B2D
:1014400001D0192B02D194F8842332B90E2B04D089
:10145000082B1CBF0023A4F8E23AD4F8D098AD4D75
:1014600099F81861002E45D0B5F8603A9A0741D036
:1014700005F5196393ED010AD3ED007A93ED028A25
:10148000B5F8E48A20EE000AA7EEA70AA8EE080A3B
:1014900012F08EFC88EE000ADFED9F7AB4EEE70AC8
:1014A000F1EE10FA22D912F023FC05F6E825D5ED6D
:1014B000007A20EE270A12F079FBB0F5617FA8BF11
:1014C0004FF4617005EE900ADFED947AB8EEE50A0C
:1014D00080EE270A08F0E7F906EE906AF8EEE67A61
:1014E00027EE800A12F062FB80B200E00020404448
:1014F000A4F8E40AD4F8A031864D9B0640F182801E
:10150000B5F8603A03F03003002B7BD095F89D319D
:10151000DE0777D5B5F9B809DFED817A814E08EE9F
:10152000100AB8EEC88A28EE278AB0EE480A08F0FA
:10153000BAF9F0EE408AB0EE480A08F017FAD5F88A
:10154000EC3AB5F9F60A93F80380B0EE409AB2EEA1
:10155000048AB8F1000F35D0B5F8F23A1FFA83FAD1
:101560001BB2C01A08F042FDC8F10005A84203DB17
:101570004045A8BF404600E02846B4F8F03A82440F
:10158000B4F9F40A1FFA83FB1BB21FFA8AFAC01AD5
:10159000A4F8F2AA08F02AFDA84203DB4045B4BF34
:1015A000054645465D44ADB2A4F8F05A0FFA8AFAF2
:1015B0002DB205EE90AA07EE905AB8EEE57AF8EE55
:1015C000E76A09E0B5F9F45A05EE900A06EE905A7A
:1015D000B8EEE57AF8EEE66A68EEE67AE7EE097AC2
:1015E00026EE899AC7EE887AA7EE289AFDEEE77A6A
:1015F00089EE089A17EE903ABDEEC99A338019EE3B
:10160000103A7380434DB4F8162305F23233009339
:10161000454BD4F8F81A1E68484609F15803B047FC
:1016200094F8FC1A032916D9D5F8003B5A88B2F56C
:10163000FA7F10D2B5F9080BB5F9E25A5342002DE2
:10164000B8BF6D425B1B984203DB53198342A8BFAE
:101650000346A4F8083BB4F8E40AB4F8065BB4F80F
:10166000046BD4F800EBB4F908CB304B00228A426B
:1016700003F1100335D29EF90180C8F100080CFB7C
:1016800008F807EE108A0FFA86F806EE108A0FFAAD
:1016900080F805EE908A0FFA85F807EE908AF8EE4A
:1016A000C76AF8EEE77A13ED027ADFF8848067EE16
:1016B000877AF8EEE55A13ED047AE5EE877AB8EE0C
:1016C000C66A13ED037AE6EE077A13ED017AE6EEC9
:1016D000877AFDEEE77A17EE909A28F81290013299
:1016E000C5E73A7802F0040202F0FF03002A00F096
:1016F000838094F8E99BB4F8CC5B01238B420C48BF
:101700002EB217D230F91350B542B8BF3546ADB23C
:101710000133F3E7A00500208FC2753CEFB6B0445B
:1017200035FA8E3CD016002018000020AC100020A6
:101730006C110020D4F8EC2BD4F8F07B5388D4F84B
:10174000F4EB9E42C8BFC3EB0505A368B4F9266A53
:1017500003F4805A03F0100BD4F8003B0993BC4B00
:10176000CCBFADB2002500EB410843453BD0198802
:10177000491B89B223F8021B09B2BAF1000F0AD043
:10178000F8898642C7BFBEF80200B2F802C090884E
:10179000BEF800C005E0B2F802C0B9F1000F09D0F0
:1017A0009088814203DB6145B4BF0846604623F858
:1017B000020CDAE71088814203DB6145B4BF0846BA
:1017C000604623F8020C398A8E42CEDABBF1000F54
:1017D00001D0918804E0099801780029C5D11188C9
:1017E00023F8021CC1E794F8F82B9A4B013AD2B2C5
:1017F000182A00F250810AE08B42F4D2944A02F196
:101800002E0030F8130022F813000133F4E7012111
:101810009140914A0A40002A00F03D81B3F8602AC5
:10182000D0050CD5B3F8DE2AADF84C20B3F8E02A89
:10183000B3F8E23AADF84E20ADF8503018E0B3F806
:10184000042B9968ADF84C20B3F8062BADF84E2068
:10185000C904B3F8082BADF8502009D5B3F9261AFE
:10186000D3F8F03BDB899942BCBF5242ADF850201F
:10187000B4F9AA194FF47A7201F5E16151434FF4BA
:10188000616391FBF3F1A1F5FA71ADF86410B4F95D
:10189000A81901F5E1614A4392FBF3F3A3F5FA734A
:1018A000ADF86630B4F8CC3BB4F8202AA3F2DC5390
:1018B000ADF85230D4F8F03BDB89D21AADF85420A1
:1018C000B4F8222AD21AADF85620B4F8242AD21A33
:1018D000ADF85820B4F8262AD21AADF85A20B4F838
:1018E000282AD21AADF85C20B4F82A2AD21AADF808
:1018F0005E20B4F82C2AD21AADF86020B4F82E2A53
:10190000D31AADF862300022524B03F61240002188
:1019100011520232102AF7D1D3F85C2AD3F8244CA2
:1019200093F8223C09925B000B930A940B460B9EA2
:101930004848B34200F0948000F628446218957934
:1019400035B10126153506FA05F5099E354078D0E2
:10195000675C0A9892F904B092F8019092F803C07B
:1019600092F805A0C7EBC70600EB46064FEA490E02
:10197000B6F90000B6F902502D1AADB2642005FB8D
:101980000BFB9BFBF0FB4FEA5508C8EB0B0B1FFA58
:101990008BFB32481AACBCF1000F03D1744434F80D
:1019A0001C4C0CE0A644C45E3EF91CEC744508DAFD
:1019B000A444A44503DBE645B4BF74466446C45260
:1019C0000AE009DDCCEB040CF44503DBA445B4BF0D
:1019D000E646A64620F803E04FF0010ED6F80A606E
:1019E0001C4892F902200EFA09F919EA060F0CBFF9
:1019F00076464FF0FF3600F6984E7F0033F80EE043
:101A000012FB0EF24FF0640EC41992FBFEF20FFAB5
:101A10008BFB5A45B4F8124CB6B20CDB4FFA8AFB7A
:101A200005FB0BFB9BFBFEFBC8EB0B0B0FFA8BFBC9
:101A30009345A8BF934607440BFB064BA7F812BC7F
:101A400002E000F698401D52023307316FE700BFF5
:101A50006C110020A0050020992098013812002068
:101A60000024D0F8248C25460E2202FB0582A34ECA
:101A700092F90670A35B17FB03F7642397FBF3F758
:101A8000A753E8B207F058FD01353844082DA0539C
:101A900004F10204E8D19A4DAE6816F020082F46F2
:101AA00034D0002007F048FDA5F8120C04460120B0
:101AB00007F042FDD5F85C3AA5F8140C1B0625D5B5
:101AC000D5F8B83CB5F8A8291B78012B22D1D5F858
:101AD000243CB5F9AAE993F9141093F9063011FBE7
:101AE00002F25B4232210EFB03F392FBF1F26FF044
:101AF000310E92B293FBFEFE964493FBF1F17444D7
:101B00000A44A5F8124C1044A5F8140CD5F824ACDE
:101B1000002319E0D5F8241CB5F8AA3991F906E09C
:101B200091F914101EFB03FE32239EFBF3FE11FB02
:101B300002F2744492FBF3F3A5F8124C1844E3E765
:101B4000D1520233102B10D0C3EBC3046B4A544460
:101B5000985EB4F90010B4F9024088429146EFDB78
:101B600021B28842B8BF0146EAE7654BD3F800BB13
:101B70009BF90830A3B995F8F8AB0AF1FF33182B9D
:101B80006FD8DFE803F02F6E6E4C6E6E6E436E6E94
:101B90006E6E6E586E6E6E6E6E4C636E6E582F006B
:101BA0000024584BBBF9062039F90410442000FBEF
:101BB000043007F074FBC4EBC40280B229F80400BF
:101BC000524400B2B2F90030B2F90220984203DB6D
:101BD00013B29842B8BF034629F804300234102CDF
:101BE000DFD1C8E79BF804301BB10020B5F81C1CFE
:101BF00008E0454B1B7803F0040303F0FF00002BC3
:101C0000F3D1014608F062FA01242BE00020B5F878
:101C1000181C08F05BFA0120B5F81A1C07E0002038
:101C2000B5F81A1C08F052FAB5F81C1C012008F08F
:101C30004DFA0224B4E1002409EB4403E0B2998890
:101C4000013408F043FA062CF6D10BE0002409EB2E
:101C50004403E0B2D988013408F038FA042CF6D1F4
:101C60009EE10024B8F1000F02D1BAF1050F0CD1AA
:101C70002046B5F8121C08F029FA601CC0B2B5F86D
:101C8000141C08F023FA0234E4B2F00208D41F4C0A
:101C90001F4EA26833689A1A002AA0460DDA6AE13C
:101CA00000261C4B03EB4603A019C0B2198908F0AB
:101CB0000DFA0D2EEBD00136F3E703F58273A36026
:101CC000237B0BB10AF0DEFA134B1B78002B40F09C
:101CD0005281AA68110340F14E81617B02390829C3
:101CE00000F24981DFE811F01A004400610075003C
:101CF0008C009D0013012C01380100BFB21100209F
:101D0000A005002060120020DB160020981600209D
:101D1000CC160020C00F0020DA160020A34B1A6852
:101D2000636964339A4240F226810025A04BA14AA0
:101D30001B789D420DDAD8F810309F4E134493F86B
:101D40007A0230B106F0E8FB3369013301353361C3
:101D5000ECE72169984B0A4492F87A22002A40F075
:101D60000A811A614FF0FF325A6103225A7302E16D
:101D700021230093914B019303F10C02029249201D
:101D8000A3F10A025021023306F07CFF002840F044
:101D9000F280AB6813F080024FF0FF3303D0636131
:101DA00020610423E1E0226127E002228DE80C009B
:101DB000834A02934820002102F1080306F062FFE3
:101DC000002840F0D8804FF0FF3363612061052385
:101DD000CBE0072300937B4B019303F10C020292AB
:101DE0004720A3F108020021043306F04BFF00282E
:101DF00040F0C18020614FF0FF3363610623B4E0FF
:101E000003228DE80C00704A02935320002102F156
:101E1000080306F037FF002840F0AD80206107235B
:101E2000A3E02169644B11B9596101211961604B2B
:101E30001E7863691E44402EA8BF4026132E66619B
:101E400040F399805C4B1B690D2B00F2A480DFE806
:101E500003F05A070B0E12182125292D31404A4F45
:101E60005A4806F09FFB4CE059485A493DE05A4811
:101E70005A495B4A43E05B4895F8B21895F8B32895
:101E80003DE095F88C3858480C2202FB037797F810
:101E90008E182AE05548B5F8EC1226E05448B5F8FB
:101EA000EE1222E0534B544819691EE0534B54483C
:101EB00059881AE0A369404FDB0407D5514895F8CB
:101EC00024130AF0DBF8301A78611CE00C233B6124
:101ED00019E095F8281395F8292395F827334A48EF
:101EE0000AF0CCF80DE04948A18B0AF0C7F808E0E9
:101EF000170508D54648B5F82C13B5F92A230AF07A
:101F0000BDF8301A606123690133236133E0D5F8ED
:101F10005C3A980111D5E38B274D73B92B6A139363
:101F20000E203368149313A906F04CFB4FF4805332
:101F3000AB8409236B730DF0BFF807F0BFFE1AE006
:101F400094F82630002BF6D0D5F85C3A9901F2D4FB
:101F5000194B08225A73F0E7144B1A686369C833A7
:101F60009A4204D90EF0FAFB0123637303E006F0F2
:101F700042FA0028F6D1274B1B78002B7EF439A9B2
:101F8000254B9A6852057EF534A9B3F8FA0204F09D
:101F90004DFAFEF72EB94FF48053A3840923E4E7EA
:101FA000B8F1000F3FF471AE62E600BF00410020BF
:101FB000140000202C51010898160020125401082A
:101FC00094550108AC550108F8550108B0620108A4
:101FD000CD620108C47A0108E5620108FC620108CB
:101FE00008630108116301082563010832630108D1
:101FF00044630108580E00205663010800000020C9
:10200000696301087663010886630108A263010819
:10201000B0630108DA160020A00500202DE9F04F7A
:102020002DED028BC14CC24B236091B00023636045
:1020300006F0B0FE18B90AF0DBFE06F0CFFEDFF8BE
:1020400058A3BC4FBC4DDFF84893DFF850830EF027
:10205000BBF99AF8003043F001038AF8003007F02A
:10206000D3FDB64BFB606B6FA360B54BBB606B6B76
:10207000B44823F080036B636B6F43F080736B672E
:102080002B6B43F03F0310AE2B6303238DF82630F8
:1020900041F6FF7326F81C3D314609F0B1F84FF6C2
:1020A000FF73A948ADF82430314609F0A9F8A748D4
:1020B000314609F0A5F8DFF8E8C2CDF810C0604657
:1020C000314609F09DF8A248314609F099F83146A9
:1020D000A04809F095F8304608F0FAFF099B9E4A9F
:1020E000B3FBF2F3E3609D4B9D4A4FF0000BC3F846
:1020F00000B09C4B5A60F02287F823200722C3F8D7
:1021000008B0994F1A60D9F80830C8F8003097E83D
:102110000F0086E80F002B6BDDF810C0099843F024
:1021200008032B632B6B43F008032B634FF48043AE
:10213000ACF818304FF40043ACF818300AA909F095
:102140005FF80CA90B9809F05BF8642006F0D9F849
:1021500086485946A02211F019FB2B6C43F013035B
:102160002B646B6C43F001136B64814BBA4603F133
:10217000C0009A7ADF7A53F8105B02F00701D208A8
:1021800005EB82028900156A4FF00F0E8F400EFAA0
:1021900001F125EA01011162156A834247EA05014E
:1021A0001162E6D10023614F07F11002002199541A
:1021B00001330C2BF7D1FF236E4A3B777B77BB773C
:1021C000FB776D4B13606D4D6D4A042010702846EF
:1021D0003022039311F0DAFA14222A7002222A76AE
:1021E0000522039B85F82420664A99F805B082F8F9
:1021F00000B0A3F5EA72A3F58A737B62624BD8F84C
:1022000000503A6203EBCB035B78BB62AB0644BF82
:102210000123BB6200235D4A40F2DC519952023334
:10222000102BF8D1304600211C2211F0AFFABBF17F
:102230000E0F04D00BF0EF0BBBF1080F02D10123FE
:102240008DF83630052005F0AFFD18B1408800301C
:1022500018BF0120C5F340038DF82B30C5F3801360
:102260008DF82D30C5F340338DF82430C5F3C033DD
:1022700000F001008DF8273015F400638DF82A0076
:1022800007D099F88631B3F1010EDEF1000353EB6C
:102290000E038DF82830C5F300438DF82E30A36A65
:1022A000B9F84801ADF83A00003318BF01238DF8A2
:1022B0002F30C5F300538DF83030B9F84A31ADF8FE
:1022C0003430B9F85631ADF83230C5F3804305F0FB
:1022D0000101C5F3C0028DF82C30EF04B9F8543178
:1022E0008DF825108DF82620ADF8383004D5284813
:1022F000B0F85001ADF83A00B3F5FA7F84BF00237F
:10230000ADF83A30234899F8CE3184F82C300023C8
:1023100084F82D3043709DF83630002B14BF022313
:10232000002300293ED1002A3DD03BE0DC160020EE
:102330000D85000800ED00E0003802400005FA05B8
:1023400000000008000002400004024000080240B3
:10235000001002400014024040420F0004410020DF
:102360003F90020010E000E02C6E01084C3F00207E
:10237000147501088C1A002030090020FC1B002075
:10238000FB1B002098110020D0750108B21100201D
:10239000480700200917002008410020A805002058
:1023A000000C024001330AEB830300271B690593ED
:1023B000BA46059BDA5B4FF6FF739A4200F0ED8058
:1023C000130A022B02D19DF8241003E0012B04D143
:1023D0009DF82510002900F0DC80D2B2BB4D9DF89D
:1023E00030104FEA021C654431B19DF8361019B91E
:1023F000043A032A40F2B680012B3CD1FF23002689
:1024000084F8743084F875306B7B2A89686884F8A6
:102410007860C4F884508DF81A3006A902238DF82C
:102420001B3084F830606663A663E663266784F831
:10243000766084F87760ADF81820CDF810C008F009
:10244000DFFEDDF810C0A149324651F80C00A97A30
:1024500008F064FC284609F0C1FF9D4B9D49C4F873
:1024600088309D4BC4F88C30C4F8906028460A1D13
:102470000AF092F98DE0022B3AD198498DF81B3081
:102480005FFA8AF21C2042438E184FF0000B0120A5
:1024900086F801A086F802B086F80AB08854298927
:1024A0006A7B6868F560ADF8181006A98DF81A20E7
:1024B000CDF810C008F0A4FEDDF810C0834AA97A58
:1024C00052F80C005A4608F029FC284609F086FF0D
:1024D000834B3361834B7361C6F818B0284606F10D
:1024E000100106F114020AF057F90AF1010A50E04E
:1024F000032B35D19DF82C303BB194F82E60284643
:1025000008214FF6FF7200231CE0BDF8382094F834
:102510002E60BDF83A30B2F5FA7F0DD97249B1FBA1
:10252000F2F22846082192B20EF078FE04EB8606FD
:102530006E4BC6F858010CE06D49B1FBF2F228462B
:10254000012192B20EF06AFE04EB8606694BC6F8D2
:102550005801C36094F82E30013384F82E3018E00F
:10256000042B16D1BDF83230614A94F82D6092FBED
:10257000F3F22846BDF83430012192B20EF04EFE3F
:1025800094F82D3004EB86060133C6F8880184F8F0
:102590002D300237182F7FF40CAF94F82D3084F8CB
:1025A000A831554B554F1D78A5F117030026022B76
:1025B0003E7018D8236A3344D3ED007AF5EE407AA2
:1025C000F1EE10FA02D1A36A53BB24E04C4A06EBA9
:1025D000020E0FCB8EE80F003B7810360133C02E71
:1025E0003B70E7D1EFE7474B13F835C087F800C0E1
:1025F00003EBC503D3F804A0BAF1000FE3D066459E
:10260000E1DA3F4A330103EB020E53440FCB0136AC
:102610008EE80F00F3E7D8F80030DE0426D41FE080
:10262000394B3A4A03EBC5035E6A93F820001070F9
:10263000002EF0D000238342EDDAC3EBC301721801
:10264000DFF8D4C0D2F800A041F80CA001EB0C0ECA
:102650009188AEF8041092798EF806200133EAE7EB
:1026600005F0EF03082B2A4F1FD120E0397801290C
:10267000F6D9284B00228A4203F11003F0DA13ED59
:10268000047AF6EE007A27EE277A013203ED047A17
:1026900013ED057A27EE277A03ED057A13ED037A19
:1026A00067EE277A43ED037AE5E70E2D08D13B78F4
:1026B00043F010033B70182D30D106F017FF2DE0CA
:1026C0003B7823F010033B70192DF5E710750108D6
:1026D00049910008641700204D920008541700200B
:1026E00039AE00082592000800127A006D920008A9
:1026F00040420F005D920008981100209C100020BD
:10270000AC100020D07501082C6E0108C211002009
:102710003D070020B4100020C811002008F046F842
:10272000D8F800305D0302D4B34B01221A70B349CC
:102730000B7843F004030B700CF04AFC0CF0B2FB76
:10274000B9F85C21AE4B4AB9B3F95E1141B9B3F99E
:102750006031D3F1010338BF002302E0002300E021
:10276000134613F0010324D112B207EE102ADFED55
:10277000A57AB9F95E21A449B8EEC77A0B7027EEA5
:10278000277AB9F960318DED067A07EE102AB8EE96
:10279000C77A06A827EE277A9C498DED077A07EEBF
:1027A000103AB8EEC77A67EE277ACDED087A07F0CF
:1027B00041F9974D97482B68B9F86461B3F85630E2
:1027C000059300210C2299F863B1B9F80C8099F8AF
:1027D0000F9010F0DBFF002114228F4810F0D6FF7D
:1027E0008E4A94F8D0310021117092462BB9049191
:1027F000039306F00BFA039B0499A4F8D2110BB9CA
:1028000007F00EFFB6F5807F0ED0BB2E0ED8612EDE
:102810000ED8292E0ED8132E0ED8092E0ED8002E23
:102820000CBF002106210AE0002108E0012106E09A
:10283000022104E0032102E0042100E00521784B9D
:10284000784D1A8822F040021204120C1A801A885D
:1028500022F038021204120C42F030021A801A8858
:1028600092B242F040021A801A2007F0C9FE0120FD
:1028700005F03CFD06A805F0FDFF9DF91A30013377
:1028800003D19DF91830013303D0B4F8D2319BB293
:1028900033B100230320A4F8D23105F03CFDDEE083
:1028A0005D4B614A1A60614A5A60614ADA6064208D
:1028B000604A1A61039305F024FD04225E498AF8F8
:1028C000002006220A705D4A106840F00100106086
:1028D0005A46092A8B4600F255840121914040F264
:1028E00002330B40002B40F0468411F0FD0F00F046
:1028F0004284534A137095F8D0311BB9039306F004
:1029000085F9039B0022A5F8D2210BB907F088FEB8
:10291000404B4C4A1A6064204B4A5A6005F0F1FC67
:10292000474B04221A7007238BF80130434B1A6877
:1029300042F002021A60414B1A6812F0020F9B46E5
:1029400002D0344B1B689847404AB9F1000F1AD0A7
:10295000F6B2002E14BF4FF47A737D23984505DB41
:10296000B8F57A6FA8BF4FF47A6800E09846591E10
:102970008844B8FBF3F10139C9B201FB033385F890
:10298000D411136003E085F8D491C2F80080224985
:102990000B6898472E4900230B70194B93F8582168
:1029A0000AB18AF8002093F859210AB1244802702C
:1029B00093F85A3103B10B70DBF8003018074BD590
:1029C000059B1AB2642392FBF3F103FB11231BB2A4
:1029D00007EE103AF8EEC76A07EE101AF8EEC77A5B
:1029E0009FED1C7AE6EE877AB2EE047A67EE877A7C
:1029F000C5ED767A33E000BFA41600200841002020
:102A00004807002035FA8E3C1C0000208818002062
:102A1000700E0020D00E0020580E00207A0E0020EC
:102A200000380040DC1600209D92000875880008E0
:102A3000DDA5000890C1793D1D0000204007002061
:102A4000C81600208D920008DD8800086C0E00205A
:102A50001C1900208988883C0023C5F8D831C24958
:102A60000B7843F002030B70C04B4FF400425A83C3
:102A70004FF480421A834FF00A08BC4E736983F406
:102A800000437361736983F480437361192005F017
:102A900038FC08F1FF38192005F033FC18F0FF0866
:102AA000EBD14FF4804333834FF400433383B04B77
:102AB0009FEDB08A1B68B04E1B7B00EE103AB8EE5B
:102AC000C00A20EE080A06F051FF328807EE902A6D
:102AD000F8EEE77A27EE800A11F068F836889FED65
:102AE000A77AA74B07EE906AF8EEE77A1880C7EE50
:102AF000277AA44BFF211A229FEDA37AC7EE877A8B
:102B0000C4ED777AD3ED047AA04CA14B27EE888AE6
:102B1000DFEDA07A28EE278A204683ED008A10F0A8
:102B200035FE9D4A9D4B126884F80080012112F009
:102B3000020F1970204604D0617003211970022120
:102B4000A170510704D519784C1C1C7003244454FF
:102B500012F00A0F0CD01A7804218154511CC9B20A
:102B600005244454D11C0232D2B21970062181547A
:102B70008B4C2268960604D519784E1C1E700726C9
:102B80004654110608D51978092646548E1C013181
:102B9000C9B21E700A264654824E7179082901D0A6
:102BA0000E2909D193F800E00EF1010C83F800C062
:102BB0004FF00B0C00F80EC093F800E00EF1010C82
:102BC0005FFA8CFC4FF00C0812F0040F83F800C081
:102BD00000F80E800BD0DFF8C4810EF1020E88F8E9
:102BE00000E0DFF8A8E14FF010080EF80C8093F831
:102BF00000E00EF1010C5FFA8CFC4FF0120812F4A9
:102C0000806F83F800C000F80E8010D096F80C8218
:102C1000B8F1000F0BD0DFF884810EF1020E88F8B6
:102C200000E0DFF868E14FF013080EF80C8093F82D
:102C300000E00EF1010C5FFA8CFC4FF0140812F466
:102C4000007F83F800C000F80E800BD0DFF84C81C5
:102C50000EF1020E88F800E0DFF830E14FF01508C1
:102C60000EF80C80182917D193F800E04FF0160CDD
:102C700000F80EC00EF1010C5FFA8CFC4FF0170843
:102C800000F80C800EF1030C0EF1020E5FFA8EFEBE
:102C900083F800C000F80E10120304D51A78511CF6
:102CA000197019238354002198223F4810F06EFDBB
:102CB0000DF016FD3D493E4AC5F8E02100234B804A
:102CC0000B713C490A60B6F8982190B23A495852C3
:102CD0000233242BFAD123681B0740F1008196F8B8
:102CE0009231062B00F2F580DFE803F004070E783E
:102CF00093B3B30045F2F05201E042F6F8222F4BB5
:102D00001A800DF077FDE3E007EE102ADFED2C7A54
:102D10002A4BF8EEC76A9FED2B7AE6EE877A42F6E9
:102D2000F82119800023FCEEE77A274A17EE901A63
:102D300099500433482BF8D1244BC5F8E431244B87
:102D4000122240201A7005F06DF8002800F0C180B2
:102D500001234FF0070890F900001E4A8DE8080192
:102D600040211D4BAFE000BF08410020000C024095
:102D7000180F002035FA8E3C020000200AE81C41A2
:102D80003C0F0020580E002000401C46991B0020DC
:102D9000140F0020BD37863540070020981B002007
:102DA000A805002048070020F01900208411002009
:102DB000D2080020AC050020C00F0020B00F00207A
:102DC0000000B0C4CDCCCC3F00060020BD7C000884
:102DD000B31B002069810008A0860100684B42F601
:102DE000F8221A80674BC5F8E431674B1022402067
:102DF0001A7005F017F800286BD001234FF0000C73
:102E000090F90000614A8DE8081040214FF4E13349
:102E100059E05B4B42F6F8221A805D4BC5F8E4316D
:102E2000594B082240201A7004F0FCFF002850D0B3
:102E300001234FF0000E90F90000564A8DE808403B
:102E400040214FF4E1330EF023FB534BC3F8E8016C
:102E50003BE04B4A514842F6F82111804A490C2286
:102E6000062B0A7010D00023037085F8EC3185F82A
:102E7000ED311B2385F8EE31052385F8EF2185F828
:102E8000F0314FF4E1380EE00021017085F8EC11CB
:102E900085F8ED11DFF8208185F8EF21212185F8F3
:102EA000EE1185F8F0313E4BC5F8E431402004F0D6
:102EB000B9FF70B1012100233A4A90F900008DE872
:102EC0000A00402143460EF0E3FA003018BF01200B
:102ED00028B9082006F090FE0023C5F8E4312368E5
:102EE000294A13F4804F04D0082111702E49C5F8E7
:102EF000E41142F20101194003F0010003F4005E05
:102F000079B11F4944F6206CA1F800C02749C5F8E3
:102F1000E411BEF1000F01D00821117008B10C219D
:102F200011701178043951701A0640F18480DFF86D
:102F30008C80DFF88CA01E48DFF888B0C5F8F4A1BB
:102F40004FF000094946152288F80190C8F804900E
:102F5000C8F8089010F01AFCAAF105034846CBF80F
:102F6000003009F00BFC134B02201B68C8F80C3032
:102F700004F058FF434638BB802006F03DFE52E087
:102F8000B00F0020AD7C0008B31B0020F5800008C6
:102F9000997C0008A9800008DC16002000070020AA
:102FA000597C0008917F0008ED7C0008F97C00083E
:102FB000D41800200041002090D003001407002006
:102FC000300900203407002090F805E05A786F4956
:102FD0004FF00C0C0CFB021C9CF801C0F44504D013
:102FE0000132D2B2042AF2D900225A70DBF8002052
:102FF0005B78127890F9000012F0FD0F4FF00C0E84
:103000000CBF012203220EFB0311009200224B7819
:10301000019202210EF03CFA5D4B18600028ABD003
:10302000012009F0ABFB5B4A5B4B106800F5C572F1
:103030001A6006F079FF23685B055BD5574BD5F81E
:103040001092C3F80090042004F0ECFE0421C5F8AF
:10305000140204F0BDFE524B85F818020820C3F894
:10306000009004F0DFFE0821C5F81C0204F0B0FE59
:10307000DFF8688185F82002002140462C2210F0FC
:1030800085FB8E2388F801304FF07C0BE0234FF056
:103090007D0A88F8033088F800B088F82BA0DFF8A4
:1030A00040812C220021404610F070FB8A2388F8D2
:1030B00001301020A02388F8033088F800B088F889
:1030C0002BA0C5F8249204F0ADFE1021C5F828020B
:1030D00004F07EFE85F82C022020C5F8309204F022
:1030E000A1FE2021C5F8340204F072FE85F83802F2
:1030F0000DF05CFD23682B4A13F4002318BF012355
:10310000137004F02AFF284B18607379052B03D144
:10311000264B4FF4C8721A80254B4FF47A721A80EE
:103120003B7843F008033B70224B1A7822F00202EE
:103130001A70226840F6020313406BB11E4B1F4AFF
:103140001A601F4B03221A701E4B01221A701E4A6E
:10315000002313801D4A1380B36823601C4B012297
:103160001A701C4B1A7862F07F021A7011B0BDEC15
:10317000028BBDE8F08F012A04D8174B00221A7089
:10318000FFF7D9BB0022FFF7A8BB00BF4C510108D5
:1031900010070020700E00208C100020401C002022
:1031A000941C0020A51600207C0F0020E20E0020B9
:1031B000D8160020DB160020381C0020C408002090
:1031C000981C0020220000206A1900206C190020A1
:1031D000A416002008410020C8160020641C00200E
:1031E000991C00202DE9F04FCA4ACB4BD2F800E0E1
:1031F000B3F90600BEF80A302DED028B984285B077
:103200000FDBB0F5FA6F9EF8077007DAC21A574362
:10321000A3F5FA6397FBF3F7643703E0C7F164079C
:1032200000E06427BD4BB3F898210292BC4A93F9A1
:103230006231D2F800C09BB20021039364460A4673
:10324000B54B029D31F903B0C5EB0B0303F2F31646
:1032500040F2E635AE4203D8002BB8BF5B4201E036
:103260004FF4FA73022A4FF06406AE4D2ED09CF84C
:103270001181B8F1000F04D04345CCBFC8EB030364
:10328000002393FBF6F86FF0630A35F818900AFBF9
:10329000083A08F1010835F918800FFA89F5C5EBED
:1032A000080505FB0AF595FBF6F5A9449E4D21F8A6
:1032B00005900EEB02052D796B439C4D93FBF5F3C6
:1032C00064339BB27B4393FBF6F630E09CF81281AB
:1032D000B8F1000F04D04345CCBFC8EB0303002373
:1032E00093FBF6F66FF0630905EB460809FB063A17
:1032F00005EB4606B8F90E80B6F910508A4EC8EBB9
:10330000050505FB0AFA9AFBF9FA039DC8EB0A08C2
:1033100008FB05F8A6F804809EF8065083EAE376D9
:10332000A6EBE3766E43814D96FBF5F664360CEB27
:1033300002087C4B98F8019003F11C054FF06408DB
:1033400006FB09F999FBF8F902F8059094F80B903F
:1033500003F11F0506FB09F999FBF8F902F805903E
:1033600094F8159003F1220506FB09F6022A96FB54
:10337000F8F656551D4616BF253383F82780D754D7
:10338000029B694E9B4502DA735A5B4273520231CB
:10339000062902F1010204F101047FF451AF5F4CF0
:1033A000B4F89A31984205DBB0F5FA6FA8BF4FF434
:1033B000FA6000E01846C01A4FF47A725043C3F521
:1033C000FA63B0FBF3F34FF0640E93FBFEF205EBF0
:1033D00042016FF0630000FB023305EB4202098DEE
:1033E000B2F92A00504F0AB2821A534393FBFEFEF1
:1033F0004F4B1B8871445B06F18036D54D4BDFED9A
:103400004E7A1A88474BB3F84030D31A1BB208EEF5
:10341000903AF8EEE88A68EEA78AB0EE680A06F0FD
:10342000A5FAB0EE408AB0EE680A06F03CFAB7F9A9
:103430000220B7F9003006EE902A07EE903AF8EE37
:10344000E66AF8EEE77A20EE667AA7EE887A67EE0B
:10345000807ABDEEC77AE6EE887A17EE103AFDEE76
:10346000E77A3B8017EE903A7B80344B1A6812F073
:10347000020F9A4600F09680314B6A6C1B68294F08
:103480009A1A45F207218A4240F38C807B640DF042
:103490002FFE2C4BDFF8B8801A78032A9946B8F82B
:1034A000003022D10A2B2CD90023282089F80030A3
:1034B00004F027FF0DF01CFEB7F8480007F06AFF84
:1034C000214B22491B68DA7890FBF2F0421C082A53
:1034D00028BF08220A7059791B7992B251435A4386
:1034E000A7F84A10A7F84C200BE00A2B09D80323B1
:1034F000164A89F8003000231370A7F84A30A7F85D
:103500004C3099F800200F4B012A2DD022D3022AEB
:103510003ED047E098100020C00F00204807002050
:10352000700E0020201900207E1000200CFEFFFFEE
:1035300000100020580F002035FA8E3CA80500200E
:10354000CC160020981C0020381C002022000020EF
:103550003C1C0020B5F84A20B8F800309A4221DD22
:10356000012389F8003011E0B8F80020B5F84C10BC
:10357000914202DD02221A7011E09D49B1F84A1011
:1035800001318A4202DD00221A700BE0082007E0B8
:10359000B5F84C30B8F8002001339A42E0DC07203F
:1035A00004F04AFEDAF80070380573D5914B296DA6
:1035B0001A688F4BC1EB020B45F207218B4569DD81
:1035C0008D49B6F90690D1F800801A6598F80A106E
:1035D000B4F85201894E4FF47A7201299BFBF2FB39
:1035E000A9F57A7903D03ED302291CD03DE0586D6D
:1035F000082190FBF1FECEEB000090FBF1F14FF0C3
:10360000000E5865A3F858E089B2B8F8083040F6C3
:10361000E4404143C3EB1131B8F906304A4392FB11
:10362000F3F2326021E0764BB8F808A01B78C6F8B8
:1036300000A0590719D505F06DFC20B917F0100F3F
:1036400018BF4FF0000909FB09F2322392FBF3F394
:103650009944B8F906304FF47A7203FB09F393FBEF
:10366000F2F3534400E0002333603368654AD5E940
:10367000180103FB0BFB4FF47A739BFBF3FB10EB7E
:103680000B0041EBEB710023C5E918010FF066F95F
:103690005D4B18605D4B1A6812F4805F984626D027
:1036A0003A0621D55A4B1B789B071DD5594B1978E3
:1036B000042919D90023584E05229A551E44981CF6
:1036C0000A27122BC2B2777004D0B1EB520F034617
:1036D000F1D800E014222A44322382F86730FF2315
:1036E00082F868300F2000E00A2004F0A5FDD5F82C
:1036F00080703F4E002F46D0484BD6F88420196882
:103700008A429A463FD896F88830B6F88A907A6806
:10371000ABB9012386F8883012F80920CAB186F8BF
:103720008C3004F049FDB9F1000F12D13B78053B14
:10373000012B0ED804F011FCC6F8900009E000231C
:1037400086F8883012F809201AB186F88C3004F017
:1037500033FDB5F88A107A68254B525CFE2A03D1F6
:103760000022A3F88A200EE0FF2A02D104F04AFDCD
:1037700009E0DAF800000A2616FB02020131C3F85C
:103780008420A3F88A101E4E3278570704D5244BA4
:103790004FF480425A835AE0D8F80030D8075CBF13
:1037A00042F0010232701A4A1278110703D43278BB
:1037B00022F001023270DA0203D5337823F00103DC
:1037C0003370184B1B881BB1174B1B689B0705D424
:1037D000164B1B88003318BF012300E001233BB3C5
:1037E000022385F88C30337823F00103337025E011
:1037F00020190020CC160020381C0020441C00207A
:10380000DB160020407E0500481C0020FC0F002035
:103810003D0700203C0700208819002000410020BF
:10382000000C0240E20E002040070020D8160020C5
:103830003278D70758BF022385F88C3004F08DFB0F
:10384000D5F89430C01A002801DB04F0B5FC0DF067
:10385000ADF9BC4B1A78002A78D0D5F89830002BF7
:1038600000F05986D5F89800B74C04F0DBFD00282D
:1038700000F05186D4F8980004F0CFFD092801D05B
:103880003F2855D14FF00008D5F89C60AF4F444613
:103890002EB1AF48396832460FF0C0FF10B9B846B4
:1038A00004B93C46AB4B10379F42F1D304B3D4F874
:1038B00000E0D8F800C0D5F89C30A3481EF803708B
:1038C0001CF80310B94213D15A1C59B92D2B09D831
:1038D000C0F89C2003440244202783F8A07082F89B
:1038E000A01005E02B44C5F89C2083F8A070E2E707
:1038F000D5F89C300BB1444510D0974804F0F4FD46
:10390000444507D854F8100B04F0EEFD092004F0EC
:10391000E4FDF5E7914804F0E7FD0026D5F89C307A
:103920009E429FD28A4B985D04F0D7FD0136F5E7A1
:10393000D4F89C30002B40F01A86042840F0118601
:1039400004F1A00006F08CFF00F0E5BD844F97F86D
:103950004A30012B40F0DA85DFF82082814B3A684B
:10396000C8F800701A60C246DFF8F8914A4610683D
:1039700004F058FD002800F0B785D9F8000004F0E5
:103980004CFDDAF8003093F84810834619B9242822
:103990003FD101223AE0012904D14D280CBF022277
:1039A000002233E0022904D13C280CBF032200226C
:1039B0002CE003290CD140284FF0000102D983F8F4
:1039C000481046E058711971D971987104221DE0B0
:1039D000042907D1997983F8490080EA01029A7194
:1039E000052213E0052934D158791979884298794C
:1039F00008D98BEA00009871481C18710B4483F8B1
:103A000008B026E058450CBF0622002283F8482063
:103A10001FE033785B071CD4BBF1230FD9F80030CB
:103A20000CD1484A5048C5F8983001211170C5F8AA
:103A3000683104F059FD494804F056FDD5F86C3161
:103A40001B785B4505D1494B494A1A60494B4A4AA4
:103A5000DA60DAF80030DFF8249193F84820062A7B
:103A600082D193F8490001F0C1FD002840F0328571
:103A7000D9F8002092F849304E2B00F0AE8400F2C5
:103A80009380372B00F0E88421D8292B00F0718433
:103A900009D8252B00F03284272B00F03684232B05
:103AA00040F05C85E1E02D2B00F0748407D82B2BCF
:103AB00040F0548504F02AF9607100F008BD332B02
:103AC00000F0B884352B00F0458200F047BD412B53
:103AD00000F0B5840AD83C2B00F00E813E2B00F09C
:103AE000FE80392B40F03A8500F032BC442B00F0C8
:103AF000EB8445D8432B40F0318504F007F90023CF
:103B0000A360607104F016F9A3681843A06004F084
:103B1000FDF884F8920104F003F9A4F85C0104F0C4
:103B2000FFF8A4F85E0104F0FBF8A4F8600104F0CB
:103B3000F7F8A4F8820104F0F3F8A4F8840100F087
:103B4000C6BC00BFDA16002020190020A0760108AC
:103B5000C019002030780108907A0108957A010890
:103B6000F0190020F01C0020C57A0108FCFF01209C
:103B7000EFBEADDE00ED00E00400FA05EC1C002015
:103B80004A2B00F0B5804C2B40F0E88404F0BEF8DE
:103B900084F8D00104F0BAF884F8D10104F0C0F838
:103BA000A4F8D20100F093BCD12B00F06A831AD89C
:103BB000CC2B00F00B8209D8C92B00F03A83CA2B1A
:103BC00000F0A880C82B40F0C98444E0CE2B00F060
:103BD0002283C0F01783CF2B00F04C82D02B00F053
:103BE000068300F0BBBCD62B00F07D8207D8D32B18
:103BF0002BD017D3D42B00F0828200F0AFBCEF2B78
:103C00005ED007D8D82B08BF4FF0000A00F015810E
:103C100000F0A4BCF22B00F0C282FA2B00F0058366
:103C200000F09CBC337803F0040303F0FF09002B81
:103C300040F04D8404F06AF8022884F8E40640F26B
:103C4000DC82D94B83F8E496D7E204F069F8A5F852
:103C5000700100F03CBC92F805A04FEA5A0ABAF194
:103C6000120F1CD84FF000091DE004F04FF8132884
:103C700015D8DFF844A3DAF8003000F11E0B03EB8F
:103C80008B0B04F043F8C94B0BF1010903F5A27249
:103C9000197A814200F03F810C339342F8D10AF047
:103CA00031F800F014BCD14507D204F039F8C04B0C
:103CB00023F8190009F10109F5E70122BD4BB2E231
:103CC000DFF8F492D9F800A004F02AF8AAF85A0014
:103CD000D9F8009004F024F8A9F85800F7E304F0AC
:103CE00015F884F8D60104F011F884F8D501EEE354
:103CF00004F016F8A081EAE3DFF8BC92D9F800A03E
:103D000004F004F88AF80000D9F80030187805F0BB
:103D10002DFCDCE3A84B1A681278022A4FF0000A47
:103D200099466FD1D9F800B003F0F0FF07EE100A02
:103D3000F8EE477AB2EE048AC7EE887A0BEB8A0374
:103D4000D9F800B0C3ED087A03F0E0FF07EE900A5F
:103D5000B8EE677ADFED997AC7EE277A0BEB8A0324
:103D6000D9F800B0C3ED0B7A03F0D0FF07EE900A4C
:103D7000B8EE677ADFED927AC7EE277A0BEB8A030B
:103D80000AF1010ABAF1030FC3ED0E7ACAD1BAF1F2
:103D9000070FD9F800B01CD103F0B8FF07EE100AE6
:103DA000F8EE477AC7EE887ACBED117AD9F800B0F1
:103DB00003F0ACFF07EE100AF8EE477AC7EE887AF8
:103DC000CBED127AD9F800B003F0A0FF8BF84C00CD
:103DD00012E003F09BFF0BEB0A035870D9F800B018
:103DE00003F094FF0BEB0A03D9F800B0D87203F08C
:103DF0008DFF0BEB0A0358750AF1010ABAF10A0F9D
:103E0000C5D164E3D9F800B003F080FF0BEB0A03DF
:103E10005870D9F800B003F079FF0BEB0A03D9F81A
:103E200000B0D87203F072FF0BEB0A030AF1010A2B
:103E3000BAF10A0F5875E5D149E3DFF87C919FED9F
:103E4000608AD9F800B003F06BFF07EE100AF8EEB5
:103E5000477A0BEB8A03C7EE887AD9F800B0C3ED36
:103E6000087A03F05DFF07EE100AF8EE477A0BEBD5
:103E70008A03C7EE887AD9F800B0C3ED0B7A03F055
:103E80004FFF07EE100AF8EE477A0BEB8A03C7EEF6
:103E9000887A0AF1010ABAF1030FC3ED0E7ACCD188
:103EA000BAF1070FD9F800B01CD103F039FF07EEC3
:103EB000100AF8EE477AC7EE887ACBED117AD9F876
:103EC00000B003F02DFF07EE100AF8EE477AC7EEB8
:103ED000887ACBED127AD9F800B003F021FF8BF885
:103EE0004C0012E003F01CFF0BEB0A035870D9F8EA
:103EF00000B003F015FF0BEB0A03D9F800B0D8723D
:103F000003F00EFF0BEB0A0358750AF1010ABAF130
:103F10000A0FC5D1DBE21B788BF8013003F0F6FE07
:103F200089F8010003F0F2FE89F8020003F0EEFECA
:103F300089F80300DAF80000224BC5F87801002167
:103F40007930C5F8743103F0F7FF1F4B80F00100A2
:103F50001870BCE203F0DAFE0B283FF6A0AE164B59
:103F60004FF0060A0AFB00F01B68C83003EB000A9A
:103F700003F0CCFE03283FF692AE8AF8060003F069
:103F8000C5FE8AF8010003F0C1FE8AF8020003F0C2
:103F9000BDFE8AF8030003F0B9FE8AF8040003F0BE
:103FA000B5FE8AF8050092E2480700203078010843
:103FB000C00F002001070020700E00200000C84242
:103FC00000007A448C080020110000205379092B4E
:103FD0007FF665AED34AD2F800A003F097FED14B2E
:103FE0008AF80000D3F800A003F090FE8AF80100E0
:103FF00003F08CFECB4A13686428A8BF64201871B4
:1040000003F084FEC74A13686428A8BF642058716F
:1040100003F07CFEC34A1368FF28A8BFFF209871F5
:1040200003F074FEBF4BD3F800A0642828BF6420BF
:104030008AF8070003F06AFEBA4A8AF80200D2F84A
:1040400000A003F063FEB74B8AF80300D3F800A08A
:1040500003F066FED9F80030AAF80A005B790A2B53
:1040600040F23582AF4BD3F8009003F04FFE89F851
:1040700008002CE203F054FE6FF4AF6143189BB2CA
:10408000C62B98BFA4F8980103F04AFEA4F8440197
:1040900003F046FEA4F8460103F042FEA4F84801EE
:1040A00003F03EFEA4F8D20103F030FE84F8E301F1
:1040B00003F02CFE03F02AFE84F8E40103F026FE50
:1040C00084F8870103F022FE84F8940103F01EFEB9
:1040D000954BD3F8009003F023FE00EB80004000E6
:1040E000A9F8560034E1814603F01AFE8F4B23F8FD
:1040F000090009F10209B9F1100FF5D1E7E153798F
:104100000F2B7FF4CCAD03F001FE072881463FF66C
:10411000C6ADDFF814A2DAF800B003F001FE0E23FA
:1041200003FB09F90BEB0903DAF800B0A3F8190156
:1041300003F0F6FD0BEB0903DAF800B0A3F81B015E
:1041400003F0EEFD0BEB0903DAF800B0A3F81D0154
:1041500003F0DCFD0BEB0903DAF800B083F81F0174
:1041600003F0D4FD0BEB0903DAF800B083F820016B
:1041700003F0CCFD0BEB0903DAF800B083F8210162
:1041800003F0C4FD0BEB0903DAF800A083F8220169
:1041900003F0D0FD0AEB0903C3F8230197E103F014
:1041A000B5FD0F2881463FF67AAD03F0AFFDC9EBB0
:1041B000C909A14489F8D40003F0A8FD89F8D50005
:1041C00003F0A4FD89F8D60003F0A0FD89F8D7001C
:1041D00003F09CFD89F8D80003F098FD89F8D90018
:1041E00003F094FD89F8DA0005F080F96FE1337887
:1041F0005A0700F16C8108F0FBFD04F0EFFD0CF0B4
:10420000E3F864E133785B0700F16181484B4FF4D8
:10421000C8721A805BE13378580700F15881454B2A
:104220001A7842F004021A7051E133785907E4D544
:1042300094E103F06BFD3F4B1A7810B142F002029B
:1042400001E022F002021A7003F060FD3A4BDFF841
:10425000FC90187003F06EFDC9F8000003F06AFDD1
:10426000C9F8040003F05CFD344B188003F058FDDE
:10427000334B188095F87C3143F0020385F87C318C
:1042800025E103F043FD019003F054FD834603F064
:1042900051FD824603F04EFD814603F041FD03F0DF
:1042A0003FFD03F033FD019B9BB91020C5F880B1A1
:1042B000C5F884A104F00AF81E4B1A7842F00102F6
:1042C0001A70B9F1000F00F002811E4BC3F88891FB
:1042D000FDE0102B40F0FB80C5F88CB1C5F890A133
:1042E000B9F1000F02D0174BC3F88891164802238A
:1042F000011D85F8943104F03FFCE8E0A06003F074
:1043000019FDA3681843A060E1E003F009FDA4F8DB
:104310005C0103F005FDA4F85E0103F001FDA4F8C3
:104320006001D4E098100020700E00209A11002047
:10433000E20E00203D0700203C0700204E1C00201C
:104340004C1C002020190020AC1A0020541C002016
:1043500003F0DCFC84F87C0103F0D8FC84F88001D5
:1043600003F0D4FC84F87F0103F0D0FC84F88101D1
:10437000ADE003F0D5FCA4F8820103F0D1FCA4F871
:10438000840103F0C3FC84F8860103F0C9FCA4F89F
:1043900088019CE003F0BAFC84F8920103F0C0FCB1
:1043A000A4F89C0103F0BCFCA4F8980103F0B8FC4D
:1043B000A4F89A0103F0AAFCD9F8003084F893011C
:1043C0005B79082B40F2838003F0AAFCA4F89E01DD
:1043D00003F0A6FCA4F8A00179E092F805B003234D
:1043E000BBFBF3FBBBF10E0F3FF659ACDFF8E892D5
:1043F0004FF0040ADA456AD203F088FC89F8A2017A
:1044000003F08EFC40F2ED23984205DD40F6CA032E
:104410009842A8BF184601E040F2EE20A0F2EE203C
:10442000192390FBF3F089F8A3010AF1010A09F1BD
:104430000209DFE703F06AFC84F8940147E0814653
:1044400003F064FC04EB090309F10109B9F1080F59
:1044500083F88A01F4D13AE053794FF0070AB3FBAD
:10446000FAFACAEBCA029B1A13F0FF0F7FF417ACDB
:104470005FFA8AFABAF1000F29D003F047FC5FFA1D
:1044800080FB4FFA8BF003F08FFC0AF1FF3A5FFAE2
:104490008AFA814600283FF402AC80F800B003F0AD
:1044A0003FFCA9F8020003F031FC89F8040003F096
:1044B0002DFC89F8050003F029FC89F8070003F0BA
:1044C00025FC89F80600D5E7012385F89531002001
:1044D00003F0EEFFD8F80030987903F0BAFFD8F86F
:1044E0000030002283F8482095F8953173B1386880
:1044F00003F071FF18B9322003F003FFF7E706F06D
:1045000071F903F03BFF604B604ADA60604B4C3757
:104510009F427FF41CAA5F4B1B689A0616D55E4B20
:10452000D5F898211B689A1A002A0FDB5B4A12788B
:10453000042A0BD95A4A03F5123303F5F873C2F86B
:104540009831584B5A6982F400425A61564B9B6825
:10455000002B00F09380554898478FE009F0D2FB7C
:10456000B8E70C2825D1524803F0BEFF1FE00C2805
:10457000F9D00A2821D14A4C4E4804F1A00603F094
:10458000B3FF304623210FF034F910B1801BC4F87B
:104590009C00D5F89C30BBBB30224748C5F89C3006
:1045A00000210FF0F3F8454A1378002BB3D04448AC
:1045B0000FE07F2814D1FFF755B90D28DBD07F28F5
:1045C0000BD1013BC4F89C30234400223D4883F8C2
:1045D000A02003F089FFFFF745B92F2B3FF642A932
:1045E000A0F12002D2B25E2A3FF63CA913B92028DE
:1045F0003FF438A95A1C2B44C5F89C2083F8A0002E
:1046000003F06BFFFFF72EB9591E254A705C202876
:1046100001D10B46BFE7C2F89C301344002283F857
:10462000A020294B294CD3F800A0D4F80090DFF843
:10463000708048460FF0EAF808F1A00706464946A0
:10464000384632460FF0EAF8214B38B908EB06023B
:1046500092F8A02052445278500703D010349C4264
:10466000E3D306E09C4204D2701CE36838449847C8
:1046700002E0184803F038FF00238DE705B0BDECD9
:10468000028BBDE8F08F00BF00ED00E00400FA05EA
:10469000881A002040070020CC1600203C0700208C
:1046A00020190020000C0240580E0020361C00206B
:1046B0009A7A0108528A0108C0190020DA160020EF
:1046C000957A0108C17A010830010020A07601081E
:1046D00030780108A57A0108480700202DE9F04F3D
:1046E000AA4EAB4A3368AB4C03F59C4320331360AE
:1046F0002388A94A01331168238042F201030B4049
:1047000087B093461BB1A54B1A7801321A7004F09A
:1047100023FCDBF80030DD0405D5A14B1B68D8076E
:1047200001D40CF031F89F4B9F4D1A68937A23B354
:10473000013B127B35F813301AB1C3F53B630833E4
:104740009BB21BB2A3F57A73B3F57A7FA8BF4FF47F
:104750007A7323EAE37307EE903AB8EEE77ADFED77
:10476000937A934BC7EE277A9FED927A67EE877A1A
:10477000FCEEE77A17EE902A1A80DBF80030D905B4
:1047800040F1858032688C4B9A4204D9237913B961
:10479000804B01221A71B4F900E088497D4B0E78F4
:1047A000BEF1140FCCBF4FF0000E4FF0010EC6F358
:1047B0008006BEF1000F03D000279F715F7100E0FB
:1047C0000327764BB4F900C058687D4B94F80680F7
:1047D000D3F800A0627963882988B8F1030F4DD817
:1047E000DFE808F0020E223BBEF1000F02D0298064
:1047F000002130E0002E40F077862980A67140E04D
:1048000090F8009009EB8909CC45CCBFB1464FF038
:1048100000094FF00108B9F1000F2FD001334246D3
:104820009BB24FF00208D8E736B1BAF80E10698093
:10483000A9804788EF80022790F8009090F80180C7
:10484000C84408EB8808C44500F35286002E00F0E7
:104850004F8629800221A17113E029800321A171D3
:10486000627163807EB155490B7843F002030B708F
:10487000484B00225A710BF087FF04E0298084F82E
:1048800006806271638017B1384603F0D5FC4D4F46
:10489000B7F8520104F03EFB814660B904F09CFE7B
:1048A0003E4B0022C3F80890C3F80C90C3F8109058
:1048B0005A619A61DA61414A13785A0742D5DBF8A6
:1048C0000030DB063ED5404B1B78DE063AD43F4B2A
:1048D000324E93F80080B8F1000F10D097F8D6311F
:1048E000B9F1000F15D16BB1394B1A68336A9B1AB5
:1048F000002B07DA0BF048FF86F8249022E0B9F18C
:10490000000F18D1102003F097FC012386F8243003
:1049100018E033B12E4A12684FF47A7101FB032379
:10492000336296F824306BB103F06CFC1B4B002211
:1049300083F8242006E096F824301BB103F062FCD3
:1049400086F82480002297F8D4A197F8D511B7F8FB
:104950009A61B7F89CE11346A85E9B08B042C4BFB9
:1049600063F07F03DBB202327045B8BF43F040030F
:10497000082AF1D1094E96F825209A422AD196F8B4
:104980002620F92A29D8013225E000BFCC160020C4
:104990000407002084110020A8050020C01A002070
:1049A000FC0F0020AC050020C00F002000007A445E
:1049B000B61B002000C07F44404B4C00DB1600209B
:1049C000BC180020480700203D07002011000020EF
:1049D00000410020002286F8262086F82530944BDE
:1049E000DFF880821A78EAB9D8F80030D80709D5FC
:1049F000B9F1000F16D18F490B78DA0712D50BF0F9
:104A000043FF0FE08B4A13785B070BD58A4B1B786B
:104A100043B1637933B911B10BF0B6FE02E0B9F1DD
:104A2000000FF9D096F82620844BDFF84092142A24
:104A300040F095807E490A781AF1000A18BF4FF0BD
:104A4000010A7AB393F825205F2A12D179490A78AE
:104A500002F0040202F0FF0112B10BF095FE08E033
:104A60000B200191009303F0E7FB009B019983F871
:104A70002610BAF1000F15D096F825307D2B11D1F4
:104A80006C4A137803F0040303F0FF0213B10BF038
:104A90007BFE07E00B20019203F0CEFB674B019AEF
:104AA00083F8262063490B7803F0040303F0FF002A
:104AB000002B54D196F82530604A572B11D1604B0A
:104AC0004FF47A721A80DBF80030180601D505F031
:104AD0006DF85C4B1B6813F0080340D15A4A1380F1
:104AE0003DE0DBF80010490715D55A2B13D1574B81
:104AF000197819B118700122554B1EE092F8273031
:104B000083F0010382F827300BB10C2000E00D2068
:104B100003F092FB23E05D2B00F0EE845B2B00F0B2
:104B2000ED845E2B0BD1032000F0E9BCA72B40F0F5
:104B30000485484B1A7842F004021A700FE0562B95
:104B400003D100930AF0AEFA009B39490A78002A93
:104B500000F0EA846F2B40F0E1840BF095FEDBF867
:104B600000305B0734D596F82730A3B1314A13786B
:104B7000580710D5B5F90620B7F89A319A420ADDE0
:104B8000D8F8003013F0010305D1334A32211180E7
:104B90002A4A82F82730D8F80030D9030AD52F4B9B
:104BA0001A782AB9294A127812B92B4A322111806F
:104BB00001220CE0254B1A7852B11E490A7802F006
:104BC000040202F0FF011AB91970214B01221A7078
:104BD000D9F80090002709F1790AC8F8007009F1A6
:104BE0007B060AF10203D919DA5D4B7816F8010C3D
:104BF0009A420CD231460CF057FA40B116F8023CFA
:104C000001229A40D8F800301343C8F80030043726
:104C1000502F06F10406E4D1114B1F7847B3114D14
:104C2000084F2B68104E13F0020F40F04D8345E300
:104C300011000020DB160020A1050020C01A002072
:104C4000D816002040070020580F00200D0F00202C
:104C50000E0F00203D070020F40E00200C0F002056
:104C6000DA160020FC0F002000100020700E00203B
:104C700009F1C90A09F1CA060AF10103D919DA5D75
:104C80004B7816F8010C9A4229D231460CF00CFAF6
:104C900028B396F802E0BF4B307996F803900EF1F6
:104CA000FF3E0EEB4E0E9E44BB4B4FF00C0C03F13F
:104CB00028080CFB00FC08EB0C014A6872450ED07A
:104CC000002208F80C908A60012202FA00F093F8A2
:104CD0005820C1F804E022EA000083F858000637A3
:104CE000482F06F10606C7D1AC4BDFF8D0921E68FC
:104CF000AB4B1B680293AB4B1B7803934FF0000840
:104D0000D9F80030002B00F0D0821F78002F00F07F
:104D1000CC82D9F8042002998A1A002A0DDB01F509
:104D2000FA72C9F804209C4A012192F8580001FA4D
:104D300008F120EA010182F85810039A002A00F0D5
:104D4000B48219F8041C5878934A0431C9B2002877
:104D500040F06A82944835F91110B0F8980100F1DA
:104D6000C80E714502DD93F802A015E0C8388142F3
:104D700003DA9B78C3F1000A0EE092F85810012381
:104D800003FA08F321EA030382F85830029A02F585
:104D9000FA73C9F8043088E292F8583043FA08F3FD
:104DA000DA0700F18282BAF1000FCCBF02200120A5
:104DB00003F064FA7B1E132B00F26E82DFE813F01F
:104DC000140021002E003E0056005D00C3003C018F
:104DD000A201D20102026C023E004C005D00C30041
:104DE0003C0193000E01720137785744FA2FA8BF97
:104DF000FA2727EAE7773046377003F061F8012099
:104E00001AE077785744642FA8BF642727EAE7772A
:104E10003046777003F054F802200DE0F778634BCA
:104E20005744642FA8BF642727EAE777F770304616
:104E3000196802F0FFFF03203946C0E1717951443F
:104E40006429A8BF642121EAE17171710D2005F088
:104E500083FC0D2F00F02082317951446429A8BFD2
:104E6000642121EAE17131710E20A8E1B179514448
:104E700081F30801B1710520A1E14D4B1B681A783F
:104E8000022A22D107EE90AAB8EEE70AF2EE047ADF
:104E900080EE270AD3ED097A30EE270AB5EEC00A74
:104EA000F1EE10FA09D4DFED437AB4EE670AF1EEC1
:104EB00010FAC8BFB0EE670A01E09FED3F0A83ED2C
:104EC000090A0F2005F05CFC0AE099785144C829D2
:104ED000A8BFC82121EAE17199700F2005F03CFCC0
:104EE0000F2F00F0D981324B1B681A78022A20D18B
:104EF00007EE90AAB8EEE70AF2EE047A80EE270AEF
:104F0000D3ED087A30EE270AB5EEC00AF1EE10FABA
:104F100009D4DFED287AB4EE670AF1EE10FAC8BFC3
:104F2000B0EE670A01E09FED240A83ED080A122023
:104F30006DE159785144C829A8BFC82121EAE1711F
:104F4000597012203BE11A4B1B681A78022A37D19C
:104F500007EE90AAB8EEE70ADFED167A93ED0C7A29
:104F600080EE270A30EE070AB5EEC00AF1EE10FA1D
:104F700007D4B4EE670AF1EE10FAC8BFB0EE670AC4
:104F800001E09FED0D0A83ED0C0A102005F0F8FBFF
:104F900021E000BF7C7F0108C01A0020981000208B
:104FA00000410020A105002048070020941A00209D
:104FB000981A00200000C84200000000EC1A0020EF
:104FC000197B5144C829A8BFC82121EAE17119738E
:104FD000102005F0C1FB102F00F05E81C34B1B6851
:104FE0001A78022A1ED107EE90AAB8EEE70ADFED82
:104FF000C07A93ED0B7A80EE270A30EE070AB5EE01
:10500000C00AF1EE10FA07D4B4EE670AF1EE10FA16
:10501000C8BFB0EE670A01E09FEDB60A83ED0B0A48
:105020001320F4E0D97A5144C829A8BFC82121EA45
:10503000E171D9721320C2E0AC4B1B681A78022AC6
:1050400022D107EE90AAB8EEE70ADFEDAB7A80EE48
:10505000270AD3ED0F7A30EE270AB5EEC00AF1EE3B
:1050600010FA09D4DFEDA27AB4EE670AF1EE10FA75
:10507000C8BFB0EE670A01E09FED9E0A83ED0F0AFC
:10508000112005F07DFB0AE0997D5144C829A8BF95
:10509000C82121EAE1719975112005F05DFB112FFE
:1050A00000F0FA80914B1B681A78022A20D107EE93
:1050B00090AAB8EEE70ADFED907A80EE270AD3EDEA
:1050C0000E7A30EE270AB5EEC00AF1EE10FA09D4D6
:1050D000DFED877AB4EE670AF1EE10FAC8BFB0EEE2
:1050E000670A01E09FED830A83ED0E0A14208EE02B
:1050F000597D5144C829A8BFC82121EAE1715975D9
:1051000014205CE0794B1B681A78022A20D107EE44
:1051100090AAB8EEE70AF2EE047A80EE270AD3ED01
:105120000A7A30EE270AB5EEC00AF1EE10FA09D479
:10513000DFED6F7AB4EE670AF1EE10FAC8BFB0EE99
:10514000670A01E09FED6B0A83ED0A0A09205EE021
:10515000D9785144C829A8BFC82121EAE171D97082
:1051600009202CE0614B1B681A78022A1ED107EE39
:1051700090AAB8EEE70ADFED5E7A93ED0D7A80EE45
:10518000270A30EE070AB5EEC00AF1EE10FA07D48E
:10519000B4EE670AF1EE10FAC8BFB0EE670A01E09C
:1051A0009FED540A83ED0D0A0A2030E0597B5144EB
:1051B000C829A8BFC82121EAE17159730A2005F066
:1051C000CBFA69E0494B1B681A78022A22D107EE14
:1051D00090AAB8EEE70ADFED487A80EE270AD3ED11
:1051E000107A30EE270AB5EEC00AF1EE10FA09D4B3
:1051F000DFED3F7AB4EE670AF1EE10FAC8BFB0EE09
:10520000670A01E09FED3B0A83ED100A0B2005F0D1
:10521000B7FA41E0D97D5144C829A8BFC82121EA85
:10522000E171D9750B20CAE7012835D135F9111084
:105230009878B1F5617F05DB40F633039942B8BF3A
:105240000B4601E04FF461730C2F25D14FF49661AA
:1052500091FBF0F1A3F5617393FBF1F392F8591010
:105260005FFA83FA514517D0BAF1030F94BF514644
:10527000022182F85910214A07FB0121204A0631F8
:10528000116002F037FE3846514605F065FA0AF122
:105290000100C0B202F0F2FF1A4B012293F858103D
:1052A00002FA08F20A4383F8582008F10108B8F11D
:1052B000040F09F10C097FF423ADB0E4DBF80030F2
:1052C000DB050ED5637963B13B689C0709D533884C
:1052D00013F0010418D104F07FF9012002F0E6FF79
:1052E00012E0012002F0F2FF01230EE0981A0020E4
:1052F0000000C8420000000000007A44280E002090
:1053000098100020C01A002000232A6850070CD5EE
:105310005BB1012002F0DAFF3388990708D404F06A
:105320005BF9022002F0C2FF02E0022002F0CEFF91
:1053300034889D4B14F0030F4FF4004214BF5A837E
:105340001A833B689A0608D42B681B0540F19D80A0
:105350004FF4807002F0AAFF9BE0944B1B789F07EC
:1053600063D5934B1B78042B5FD92B6813F400771C
:1053700004F010040DD0002C4BD1102002F096FF49
:10538000202002F0A3FF8B48011D03F0F5FB022251
:105390003BE0A4B22CB1102002F098FF864B012410
:1053A0001F702B68580529D5844B1B685A89844B7C
:1053B000B3F900100029B8BF4942914209DAB3F9A4
:1053C0000230002BB8BF5B429342ACBF00230123E5
:1053D00000E0002393B1338899061BD4202002F00B
:1053E00065FF7848784B011D1A685B68436002606E
:1053F00003F0C2FB704B01241C700BE033889A064B
:1054000008D5202002F062FF00226B4B01241A70A5
:1054100000E000246D4E96F85A309BB90E2002F041
:105420000BFF012386F85A300CE014F0300F8BD0BC
:10543000102002F04BFF202002F048FF5E4B0022BC
:105440001A7002E0002C3FF47FAF00221346604840
:10545000604C00211952604819526048A618195230
:10546000002030607160B06004F1280650341644AA
:1054700014440233042B30607160B06020606160BE
:10548000A06002F11402E2D15EE74FF4807002F0F6
:105490001DFF534A5379082B144601D00E2B02D11D
:1054A000402002F013FFDBF800305B0579D594F85B
:1054B0000C3223B94B490B7813F0040F02E02B6830
:1054C00013F4002F0BD0414B002283F8D4203C2052
:1054D00008F01CFC002864D002F046FCF7E70BF053
:1054E00065FB0BF0FDF85CE04FF00108FFF775B9C4
:1054F0004FF00308FFF771B9012000E002205FFAC6
:1055000080FA0AF1FF3387F8E43603F067FC0AF00B
:105510005BFF504602F0B2FEFFF721BBBAF1000F6D
:1055200002D07E2B3FF419AB972B7FF4FFAA2E4BB2
:105530004FF4C8721A80FFF712BB0022BB2B0592F2
:1055400001D1022303E0B72B04D14FF6FE73ADF86F
:1055500016300AE0BE2B01D1022304E0BD2B7FF4FC
:10556000FEAA4FF6FE73ADF81430D9F80030BDF83E
:105570001410B3F858200A44A3F85820BDF81610A8
:10558000B3F85A200A44A3F85A2003F027FC0AF083
:105590001BFF012002F072FE002386F82630FFF781
:1055A000DEBA07B0BDE8F08F000C02403D070020D6
:1055B0003C070020A01A0020B41A00208C10002004
:1055C0007E100020AC1A0020541C0020C01A0020BD
:1055D000D01600201C1B00209010002094100020EA
:1055E00048070020DB160020E20E00202DE9F04FD6
:1055F0002DED028B642889B0044600F07A8100F218
:105600009C80342800F0A68451D8222800F082849F
:1056100023D8032800F03A8114D8012800F02A8109
:10562000022840F0DC86042002F042FF432002F012
:1056300010FF4C2002F00DFF462002F00AFF4C2024
:1056400000F041BE042800F02B81052840F0C786F9
:105650001A2002F02DFF002432E1282800F0CC852A
:1056600015D8242800F0B385262840F0B886A94C28
:10567000062002F01DFFB4F85C0102F01CFFB4F834
:105680005E0102F018FFB4F8600100F073BE2C2830
:1056900000F0C585322800F010862A2840F09F8649
:1056A000012002F005FF9B4B587900F00CBE40280A
:1056B00000F0328621D83A2800F0A3820BD8362891
:1056C00000F05B86382840F08A86042002F0F0FE65
:1056D000904C00F082BD3B2800F015843D2840F03E
:1056E0007E868C4C022002F0E3FE94F8D60102F094
:1056F000B0FE94F8D50100F0E6BD462800F05686CD
:105700000BD8422800F01686452840F06886132002
:1057100002F0CEFE002400F053BE4B2800F09E8520
:105720004D2800F0AA85492840F05986022002F051
:10573000BFFE784B988900F01DBE722800F07B8474
:105740004AD86A2800F0BB8424D8672800F0CA81B0
:1057500011D8652800F0F680662840F040861220B7
:1057600002F0A6FE6C4B1B88B3F5806F94BF012539
:105770000825002498E1682800F02482692840F078
:105780002E86664DE87E400000F0FE0002F090FE9E
:10579000002423E26D2800F02C8213D86B2800F03F
:1057A000AD846C2840F01B865D4C062002F080FE24
:1057B000208802F080FE608802F07DFE594B188838
:1057C00000F0D8BD6F2800F07382C0F01E827028F0
:1057D00000F0988200F003BE782800F0908119D87C
:1057E000752800F0848308D8732800F05D8474283D
:1057F00040F0F58500270124DFE3762800F08E8451
:10580000772840F0EC85454D287802F051FE0024C1
:1058100000F005BCA42800F0A78414D87B2800F071
:105820000C83A02840F0DB850C2002F041FE3E4BAB
:10583000186802F049FE3D4B186802F045FE3C4BEB
:10584000186800F0C8BDF12800F09581FE2800F02E
:10585000B284F02840F0C385364C042002F028FEC4
:105860002368B3F85A0002F026FE2368B3F8580004
:1058700000F080BD032002F01BFE002002F0E9FDD5
:10588000204602F0E6FD0C2000F01DBD02F010FEE7
:10589000012002F0DEFD0A2002F0DBFD00F062BC18
:1058A000062002F005FE562002F0D3FD522002F041
:1058B000D0FD422002F0CDFD522002F0CAFD9EE153
:1058C0001D4B185D013402F0C4FD0B2CF8D10024EF
:1058D0001A4B185D013402F0BCFD082CF8D10024ED
:1058E000174B185D013402F0B4FD072CF8D100F01D
:1058F00074BD072002F0DCFDE72002F0AAFD054B95
:10590000587902F0A6FD002002F0A3FD042000F06B
:1059100062BD00BF4807002002000020981B002045
:10592000480F0020580F0020107AFF1F147AFF1F25
:10593000187AFF1F700E0020FC620108086301083E
:10594000C47A01080B2002F0B3FDC74B188802F09F
:10595000B2FD002002F0AFFDC44B1B68C3F3C000D2
:10596000C3F38002800040EA4200C3F340021043C8
:10597000C3F3401240EAC20003F01003184302F0E0
:105980009AFDBB4B1A8812F0010F0CBF00210221B7
:1059900012F0020F0CBF0023042312F0040F019138
:1059A0000CBF0021102112F0400F02930CBF002306
:1059B00020230493AF4B03911B6802F0080A03F005
:1059C000C00B03F480794BEA0A0A03F480584AEAD0
:1059D000090A03F4005C4AEA080A03F4804E4AEA22
:1059E0000C0A03F400474AEA0E0A12F0100F03F4FF
:1059F00080364AEA070A0CBF00214FF4007103F415
:105A0000003512F0200F4AEA060A059103F48024BB
:105A10000CBF00214FF480614AEA050512F4807F33
:105A200045EA0404069103F400200CBF00214FF462
:105A300000612043079103F48011014303F00073D8
:105A40000B438D490D780199C5F380052B430B431A
:105A500002990B4303990B4304990B4305990B439C
:105A600006990B43079912F4007F43EA01030CBF28
:105A700000224FF400121A43804B00201C7803468A
:105A8000A3420AD27E495D5C012101FA05F5154267
:105A90001CBF994008430133F2E702F015FD794B32
:105AA00093F8E40600F00FBC774BE05E90FBF5F056
:105AB00080B2023402F0FFFC062CF5D1734C208832
:105AC00002F0F9FC608802F0F6FCA088704C02F04D
:105AD000F2FC208802F0EFFC608802F0ECFCA08869
